ARM GAS  C:\Users\LIGUOH~1\AppData\Local\Temp\cc5HloQl.s 			page 1


   1              		.cpu cortex-m3
   2              		.eabi_attribute 20, 1
   3              		.eabi_attribute 21, 1
   4              		.eabi_attribute 23, 3
   5              		.eabi_attribute 24, 1
   6              		.eabi_attribute 25, 1
   7              		.eabi_attribute 26, 1
   8              		.eabi_attribute 30, 1
   9              		.eabi_attribute 34, 1
  10              		.eabi_attribute 18, 4
  11              		.file	"adc.c"
  12              		.text
  13              	.Ltext0:
  14              		.cfi_sections	.debug_frame
  15              		.section	.text.MX_ADC1_Init,"ax",%progbits
  16              		.align	1
  17              		.global	MX_ADC1_Init
  18              		.arch armv7-m
  19              		.syntax unified
  20              		.thumb
  21              		.thumb_func
  22              		.fpu softvfp
  24              	MX_ADC1_Init:
  25              	.LFB65:
  26              		.file 1 "Core/Src/adc.c"
   1:Core/Src/adc.c **** /**
   2:Core/Src/adc.c ****   ******************************************************************************
   3:Core/Src/adc.c ****   * @file    adc.c
   4:Core/Src/adc.c ****   * @brief   This file provides code for the configuration
   5:Core/Src/adc.c ****   *          of the ADC instances.
   6:Core/Src/adc.c ****   ******************************************************************************
   7:Core/Src/adc.c ****   * @attention
   8:Core/Src/adc.c ****   *
   9:Core/Src/adc.c ****   * <h2><center>&copy; Copyright (c) 2021 STMicroelectronics.
  10:Core/Src/adc.c ****   * All rights reserved.</center></h2>
  11:Core/Src/adc.c ****   *
  12:Core/Src/adc.c ****   * This software component is licensed by ST under BSD 3-Clause license,
  13:Core/Src/adc.c ****   * the "License"; You may not use this file except in compliance with the
  14:Core/Src/adc.c ****   * License. You may obtain a copy of the License at:
  15:Core/Src/adc.c ****   *                        opensource.org/licenses/BSD-3-Clause
  16:Core/Src/adc.c ****   *
  17:Core/Src/adc.c ****   ******************************************************************************
  18:Core/Src/adc.c ****   */
  19:Core/Src/adc.c **** 
  20:Core/Src/adc.c **** /* Includes ------------------------------------------------------------------*/
  21:Core/Src/adc.c **** #include "adc.h"
  22:Core/Src/adc.c **** 
  23:Core/Src/adc.c **** /* USER CODE BEGIN 0 */
  24:Core/Src/adc.c **** 
  25:Core/Src/adc.c **** /* USER CODE END 0 */
  26:Core/Src/adc.c **** 
  27:Core/Src/adc.c **** ADC_HandleTypeDef hadc1;
  28:Core/Src/adc.c **** DMA_HandleTypeDef hdma_adc1;
  29:Core/Src/adc.c **** 
  30:Core/Src/adc.c **** /* ADC1 init function */
  31:Core/Src/adc.c **** void MX_ADC1_Init(void)
  32:Core/Src/adc.c **** {
ARM GAS  C:\Users\LIGUOH~1\AppData\Local\Temp\cc5HloQl.s 			page 2


  27              		.loc 1 32 1 view -0
  28              		.cfi_startproc
  29              		@ args = 0, pretend = 0, frame = 16
  30              		@ frame_needed = 0, uses_anonymous_args = 0
  31 0000 00B5     		push	{lr}
  32              	.LCFI0:
  33              		.cfi_def_cfa_offset 4
  34              		.cfi_offset 14, -4
  35 0002 85B0     		sub	sp, sp, #20
  36              	.LCFI1:
  37              		.cfi_def_cfa_offset 24
  33:Core/Src/adc.c **** 
  34:Core/Src/adc.c ****   /* USER CODE BEGIN ADC1_Init 0 */
  35:Core/Src/adc.c **** 
  36:Core/Src/adc.c ****   /* USER CODE END ADC1_Init 0 */
  37:Core/Src/adc.c **** 
  38:Core/Src/adc.c ****   ADC_ChannelConfTypeDef sConfig = {0};
  38              		.loc 1 38 3 view .LVU1
  39              		.loc 1 38 26 is_stmt 0 view .LVU2
  40 0004 0023     		movs	r3, #0
  41 0006 0193     		str	r3, [sp, #4]
  42 0008 0293     		str	r3, [sp, #8]
  43 000a 0393     		str	r3, [sp, #12]
  39:Core/Src/adc.c **** 
  40:Core/Src/adc.c ****   /* USER CODE BEGIN ADC1_Init 1 */
  41:Core/Src/adc.c **** 
  42:Core/Src/adc.c ****   /* USER CODE END ADC1_Init 1 */
  43:Core/Src/adc.c ****   /** Common config
  44:Core/Src/adc.c ****   */
  45:Core/Src/adc.c ****   hadc1.Instance = ADC1;
  44              		.loc 1 45 3 is_stmt 1 view .LVU3
  45              		.loc 1 45 18 is_stmt 0 view .LVU4
  46 000c 1E48     		ldr	r0, .L11
  47 000e 1F4A     		ldr	r2, .L11+4
  48 0010 0260     		str	r2, [r0]
  46:Core/Src/adc.c ****   hadc1.Init.ScanConvMode = ADC_SCAN_ENABLE;
  49              		.loc 1 46 3 is_stmt 1 view .LVU5
  50              		.loc 1 46 27 is_stmt 0 view .LVU6
  51 0012 4FF48072 		mov	r2, #256
  52 0016 8260     		str	r2, [r0, #8]
  47:Core/Src/adc.c ****   hadc1.Init.ContinuousConvMode = ENABLE;
  53              		.loc 1 47 3 is_stmt 1 view .LVU7
  54              		.loc 1 47 33 is_stmt 0 view .LVU8
  55 0018 0122     		movs	r2, #1
  56 001a 0273     		strb	r2, [r0, #12]
  48:Core/Src/adc.c ****   hadc1.Init.DiscontinuousConvMode = DISABLE;
  57              		.loc 1 48 3 is_stmt 1 view .LVU9
  58              		.loc 1 48 36 is_stmt 0 view .LVU10
  59 001c 0375     		strb	r3, [r0, #20]
  49:Core/Src/adc.c ****   hadc1.Init.ExternalTrigConv = ADC_EXTERNALTRIGCONV_T3_TRGO;
  60              		.loc 1 49 3 is_stmt 1 view .LVU11
  61              		.loc 1 49 31 is_stmt 0 view .LVU12
  62 001e 4FF40022 		mov	r2, #524288
  63 0022 C261     		str	r2, [r0, #28]
  50:Core/Src/adc.c ****   hadc1.Init.DataAlign = ADC_DATAALIGN_RIGHT;
  64              		.loc 1 50 3 is_stmt 1 view .LVU13
  65              		.loc 1 50 24 is_stmt 0 view .LVU14
ARM GAS  C:\Users\LIGUOH~1\AppData\Local\Temp\cc5HloQl.s 			page 3


  66 0024 4360     		str	r3, [r0, #4]
  51:Core/Src/adc.c ****   hadc1.Init.NbrOfConversion = 3;
  67              		.loc 1 51 3 is_stmt 1 view .LVU15
  68              		.loc 1 51 30 is_stmt 0 view .LVU16
  69 0026 0323     		movs	r3, #3
  70 0028 0361     		str	r3, [r0, #16]
  52:Core/Src/adc.c ****   if (HAL_ADC_Init(&hadc1) != HAL_OK)
  71              		.loc 1 52 3 is_stmt 1 view .LVU17
  72              		.loc 1 52 7 is_stmt 0 view .LVU18
  73 002a FFF7FEFF 		bl	HAL_ADC_Init
  74              	.LVL0:
  75              		.loc 1 52 6 view .LVU19
  76 002e F8B9     		cbnz	r0, .L7
  77              	.L2:
  53:Core/Src/adc.c ****   {
  54:Core/Src/adc.c ****     Error_Handler();
  55:Core/Src/adc.c ****   }
  56:Core/Src/adc.c ****   /** Configure Regular Channel
  57:Core/Src/adc.c ****   */
  58:Core/Src/adc.c ****   sConfig.Channel = ADC_CHANNEL_0;
  78              		.loc 1 58 3 is_stmt 1 view .LVU20
  79              		.loc 1 58 19 is_stmt 0 view .LVU21
  80 0030 0023     		movs	r3, #0
  81 0032 0193     		str	r3, [sp, #4]
  59:Core/Src/adc.c ****   sConfig.Rank = ADC_REGULAR_RANK_1;
  82              		.loc 1 59 3 is_stmt 1 view .LVU22
  83              		.loc 1 59 16 is_stmt 0 view .LVU23
  84 0034 0123     		movs	r3, #1
  85 0036 0293     		str	r3, [sp, #8]
  60:Core/Src/adc.c ****   sConfig.SamplingTime = ADC_SAMPLETIME_239CYCLES_5;
  86              		.loc 1 60 3 is_stmt 1 view .LVU24
  87              		.loc 1 60 24 is_stmt 0 view .LVU25
  88 0038 0723     		movs	r3, #7
  89 003a 0393     		str	r3, [sp, #12]
  61:Core/Src/adc.c ****   if (HAL_ADC_ConfigChannel(&hadc1, &sConfig) != HAL_OK)
  90              		.loc 1 61 3 is_stmt 1 view .LVU26
  91              		.loc 1 61 7 is_stmt 0 view .LVU27
  92 003c 01A9     		add	r1, sp, #4
  93 003e 1248     		ldr	r0, .L11
  94 0040 FFF7FEFF 		bl	HAL_ADC_ConfigChannel
  95              	.LVL1:
  96              		.loc 1 61 6 view .LVU28
  97 0044 B8B9     		cbnz	r0, .L8
  98              	.L3:
  62:Core/Src/adc.c ****   {
  63:Core/Src/adc.c ****     Error_Handler();
  64:Core/Src/adc.c ****   }
  65:Core/Src/adc.c ****   /** Configure Regular Channel
  66:Core/Src/adc.c ****   */
  67:Core/Src/adc.c ****   sConfig.Channel = ADC_CHANNEL_1;
  99              		.loc 1 67 3 is_stmt 1 view .LVU29
 100              		.loc 1 67 19 is_stmt 0 view .LVU30
 101 0046 0123     		movs	r3, #1
 102 0048 0193     		str	r3, [sp, #4]
  68:Core/Src/adc.c ****   sConfig.Rank = ADC_REGULAR_RANK_2;
 103              		.loc 1 68 3 is_stmt 1 view .LVU31
 104              		.loc 1 68 16 is_stmt 0 view .LVU32
ARM GAS  C:\Users\LIGUOH~1\AppData\Local\Temp\cc5HloQl.s 			page 4


 105 004a 0223     		movs	r3, #2
 106 004c 0293     		str	r3, [sp, #8]
  69:Core/Src/adc.c ****   if (HAL_ADC_ConfigChannel(&hadc1, &sConfig) != HAL_OK)
 107              		.loc 1 69 3 is_stmt 1 view .LVU33
 108              		.loc 1 69 7 is_stmt 0 view .LVU34
 109 004e 01A9     		add	r1, sp, #4
 110 0050 0D48     		ldr	r0, .L11
 111 0052 FFF7FEFF 		bl	HAL_ADC_ConfigChannel
 112              	.LVL2:
 113              		.loc 1 69 6 view .LVU35
 114 0056 88B9     		cbnz	r0, .L9
 115              	.L4:
  70:Core/Src/adc.c ****   {
  71:Core/Src/adc.c ****     Error_Handler();
  72:Core/Src/adc.c ****   }
  73:Core/Src/adc.c ****   /** Configure Regular Channel
  74:Core/Src/adc.c ****   */
  75:Core/Src/adc.c ****   sConfig.Channel = ADC_CHANNEL_4;
 116              		.loc 1 75 3 is_stmt 1 view .LVU36
 117              		.loc 1 75 19 is_stmt 0 view .LVU37
 118 0058 0423     		movs	r3, #4
 119 005a 0193     		str	r3, [sp, #4]
  76:Core/Src/adc.c ****   sConfig.Rank = ADC_REGULAR_RANK_3;
 120              		.loc 1 76 3 is_stmt 1 view .LVU38
 121              		.loc 1 76 16 is_stmt 0 view .LVU39
 122 005c 0323     		movs	r3, #3
 123 005e 0293     		str	r3, [sp, #8]
  77:Core/Src/adc.c ****   if (HAL_ADC_ConfigChannel(&hadc1, &sConfig) != HAL_OK)
 124              		.loc 1 77 3 is_stmt 1 view .LVU40
 125              		.loc 1 77 7 is_stmt 0 view .LVU41
 126 0060 01A9     		add	r1, sp, #4
 127 0062 0948     		ldr	r0, .L11
 128 0064 FFF7FEFF 		bl	HAL_ADC_ConfigChannel
 129              	.LVL3:
 130              		.loc 1 77 6 view .LVU42
 131 0068 58B9     		cbnz	r0, .L10
 132              	.L1:
  78:Core/Src/adc.c ****   {
  79:Core/Src/adc.c ****     Error_Handler();
  80:Core/Src/adc.c ****   }
  81:Core/Src/adc.c ****   /* USER CODE BEGIN ADC1_Init 2 */
  82:Core/Src/adc.c **** 
  83:Core/Src/adc.c ****   /* USER CODE END ADC1_Init 2 */
  84:Core/Src/adc.c **** 
  85:Core/Src/adc.c **** }
 133              		.loc 1 85 1 view .LVU43
 134 006a 05B0     		add	sp, sp, #20
 135              	.LCFI2:
 136              		.cfi_remember_state
 137              		.cfi_def_cfa_offset 4
 138              		@ sp needed
 139 006c 5DF804FB 		ldr	pc, [sp], #4
 140              	.L7:
 141              	.LCFI3:
 142              		.cfi_restore_state
  54:Core/Src/adc.c ****   }
 143              		.loc 1 54 5 is_stmt 1 view .LVU44
ARM GAS  C:\Users\LIGUOH~1\AppData\Local\Temp\cc5HloQl.s 			page 5


 144 0070 FFF7FEFF 		bl	Error_Handler
 145              	.LVL4:
 146 0074 DCE7     		b	.L2
 147              	.L8:
  63:Core/Src/adc.c ****   }
 148              		.loc 1 63 5 view .LVU45
 149 0076 FFF7FEFF 		bl	Error_Handler
 150              	.LVL5:
 151 007a E4E7     		b	.L3
 152              	.L9:
  71:Core/Src/adc.c ****   }
 153              		.loc 1 71 5 view .LVU46
 154 007c FFF7FEFF 		bl	Error_Handler
 155              	.LVL6:
 156 0080 EAE7     		b	.L4
 157              	.L10:
  79:Core/Src/adc.c ****   }
 158              		.loc 1 79 5 view .LVU47
 159 0082 FFF7FEFF 		bl	Error_Handler
 160              	.LVL7:
 161              		.loc 1 85 1 is_stmt 0 view .LVU48
 162 0086 F0E7     		b	.L1
 163              	.L12:
 164              		.align	2
 165              	.L11:
 166 0088 00000000 		.word	hadc1
 167 008c 00240140 		.word	1073816576
 168              		.cfi_endproc
 169              	.LFE65:
 171              		.section	.text.HAL_ADC_MspInit,"ax",%progbits
 172              		.align	1
 173              		.global	HAL_ADC_MspInit
 174              		.syntax unified
 175              		.thumb
 176              		.thumb_func
 177              		.fpu softvfp
 179              	HAL_ADC_MspInit:
 180              	.LVL8:
 181              	.LFB66:
  86:Core/Src/adc.c **** 
  87:Core/Src/adc.c **** void HAL_ADC_MspInit(ADC_HandleTypeDef* adcHandle)
  88:Core/Src/adc.c **** {
 182              		.loc 1 88 1 is_stmt 1 view -0
 183              		.cfi_startproc
 184              		@ args = 0, pretend = 0, frame = 24
 185              		@ frame_needed = 0, uses_anonymous_args = 0
 186              		.loc 1 88 1 is_stmt 0 view .LVU50
 187 0000 10B5     		push	{r4, lr}
 188              	.LCFI4:
 189              		.cfi_def_cfa_offset 8
 190              		.cfi_offset 4, -8
 191              		.cfi_offset 14, -4
 192 0002 86B0     		sub	sp, sp, #24
 193              	.LCFI5:
 194              		.cfi_def_cfa_offset 32
  89:Core/Src/adc.c **** 
  90:Core/Src/adc.c ****   GPIO_InitTypeDef GPIO_InitStruct = {0};
ARM GAS  C:\Users\LIGUOH~1\AppData\Local\Temp\cc5HloQl.s 			page 6


 195              		.loc 1 90 3 is_stmt 1 view .LVU51
 196              		.loc 1 90 20 is_stmt 0 view .LVU52
 197 0004 0023     		movs	r3, #0
 198 0006 0293     		str	r3, [sp, #8]
 199 0008 0393     		str	r3, [sp, #12]
 200 000a 0493     		str	r3, [sp, #16]
 201 000c 0593     		str	r3, [sp, #20]
  91:Core/Src/adc.c ****   if(adcHandle->Instance==ADC1)
 202              		.loc 1 91 3 is_stmt 1 view .LVU53
 203              		.loc 1 91 15 is_stmt 0 view .LVU54
 204 000e 0268     		ldr	r2, [r0]
 205              		.loc 1 91 5 view .LVU55
 206 0010 1E4B     		ldr	r3, .L19
 207 0012 9A42     		cmp	r2, r3
 208 0014 01D0     		beq	.L17
 209              	.LVL9:
 210              	.L13:
  92:Core/Src/adc.c ****   {
  93:Core/Src/adc.c ****   /* USER CODE BEGIN ADC1_MspInit 0 */
  94:Core/Src/adc.c **** 
  95:Core/Src/adc.c ****   /* USER CODE END ADC1_MspInit 0 */
  96:Core/Src/adc.c ****     /* ADC1 clock enable */
  97:Core/Src/adc.c ****     __HAL_RCC_ADC1_CLK_ENABLE();
  98:Core/Src/adc.c **** 
  99:Core/Src/adc.c ****     __HAL_RCC_GPIOA_CLK_ENABLE();
 100:Core/Src/adc.c ****     /**ADC1 GPIO Configuration
 101:Core/Src/adc.c ****     PA0-WKUP     ------> ADC1_IN0
 102:Core/Src/adc.c ****     PA1     ------> ADC1_IN1
 103:Core/Src/adc.c ****     PA4     ------> ADC1_IN4
 104:Core/Src/adc.c ****     */
 105:Core/Src/adc.c ****     GPIO_InitStruct.Pin = ADC_VOUT_Pin|ADC_VIN_Pin|ADC_IOUT_Pin;
 106:Core/Src/adc.c ****     GPIO_InitStruct.Mode = GPIO_MODE_ANALOG;
 107:Core/Src/adc.c ****     HAL_GPIO_Init(GPIOA, &GPIO_InitStruct);
 108:Core/Src/adc.c **** 
 109:Core/Src/adc.c ****     /* ADC1 DMA Init */
 110:Core/Src/adc.c ****     /* ADC1 Init */
 111:Core/Src/adc.c ****     hdma_adc1.Instance = DMA1_Channel1;
 112:Core/Src/adc.c ****     hdma_adc1.Init.Direction = DMA_PERIPH_TO_MEMORY;
 113:Core/Src/adc.c ****     hdma_adc1.Init.PeriphInc = DMA_PINC_DISABLE;
 114:Core/Src/adc.c ****     hdma_adc1.Init.MemInc = DMA_MINC_ENABLE;
 115:Core/Src/adc.c ****     hdma_adc1.Init.PeriphDataAlignment = DMA_PDATAALIGN_HALFWORD;
 116:Core/Src/adc.c ****     hdma_adc1.Init.MemDataAlignment = DMA_MDATAALIGN_HALFWORD;
 117:Core/Src/adc.c ****     hdma_adc1.Init.Mode = DMA_CIRCULAR;
 118:Core/Src/adc.c ****     hdma_adc1.Init.Priority = DMA_PRIORITY_LOW;
 119:Core/Src/adc.c ****     if (HAL_DMA_Init(&hdma_adc1) != HAL_OK)
 120:Core/Src/adc.c ****     {
 121:Core/Src/adc.c ****       Error_Handler();
 122:Core/Src/adc.c ****     }
 123:Core/Src/adc.c **** 
 124:Core/Src/adc.c ****     __HAL_LINKDMA(adcHandle,DMA_Handle,hdma_adc1);
 125:Core/Src/adc.c **** 
 126:Core/Src/adc.c ****   /* USER CODE BEGIN ADC1_MspInit 1 */
 127:Core/Src/adc.c **** 
 128:Core/Src/adc.c ****   /* USER CODE END ADC1_MspInit 1 */
 129:Core/Src/adc.c ****   }
 130:Core/Src/adc.c **** }
 211              		.loc 1 130 1 view .LVU56
ARM GAS  C:\Users\LIGUOH~1\AppData\Local\Temp\cc5HloQl.s 			page 7


 212 0016 06B0     		add	sp, sp, #24
 213              	.LCFI6:
 214              		.cfi_remember_state
 215              		.cfi_def_cfa_offset 8
 216              		@ sp needed
 217 0018 10BD     		pop	{r4, pc}
 218              	.LVL10:
 219              	.L17:
 220              	.LCFI7:
 221              		.cfi_restore_state
 222              		.loc 1 130 1 view .LVU57
 223 001a 0446     		mov	r4, r0
  97:Core/Src/adc.c **** 
 224              		.loc 1 97 5 is_stmt 1 view .LVU58
 225              	.LBB2:
  97:Core/Src/adc.c **** 
 226              		.loc 1 97 5 view .LVU59
  97:Core/Src/adc.c **** 
 227              		.loc 1 97 5 view .LVU60
 228 001c 03F56C43 		add	r3, r3, #60416
 229 0020 9A69     		ldr	r2, [r3, #24]
 230 0022 42F40072 		orr	r2, r2, #512
 231 0026 9A61     		str	r2, [r3, #24]
  97:Core/Src/adc.c **** 
 232              		.loc 1 97 5 view .LVU61
 233 0028 9A69     		ldr	r2, [r3, #24]
 234 002a 02F40072 		and	r2, r2, #512
 235 002e 0092     		str	r2, [sp]
  97:Core/Src/adc.c **** 
 236              		.loc 1 97 5 view .LVU62
 237 0030 009A     		ldr	r2, [sp]
 238              	.LBE2:
  97:Core/Src/adc.c **** 
 239              		.loc 1 97 5 view .LVU63
  99:Core/Src/adc.c ****     /**ADC1 GPIO Configuration
 240              		.loc 1 99 5 view .LVU64
 241              	.LBB3:
  99:Core/Src/adc.c ****     /**ADC1 GPIO Configuration
 242              		.loc 1 99 5 view .LVU65
  99:Core/Src/adc.c ****     /**ADC1 GPIO Configuration
 243              		.loc 1 99 5 view .LVU66
 244 0032 9A69     		ldr	r2, [r3, #24]
 245 0034 42F00402 		orr	r2, r2, #4
 246 0038 9A61     		str	r2, [r3, #24]
  99:Core/Src/adc.c ****     /**ADC1 GPIO Configuration
 247              		.loc 1 99 5 view .LVU67
 248 003a 9B69     		ldr	r3, [r3, #24]
 249 003c 03F00403 		and	r3, r3, #4
 250 0040 0193     		str	r3, [sp, #4]
  99:Core/Src/adc.c ****     /**ADC1 GPIO Configuration
 251              		.loc 1 99 5 view .LVU68
 252 0042 019B     		ldr	r3, [sp, #4]
 253              	.LBE3:
  99:Core/Src/adc.c ****     /**ADC1 GPIO Configuration
 254              		.loc 1 99 5 view .LVU69
 105:Core/Src/adc.c ****     GPIO_InitStruct.Mode = GPIO_MODE_ANALOG;
 255              		.loc 1 105 5 view .LVU70
ARM GAS  C:\Users\LIGUOH~1\AppData\Local\Temp\cc5HloQl.s 			page 8


 105:Core/Src/adc.c ****     GPIO_InitStruct.Mode = GPIO_MODE_ANALOG;
 256              		.loc 1 105 25 is_stmt 0 view .LVU71
 257 0044 1323     		movs	r3, #19
 258 0046 0293     		str	r3, [sp, #8]
 106:Core/Src/adc.c ****     HAL_GPIO_Init(GPIOA, &GPIO_InitStruct);
 259              		.loc 1 106 5 is_stmt 1 view .LVU72
 106:Core/Src/adc.c ****     HAL_GPIO_Init(GPIOA, &GPIO_InitStruct);
 260              		.loc 1 106 26 is_stmt 0 view .LVU73
 261 0048 0323     		movs	r3, #3
 262 004a 0393     		str	r3, [sp, #12]
 107:Core/Src/adc.c **** 
 263              		.loc 1 107 5 is_stmt 1 view .LVU74
 264 004c 02A9     		add	r1, sp, #8
 265 004e 1048     		ldr	r0, .L19+4
 266              	.LVL11:
 107:Core/Src/adc.c **** 
 267              		.loc 1 107 5 is_stmt 0 view .LVU75
 268 0050 FFF7FEFF 		bl	HAL_GPIO_Init
 269              	.LVL12:
 111:Core/Src/adc.c ****     hdma_adc1.Init.Direction = DMA_PERIPH_TO_MEMORY;
 270              		.loc 1 111 5 is_stmt 1 view .LVU76
 111:Core/Src/adc.c ****     hdma_adc1.Init.Direction = DMA_PERIPH_TO_MEMORY;
 271              		.loc 1 111 24 is_stmt 0 view .LVU77
 272 0054 0F48     		ldr	r0, .L19+8
 273 0056 104B     		ldr	r3, .L19+12
 274 0058 0360     		str	r3, [r0]
 112:Core/Src/adc.c ****     hdma_adc1.Init.PeriphInc = DMA_PINC_DISABLE;
 275              		.loc 1 112 5 is_stmt 1 view .LVU78
 112:Core/Src/adc.c ****     hdma_adc1.Init.PeriphInc = DMA_PINC_DISABLE;
 276              		.loc 1 112 30 is_stmt 0 view .LVU79
 277 005a 0023     		movs	r3, #0
 278 005c 4360     		str	r3, [r0, #4]
 113:Core/Src/adc.c ****     hdma_adc1.Init.MemInc = DMA_MINC_ENABLE;
 279              		.loc 1 113 5 is_stmt 1 view .LVU80
 113:Core/Src/adc.c ****     hdma_adc1.Init.MemInc = DMA_MINC_ENABLE;
 280              		.loc 1 113 30 is_stmt 0 view .LVU81
 281 005e 8360     		str	r3, [r0, #8]
 114:Core/Src/adc.c ****     hdma_adc1.Init.PeriphDataAlignment = DMA_PDATAALIGN_HALFWORD;
 282              		.loc 1 114 5 is_stmt 1 view .LVU82
 114:Core/Src/adc.c ****     hdma_adc1.Init.PeriphDataAlignment = DMA_PDATAALIGN_HALFWORD;
 283              		.loc 1 114 27 is_stmt 0 view .LVU83
 284 0060 8022     		movs	r2, #128
 285 0062 C260     		str	r2, [r0, #12]
 115:Core/Src/adc.c ****     hdma_adc1.Init.MemDataAlignment = DMA_MDATAALIGN_HALFWORD;
 286              		.loc 1 115 5 is_stmt 1 view .LVU84
 115:Core/Src/adc.c ****     hdma_adc1.Init.MemDataAlignment = DMA_MDATAALIGN_HALFWORD;
 287              		.loc 1 115 40 is_stmt 0 view .LVU85
 288 0064 4FF48072 		mov	r2, #256
 289 0068 0261     		str	r2, [r0, #16]
 116:Core/Src/adc.c ****     hdma_adc1.Init.Mode = DMA_CIRCULAR;
 290              		.loc 1 116 5 is_stmt 1 view .LVU86
 116:Core/Src/adc.c ****     hdma_adc1.Init.Mode = DMA_CIRCULAR;
 291              		.loc 1 116 37 is_stmt 0 view .LVU87
 292 006a 4FF48062 		mov	r2, #1024
 293 006e 4261     		str	r2, [r0, #20]
 117:Core/Src/adc.c ****     hdma_adc1.Init.Priority = DMA_PRIORITY_LOW;
 294              		.loc 1 117 5 is_stmt 1 view .LVU88
ARM GAS  C:\Users\LIGUOH~1\AppData\Local\Temp\cc5HloQl.s 			page 9


 117:Core/Src/adc.c ****     hdma_adc1.Init.Priority = DMA_PRIORITY_LOW;
 295              		.loc 1 117 25 is_stmt 0 view .LVU89
 296 0070 2022     		movs	r2, #32
 297 0072 8261     		str	r2, [r0, #24]
 118:Core/Src/adc.c ****     if (HAL_DMA_Init(&hdma_adc1) != HAL_OK)
 298              		.loc 1 118 5 is_stmt 1 view .LVU90
 118:Core/Src/adc.c ****     if (HAL_DMA_Init(&hdma_adc1) != HAL_OK)
 299              		.loc 1 118 29 is_stmt 0 view .LVU91
 300 0074 C361     		str	r3, [r0, #28]
 119:Core/Src/adc.c ****     {
 301              		.loc 1 119 5 is_stmt 1 view .LVU92
 119:Core/Src/adc.c ****     {
 302              		.loc 1 119 9 is_stmt 0 view .LVU93
 303 0076 FFF7FEFF 		bl	HAL_DMA_Init
 304              	.LVL13:
 119:Core/Src/adc.c ****     {
 305              		.loc 1 119 8 view .LVU94
 306 007a 18B9     		cbnz	r0, .L18
 307              	.L15:
 124:Core/Src/adc.c **** 
 308              		.loc 1 124 5 is_stmt 1 view .LVU95
 124:Core/Src/adc.c **** 
 309              		.loc 1 124 5 view .LVU96
 310 007c 054B     		ldr	r3, .L19+8
 311 007e 2362     		str	r3, [r4, #32]
 124:Core/Src/adc.c **** 
 312              		.loc 1 124 5 view .LVU97
 313 0080 5C62     		str	r4, [r3, #36]
 124:Core/Src/adc.c **** 
 314              		.loc 1 124 5 view .LVU98
 315              		.loc 1 130 1 is_stmt 0 view .LVU99
 316 0082 C8E7     		b	.L13
 317              	.L18:
 121:Core/Src/adc.c ****     }
 318              		.loc 1 121 7 is_stmt 1 view .LVU100
 319 0084 FFF7FEFF 		bl	Error_Handler
 320              	.LVL14:
 321 0088 F8E7     		b	.L15
 322              	.L20:
 323 008a 00BF     		.align	2
 324              	.L19:
 325 008c 00240140 		.word	1073816576
 326 0090 00080140 		.word	1073809408
 327 0094 00000000 		.word	hdma_adc1
 328 0098 08000240 		.word	1073872904
 329              		.cfi_endproc
 330              	.LFE66:
 332              		.section	.text.HAL_ADC_MspDeInit,"ax",%progbits
 333              		.align	1
 334              		.global	HAL_ADC_MspDeInit
 335              		.syntax unified
 336              		.thumb
 337              		.thumb_func
 338              		.fpu softvfp
 340              	HAL_ADC_MspDeInit:
 341              	.LVL15:
 342              	.LFB67:
ARM GAS  C:\Users\LIGUOH~1\AppData\Local\Temp\cc5HloQl.s 			page 10


 131:Core/Src/adc.c **** 
 132:Core/Src/adc.c **** void HAL_ADC_MspDeInit(ADC_HandleTypeDef* adcHandle)
 133:Core/Src/adc.c **** {
 343              		.loc 1 133 1 view -0
 344              		.cfi_startproc
 345              		@ args = 0, pretend = 0, frame = 0
 346              		@ frame_needed = 0, uses_anonymous_args = 0
 134:Core/Src/adc.c **** 
 135:Core/Src/adc.c ****   if(adcHandle->Instance==ADC1)
 347              		.loc 1 135 3 view .LVU102
 348              		.loc 1 135 15 is_stmt 0 view .LVU103
 349 0000 0268     		ldr	r2, [r0]
 350              		.loc 1 135 5 view .LVU104
 351 0002 094B     		ldr	r3, .L28
 352 0004 9A42     		cmp	r2, r3
 353 0006 00D0     		beq	.L27
 354 0008 7047     		bx	lr
 355              	.L27:
 133:Core/Src/adc.c **** 
 356              		.loc 1 133 1 view .LVU105
 357 000a 10B5     		push	{r4, lr}
 358              	.LCFI8:
 359              		.cfi_def_cfa_offset 8
 360              		.cfi_offset 4, -8
 361              		.cfi_offset 14, -4
 362 000c 0446     		mov	r4, r0
 136:Core/Src/adc.c ****   {
 137:Core/Src/adc.c ****   /* USER CODE BEGIN ADC1_MspDeInit 0 */
 138:Core/Src/adc.c **** 
 139:Core/Src/adc.c ****   /* USER CODE END ADC1_MspDeInit 0 */
 140:Core/Src/adc.c ****     /* Peripheral clock disable */
 141:Core/Src/adc.c ****     __HAL_RCC_ADC1_CLK_DISABLE();
 363              		.loc 1 141 5 is_stmt 1 view .LVU106
 364 000e 074A     		ldr	r2, .L28+4
 365 0010 9369     		ldr	r3, [r2, #24]
 366 0012 23F40073 		bic	r3, r3, #512
 367 0016 9361     		str	r3, [r2, #24]
 142:Core/Src/adc.c **** 
 143:Core/Src/adc.c ****     /**ADC1 GPIO Configuration
 144:Core/Src/adc.c ****     PA0-WKUP     ------> ADC1_IN0
 145:Core/Src/adc.c ****     PA1     ------> ADC1_IN1
 146:Core/Src/adc.c ****     PA4     ------> ADC1_IN4
 147:Core/Src/adc.c ****     */
 148:Core/Src/adc.c ****     HAL_GPIO_DeInit(GPIOA, ADC_VOUT_Pin|ADC_VIN_Pin|ADC_IOUT_Pin);
 368              		.loc 1 148 5 view .LVU107
 369 0018 1321     		movs	r1, #19
 370 001a 0548     		ldr	r0, .L28+8
 371              	.LVL16:
 372              		.loc 1 148 5 is_stmt 0 view .LVU108
 373 001c FFF7FEFF 		bl	HAL_GPIO_DeInit
 374              	.LVL17:
 149:Core/Src/adc.c **** 
 150:Core/Src/adc.c ****     /* ADC1 DMA DeInit */
 151:Core/Src/adc.c ****     HAL_DMA_DeInit(adcHandle->DMA_Handle);
 375              		.loc 1 151 5 is_stmt 1 view .LVU109
 376 0020 206A     		ldr	r0, [r4, #32]
 377 0022 FFF7FEFF 		bl	HAL_DMA_DeInit
ARM GAS  C:\Users\LIGUOH~1\AppData\Local\Temp\cc5HloQl.s 			page 11


 378              	.LVL18:
 152:Core/Src/adc.c ****   /* USER CODE BEGIN ADC1_MspDeInit 1 */
 153:Core/Src/adc.c **** 
 154:Core/Src/adc.c ****   /* USER CODE END ADC1_MspDeInit 1 */
 155:Core/Src/adc.c ****   }
 156:Core/Src/adc.c **** }
 379              		.loc 1 156 1 is_stmt 0 view .LVU110
 380 0026 10BD     		pop	{r4, pc}
 381              	.LVL19:
 382              	.L29:
 383              		.loc 1 156 1 view .LVU111
 384              		.align	2
 385              	.L28:
 386 0028 00240140 		.word	1073816576
 387 002c 00100240 		.word	1073876992
 388 0030 00080140 		.word	1073809408
 389              		.cfi_endproc
 390              	.LFE67:
 392              		.comm	hdma_adc1,68,4
 393              		.comm	hadc1,48,4
 394              		.text
 395              	.Letext0:
 396              		.file 2 "c:\\gnu_tool_arm_embedded\\arm-none-eabi\\include\\machine\\_default_types.h"
 397              		.file 3 "c:\\gnu_tool_arm_embedded\\arm-none-eabi\\include\\sys\\_stdint.h"
 398              		.file 4 "Drivers/CMSIS/Include/core_cm3.h"
 399              		.file 5 "Drivers/CMSIS/Device/ST/STM32F1xx/Include/system_stm32f1xx.h"
 400              		.file 6 "Drivers/CMSIS/Device/ST/STM32F1xx/Include/stm32f103xb.h"
 401              		.file 7 "Drivers/CMSIS/Device/ST/STM32F1xx/Include/stm32f1xx.h"
 402              		.file 8 "Drivers/STM32F1xx_HAL_Driver/Inc/stm32f1xx_hal_def.h"
 403              		.file 9 "Drivers/STM32F1xx_HAL_Driver/Inc/stm32f1xx_hal_gpio.h"
 404              		.file 10 "Drivers/STM32F1xx_HAL_Driver/Inc/stm32f1xx_hal_dma.h"
 405              		.file 11 "Drivers/STM32F1xx_HAL_Driver/Inc/stm32f1xx_hal_adc.h"
 406              		.file 12 "Drivers/STM32F1xx_HAL_Driver/Inc/stm32f1xx_hal.h"
 407              		.file 13 "Core/Inc/adc.h"
 408              		.file 14 "Core/Inc/main.h"
ARM GAS  C:\Users\LIGUOH~1\AppData\Local\Temp\cc5HloQl.s 			page 12


DEFINED SYMBOLS
                            *ABS*:00000000 adc.c
C:\Users\LIGUOH~1\AppData\Local\Temp\cc5HloQl.s:16     .text.MX_ADC1_Init:00000000 $t
C:\Users\LIGUOH~1\AppData\Local\Temp\cc5HloQl.s:24     .text.MX_ADC1_Init:00000000 MX_ADC1_Init
C:\Users\LIGUOH~1\AppData\Local\Temp\cc5HloQl.s:166    .text.MX_ADC1_Init:00000088 $d
                            *COM*:00000030 hadc1
C:\Users\LIGUOH~1\AppData\Local\Temp\cc5HloQl.s:172    .text.HAL_ADC_MspInit:00000000 $t
C:\Users\LIGUOH~1\AppData\Local\Temp\cc5HloQl.s:179    .text.HAL_ADC_MspInit:00000000 HAL_ADC_MspInit
C:\Users\LIGUOH~1\AppData\Local\Temp\cc5HloQl.s:325    .text.HAL_ADC_MspInit:0000008c $d
                            *COM*:00000044 hdma_adc1
C:\Users\LIGUOH~1\AppData\Local\Temp\cc5HloQl.s:333    .text.HAL_ADC_MspDeInit:00000000 $t
C:\Users\LIGUOH~1\AppData\Local\Temp\cc5HloQl.s:340    .text.HAL_ADC_MspDeInit:00000000 HAL_ADC_MspDeInit
C:\Users\LIGUOH~1\AppData\Local\Temp\cc5HloQl.s:386    .text.HAL_ADC_MspDeInit:00000028 $d

UNDEFINED SYMBOLS
HAL_ADC_Init
HAL_ADC_ConfigChannel
Error_Handler
HAL_GPIO_Init
HAL_DMA_Init
HAL_GPIO_DeInit
HAL_DMA_DeInit
