ARM GAS  C:\Users\LIGUOH~1\AppData\Local\Temp\ccgTXyqc.s 			page 1


   1              		.cpu cortex-m3
   2              		.eabi_attribute 20, 1
   3              		.eabi_attribute 21, 1
   4              		.eabi_attribute 23, 3
   5              		.eabi_attribute 24, 1
   6              		.eabi_attribute 25, 1
   7              		.eabi_attribute 26, 1
   8              		.eabi_attribute 30, 1
   9              		.eabi_attribute 34, 1
  10              		.eabi_attribute 18, 4
  11              		.file	"gpio.c"
  12              		.text
  13              	.Ltext0:
  14              		.cfi_sections	.debug_frame
  15              		.section	.text.MX_GPIO_Init,"ax",%progbits
  16              		.align	1
  17              		.global	MX_GPIO_Init
  18              		.arch armv7-m
  19              		.syntax unified
  20              		.thumb
  21              		.thumb_func
  22              		.fpu softvfp
  24              	MX_GPIO_Init:
  25              	.LFB65:
  26              		.file 1 "Core/Src/gpio.c"
   1:Core/Src/gpio.c **** /**
   2:Core/Src/gpio.c ****   ******************************************************************************
   3:Core/Src/gpio.c ****   * @file    gpio.c
   4:Core/Src/gpio.c ****   * @brief   This file provides code for the configuration
   5:Core/Src/gpio.c ****   *          of all used GPIO pins.
   6:Core/Src/gpio.c ****   ******************************************************************************
   7:Core/Src/gpio.c ****   * @attention
   8:Core/Src/gpio.c ****   *
   9:Core/Src/gpio.c ****   * <h2><center>&copy; Copyright (c) 2021 STMicroelectronics.
  10:Core/Src/gpio.c ****   * All rights reserved.</center></h2>
  11:Core/Src/gpio.c ****   *
  12:Core/Src/gpio.c ****   * This software component is licensed by ST under BSD 3-Clause license,
  13:Core/Src/gpio.c ****   * the "License"; You may not use this file except in compliance with the
  14:Core/Src/gpio.c ****   * License. You may obtain a copy of the License at:
  15:Core/Src/gpio.c ****   *                        opensource.org/licenses/BSD-3-Clause
  16:Core/Src/gpio.c ****   *
  17:Core/Src/gpio.c ****   ******************************************************************************
  18:Core/Src/gpio.c ****   */
  19:Core/Src/gpio.c **** 
  20:Core/Src/gpio.c **** /* Includes ------------------------------------------------------------------*/
  21:Core/Src/gpio.c **** #include "gpio.h"
  22:Core/Src/gpio.c **** 
  23:Core/Src/gpio.c **** /* USER CODE BEGIN 0 */
  24:Core/Src/gpio.c **** 
  25:Core/Src/gpio.c **** /* USER CODE END 0 */
  26:Core/Src/gpio.c **** 
  27:Core/Src/gpio.c **** /*----------------------------------------------------------------------------*/
  28:Core/Src/gpio.c **** /* Configure GPIO                                                             */
  29:Core/Src/gpio.c **** /*----------------------------------------------------------------------------*/
  30:Core/Src/gpio.c **** /* USER CODE BEGIN 1 */
  31:Core/Src/gpio.c **** 
  32:Core/Src/gpio.c **** /* USER CODE END 1 */
ARM GAS  C:\Users\LIGUOH~1\AppData\Local\Temp\ccgTXyqc.s 			page 2


  33:Core/Src/gpio.c **** 
  34:Core/Src/gpio.c **** /** Configure pins as
  35:Core/Src/gpio.c ****         * Analog
  36:Core/Src/gpio.c ****         * Input
  37:Core/Src/gpio.c ****         * Output
  38:Core/Src/gpio.c ****         * EVENT_OUT
  39:Core/Src/gpio.c ****         * EXTI
  40:Core/Src/gpio.c ****         * Free pins are configured automatically as Analog (this feature is enabled through
  41:Core/Src/gpio.c ****         * the Code Generation settings)
  42:Core/Src/gpio.c **** */
  43:Core/Src/gpio.c **** void MX_GPIO_Init(void)
  44:Core/Src/gpio.c **** {
  27              		.loc 1 44 1 view -0
  28              		.cfi_startproc
  29              		@ args = 0, pretend = 0, frame = 32
  30              		@ frame_needed = 0, uses_anonymous_args = 0
  31 0000 2DE9F043 		push	{r4, r5, r6, r7, r8, r9, lr}
  32              	.LCFI0:
  33              		.cfi_def_cfa_offset 28
  34              		.cfi_offset 4, -28
  35              		.cfi_offset 5, -24
  36              		.cfi_offset 6, -20
  37              		.cfi_offset 7, -16
  38              		.cfi_offset 8, -12
  39              		.cfi_offset 9, -8
  40              		.cfi_offset 14, -4
  41 0004 89B0     		sub	sp, sp, #36
  42              	.LCFI1:
  43              		.cfi_def_cfa_offset 64
  45:Core/Src/gpio.c **** 
  46:Core/Src/gpio.c ****   GPIO_InitTypeDef GPIO_InitStruct = {0};
  44              		.loc 1 46 3 view .LVU1
  45              		.loc 1 46 20 is_stmt 0 view .LVU2
  46 0006 0024     		movs	r4, #0
  47 0008 0494     		str	r4, [sp, #16]
  48 000a 0594     		str	r4, [sp, #20]
  49 000c 0694     		str	r4, [sp, #24]
  50 000e 0794     		str	r4, [sp, #28]
  47:Core/Src/gpio.c **** 
  48:Core/Src/gpio.c ****   /* GPIO Ports Clock Enable */
  49:Core/Src/gpio.c ****   __HAL_RCC_GPIOC_CLK_ENABLE();
  51              		.loc 1 49 3 is_stmt 1 view .LVU3
  52              	.LBB2:
  53              		.loc 1 49 3 view .LVU4
  54              		.loc 1 49 3 view .LVU5
  55 0010 464B     		ldr	r3, .L3
  56 0012 9A69     		ldr	r2, [r3, #24]
  57 0014 42F01002 		orr	r2, r2, #16
  58 0018 9A61     		str	r2, [r3, #24]
  59              		.loc 1 49 3 view .LVU6
  60 001a 9A69     		ldr	r2, [r3, #24]
  61 001c 02F01002 		and	r2, r2, #16
  62 0020 0092     		str	r2, [sp]
  63              		.loc 1 49 3 view .LVU7
  64 0022 009A     		ldr	r2, [sp]
  65              	.LBE2:
  66              		.loc 1 49 3 view .LVU8
ARM GAS  C:\Users\LIGUOH~1\AppData\Local\Temp\ccgTXyqc.s 			page 3


  50:Core/Src/gpio.c ****   __HAL_RCC_GPIOD_CLK_ENABLE();
  67              		.loc 1 50 3 view .LVU9
  68              	.LBB3:
  69              		.loc 1 50 3 view .LVU10
  70              		.loc 1 50 3 view .LVU11
  71 0024 9A69     		ldr	r2, [r3, #24]
  72 0026 42F02002 		orr	r2, r2, #32
  73 002a 9A61     		str	r2, [r3, #24]
  74              		.loc 1 50 3 view .LVU12
  75 002c 9A69     		ldr	r2, [r3, #24]
  76 002e 02F02002 		and	r2, r2, #32
  77 0032 0192     		str	r2, [sp, #4]
  78              		.loc 1 50 3 view .LVU13
  79 0034 019A     		ldr	r2, [sp, #4]
  80              	.LBE3:
  81              		.loc 1 50 3 view .LVU14
  51:Core/Src/gpio.c ****   __HAL_RCC_GPIOA_CLK_ENABLE();
  82              		.loc 1 51 3 view .LVU15
  83              	.LBB4:
  84              		.loc 1 51 3 view .LVU16
  85              		.loc 1 51 3 view .LVU17
  86 0036 9A69     		ldr	r2, [r3, #24]
  87 0038 42F00402 		orr	r2, r2, #4
  88 003c 9A61     		str	r2, [r3, #24]
  89              		.loc 1 51 3 view .LVU18
  90 003e 9A69     		ldr	r2, [r3, #24]
  91 0040 02F00402 		and	r2, r2, #4
  92 0044 0292     		str	r2, [sp, #8]
  93              		.loc 1 51 3 view .LVU19
  94 0046 029A     		ldr	r2, [sp, #8]
  95              	.LBE4:
  96              		.loc 1 51 3 view .LVU20
  52:Core/Src/gpio.c ****   __HAL_RCC_GPIOB_CLK_ENABLE();
  97              		.loc 1 52 3 view .LVU21
  98              	.LBB5:
  99              		.loc 1 52 3 view .LVU22
 100              		.loc 1 52 3 view .LVU23
 101 0048 9A69     		ldr	r2, [r3, #24]
 102 004a 42F00802 		orr	r2, r2, #8
 103 004e 9A61     		str	r2, [r3, #24]
 104              		.loc 1 52 3 view .LVU24
 105 0050 9B69     		ldr	r3, [r3, #24]
 106 0052 03F00803 		and	r3, r3, #8
 107 0056 0393     		str	r3, [sp, #12]
 108              		.loc 1 52 3 view .LVU25
 109 0058 039B     		ldr	r3, [sp, #12]
 110              	.LBE5:
 111              		.loc 1 52 3 view .LVU26
  53:Core/Src/gpio.c **** 
  54:Core/Src/gpio.c ****   /*Configure GPIO pin Output Level */
  55:Core/Src/gpio.c ****   HAL_GPIO_WritePin(LED_TEST_GPIO_Port, LED_TEST_Pin, GPIO_PIN_SET);
 112              		.loc 1 55 3 view .LVU27
 113 005a DFF8E090 		ldr	r9, .L3+16
 114 005e 0122     		movs	r2, #1
 115 0060 4FF40051 		mov	r1, #8192
 116 0064 4846     		mov	r0, r9
 117 0066 FFF7FEFF 		bl	HAL_GPIO_WritePin
ARM GAS  C:\Users\LIGUOH~1\AppData\Local\Temp\ccgTXyqc.s 			page 4


 118              	.LVL0:
  56:Core/Src/gpio.c **** 
  57:Core/Src/gpio.c ****   /*Configure GPIO pin Output Level */
  58:Core/Src/gpio.c ****   HAL_GPIO_WritePin(GPIOB, LCD_RES_Pin|LCD_DC_Pin|LCD_CS_Pin|LCD_BLK_Pin
 119              		.loc 1 58 3 view .LVU28
 120 006a 314E     		ldr	r6, .L3+4
 121 006c 2246     		mov	r2, r4
 122 006e 48F63B41 		movw	r1, #35899
 123 0072 3046     		mov	r0, r6
 124 0074 FFF7FEFF 		bl	HAL_GPIO_WritePin
 125              	.LVL1:
  59:Core/Src/gpio.c ****                           |BELL_Pin|LED_CC_Pin|LED_CV_Pin|LED_OUT_Pin, GPIO_PIN_RESET);
  60:Core/Src/gpio.c **** 
  61:Core/Src/gpio.c ****   /*Configure GPIO pin : PtPin */
  62:Core/Src/gpio.c ****   GPIO_InitStruct.Pin = LED_TEST_Pin;
 126              		.loc 1 62 3 view .LVU29
 127              		.loc 1 62 23 is_stmt 0 view .LVU30
 128 0078 4FF40053 		mov	r3, #8192
 129 007c 0493     		str	r3, [sp, #16]
  63:Core/Src/gpio.c ****   GPIO_InitStruct.Mode = GPIO_MODE_OUTPUT_PP;
 130              		.loc 1 63 3 is_stmt 1 view .LVU31
 131              		.loc 1 63 24 is_stmt 0 view .LVU32
 132 007e 0125     		movs	r5, #1
 133 0080 0595     		str	r5, [sp, #20]
  64:Core/Src/gpio.c ****   GPIO_InitStruct.Pull = GPIO_NOPULL;
 134              		.loc 1 64 3 is_stmt 1 view .LVU33
 135              		.loc 1 64 24 is_stmt 0 view .LVU34
 136 0082 0694     		str	r4, [sp, #24]
  65:Core/Src/gpio.c ****   GPIO_InitStruct.Speed = GPIO_SPEED_FREQ_LOW;
 137              		.loc 1 65 3 is_stmt 1 view .LVU35
 138              		.loc 1 65 25 is_stmt 0 view .LVU36
 139 0084 0227     		movs	r7, #2
 140 0086 0797     		str	r7, [sp, #28]
  66:Core/Src/gpio.c ****   HAL_GPIO_Init(LED_TEST_GPIO_Port, &GPIO_InitStruct);
 141              		.loc 1 66 3 is_stmt 1 view .LVU37
 142 0088 04A9     		add	r1, sp, #16
 143 008a 4846     		mov	r0, r9
 144 008c FFF7FEFF 		bl	HAL_GPIO_Init
 145              	.LVL2:
  67:Core/Src/gpio.c **** 
  68:Core/Src/gpio.c ****   /*Configure GPIO pins : PC14 PC15 */
  69:Core/Src/gpio.c ****   GPIO_InitStruct.Pin = GPIO_PIN_14|GPIO_PIN_15;
 146              		.loc 1 69 3 view .LVU38
 147              		.loc 1 69 23 is_stmt 0 view .LVU39
 148 0090 4FF44043 		mov	r3, #49152
 149 0094 0493     		str	r3, [sp, #16]
  70:Core/Src/gpio.c ****   GPIO_InitStruct.Mode = GPIO_MODE_ANALOG;
 150              		.loc 1 70 3 is_stmt 1 view .LVU40
 151              		.loc 1 70 24 is_stmt 0 view .LVU41
 152 0096 4FF00308 		mov	r8, #3
 153 009a CDF81480 		str	r8, [sp, #20]
  71:Core/Src/gpio.c ****   HAL_GPIO_Init(GPIOC, &GPIO_InitStruct);
 154              		.loc 1 71 3 is_stmt 1 view .LVU42
 155 009e 04A9     		add	r1, sp, #16
 156 00a0 4846     		mov	r0, r9
 157 00a2 FFF7FEFF 		bl	HAL_GPIO_Init
 158              	.LVL3:
ARM GAS  C:\Users\LIGUOH~1\AppData\Local\Temp\ccgTXyqc.s 			page 5


  72:Core/Src/gpio.c **** 
  73:Core/Src/gpio.c ****   /*Configure GPIO pins : PA2 PA3 PA6 PA12 */
  74:Core/Src/gpio.c ****   GPIO_InitStruct.Pin = GPIO_PIN_2|GPIO_PIN_3|GPIO_PIN_6|GPIO_PIN_12;
 159              		.loc 1 74 3 view .LVU43
 160              		.loc 1 74 23 is_stmt 0 view .LVU44
 161 00a6 41F24C03 		movw	r3, #4172
 162 00aa 0493     		str	r3, [sp, #16]
  75:Core/Src/gpio.c ****   GPIO_InitStruct.Mode = GPIO_MODE_ANALOG;
 163              		.loc 1 75 3 is_stmt 1 view .LVU45
 164              		.loc 1 75 24 is_stmt 0 view .LVU46
 165 00ac CDF81480 		str	r8, [sp, #20]
  76:Core/Src/gpio.c ****   HAL_GPIO_Init(GPIOA, &GPIO_InitStruct);
 166              		.loc 1 76 3 is_stmt 1 view .LVU47
 167 00b0 04A9     		add	r1, sp, #16
 168 00b2 2048     		ldr	r0, .L3+8
 169 00b4 FFF7FEFF 		bl	HAL_GPIO_Init
 170              	.LVL4:
  77:Core/Src/gpio.c **** 
  78:Core/Src/gpio.c ****   /*Configure GPIO pins : PBPin PBPin PBPin */
  79:Core/Src/gpio.c ****   GPIO_InitStruct.Pin = LCD_RES_Pin|LCD_DC_Pin|LCD_CS_Pin;
 171              		.loc 1 79 3 view .LVU48
 172              		.loc 1 79 23 is_stmt 0 view .LVU49
 173 00b8 40F20343 		movw	r3, #1027
 174 00bc 0493     		str	r3, [sp, #16]
  80:Core/Src/gpio.c ****   GPIO_InitStruct.Mode = GPIO_MODE_OUTPUT_PP;
 175              		.loc 1 80 3 is_stmt 1 view .LVU50
 176              		.loc 1 80 24 is_stmt 0 view .LVU51
 177 00be 0595     		str	r5, [sp, #20]
  81:Core/Src/gpio.c ****   GPIO_InitStruct.Pull = GPIO_PULLUP;
 178              		.loc 1 81 3 is_stmt 1 view .LVU52
 179              		.loc 1 81 24 is_stmt 0 view .LVU53
 180 00c0 0695     		str	r5, [sp, #24]
  82:Core/Src/gpio.c ****   GPIO_InitStruct.Speed = GPIO_SPEED_FREQ_LOW;
 181              		.loc 1 82 3 is_stmt 1 view .LVU54
 182              		.loc 1 82 25 is_stmt 0 view .LVU55
 183 00c2 0797     		str	r7, [sp, #28]
  83:Core/Src/gpio.c ****   HAL_GPIO_Init(GPIOB, &GPIO_InitStruct);
 184              		.loc 1 83 3 is_stmt 1 view .LVU56
 185 00c4 04A9     		add	r1, sp, #16
 186 00c6 3046     		mov	r0, r6
 187 00c8 FFF7FEFF 		bl	HAL_GPIO_Init
 188              	.LVL5:
  84:Core/Src/gpio.c **** 
  85:Core/Src/gpio.c ****   /*Configure GPIO pins : PB2 PB6 PB7 */
  86:Core/Src/gpio.c ****   GPIO_InitStruct.Pin = GPIO_PIN_2|GPIO_PIN_6|GPIO_PIN_7;
 189              		.loc 1 86 3 view .LVU57
 190              		.loc 1 86 23 is_stmt 0 view .LVU58
 191 00cc C423     		movs	r3, #196
 192 00ce 0493     		str	r3, [sp, #16]
  87:Core/Src/gpio.c ****   GPIO_InitStruct.Mode = GPIO_MODE_ANALOG;
 193              		.loc 1 87 3 is_stmt 1 view .LVU59
 194              		.loc 1 87 24 is_stmt 0 view .LVU60
 195 00d0 CDF81480 		str	r8, [sp, #20]
  88:Core/Src/gpio.c ****   HAL_GPIO_Init(GPIOB, &GPIO_InitStruct);
 196              		.loc 1 88 3 is_stmt 1 view .LVU61
 197 00d4 04A9     		add	r1, sp, #16
 198 00d6 3046     		mov	r0, r6
ARM GAS  C:\Users\LIGUOH~1\AppData\Local\Temp\ccgTXyqc.s 			page 6


 199 00d8 FFF7FEFF 		bl	HAL_GPIO_Init
 200              	.LVL6:
  89:Core/Src/gpio.c **** 
  90:Core/Src/gpio.c ****   /*Configure GPIO pins : PBPin PBPin PBPin PBPin
  91:Core/Src/gpio.c ****                            PBPin */
  92:Core/Src/gpio.c ****   GPIO_InitStruct.Pin = LCD_BLK_Pin|BELL_Pin|LED_CC_Pin|LED_CV_Pin
 201              		.loc 1 92 3 view .LVU62
 202              		.loc 1 92 23 is_stmt 0 view .LVU63
 203 00dc 48F63803 		movw	r3, #34872
 204 00e0 0493     		str	r3, [sp, #16]
  93:Core/Src/gpio.c ****                           |LED_OUT_Pin;
  94:Core/Src/gpio.c ****   GPIO_InitStruct.Mode = GPIO_MODE_OUTPUT_PP;
 205              		.loc 1 94 3 is_stmt 1 view .LVU64
 206              		.loc 1 94 24 is_stmt 0 view .LVU65
 207 00e2 0595     		str	r5, [sp, #20]
  95:Core/Src/gpio.c ****   GPIO_InitStruct.Pull = GPIO_NOPULL;
 208              		.loc 1 95 3 is_stmt 1 view .LVU66
 209              		.loc 1 95 24 is_stmt 0 view .LVU67
 210 00e4 0694     		str	r4, [sp, #24]
  96:Core/Src/gpio.c ****   GPIO_InitStruct.Speed = GPIO_SPEED_FREQ_LOW;
 211              		.loc 1 96 3 is_stmt 1 view .LVU68
 212              		.loc 1 96 25 is_stmt 0 view .LVU69
 213 00e6 0797     		str	r7, [sp, #28]
  97:Core/Src/gpio.c ****   HAL_GPIO_Init(GPIOB, &GPIO_InitStruct);
 214              		.loc 1 97 3 is_stmt 1 view .LVU70
 215 00e8 04A9     		add	r1, sp, #16
 216 00ea 3046     		mov	r0, r6
 217 00ec FFF7FEFF 		bl	HAL_GPIO_Init
 218              	.LVL7:
  98:Core/Src/gpio.c **** 
  99:Core/Src/gpio.c ****   /*Configure GPIO pins : PBPin PBPin PBPin PBPin
 100:Core/Src/gpio.c ****                            PBPin */
 101:Core/Src/gpio.c ****   GPIO_InitStruct.Pin = KEY_LEFT_Pin|KEY_RIGHT_Pin|KEY_DOWN_Pin|KEY_OUT_Pin
 219              		.loc 1 101 3 view .LVU71
 220              		.loc 1 101 23 is_stmt 0 view .LVU72
 221 00f0 4FF4E643 		mov	r3, #29440
 222 00f4 0493     		str	r3, [sp, #16]
 102:Core/Src/gpio.c ****                           |KEY_SET_Pin;
 103:Core/Src/gpio.c ****   GPIO_InitStruct.Mode = GPIO_MODE_IT_FALLING;
 223              		.loc 1 103 3 is_stmt 1 view .LVU73
 224              		.loc 1 103 24 is_stmt 0 view .LVU74
 225 00f6 104B     		ldr	r3, .L3+12
 226 00f8 0593     		str	r3, [sp, #20]
 104:Core/Src/gpio.c ****   GPIO_InitStruct.Pull = GPIO_PULLUP;
 227              		.loc 1 104 3 is_stmt 1 view .LVU75
 228              		.loc 1 104 24 is_stmt 0 view .LVU76
 229 00fa 0695     		str	r5, [sp, #24]
 105:Core/Src/gpio.c ****   HAL_GPIO_Init(GPIOB, &GPIO_InitStruct);
 230              		.loc 1 105 3 is_stmt 1 view .LVU77
 231 00fc 04A9     		add	r1, sp, #16
 232 00fe 3046     		mov	r0, r6
 233 0100 FFF7FEFF 		bl	HAL_GPIO_Init
 234              	.LVL8:
 106:Core/Src/gpio.c **** 
 107:Core/Src/gpio.c ****   /* EXTI interrupt init*/
 108:Core/Src/gpio.c ****   HAL_NVIC_SetPriority(EXTI9_5_IRQn, 1, 0);
 235              		.loc 1 108 3 view .LVU78
ARM GAS  C:\Users\LIGUOH~1\AppData\Local\Temp\ccgTXyqc.s 			page 7


 236 0104 2246     		mov	r2, r4
 237 0106 2946     		mov	r1, r5
 238 0108 1720     		movs	r0, #23
 239 010a FFF7FEFF 		bl	HAL_NVIC_SetPriority
 240              	.LVL9:
 109:Core/Src/gpio.c ****   HAL_NVIC_EnableIRQ(EXTI9_5_IRQn);
 241              		.loc 1 109 3 view .LVU79
 242 010e 1720     		movs	r0, #23
 243 0110 FFF7FEFF 		bl	HAL_NVIC_EnableIRQ
 244              	.LVL10:
 110:Core/Src/gpio.c **** 
 111:Core/Src/gpio.c ****   HAL_NVIC_SetPriority(EXTI15_10_IRQn, 2, 0);
 245              		.loc 1 111 3 view .LVU80
 246 0114 2246     		mov	r2, r4
 247 0116 3946     		mov	r1, r7
 248 0118 2820     		movs	r0, #40
 249 011a FFF7FEFF 		bl	HAL_NVIC_SetPriority
 250              	.LVL11:
 112:Core/Src/gpio.c ****   HAL_NVIC_EnableIRQ(EXTI15_10_IRQn);
 251              		.loc 1 112 3 view .LVU81
 252 011e 2820     		movs	r0, #40
 253 0120 FFF7FEFF 		bl	HAL_NVIC_EnableIRQ
 254              	.LVL12:
 113:Core/Src/gpio.c **** 
 114:Core/Src/gpio.c **** }
 255              		.loc 1 114 1 is_stmt 0 view .LVU82
 256 0124 09B0     		add	sp, sp, #36
 257              	.LCFI2:
 258              		.cfi_def_cfa_offset 28
 259              		@ sp needed
 260 0126 BDE8F083 		pop	{r4, r5, r6, r7, r8, r9, pc}
 261              	.L4:
 262 012a 00BF     		.align	2
 263              	.L3:
 264 012c 00100240 		.word	1073876992
 265 0130 000C0140 		.word	1073810432
 266 0134 00080140 		.word	1073809408
 267 0138 00002110 		.word	270598144
 268 013c 00100140 		.word	1073811456
 269              		.cfi_endproc
 270              	.LFE65:
 272              		.text
 273              	.Letext0:
 274              		.file 2 "c:\\gnu_tool_arm_embedded\\arm-none-eabi\\include\\machine\\_default_types.h"
 275              		.file 3 "c:\\gnu_tool_arm_embedded\\arm-none-eabi\\include\\sys\\_stdint.h"
 276              		.file 4 "Drivers/CMSIS/Include/core_cm3.h"
 277              		.file 5 "Drivers/CMSIS/Device/ST/STM32F1xx/Include/system_stm32f1xx.h"
 278              		.file 6 "Drivers/CMSIS/Device/ST/STM32F1xx/Include/stm32f103xb.h"
 279              		.file 7 "Drivers/STM32F1xx_HAL_Driver/Inc/stm32f1xx_hal_gpio.h"
 280              		.file 8 "Drivers/STM32F1xx_HAL_Driver/Inc/stm32f1xx_hal.h"
 281              		.file 9 "Drivers/STM32F1xx_HAL_Driver/Inc/stm32f1xx_hal_cortex.h"
ARM GAS  C:\Users\LIGUOH~1\AppData\Local\Temp\ccgTXyqc.s 			page 8


DEFINED SYMBOLS
                            *ABS*:00000000 gpio.c
C:\Users\LIGUOH~1\AppData\Local\Temp\ccgTXyqc.s:16     .text.MX_GPIO_Init:00000000 $t
C:\Users\LIGUOH~1\AppData\Local\Temp\ccgTXyqc.s:24     .text.MX_GPIO_Init:00000000 MX_GPIO_Init
C:\Users\LIGUOH~1\AppData\Local\Temp\ccgTXyqc.s:264    .text.MX_GPIO_Init:0000012c $d

UNDEFINED SYMBOLS
HAL_GPIO_WritePin
HAL_GPIO_Init
HAL_NVIC_SetPriority
HAL_NVIC_EnableIRQ
