ARM GAS  C:\Users\LIGUOH~1\AppData\Local\Temp\ccu9XSBG.s 			page 1


   1              		.cpu cortex-m3
   2              		.eabi_attribute 20, 1
   3              		.eabi_attribute 21, 1
   4              		.eabi_attribute 23, 3
   5              		.eabi_attribute 24, 1
   6              		.eabi_attribute 25, 1
   7              		.eabi_attribute 26, 1
   8              		.eabi_attribute 30, 1
   9              		.eabi_attribute 34, 1
  10              		.eabi_attribute 18, 4
  11              		.file	"LED.c"
  12              		.text
  13              	.Ltext0:
  14              		.cfi_sections	.debug_frame
  15              		.section	.text.LED_Flip,"ax",%progbits
  16              		.align	1
  17              		.arch armv7-m
  18              		.syntax unified
  19              		.thumb
  20              		.thumb_func
  21              		.fpu softvfp
  23              	LED_Flip:
  24              	.LVL0:
  25              	.LFB70:
  26              		.file 1 "MyApplication/LED.c"
   1:MyApplication/LED.c **** /*Include--------------------------------------------------------*/
   2:MyApplication/LED.c **** #include "LED.h"
   3:MyApplication/LED.c **** 
   4:MyApplication/LED.c **** /*private define-------------------------------------------------*/
   5:MyApplication/LED.c **** 
   6:MyApplication/LED.c **** /*private variables----------------------------------------------*/
   7:MyApplication/LED.c **** 
   8:MyApplication/LED.c **** static void LED_ON(uint8_t);   //静态函数
   9:MyApplication/LED.c **** static void LED_OFF(uint8_t);
  10:MyApplication/LED.c **** static void LED_Flip(uint8_t);
  11:MyApplication/LED.c **** 
  12:MyApplication/LED.c **** /*public variables-----------------------------------------------*/
  13:MyApplication/LED.c **** 
  14:MyApplication/LED.c **** LED_t LED =
  15:MyApplication/LED.c **** {
  16:MyApplication/LED.c **** 
  17:MyApplication/LED.c ****     LED_ON,
  18:MyApplication/LED.c ****     LED_OFF,
  19:MyApplication/LED.c ****     LED_Flip
  20:MyApplication/LED.c **** };
  21:MyApplication/LED.c **** 
  22:MyApplication/LED.c **** /*private function prototypes -----------------------------------*/
  23:MyApplication/LED.c **** 
  24:MyApplication/LED.c **** 
  25:MyApplication/LED.c **** /*
  26:MyApplication/LED.c **** * @name    LED_ON
  27:MyApplication/LED.c **** * @brief   LED打开
  28:MyApplication/LED.c **** * @param   Num->编号
  29:MyApplication/LED.c **** * @retval  None
  30:MyApplication/LED.c **** */
  31:MyApplication/LED.c **** static void LED_ON (uint8_t LED_Num)
  32:MyApplication/LED.c **** {
ARM GAS  C:\Users\LIGUOH~1\AppData\Local\Temp\ccu9XSBG.s 			page 2


  33:MyApplication/LED.c ****     switch (LED_Num)
  34:MyApplication/LED.c ****     {
  35:MyApplication/LED.c ****     case LED_CC:  HAL_GPIO_WritePin(LED_CC_GPIO_Port,LED_CC_Pin,GPIO_PIN_RESET);break;
  36:MyApplication/LED.c ****     case LED_CV:  HAL_GPIO_WritePin(LED_CV_GPIO_Port,LED_CV_Pin,GPIO_PIN_RESET);break;
  37:MyApplication/LED.c ****     case LED_OUT: HAL_GPIO_WritePin(LED_OUT_GPIO_Port,LED_OUT_Pin,GPIO_PIN_RESET);break;   
  38:MyApplication/LED.c ****     case LED_TEST: HAL_GPIO_WritePin(LED_TEST_GPIO_Port,LED_TEST_Pin,GPIO_PIN_RESET);break;   
  39:MyApplication/LED.c ****     default:System.Assert_Failed();
  40:MyApplication/LED.c ****     
  41:MyApplication/LED.c ****     }
  42:MyApplication/LED.c **** }
  43:MyApplication/LED.c **** 
  44:MyApplication/LED.c **** 
  45:MyApplication/LED.c **** /*
  46:MyApplication/LED.c **** * @name    LED_OFF
  47:MyApplication/LED.c **** * @brief   LED关闭
  48:MyApplication/LED.c **** * @param   Num->编号
  49:MyApplication/LED.c **** * @retval  None
  50:MyApplication/LED.c **** */
  51:MyApplication/LED.c **** 
  52:MyApplication/LED.c **** static void LED_OFF (uint8_t LED_Num)
  53:MyApplication/LED.c **** {
  54:MyApplication/LED.c ****     switch (LED_Num)
  55:MyApplication/LED.c ****     {
  56:MyApplication/LED.c ****     case LED_CC:  HAL_GPIO_WritePin(LED_CC_GPIO_Port,LED_CC_Pin,GPIO_PIN_SET);break;
  57:MyApplication/LED.c ****     case LED_CV:  HAL_GPIO_WritePin(LED_CV_GPIO_Port,LED_CV_Pin,GPIO_PIN_SET);break;
  58:MyApplication/LED.c ****     case LED_OUT: HAL_GPIO_WritePin(LED_OUT_GPIO_Port,LED_OUT_Pin,GPIO_PIN_SET);break;   
  59:MyApplication/LED.c ****     case LED_TEST: HAL_GPIO_WritePin(LED_TEST_GPIO_Port,LED_TEST_Pin,GPIO_PIN_SET);break;   
  60:MyApplication/LED.c ****     default:System.Assert_Failed();
  61:MyApplication/LED.c ****     
  62:MyApplication/LED.c ****     }
  63:MyApplication/LED.c **** }
  64:MyApplication/LED.c **** 
  65:MyApplication/LED.c **** 
  66:MyApplication/LED.c **** /*
  67:MyApplication/LED.c **** * @name    LED_Flip
  68:MyApplication/LED.c **** * @brief   LED取反
  69:MyApplication/LED.c **** * @param   Num->编号
  70:MyApplication/LED.c **** * @retval  None
  71:MyApplication/LED.c **** */
  72:MyApplication/LED.c **** 
  73:MyApplication/LED.c **** static void LED_Flip (uint8_t LED_Num)
  74:MyApplication/LED.c **** {
  27              		.loc 1 74 1 view -0
  28              		.cfi_startproc
  29              		@ args = 0, pretend = 0, frame = 0
  30              		@ frame_needed = 0, uses_anonymous_args = 0
  31              		.loc 1 74 1 is_stmt 0 view .LVU1
  32 0000 08B5     		push	{r3, lr}
  33              	.LCFI0:
  34              		.cfi_def_cfa_offset 8
  35              		.cfi_offset 3, -8
  36              		.cfi_offset 14, -4
  75:MyApplication/LED.c ****     switch (LED_Num)
  37              		.loc 1 75 5 is_stmt 1 view .LVU2
  38 0002 0138     		subs	r0, r0, #1
  39              	.LVL1:
  40              		.loc 1 75 5 is_stmt 0 view .LVU3
ARM GAS  C:\Users\LIGUOH~1\AppData\Local\Temp\ccu9XSBG.s 			page 3


  41 0004 0328     		cmp	r0, #3
  42 0006 18D8     		bhi	.L2
  43 0008 DFE800F0 		tbb	[pc, r0]
  44              	.L4:
  45 000c 02       		.byte	(.L7-.L4)/2
  46 000d 07       		.byte	(.L6-.L4)/2
  47 000e 0C       		.byte	(.L5-.L4)/2
  48 000f 11       		.byte	(.L3-.L4)/2
  49              		.p2align 1
  50              	.L7:
  76:MyApplication/LED.c ****     {
  77:MyApplication/LED.c ****     case LED_CC:  HAL_GPIO_TogglePin(LED_CC_GPIO_Port,LED_CC_Pin);break;
  51              		.loc 1 77 19 is_stmt 1 view .LVU4
  52 0010 0821     		movs	r1, #8
  53 0012 0C48     		ldr	r0, .L10
  54 0014 FFF7FEFF 		bl	HAL_GPIO_TogglePin
  55              	.LVL2:
  56              		.loc 1 77 67 view .LVU5
  57              	.L1:
  78:MyApplication/LED.c ****     case LED_CV:  HAL_GPIO_TogglePin(LED_CV_GPIO_Port,LED_CV_Pin);break;
  79:MyApplication/LED.c ****     case LED_OUT: HAL_GPIO_TogglePin(LED_OUT_GPIO_Port,LED_OUT_Pin);break;   
  80:MyApplication/LED.c ****     case LED_TEST: HAL_GPIO_TogglePin(LED_TEST_GPIO_Port,LED_TEST_Pin);break;   
  81:MyApplication/LED.c ****     default:System.Assert_Failed();
  82:MyApplication/LED.c ****     
  83:MyApplication/LED.c ****     }
  84:MyApplication/LED.c **** }
  58              		.loc 1 84 1 is_stmt 0 view .LVU6
  59 0018 08BD     		pop	{r3, pc}
  60              	.L6:
  78:MyApplication/LED.c ****     case LED_CV:  HAL_GPIO_TogglePin(LED_CV_GPIO_Port,LED_CV_Pin);break;
  61              		.loc 1 78 19 is_stmt 1 view .LVU7
  62 001a 1021     		movs	r1, #16
  63 001c 0948     		ldr	r0, .L10
  64 001e FFF7FEFF 		bl	HAL_GPIO_TogglePin
  65              	.LVL3:
  78:MyApplication/LED.c ****     case LED_CV:  HAL_GPIO_TogglePin(LED_CV_GPIO_Port,LED_CV_Pin);break;
  66              		.loc 1 78 67 view .LVU8
  78:MyApplication/LED.c ****     case LED_CV:  HAL_GPIO_TogglePin(LED_CV_GPIO_Port,LED_CV_Pin);break;
  67              		.loc 1 78 5 is_stmt 0 view .LVU9
  68 0022 F9E7     		b	.L1
  69              	.L5:
  79:MyApplication/LED.c ****     case LED_TEST: HAL_GPIO_TogglePin(LED_TEST_GPIO_Port,LED_TEST_Pin);break;   
  70              		.loc 1 79 19 is_stmt 1 view .LVU10
  71 0024 2021     		movs	r1, #32
  72 0026 0748     		ldr	r0, .L10
  73 0028 FFF7FEFF 		bl	HAL_GPIO_TogglePin
  74              	.LVL4:
  79:MyApplication/LED.c ****     case LED_TEST: HAL_GPIO_TogglePin(LED_TEST_GPIO_Port,LED_TEST_Pin);break;   
  75              		.loc 1 79 69 view .LVU11
  79:MyApplication/LED.c ****     case LED_TEST: HAL_GPIO_TogglePin(LED_TEST_GPIO_Port,LED_TEST_Pin);break;   
  76              		.loc 1 79 5 is_stmt 0 view .LVU12
  77 002c F4E7     		b	.L1
  78              	.L3:
  80:MyApplication/LED.c ****     default:System.Assert_Failed();
  79              		.loc 1 80 20 is_stmt 1 view .LVU13
  80 002e 4FF40051 		mov	r1, #8192
  81 0032 0548     		ldr	r0, .L10+4
ARM GAS  C:\Users\LIGUOH~1\AppData\Local\Temp\ccu9XSBG.s 			page 4


  82 0034 FFF7FEFF 		bl	HAL_GPIO_TogglePin
  83              	.LVL5:
  80:MyApplication/LED.c ****     default:System.Assert_Failed();
  84              		.loc 1 80 72 view .LVU14
  80:MyApplication/LED.c ****     default:System.Assert_Failed();
  85              		.loc 1 80 5 is_stmt 0 view .LVU15
  86 0038 EEE7     		b	.L1
  87              	.L2:
  81:MyApplication/LED.c ****     
  88              		.loc 1 81 13 is_stmt 1 view .LVU16
  81:MyApplication/LED.c ****     
  89              		.loc 1 81 19 is_stmt 0 view .LVU17
  90 003a 044B     		ldr	r3, .L10+8
  91 003c 9B68     		ldr	r3, [r3, #8]
  81:MyApplication/LED.c ****     
  92              		.loc 1 81 13 view .LVU18
  93 003e 9847     		blx	r3
  94              	.LVL6:
  95              		.loc 1 84 1 view .LVU19
  96 0040 EAE7     		b	.L1
  97              	.L11:
  98 0042 00BF     		.align	2
  99              	.L10:
 100 0044 000C0140 		.word	1073810432
 101 0048 00100140 		.word	1073811456
 102 004c 00000000 		.word	System
 103              		.cfi_endproc
 104              	.LFE70:
 106              		.section	.text.LED_OFF,"ax",%progbits
 107              		.align	1
 108              		.syntax unified
 109              		.thumb
 110              		.thumb_func
 111              		.fpu softvfp
 113              	LED_OFF:
 114              	.LVL7:
 115              	.LFB69:
  53:MyApplication/LED.c ****     switch (LED_Num)
 116              		.loc 1 53 1 is_stmt 1 view -0
 117              		.cfi_startproc
 118              		@ args = 0, pretend = 0, frame = 0
 119              		@ frame_needed = 0, uses_anonymous_args = 0
  53:MyApplication/LED.c ****     switch (LED_Num)
 120              		.loc 1 53 1 is_stmt 0 view .LVU21
 121 0000 08B5     		push	{r3, lr}
 122              	.LCFI1:
 123              		.cfi_def_cfa_offset 8
 124              		.cfi_offset 3, -8
 125              		.cfi_offset 14, -4
  54:MyApplication/LED.c ****     {
 126              		.loc 1 54 5 is_stmt 1 view .LVU22
 127 0002 0138     		subs	r0, r0, #1
 128              	.LVL8:
  54:MyApplication/LED.c ****     {
 129              		.loc 1 54 5 is_stmt 0 view .LVU23
 130 0004 0328     		cmp	r0, #3
 131 0006 1CD8     		bhi	.L13
ARM GAS  C:\Users\LIGUOH~1\AppData\Local\Temp\ccu9XSBG.s 			page 5


 132 0008 DFE800F0 		tbb	[pc, r0]
 133              	.L15:
 134 000c 02       		.byte	(.L18-.L15)/2
 135 000d 08       		.byte	(.L17-.L15)/2
 136 000e 0E       		.byte	(.L16-.L15)/2
 137 000f 14       		.byte	(.L14-.L15)/2
 138              		.p2align 1
 139              	.L18:
  56:MyApplication/LED.c ****     case LED_CV:  HAL_GPIO_WritePin(LED_CV_GPIO_Port,LED_CV_Pin,GPIO_PIN_SET);break;
 140              		.loc 1 56 19 is_stmt 1 view .LVU24
 141 0010 0122     		movs	r2, #1
 142 0012 0821     		movs	r1, #8
 143 0014 0D48     		ldr	r0, .L21
 144 0016 FFF7FEFF 		bl	HAL_GPIO_WritePin
 145              	.LVL9:
  56:MyApplication/LED.c ****     case LED_CV:  HAL_GPIO_WritePin(LED_CV_GPIO_Port,LED_CV_Pin,GPIO_PIN_SET);break;
 146              		.loc 1 56 79 view .LVU25
 147              	.L12:
  63:MyApplication/LED.c **** 
 148              		.loc 1 63 1 is_stmt 0 view .LVU26
 149 001a 08BD     		pop	{r3, pc}
 150              	.L17:
  57:MyApplication/LED.c ****     case LED_OUT: HAL_GPIO_WritePin(LED_OUT_GPIO_Port,LED_OUT_Pin,GPIO_PIN_SET);break;   
 151              		.loc 1 57 19 is_stmt 1 view .LVU27
 152 001c 0122     		movs	r2, #1
 153 001e 1021     		movs	r1, #16
 154 0020 0A48     		ldr	r0, .L21
 155 0022 FFF7FEFF 		bl	HAL_GPIO_WritePin
 156              	.LVL10:
  57:MyApplication/LED.c ****     case LED_OUT: HAL_GPIO_WritePin(LED_OUT_GPIO_Port,LED_OUT_Pin,GPIO_PIN_SET);break;   
 157              		.loc 1 57 79 view .LVU28
  57:MyApplication/LED.c ****     case LED_OUT: HAL_GPIO_WritePin(LED_OUT_GPIO_Port,LED_OUT_Pin,GPIO_PIN_SET);break;   
 158              		.loc 1 57 5 is_stmt 0 view .LVU29
 159 0026 F8E7     		b	.L12
 160              	.L16:
  58:MyApplication/LED.c ****     case LED_TEST: HAL_GPIO_WritePin(LED_TEST_GPIO_Port,LED_TEST_Pin,GPIO_PIN_SET);break;   
 161              		.loc 1 58 19 is_stmt 1 view .LVU30
 162 0028 0122     		movs	r2, #1
 163 002a 2021     		movs	r1, #32
 164 002c 0748     		ldr	r0, .L21
 165 002e FFF7FEFF 		bl	HAL_GPIO_WritePin
 166              	.LVL11:
  58:MyApplication/LED.c ****     case LED_TEST: HAL_GPIO_WritePin(LED_TEST_GPIO_Port,LED_TEST_Pin,GPIO_PIN_SET);break;   
 167              		.loc 1 58 81 view .LVU31
  58:MyApplication/LED.c ****     case LED_TEST: HAL_GPIO_WritePin(LED_TEST_GPIO_Port,LED_TEST_Pin,GPIO_PIN_SET);break;   
 168              		.loc 1 58 5 is_stmt 0 view .LVU32
 169 0032 F2E7     		b	.L12
 170              	.L14:
  59:MyApplication/LED.c ****     default:System.Assert_Failed();
 171              		.loc 1 59 20 is_stmt 1 view .LVU33
 172 0034 0122     		movs	r2, #1
 173 0036 4FF40051 		mov	r1, #8192
 174 003a 0548     		ldr	r0, .L21+4
 175 003c FFF7FEFF 		bl	HAL_GPIO_WritePin
 176              	.LVL12:
  59:MyApplication/LED.c ****     default:System.Assert_Failed();
 177              		.loc 1 59 84 view .LVU34
ARM GAS  C:\Users\LIGUOH~1\AppData\Local\Temp\ccu9XSBG.s 			page 6


  59:MyApplication/LED.c ****     default:System.Assert_Failed();
 178              		.loc 1 59 5 is_stmt 0 view .LVU35
 179 0040 EBE7     		b	.L12
 180              	.L13:
  60:MyApplication/LED.c ****     
 181              		.loc 1 60 13 is_stmt 1 view .LVU36
  60:MyApplication/LED.c ****     
 182              		.loc 1 60 19 is_stmt 0 view .LVU37
 183 0042 044B     		ldr	r3, .L21+8
 184 0044 9B68     		ldr	r3, [r3, #8]
  60:MyApplication/LED.c ****     
 185              		.loc 1 60 13 view .LVU38
 186 0046 9847     		blx	r3
 187              	.LVL13:
  63:MyApplication/LED.c **** 
 188              		.loc 1 63 1 view .LVU39
 189 0048 E7E7     		b	.L12
 190              	.L22:
 191 004a 00BF     		.align	2
 192              	.L21:
 193 004c 000C0140 		.word	1073810432
 194 0050 00100140 		.word	1073811456
 195 0054 00000000 		.word	System
 196              		.cfi_endproc
 197              	.LFE69:
 199              		.section	.text.LED_ON,"ax",%progbits
 200              		.align	1
 201              		.syntax unified
 202              		.thumb
 203              		.thumb_func
 204              		.fpu softvfp
 206              	LED_ON:
 207              	.LVL14:
 208              	.LFB68:
  32:MyApplication/LED.c ****     switch (LED_Num)
 209              		.loc 1 32 1 is_stmt 1 view -0
 210              		.cfi_startproc
 211              		@ args = 0, pretend = 0, frame = 0
 212              		@ frame_needed = 0, uses_anonymous_args = 0
  32:MyApplication/LED.c ****     switch (LED_Num)
 213              		.loc 1 32 1 is_stmt 0 view .LVU41
 214 0000 08B5     		push	{r3, lr}
 215              	.LCFI2:
 216              		.cfi_def_cfa_offset 8
 217              		.cfi_offset 3, -8
 218              		.cfi_offset 14, -4
  33:MyApplication/LED.c ****     {
 219              		.loc 1 33 5 is_stmt 1 view .LVU42
 220 0002 0138     		subs	r0, r0, #1
 221              	.LVL15:
  33:MyApplication/LED.c ****     {
 222              		.loc 1 33 5 is_stmt 0 view .LVU43
 223 0004 0328     		cmp	r0, #3
 224 0006 1CD8     		bhi	.L24
 225 0008 DFE800F0 		tbb	[pc, r0]
 226              	.L26:
 227 000c 02       		.byte	(.L29-.L26)/2
ARM GAS  C:\Users\LIGUOH~1\AppData\Local\Temp\ccu9XSBG.s 			page 7


 228 000d 08       		.byte	(.L28-.L26)/2
 229 000e 0E       		.byte	(.L27-.L26)/2
 230 000f 14       		.byte	(.L25-.L26)/2
 231              		.p2align 1
 232              	.L29:
  35:MyApplication/LED.c ****     case LED_CV:  HAL_GPIO_WritePin(LED_CV_GPIO_Port,LED_CV_Pin,GPIO_PIN_RESET);break;
 233              		.loc 1 35 19 is_stmt 1 view .LVU44
 234 0010 0022     		movs	r2, #0
 235 0012 0821     		movs	r1, #8
 236 0014 0D48     		ldr	r0, .L32
 237 0016 FFF7FEFF 		bl	HAL_GPIO_WritePin
 238              	.LVL16:
  35:MyApplication/LED.c ****     case LED_CV:  HAL_GPIO_WritePin(LED_CV_GPIO_Port,LED_CV_Pin,GPIO_PIN_RESET);break;
 239              		.loc 1 35 81 view .LVU45
 240              	.L23:
  42:MyApplication/LED.c **** 
 241              		.loc 1 42 1 is_stmt 0 view .LVU46
 242 001a 08BD     		pop	{r3, pc}
 243              	.L28:
  36:MyApplication/LED.c ****     case LED_OUT: HAL_GPIO_WritePin(LED_OUT_GPIO_Port,LED_OUT_Pin,GPIO_PIN_RESET);break;   
 244              		.loc 1 36 19 is_stmt 1 view .LVU47
 245 001c 0022     		movs	r2, #0
 246 001e 1021     		movs	r1, #16
 247 0020 0A48     		ldr	r0, .L32
 248 0022 FFF7FEFF 		bl	HAL_GPIO_WritePin
 249              	.LVL17:
  36:MyApplication/LED.c ****     case LED_OUT: HAL_GPIO_WritePin(LED_OUT_GPIO_Port,LED_OUT_Pin,GPIO_PIN_RESET);break;   
 250              		.loc 1 36 81 view .LVU48
  36:MyApplication/LED.c ****     case LED_OUT: HAL_GPIO_WritePin(LED_OUT_GPIO_Port,LED_OUT_Pin,GPIO_PIN_RESET);break;   
 251              		.loc 1 36 5 is_stmt 0 view .LVU49
 252 0026 F8E7     		b	.L23
 253              	.L27:
  37:MyApplication/LED.c ****     case LED_TEST: HAL_GPIO_WritePin(LED_TEST_GPIO_Port,LED_TEST_Pin,GPIO_PIN_RESET);break;   
 254              		.loc 1 37 19 is_stmt 1 view .LVU50
 255 0028 0022     		movs	r2, #0
 256 002a 2021     		movs	r1, #32
 257 002c 0748     		ldr	r0, .L32
 258 002e FFF7FEFF 		bl	HAL_GPIO_WritePin
 259              	.LVL18:
  37:MyApplication/LED.c ****     case LED_TEST: HAL_GPIO_WritePin(LED_TEST_GPIO_Port,LED_TEST_Pin,GPIO_PIN_RESET);break;   
 260              		.loc 1 37 83 view .LVU51
  37:MyApplication/LED.c ****     case LED_TEST: HAL_GPIO_WritePin(LED_TEST_GPIO_Port,LED_TEST_Pin,GPIO_PIN_RESET);break;   
 261              		.loc 1 37 5 is_stmt 0 view .LVU52
 262 0032 F2E7     		b	.L23
 263              	.L25:
  38:MyApplication/LED.c ****     default:System.Assert_Failed();
 264              		.loc 1 38 20 is_stmt 1 view .LVU53
 265 0034 0022     		movs	r2, #0
 266 0036 4FF40051 		mov	r1, #8192
 267 003a 0548     		ldr	r0, .L32+4
 268 003c FFF7FEFF 		bl	HAL_GPIO_WritePin
 269              	.LVL19:
  38:MyApplication/LED.c ****     default:System.Assert_Failed();
 270              		.loc 1 38 86 view .LVU54
  38:MyApplication/LED.c ****     default:System.Assert_Failed();
 271              		.loc 1 38 5 is_stmt 0 view .LVU55
 272 0040 EBE7     		b	.L23
ARM GAS  C:\Users\LIGUOH~1\AppData\Local\Temp\ccu9XSBG.s 			page 8


 273              	.L24:
  39:MyApplication/LED.c ****     
 274              		.loc 1 39 13 is_stmt 1 view .LVU56
  39:MyApplication/LED.c ****     
 275              		.loc 1 39 19 is_stmt 0 view .LVU57
 276 0042 044B     		ldr	r3, .L32+8
 277 0044 9B68     		ldr	r3, [r3, #8]
  39:MyApplication/LED.c ****     
 278              		.loc 1 39 13 view .LVU58
 279 0046 9847     		blx	r3
 280              	.LVL20:
  42:MyApplication/LED.c **** 
 281              		.loc 1 42 1 view .LVU59
 282 0048 E7E7     		b	.L23
 283              	.L33:
 284 004a 00BF     		.align	2
 285              	.L32:
 286 004c 000C0140 		.word	1073810432
 287 0050 00100140 		.word	1073811456
 288 0054 00000000 		.word	System
 289              		.cfi_endproc
 290              	.LFE68:
 292              		.global	LED
 293              		.section	.data.LED,"aw"
 294              		.align	2
 297              	LED:
 298 0000 00000000 		.word	LED_ON
 299 0004 00000000 		.word	LED_OFF
 300 0008 00000000 		.word	LED_Flip
 301              		.text
 302              	.Letext0:
 303              		.file 2 "c:\\gnu_tool_arm_embedded\\arm-none-eabi\\include\\machine\\_default_types.h"
 304              		.file 3 "c:\\gnu_tool_arm_embedded\\arm-none-eabi\\include\\sys\\_stdint.h"
 305              		.file 4 "Drivers/CMSIS/Include/core_cm3.h"
 306              		.file 5 "Drivers/CMSIS/Device/ST/STM32F1xx/Include/system_stm32f1xx.h"
 307              		.file 6 "Drivers/CMSIS/Device/ST/STM32F1xx/Include/stm32f103xb.h"
 308              		.file 7 "Drivers/CMSIS/Device/ST/STM32F1xx/Include/stm32f1xx.h"
 309              		.file 8 "Drivers/STM32F1xx_HAL_Driver/Inc/stm32f1xx_hal_def.h"
 310              		.file 9 "Drivers/STM32F1xx_HAL_Driver/Inc/stm32f1xx_hal_gpio.h"
 311              		.file 10 "Drivers/STM32F1xx_HAL_Driver/Inc/stm32f1xx_hal_dma.h"
 312              		.file 11 "Drivers/STM32F1xx_HAL_Driver/Inc/stm32f1xx_hal_adc.h"
 313              		.file 12 "Drivers/STM32F1xx_HAL_Driver/Inc/stm32f1xx_hal_spi.h"
 314              		.file 13 "Drivers/STM32F1xx_HAL_Driver/Inc/stm32f1xx_hal_tim.h"
 315              		.file 14 "Drivers/STM32F1xx_HAL_Driver/Inc/stm32f1xx_hal_uart.h"
 316              		.file 15 "Drivers/STM32F1xx_HAL_Driver/Inc/stm32f1xx_hal.h"
 317              		.file 16 "Core/Inc/usart.h"
 318              		.file 17 "Core/Inc/adc.h"
 319              		.file 18 "Core/Inc/spi.h"
 320              		.file 19 "Core/Inc/tim.h"
 321              		.file 20 "c:\\gnu_tool_arm_embedded\\arm-none-eabi\\include\\sys\\lock.h"
 322              		.file 21 "c:\\gnu_tool_arm_embedded\\arm-none-eabi\\include\\sys\\_types.h"
 323              		.file 22 "c:\\gnu_tool_arm_embedded\\lib\\gcc\\arm-none-eabi\\9.2.1\\include\\stddef.h"
 324              		.file 23 "c:\\gnu_tool_arm_embedded\\arm-none-eabi\\include\\sys\\reent.h"
 325              		.file 24 "c:\\gnu_tool_arm_embedded\\arm-none-eabi\\include\\stdlib.h"
 326              		.file 25 "MyApplication/System.h"
 327              		.file 26 "MyApplication/MyInit.h"
 328              		.file 27 "MyApplication/BELL.h"
ARM GAS  C:\Users\LIGUOH~1\AppData\Local\Temp\ccu9XSBG.s 			page 9


 329              		.file 28 "MyApplication/KEY.h"
 330              		.file 29 "MyApplication/IPS114_LCD.h"
 331              		.file 30 "MyApplication/MyAdc_Apply.h"
 332              		.file 31 "MyApplication/Vi_control.h"
 333              		.file 32 "MyApplication/LED.h"
ARM GAS  C:\Users\LIGUOH~1\AppData\Local\Temp\ccu9XSBG.s 			page 10


DEFINED SYMBOLS
                            *ABS*:00000000 LED.c
C:\Users\LIGUOH~1\AppData\Local\Temp\ccu9XSBG.s:16     .text.LED_Flip:00000000 $t
C:\Users\LIGUOH~1\AppData\Local\Temp\ccu9XSBG.s:23     .text.LED_Flip:00000000 LED_Flip
C:\Users\LIGUOH~1\AppData\Local\Temp\ccu9XSBG.s:45     .text.LED_Flip:0000000c $d
C:\Users\LIGUOH~1\AppData\Local\Temp\ccu9XSBG.s:49     .text.LED_Flip:00000010 $t
C:\Users\LIGUOH~1\AppData\Local\Temp\ccu9XSBG.s:100    .text.LED_Flip:00000044 $d
C:\Users\LIGUOH~1\AppData\Local\Temp\ccu9XSBG.s:107    .text.LED_OFF:00000000 $t
C:\Users\LIGUOH~1\AppData\Local\Temp\ccu9XSBG.s:113    .text.LED_OFF:00000000 LED_OFF
C:\Users\LIGUOH~1\AppData\Local\Temp\ccu9XSBG.s:134    .text.LED_OFF:0000000c $d
C:\Users\LIGUOH~1\AppData\Local\Temp\ccu9XSBG.s:138    .text.LED_OFF:00000010 $t
C:\Users\LIGUOH~1\AppData\Local\Temp\ccu9XSBG.s:193    .text.LED_OFF:0000004c $d
C:\Users\LIGUOH~1\AppData\Local\Temp\ccu9XSBG.s:200    .text.LED_ON:00000000 $t
C:\Users\LIGUOH~1\AppData\Local\Temp\ccu9XSBG.s:206    .text.LED_ON:00000000 LED_ON
C:\Users\LIGUOH~1\AppData\Local\Temp\ccu9XSBG.s:227    .text.LED_ON:0000000c $d
C:\Users\LIGUOH~1\AppData\Local\Temp\ccu9XSBG.s:231    .text.LED_ON:00000010 $t
C:\Users\LIGUOH~1\AppData\Local\Temp\ccu9XSBG.s:286    .text.LED_ON:0000004c $d
C:\Users\LIGUOH~1\AppData\Local\Temp\ccu9XSBG.s:297    .data.LED:00000000 LED
C:\Users\LIGUOH~1\AppData\Local\Temp\ccu9XSBG.s:294    .data.LED:00000000 $d

UNDEFINED SYMBOLS
HAL_GPIO_TogglePin
System
HAL_GPIO_WritePin
