ARM GAS  C:\Users\LIGUOH~1\AppData\Local\Temp\cckenSFF.s 			page 1


   1              		.cpu cortex-m3
   2              		.eabi_attribute 20, 1
   3              		.eabi_attribute 21, 1
   4              		.eabi_attribute 23, 3
   5              		.eabi_attribute 24, 1
   6              		.eabi_attribute 25, 1
   7              		.eabi_attribute 26, 1
   8              		.eabi_attribute 30, 1
   9              		.eabi_attribute 34, 1
  10              		.eabi_attribute 18, 4
  11              		.file	"MyAdc_Apply.c"
  12              		.text
  13              	.Ltext0:
  14              		.cfi_sections	.debug_frame
  15              		.global	__aeabi_i2f
  16              		.global	__aeabi_fadd
  17              		.global	__aeabi_fmul
  18              		.global	__aeabi_f2d
  19              		.global	__aeabi_dmul
  20              		.global	__aeabi_d2f
  21              		.global	__aeabi_ddiv
  22              		.global	__aeabi_fcmplt
  23              		.section	.text.ADC_GetNewSample,"ax",%progbits
  24              		.align	1
  25              		.arch armv7-m
  26              		.syntax unified
  27              		.thumb
  28              		.thumb_func
  29              		.fpu softvfp
  31              	ADC_GetNewSample:
  32              	.LFB69:
  33              		.file 1 "MyApplication/MyAdc_Apply.c"
   1:MyApplication/MyAdc_Apply.c **** /* Includes ------------------------------------------------------------------*/
   2:MyApplication/MyAdc_Apply.c **** #include "MyAdc_Apply.h"
   3:MyApplication/MyAdc_Apply.c **** 
   4:MyApplication/MyAdc_Apply.c **** 
   5:MyApplication/MyAdc_Apply.c **** 
   6:MyApplication/MyAdc_Apply.c **** /* Private define-------------------------------------------------------------*/
   7:MyApplication/MyAdc_Apply.c **** 
   8:MyApplication/MyAdc_Apply.c **** /* Private variables----------------------------------------------------------*/
   9:MyApplication/MyAdc_Apply.c **** 
  10:MyApplication/MyAdc_Apply.c **** /* Private function prototypes------------------------------------------------*/      
  11:MyApplication/MyAdc_Apply.c **** //static void     Get_NTC_Voltage(void);       //获取温度电压
  12:MyApplication/MyAdc_Apply.c **** static void Get_ADC_Value (void);
  13:MyApplication/MyAdc_Apply.c **** static void ADC_GetNewSample (void);
  14:MyApplication/MyAdc_Apply.c **** 
  15:MyApplication/MyAdc_Apply.c **** /* Public variables-----------------------------------------------------------*/
  16:MyApplication/MyAdc_Apply.c **** MyADC_t  MyADC = 
  17:MyApplication/MyAdc_Apply.c **** {
  18:MyApplication/MyAdc_Apply.c ****  {0},
  19:MyApplication/MyAdc_Apply.c ****  {0},
  20:MyApplication/MyAdc_Apply.c ****  {0},
  21:MyApplication/MyAdc_Apply.c ****  {0},
  22:MyApplication/MyAdc_Apply.c ****  0,
  23:MyApplication/MyAdc_Apply.c ****  0,
  24:MyApplication/MyAdc_Apply.c ****  0,
  25:MyApplication/MyAdc_Apply.c ****  Get_ADC_Value,
ARM GAS  C:\Users\LIGUOH~1\AppData\Local\Temp\cckenSFF.s 			page 2


  26:MyApplication/MyAdc_Apply.c ****  ADC_GetNewSample
  27:MyApplication/MyAdc_Apply.c **** };
  28:MyApplication/MyAdc_Apply.c **** 
  29:MyApplication/MyAdc_Apply.c **** static void Get_ADC_Value(void)  //获取ADC采样值
  30:MyApplication/MyAdc_Apply.c **** {
  31:MyApplication/MyAdc_Apply.c ****  HAL_TIM_Base_Start(&htim3);    //启动定时器3
  32:MyApplication/MyAdc_Apply.c ****  HAL_Delay(1);    //等待初始化稳定
  33:MyApplication/MyAdc_Apply.c ****  HAL_ADCEx_Calibration_Start(&hadc1); //校准ADC
  34:MyApplication/MyAdc_Apply.c ****  HAL_ADC_Start_DMA(&hadc1,(uint32_t*)MyADC.ADC_ConverValue ,(uint32_t) 3);  //启动DAC，DMA模式
  35:MyApplication/MyAdc_Apply.c **** }
  36:MyApplication/MyAdc_Apply.c **** 
  37:MyApplication/MyAdc_Apply.c **** static void ADC_GetNewSample (void)
  38:MyApplication/MyAdc_Apply.c **** {
  34              		.loc 1 38 1 view -0
  35              		.cfi_startproc
  36              		@ args = 0, pretend = 0, frame = 16
  37              		@ frame_needed = 0, uses_anonymous_args = 0
  38 0000 F0B5     		push	{r4, r5, r6, r7, lr}
  39              	.LCFI0:
  40              		.cfi_def_cfa_offset 20
  41              		.cfi_offset 4, -20
  42              		.cfi_offset 5, -16
  43              		.cfi_offset 6, -12
  44              		.cfi_offset 7, -8
  45              		.cfi_offset 14, -4
  46 0002 85B0     		sub	sp, sp, #20
  47              	.LCFI1:
  48              		.cfi_def_cfa_offset 40
  39:MyApplication/MyAdc_Apply.c ****     uint16_t i,y=0;
  49              		.loc 1 39 5 view .LVU1
  50              	.LVL0:
  40:MyApplication/MyAdc_Apply.c ****     float SUM[3]={0.0f,0.0f,0.0f};
  51              		.loc 1 40 5 view .LVU2
  52              		.loc 1 40 11 is_stmt 0 view .LVU3
  53 0004 0023     		movs	r3, #0
  54 0006 0193     		str	r3, [sp, #4]	@ float
  55 0008 0293     		str	r3, [sp, #8]	@ float
  56 000a 0393     		str	r3, [sp, #12]	@ float
  41:MyApplication/MyAdc_Apply.c **** 
  42:MyApplication/MyAdc_Apply.c ****     for(i=PW_ADC_SAMPLE_LEN-1; i>0; i--)//滑动（递推）平均滤波 
  57              		.loc 1 42 5 is_stmt 1 view .LVU4
  58              	.LVL1:
  59              		.loc 1 42 10 is_stmt 0 view .LVU5
  60 000c 0723     		movs	r3, #7
  61              		.loc 1 42 5 view .LVU6
  62 000e 31E0     		b	.L2
  63              	.LVL2:
  64              	.L3:
  43:MyApplication/MyAdc_Apply.c **** 	{
  44:MyApplication/MyAdc_Apply.c **** 		MyADC.Vout[i] = MyADC.Vout[i-1];
  65              		.loc 1 44 3 is_stmt 1 discriminator 3 view .LVU7
  66              		.loc 1 44 31 is_stmt 0 discriminator 3 view .LVU8
  67 0010 5D1E     		subs	r5, r3, #1
  68              		.loc 1 44 29 discriminator 3 view .LVU9
  69 0012 574A     		ldr	r2, .L9+32
  70 0014 02EB4501 		add	r1, r2, r5, lsl #1
  71 0018 C888     		ldrh	r0, [r1, #6]
ARM GAS  C:\Users\LIGUOH~1\AppData\Local\Temp\cckenSFF.s 			page 3


  72              		.loc 1 44 17 discriminator 3 view .LVU10
  73 001a 02EB4301 		add	r1, r2, r3, lsl #1
  74 001e C880     		strh	r0, [r1, #6]	@ movhi
  45:MyApplication/MyAdc_Apply.c **** 		MyADC.Iout[i] = MyADC.Iout[i-1];
  75              		.loc 1 45 3 is_stmt 1 discriminator 3 view .LVU11
  76              		.loc 1 45 29 is_stmt 0 discriminator 3 view .LVU12
  77 0020 D91D     		adds	r1, r3, #7
  78 0022 02EB4101 		add	r1, r2, r1, lsl #1
  79 0026 C988     		ldrh	r1, [r1, #6]
  80              		.loc 1 45 17 discriminator 3 view .LVU13
  81 0028 03F10804 		add	r4, r3, #8
  82 002c 02EB4404 		add	r4, r2, r4, lsl #1
  83 0030 E180     		strh	r1, [r4, #6]	@ movhi
  46:MyApplication/MyAdc_Apply.c **** 		MyADC.Vin[i]  = MyADC.Vin[i-1];
  84              		.loc 1 46 3 is_stmt 1 discriminator 3 view .LVU14
  85              		.loc 1 46 28 is_stmt 0 discriminator 3 view .LVU15
  86 0032 03F10F01 		add	r1, r3, #15
  87 0036 02EB4101 		add	r1, r2, r1, lsl #1
  88 003a CE88     		ldrh	r6, [r1, #6]
  89              		.loc 1 46 17 discriminator 3 view .LVU16
  90 003c 1033     		adds	r3, r3, #16
  91              	.LVL3:
  92              		.loc 1 46 17 discriminator 3 view .LVU17
  93 003e 02EB4303 		add	r3, r2, r3, lsl #1
  94 0042 DE80     		strh	r6, [r3, #6]	@ movhi
  47:MyApplication/MyAdc_Apply.c **** 		//printf(" V: %d \r\n\r\n",i);
  48:MyApplication/MyAdc_Apply.c **** 		SUM[0] += MyADC.Vout[i];
  95              		.loc 1 48 3 is_stmt 1 discriminator 3 view .LVU18
  96              		.loc 1 48 10 is_stmt 0 discriminator 3 view .LVU19
  97 0044 FFF7FEFF 		bl	__aeabi_i2f
  98              	.LVL4:
  99 0048 0146     		mov	r1, r0
 100 004a 0198     		ldr	r0, [sp, #4]	@ float
 101 004c FFF7FEFF 		bl	__aeabi_fadd
 102              	.LVL5:
 103 0050 0190     		str	r0, [sp, #4]	@ float
  49:MyApplication/MyAdc_Apply.c **** 		SUM[1] += MyADC.Vin[i];
 104              		.loc 1 49 3 is_stmt 1 discriminator 3 view .LVU20
 105              		.loc 1 49 10 is_stmt 0 discriminator 3 view .LVU21
 106 0052 3046     		mov	r0, r6
 107 0054 FFF7FEFF 		bl	__aeabi_i2f
 108              	.LVL6:
 109 0058 0146     		mov	r1, r0
 110 005a 0298     		ldr	r0, [sp, #8]	@ float
 111 005c FFF7FEFF 		bl	__aeabi_fadd
 112              	.LVL7:
 113 0060 0290     		str	r0, [sp, #8]	@ float
  50:MyApplication/MyAdc_Apply.c ****         SUM[2] += MyADC.Iout[i];
 114              		.loc 1 50 9 is_stmt 1 discriminator 3 view .LVU22
 115              		.loc 1 50 16 is_stmt 0 discriminator 3 view .LVU23
 116 0062 E088     		ldrh	r0, [r4, #6]
 117 0064 FFF7FEFF 		bl	__aeabi_i2f
 118              	.LVL8:
 119 0068 0146     		mov	r1, r0
 120 006a 0398     		ldr	r0, [sp, #12]	@ float
 121 006c FFF7FEFF 		bl	__aeabi_fadd
 122              	.LVL9:
ARM GAS  C:\Users\LIGUOH~1\AppData\Local\Temp\cckenSFF.s 			page 4


 123 0070 0390     		str	r0, [sp, #12]	@ float
  42:MyApplication/MyAdc_Apply.c **** 	{
 124              		.loc 1 42 37 is_stmt 1 discriminator 3 view .LVU24
  42:MyApplication/MyAdc_Apply.c **** 	{
 125              		.loc 1 42 38 is_stmt 0 discriminator 3 view .LVU25
 126 0072 ABB2     		uxth	r3, r5
 127              	.LVL10:
 128              	.L2:
  42:MyApplication/MyAdc_Apply.c **** 	{
 129              		.loc 1 42 32 is_stmt 1 discriminator 1 view .LVU26
  42:MyApplication/MyAdc_Apply.c **** 	{
 130              		.loc 1 42 5 is_stmt 0 discriminator 1 view .LVU27
 131 0074 002B     		cmp	r3, #0
 132 0076 CBD1     		bne	.L3
  51:MyApplication/MyAdc_Apply.c **** 	}
  52:MyApplication/MyAdc_Apply.c **** 	
  53:MyApplication/MyAdc_Apply.c **** 		MyADC.Vout[0]  = MyADC.ADC_ConverValue[0]; //PA0->输入电压
 133              		.loc 1 53 3 is_stmt 1 view .LVU28
 134              		.loc 1 53 41 is_stmt 0 view .LVU29
 135 0078 3D4C     		ldr	r4, .L9+32
 136 007a 2088     		ldrh	r0, [r4]
 137 007c 80B2     		uxth	r0, r0
 138              		.loc 1 53 18 view .LVU30
 139 007e E080     		strh	r0, [r4, #6]	@ movhi
  54:MyApplication/MyAdc_Apply.c **** 		MyADC.Vin [0]  = MyADC.ADC_ConverValue[1]; //PA1->输出电流
 140              		.loc 1 54 3 is_stmt 1 view .LVU31
 141              		.loc 1 54 41 is_stmt 0 view .LVU32
 142 0080 6688     		ldrh	r6, [r4, #2]
 143 0082 B6B2     		uxth	r6, r6
 144              		.loc 1 54 18 view .LVU33
 145 0084 E684     		strh	r6, [r4, #38]	@ movhi
  55:MyApplication/MyAdc_Apply.c **** 		MyADC.Iout[0]  = MyADC.ADC_ConverValue[2]; //PA2->输出电压
 146              		.loc 1 55 3 is_stmt 1 view .LVU34
 147              		.loc 1 55 41 is_stmt 0 view .LVU35
 148 0086 A588     		ldrh	r5, [r4, #4]
 149 0088 ADB2     		uxth	r5, r5
 150              		.loc 1 55 18 view .LVU36
 151 008a E582     		strh	r5, [r4, #22]	@ movhi
  56:MyApplication/MyAdc_Apply.c **** 	   
  57:MyApplication/MyAdc_Apply.c **** 		SUM[0] += MyADC.Vout[0];
 152              		.loc 1 57 3 is_stmt 1 view .LVU37
 153              		.loc 1 57 10 is_stmt 0 view .LVU38
 154 008c FFF7FEFF 		bl	__aeabi_i2f
 155              	.LVL11:
 156              		.loc 1 57 10 view .LVU39
 157 0090 0199     		ldr	r1, [sp, #4]	@ float
 158 0092 FFF7FEFF 		bl	__aeabi_fadd
 159              	.LVL12:
 160 0096 0746     		mov	r7, r0
  58:MyApplication/MyAdc_Apply.c **** 		SUM[1] += MyADC.Vin[0];
 161              		.loc 1 58 3 is_stmt 1 view .LVU40
 162              		.loc 1 58 10 is_stmt 0 view .LVU41
 163 0098 3046     		mov	r0, r6
 164 009a FFF7FEFF 		bl	__aeabi_i2f
 165              	.LVL13:
 166 009e 0299     		ldr	r1, [sp, #8]	@ float
 167 00a0 FFF7FEFF 		bl	__aeabi_fadd
ARM GAS  C:\Users\LIGUOH~1\AppData\Local\Temp\cckenSFF.s 			page 5


 168              	.LVL14:
 169 00a4 0646     		mov	r6, r0
  59:MyApplication/MyAdc_Apply.c **** 		SUM[2] += MyADC.Iout[0];
 170              		.loc 1 59 3 is_stmt 1 view .LVU42
 171              		.loc 1 59 10 is_stmt 0 view .LVU43
 172 00a6 2846     		mov	r0, r5
 173 00a8 FFF7FEFF 		bl	__aeabi_i2f
 174              	.LVL15:
 175 00ac 0399     		ldr	r1, [sp, #12]	@ float
 176 00ae FFF7FEFF 		bl	__aeabi_fadd
 177              	.LVL16:
 178 00b2 0546     		mov	r5, r0
  60:MyApplication/MyAdc_Apply.c ****         MyADC.Vo = (SUM[0] / PW_ADC_SAMPLE_LEN) * (3.3/4096) *((91+5.1)/5.1);
 179              		.loc 1 60 9 is_stmt 1 view .LVU44
 180              		.loc 1 60 28 is_stmt 0 view .LVU45
 181 00b4 4FF07851 		mov	r1, #1040187392
 182 00b8 3846     		mov	r0, r7
 183 00ba FFF7FEFF 		bl	__aeabi_fmul
 184              	.LVL17:
 185 00be FFF7FEFF 		bl	__aeabi_f2d
 186              	.LVL18:
 187              		.loc 1 60 49 view .LVU46
 188 00c2 23A3     		adr	r3, .L9
 189 00c4 D3E90023 		ldrd	r2, [r3]
 190 00c8 FFF7FEFF 		bl	__aeabi_dmul
 191              	.LVL19:
 192              		.loc 1 60 62 view .LVU47
 193 00cc 22A3     		adr	r3, .L9+8
 194 00ce D3E90023 		ldrd	r2, [r3]
 195 00d2 FFF7FEFF 		bl	__aeabi_dmul
 196              	.LVL20:
 197 00d6 FFF7FEFF 		bl	__aeabi_d2f
 198              	.LVL21:
 199              		.loc 1 60 18 view .LVU48
 200 00da A063     		str	r0, [r4, #56]	@ float
  61:MyApplication/MyAdc_Apply.c ****         MyADC.Vi = (SUM[1] / PW_ADC_SAMPLE_LEN) * (3.3/4096) *((91+5.1)/5.1);
 201              		.loc 1 61 9 is_stmt 1 view .LVU49
 202              		.loc 1 61 28 is_stmt 0 view .LVU50
 203 00dc 4FF07851 		mov	r1, #1040187392
 204 00e0 3046     		mov	r0, r6
 205 00e2 FFF7FEFF 		bl	__aeabi_fmul
 206              	.LVL22:
 207 00e6 FFF7FEFF 		bl	__aeabi_f2d
 208              	.LVL23:
 209              		.loc 1 61 49 view .LVU51
 210 00ea 19A3     		adr	r3, .L9
 211 00ec D3E90023 		ldrd	r2, [r3]
 212 00f0 FFF7FEFF 		bl	__aeabi_dmul
 213              	.LVL24:
 214              		.loc 1 61 62 view .LVU52
 215 00f4 18A3     		adr	r3, .L9+8
 216 00f6 D3E90023 		ldrd	r2, [r3]
 217 00fa FFF7FEFF 		bl	__aeabi_dmul
 218              	.LVL25:
 219 00fe FFF7FEFF 		bl	__aeabi_d2f
 220              	.LVL26:
 221              		.loc 1 61 18 view .LVU53
ARM GAS  C:\Users\LIGUOH~1\AppData\Local\Temp\cckenSFF.s 			page 6


 222 0102 2064     		str	r0, [r4, #64]	@ float
  62:MyApplication/MyAdc_Apply.c **** 		MyADC.Io = (SUM[2] / PW_ADC_SAMPLE_LEN) * (3.3/4096) / 68.5 / 1.25 / 0.01 ;//理论37，第一版
 223              		.loc 1 62 3 is_stmt 1 view .LVU54
 224              		.loc 1 62 22 is_stmt 0 view .LVU55
 225 0104 4FF07851 		mov	r1, #1040187392
 226 0108 2846     		mov	r0, r5
 227 010a FFF7FEFF 		bl	__aeabi_fmul
 228              	.LVL27:
 229 010e FFF7FEFF 		bl	__aeabi_f2d
 230              	.LVL28:
 231              		.loc 1 62 43 view .LVU56
 232 0112 0FA3     		adr	r3, .L9
 233 0114 D3E90023 		ldrd	r2, [r3]
 234 0118 FFF7FEFF 		bl	__aeabi_dmul
 235              	.LVL29:
 236              		.loc 1 62 56 view .LVU57
 237 011c 10A3     		adr	r3, .L9+16
 238 011e D3E90023 		ldrd	r2, [r3]
 239 0122 FFF7FEFF 		bl	__aeabi_ddiv
 240              	.LVL30:
 241              		.loc 1 62 63 view .LVU58
 242 0126 0022     		movs	r2, #0
 243 0128 124B     		ldr	r3, .L9+36
 244 012a FFF7FEFF 		bl	__aeabi_ddiv
 245              	.LVL31:
 246              		.loc 1 62 70 view .LVU59
 247 012e 0EA3     		adr	r3, .L9+24
 248 0130 D3E90023 		ldrd	r2, [r3]
 249 0134 FFF7FEFF 		bl	__aeabi_ddiv
 250              	.LVL32:
 251 0138 FFF7FEFF 		bl	__aeabi_d2f
 252              	.LVL33:
 253              		.loc 1 62 12 view .LVU60
 254 013c E063     		str	r0, [r4, #60]	@ float
  63:MyApplication/MyAdc_Apply.c **** 		// printf("Software version is V %.2f %.2f %.2f\r\n\r\n",MyADC.Vo,MyADC.Vi,MyADC.Io);
  64:MyApplication/MyAdc_Apply.c **** 		//LED.LED_Filp(LED_TEST); //TEST灯翻转一次
  65:MyApplication/MyAdc_Apply.c **** 		if(MyADC.Io<0)
 255              		.loc 1 65 3 is_stmt 1 view .LVU61
 256              		.loc 1 65 5 is_stmt 0 view .LVU62
 257 013e 0021     		movs	r1, #0
 258 0140 FFF7FEFF 		bl	__aeabi_fcmplt
 259              	.LVL34:
 260 0144 08B9     		cbnz	r0, .L8
 261              	.L1:
  66:MyApplication/MyAdc_Apply.c **** 		{
  67:MyApplication/MyAdc_Apply.c **** 			MyADC.Io = 0;
  68:MyApplication/MyAdc_Apply.c **** 		}
  69:MyApplication/MyAdc_Apply.c **** 
  70:MyApplication/MyAdc_Apply.c **** }...
 262              		.loc 1 70 1 view .LVU63
 263 0146 05B0     		add	sp, sp, #20
 264              	.LCFI2:
 265              		.cfi_remember_state
 266              		.cfi_def_cfa_offset 20
 267              		@ sp needed
 268 0148 F0BD     		pop	{r4, r5, r6, r7, pc}
 269              	.L8:
ARM GAS  C:\Users\LIGUOH~1\AppData\Local\Temp\cckenSFF.s 			page 7


 270              	.LCFI3:
 271              		.cfi_restore_state
  67:MyApplication/MyAdc_Apply.c **** 			MyADC.Io = 0;
 272              		.loc 1 67 4 is_stmt 1 view .LVU64
  67:MyApplication/MyAdc_Apply.c **** 			MyADC.Io = 0;
 273              		.loc 1 67 13 is_stmt 0 view .LVU65
 274 014a 0022     		movs	r2, #0
 275 014c E263     		str	r2, [r4, #60]	@ float
 276              		.loc 1 70 1 view .LVU66
 277 014e FAE7     		b	.L1
 278              	.L10:
 279              		.align	3
 280              	.L9:
 281 0150 66666666 		.word	1717986918
 282 0154 66664A3F 		.word	1061840486
 283 0158 D8D7D7D7 		.word	-673720360
 284 015c D7D73240 		.word	1077073879
 285 0160 00000000 		.word	0
 286 0164 00205140 		.word	1079058432
 287 0168 7B14AE47 		.word	1202590843
 288 016c E17A843F 		.word	1065646817
 289 0170 00000000 		.word	.LANCHOR0
 290 0174 0000F43F 		.word	1072955392
 291              		.cfi_endproc
 292              	.LFE69:
 294              		.section	.text.Get_ADC_Value,"ax",%progbits
 295              		.align	1
 296              		.syntax unified
 297              		.thumb
 298              		.thumb_func
 299              		.fpu softvfp
 301              	Get_ADC_Value:
 302              	.LFB68:
  30:MyApplication/MyAdc_Apply.c **** {
 303              		.loc 1 30 1 is_stmt 1 view -0
 304              		.cfi_startproc
 305              		@ args = 0, pretend = 0, frame = 0
 306              		@ frame_needed = 0, uses_anonymous_args = 0
 307 0000 10B5     		push	{r4, lr}
 308              	.LCFI4:
 309              		.cfi_def_cfa_offset 8
 310              		.cfi_offset 4, -8
 311              		.cfi_offset 14, -4
  31:MyApplication/MyAdc_Apply.c ****  HAL_TIM_Base_Start(&htim3);    //启动定时器3
 312              		.loc 1 31 2 view .LVU68
 313 0002 0848     		ldr	r0, .L13
 314 0004 FFF7FEFF 		bl	HAL_TIM_Base_Start
 315              	.LVL35:
  32:MyApplication/MyAdc_Apply.c ****  HAL_Delay(1);    //等待初始化稳定
 316              		.loc 1 32 2 view .LVU69
 317 0008 0120     		movs	r0, #1
 318 000a FFF7FEFF 		bl	HAL_Delay
 319              	.LVL36:
  33:MyApplication/MyAdc_Apply.c ****  HAL_ADCEx_Calibration_Start(&hadc1); //校准ADC
 320              		.loc 1 33 2 view .LVU70
 321 000e 064C     		ldr	r4, .L13+4
 322 0010 2046     		mov	r0, r4
ARM GAS  C:\Users\LIGUOH~1\AppData\Local\Temp\cckenSFF.s 			page 8


 323 0012 FFF7FEFF 		bl	HAL_ADCEx_Calibration_Start
 324              	.LVL37:
  34:MyApplication/MyAdc_Apply.c ****  HAL_ADC_Start_DMA(&hadc1,(uint32_t*)MyADC.ADC_ConverValue ,(uint32_t) 3);  //启动DAC，DMA模式
 325              		.loc 1 34 2 view .LVU71
 326 0016 0322     		movs	r2, #3
 327 0018 0449     		ldr	r1, .L13+8
 328 001a 2046     		mov	r0, r4
 329 001c FFF7FEFF 		bl	HAL_ADC_Start_DMA
 330              	.LVL38:
  35:MyApplication/MyAdc_Apply.c **** }
 331              		.loc 1 35 1 is_stmt 0 view .LVU72
 332 0020 10BD     		pop	{r4, pc}
 333              	.L14:
 334 0022 00BF     		.align	2
 335              	.L13:
 336 0024 00000000 		.word	htim3
 337 0028 00000000 		.word	hadc1
 338 002c 00000000 		.word	.LANCHOR0
 339              		.cfi_endproc
 340              	.LFE68:
 342              		.global	MyADC
 343              		.section	.data.MyADC,"aw"
 344              		.align	2
 345              		.set	.LANCHOR0,. + 0
 348              	MyADC:
 349 0000 0000     		.short	0
 350 0002 00000000 		.space	4
 351 0006 0000     		.short	0
 352 0008 00000000 		.space	14
 352      00000000 
 352      00000000 
 352      0000
 353 0016 0000     		.short	0
 354 0018 00000000 		.space	14
 354      00000000 
 354      00000000 
 354      0000
 355 0026 0000     		.short	0
 356 0028 00000000 		.space	14
 356      00000000 
 356      00000000 
 356      0000
 357 0036 0000     		.space	2
 358 0038 00000000 		.word	0
 359 003c 00000000 		.word	0
 360 0040 00000000 		.word	0
 361 0044 00000000 		.word	Get_ADC_Value
 362 0048 00000000 		.word	ADC_GetNewSample
 363              		.text
 364              	.Letext0:
 365              		.file 2 "c:\\gnu_tool_arm_embedded\\arm-none-eabi\\include\\machine\\_default_types.h"
 366              		.file 3 "c:\\gnu_tool_arm_embedded\\arm-none-eabi\\include\\sys\\_stdint.h"
 367              		.file 4 "Drivers/CMSIS/Include/core_cm3.h"
 368              		.file 5 "Drivers/CMSIS/Device/ST/STM32F1xx/Include/system_stm32f1xx.h"
 369              		.file 6 "Drivers/CMSIS/Device/ST/STM32F1xx/Include/stm32f103xb.h"
 370              		.file 7 "Drivers/CMSIS/Device/ST/STM32F1xx/Include/stm32f1xx.h"
 371              		.file 8 "Drivers/STM32F1xx_HAL_Driver/Inc/stm32f1xx_hal_def.h"
ARM GAS  C:\Users\LIGUOH~1\AppData\Local\Temp\cckenSFF.s 			page 9


 372              		.file 9 "Drivers/STM32F1xx_HAL_Driver/Inc/stm32f1xx_hal_dma.h"
 373              		.file 10 "Drivers/STM32F1xx_HAL_Driver/Inc/stm32f1xx_hal_adc.h"
 374              		.file 11 "Drivers/STM32F1xx_HAL_Driver/Inc/stm32f1xx_hal_spi.h"
 375              		.file 12 "Drivers/STM32F1xx_HAL_Driver/Inc/stm32f1xx_hal_tim.h"
 376              		.file 13 "Drivers/STM32F1xx_HAL_Driver/Inc/stm32f1xx_hal_uart.h"
 377              		.file 14 "Drivers/STM32F1xx_HAL_Driver/Inc/stm32f1xx_hal.h"
 378              		.file 15 "Core/Inc/usart.h"
 379              		.file 16 "Core/Inc/adc.h"
 380              		.file 17 "Core/Inc/spi.h"
 381              		.file 18 "Core/Inc/tim.h"
 382              		.file 19 "c:\\gnu_tool_arm_embedded\\arm-none-eabi\\include\\sys\\lock.h"
 383              		.file 20 "c:\\gnu_tool_arm_embedded\\arm-none-eabi\\include\\sys\\_types.h"
 384              		.file 21 "c:\\gnu_tool_arm_embedded\\lib\\gcc\\arm-none-eabi\\9.2.1\\include\\stddef.h"
 385              		.file 22 "c:\\gnu_tool_arm_embedded\\arm-none-eabi\\include\\sys\\reent.h"
 386              		.file 23 "c:\\gnu_tool_arm_embedded\\arm-none-eabi\\include\\stdlib.h"
 387              		.file 24 "MyApplication/System.h"
 388              		.file 25 "MyApplication/MyInit.h"
 389              		.file 26 "MyApplication/LED.h"
 390              		.file 27 "MyApplication/BELL.h"
 391              		.file 28 "MyApplication/KEY.h"
 392              		.file 29 "MyApplication/IPS114_LCD.h"
 393              		.file 30 "MyApplication/Vi_control.h"
 394              		.file 31 "MyApplication/MyAdc_Apply.h"
 395              		.file 32 "Drivers/STM32F1xx_HAL_Driver/Inc/stm32f1xx_hal_adc_ex.h"
ARM GAS  C:\Users\LIGUOH~1\AppData\Local\Temp\cckenSFF.s 			page 10


DEFINED SYMBOLS
                            *ABS*:00000000 MyAdc_Apply.c
C:\Users\LIGUOH~1\AppData\Local\Temp\cckenSFF.s:24     .text.ADC_GetNewSample:00000000 $t
C:\Users\LIGUOH~1\AppData\Local\Temp\cckenSFF.s:31     .text.ADC_GetNewSample:00000000 ADC_GetNewSample
C:\Users\LIGUOH~1\AppData\Local\Temp\cckenSFF.s:281    .text.ADC_GetNewSample:00000150 $d
C:\Users\LIGUOH~1\AppData\Local\Temp\cckenSFF.s:295    .text.Get_ADC_Value:00000000 $t
C:\Users\LIGUOH~1\AppData\Local\Temp\cckenSFF.s:301    .text.Get_ADC_Value:00000000 Get_ADC_Value
C:\Users\LIGUOH~1\AppData\Local\Temp\cckenSFF.s:336    .text.Get_ADC_Value:00000024 $d
C:\Users\LIGUOH~1\AppData\Local\Temp\cckenSFF.s:348    .data.MyADC:00000000 MyADC
C:\Users\LIGUOH~1\AppData\Local\Temp\cckenSFF.s:344    .data.MyADC:00000000 $d

UNDEFINED SYMBOLS
__aeabi_i2f
__aeabi_fadd
__aeabi_fmul
__aeabi_f2d
__aeabi_dmul
__aeabi_d2f
__aeabi_ddiv
__aeabi_fcmplt
HAL_TIM_Base_Start
HAL_Delay
HAL_ADCEx_Calibration_Start
HAL_ADC_Start_DMA
htim3
hadc1
