ARM GAS  C:\Users\LIGUOH~1\AppData\Local\Temp\ccAOGALT.s 			page 1


   1              		.cpu cortex-m3
   2              		.eabi_attribute 20, 1
   3              		.eabi_attribute 21, 1
   4              		.eabi_attribute 23, 3
   5              		.eabi_attribute 24, 1
   6              		.eabi_attribute 25, 1
   7              		.eabi_attribute 26, 1
   8              		.eabi_attribute 30, 1
   9              		.eabi_attribute 34, 1
  10              		.eabi_attribute 18, 4
  11              		.file	"spi.c"
  12              		.text
  13              	.Ltext0:
  14              		.cfi_sections	.debug_frame
  15              		.section	.text.MX_SPI1_Init,"ax",%progbits
  16              		.align	1
  17              		.global	MX_SPI1_Init
  18              		.arch armv7-m
  19              		.syntax unified
  20              		.thumb
  21              		.thumb_func
  22              		.fpu softvfp
  24              	MX_SPI1_Init:
  25              	.LFB65:
  26              		.file 1 "Core/Src/spi.c"
   1:Core/Src/spi.c **** /**
   2:Core/Src/spi.c ****   ******************************************************************************
   3:Core/Src/spi.c ****   * @file    spi.c
   4:Core/Src/spi.c ****   * @brief   This file provides code for the configuration
   5:Core/Src/spi.c ****   *          of the SPI instances.
   6:Core/Src/spi.c ****   ******************************************************************************
   7:Core/Src/spi.c ****   * @attention
   8:Core/Src/spi.c ****   *
   9:Core/Src/spi.c ****   * <h2><center>&copy; Copyright (c) 2021 STMicroelectronics.
  10:Core/Src/spi.c ****   * All rights reserved.</center></h2>
  11:Core/Src/spi.c ****   *
  12:Core/Src/spi.c ****   * This software component is licensed by ST under BSD 3-Clause license,
  13:Core/Src/spi.c ****   * the "License"; You may not use this file except in compliance with the
  14:Core/Src/spi.c ****   * License. You may obtain a copy of the License at:
  15:Core/Src/spi.c ****   *                        opensource.org/licenses/BSD-3-Clause
  16:Core/Src/spi.c ****   *
  17:Core/Src/spi.c ****   ******************************************************************************
  18:Core/Src/spi.c ****   */
  19:Core/Src/spi.c **** 
  20:Core/Src/spi.c **** /* Includes ------------------------------------------------------------------*/
  21:Core/Src/spi.c **** #include "spi.h"
  22:Core/Src/spi.c **** 
  23:Core/Src/spi.c **** /* USER CODE BEGIN 0 */
  24:Core/Src/spi.c **** 
  25:Core/Src/spi.c **** /* USER CODE END 0 */
  26:Core/Src/spi.c **** 
  27:Core/Src/spi.c **** SPI_HandleTypeDef hspi1;
  28:Core/Src/spi.c **** 
  29:Core/Src/spi.c **** /* SPI1 init function */
  30:Core/Src/spi.c **** void MX_SPI1_Init(void)
  31:Core/Src/spi.c **** {
  27              		.loc 1 31 1 view -0
ARM GAS  C:\Users\LIGUOH~1\AppData\Local\Temp\ccAOGALT.s 			page 2


  28              		.cfi_startproc
  29              		@ args = 0, pretend = 0, frame = 0
  30              		@ frame_needed = 0, uses_anonymous_args = 0
  31 0000 08B5     		push	{r3, lr}
  32              	.LCFI0:
  33              		.cfi_def_cfa_offset 8
  34              		.cfi_offset 3, -8
  35              		.cfi_offset 14, -4
  32:Core/Src/spi.c **** 
  33:Core/Src/spi.c ****   /* USER CODE BEGIN SPI1_Init 0 */
  34:Core/Src/spi.c **** 
  35:Core/Src/spi.c ****   /* USER CODE END SPI1_Init 0 */
  36:Core/Src/spi.c **** 
  37:Core/Src/spi.c ****   /* USER CODE BEGIN SPI1_Init 1 */
  38:Core/Src/spi.c **** 
  39:Core/Src/spi.c ****   /* USER CODE END SPI1_Init 1 */
  40:Core/Src/spi.c ****   hspi1.Instance = SPI1;
  36              		.loc 1 40 3 view .LVU1
  37              		.loc 1 40 18 is_stmt 0 view .LVU2
  38 0002 0E48     		ldr	r0, .L5
  39 0004 0E4B     		ldr	r3, .L5+4
  40 0006 0360     		str	r3, [r0]
  41:Core/Src/spi.c ****   hspi1.Init.Mode = SPI_MODE_MASTER;
  41              		.loc 1 41 3 is_stmt 1 view .LVU3
  42              		.loc 1 41 19 is_stmt 0 view .LVU4
  43 0008 4FF48273 		mov	r3, #260
  44 000c 4360     		str	r3, [r0, #4]
  42:Core/Src/spi.c ****   hspi1.Init.Direction = SPI_DIRECTION_2LINES;
  45              		.loc 1 42 3 is_stmt 1 view .LVU5
  46              		.loc 1 42 24 is_stmt 0 view .LVU6
  47 000e 0023     		movs	r3, #0
  48 0010 8360     		str	r3, [r0, #8]
  43:Core/Src/spi.c ****   hspi1.Init.DataSize = SPI_DATASIZE_8BIT;
  49              		.loc 1 43 3 is_stmt 1 view .LVU7
  50              		.loc 1 43 23 is_stmt 0 view .LVU8
  51 0012 C360     		str	r3, [r0, #12]
  44:Core/Src/spi.c ****   hspi1.Init.CLKPolarity = SPI_POLARITY_LOW;
  52              		.loc 1 44 3 is_stmt 1 view .LVU9
  53              		.loc 1 44 26 is_stmt 0 view .LVU10
  54 0014 0361     		str	r3, [r0, #16]
  45:Core/Src/spi.c ****   hspi1.Init.CLKPhase = SPI_PHASE_1EDGE;
  55              		.loc 1 45 3 is_stmt 1 view .LVU11
  56              		.loc 1 45 23 is_stmt 0 view .LVU12
  57 0016 4361     		str	r3, [r0, #20]
  46:Core/Src/spi.c ****   hspi1.Init.NSS = SPI_NSS_SOFT;
  58              		.loc 1 46 3 is_stmt 1 view .LVU13
  59              		.loc 1 46 18 is_stmt 0 view .LVU14
  60 0018 4FF40072 		mov	r2, #512
  61 001c 8261     		str	r2, [r0, #24]
  47:Core/Src/spi.c ****   hspi1.Init.BaudRatePrescaler = SPI_BAUDRATEPRESCALER_4;
  62              		.loc 1 47 3 is_stmt 1 view .LVU15
  63              		.loc 1 47 32 is_stmt 0 view .LVU16
  64 001e 0822     		movs	r2, #8
  65 0020 C261     		str	r2, [r0, #28]
  48:Core/Src/spi.c ****   hspi1.Init.FirstBit = SPI_FIRSTBIT_MSB;
  66              		.loc 1 48 3 is_stmt 1 view .LVU17
  67              		.loc 1 48 23 is_stmt 0 view .LVU18
ARM GAS  C:\Users\LIGUOH~1\AppData\Local\Temp\ccAOGALT.s 			page 3


  68 0022 0362     		str	r3, [r0, #32]
  49:Core/Src/spi.c ****   hspi1.Init.TIMode = SPI_TIMODE_DISABLE;
  69              		.loc 1 49 3 is_stmt 1 view .LVU19
  70              		.loc 1 49 21 is_stmt 0 view .LVU20
  71 0024 4362     		str	r3, [r0, #36]
  50:Core/Src/spi.c ****   hspi1.Init.CRCCalculation = SPI_CRCCALCULATION_DISABLE;
  72              		.loc 1 50 3 is_stmt 1 view .LVU21
  73              		.loc 1 50 29 is_stmt 0 view .LVU22
  74 0026 8362     		str	r3, [r0, #40]
  51:Core/Src/spi.c ****   hspi1.Init.CRCPolynomial = 10;
  75              		.loc 1 51 3 is_stmt 1 view .LVU23
  76              		.loc 1 51 28 is_stmt 0 view .LVU24
  77 0028 0A23     		movs	r3, #10
  78 002a C362     		str	r3, [r0, #44]
  52:Core/Src/spi.c ****   if (HAL_SPI_Init(&hspi1) != HAL_OK)
  79              		.loc 1 52 3 is_stmt 1 view .LVU25
  80              		.loc 1 52 7 is_stmt 0 view .LVU26
  81 002c FFF7FEFF 		bl	HAL_SPI_Init
  82              	.LVL0:
  83              		.loc 1 52 6 view .LVU27
  84 0030 00B9     		cbnz	r0, .L4
  85              	.L1:
  53:Core/Src/spi.c ****   {
  54:Core/Src/spi.c ****     Error_Handler();
  55:Core/Src/spi.c ****   }
  56:Core/Src/spi.c ****   /* USER CODE BEGIN SPI1_Init 2 */
  57:Core/Src/spi.c **** 
  58:Core/Src/spi.c ****   /* USER CODE END SPI1_Init 2 */
  59:Core/Src/spi.c **** 
  60:Core/Src/spi.c **** }
  86              		.loc 1 60 1 view .LVU28
  87 0032 08BD     		pop	{r3, pc}
  88              	.L4:
  54:Core/Src/spi.c ****   }
  89              		.loc 1 54 5 is_stmt 1 view .LVU29
  90 0034 FFF7FEFF 		bl	Error_Handler
  91              	.LVL1:
  92              		.loc 1 60 1 is_stmt 0 view .LVU30
  93 0038 FBE7     		b	.L1
  94              	.L6:
  95 003a 00BF     		.align	2
  96              	.L5:
  97 003c 00000000 		.word	hspi1
  98 0040 00300140 		.word	1073819648
  99              		.cfi_endproc
 100              	.LFE65:
 102              		.section	.text.HAL_SPI_MspInit,"ax",%progbits
 103              		.align	1
 104              		.global	HAL_SPI_MspInit
 105              		.syntax unified
 106              		.thumb
 107              		.thumb_func
 108              		.fpu softvfp
 110              	HAL_SPI_MspInit:
 111              	.LVL2:
 112              	.LFB66:
  61:Core/Src/spi.c **** 
ARM GAS  C:\Users\LIGUOH~1\AppData\Local\Temp\ccAOGALT.s 			page 4


  62:Core/Src/spi.c **** void HAL_SPI_MspInit(SPI_HandleTypeDef* spiHandle)
  63:Core/Src/spi.c **** {
 113              		.loc 1 63 1 is_stmt 1 view -0
 114              		.cfi_startproc
 115              		@ args = 0, pretend = 0, frame = 24
 116              		@ frame_needed = 0, uses_anonymous_args = 0
 117              		.loc 1 63 1 is_stmt 0 view .LVU32
 118 0000 00B5     		push	{lr}
 119              	.LCFI1:
 120              		.cfi_def_cfa_offset 4
 121              		.cfi_offset 14, -4
 122 0002 87B0     		sub	sp, sp, #28
 123              	.LCFI2:
 124              		.cfi_def_cfa_offset 32
  64:Core/Src/spi.c **** 
  65:Core/Src/spi.c ****   GPIO_InitTypeDef GPIO_InitStruct = {0};
 125              		.loc 1 65 3 is_stmt 1 view .LVU33
 126              		.loc 1 65 20 is_stmt 0 view .LVU34
 127 0004 0023     		movs	r3, #0
 128 0006 0293     		str	r3, [sp, #8]
 129 0008 0393     		str	r3, [sp, #12]
 130 000a 0493     		str	r3, [sp, #16]
 131 000c 0593     		str	r3, [sp, #20]
  66:Core/Src/spi.c ****   if(spiHandle->Instance==SPI1)
 132              		.loc 1 66 3 is_stmt 1 view .LVU35
 133              		.loc 1 66 15 is_stmt 0 view .LVU36
 134 000e 0268     		ldr	r2, [r0]
 135              		.loc 1 66 5 view .LVU37
 136 0010 124B     		ldr	r3, .L11
 137 0012 9A42     		cmp	r2, r3
 138 0014 02D0     		beq	.L10
 139              	.LVL3:
 140              	.L7:
  67:Core/Src/spi.c ****   {
  68:Core/Src/spi.c ****   /* USER CODE BEGIN SPI1_MspInit 0 */
  69:Core/Src/spi.c **** 
  70:Core/Src/spi.c ****   /* USER CODE END SPI1_MspInit 0 */
  71:Core/Src/spi.c ****     /* SPI1 clock enable */
  72:Core/Src/spi.c ****     __HAL_RCC_SPI1_CLK_ENABLE();
  73:Core/Src/spi.c **** 
  74:Core/Src/spi.c ****     __HAL_RCC_GPIOA_CLK_ENABLE();
  75:Core/Src/spi.c ****     /**SPI1 GPIO Configuration
  76:Core/Src/spi.c ****     PA5     ------> SPI1_SCK
  77:Core/Src/spi.c ****     PA7     ------> SPI1_MOSI
  78:Core/Src/spi.c ****     */
  79:Core/Src/spi.c ****     GPIO_InitStruct.Pin = LCD_SCK_Pin|LCD_SDA_Pin;
  80:Core/Src/spi.c ****     GPIO_InitStruct.Mode = GPIO_MODE_AF_PP;
  81:Core/Src/spi.c ****     GPIO_InitStruct.Speed = GPIO_SPEED_FREQ_HIGH;
  82:Core/Src/spi.c ****     HAL_GPIO_Init(GPIOA, &GPIO_InitStruct);
  83:Core/Src/spi.c **** 
  84:Core/Src/spi.c ****   /* USER CODE BEGIN SPI1_MspInit 1 */
  85:Core/Src/spi.c **** 
  86:Core/Src/spi.c ****   /* USER CODE END SPI1_MspInit 1 */
  87:Core/Src/spi.c ****   }
  88:Core/Src/spi.c **** }
 141              		.loc 1 88 1 view .LVU38
 142 0016 07B0     		add	sp, sp, #28
ARM GAS  C:\Users\LIGUOH~1\AppData\Local\Temp\ccAOGALT.s 			page 5


 143              	.LCFI3:
 144              		.cfi_remember_state
 145              		.cfi_def_cfa_offset 4
 146              		@ sp needed
 147 0018 5DF804FB 		ldr	pc, [sp], #4
 148              	.LVL4:
 149              	.L10:
 150              	.LCFI4:
 151              		.cfi_restore_state
  72:Core/Src/spi.c **** 
 152              		.loc 1 72 5 is_stmt 1 view .LVU39
 153              	.LBB2:
  72:Core/Src/spi.c **** 
 154              		.loc 1 72 5 view .LVU40
  72:Core/Src/spi.c **** 
 155              		.loc 1 72 5 view .LVU41
 156 001c 03F56043 		add	r3, r3, #57344
 157 0020 9A69     		ldr	r2, [r3, #24]
 158 0022 42F48052 		orr	r2, r2, #4096
 159 0026 9A61     		str	r2, [r3, #24]
  72:Core/Src/spi.c **** 
 160              		.loc 1 72 5 view .LVU42
 161 0028 9A69     		ldr	r2, [r3, #24]
 162 002a 02F48052 		and	r2, r2, #4096
 163 002e 0092     		str	r2, [sp]
  72:Core/Src/spi.c **** 
 164              		.loc 1 72 5 view .LVU43
 165 0030 009A     		ldr	r2, [sp]
 166              	.LBE2:
  72:Core/Src/spi.c **** 
 167              		.loc 1 72 5 view .LVU44
  74:Core/Src/spi.c ****     /**SPI1 GPIO Configuration
 168              		.loc 1 74 5 view .LVU45
 169              	.LBB3:
  74:Core/Src/spi.c ****     /**SPI1 GPIO Configuration
 170              		.loc 1 74 5 view .LVU46
  74:Core/Src/spi.c ****     /**SPI1 GPIO Configuration
 171              		.loc 1 74 5 view .LVU47
 172 0032 9A69     		ldr	r2, [r3, #24]
 173 0034 42F00402 		orr	r2, r2, #4
 174 0038 9A61     		str	r2, [r3, #24]
  74:Core/Src/spi.c ****     /**SPI1 GPIO Configuration
 175              		.loc 1 74 5 view .LVU48
 176 003a 9B69     		ldr	r3, [r3, #24]
 177 003c 03F00403 		and	r3, r3, #4
 178 0040 0193     		str	r3, [sp, #4]
  74:Core/Src/spi.c ****     /**SPI1 GPIO Configuration
 179              		.loc 1 74 5 view .LVU49
 180 0042 019B     		ldr	r3, [sp, #4]
 181              	.LBE3:
  74:Core/Src/spi.c ****     /**SPI1 GPIO Configuration
 182              		.loc 1 74 5 view .LVU50
  79:Core/Src/spi.c ****     GPIO_InitStruct.Mode = GPIO_MODE_AF_PP;
 183              		.loc 1 79 5 view .LVU51
  79:Core/Src/spi.c ****     GPIO_InitStruct.Mode = GPIO_MODE_AF_PP;
 184              		.loc 1 79 25 is_stmt 0 view .LVU52
 185 0044 A023     		movs	r3, #160
ARM GAS  C:\Users\LIGUOH~1\AppData\Local\Temp\ccAOGALT.s 			page 6


 186 0046 0293     		str	r3, [sp, #8]
  80:Core/Src/spi.c ****     GPIO_InitStruct.Speed = GPIO_SPEED_FREQ_HIGH;
 187              		.loc 1 80 5 is_stmt 1 view .LVU53
  80:Core/Src/spi.c ****     GPIO_InitStruct.Speed = GPIO_SPEED_FREQ_HIGH;
 188              		.loc 1 80 26 is_stmt 0 view .LVU54
 189 0048 0223     		movs	r3, #2
 190 004a 0393     		str	r3, [sp, #12]
  81:Core/Src/spi.c ****     HAL_GPIO_Init(GPIOA, &GPIO_InitStruct);
 191              		.loc 1 81 5 is_stmt 1 view .LVU55
  81:Core/Src/spi.c ****     HAL_GPIO_Init(GPIOA, &GPIO_InitStruct);
 192              		.loc 1 81 27 is_stmt 0 view .LVU56
 193 004c 0323     		movs	r3, #3
 194 004e 0593     		str	r3, [sp, #20]
  82:Core/Src/spi.c **** 
 195              		.loc 1 82 5 is_stmt 1 view .LVU57
 196 0050 02A9     		add	r1, sp, #8
 197 0052 0348     		ldr	r0, .L11+4
 198              	.LVL5:
  82:Core/Src/spi.c **** 
 199              		.loc 1 82 5 is_stmt 0 view .LVU58
 200 0054 FFF7FEFF 		bl	HAL_GPIO_Init
 201              	.LVL6:
 202              		.loc 1 88 1 view .LVU59
 203 0058 DDE7     		b	.L7
 204              	.L12:
 205 005a 00BF     		.align	2
 206              	.L11:
 207 005c 00300140 		.word	1073819648
 208 0060 00080140 		.word	1073809408
 209              		.cfi_endproc
 210              	.LFE66:
 212              		.section	.text.HAL_SPI_MspDeInit,"ax",%progbits
 213              		.align	1
 214              		.global	HAL_SPI_MspDeInit
 215              		.syntax unified
 216              		.thumb
 217              		.thumb_func
 218              		.fpu softvfp
 220              	HAL_SPI_MspDeInit:
 221              	.LVL7:
 222              	.LFB67:
  89:Core/Src/spi.c **** 
  90:Core/Src/spi.c **** void HAL_SPI_MspDeInit(SPI_HandleTypeDef* spiHandle)
  91:Core/Src/spi.c **** {
 223              		.loc 1 91 1 is_stmt 1 view -0
 224              		.cfi_startproc
 225              		@ args = 0, pretend = 0, frame = 0
 226              		@ frame_needed = 0, uses_anonymous_args = 0
 227              		.loc 1 91 1 is_stmt 0 view .LVU61
 228 0000 08B5     		push	{r3, lr}
 229              	.LCFI5:
 230              		.cfi_def_cfa_offset 8
 231              		.cfi_offset 3, -8
 232              		.cfi_offset 14, -4
  92:Core/Src/spi.c **** 
  93:Core/Src/spi.c ****   if(spiHandle->Instance==SPI1)
 233              		.loc 1 93 3 is_stmt 1 view .LVU62
ARM GAS  C:\Users\LIGUOH~1\AppData\Local\Temp\ccAOGALT.s 			page 7


 234              		.loc 1 93 15 is_stmt 0 view .LVU63
 235 0002 0268     		ldr	r2, [r0]
 236              		.loc 1 93 5 view .LVU64
 237 0004 064B     		ldr	r3, .L17
 238 0006 9A42     		cmp	r2, r3
 239 0008 00D0     		beq	.L16
 240              	.LVL8:
 241              	.L13:
  94:Core/Src/spi.c ****   {
  95:Core/Src/spi.c ****   /* USER CODE BEGIN SPI1_MspDeInit 0 */
  96:Core/Src/spi.c **** 
  97:Core/Src/spi.c ****   /* USER CODE END SPI1_MspDeInit 0 */
  98:Core/Src/spi.c ****     /* Peripheral clock disable */
  99:Core/Src/spi.c ****     __HAL_RCC_SPI1_CLK_DISABLE();
 100:Core/Src/spi.c **** 
 101:Core/Src/spi.c ****     /**SPI1 GPIO Configuration
 102:Core/Src/spi.c ****     PA5     ------> SPI1_SCK
 103:Core/Src/spi.c ****     PA7     ------> SPI1_MOSI
 104:Core/Src/spi.c ****     */
 105:Core/Src/spi.c ****     HAL_GPIO_DeInit(GPIOA, LCD_SCK_Pin|LCD_SDA_Pin);
 106:Core/Src/spi.c **** 
 107:Core/Src/spi.c ****   /* USER CODE BEGIN SPI1_MspDeInit 1 */
 108:Core/Src/spi.c **** 
 109:Core/Src/spi.c ****   /* USER CODE END SPI1_MspDeInit 1 */
 110:Core/Src/spi.c ****   }
 111:Core/Src/spi.c **** }
 242              		.loc 1 111 1 view .LVU65
 243 000a 08BD     		pop	{r3, pc}
 244              	.LVL9:
 245              	.L16:
  99:Core/Src/spi.c **** 
 246              		.loc 1 99 5 is_stmt 1 view .LVU66
 247 000c 054A     		ldr	r2, .L17+4
 248 000e 9369     		ldr	r3, [r2, #24]
 249 0010 23F48053 		bic	r3, r3, #4096
 250 0014 9361     		str	r3, [r2, #24]
 105:Core/Src/spi.c **** 
 251              		.loc 1 105 5 view .LVU67
 252 0016 A021     		movs	r1, #160
 253 0018 0348     		ldr	r0, .L17+8
 254              	.LVL10:
 105:Core/Src/spi.c **** 
 255              		.loc 1 105 5 is_stmt 0 view .LVU68
 256 001a FFF7FEFF 		bl	HAL_GPIO_DeInit
 257              	.LVL11:
 258              		.loc 1 111 1 view .LVU69
 259 001e F4E7     		b	.L13
 260              	.L18:
 261              		.align	2
 262              	.L17:
 263 0020 00300140 		.word	1073819648
 264 0024 00100240 		.word	1073876992
 265 0028 00080140 		.word	1073809408
 266              		.cfi_endproc
 267              	.LFE67:
 269              		.comm	hspi1,88,4
 270              		.text
ARM GAS  C:\Users\LIGUOH~1\AppData\Local\Temp\ccAOGALT.s 			page 8


 271              	.Letext0:
 272              		.file 2 "c:\\gnu_tool_arm_embedded\\arm-none-eabi\\include\\machine\\_default_types.h"
 273              		.file 3 "c:\\gnu_tool_arm_embedded\\arm-none-eabi\\include\\sys\\_stdint.h"
 274              		.file 4 "Drivers/CMSIS/Include/core_cm3.h"
 275              		.file 5 "Drivers/CMSIS/Device/ST/STM32F1xx/Include/system_stm32f1xx.h"
 276              		.file 6 "Drivers/CMSIS/Device/ST/STM32F1xx/Include/stm32f103xb.h"
 277              		.file 7 "Drivers/STM32F1xx_HAL_Driver/Inc/stm32f1xx_hal_def.h"
 278              		.file 8 "Drivers/STM32F1xx_HAL_Driver/Inc/stm32f1xx_hal_gpio.h"
 279              		.file 9 "Drivers/STM32F1xx_HAL_Driver/Inc/stm32f1xx_hal_dma.h"
 280              		.file 10 "Drivers/STM32F1xx_HAL_Driver/Inc/stm32f1xx_hal_spi.h"
 281              		.file 11 "Drivers/STM32F1xx_HAL_Driver/Inc/stm32f1xx_hal.h"
 282              		.file 12 "Core/Inc/spi.h"
 283              		.file 13 "Core/Inc/main.h"
ARM GAS  C:\Users\LIGUOH~1\AppData\Local\Temp\ccAOGALT.s 			page 9


DEFINED SYMBOLS
                            *ABS*:00000000 spi.c
C:\Users\LIGUOH~1\AppData\Local\Temp\ccAOGALT.s:16     .text.MX_SPI1_Init:00000000 $t
C:\Users\LIGUOH~1\AppData\Local\Temp\ccAOGALT.s:24     .text.MX_SPI1_Init:00000000 MX_SPI1_Init
C:\Users\LIGUOH~1\AppData\Local\Temp\ccAOGALT.s:97     .text.MX_SPI1_Init:0000003c $d
                            *COM*:00000058 hspi1
C:\Users\LIGUOH~1\AppData\Local\Temp\ccAOGALT.s:103    .text.HAL_SPI_MspInit:00000000 $t
C:\Users\LIGUOH~1\AppData\Local\Temp\ccAOGALT.s:110    .text.HAL_SPI_MspInit:00000000 HAL_SPI_MspInit
C:\Users\LIGUOH~1\AppData\Local\Temp\ccAOGALT.s:207    .text.HAL_SPI_MspInit:0000005c $d
C:\Users\LIGUOH~1\AppData\Local\Temp\ccAOGALT.s:213    .text.HAL_SPI_MspDeInit:00000000 $t
C:\Users\LIGUOH~1\AppData\Local\Temp\ccAOGALT.s:220    .text.HAL_SPI_MspDeInit:00000000 HAL_SPI_MspDeInit
C:\Users\LIGUOH~1\AppData\Local\Temp\ccAOGALT.s:263    .text.HAL_SPI_MspDeInit:00000020 $d

UNDEFINED SYMBOLS
HAL_SPI_Init
Error_Handler
HAL_GPIO_Init
HAL_GPIO_DeInit
