Archive member included to satisfy reference by file (symbol)

c:/gnu_tool_arm_embedded/bin/../lib/gcc/arm-none-eabi/9.2.1/../../../../arm-none-eabi/lib/thumb/v7-m/nofp\libc_nano.a(lib_a-exit.o)
                              c:/gnu_tool_arm_embedded/bin/../lib/gcc/arm-none-eabi/9.2.1/../../../../arm-none-eabi/lib/thumb/v7-m/nofp/crt0.o (exit)
c:/gnu_tool_arm_embedded/bin/../lib/gcc/arm-none-eabi/9.2.1/../../../../arm-none-eabi/lib/thumb/v7-m/nofp\libc_nano.a(lib_a-impure.o)
                              c:/gnu_tool_arm_embedded/bin/../lib/gcc/arm-none-eabi/9.2.1/../../../../arm-none-eabi/lib/thumb/v7-m/nofp\libc_nano.a(lib_a-exit.o) (_global_impure_ptr)
c:/gnu_tool_arm_embedded/bin/../lib/gcc/arm-none-eabi/9.2.1/../../../../arm-none-eabi/lib/thumb/v7-m/nofp\libc_nano.a(lib_a-init.o)
                              c:/gnu_tool_arm_embedded/bin/../lib/gcc/arm-none-eabi/9.2.1/../../../../arm-none-eabi/lib/thumb/v7-m/nofp/crt0.o (__libc_init_array)
c:/gnu_tool_arm_embedded/bin/../lib/gcc/arm-none-eabi/9.2.1/../../../../arm-none-eabi/lib/thumb/v7-m/nofp\libc_nano.a(lib_a-memset.o)
                              c:/gnu_tool_arm_embedded/bin/../lib/gcc/arm-none-eabi/9.2.1/../../../../arm-none-eabi/lib/thumb/v7-m/nofp/crt0.o (memset)
c:/gnu_tool_arm_embedded/bin/../lib/gcc/arm-none-eabi/9.2.1/../../../../arm-none-eabi/lib/thumb/v7-m/nofp\libc_nano.a(lib_a-nano-vfprintf_float.o)
                              (_printf_float)
c:/gnu_tool_arm_embedded/bin/../lib/gcc/arm-none-eabi/9.2.1/../../../../arm-none-eabi/lib/thumb/v7-m/nofp\libc_nano.a(lib_a-nano-vfprintf_i.o)
                              c:/gnu_tool_arm_embedded/bin/../lib/gcc/arm-none-eabi/9.2.1/../../../../arm-none-eabi/lib/thumb/v7-m/nofp\libc_nano.a(lib_a-nano-vfprintf_float.o) (_printf_common)
c:/gnu_tool_arm_embedded/bin/../lib/gcc/arm-none-eabi/9.2.1/../../../../arm-none-eabi/lib/thumb/v7-m/nofp\libc_nano.a(lib_a-printf.o)
                              build/MyInit.o (printf)
c:/gnu_tool_arm_embedded/bin/../lib/gcc/arm-none-eabi/9.2.1/../../../../arm-none-eabi/lib/thumb/v7-m/nofp\libc_nano.a(lib_a-puts.o)
                              build/MyInit.o (puts)
c:/gnu_tool_arm_embedded/bin/../lib/gcc/arm-none-eabi/9.2.1/../../../../arm-none-eabi/lib/thumb/v7-m/nofp\libc_nano.a(lib_a-strlen.o)
                              build/IPS114_LCD.o (strlen)
c:/gnu_tool_arm_embedded/bin/../lib/gcc/arm-none-eabi/9.2.1/../../../../arm-none-eabi/lib/thumb/v7-m/nofp\libc_nano.a(lib_a-wbuf.o)
                              c:/gnu_tool_arm_embedded/bin/../lib/gcc/arm-none-eabi/9.2.1/../../../../arm-none-eabi/lib/thumb/v7-m/nofp\libc_nano.a(lib_a-puts.o) (__swbuf_r)
c:/gnu_tool_arm_embedded/bin/../lib/gcc/arm-none-eabi/9.2.1/../../../../arm-none-eabi/lib/thumb/v7-m/nofp\libc_nano.a(lib_a-wsetup.o)
                              c:/gnu_tool_arm_embedded/bin/../lib/gcc/arm-none-eabi/9.2.1/../../../../arm-none-eabi/lib/thumb/v7-m/nofp\libc_nano.a(lib_a-puts.o) (__swsetup_r)
c:/gnu_tool_arm_embedded/bin/../lib/gcc/arm-none-eabi/9.2.1/../../../../arm-none-eabi/lib/thumb/v7-m/nofp\libc_nano.a(lib_a-dtoa.o)
                              c:/gnu_tool_arm_embedded/bin/../lib/gcc/arm-none-eabi/9.2.1/../../../../arm-none-eabi/lib/thumb/v7-m/nofp\libc_nano.a(lib_a-nano-vfprintf_float.o) (_dtoa_r)
c:/gnu_tool_arm_embedded/bin/../lib/gcc/arm-none-eabi/9.2.1/../../../../arm-none-eabi/lib/thumb/v7-m/nofp\libc_nano.a(lib_a-fflush.o)
                              c:/gnu_tool_arm_embedded/bin/../lib/gcc/arm-none-eabi/9.2.1/../../../../arm-none-eabi/lib/thumb/v7-m/nofp\libc_nano.a(lib_a-wbuf.o) (_fflush_r)
c:/gnu_tool_arm_embedded/bin/../lib/gcc/arm-none-eabi/9.2.1/../../../../arm-none-eabi/lib/thumb/v7-m/nofp\libc_nano.a(lib_a-findfp.o)
                              c:/gnu_tool_arm_embedded/bin/../lib/gcc/arm-none-eabi/9.2.1/../../../../arm-none-eabi/lib/thumb/v7-m/nofp\libc_nano.a(lib_a-printf.o) (__sinit)
c:/gnu_tool_arm_embedded/bin/../lib/gcc/arm-none-eabi/9.2.1/../../../../arm-none-eabi/lib/thumb/v7-m/nofp\libc_nano.a(lib_a-fwalk.o)
                              c:/gnu_tool_arm_embedded/bin/../lib/gcc/arm-none-eabi/9.2.1/../../../../arm-none-eabi/lib/thumb/v7-m/nofp\libc_nano.a(lib_a-findfp.o) (_fwalk)
c:/gnu_tool_arm_embedded/bin/../lib/gcc/arm-none-eabi/9.2.1/../../../../arm-none-eabi/lib/thumb/v7-m/nofp\libc_nano.a(lib_a-localeconv.o)
                              c:/gnu_tool_arm_embedded/bin/../lib/gcc/arm-none-eabi/9.2.1/../../../../arm-none-eabi/lib/thumb/v7-m/nofp\libc_nano.a(lib_a-nano-vfprintf_float.o) (_localeconv_r)
c:/gnu_tool_arm_embedded/bin/../lib/gcc/arm-none-eabi/9.2.1/../../../../arm-none-eabi/lib/thumb/v7-m/nofp\libc_nano.a(lib_a-lock.o)
                              c:/gnu_tool_arm_embedded/bin/../lib/gcc/arm-none-eabi/9.2.1/../../../../arm-none-eabi/lib/thumb/v7-m/nofp\libc_nano.a(lib_a-findfp.o) (__retarget_lock_init_recursive)
c:/gnu_tool_arm_embedded/bin/../lib/gcc/arm-none-eabi/9.2.1/../../../../arm-none-eabi/lib/thumb/v7-m/nofp\libc_nano.a(lib_a-makebuf.o)
                              c:/gnu_tool_arm_embedded/bin/../lib/gcc/arm-none-eabi/9.2.1/../../../../arm-none-eabi/lib/thumb/v7-m/nofp\libc_nano.a(lib_a-wsetup.o) (__smakebuf_r)
c:/gnu_tool_arm_embedded/bin/../lib/gcc/arm-none-eabi/9.2.1/../../../../arm-none-eabi/lib/thumb/v7-m/nofp\libc_nano.a(lib_a-malloc.o)
                              c:/gnu_tool_arm_embedded/bin/../lib/gcc/arm-none-eabi/9.2.1/../../../../arm-none-eabi/lib/thumb/v7-m/nofp\libc_nano.a(lib_a-dtoa.o) (malloc)
c:/gnu_tool_arm_embedded/bin/../lib/gcc/arm-none-eabi/9.2.1/../../../../arm-none-eabi/lib/thumb/v7-m/nofp\libc_nano.a(lib_a-memchr-stub.o)
                              c:/gnu_tool_arm_embedded/bin/../lib/gcc/arm-none-eabi/9.2.1/../../../../arm-none-eabi/lib/thumb/v7-m/nofp\libc_nano.a(lib_a-nano-vfprintf_i.o) (memchr)
c:/gnu_tool_arm_embedded/bin/../lib/gcc/arm-none-eabi/9.2.1/../../../../arm-none-eabi/lib/thumb/v7-m/nofp\libc_nano.a(lib_a-memcpy-stub.o)
                              c:/gnu_tool_arm_embedded/bin/../lib/gcc/arm-none-eabi/9.2.1/../../../../arm-none-eabi/lib/thumb/v7-m/nofp\libc_nano.a(lib_a-dtoa.o) (memcpy)
c:/gnu_tool_arm_embedded/bin/../lib/gcc/arm-none-eabi/9.2.1/../../../../arm-none-eabi/lib/thumb/v7-m/nofp\libc_nano.a(lib_a-mprec.o)
                              c:/gnu_tool_arm_embedded/bin/../lib/gcc/arm-none-eabi/9.2.1/../../../../arm-none-eabi/lib/thumb/v7-m/nofp\libc_nano.a(lib_a-dtoa.o) (_Balloc)
c:/gnu_tool_arm_embedded/bin/../lib/gcc/arm-none-eabi/9.2.1/../../../../arm-none-eabi/lib/thumb/v7-m/nofp\libc_nano.a(lib_a-nano-callocr.o)
                              c:/gnu_tool_arm_embedded/bin/../lib/gcc/arm-none-eabi/9.2.1/../../../../arm-none-eabi/lib/thumb/v7-m/nofp\libc_nano.a(lib_a-mprec.o) (_calloc_r)
c:/gnu_tool_arm_embedded/bin/../lib/gcc/arm-none-eabi/9.2.1/../../../../arm-none-eabi/lib/thumb/v7-m/nofp\libc_nano.a(lib_a-nano-freer.o)
                              c:/gnu_tool_arm_embedded/bin/../lib/gcc/arm-none-eabi/9.2.1/../../../../arm-none-eabi/lib/thumb/v7-m/nofp\libc_nano.a(lib_a-wsetup.o) (_free_r)
c:/gnu_tool_arm_embedded/bin/../lib/gcc/arm-none-eabi/9.2.1/../../../../arm-none-eabi/lib/thumb/v7-m/nofp\libc_nano.a(lib_a-nano-mallocr.o)
                              c:/gnu_tool_arm_embedded/bin/../lib/gcc/arm-none-eabi/9.2.1/../../../../arm-none-eabi/lib/thumb/v7-m/nofp\libc_nano.a(lib_a-findfp.o) (_malloc_r)
c:/gnu_tool_arm_embedded/bin/../lib/gcc/arm-none-eabi/9.2.1/../../../../arm-none-eabi/lib/thumb/v7-m/nofp\libc_nano.a(lib_a-nano-vfprintf.o)
                              c:/gnu_tool_arm_embedded/bin/../lib/gcc/arm-none-eabi/9.2.1/../../../../arm-none-eabi/lib/thumb/v7-m/nofp\libc_nano.a(lib_a-printf.o) (_vfprintf_r)
c:/gnu_tool_arm_embedded/bin/../lib/gcc/arm-none-eabi/9.2.1/../../../../arm-none-eabi/lib/thumb/v7-m/nofp\libc_nano.a(lib_a-sbrkr.o)
                              c:/gnu_tool_arm_embedded/bin/../lib/gcc/arm-none-eabi/9.2.1/../../../../arm-none-eabi/lib/thumb/v7-m/nofp\libc_nano.a(lib_a-nano-mallocr.o) (_sbrk_r)
c:/gnu_tool_arm_embedded/bin/../lib/gcc/arm-none-eabi/9.2.1/../../../../arm-none-eabi/lib/thumb/v7-m/nofp\libc_nano.a(lib_a-stdio.o)
                              c:/gnu_tool_arm_embedded/bin/../lib/gcc/arm-none-eabi/9.2.1/../../../../arm-none-eabi/lib/thumb/v7-m/nofp\libc_nano.a(lib_a-findfp.o) (__sread)
c:/gnu_tool_arm_embedded/bin/../lib/gcc/arm-none-eabi/9.2.1/../../../../arm-none-eabi/lib/thumb/v7-m/nofp\libc_nano.a(lib_a-writer.o)
                              c:/gnu_tool_arm_embedded/bin/../lib/gcc/arm-none-eabi/9.2.1/../../../../arm-none-eabi/lib/thumb/v7-m/nofp\libc_nano.a(lib_a-stdio.o) (_write_r)
c:/gnu_tool_arm_embedded/bin/../lib/gcc/arm-none-eabi/9.2.1/../../../../arm-none-eabi/lib/thumb/v7-m/nofp\libc_nano.a(lib_a-closer.o)
                              c:/gnu_tool_arm_embedded/bin/../lib/gcc/arm-none-eabi/9.2.1/../../../../arm-none-eabi/lib/thumb/v7-m/nofp\libc_nano.a(lib_a-stdio.o) (_close_r)
c:/gnu_tool_arm_embedded/bin/../lib/gcc/arm-none-eabi/9.2.1/../../../../arm-none-eabi/lib/thumb/v7-m/nofp\libc_nano.a(lib_a-fstatr.o)
                              c:/gnu_tool_arm_embedded/bin/../lib/gcc/arm-none-eabi/9.2.1/../../../../arm-none-eabi/lib/thumb/v7-m/nofp\libc_nano.a(lib_a-makebuf.o) (_fstat_r)
c:/gnu_tool_arm_embedded/bin/../lib/gcc/arm-none-eabi/9.2.1/../../../../arm-none-eabi/lib/thumb/v7-m/nofp\libc_nano.a(lib_a-fvwrite.o)
                              c:/gnu_tool_arm_embedded/bin/../lib/gcc/arm-none-eabi/9.2.1/../../../../arm-none-eabi/lib/thumb/v7-m/nofp\libc_nano.a(lib_a-nano-vfprintf.o) (__sfvwrite_r)
c:/gnu_tool_arm_embedded/bin/../lib/gcc/arm-none-eabi/9.2.1/../../../../arm-none-eabi/lib/thumb/v7-m/nofp\libc_nano.a(lib_a-isattyr.o)
                              c:/gnu_tool_arm_embedded/bin/../lib/gcc/arm-none-eabi/9.2.1/../../../../arm-none-eabi/lib/thumb/v7-m/nofp\libc_nano.a(lib_a-makebuf.o) (_isatty_r)
c:/gnu_tool_arm_embedded/bin/../lib/gcc/arm-none-eabi/9.2.1/../../../../arm-none-eabi/lib/thumb/v7-m/nofp\libc_nano.a(lib_a-locale.o)
                              c:/gnu_tool_arm_embedded/bin/../lib/gcc/arm-none-eabi/9.2.1/../../../../arm-none-eabi/lib/thumb/v7-m/nofp\libc_nano.a(lib_a-localeconv.o) (__global_locale)
c:/gnu_tool_arm_embedded/bin/../lib/gcc/arm-none-eabi/9.2.1/../../../../arm-none-eabi/lib/thumb/v7-m/nofp\libc_nano.a(lib_a-lseekr.o)
                              c:/gnu_tool_arm_embedded/bin/../lib/gcc/arm-none-eabi/9.2.1/../../../../arm-none-eabi/lib/thumb/v7-m/nofp\libc_nano.a(lib_a-stdio.o) (_lseek_r)
c:/gnu_tool_arm_embedded/bin/../lib/gcc/arm-none-eabi/9.2.1/../../../../arm-none-eabi/lib/thumb/v7-m/nofp\libc_nano.a(lib_a-mbtowc_r.o)
                              c:/gnu_tool_arm_embedded/bin/../lib/gcc/arm-none-eabi/9.2.1/../../../../arm-none-eabi/lib/thumb/v7-m/nofp\libc_nano.a(lib_a-locale.o) (__ascii_mbtowc)
c:/gnu_tool_arm_embedded/bin/../lib/gcc/arm-none-eabi/9.2.1/../../../../arm-none-eabi/lib/thumb/v7-m/nofp\libc_nano.a(lib_a-memmove.o)
                              c:/gnu_tool_arm_embedded/bin/../lib/gcc/arm-none-eabi/9.2.1/../../../../arm-none-eabi/lib/thumb/v7-m/nofp\libc_nano.a(lib_a-fvwrite.o) (memmove)
c:/gnu_tool_arm_embedded/bin/../lib/gcc/arm-none-eabi/9.2.1/../../../../arm-none-eabi/lib/thumb/v7-m/nofp\libc_nano.a(lib_a-mlock.o)
                              c:/gnu_tool_arm_embedded/bin/../lib/gcc/arm-none-eabi/9.2.1/../../../../arm-none-eabi/lib/thumb/v7-m/nofp\libc_nano.a(lib_a-nano-freer.o) (__malloc_lock)
c:/gnu_tool_arm_embedded/bin/../lib/gcc/arm-none-eabi/9.2.1/../../../../arm-none-eabi/lib/thumb/v7-m/nofp\libc_nano.a(lib_a-nano-reallocr.o)
                              c:/gnu_tool_arm_embedded/bin/../lib/gcc/arm-none-eabi/9.2.1/../../../../arm-none-eabi/lib/thumb/v7-m/nofp\libc_nano.a(lib_a-fvwrite.o) (_realloc_r)
c:/gnu_tool_arm_embedded/bin/../lib/gcc/arm-none-eabi/9.2.1/../../../../arm-none-eabi/lib/thumb/v7-m/nofp\libc_nano.a(lib_a-readr.o)
                              c:/gnu_tool_arm_embedded/bin/../lib/gcc/arm-none-eabi/9.2.1/../../../../arm-none-eabi/lib/thumb/v7-m/nofp\libc_nano.a(lib_a-stdio.o) (_read_r)
c:/gnu_tool_arm_embedded/bin/../lib/gcc/arm-none-eabi/9.2.1/../../../../arm-none-eabi/lib/thumb/v7-m/nofp\libc_nano.a(lib_a-reent.o)
                              c:/gnu_tool_arm_embedded/bin/../lib/gcc/arm-none-eabi/9.2.1/../../../../arm-none-eabi/lib/thumb/v7-m/nofp\libc_nano.a(lib_a-sbrkr.o) (errno)
c:/gnu_tool_arm_embedded/bin/../lib/gcc/arm-none-eabi/9.2.1/../../../../arm-none-eabi/lib/thumb/v7-m/nofp\libc_nano.a(lib_a-strcmp.o)
                              c:/gnu_tool_arm_embedded/bin/../lib/gcc/arm-none-eabi/9.2.1/../../../../arm-none-eabi/lib/thumb/v7-m/nofp\libc_nano.a(lib_a-locale.o) (strcmp)
c:/gnu_tool_arm_embedded/bin/../lib/gcc/arm-none-eabi/9.2.1/../../../../arm-none-eabi/lib/thumb/v7-m/nofp\libc_nano.a(lib_a-wctomb_r.o)
                              c:/gnu_tool_arm_embedded/bin/../lib/gcc/arm-none-eabi/9.2.1/../../../../arm-none-eabi/lib/thumb/v7-m/nofp\libc_nano.a(lib_a-locale.o) (__ascii_wctomb)
c:/gnu_tool_arm_embedded/bin/../lib/gcc/arm-none-eabi/9.2.1/../../../../arm-none-eabi/lib/thumb/v7-m/nofp\libc_nano.a(lib_a-ctype_.o)
                              c:/gnu_tool_arm_embedded/bin/../lib/gcc/arm-none-eabi/9.2.1/../../../../arm-none-eabi/lib/thumb/v7-m/nofp\libc_nano.a(lib_a-locale.o) (_ctype_)
c:/gnu_tool_arm_embedded/bin/../lib/gcc/arm-none-eabi/9.2.1/../../../../arm-none-eabi/lib/thumb/v7-m/nofp\libc_nano.a(lib_a-nano-msizer.o)
                              c:/gnu_tool_arm_embedded/bin/../lib/gcc/arm-none-eabi/9.2.1/../../../../arm-none-eabi/lib/thumb/v7-m/nofp\libc_nano.a(lib_a-nano-reallocr.o) (_malloc_usable_size_r)
c:/gnu_tool_arm_embedded/bin/../lib/gcc/arm-none-eabi/9.2.1/../../../../arm-none-eabi/lib/thumb/v7-m/nofp\libnosys.a(close.o)
                              c:/gnu_tool_arm_embedded/bin/../lib/gcc/arm-none-eabi/9.2.1/../../../../arm-none-eabi/lib/thumb/v7-m/nofp\libc_nano.a(lib_a-closer.o) (_close)
c:/gnu_tool_arm_embedded/bin/../lib/gcc/arm-none-eabi/9.2.1/../../../../arm-none-eabi/lib/thumb/v7-m/nofp\libnosys.a(fstat.o)
                              c:/gnu_tool_arm_embedded/bin/../lib/gcc/arm-none-eabi/9.2.1/../../../../arm-none-eabi/lib/thumb/v7-m/nofp\libc_nano.a(lib_a-fstatr.o) (_fstat)
c:/gnu_tool_arm_embedded/bin/../lib/gcc/arm-none-eabi/9.2.1/../../../../arm-none-eabi/lib/thumb/v7-m/nofp\libnosys.a(isatty.o)
                              c:/gnu_tool_arm_embedded/bin/../lib/gcc/arm-none-eabi/9.2.1/../../../../arm-none-eabi/lib/thumb/v7-m/nofp\libc_nano.a(lib_a-isattyr.o) (_isatty)
c:/gnu_tool_arm_embedded/bin/../lib/gcc/arm-none-eabi/9.2.1/../../../../arm-none-eabi/lib/thumb/v7-m/nofp\libnosys.a(lseek.o)
                              c:/gnu_tool_arm_embedded/bin/../lib/gcc/arm-none-eabi/9.2.1/../../../../arm-none-eabi/lib/thumb/v7-m/nofp\libc_nano.a(lib_a-lseekr.o) (_lseek)
c:/gnu_tool_arm_embedded/bin/../lib/gcc/arm-none-eabi/9.2.1/../../../../arm-none-eabi/lib/thumb/v7-m/nofp\libnosys.a(read.o)
                              c:/gnu_tool_arm_embedded/bin/../lib/gcc/arm-none-eabi/9.2.1/../../../../arm-none-eabi/lib/thumb/v7-m/nofp\libc_nano.a(lib_a-readr.o) (_read)
c:/gnu_tool_arm_embedded/bin/../lib/gcc/arm-none-eabi/9.2.1/../../../../arm-none-eabi/lib/thumb/v7-m/nofp\libnosys.a(sbrk.o)
                              c:/gnu_tool_arm_embedded/bin/../lib/gcc/arm-none-eabi/9.2.1/../../../../arm-none-eabi/lib/thumb/v7-m/nofp\libc_nano.a(lib_a-sbrkr.o) (_sbrk)
c:/gnu_tool_arm_embedded/bin/../lib/gcc/arm-none-eabi/9.2.1/../../../../arm-none-eabi/lib/thumb/v7-m/nofp\libnosys.a(_exit.o)
                              c:/gnu_tool_arm_embedded/bin/../lib/gcc/arm-none-eabi/9.2.1/../../../../arm-none-eabi/lib/thumb/v7-m/nofp\libc_nano.a(lib_a-exit.o) (_exit)
c:/gnu_tool_arm_embedded/bin/../lib/gcc/arm-none-eabi/9.2.1/thumb/v7-m/nofp\libgcc.a(_arm_muldf3.o)
                              build/MyAdc_Apply.o (__aeabi_dmul)
c:/gnu_tool_arm_embedded/bin/../lib/gcc/arm-none-eabi/9.2.1/thumb/v7-m/nofp\libgcc.a(_arm_mulsf3.o)
                              build/System.o (__aeabi_fmul)
c:/gnu_tool_arm_embedded/bin/../lib/gcc/arm-none-eabi/9.2.1/thumb/v7-m/nofp\libgcc.a(_arm_addsubdf3.o)
                              c:/gnu_tool_arm_embedded/bin/../lib/gcc/arm-none-eabi/9.2.1/../../../../arm-none-eabi/lib/thumb/v7-m/nofp\libc_nano.a(lib_a-dtoa.o) (__aeabi_dsub)
c:/gnu_tool_arm_embedded/bin/../lib/gcc/arm-none-eabi/9.2.1/thumb/v7-m/nofp\libgcc.a(_arm_muldivdf3.o)
                              build/MyAdc_Apply.o (__aeabi_ddiv)
c:/gnu_tool_arm_embedded/bin/../lib/gcc/arm-none-eabi/9.2.1/thumb/v7-m/nofp\libgcc.a(_arm_cmpdf2.o)
                              c:/gnu_tool_arm_embedded/bin/../lib/gcc/arm-none-eabi/9.2.1/../../../../arm-none-eabi/lib/thumb/v7-m/nofp\libc_nano.a(lib_a-nano-vfprintf_float.o) (__aeabi_dcmpeq)
c:/gnu_tool_arm_embedded/bin/../lib/gcc/arm-none-eabi/9.2.1/thumb/v7-m/nofp\libgcc.a(_arm_unorddf2.o)
                              c:/gnu_tool_arm_embedded/bin/../lib/gcc/arm-none-eabi/9.2.1/../../../../arm-none-eabi/lib/thumb/v7-m/nofp\libc_nano.a(lib_a-nano-vfprintf_float.o) (__aeabi_dcmpun)
c:/gnu_tool_arm_embedded/bin/../lib/gcc/arm-none-eabi/9.2.1/thumb/v7-m/nofp\libgcc.a(_arm_fixdfsi.o)
                              c:/gnu_tool_arm_embedded/bin/../lib/gcc/arm-none-eabi/9.2.1/../../../../arm-none-eabi/lib/thumb/v7-m/nofp\libc_nano.a(lib_a-dtoa.o) (__aeabi_d2iz)
c:/gnu_tool_arm_embedded/bin/../lib/gcc/arm-none-eabi/9.2.1/thumb/v7-m/nofp\libgcc.a(_arm_truncdfsf2.o)
                              build/MyAdc_Apply.o (__aeabi_d2f)
c:/gnu_tool_arm_embedded/bin/../lib/gcc/arm-none-eabi/9.2.1/thumb/v7-m/nofp\libgcc.a(_arm_addsubsf3.o)
                              build/MyAdc_Apply.o (__aeabi_fadd)
c:/gnu_tool_arm_embedded/bin/../lib/gcc/arm-none-eabi/9.2.1/thumb/v7-m/nofp\libgcc.a(_arm_cmpsf2.o)
                              build/MyAdc_Apply.o (__aeabi_fcmplt)
c:/gnu_tool_arm_embedded/bin/../lib/gcc/arm-none-eabi/9.2.1/thumb/v7-m/nofp\libgcc.a(_arm_fixunssfsi.o)
                              build/System.o (__aeabi_f2uiz)

Allocating common symbols
Common symbol       size              file

__lock___atexit_recursive_mutex
                    0x1               c:/gnu_tool_arm_embedded/bin/../lib/gcc/arm-none-eabi/9.2.1/../../../../arm-none-eabi/lib/thumb/v7-m/nofp\libc_nano.a(lib_a-lock.o)
__lock___arc4random_mutex
                    0x1               c:/gnu_tool_arm_embedded/bin/../lib/gcc/arm-none-eabi/9.2.1/../../../../arm-none-eabi/lib/thumb/v7-m/nofp\libc_nano.a(lib_a-lock.o)
errno               0x4               c:/gnu_tool_arm_embedded/bin/../lib/gcc/arm-none-eabi/9.2.1/../../../../arm-none-eabi/lib/thumb/v7-m/nofp\libc_nano.a(lib_a-reent.o)
uwTick              0x4               build/stm32f1xx_hal.o
pFlash              0x20              build/stm32f1xx_hal_flash.o
__lock___env_recursive_mutex
                    0x1               c:/gnu_tool_arm_embedded/bin/../lib/gcc/arm-none-eabi/9.2.1/../../../../arm-none-eabi/lib/thumb/v7-m/nofp\libc_nano.a(lib_a-lock.o)
__lock___sinit_recursive_mutex
                    0x1               c:/gnu_tool_arm_embedded/bin/../lib/gcc/arm-none-eabi/9.2.1/../../../../arm-none-eabi/lib/thumb/v7-m/nofp\libc_nano.a(lib_a-lock.o)
htim3               0x48              build/tim.o
__lock___malloc_recursive_mutex
                    0x1               c:/gnu_tool_arm_embedded/bin/../lib/gcc/arm-none-eabi/9.2.1/../../../../arm-none-eabi/lib/thumb/v7-m/nofp\libc_nano.a(lib_a-lock.o)
hadc1               0x30              build/adc.o
huart1              0x44              build/usart.o
hdma_adc1           0x44              build/adc.o
htim1               0x48              build/tim.o
ADC_ConvertedValue  0x6               build/main.o
hspi1               0x58              build/spi.o
htim2               0x48              build/tim.o
__lock___at_quick_exit_mutex
                    0x1               c:/gnu_tool_arm_embedded/bin/../lib/gcc/arm-none-eabi/9.2.1/../../../../arm-none-eabi/lib/thumb/v7-m/nofp\libc_nano.a(lib_a-lock.o)
__lock___dd_hash_mutex
                    0x1               c:/gnu_tool_arm_embedded/bin/../lib/gcc/arm-none-eabi/9.2.1/../../../../arm-none-eabi/lib/thumb/v7-m/nofp\libc_nano.a(lib_a-lock.o)
__lock___tz_mutex   0x1               c:/gnu_tool_arm_embedded/bin/../lib/gcc/arm-none-eabi/9.2.1/../../../../arm-none-eabi/lib/thumb/v7-m/nofp\libc_nano.a(lib_a-lock.o)
__lock___sfp_recursive_mutex
                    0x1               c:/gnu_tool_arm_embedded/bin/../lib/gcc/arm-none-eabi/9.2.1/../../../../arm-none-eabi/lib/thumb/v7-m/nofp\libc_nano.a(lib_a-lock.o)

Discarded input sections

 .text          0x00000000        0x0 c:/gnu_tool_arm_embedded/bin/../lib/gcc/arm-none-eabi/9.2.1/thumb/v7-m/nofp/crti.o
 .data          0x00000000        0x0 c:/gnu_tool_arm_embedded/bin/../lib/gcc/arm-none-eabi/9.2.1/thumb/v7-m/nofp/crti.o
 .bss           0x00000000        0x0 c:/gnu_tool_arm_embedded/bin/../lib/gcc/arm-none-eabi/9.2.1/thumb/v7-m/nofp/crti.o
 .data          0x00000000        0x4 c:/gnu_tool_arm_embedded/bin/../lib/gcc/arm-none-eabi/9.2.1/thumb/v7-m/nofp/crtbegin.o
 .text          0x00000000       0x74 c:/gnu_tool_arm_embedded/bin/../lib/gcc/arm-none-eabi/9.2.1/../../../../arm-none-eabi/lib/thumb/v7-m/nofp/crt0.o
 .data          0x00000000        0x0 c:/gnu_tool_arm_embedded/bin/../lib/gcc/arm-none-eabi/9.2.1/../../../../arm-none-eabi/lib/thumb/v7-m/nofp/crt0.o
 .bss           0x00000000        0x0 c:/gnu_tool_arm_embedded/bin/../lib/gcc/arm-none-eabi/9.2.1/../../../../arm-none-eabi/lib/thumb/v7-m/nofp/crt0.o
 .ARM.extab     0x00000000        0x0 c:/gnu_tool_arm_embedded/bin/../lib/gcc/arm-none-eabi/9.2.1/../../../../arm-none-eabi/lib/thumb/v7-m/nofp/crt0.o
 .ARM.exidx     0x00000000        0x8 c:/gnu_tool_arm_embedded/bin/../lib/gcc/arm-none-eabi/9.2.1/../../../../arm-none-eabi/lib/thumb/v7-m/nofp/crt0.o
 .ARM.attributes
                0x00000000       0x1b c:/gnu_tool_arm_embedded/bin/../lib/gcc/arm-none-eabi/9.2.1/../../../../arm-none-eabi/lib/thumb/v7-m/nofp/crt0.o
 .text          0x00000000        0x0 build/main.o
 .data          0x00000000        0x0 build/main.o
 .bss           0x00000000        0x0 build/main.o
 COMMON         0x00000000        0x6 build/main.o
 .text          0x00000000        0x0 build/gpio.o
 .data          0x00000000        0x0 build/gpio.o
 .bss           0x00000000        0x0 build/gpio.o
Memory Configuration

Name             Origin             Length             Attributes
RAM              0x20000000         0x00005000         xrw
FLASH            0x08000000         0x00010000         xr
*default*        0x00000000         0xffffffff

Linker script and memory map

LOAD c:/gnu_tool_arm_embedded/bin/../lib/gcc/arm-none-eabi/9.2.1/thumb/v7-m/nofp/crti.o
LOAD c:/gnu_tool_arm_embedded/bin/../lib/gcc/arm-none-eabi/9.2.1/thumb/v7-m/nofp/crtbegin.o
LOAD c:/gnu_tool_arm_embedded/bin/../lib/gcc/arm-none-eabi/9.2.1/../../../../arm-none-eabi/lib/thumb/v7-m/nofp/crt0.o
LOAD build/main.o
LOAD build/gpio.o
LOAD build/stm32f1xx_it.o
LOAD build/stm32f1xx_hal_msp.o
LOAD build/stm32f1xx_hal_gpio_ex.o
LOAD build/stm32f1xx_hal_tim.o
LOAD build/stm32f1xx_hal_tim_ex.o
LOAD build/stm32f1xx_hal.o
LOAD build/stm32f1xx_hal_rcc.o
LOAD build/stm32f1xx_hal_rcc_ex.o
LOAD build/stm32f1xx_hal_gpio.o
LOAD build/stm32f1xx_hal_dma.o
LOAD build/stm32f1xx_hal_cortex.o
LOAD build/stm32f1xx_hal_pwr.o
LOAD build/stm32f1xx_hal_flash.o
LOAD build/stm32f1xx_hal_flash_ex.o
LOAD build/stm32f1xx_hal_exti.o
LOAD build/system_stm32f1xx.o
LOAD build/usart.o
LOAD build/stm32f1xx_hal_uart.o
LOAD build/spi.o
LOAD build/stm32f1xx_hal_spi.o
LOAD build/dma.o
LOAD build/tim.o
LOAD build/adc.o
LOAD build/stm32f1xx_hal_adc.o
LOAD build/stm32f1xx_hal_adc_ex.o
LOAD build/System.o
LOAD build/MyInit.o
LOAD build/Public.o
LOAD build/CallBack.o
LOAD build/MyPrintf.o
LOAD build/LED.o
LOAD build/KEY.o
LOAD build/BELL.o
LOAD build/IPS114_LCD.o
LOAD build/MyAdc_Apply.o
LOAD build/Vi_control.o
LOAD build/startup_stm32f103xb.o
LOAD c:/gnu_tool_arm_embedded/bin/../lib/gcc/arm-none-eabi/9.2.1/../../../../arm-none-eabi/lib/thumb/v7-m/nofp\libc_nano.a
LOAD c:/gnu_tool_arm_embedded/bin/../lib/gcc/arm-none-eabi/9.2.1/../../../../arm-none-eabi/lib/thumb/v7-m/nofp\libm.a
LOAD c:/gnu_tool_arm_embedded/bin/../lib/gcc/arm-none-eabi/9.2.1/../../../../arm-none-eabi/lib/thumb/v7-m/nofp\libnosys.a
START GROUP
LOAD c:/gnu_tool_arm_embedded/bin/../lib/gcc/arm-none-eabi/9.2.1/thumb/v7-m/nofp\libgcc.a
LOAD c:/gnu_tool_arm_embedded/bin/../lib/gcc/arm-none-eabi/9.2.1/../../../../arm-none-eabi/lib/thumb/v7-m/nofp\libc_nano.a
END GROUP
START GROUP
LOAD c:/gnu_tool_arm_embedded/bin/../lib/gcc/arm-none-eabi/9.2.1/thumb/v7-m/nofp\libgcc.a
LOAD c:/gnu_tool_arm_embedded/bin/../lib/gcc/arm-none-eabi/9.2.1/../../../../arm-none-eabi/lib/thumb/v7-m/nofp\libc_nano.a
END GROUP
LOAD c:/gnu_tool_arm_embedded/bin/../lib/gcc/arm-none-eabi/9.2.1/thumb/v7-m/nofp/crtend.o
LOAD c:/gnu_tool_arm_embedded/bin/../lib/gcc/arm-none-eabi/9.2.1/thumb/v7-m/nofp/crtn.o
                0x20005000                _estack = 0x20005000
                0x00000200                _Min_Heap_Size = 0x200
                0x00000400                _Min_Stack_Size = 0x400

.isr_vector     0x08000000      0x10c
                0x08000000                . = ALIGN (0x4)
 *(.isr_vector)
 .isr_vector    0x08000000      0x10c build/startup_stm32f103xb.o
                0x08000000                g_pfnVectors
                0x0800010c                . = ALIGN (0x4)

.text           0x08000110     0x8a00
                0x08000110                . = ALIGN (0x4)
 *(.text)
 .text          0x08000110       0x40 c:/gnu_tool_arm_embedded/bin/../lib/gcc/arm-none-eabi/9.2.1/thumb/v7-m/nofp/crtbegin.o
 .text          0x08000150       0x10 c:/gnu_tool_arm_embedded/bin/../lib/gcc/arm-none-eabi/9.2.1/../../../../arm-none-eabi/lib/thumb/v7-m/nofp\libc_nano.a(lib_a-strlen.o)
                0x08000150                strlen
 .text          0x08000160      0x168 c:/gnu_tool_arm_embedded/bin/../lib/gcc/arm-none-eabi/9.2.1/thumb/v7-m/nofp\libgcc.a(_arm_mulsf3.o)
                0x08000160                __aeabi_fmul
                0x08000160                __mulsf3
 .text          0x080002c8      0x378 c:/gnu_tool_arm_embedded/bin/../lib/gcc/arm-none-eabi/9.2.1/thumb/v7-m/nofp\libgcc.a(_arm_addsubdf3.o)
                0x080002c8                __aeabi_drsub
                0x080002d0                __aeabi_dsub
                0x080002d0                __subdf3
                0x080002d4                __aeabi_dadd
                0x080002d4                __adddf3
                0x0800054c                __floatunsidf
                0x0800054c                __aeabi_ui2d
                0x0800056c                __floatsidf
                0x0800056c                __aeabi_i2d
                0x08000590                __aeabi_f2d
                0x08000590                __extendsfdf2
                0x080005d4                __floatundidf
                0x080005d4                __aeabi_ul2d
                0x080005e4                __floatdidf
                0x080005e4                __aeabi_l2d
 .text          0x08000640      0x424 c:/gnu_tool_arm_embedded/bin/../lib/gcc/arm-none-eabi/9.2.1/thumb/v7-m/nofp\libgcc.a(_arm_muldivdf3.o)
                0x08000640                __aeabi_dmul
                0x08000640                __muldf3
                0x08000894                __divdf3
                0x08000894                __aeabi_ddiv
 .text          0x08000a64      0x110 c:/gnu_tool_arm_embedded/bin/../lib/gcc/arm-none-eabi/9.2.1/thumb/v7-m/nofp\libgcc.a(_arm_cmpdf2.o)
                0x08000a64                __gtdf2
                0x08000a64                __gedf2
                0x08000a6c                __ltdf2
                0x08000a6c                __ledf2
                0x08000a74                __nedf2
                0x08000a74                __eqdf2
                0x08000a74                __cmpdf2
                0x08000af0                __aeabi_cdrcmple
                0x08000b00                __aeabi_cdcmpeq
                0x08000b00                __aeabi_cdcmple
                0x08000b10                __aeabi_dcmpeq
                0x08000b24                __aeabi_dcmplt
                0x08000b38                __aeabi_dcmple
                0x08000b4c                __aeabi_dcmpge
                0x08000b60                __aeabi_dcmpgt
 .text          0x08000b74       0x2c c:/gnu_tool_arm_embedded/bin/../lib/gcc/arm-none-eabi/9.2.1/thumb/v7-m/nofp\libgcc.a(_arm_unorddf2.o)
                0x08000b74                __unorddf2
                0x08000b74                __aeabi_dcmpun
 .text          0x08000ba0       0x50 c:/gnu_tool_arm_embedded/bin/../lib/gcc/arm-none-eabi/9.2.1/thumb/v7-m/nofp\libgcc.a(_arm_fixdfsi.o)
                0x08000ba0                __aeabi_d2iz
                0x08000ba0                __fixdfsi
 .text          0x08000bf0       0xa0 c:/gnu_tool_arm_embedded/bin/../lib/gcc/arm-none-eabi/9.2.1/thumb/v7-m/nofp\libgcc.a(_arm_truncdfsf2.o)
                0x08000bf0                __truncdfsf2
                0x08000bf0                __aeabi_d2f
 .text          0x08000c90      0x21c c:/gnu_tool_arm_embedded/bin/../lib/gcc/arm-none-eabi/9.2.1/thumb/v7-m/nofp\libgcc.a(_arm_addsubsf3.o)
                0x08000c90                __aeabi_frsub
                0x08000c98                __subsf3
                0x08000c98                __aeabi_fsub
                0x08000c9c                __aeabi_fadd
                0x08000c9c                __addsf3
                0x08000dfc                __aeabi_ui2f
                0x08000dfc                __floatunsisf
                0x08000e04                __aeabi_i2f
                0x08000e04                __floatsisf
                0x08000e20                __aeabi_ul2f
                0x08000e20                __floatundisf
                0x08000e30                __aeabi_l2f
                0x08000e30                __floatdisf
 .text          0x08000eac       0xec c:/gnu_tool_arm_embedded/bin/../lib/gcc/arm-none-eabi/9.2.1/thumb/v7-m/nofp\libgcc.a(_arm_cmpsf2.o)
                0x08000eac                __gesf2
                0x08000eac                __gtsf2
                0x08000eb4                __lesf2
                0x08000eb4                __ltsf2
                0x08000ebc                __nesf2
                0x08000ebc                __eqsf2
                0x08000ebc                __cmpsf2
                0x08000f1c                __aeabi_cfrcmple
                0x08000f24                __aeabi_cfcmpeq
                0x08000f24                __aeabi_cfcmple
                0x08000f34                __aeabi_fcmpeq
                0x08000f48                __aeabi_fcmplt
                0x08000f5c                __aeabi_fcmple
                0x08000f70                __aeabi_fcmpge
                0x08000f84                __aeabi_fcmpgt
 .text          0x08000f98       0x40 c:/gnu_tool_arm_embedded/bin/../lib/gcc/arm-none-eabi/9.2.1/thumb/v7-m/nofp\libgcc.a(_arm_fixunssfsi.o)
                0x08000f98                __fixunssfsi
                0x08000f98                __aeabi_f2uiz
 *(.text*)
 .text.Error_Handler
                0x08000fd8       0x10 build/main.o
                0x08000fd8                Error_Handler
 .text.SystemClock_Config
                0x08000fe8       0x86 build/main.o
                0x08000fe8                SystemClock_Config
 *fill*         0x0800106e        0x2 
 .text.main     0x08001070       0x40 build/main.o
                0x08001070                main
 .text.assert_failed
                0x080010b0       0x10 build/main.o
                0x080010b0                assert_failed
 .text.MX_GPIO_Init
                0x080010c0      0x140 build/gpio.o
                0x080010c0                MX_GPIO_Init
 .text.NMI_Handler
                0x08001200        0x2 build/stm32f1xx_it.o
                0x08001200                NMI_Handler
 .text.HardFault_Handler
                0x08001202        0x2 build/stm32f1xx_it.o
                0x08001202                HardFault_Handler
 .text.MemManage_Handler
                0x08001204        0x2 build/stm32f1xx_it.o
                0x08001204                MemManage_Handler
 .text.BusFault_Handler
                0x08001206        0x2 build/stm32f1xx_it.o
                0x08001206                BusFault_Handler
 .text.UsageFault_Handler
                0x08001208        0x2 build/stm32f1xx_it.o
                0x08001208                UsageFault_Handler
 .text.SVC_Handler
                0x0800120a        0x2 build/stm32f1xx_it.o
                0x0800120a                SVC_Handler
 .text.DebugMon_Handler
                0x0800120c        0x2 build/stm32f1xx_it.o
                0x0800120c                DebugMon_Handler
 .text.PendSV_Handler
                0x0800120e        0x2 build/stm32f1xx_it.o
                0x0800120e                PendSV_Handler
 .text.SysTick_Handler
                0x08001210        0x8 build/stm32f1xx_it.o
                0x08001210                SysTick_Handler
 .text.EXTI9_5_IRQHandler
                0x08001218       0x14 build/stm32f1xx_it.o
                0x08001218                EXTI9_5_IRQHandler
 .text.TIM3_IRQHandler
                0x0800122c       0x10 build/stm32f1xx_it.o
                0x0800122c                TIM3_IRQHandler
 .text.EXTI15_10_IRQHandler
                0x0800123c       0x1c build/stm32f1xx_it.o
                0x0800123c                EXTI15_10_IRQHandler
 .text.HAL_MspInit
                0x08001258       0x4c build/stm32f1xx_hal_msp.o
                0x08001258                HAL_MspInit
 .text.TIM_TI1_ConfigInputStage
                0x080012a4       0x24 build/stm32f1xx_hal_tim.o
 .text.TIM_TI2_ConfigInputStage
                0x080012c8       0x26 build/stm32f1xx_hal_tim.o
 .text.TIM_ITRx_SetConfig
                0x080012ee       0x10 build/stm32f1xx_hal_tim.o
 *fill*         0x080012fe        0x2 
 .text.TIM_OC1_SetConfig
                0x08001300       0xac build/stm32f1xx_hal_tim.o
 .text.TIM_OC3_SetConfig
                0x080013ac       0xb0 build/stm32f1xx_hal_tim.o
 .text.TIM_OC4_SetConfig
                0x0800145c       0x6c build/stm32f1xx_hal_tim.o
 .text.HAL_TIM_Base_Start
                0x080014c8       0x8c build/stm32f1xx_hal_tim.o
                0x080014c8                HAL_TIM_Base_Start
 .text.HAL_TIM_Base_Start_IT
                0x08001554       0x98 build/stm32f1xx_hal_tim.o
                0x08001554                HAL_TIM_Base_Start_IT
 .text.HAL_TIM_OC_DelayElapsedCallback
                0x080015ec        0x2 build/stm32f1xx_hal_tim.o
                0x080015ec                HAL_TIM_OC_DelayElapsedCallback
 .text.HAL_TIM_IC_CaptureCallback
                0x080015ee        0x2 build/stm32f1xx_hal_tim.o
                0x080015ee                HAL_TIM_IC_CaptureCallback
 .text.HAL_TIM_PWM_PulseFinishedCallback
                0x080015f0        0x2 build/stm32f1xx_hal_tim.o
                0x080015f0                HAL_TIM_PWM_PulseFinishedCallback
 .text.HAL_TIM_TriggerCallback
                0x080015f2        0x2 build/stm32f1xx_hal_tim.o
                0x080015f2                HAL_TIM_TriggerCallback
 .text.HAL_TIM_IRQHandler
                0x080015f4      0x17a build/stm32f1xx_hal_tim.o
                0x080015f4                HAL_TIM_IRQHandler
 *fill*         0x0800176e        0x2 
 .text.TIM_Base_SetConfig
                0x08001770       0x74 build/stm32f1xx_hal_tim.o
                0x08001770                TIM_Base_SetConfig
 .text.HAL_TIM_Base_Init
                0x080017e4       0xdc build/stm32f1xx_hal_tim.o
                0x080017e4                HAL_TIM_Base_Init
 .text.HAL_TIM_PWM_Init
                0x080018c0       0xdc build/stm32f1xx_hal_tim.o
                0x080018c0                HAL_TIM_PWM_Init
 .text.TIM_OC2_SetConfig
                0x0800199c       0xb4 build/stm32f1xx_hal_tim.o
                0x0800199c                TIM_OC2_SetConfig
 .text.HAL_TIM_PWM_ConfigChannel
                0x08001a50      0x1e0 build/stm32f1xx_hal_tim.o
                0x08001a50                HAL_TIM_PWM_ConfigChannel
 .text.TIM_ETR_SetConfig
                0x08001c30       0x16 build/stm32f1xx_hal_tim.o
                0x08001c30                TIM_ETR_SetConfig
 *fill*         0x08001c46        0x2 
 .text.HAL_TIM_ConfigClockSource
                0x08001c48      0x38c build/stm32f1xx_hal_tim.o
                0x08001c48                HAL_TIM_ConfigClockSource
 .text.TIM_CCxChannelCmd
                0x08001fd4       0x74 build/stm32f1xx_hal_tim.o
                0x08001fd4                TIM_CCxChannelCmd
 .text.HAL_TIM_PWM_Start
                0x08002048      0x11c build/stm32f1xx_hal_tim.o
                0x08002048                HAL_TIM_PWM_Start
 .text.HAL_TIMEx_MasterConfigSynchronization
                0x08002164       0xd4 build/stm32f1xx_hal_tim_ex.o
                0x08002164                HAL_TIMEx_MasterConfigSynchronization
 .text.HAL_TIMEx_ConfigBreakDeadTime
                0x08002238      0x11c build/stm32f1xx_hal_tim_ex.o
                0x08002238                HAL_TIMEx_ConfigBreakDeadTime
 .text.HAL_TIMEx_CommutCallback
                0x08002354        0x2 build/stm32f1xx_hal_tim_ex.o
                0x08002354                HAL_TIMEx_CommutCallback
 .text.HAL_TIMEx_BreakCallback
                0x08002356        0x2 build/stm32f1xx_hal_tim_ex.o
                0x08002356                HAL_TIMEx_BreakCallback
 .text.HAL_InitTick
                0x08002358       0x4c build/stm32f1xx_hal.o
                0x08002358                HAL_InitTick
 .text.HAL_Init
                0x080023a4       0x24 build/stm32f1xx_hal.o
                0x080023a4                HAL_Init
 .text.HAL_IncTick
                0x080023c8       0x18 build/stm32f1xx_hal.o
                0x080023c8                HAL_IncTick
 .text.HAL_GetTick
                0x080023e0        0xc build/stm32f1xx_hal.o
                0x080023e0                HAL_GetTick
 .text.HAL_Delay
                0x080023ec       0x28 build/stm32f1xx_hal.o
                0x080023ec                HAL_Delay
 .text.RCC_Delay
                0x08002414       0x2c build/stm32f1xx_hal_rcc.o
 .text.HAL_RCC_OscConfig
                0x08002440      0x548 build/stm32f1xx_hal_rcc.o
                0x08002440                HAL_RCC_OscConfig
 .text.HAL_RCC_GetSysClockFreq
                0x08002988       0x6c build/stm32f1xx_hal_rcc.o
                0x08002988                HAL_RCC_GetSysClockFreq
 .text.HAL_RCC_ClockConfig
                0x080029f4      0x228 build/stm32f1xx_hal_rcc.o
                0x080029f4                HAL_RCC_ClockConfig
 .text.HAL_RCC_GetHCLKFreq
                0x08002c1c        0xc build/stm32f1xx_hal_rcc.o
                0x08002c1c                HAL_RCC_GetHCLKFreq
 .text.HAL_RCC_GetPCLK1Freq
                0x08002c28       0x20 build/stm32f1xx_hal_rcc.o
                0x08002c28                HAL_RCC_GetPCLK1Freq
 .text.HAL_RCC_GetPCLK2Freq
                0x08002c48       0x20 build/stm32f1xx_hal_rcc.o
                0x08002c48                HAL_RCC_GetPCLK2Freq
 .text.HAL_RCCEx_PeriphCLKConfig
                0x08002c68      0x180 build/stm32f1xx_hal_rcc_ex.o
                0x08002c68                HAL_RCCEx_PeriphCLKConfig
 .text.HAL_RCCEx_GetPeriphCLKFreq
                0x08002de8      0x10c build/stm32f1xx_hal_rcc_ex.o
                0x08002de8                HAL_RCCEx_GetPeriphCLKFreq
 .text.HAL_GPIO_Init
                0x08002ef4      0x364 build/stm32f1xx_hal_gpio.o
                0x08002ef4                HAL_GPIO_Init
 .text.HAL_GPIO_ReadPin
                0x08003258       0x28 build/stm32f1xx_hal_gpio.o
                0x08003258                HAL_GPIO_ReadPin
 .text.HAL_GPIO_WritePin
                0x08003280       0x38 build/stm32f1xx_hal_gpio.o
                0x08003280                HAL_GPIO_WritePin
 .text.HAL_GPIO_TogglePin
                0x080032b8       0x2c build/stm32f1xx_hal_gpio.o
                0x080032b8                HAL_GPIO_TogglePin
 .text.HAL_GPIO_EXTI_IRQHandler
                0x080032e4       0x1c build/stm32f1xx_hal_gpio.o
                0x080032e4                HAL_GPIO_EXTI_IRQHandler
 .text.DMA_SetConfig
                0x08003300       0x2c build/stm32f1xx_hal_dma.o
 .text.HAL_DMA_Init
                0x0800332c      0x150 build/stm32f1xx_hal_dma.o
                0x0800332c                HAL_DMA_Init
 .text.HAL_DMA_Start_IT
                0x0800347c       0x9c build/stm32f1xx_hal_dma.o
                0x0800347c                HAL_DMA_Start_IT
 .text.HAL_NVIC_SetPriorityGrouping
                0x08003518       0x3c build/stm32f1xx_hal_cortex.o
                0x08003518                HAL_NVIC_SetPriorityGrouping
 .text.HAL_NVIC_SetPriority
                0x08003554       0x8c build/stm32f1xx_hal_cortex.o
                0x08003554                HAL_NVIC_SetPriority
 .text.HAL_NVIC_EnableIRQ
                0x080035e0       0x30 build/stm32f1xx_hal_cortex.o
                0x080035e0                HAL_NVIC_EnableIRQ
 .text.HAL_SYSTICK_Config
                0x08003610       0x2c build/stm32f1xx_hal_cortex.o
                0x08003610                HAL_SYSTICK_Config
 .text.SystemInit
                0x0800363c        0x2 build/system_stm32f1xx.o
                0x0800363c                SystemInit
 *fill*         0x0800363e        0x2 
 .text.MX_USART1_UART_Init
                0x08003640       0x34 build/usart.o
                0x08003640                MX_USART1_UART_Init
 .text.HAL_UART_MspInit
                0x08003674       0x78 build/usart.o
                0x08003674                HAL_UART_MspInit
 .text.UART_SetConfig
                0x080036ec       0xf4 build/stm32f1xx_hal_uart.o
 .text.UART_WaitOnFlagUntilTimeout
                0x080037e0       0x68 build/stm32f1xx_hal_uart.o
 .text.HAL_UART_Init
                0x08003848       0xec build/stm32f1xx_hal_uart.o
                0x08003848                HAL_UART_Init
 .text.HAL_UART_Transmit
                0x08003934       0xd8 build/stm32f1xx_hal_uart.o
                0x08003934                HAL_UART_Transmit
 .text.MX_SPI1_Init
                0x08003a0c       0x44 build/spi.o
                0x08003a0c                MX_SPI1_Init
 .text.HAL_SPI_MspInit
                0x08003a50       0x64 build/spi.o
                0x08003a50                HAL_SPI_MspInit
 .text.SPI_WaitFlagStateUntilTimeout
                0x08003ab4       0xd0 build/stm32f1xx_hal_spi.o
 .text.SPI_EndRxTxTransaction
                0x08003b84       0x24 build/stm32f1xx_hal_spi.o
 .text.HAL_SPI_Init
                0x08003ba8      0x214 build/stm32f1xx_hal_spi.o
                0x08003ba8                HAL_SPI_Init
 .text.HAL_SPI_Transmit
                0x08003dbc      0x1c8 build/stm32f1xx_hal_spi.o
                0x08003dbc                HAL_SPI_Transmit
 .text.MX_DMA_Init
                0x08003f84       0x20 build/dma.o
                0x08003f84                MX_DMA_Init
 .text.MX_TIM3_Init
                0x08003fa4       0x74 build/tim.o
                0x08003fa4                MX_TIM3_Init
 .text.HAL_TIM_Base_MspInit
                0x08004018       0x60 build/tim.o
                0x08004018                HAL_TIM_Base_MspInit
 .text.HAL_TIM_PWM_MspInit
                0x08004078       0x26 build/tim.o
                0x08004078                HAL_TIM_PWM_MspInit
 *fill*         0x0800409e        0x2 
 .text.HAL_TIM_MspPostInit
                0x080040a0       0x9c build/tim.o
                0x080040a0                HAL_TIM_MspPostInit
 .text.MX_TIM1_Init
                0x0800413c      0x100 build/tim.o
                0x0800413c                MX_TIM1_Init
 .text.MX_TIM2_Init
                0x0800423c       0x88 build/tim.o
                0x0800423c                MX_TIM2_Init
 .text.MX_ADC1_Init
                0x080042c4       0x90 build/adc.o
                0x080042c4                MX_ADC1_Init
 .text.HAL_ADC_MspInit
                0x08004354       0x9c build/adc.o
                0x08004354                HAL_ADC_MspInit
 .text.HAL_ADC_ConvCpltCallback
                0x080043f0        0x2 build/stm32f1xx_hal_adc.o
                0x080043f0                HAL_ADC_ConvCpltCallback
 .text.ADC_DMAConvCplt
                0x080043f2       0x52 build/stm32f1xx_hal_adc.o
                0x080043f2                ADC_DMAConvCplt
 .text.HAL_ADC_ConvHalfCpltCallback
                0x08004444        0x2 build/stm32f1xx_hal_adc.o
                0x08004444                HAL_ADC_ConvHalfCpltCallback
 .text.ADC_DMAHalfConvCplt
                0x08004446        0xa build/stm32f1xx_hal_adc.o
                0x08004446                ADC_DMAHalfConvCplt
 .text.HAL_ADC_ErrorCallback
                0x08004450        0x2 build/stm32f1xx_hal_adc.o
                0x08004450                HAL_ADC_ErrorCallback
 .text.ADC_DMAError
                0x08004452       0x1a build/stm32f1xx_hal_adc.o
                0x08004452                ADC_DMAError
 .text.HAL_ADC_ConfigChannel
                0x0800446c      0x190 build/stm32f1xx_hal_adc.o
                0x0800446c                HAL_ADC_ConfigChannel
 .text.ADC_Enable
                0x080045fc       0x88 build/stm32f1xx_hal_adc.o
                0x080045fc                ADC_Enable
 .text.HAL_ADC_Start_DMA
                0x08004684      0x148 build/stm32f1xx_hal_adc.o
                0x08004684                HAL_ADC_Start_DMA
 .text.ADC_ConversionStop_Disable
                0x080047cc       0x56 build/stm32f1xx_hal_adc.o
                0x080047cc                ADC_ConversionStop_Disable
 *fill*         0x08004822        0x2 
 .text.HAL_ADC_Init
                0x08004824      0x1e8 build/stm32f1xx_hal_adc.o
                0x08004824                HAL_ADC_Init
 .text.HAL_ADCEx_Calibration_Start
                0x08004a0c      0x120 build/stm32f1xx_hal_adc_ex.o
                0x08004a0c                HAL_ADCEx_Calibration_Start
 .text.TFT_Show
                0x08004b2c      0x2d8 build/System.o
 .text.My_Run   0x08004e04       0x14 build/System.o
 .text.My_Error_Handler
                0x08004e18        0x2 build/System.o
 .text.My_Assert_Failed
                0x08004e1a        0x2 build/System.o
 .text.Peripheral_Set
                0x08004e1c       0x90 build/MyInit.o
 .text.HAL_GPIO_EXTI_Callback
                0x08004eac       0x68 build/CallBack.o
                0x08004eac                HAL_GPIO_EXTI_Callback
 .text.HAL_TIM_PeriodElapsedCallback
                0x08004f14       0x20 build/CallBack.o
                0x08004f14                HAL_TIM_PeriodElapsedCallback
 .text.__io_putchar
                0x08004f34       0x20 build/MyPrintf.o
                0x08004f34                __io_putchar
 .text._write   0x08004f54       0x1c build/MyPrintf.o
                0x08004f54                _write
 .text.LED_Flip
                0x08004f70       0x50 build/LED.o
 .text.LED_OFF  0x08004fc0       0x58 build/LED.o
 .text.LED_ON   0x08005018       0x58 build/LED.o
 .text.Keyscan  0x08005070      0x168 build/KEY.o
 .text.KEY_SET_Detect
                0x080051d8       0x94 build/KEY.o
 .text.KEY_OUT_Detect
                0x0800526c       0x94 build/KEY.o
 .text.KEY_DOWN_Detect
                0x08005300       0x94 build/KEY.o
 .text.EC11_KEY_Detect
                0x08005394       0x6c build/KEY.o
 .text.BELL_Flip
                0x08005400       0x14 build/BELL.o
 .text.BELL_OFF
                0x08005414       0x14 build/BELL.o
 .text.BELL_ON  0x08005428       0x14 build/BELL.o
 .text.LCD_Writ_Bus
                0x0800543c       0x40 build/IPS114_LCD.o
 .text.LCD_WR_REG
                0x0800547c       0x28 build/IPS114_LCD.o
 .text.LCD_WR_DATA8
                0x080054a4       0x1c build/IPS114_LCD.o
 .text.LCD_WR_DATA16
                0x080054c0       0x12 build/IPS114_LCD.o
 .text.LCD_Address_Set
                0x080054d2       0x46 build/IPS114_LCD.o
 .text.LCD_DrawPoint
                0x08005518       0x14 build/IPS114_LCD.o
 .text.LCD_DrawLine
                0x0800552c       0xa4 build/IPS114_LCD.o
 .text.LCD_DrawRectangle
                0x080055d0       0x62 build/IPS114_LCD.o
 *fill*         0x08005632        0x2 
 .text.LCD_ShowChinese
                0x08005634      0x484 build/IPS114_LCD.o
 .text.LCD_ShowChar
                0x08005ab8      0x13c build/IPS114_LCD.o
 .text.LCD_ShowCHNandENGstring
                0x08005bf4       0xc6 build/IPS114_LCD.o
 .text.LCD_ShowString
                0x08005cba       0x42 build/IPS114_LCD.o
 .text.LCD_FillColor
                0x08005cfc       0x3c build/IPS114_LCD.o
 .text.LCD_Disp_Direction
                0x08005d38       0x10 build/IPS114_LCD.o
 .text.LCD_ShowChinesestring
                0x08005d48       0x60 build/IPS114_LCD.o
 .text.LCD_Init
                0x08005da8      0x1dc build/IPS114_LCD.o
 *fill*         0x08005f84        0x4 
 .text.ADC_GetNewSample
                0x08005f88      0x178 build/MyAdc_Apply.o
 .text.Get_ADC_Value
                0x08006100       0x30 build/MyAdc_Apply.o
 .text.Reset_Handler
                0x08006130       0x48 build/startup_stm32f103xb.o
                0x08006130                Reset_Handler
 .text.Default_Handler
                0x08006178        0x2 build/startup_stm32f103xb.o
                0x08006178                RTC_Alarm_IRQHandler
                0x08006178                EXTI2_IRQHandler
                0x08006178                TIM1_CC_IRQHandler
                0x08006178                PVD_IRQHandler
                0x08006178                EXTI3_IRQHandler
                0x08006178                EXTI0_IRQHandler
                0x08006178                I2C2_EV_IRQHandler
                0x08006178                ADC1_2_IRQHandler
                0x08006178                SPI1_IRQHandler
                0x08006178                TAMPER_IRQHandler
                0x08006178                DMA1_Channel4_IRQHandler
                0x08006178                USART3_IRQHandler
                0x08006178                RTC_IRQHandler
                0x08006178                DMA1_Channel7_IRQHandler
                0x08006178                CAN1_RX1_IRQHandler
                0x08006178                TIM4_IRQHandler
                0x08006178                I2C1_EV_IRQHandler
                0x08006178                DMA1_Channel6_IRQHandler
                0x08006178                RCC_IRQHandler
                0x08006178                TIM1_TRG_COM_IRQHandler
                0x08006178                DMA1_Channel1_IRQHandler
                0x08006178                Default_Handler
                0x08006178                SPI2_IRQHandler
                0x08006178                DMA1_Channel5_IRQHandler
                0x08006178                EXTI4_IRQHandler
                0x08006178                USB_LP_CAN1_RX0_IRQHandler
                0x08006178                USB_HP_CAN1_TX_IRQHandler
                0x08006178                DMA1_Channel3_IRQHandler
                0x08006178                TIM1_UP_IRQHandler
                0x08006178                WWDG_IRQHandler
                0x08006178                TIM2_IRQHandler
                0x08006178                TIM1_BRK_IRQHandler
                0x08006178                EXTI1_IRQHandler
                0x08006178                USART2_IRQHandler
                0x08006178                I2C2_ER_IRQHandler
                0x08006178                DMA1_Channel2_IRQHandler
                0x08006178                CAN1_SCE_IRQHandler
                0x08006178                FLASH_IRQHandler
                0x08006178                USART1_IRQHandler
                0x08006178                I2C1_ER_IRQHandler
                0x08006178                USBWakeUp_IRQHandler
 *fill*         0x0800617a        0x2 
 .text.__libc_init_array
                0x0800617c       0x48 c:/gnu_tool_arm_embedded/bin/../lib/gcc/arm-none-eabi/9.2.1/../../../../arm-none-eabi/lib/thumb/v7-m/nofp\libc_nano.a(lib_a-init.o)
                0x0800617c                __libc_init_array
 .text.memset   0x080061c4       0x10 c:/gnu_tool_arm_embedded/bin/../lib/gcc/arm-none-eabi/9.2.1/../../../../arm-none-eabi/lib/thumb/v7-m/nofp\libc_nano.a(lib_a-memset.o)
                0x080061c4                memset
 .text.__cvt    0x080061d4       0xbe c:/gnu_tool_arm_embedded/bin/../lib/gcc/arm-none-eabi/9.2.1/../../../../arm-none-eabi/lib/thumb/v7-m/nofp\libc_nano.a(lib_a-nano-vfprintf_float.o)
                0x080061d4                __cvt
 .text.__exponent
                0x08006292       0x7c c:/gnu_tool_arm_embedded/bin/../lib/gcc/arm-none-eabi/9.2.1/../../../../arm-none-eabi/lib/thumb/v7-m/nofp\libc_nano.a(lib_a-nano-vfprintf_float.o)
                0x08006292                __exponent
 *fill*         0x0800630e        0x2 
 .text._printf_float
                0x08006310      0x458 c:/gnu_tool_arm_embedded/bin/../lib/gcc/arm-none-eabi/9.2.1/../../../../arm-none-eabi/lib/thumb/v7-m/nofp\libc_nano.a(lib_a-nano-vfprintf_float.o)
                0x08006310                _printf_float
 .text._printf_common
                0x08006768       0xde c:/gnu_tool_arm_embedded/bin/../lib/gcc/arm-none-eabi/9.2.1/../../../../arm-none-eabi/lib/thumb/v7-m/nofp\libc_nano.a(lib_a-nano-vfprintf_i.o)
                0x08006768                _printf_common
 *fill*         0x08006846        0x2 
 .text._printf_i
                0x08006848      0x24c c:/gnu_tool_arm_embedded/bin/../lib/gcc/arm-none-eabi/9.2.1/../../../../arm-none-eabi/lib/thumb/v7-m/nofp\libc_nano.a(lib_a-nano-vfprintf_i.o)
                0x08006848                _printf_i
 .text.printf   0x08006a94       0x30 c:/gnu_tool_arm_embedded/bin/../lib/gcc/arm-none-eabi/9.2.1/../../../../arm-none-eabi/lib/thumb/v7-m/nofp\libc_nano.a(lib_a-printf.o)
                0x08006a94                iprintf
                0x08006a94                printf
 .text._puts_r  0x08006ac4       0xdc c:/gnu_tool_arm_embedded/bin/../lib/gcc/arm-none-eabi/9.2.1/../../../../arm-none-eabi/lib/thumb/v7-m/nofp\libc_nano.a(lib_a-puts.o)
                0x08006ac4                _puts_r
 .text.puts     0x08006ba0       0x10 c:/gnu_tool_arm_embedded/bin/../lib/gcc/arm-none-eabi/9.2.1/../../../../arm-none-eabi/lib/thumb/v7-m/nofp\libc_nano.a(lib_a-puts.o)
                0x08006ba0                puts
 .text.__swbuf_r
                0x08006bb0       0xa4 c:/gnu_tool_arm_embedded/bin/../lib/gcc/arm-none-eabi/9.2.1/../../../../arm-none-eabi/lib/thumb/v7-m/nofp\libc_nano.a(lib_a-wbuf.o)
                0x08006bb0                __swbuf_r
 .text.__swsetup_r
                0x08006c54       0xdc c:/gnu_tool_arm_embedded/bin/../lib/gcc/arm-none-eabi/9.2.1/../../../../arm-none-eabi/lib/thumb/v7-m/nofp\libc_nano.a(lib_a-wsetup.o)
                0x08006c54                __swsetup_r
 .text.quorem   0x08006d30      0x11a c:/gnu_tool_arm_embedded/bin/../lib/gcc/arm-none-eabi/9.2.1/../../../../arm-none-eabi/lib/thumb/v7-m/nofp\libc_nano.a(lib_a-dtoa.o)
 *fill*         0x08006e4a        0x6 
 .text._dtoa_r  0x08006e50      0xba4 c:/gnu_tool_arm_embedded/bin/../lib/gcc/arm-none-eabi/9.2.1/../../../../arm-none-eabi/lib/thumb/v7-m/nofp\libc_nano.a(lib_a-dtoa.o)
                0x08006e50                _dtoa_r
 .text.__sflush_r
                0x080079f4      0x10c c:/gnu_tool_arm_embedded/bin/../lib/gcc/arm-none-eabi/9.2.1/../../../../arm-none-eabi/lib/thumb/v7-m/nofp\libc_nano.a(lib_a-fflush.o)
                0x080079f4                __sflush_r
 .text._fflush_r
                0x08007b00       0x78 c:/gnu_tool_arm_embedded/bin/../lib/gcc/arm-none-eabi/9.2.1/../../../../arm-none-eabi/lib/thumb/v7-m/nofp\libc_nano.a(lib_a-fflush.o)
                0x08007b00                _fflush_r
 .text.std      0x08007b78       0x48 c:/gnu_tool_arm_embedded/bin/../lib/gcc/arm-none-eabi/9.2.1/../../../../arm-none-eabi/lib/thumb/v7-m/nofp\libc_nano.a(lib_a-findfp.o)
 .text._cleanup_r
                0x08007bc0        0xc c:/gnu_tool_arm_embedded/bin/../lib/gcc/arm-none-eabi/9.2.1/../../../../arm-none-eabi/lib/thumb/v7-m/nofp\libc_nano.a(lib_a-findfp.o)
                0x08007bc0                _cleanup_r
 .text.__sfmoreglue
                0x08007bcc       0x2c c:/gnu_tool_arm_embedded/bin/../lib/gcc/arm-none-eabi/9.2.1/../../../../arm-none-eabi/lib/thumb/v7-m/nofp\libc_nano.a(lib_a-findfp.o)
                0x08007bcc                __sfmoreglue
 .text.__sfp_lock_acquire
                0x08007bf8        0xc c:/gnu_tool_arm_embedded/bin/../lib/gcc/arm-none-eabi/9.2.1/../../../../arm-none-eabi/lib/thumb/v7-m/nofp\libc_nano.a(lib_a-findfp.o)
                0x08007bf8                __sfp_lock_acquire
 .text.__sfp_lock_release
                0x08007c04        0xc c:/gnu_tool_arm_embedded/bin/../lib/gcc/arm-none-eabi/9.2.1/../../../../arm-none-eabi/lib/thumb/v7-m/nofp\libc_nano.a(lib_a-findfp.o)
                0x08007c04                __sfp_lock_release
 .text.__sinit_lock_acquire
                0x08007c10        0xc c:/gnu_tool_arm_embedded/bin/../lib/gcc/arm-none-eabi/9.2.1/../../../../arm-none-eabi/lib/thumb/v7-m/nofp\libc_nano.a(lib_a-findfp.o)
                0x08007c10                __sinit_lock_acquire
 .text.__sinit_lock_release
                0x08007c1c        0xc c:/gnu_tool_arm_embedded/bin/../lib/gcc/arm-none-eabi/9.2.1/../../../../arm-none-eabi/lib/thumb/v7-m/nofp\libc_nano.a(lib_a-findfp.o)
                0x08007c1c                __sinit_lock_release
 .text.__sinit  0x08007c28       0x70 c:/gnu_tool_arm_embedded/bin/../lib/gcc/arm-none-eabi/9.2.1/../../../../arm-none-eabi/lib/thumb/v7-m/nofp\libc_nano.a(lib_a-findfp.o)
                0x08007c28                __sinit
 .text.__sfp    0x08007c98       0x8c c:/gnu_tool_arm_embedded/bin/../lib/gcc/arm-none-eabi/9.2.1/../../../../arm-none-eabi/lib/thumb/v7-m/nofp\libc_nano.a(lib_a-findfp.o)
                0x08007c98                __sfp
 .text._fwalk_reent
                0x08007d24       0x3e c:/gnu_tool_arm_embedded/bin/../lib/gcc/arm-none-eabi/9.2.1/../../../../arm-none-eabi/lib/thumb/v7-m/nofp\libc_nano.a(lib_a-fwalk.o)
                0x08007d24                _fwalk_reent
 *fill*         0x08007d62        0x2 
 .text._localeconv_r
                0x08007d64        0x8 c:/gnu_tool_arm_embedded/bin/../lib/gcc/arm-none-eabi/9.2.1/../../../../arm-none-eabi/lib/thumb/v7-m/nofp\libc_nano.a(lib_a-localeconv.o)
                0x08007d64                _localeconv_r
 .text.__retarget_lock_init_recursive
                0x08007d6c        0x2 c:/gnu_tool_arm_embedded/bin/../lib/gcc/arm-none-eabi/9.2.1/../../../../arm-none-eabi/lib/thumb/v7-m/nofp\libc_nano.a(lib_a-lock.o)
                0x08007d6c                __retarget_lock_init_recursive
 .text.__retarget_lock_acquire_recursive
                0x08007d6e        0x2 c:/gnu_tool_arm_embedded/bin/../lib/gcc/arm-none-eabi/9.2.1/../../../../arm-none-eabi/lib/thumb/v7-m/nofp\libc_nano.a(lib_a-lock.o)
                0x08007d6e                __retarget_lock_acquire_recursive
 .text.__retarget_lock_release_recursive
                0x08007d70        0x2 c:/gnu_tool_arm_embedded/bin/../lib/gcc/arm-none-eabi/9.2.1/../../../../arm-none-eabi/lib/thumb/v7-m/nofp\libc_nano.a(lib_a-lock.o)
                0x08007d70                __retarget_lock_release_recursive
 .text.__swhatbuf_r
                0x08007d72       0x48 c:/gnu_tool_arm_embedded/bin/../lib/gcc/arm-none-eabi/9.2.1/../../../../arm-none-eabi/lib/thumb/v7-m/nofp\libc_nano.a(lib_a-makebuf.o)
                0x08007d72                __swhatbuf_r
 *fill*         0x08007dba        0x2 
 .text.__smakebuf_r
                0x08007dbc       0x80 c:/gnu_tool_arm_embedded/bin/../lib/gcc/arm-none-eabi/9.2.1/../../../../arm-none-eabi/lib/thumb/v7-m/nofp\libc_nano.a(lib_a-makebuf.o)
                0x08007dbc                __smakebuf_r
 .text.malloc   0x08007e3c       0x10 c:/gnu_tool_arm_embedded/bin/../lib/gcc/arm-none-eabi/9.2.1/../../../../arm-none-eabi/lib/thumb/v7-m/nofp\libc_nano.a(lib_a-malloc.o)
                0x08007e3c                malloc
 .text.memchr   0x08007e4c       0x1c c:/gnu_tool_arm_embedded/bin/../lib/gcc/arm-none-eabi/9.2.1/../../../../arm-none-eabi/lib/thumb/v7-m/nofp\libc_nano.a(lib_a-memchr-stub.o)
                0x08007e4c                memchr
 .text.memcpy   0x08007e68       0x1c c:/gnu_tool_arm_embedded/bin/../lib/gcc/arm-none-eabi/9.2.1/../../../../arm-none-eabi/lib/thumb/v7-m/nofp\libc_nano.a(lib_a-memcpy-stub.o)
                0x08007e68                memcpy
 .text._Balloc  0x08007e84       0x68 c:/gnu_tool_arm_embedded/bin/../lib/gcc/arm-none-eabi/9.2.1/../../../../arm-none-eabi/lib/thumb/v7-m/nofp\libc_nano.a(lib_a-mprec.o)
                0x08007e84                _Balloc
 .text._Bfree   0x08007eec       0x2e c:/gnu_tool_arm_embedded/bin/../lib/gcc/arm-none-eabi/9.2.1/../../../../arm-none-eabi/lib/thumb/v7-m/nofp\libc_nano.a(lib_a-mprec.o)
                0x08007eec                _Bfree
 .text.__multadd
                0x08007f1a       0x7c c:/gnu_tool_arm_embedded/bin/../lib/gcc/arm-none-eabi/9.2.1/../../../../arm-none-eabi/lib/thumb/v7-m/nofp\libc_nano.a(lib_a-mprec.o)
                0x08007f1a                __multadd
 .text.__hi0bits
                0x08007f96       0x40 c:/gnu_tool_arm_embedded/bin/../lib/gcc/arm-none-eabi/9.2.1/../../../../arm-none-eabi/lib/thumb/v7-m/nofp\libc_nano.a(lib_a-mprec.o)
                0x08007f96                __hi0bits
 .text.__lo0bits
                0x08007fd6       0x5c c:/gnu_tool_arm_embedded/bin/../lib/gcc/arm-none-eabi/9.2.1/../../../../arm-none-eabi/lib/thumb/v7-m/nofp\libc_nano.a(lib_a-mprec.o)
                0x08007fd6                __lo0bits
 .text.__i2b    0x08008032       0x12 c:/gnu_tool_arm_embedded/bin/../lib/gcc/arm-none-eabi/9.2.1/../../../../arm-none-eabi/lib/thumb/v7-m/nofp\libc_nano.a(lib_a-mprec.o)
                0x08008032                __i2b
 .text.__multiply
                0x08008044      0x136 c:/gnu_tool_arm_embedded/bin/../lib/gcc/arm-none-eabi/9.2.1/../../../../arm-none-eabi/lib/thumb/v7-m/nofp\libc_nano.a(lib_a-mprec.o)
                0x08008044                __multiply
 *fill*         0x0800817a        0x2 
 .text.__pow5mult
                0x0800817c       0x9c c:/gnu_tool_arm_embedded/bin/../lib/gcc/arm-none-eabi/9.2.1/../../../../arm-none-eabi/lib/thumb/v7-m/nofp\libc_nano.a(lib_a-mprec.o)
                0x0800817c                __pow5mult
 .text.__lshift
                0x08008218       0xbe c:/gnu_tool_arm_embedded/bin/../lib/gcc/arm-none-eabi/9.2.1/../../../../arm-none-eabi/lib/thumb/v7-m/nofp\libc_nano.a(lib_a-mprec.o)
                0x08008218                __lshift
 .text.__mcmp   0x080082d6       0x36 c:/gnu_tool_arm_embedded/bin/../lib/gcc/arm-none-eabi/9.2.1/../../../../arm-none-eabi/lib/thumb/v7-m/nofp\libc_nano.a(lib_a-mprec.o)
                0x080082d6                __mcmp
 .text.__mdiff  0x0800830c       0xf8 c:/gnu_tool_arm_embedded/bin/../lib/gcc/arm-none-eabi/9.2.1/../../../../arm-none-eabi/lib/thumb/v7-m/nofp\libc_nano.a(lib_a-mprec.o)
                0x0800830c                __mdiff
 .text.__d2b    0x08008404       0x9e c:/gnu_tool_arm_embedded/bin/../lib/gcc/arm-none-eabi/9.2.1/../../../../arm-none-eabi/lib/thumb/v7-m/nofp\libc_nano.a(lib_a-mprec.o)
                0x08008404                __d2b
 .text._calloc_r
                0x080084a2       0x1c c:/gnu_tool_arm_embedded/bin/../lib/gcc/arm-none-eabi/9.2.1/../../../../arm-none-eabi/lib/thumb/v7-m/nofp\libc_nano.a(lib_a-nano-callocr.o)
                0x080084a2                _calloc_r
 *fill*         0x080084be        0x2 
 .text._free_r  0x080084c0       0x98 c:/gnu_tool_arm_embedded/bin/../lib/gcc/arm-none-eabi/9.2.1/../../../../arm-none-eabi/lib/thumb/v7-m/nofp\libc_nano.a(lib_a-nano-freer.o)
                0x080084c0                _free_r
 .text._malloc_r
                0x08008558       0xb4 c:/gnu_tool_arm_embedded/bin/../lib/gcc/arm-none-eabi/9.2.1/../../../../arm-none-eabi/lib/thumb/v7-m/nofp\libc_nano.a(lib_a-nano-mallocr.o)
                0x08008558                _malloc_r
 .text.__sfputc_r
                0x0800860c       0x2a c:/gnu_tool_arm_embedded/bin/../lib/gcc/arm-none-eabi/9.2.1/../../../../arm-none-eabi/lib/thumb/v7-m/nofp\libc_nano.a(lib_a-nano-vfprintf.o)
 .text.__sfputs_r
                0x08008636       0x24 c:/gnu_tool_arm_embedded/bin/../lib/gcc/arm-none-eabi/9.2.1/../../../../arm-none-eabi/lib/thumb/v7-m/nofp\libc_nano.a(lib_a-nano-vfprintf.o)
                0x08008636                __sfputs_r
 *fill*         0x0800865a        0x2 
 .text._vfprintf_r
                0x0800865c      0x260 c:/gnu_tool_arm_embedded/bin/../lib/gcc/arm-none-eabi/9.2.1/../../../../arm-none-eabi/lib/thumb/v7-m/nofp\libc_nano.a(lib_a-nano-vfprintf.o)
                0x0800865c                _vfprintf_r
                0x0800865c                _vfiprintf_r
 .text._sbrk_r  0x080088bc       0x20 c:/gnu_tool_arm_embedded/bin/../lib/gcc/arm-none-eabi/9.2.1/../../../../arm-none-eabi/lib/thumb/v7-m/nofp\libc_nano.a(lib_a-sbrkr.o)
                0x080088bc                _sbrk_r
 .text.__sread  0x080088dc       0x22 c:/gnu_tool_arm_embedded/bin/../lib/gcc/arm-none-eabi/9.2.1/../../../../arm-none-eabi/lib/thumb/v7-m/nofp\libc_nano.a(lib_a-stdio.o)
                0x080088dc                __sread
 .text.__swrite
                0x080088fe       0x38 c:/gnu_tool_arm_embedded/bin/../lib/gcc/arm-none-eabi/9.2.1/../../../../arm-none-eabi/lib/thumb/v7-m/nofp\libc_nano.a(lib_a-stdio.o)
                0x080088fe                __swrite
 .text.__sseek  0x08008936       0x24 c:/gnu_tool_arm_embedded/bin/../lib/gcc/arm-none-eabi/9.2.1/../../../../arm-none-eabi/lib/thumb/v7-m/nofp\libc_nano.a(lib_a-stdio.o)
                0x08008936                __sseek
 .text.__sclose
                0x0800895a        0x8 c:/gnu_tool_arm_embedded/bin/../lib/gcc/arm-none-eabi/9.2.1/../../../../arm-none-eabi/lib/thumb/v7-m/nofp\libc_nano.a(lib_a-stdio.o)
                0x0800895a                __sclose
 *fill*         0x08008962        0x2 
 .text._write_r
                0x08008964       0x24 c:/gnu_tool_arm_embedded/bin/../lib/gcc/arm-none-eabi/9.2.1/../../../../arm-none-eabi/lib/thumb/v7-m/nofp\libc_nano.a(lib_a-writer.o)
                0x08008964                _write_r
 .text._close_r
                0x08008988       0x20 c:/gnu_tool_arm_embedded/bin/../lib/gcc/arm-none-eabi/9.2.1/../../../../arm-none-eabi/lib/thumb/v7-m/nofp\libc_nano.a(lib_a-closer.o)
                0x08008988                _close_r
 .text._fstat_r
                0x080089a8       0x24 c:/gnu_tool_arm_embedded/bin/../lib/gcc/arm-none-eabi/9.2.1/../../../../arm-none-eabi/lib/thumb/v7-m/nofp\libc_nano.a(lib_a-fstatr.o)
                0x080089a8                _fstat_r
 .text._isatty_r
                0x080089cc       0x20 c:/gnu_tool_arm_embedded/bin/../lib/gcc/arm-none-eabi/9.2.1/../../../../arm-none-eabi/lib/thumb/v7-m/nofp\libc_nano.a(lib_a-isattyr.o)
                0x080089cc                _isatty_r
 .text._lseek_r
                0x080089ec       0x24 c:/gnu_tool_arm_embedded/bin/../lib/gcc/arm-none-eabi/9.2.1/../../../../arm-none-eabi/lib/thumb/v7-m/nofp\libc_nano.a(lib_a-lseekr.o)
                0x080089ec                _lseek_r
 .text.__ascii_mbtowc
                0x08008a10       0x24 c:/gnu_tool_arm_embedded/bin/../lib/gcc/arm-none-eabi/9.2.1/../../../../arm-none-eabi/lib/thumb/v7-m/nofp\libc_nano.a(lib_a-mbtowc_r.o)
                0x08008a10                __ascii_mbtowc
 .text.__malloc_lock
                0x08008a34        0xc c:/gnu_tool_arm_embedded/bin/../lib/gcc/arm-none-eabi/9.2.1/../../../../arm-none-eabi/lib/thumb/v7-m/nofp\libc_nano.a(lib_a-mlock.o)
                0x08008a34                __malloc_lock
 .text.__malloc_unlock
                0x08008a40        0xc c:/gnu_tool_arm_embedded/bin/../lib/gcc/arm-none-eabi/9.2.1/../../../../arm-none-eabi/lib/thumb/v7-m/nofp\libc_nano.a(lib_a-mlock.o)
                0x08008a40                __malloc_unlock
 .text._read_r  0x08008a4c       0x24 c:/gnu_tool_arm_embedded/bin/../lib/gcc/arm-none-eabi/9.2.1/../../../../arm-none-eabi/lib/thumb/v7-m/nofp\libc_nano.a(lib_a-readr.o)
                0x08008a4c                _read_r
 .text.__ascii_wctomb
                0x08008a70       0x1a c:/gnu_tool_arm_embedded/bin/../lib/gcc/arm-none-eabi/9.2.1/../../../../arm-none-eabi/lib/thumb/v7-m/nofp\libc_nano.a(lib_a-wctomb_r.o)
                0x08008a70                __ascii_wctomb
 *fill*         0x08008a8a        0x2 
 .text._close   0x08008a8c       0x10 c:/gnu_tool_arm_embedded/bin/../lib/gcc/arm-none-eabi/9.2.1/../../../../arm-none-eabi/lib/thumb/v7-m/nofp\libnosys.a(close.o)
                0x08008a8c                _close
 .text._fstat   0x08008a9c       0x10 c:/gnu_tool_arm_embedded/bin/../lib/gcc/arm-none-eabi/9.2.1/../../../../arm-none-eabi/lib/thumb/v7-m/nofp\libnosys.a(fstat.o)
                0x08008a9c                _fstat
 .text._isatty  0x08008aac       0x10 c:/gnu_tool_arm_embedded/bin/../lib/gcc/arm-none-eabi/9.2.1/../../../../arm-none-eabi/lib/thumb/v7-m/nofp\libnosys.a(isatty.o)
                0x08008aac                _isatty
 .text._lseek   0x08008abc       0x10 c:/gnu_tool_arm_embedded/bin/../lib/gcc/arm-none-eabi/9.2.1/../../../../arm-none-eabi/lib/thumb/v7-m/nofp\libnosys.a(lseek.o)
                0x08008abc                _lseek
 .text._read    0x08008acc       0x10 c:/gnu_tool_arm_embedded/bin/../lib/gcc/arm-none-eabi/9.2.1/../../../../arm-none-eabi/lib/thumb/v7-m/nofp\libnosys.a(read.o)
                0x08008acc                _read
 .text._sbrk    0x08008adc       0x1c c:/gnu_tool_arm_embedded/bin/../lib/gcc/arm-none-eabi/9.2.1/../../../../arm-none-eabi/lib/thumb/v7-m/nofp\libnosys.a(sbrk.o)
                0x08008adc                _sbrk
 *(.glue_7)
 .glue_7        0x08008af8        0x0 linker stubs
 *(.glue_7t)
 .glue_7t       0x08008af8        0x0 linker stubs
 *(.eh_frame)
 .eh_frame      0x08008af8        0x0 c:/gnu_tool_arm_embedded/bin/../lib/gcc/arm-none-eabi/9.2.1/thumb/v7-m/nofp/crtbegin.o
 *(.init)
 .init          0x08008af8        0x4 c:/gnu_tool_arm_embedded/bin/../lib/gcc/arm-none-eabi/9.2.1/thumb/v7-m/nofp/crti.o
                0x08008af8                _init
 .init          0x08008afc        0x8 c:/gnu_tool_arm_embedded/bin/../lib/gcc/arm-none-eabi/9.2.1/thumb/v7-m/nofp/crtn.o
 *(.fini)
 .fini          0x08008b04        0x4 c:/gnu_tool_arm_embedded/bin/../lib/gcc/arm-none-eabi/9.2.1/thumb/v7-m/nofp/crti.o
                0x08008b04                _fini
 .fini          0x08008b08        0x8 c:/gnu_tool_arm_embedded/bin/../lib/gcc/arm-none-eabi/9.2.1/thumb/v7-m/nofp/crtn.o
                0x08008b10                . = ALIGN (0x4)
                0x08008b10                _etext = .

.vfp11_veneer   0x08008b10        0x0
 .vfp11_veneer  0x08008b10        0x0 linker stubs

.v4_bx          0x08008b10        0x0
 .v4_bx         0x08008b10        0x0 linker stubs

.iplt           0x08008b10        0x0
 .iplt          0x08008b10        0x0 c:/gnu_tool_arm_embedded/bin/../lib/gcc/arm-none-eabi/9.2.1/thumb/v7-m/nofp/crtbegin.o

.rodata         0x08008b10     0x3de8
                0x08008b10                . = ALIGN (0x4)
 *(.rodata)
 *(.rodata*)
 .rodata.TIM_OC1_SetConfig.str1.4
                0x08008b10       0x35 build/stm32f1xx_hal_tim.o
 *fill*         0x08008b45        0x3 
 .rodata.HAL_TIMEx_HallSensor_Init.str1.4
                0x08008b48       0x38 build/stm32f1xx_hal_tim_ex.o
 .rodata.HAL_RCC_OscConfig.str1.4
                0x08008b80       0x35 build/stm32f1xx_hal_rcc.o
 *fill*         0x08008bb5        0x3 
 .rodata.HAL_RCC_GetSysClockFreq.str1.4
                0x08008bb8       0x11 build/stm32f1xx_hal_rcc.o
 *fill*         0x08008bc9        0x3 
 .rodata.HAL_RCCEx_PeriphCLKConfig.str1.4
                0x08008bcc       0x38 build/stm32f1xx_hal_rcc_ex.o
 .rodata.HAL_RCCEx_GetPeriphCLKFreq.str1.4
                0x08008c04       0x11 build/stm32f1xx_hal_rcc_ex.o
 .rodata.HAL_GPIO_Init.str1.4
                0x08008c04       0x36 build/stm32f1xx_hal_gpio.o
 *fill*         0x08008c3a        0x2 
 .rodata.HAL_DMA_Init.str1.4
                0x08008c3c       0x35 build/stm32f1xx_hal_dma.o
 *fill*         0x08008c71        0x3 
 .rodata.HAL_NVIC_SetPriorityGrouping.str1.4
                0x08008c74       0x38 build/stm32f1xx_hal_cortex.o
 .rodata.AHBPrescTable
                0x08008cac       0x10 build/system_stm32f1xx.o
                0x08008cac                AHBPrescTable
 .rodata.APBPrescTable
                0x08008cbc        0x8 build/system_stm32f1xx.o
                0x08008cbc                APBPrescTable
 .rodata.UART_SetConfig.str1.4
                0x08008cc4       0x36 build/stm32f1xx_hal_uart.o
 *fill*         0x08008cfa        0x2 
 .rodata.HAL_SPI_Init.str1.4
                0x08008cfc       0x35 build/stm32f1xx_hal_spi.o
 *fill*         0x08008d31        0x3 
 .rodata.HAL_ADC_PollForConversion.str1.4
                0x08008d34       0x35 build/stm32f1xx_hal_adc.o
 *fill*         0x08008d69        0x3 
 .rodata.HAL_ADCEx_Calibration_Start.str1.4
                0x08008d6c       0x38 build/stm32f1xx_hal_adc_ex.o
 .rodata.TFT_Show.str1.4
                0x08008da4       0x3f build/System.o
 *fill*         0x08008de3        0x1 
 .rodata.Peripheral_Set.str1.4
                0x08008de4       0x7a build/MyInit.o
 *fill*         0x08008e5e        0x2 
 .rodata.HAL_GPIO_EXTI_Callback.str1.4
                0x08008e60       0x44 build/CallBack.o
 .rodata.Keyscan.str1.4
                0x08008ea4        0xb build/KEY.o
                                  0xf (size before relaxing)
 *fill*         0x08008eaf        0x1 
 .rodata.KEY_SET_Detect.str1.4
                0x08008eb0       0x20 build/KEY.o
 .rodata.KEY_OUT_Detect.str1.4
                0x08008ed0       0x20 build/KEY.o
 .rodata.KEY_DOWN_Detect.str1.4
                0x08008ef0       0x25 build/KEY.o
 *fill*         0x08008f15        0x3 
 .rodata.EC11_KEY_Detect.str1.4
                0x08008f18       0x21 build/KEY.o
 *fill*         0x08008f39        0x3 
 .rodata.LCD_ShowChinese.str1.4
                0x08008f3c       0x64 build/IPS114_LCD.o
 .rodata.LCD_ShowChinesestring.str1.4
                0x08008fa0       0x28 build/IPS114_LCD.o
 .rodata.LCD_Init.str1.4
                0x08008fc8       0x15 build/IPS114_LCD.o
 *fill*         0x08008fdd        0x3 
 .rodata.FONT_CHN12
                0x08008fe0       0x82 build/IPS114_LCD.o
                0x08008fe0                FONT_CHN12
 *fill*         0x08009062        0x2 
 .rodata.FONT_CHN16
                0x08009064       0x44 build/IPS114_LCD.o
                0x08009064                FONT_CHN16
 .rodata.FONT_CHN24
                0x080090a8       0x94 build/IPS114_LCD.o
                0x080090a8                FONT_CHN24
 .rodata.FONT_CHN32
                0x0800913c      0x104 build/IPS114_LCD.o
                0x0800913c                FONT_CHN32
 .rodata.ucAscii_1206
                0x08009240      0x474 build/IPS114_LCD.o
                0x08009240                ucAscii_1206
 .rodata.ucAscii_1608
                0x080096b4      0x5f0 build/IPS114_LCD.o
                0x080096b4                ucAscii_1608
 .rodata.ucAscii_2412
                0x08009ca4     0x11d0 build/IPS114_LCD.o
                0x08009ca4                ucAscii_2412
 .rodata.ucAscii_3216
                0x0800ae74     0x17c0 build/IPS114_LCD.o
                0x0800ae74                ucAscii_3216
 .rodata._global_impure_ptr
                0x0800c634        0x4 c:/gnu_tool_arm_embedded/bin/../lib/gcc/arm-none-eabi/9.2.1/../../../../arm-none-eabi/lib/thumb/v7-m/nofp\libc_nano.a(lib_a-impure.o)
                0x0800c634                _global_impure_ptr
 .rodata._printf_float.str1.1
                0x0800c638       0x12 c:/gnu_tool_arm_embedded/bin/../lib/gcc/arm-none-eabi/9.2.1/../../../../arm-none-eabi/lib/thumb/v7-m/nofp\libc_nano.a(lib_a-nano-vfprintf_float.o)
 .rodata._printf_i.str1.1
                0x0800c64a       0x22 c:/gnu_tool_arm_embedded/bin/../lib/gcc/arm-none-eabi/9.2.1/../../../../arm-none-eabi/lib/thumb/v7-m/nofp\libc_nano.a(lib_a-nano-vfprintf_i.o)
 .rodata._dtoa_r.str1.1
                0x0800c66c        0xd c:/gnu_tool_arm_embedded/bin/../lib/gcc/arm-none-eabi/9.2.1/../../../../arm-none-eabi/lib/thumb/v7-m/nofp\libc_nano.a(lib_a-dtoa.o)
                                  0xf (size before relaxing)
 *fill*         0x0800c679        0x3 
 .rodata.__sf_fake_stderr
                0x0800c67c       0x20 c:/gnu_tool_arm_embedded/bin/../lib/gcc/arm-none-eabi/9.2.1/../../../../arm-none-eabi/lib/thumb/v7-m/nofp\libc_nano.a(lib_a-findfp.o)
                0x0800c67c                __sf_fake_stderr
 .rodata.__sf_fake_stdin
                0x0800c69c       0x20 c:/gnu_tool_arm_embedded/bin/../lib/gcc/arm-none-eabi/9.2.1/../../../../arm-none-eabi/lib/thumb/v7-m/nofp\libc_nano.a(lib_a-findfp.o)
                0x0800c69c                __sf_fake_stdin
 .rodata.__sf_fake_stdout
                0x0800c6bc       0x20 c:/gnu_tool_arm_embedded/bin/../lib/gcc/arm-none-eabi/9.2.1/../../../../arm-none-eabi/lib/thumb/v7-m/nofp\libc_nano.a(lib_a-findfp.o)
                0x0800c6bc                __sf_fake_stdout
 *fill*         0x0800c6dc        0x4 
 .rodata.__mprec_bigtens
                0x0800c6e0       0x28 c:/gnu_tool_arm_embedded/bin/../lib/gcc/arm-none-eabi/9.2.1/../../../../arm-none-eabi/lib/thumb/v7-m/nofp\libc_nano.a(lib_a-mprec.o)
                0x0800c6e0                __mprec_bigtens
 .rodata.__mprec_tens
                0x0800c708       0xc8 c:/gnu_tool_arm_embedded/bin/../lib/gcc/arm-none-eabi/9.2.1/../../../../arm-none-eabi/lib/thumb/v7-m/nofp\libc_nano.a(lib_a-mprec.o)
                0x0800c708                __mprec_tens
 .rodata.p05.6127
                0x0800c7d0        0xc c:/gnu_tool_arm_embedded/bin/../lib/gcc/arm-none-eabi/9.2.1/../../../../arm-none-eabi/lib/thumb/v7-m/nofp\libc_nano.a(lib_a-mprec.o)
 .rodata._vfprintf_r.str1.1
                0x0800c7dc       0x11 c:/gnu_tool_arm_embedded/bin/../lib/gcc/arm-none-eabi/9.2.1/../../../../arm-none-eabi/lib/thumb/v7-m/nofp\libc_nano.a(lib_a-nano-vfprintf.o)
 .rodata._setlocale_r.str1.1
                0x0800c7ed        0x8 c:/gnu_tool_arm_embedded/bin/../lib/gcc/arm-none-eabi/9.2.1/../../../../arm-none-eabi/lib/thumb/v7-m/nofp\libc_nano.a(lib_a-locale.o)
                                  0x9 (size before relaxing)
 .rodata.str1.1
                0x0800c7f5        0x2 c:/gnu_tool_arm_embedded/bin/../lib/gcc/arm-none-eabi/9.2.1/../../../../arm-none-eabi/lib/thumb/v7-m/nofp\libc_nano.a(lib_a-locale.o)
 .rodata._ctype_
                0x0800c7f7      0x101 c:/gnu_tool_arm_embedded/bin/../lib/gcc/arm-none-eabi/9.2.1/../../../../arm-none-eabi/lib/thumb/v7-m/nofp\libc_nano.a(lib_a-ctype_.o)
                0x0800c7f7                _ctype_
                0x0800c8f8                . = ALIGN (0x4)

.rel.dyn        0x0800c8f8        0x0
 .rel.iplt      0x0800c8f8        0x0 c:/gnu_tool_arm_embedded/bin/../lib/gcc/arm-none-eabi/9.2.1/thumb/v7-m/nofp/crtbegin.o

.ARM.extab
 *(.ARM.extab* .gnu.linkonce.armextab.*)

.ARM            0x0800c8f8        0x0
                0x0800c8f8                __exidx_start = .
 *(.ARM.exidx*)
                0x0800c8f8                __exidx_end = .

.preinit_array  0x0800c8f8        0x0
                0x0800c8f8                PROVIDE (__preinit_array_start = .)
 *(.preinit_array*)
                0x0800c8f8                PROVIDE (__preinit_array_end = .)

.init_array     0x0800c8f8        0x4
                0x0800c8f8                PROVIDE (__init_array_start = .)
 *(SORT_BY_NAME(.init_array.*))
 *(.init_array*)
 .init_array    0x0800c8f8        0x4 c:/gnu_tool_arm_embedded/bin/../lib/gcc/arm-none-eabi/9.2.1/thumb/v7-m/nofp/crtbegin.o
                0x0800c8fc                PROVIDE (__init_array_end = .)

.fini_array     0x0800c8fc        0x4
                [!provide]                PROVIDE (__fini_array_start = .)
 *(SORT_BY_NAME(.fini_array.*))
 *(.fini_array*)
 .fini_array    0x0800c8fc        0x4 c:/gnu_tool_arm_embedded/bin/../lib/gcc/arm-none-eabi/9.2.1/thumb/v7-m/nofp/crtbegin.o
                [!provide]                PROVIDE (__fini_array_end = .)
                0x0800c900                _sidata = LOADADDR (.data)

.data           0x20000000      0x29c load address 0x0800c900
                0x20000000                . = ALIGN (0x4)
                0x20000000                _sdata = .
 *(.data)
 *(.data*)
 .data.uwTickFreq
                0x20000000        0x1 build/stm32f1xx_hal.o
                0x20000000                uwTickFreq
 *fill*         0x20000001        0x3 
 .data.uwTickPrio
                0x20000004        0x4 build/stm32f1xx_hal.o
                0x20000004                uwTickPrio
 .data.SystemCoreClock
                0x20000008        0x4 build/system_stm32f1xx.o
                0x20000008                SystemCoreClock
 .data.Show_once_Flag.8030
                0x2000000c        0x1 build/System.o
 *fill*         0x2000000d        0x3 
 .data.System   0x20000010        0xc build/System.o
                0x20000010                System
 .data.MyInit   0x2000001c        0x4 build/MyInit.o
                0x2000001c                MyInit
 .data.Software_Version
                0x20000020        0x4 build/MyInit.o
                0x20000020                Software_Version
 .data.LED      0x20000024        0xc build/LED.o
                0x20000024                LED
 .data.EC11_KEY
                0x20000030        0x8 build/KEY.o
                0x20000030                EC11_KEY
 .data.KEY_DOWN
                0x20000038        0x8 build/KEY.o
                0x20000038                KEY_DOWN
 .data.KEY_OUT  0x20000040        0x8 build/KEY.o
                0x20000040                KEY_OUT
 .data.KEY_SET  0x20000048        0x8 build/KEY.o
                0x20000048                KEY_SET
 .data.Key_scan
                0x20000050        0x4 build/KEY.o
                0x20000050                Key_scan
 .data.BELL     0x20000054        0xc build/BELL.o
                0x20000054                BELL
 .data.TFT_LCD  0x20000060       0x20 build/IPS114_LCD.o
                0x20000060                TFT_LCD
 .data.MyADC    0x20000080       0x4c build/MyAdc_Apply.o
                0x20000080                MyADC
 .data._impure_ptr
                0x200000cc        0x4 c:/gnu_tool_arm_embedded/bin/../lib/gcc/arm-none-eabi/9.2.1/../../../../arm-none-eabi/lib/thumb/v7-m/nofp\libc_nano.a(lib_a-impure.o)
                0x200000cc                _impure_ptr
 .data.impure_data
                0x200000d0       0x60 c:/gnu_tool_arm_embedded/bin/../lib/gcc/arm-none-eabi/9.2.1/../../../../arm-none-eabi/lib/thumb/v7-m/nofp\libc_nano.a(lib_a-impure.o)
 .data.__global_locale
                0x20000130      0x16c c:/gnu_tool_arm_embedded/bin/../lib/gcc/arm-none-eabi/9.2.1/../../../../arm-none-eabi/lib/thumb/v7-m/nofp\libc_nano.a(lib_a-locale.o)
                0x20000130                __global_locale
                0x2000029c                . = ALIGN (0x4)
                0x2000029c                _edata = .

.igot.plt       0x2000029c        0x0 load address 0x0800cb9c
 .igot.plt      0x2000029c        0x0 c:/gnu_tool_arm_embedded/bin/../lib/gcc/arm-none-eabi/9.2.1/thumb/v7-m/nofp/crtbegin.o
                0x2000029c                . = ALIGN (0x4)

.bss            0x2000029c      0x228 load address 0x0800cb9c
                0x2000029c                _sbss = .
                0x2000029c                __bss_start__ = _sbss
 *(.bss)
 .bss           0x2000029c       0x1c c:/gnu_tool_arm_embedded/bin/../lib/gcc/arm-none-eabi/9.2.1/thumb/v7-m/nofp/crtbegin.o
 *(.bss*)
 .bss.device    0x200002b8        0x2 build/Vi_control.o
                0x200002b8                device
 *fill*         0x200002ba        0x2 
 .bss.__malloc_free_list
                0x200002bc        0x4 c:/gnu_tool_arm_embedded/bin/../lib/gcc/arm-none-eabi/9.2.1/../../../../arm-none-eabi/lib/thumb/v7-m/nofp\libc_nano.a(lib_a-nano-mallocr.o)
                0x200002bc                __malloc_free_list
 .bss.__malloc_sbrk_start
                0x200002c0        0x4 c:/gnu_tool_arm_embedded/bin/../lib/gcc/arm-none-eabi/9.2.1/../../../../arm-none-eabi/lib/thumb/v7-m/nofp\libc_nano.a(lib_a-nano-mallocr.o)
                0x200002c0                __malloc_sbrk_start
 .bss.heap_end.4144
                0x200002c4        0x4 c:/gnu_tool_arm_embedded/bin/../lib/gcc/arm-none-eabi/9.2.1/../../../../arm-none-eabi/lib/thumb/v7-m/nofp\libnosys.a(sbrk.o)
 *(COMMON)
 COMMON         0x200002c8        0x4 build/stm32f1xx_hal.o
                0x200002c8                uwTick
 COMMON         0x200002cc       0x44 build/usart.o
                0x200002cc                huart1
 COMMON         0x20000310       0x58 build/spi.o
                0x20000310                hspi1
 COMMON         0x20000368       0xd8 build/tim.o
                0x20000368                htim3
                0x200003b0                htim1
                0x200003f8                htim2
 COMMON         0x20000440       0x74 build/adc.o
                0x20000440                hadc1
                0x20000470                hdma_adc1
 COMMON         0x200004b4        0x9 c:/gnu_tool_arm_embedded/bin/../lib/gcc/arm-none-eabi/9.2.1/../../../../arm-none-eabi/lib/thumb/v7-m/nofp\libc_nano.a(lib_a-lock.o)
                0x200004b4                __lock___atexit_recursive_mutex
                0x200004b5                __lock___arc4random_mutex
                0x200004b6                __lock___env_recursive_mutex
                0x200004b7                __lock___sinit_recursive_mutex
                0x200004b8                __lock___malloc_recursive_mutex
                0x200004b9                __lock___at_quick_exit_mutex
                0x200004ba                __lock___dd_hash_mutex
                0x200004bb                __lock___tz_mutex
                0x200004bc                __lock___sfp_recursive_mutex
 *fill*         0x200004bd        0x3 
 COMMON         0x200004c0        0x4 c:/gnu_tool_arm_embedded/bin/../lib/gcc/arm-none-eabi/9.2.1/../../../../arm-none-eabi/lib/thumb/v7-m/nofp\libc_nano.a(lib_a-reent.o)
                0x200004c0                errno
                0x200004c4                . = ALIGN (0x4)
                0x200004c4                _ebss = .
                0x200004c4                __bss_end__ = _ebss

._user_heap_stack
                0x200004c4      0x604 load address 0x0800cb9c
                0x200004c8                . = ALIGN (0x8)
 *fill*         0x200004c4        0x4 
                0x200004c8                PROVIDE (end = .)
                [!provide]                PROVIDE (_end = .)
                0x200006c8                . = (. + _Min_Heap_Size)
 *fill*         0x200004c8      0x200 
                0x20000ac8                . = (. + _Min_Stack_Size)
 *fill*         0x200006c8      0x400 
                0x20000ac8                . = ALIGN (0x8)

/DISCARD/
 libc.a(*)
 libm.a(*)
 libgcc.a(*)

.ARM.attributes
                0x00000000       0x29
 *(.ARM.attributes)
 .ARM.attributes
                0x00000000       0x1d c:/gnu_tool_arm_embedded/bin/../lib/gcc/arm-none-eabi/9.2.1/thumb/v7-m/nofp/crti.o
 .ARM.attributes
                0x0000001d       0x2d c:/gnu_tool_arm_embedded/bin/../lib/gcc/arm-none-eabi/9.2.1/thumb/v7-m/nofp/crtbegin.o
 .ARM.attributes
                0x0000004a       0x2d build/main.o
 .ARM.attributes
                0x00000077       0x2d build/gpio.o
 .ARM.attributes
                0x000000a4       0x2d build/stm32f1xx_it.o
 .ARM.attributes
                0x000000d1       0x2d build/stm32f1xx_hal_msp.o
 .ARM.attributes
                0x000000fe       0x2d build/stm32f1xx_hal_tim.o
 .ARM.attributes
                0x0000012b       0x2d build/stm32f1xx_hal_tim_ex.o
 .ARM.attributes
                0x00000158       0x2d build/stm32f1xx_hal.o
 .ARM.attributes
                0x00000185       0x2d build/stm32f1xx_hal_rcc.o
 .ARM.attributes
                0x000001b2       0x2d build/stm32f1xx_hal_rcc_ex.o
 .ARM.attributes
                0x000001df       0x2d build/stm32f1xx_hal_gpio.o
 .ARM.attributes
                0x0000020c       0x2d build/stm32f1xx_hal_dma.o
 .ARM.attributes
                0x00000239       0x2d build/stm32f1xx_hal_cortex.o
 .ARM.attributes
                0x00000266       0x2d build/system_stm32f1xx.o
 .ARM.attributes
                0x00000293       0x2d build/usart.o
 .ARM.attributes
                0x000002c0       0x2d build/stm32f1xx_hal_uart.o
 .ARM.attributes
                0x000002ed       0x2d build/spi.o
 .ARM.attributes
                0x0000031a       0x2d build/stm32f1xx_hal_spi.o
 .ARM.attributes
                0x00000347       0x2d build/dma.o
 .ARM.attributes
                0x00000374       0x2d build/tim.o
 .ARM.attributes
                0x000003a1       0x2d build/adc.o
 .ARM.attributes
                0x000003ce       0x2d build/stm32f1xx_hal_adc.o
 .ARM.attributes
                0x000003fb       0x2d build/stm32f1xx_hal_adc_ex.o
 .ARM.attributes
                0x00000428       0x2d build/System.o
 .ARM.attributes
                0x00000455       0x2d build/MyInit.o
 .ARM.attributes
                0x00000482       0x2d build/CallBack.o
 .ARM.attributes
                0x000004af       0x2d build/MyPrintf.o
 .ARM.attributes
                0x000004dc       0x2d build/LED.o
 .ARM.attributes
                0x00000509       0x2d build/KEY.o
 .ARM.attributes
                0x00000536       0x2d build/BELL.o
 .ARM.attributes
                0x00000563       0x2d build/IPS114_LCD.o
 .ARM.attributes
                0x00000590       0x2d build/MyAdc_Apply.o
 .ARM.attributes
                0x000005bd       0x33 build/Vi_control.o
 .ARM.attributes
                0x000005f0       0x21 build/startup_stm32f103xb.o
 .ARM.attributes
                0x00000611       0x2d c:/gnu_tool_arm_embedded/bin/../lib/gcc/arm-none-eabi/9.2.1/../../../../arm-none-eabi/lib/thumb/v7-m/nofp\libc_nano.a(lib_a-impure.o)
 .ARM.attributes
                0x0000063e       0x2d c:/gnu_tool_arm_embedded/bin/../lib/gcc/arm-none-eabi/9.2.1/../../../../arm-none-eabi/lib/thumb/v7-m/nofp\libc_nano.a(lib_a-init.o)
 .ARM.attributes
                0x0000066b       0x2d c:/gnu_tool_arm_embedded/bin/../lib/gcc/arm-none-eabi/9.2.1/../../../../arm-none-eabi/lib/thumb/v7-m/nofp\libc_nano.a(lib_a-memset.o)
 .ARM.attributes
                0x00000698       0x2d c:/gnu_tool_arm_embedded/bin/../lib/gcc/arm-none-eabi/9.2.1/../../../../arm-none-eabi/lib/thumb/v7-m/nofp\libc_nano.a(lib_a-nano-vfprintf_float.o)
 .ARM.attributes
                0x000006c5       0x2d c:/gnu_tool_arm_embedded/bin/../lib/gcc/arm-none-eabi/9.2.1/../../../../arm-none-eabi/lib/thumb/v7-m/nofp\libc_nano.a(lib_a-nano-vfprintf_i.o)
 .ARM.attributes
                0x000006f2       0x2d c:/gnu_tool_arm_embedded/bin/../lib/gcc/arm-none-eabi/9.2.1/../../../../arm-none-eabi/lib/thumb/v7-m/nofp\libc_nano.a(lib_a-printf.o)
 .ARM.attributes
                0x0000071f       0x2d c:/gnu_tool_arm_embedded/bin/../lib/gcc/arm-none-eabi/9.2.1/../../../../arm-none-eabi/lib/thumb/v7-m/nofp\libc_nano.a(lib_a-puts.o)
 .ARM.attributes
                0x0000074c       0x17 c:/gnu_tool_arm_embedded/bin/../lib/gcc/arm-none-eabi/9.2.1/../../../../arm-none-eabi/lib/thumb/v7-m/nofp\libc_nano.a(lib_a-strlen.o)
 .ARM.attributes
                0x00000763       0x2d c:/gnu_tool_arm_embedded/bin/../lib/gcc/arm-none-eabi/9.2.1/../../../../arm-none-eabi/lib/thumb/v7-m/nofp\libc_nano.a(lib_a-wbuf.o)
 .ARM.attributes
                0x00000790       0x2d c:/gnu_tool_arm_embedded/bin/../lib/gcc/arm-none-eabi/9.2.1/../../../../arm-none-eabi/lib/thumb/v7-m/nofp\libc_nano.a(lib_a-wsetup.o)
 .ARM.attributes
                0x000007bd       0x2d c:/gnu_tool_arm_embedded/bin/../lib/gcc/arm-none-eabi/9.2.1/../../../../arm-none-eabi/lib/thumb/v7-m/nofp\libc_nano.a(lib_a-dtoa.o)
 .ARM.attributes
                0x000007ea       0x2d c:/gnu_tool_arm_embedded/bin/../lib/gcc/arm-none-eabi/9.2.1/../../../../arm-none-eabi/lib/thumb/v7-m/nofp\libc_nano.a(lib_a-fflush.o)
 .ARM.attributes
                0x00000817       0x2d c:/gnu_tool_arm_embedded/bin/../lib/gcc/arm-none-eabi/9.2.1/../../../../arm-none-eabi/lib/thumb/v7-m/nofp\libc_nano.a(lib_a-findfp.o)
 .ARM.attributes
                0x00000844       0x2d c:/gnu_tool_arm_embedded/bin/../lib/gcc/arm-none-eabi/9.2.1/../../../../arm-none-eabi/lib/thumb/v7-m/nofp\libc_nano.a(lib_a-fwalk.o)
 .ARM.attributes
                0x00000871       0x2d c:/gnu_tool_arm_embedded/bin/../lib/gcc/arm-none-eabi/9.2.1/../../../../arm-none-eabi/lib/thumb/v7-m/nofp\libc_nano.a(lib_a-localeconv.o)
 .ARM.attributes
                0x0000089e       0x2d c:/gnu_tool_arm_embedded/bin/../lib/gcc/arm-none-eabi/9.2.1/../../../../arm-none-eabi/lib/thumb/v7-m/nofp\libc_nano.a(lib_a-lock.o)
 .ARM.attributes
                0x000008cb       0x2d c:/gnu_tool_arm_embedded/bin/../lib/gcc/arm-none-eabi/9.2.1/../../../../arm-none-eabi/lib/thumb/v7-m/nofp\libc_nano.a(lib_a-makebuf.o)
 .ARM.attributes
                0x000008f8       0x2d c:/gnu_tool_arm_embedded/bin/../lib/gcc/arm-none-eabi/9.2.1/../../../../arm-none-eabi/lib/thumb/v7-m/nofp\libc_nano.a(lib_a-malloc.o)
 .ARM.attributes
                0x00000925       0x2d c:/gnu_tool_arm_embedded/bin/../lib/gcc/arm-none-eabi/9.2.1/../../../../arm-none-eabi/lib/thumb/v7-m/nofp\libc_nano.a(lib_a-memchr-stub.o)
 .ARM.attributes
                0x00000952       0x2d c:/gnu_tool_arm_embedded/bin/../lib/gcc/arm-none-eabi/9.2.1/../../../../arm-none-eabi/lib/thumb/v7-m/nofp\libc_nano.a(lib_a-memcpy-stub.o)
 .ARM.attributes
                0x0000097f       0x2d c:/gnu_tool_arm_embedded/bin/../lib/gcc/arm-none-eabi/9.2.1/../../../../arm-none-eabi/lib/thumb/v7-m/nofp\libc_nano.a(lib_a-mprec.o)
 .ARM.attributes
                0x000009ac       0x2d c:/gnu_tool_arm_embedded/bin/../lib/gcc/arm-none-eabi/9.2.1/../../../../arm-none-eabi/lib/thumb/v7-m/nofp\libc_nano.a(lib_a-nano-callocr.o)
 .ARM.attributes
                0x000009d9       0x2d c:/gnu_tool_arm_embedded/bin/../lib/gcc/arm-none-eabi/9.2.1/../../../../arm-none-eabi/lib/thumb/v7-m/nofp\libc_nano.a(lib_a-nano-freer.o)
 .ARM.attributes
                0x00000a06       0x2d c:/gnu_tool_arm_embedded/bin/../lib/gcc/arm-none-eabi/9.2.1/../../../../arm-none-eabi/lib/thumb/v7-m/nofp\libc_nano.a(lib_a-nano-mallocr.o)
 .ARM.attributes
                0x00000a33       0x2d c:/gnu_tool_arm_embedded/bin/../lib/gcc/arm-none-eabi/9.2.1/../../../../arm-none-eabi/lib/thumb/v7-m/nofp\libc_nano.a(lib_a-nano-vfprintf.o)
 .ARM.attributes
                0x00000a60       0x2d c:/gnu_tool_arm_embedded/bin/../lib/gcc/arm-none-eabi/9.2.1/../../../../arm-none-eabi/lib/thumb/v7-m/nofp\libc_nano.a(lib_a-sbrkr.o)
 .ARM.attributes
                0x00000a8d       0x2d c:/gnu_tool_arm_embedded/bin/../lib/gcc/arm-none-eabi/9.2.1/../../../../arm-none-eabi/lib/thumb/v7-m/nofp\libc_nano.a(lib_a-stdio.o)
 .ARM.attributes
                0x00000aba       0x2d c:/gnu_tool_arm_embedded/bin/../lib/gcc/arm-none-eabi/9.2.1/../../../../arm-none-eabi/lib/thumb/v7-m/nofp\libc_nano.a(lib_a-writer.o)
 .ARM.attributes
                0x00000ae7       0x2d c:/gnu_tool_arm_embedded/bin/../lib/gcc/arm-none-eabi/9.2.1/../../../../arm-none-eabi/lib/thumb/v7-m/nofp\libc_nano.a(lib_a-closer.o)
 .ARM.attributes
                0x00000b14       0x2d c:/gnu_tool_arm_embedded/bin/../lib/gcc/arm-none-eabi/9.2.1/../../../../arm-none-eabi/lib/thumb/v7-m/nofp\libc_nano.a(lib_a-fstatr.o)
 .ARM.attributes
                0x00000b41       0x2d c:/gnu_tool_arm_embedded/bin/../lib/gcc/arm-none-eabi/9.2.1/../../../../arm-none-eabi/lib/thumb/v7-m/nofp\libc_nano.a(lib_a-isattyr.o)
 .ARM.attributes
                0x00000b6e       0x2d c:/gnu_tool_arm_embedded/bin/../lib/gcc/arm-none-eabi/9.2.1/../../../../arm-none-eabi/lib/thumb/v7-m/nofp\libc_nano.a(lib_a-locale.o)
 .ARM.attributes
                0x00000b9b       0x2d c:/gnu_tool_arm_embedded/bin/../lib/gcc/arm-none-eabi/9.2.1/../../../../arm-none-eabi/lib/thumb/v7-m/nofp\libc_nano.a(lib_a-lseekr.o)
 .ARM.attributes
                0x00000bc8       0x2d c:/gnu_tool_arm_embedded/bin/../lib/gcc/arm-none-eabi/9.2.1/../../../../arm-none-eabi/lib/thumb/v7-m/nofp\libc_nano.a(lib_a-mbtowc_r.o)
 .ARM.attributes
                0x00000bf5       0x2d c:/gnu_tool_arm_embedded/bin/../lib/gcc/arm-none-eabi/9.2.1/../../../../arm-none-eabi/lib/thumb/v7-m/nofp\libc_nano.a(lib_a-mlock.o)
 .ARM.attributes
                0x00000c22       0x2d c:/gnu_tool_arm_embedded/bin/../lib/gcc/arm-none-eabi/9.2.1/../../../../arm-none-eabi/lib/thumb/v7-m/nofp\libc_nano.a(lib_a-readr.o)
 .ARM.attributes
                0x00000c4f       0x2d c:/gnu_tool_arm_embedded/bin/../lib/gcc/arm-none-eabi/9.2.1/../../../../arm-none-eabi/lib/thumb/v7-m/nofp\libc_nano.a(lib_a-reent.o)
 .ARM.attributes
                0x00000c7c       0x2d c:/gnu_tool_arm_embedded/bin/../lib/gcc/arm-none-eabi/9.2.1/../../../../arm-none-eabi/lib/thumb/v7-m/nofp\libc_nano.a(lib_a-wctomb_r.o)
 .ARM.attributes
                0x00000ca9       0x2d c:/gnu_tool_arm_embedded/bin/../lib/gcc/arm-none-eabi/9.2.1/../../../../arm-none-eabi/lib/thumb/v7-m/nofp\libc_nano.a(lib_a-ctype_.o)
 .ARM.attributes
                0x00000cd6       0x2d c:/gnu_tool_arm_embedded/bin/../lib/gcc/arm-none-eabi/9.2.1/../../../../arm-none-eabi/lib/thumb/v7-m/nofp\libnosys.a(close.o)
 .ARM.attributes
                0x00000d03       0x2d c:/gnu_tool_arm_embedded/bin/../lib/gcc/arm-none-eabi/9.2.1/../../../../arm-none-eabi/lib/thumb/v7-m/nofp\libnosys.a(fstat.o)
 .ARM.attributes
                0x00000d30       0x2d c:/gnu_tool_arm_embedded/bin/../lib/gcc/arm-none-eabi/9.2.1/../../../../arm-none-eabi/lib/thumb/v7-m/nofp\libnosys.a(isatty.o)
 .ARM.attributes
                0x00000d5d       0x2d c:/gnu_tool_arm_embedded/bin/../lib/gcc/arm-none-eabi/9.2.1/../../../../arm-none-eabi/lib/thumb/v7-m/nofp\libnosys.a(lseek.o)
 .ARM.attributes
                0x00000d8a       0x2d c:/gnu_tool_arm_embedded/bin/../lib/gcc/arm-none-eabi/9.2.1/../../../../arm-none-eabi/lib/thumb/v7-m/nofp\libnosys.a(read.o)
 .ARM.attributes
                0x00000db7       0x2d c:/gnu_tool_arm_embedded/bin/../lib/gcc/arm-none-eabi/9.2.1/../../../../arm-none-eabi/lib/thumb/v7-m/nofp\libnosys.a(sbrk.o)
 .ARM.attributes
                0x00000de4       0x1d c:/gnu_tool_arm_embedded/bin/../lib/gcc/arm-none-eabi/9.2.1/thumb/v7-m/nofp\libgcc.a(_arm_mulsf3.o)
 .ARM.attributes
                0x00000e01       0x1d c:/gnu_tool_arm_embedded/bin/../lib/gcc/arm-none-eabi/9.2.1/thumb/v7-m/nofp\libgcc.a(_arm_addsubdf3.o)
 .ARM.attributes
                0x00000e1e       0x1d c:/gnu_tool_arm_embedded/bin/../lib/gcc/arm-none-eabi/9.2.1/thumb/v7-m/nofp\libgcc.a(_arm_muldivdf3.o)
 .ARM.attributes
                0x00000e3b       0x1d c:/gnu_tool_arm_embedded/bin/../lib/gcc/arm-none-eabi/9.2.1/thumb/v7-m/nofp\libgcc.a(_arm_cmpdf2.o)
 .ARM.attributes
                0x00000e58       0x1d c:/gnu_tool_arm_embedded/bin/../lib/gcc/arm-none-eabi/9.2.1/thumb/v7-m/nofp\libgcc.a(_arm_unorddf2.o)
 .ARM.attributes
                0x00000e75       0x1d c:/gnu_tool_arm_embedded/bin/../lib/gcc/arm-none-eabi/9.2.1/thumb/v7-m/nofp\libgcc.a(_arm_fixdfsi.o)
 .ARM.attributes
                0x00000e92       0x1d c:/gnu_tool_arm_embedded/bin/../lib/gcc/arm-none-eabi/9.2.1/thumb/v7-m/nofp\libgcc.a(_arm_truncdfsf2.o)
 .ARM.attributes
                0x00000eaf       0x1d c:/gnu_tool_arm_embedded/bin/../lib/gcc/arm-none-eabi/9.2.1/thumb/v7-m/nofp\libgcc.a(_arm_addsubsf3.o)
 .ARM.attributes
                0x00000ecc       0x1d c:/gnu_tool_arm_embedded/bin/../lib/gcc/arm-none-eabi/9.2.1/thumb/v7-m/nofp\libgcc.a(_arm_cmpsf2.o)
 .ARM.attributes
                0x00000ee9       0x1d c:/gnu_tool_arm_embedded/bin/../lib/gcc/arm-none-eabi/9.2.1/thumb/v7-m/nofp\libgcc.a(_arm_fixunssfsi.o)
 .ARM.attributes
                0x00000f06       0x1d c:/gnu_tool_arm_embedded/bin/../lib/gcc/arm-none-eabi/9.2.1/thumb/v7-m/nofp/crtn.o
OUTPUT(build/STM32_BUCK_V1.0.elf elf32-littlearm)

.debug_info     0x00000000    0x2f625
 .debug_info    0x00000000     0x2336 build/main.o
 .debug_info    0x00002336      0x6ce build/gpio.o
 .debug_info    0x00002a04      0x962 build/stm32f1xx_it.o
 .debug_info    0x00003366      0x358 build/stm32f1xx_hal_msp.o
 .debug_info    0x000036be     0x54ea build/stm32f1xx_hal_tim.o
 .debug_info    0x00008ba8     0x2234 build/stm32f1xx_hal_tim_ex.o
 .debug_info    0x0000addc      0x911 build/stm32f1xx_hal.o
 .debug_info    0x0000b6ed      0xe12 build/stm32f1xx_hal_rcc.o
 .debug_info    0x0000c4ff      0x5e3 build/stm32f1xx_hal_rcc_ex.o
 .debug_info    0x0000cae2      0x9fa build/stm32f1xx_hal_gpio.o
 .debug_info    0x0000d4dc      0xb21 build/stm32f1xx_hal_dma.o
 .debug_info    0x0000dffd     0x105f build/stm32f1xx_hal_cortex.o
 .debug_info    0x0000f05c      0x2f7 build/system_stm32f1xx.o
 .debug_info    0x0000f353      0x9bd build/usart.o
 .debug_info    0x0000fd10     0x2170 build/stm32f1xx_hal_uart.o
 .debug_info    0x00011e80      0x9f8 build/spi.o
 .debug_info    0x00012878     0x2290 build/stm32f1xx_hal_spi.o
 .debug_info    0x00014b08      0x276 build/dma.o
 .debug_info    0x00014d7e     0x12d1 build/tim.o
 .debug_info    0x0001604f      0xac7 build/adc.o
 .debug_info    0x00016b16     0x14c3 build/stm32f1xx_hal_adc.o
 .debug_info    0x00017fd9     0x10c5 build/stm32f1xx_hal_adc_ex.o
 .debug_info    0x0001909e     0x244a build/System.o
 .debug_info    0x0001b4e8     0x2081 build/MyInit.o
 .debug_info    0x0001d569     0x1fe7 build/CallBack.o
 .debug_info    0x0001f550     0x201d build/MyPrintf.o
 .debug_info    0x0002156d     0x223c build/LED.o
 .debug_info    0x000237a9     0x2561 build/KEY.o
 .debug_info    0x00025d0a     0x20bc build/BELL.o
 .debug_info    0x00027dc6     0x388a build/IPS114_LCD.o
 .debug_info    0x0002b650     0x2050 build/MyAdc_Apply.o
 .debug_info    0x0002d6a0     0x1f63 build/Vi_control.o
 .debug_info    0x0002f603       0x22 build/startup_stm32f103xb.o

.debug_abbrev   0x00000000     0x4c26
 .debug_abbrev  0x00000000      0x2ec build/main.o
 .debug_abbrev  0x000002ec      0x19b build/gpio.o
 .debug_abbrev  0x00000487      0x1ce build/stm32f1xx_it.o
 .debug_abbrev  0x00000655      0x154 build/stm32f1xx_hal_msp.o
 .debug_abbrev  0x000007a9      0x2c3 build/stm32f1xx_hal_tim.o
 .debug_abbrev  0x00000a6c      0x2ab build/stm32f1xx_hal_tim_ex.o
 .debug_abbrev  0x00000d17      0x21c build/stm32f1xx_hal.o
 .debug_abbrev  0x00000f33      0x291 build/stm32f1xx_hal_rcc.o
 .debug_abbrev  0x000011c4      0x221 build/stm32f1xx_hal_rcc_ex.o
 .debug_abbrev  0x000013e5      0x26e build/stm32f1xx_hal_gpio.o
 .debug_abbrev  0x00001653      0x290 build/stm32f1xx_hal_dma.o
 .debug_abbrev  0x000018e3      0x39f build/stm32f1xx_hal_cortex.o
 .debug_abbrev  0x00001c82      0x153 build/system_stm32f1xx.o
 .debug_abbrev  0x00001dd5      0x1f1 build/usart.o
 .debug_abbrev  0x00001fc6      0x2ea build/stm32f1xx_hal_uart.o
 .debug_abbrev  0x000022b0      0x1f1 build/spi.o
 .debug_abbrev  0x000024a1      0x2be build/stm32f1xx_hal_spi.o
 .debug_abbrev  0x0000275f      0x111 build/dma.o
 .debug_abbrev  0x00002870      0x2bb build/tim.o
 .debug_abbrev  0x00002b2b      0x1f9 build/adc.o
 .debug_abbrev  0x00002d24      0x265 build/stm32f1xx_hal_adc.o
 .debug_abbrev  0x00002f89      0x287 build/stm32f1xx_hal_adc_ex.o
 .debug_abbrev  0x00003210      0x2c9 build/System.o
 .debug_abbrev  0x000034d9      0x29d build/MyInit.o
 .debug_abbrev  0x00003776      0x26d build/CallBack.o
 .debug_abbrev  0x000039e3      0x288 build/MyPrintf.o
 .debug_abbrev  0x00003c6b      0x26d build/LED.o
 .debug_abbrev  0x00003ed8      0x2d0 build/KEY.o
 .debug_abbrev  0x000041a8      0x24c build/BELL.o
 .debug_abbrev  0x000043f4      0x36b build/IPS114_LCD.o
 .debug_abbrev  0x0000475f      0x2b4 build/MyAdc_Apply.o
 .debug_abbrev  0x00004a13      0x201 build/Vi_control.o
 .debug_abbrev  0x00004c14       0x12 build/startup_stm32f103xb.o

.debug_loc      0x00000000    0x1006d
 .debug_loc     0x00000000       0xf0 build/main.o
 .debug_loc     0x000000f0       0x39 build/gpio.o
 .debug_loc     0x00000129       0x80 build/stm32f1xx_it.o
 .debug_loc     0x000001a9       0x4d build/stm32f1xx_hal_msp.o
 .debug_loc     0x000001f6     0x4076 build/stm32f1xx_hal_tim.o
 .debug_loc     0x0000426c     0x19cd build/stm32f1xx_hal_tim_ex.o
 .debug_loc     0x00005c39      0x1d0 build/stm32f1xx_hal.o
 .debug_loc     0x00005e09      0x8ea build/stm32f1xx_hal_rcc.o
 .debug_loc     0x000066f3      0x40a build/stm32f1xx_hal_rcc_ex.o
 .debug_loc     0x00006afd      0x6c5 build/stm32f1xx_hal_gpio.o
 .debug_loc     0x000071c2      0x85b build/stm32f1xx_hal_dma.o
 .debug_loc     0x00007a1d      0xa2d build/stm32f1xx_hal_cortex.o
 .debug_loc     0x0000844a       0xff build/system_stm32f1xx.o
 .debug_loc     0x00008549      0x108 build/usart.o
 .debug_loc     0x00008651     0x25f6 build/stm32f1xx_hal_uart.o
 .debug_loc     0x0000ac47      0x108 build/spi.o
 .debug_loc     0x0000ad4f     0x2115 build/stm32f1xx_hal_spi.o
 .debug_loc     0x0000ce64       0x2c build/dma.o
 .debug_loc     0x0000ce90      0x2ba build/tim.o
 .debug_loc     0x0000d14a      0x119 build/adc.o
 .debug_loc     0x0000d263      0xc92 build/stm32f1xx_hal_adc.o
 .debug_loc     0x0000def5      0x90d build/stm32f1xx_hal_adc_ex.o
 .debug_loc     0x0000e802       0x90 build/System.o
 .debug_loc     0x0000e892       0x20 build/MyInit.o
 .debug_loc     0x0000e8b2       0xc4 build/CallBack.o
 .debug_loc     0x0000e976      0x123 build/MyPrintf.o
 .debug_loc     0x0000ea99       0xcf build/LED.o
 .debug_loc     0x0000eb68      0x154 build/KEY.o
 .debug_loc     0x0000ecbc       0x60 build/BELL.o
 .debug_loc     0x0000ed1c     0x12bd build/IPS114_LCD.o
 .debug_loc     0x0000ffd9       0x94 build/MyAdc_Apply.o

.debug_aranges  0x00000000     0x11e8
 .debug_aranges
                0x00000000       0x38 build/main.o
 .debug_aranges
                0x00000038       0x20 build/gpio.o
 .debug_aranges
                0x00000058       0x78 build/stm32f1xx_it.o
 .debug_aranges
                0x000000d0       0x20 build/stm32f1xx_hal_msp.o
 .debug_aranges
                0x000000f0      0x3d0 build/stm32f1xx_hal_tim.o
 .debug_aranges
                0x000004c0      0x168 build/stm32f1xx_hal_tim_ex.o
 .debug_aranges
                0x00000628       0xe0 build/stm32f1xx_hal.o
 .debug_aranges
                0x00000708       0x90 build/stm32f1xx_hal_rcc.o
 .debug_aranges
                0x00000798       0x30 build/stm32f1xx_hal_rcc_ex.o
 .debug_aranges
                0x000007c8       0x58 build/stm32f1xx_hal_gpio.o
 .debug_aranges
                0x00000820       0x80 build/stm32f1xx_hal_dma.o
 .debug_aranges
                0x000008a0       0x90 build/stm32f1xx_hal_cortex.o
 .debug_aranges
                0x00000930       0x28 build/system_stm32f1xx.o
 .debug_aranges
                0x00000958       0x30 build/usart.o
 .debug_aranges
                0x00000988      0x200 build/stm32f1xx_hal_uart.o
 .debug_aranges
                0x00000b88       0x30 build/spi.o
 .debug_aranges
                0x00000bb8      0x1d0 build/stm32f1xx_hal_spi.o
 .debug_aranges
                0x00000d88       0x20 build/dma.o
 .debug_aranges
                0x00000da8       0x58 build/tim.o
 .debug_aranges
                0x00000e00       0x30 build/adc.o
 .debug_aranges
                0x00000e30       0xf0 build/stm32f1xx_hal_adc.o
 .debug_aranges
                0x00000f20       0x80 build/stm32f1xx_hal_adc_ex.o
 .debug_aranges
                0x00000fa0       0x38 build/System.o
 .debug_aranges
                0x00000fd8       0x20 build/MyInit.o
 .debug_aranges
                0x00000ff8       0x28 build/CallBack.o
 .debug_aranges
                0x00001020       0x28 build/MyPrintf.o
 .debug_aranges
                0x00001048       0x30 build/LED.o
 .debug_aranges
                0x00001078       0x40 build/KEY.o
 .debug_aranges
                0x000010b8       0x30 build/BELL.o
 .debug_aranges
                0x000010e8       0x98 build/IPS114_LCD.o
 .debug_aranges
                0x00001180       0x28 build/MyAdc_Apply.o
 .debug_aranges
                0x000011a8       0x18 build/Vi_control.o
 .debug_aranges
                0x000011c0       0x28 build/startup_stm32f103xb.o

.debug_ranges   0x00000000     0x10a0
 .debug_ranges  0x00000000       0x28 build/main.o
 .debug_ranges  0x00000028       0x10 build/gpio.o
 .debug_ranges  0x00000038       0x68 build/stm32f1xx_it.o
 .debug_ranges  0x000000a0       0x10 build/stm32f1xx_hal_msp.o
 .debug_ranges  0x000000b0      0x3c0 build/stm32f1xx_hal_tim.o
 .debug_ranges  0x00000470      0x158 build/stm32f1xx_hal_tim_ex.o
 .debug_ranges  0x000005c8       0xd0 build/stm32f1xx_hal.o
 .debug_ranges  0x00000698       0xa0 build/stm32f1xx_hal_rcc.o
 .debug_ranges  0x00000738       0x38 build/stm32f1xx_hal_rcc_ex.o
 .debug_ranges  0x00000770       0x48 build/stm32f1xx_hal_gpio.o
 .debug_ranges  0x000007b8       0x70 build/stm32f1xx_hal_dma.o
 .debug_ranges  0x00000828      0x110 build/stm32f1xx_hal_cortex.o
 .debug_ranges  0x00000938       0x18 build/system_stm32f1xx.o
 .debug_ranges  0x00000950       0x20 build/usart.o
 .debug_ranges  0x00000970      0x1f0 build/stm32f1xx_hal_uart.o
 .debug_ranges  0x00000b60       0x20 build/spi.o
 .debug_ranges  0x00000b80      0x1c0 build/stm32f1xx_hal_spi.o
 .debug_ranges  0x00000d40       0x10 build/dma.o
 .debug_ranges  0x00000d50       0x48 build/tim.o
 .debug_ranges  0x00000d98       0x20 build/adc.o
 .debug_ranges  0x00000db8       0xe0 build/stm32f1xx_hal_adc.o
 .debug_ranges  0x00000e98       0x70 build/stm32f1xx_hal_adc_ex.o
 .debug_ranges  0x00000f08       0x28 build/System.o
 .debug_ranges  0x00000f30       0x10 build/MyInit.o
 .debug_ranges  0x00000f40       0x18 build/CallBack.o
 .debug_ranges  0x00000f58       0x18 build/MyPrintf.o
 .debug_ranges  0x00000f70       0x20 build/LED.o
 .debug_ranges  0x00000f90       0x30 build/KEY.o
 .debug_ranges  0x00000fc0       0x20 build/BELL.o
 .debug_ranges  0x00000fe0       0x88 build/IPS114_LCD.o
 .debug_ranges  0x00001068       0x18 build/MyAdc_Apply.o
 .debug_ranges  0x00001080       0x20 build/startup_stm32f103xb.o

.debug_line     0x00000000    0x161c3
 .debug_line    0x00000000      0x4dd build/main.o
 .debug_line    0x000004dd      0x282 build/gpio.o
 .debug_line    0x0000075f      0x322 build/stm32f1xx_it.o
 .debug_line    0x00000a81      0x1b6 build/stm32f1xx_hal_msp.o
 .debug_line    0x00000c37     0x5636 build/stm32f1xx_hal_tim.o
 .debug_line    0x0000626d     0x1ef3 build/stm32f1xx_hal_tim_ex.o
 .debug_line    0x00008160      0x516 build/stm32f1xx_hal.o
 .debug_line    0x00008676      0xdc6 build/stm32f1xx_hal_rcc.o
 .debug_line    0x0000943c      0x4f9 build/stm32f1xx_hal_rcc_ex.o
 .debug_line    0x00009935      0x71e build/stm32f1xx_hal_gpio.o
 .debug_line    0x0000a053      0xb55 build/stm32f1xx_hal_dma.o
 .debug_line    0x0000aba8      0x720 build/stm32f1xx_hal_cortex.o
 .debug_line    0x0000b2c8      0x24e build/system_stm32f1xx.o
 .debug_line    0x0000b516      0x2f0 build/usart.o
 .debug_line    0x0000b806     0x2215 build/stm32f1xx_hal_uart.o
 .debug_line    0x0000da1b      0x2f0 build/spi.o
 .debug_line    0x0000dd0b     0x25ee build/stm32f1xx_hal_spi.o
 .debug_line    0x000102f9      0x180 build/dma.o
 .debug_line    0x00010479      0x629 build/tim.o
 .debug_line    0x00010aa2      0x389 build/adc.o
 .debug_line    0x00010e2b     0x1050 build/stm32f1xx_hal_adc.o
 .debug_line    0x00011e7b      0xcec build/stm32f1xx_hal_adc_ex.o
 .debug_line    0x00012b67      0x4a3 build/System.o
 .debug_line    0x0001300a      0x399 build/MyInit.o
 .debug_line    0x000133a3      0x3fc build/CallBack.o
 .debug_line    0x0001379f      0x3ba build/MyPrintf.o
 .debug_line    0x00013b59      0x453 build/LED.o
 .debug_line    0x00013fac      0x737 build/KEY.o
 .debug_line    0x000146e3      0x39c build/BELL.o
 .debug_line    0x00014a7f      0xec3 build/IPS114_LCD.o
 .debug_line    0x00015942      0x4ca build/MyAdc_Apply.o
 .debug_line    0x00015e0c      0x342 build/Vi_control.o
 .debug_line    0x0001614e       0x75 build/startup_stm32f103xb.o

.debug_str      0x00000000     0x511b
 .debug_str     0x00000000     0x14e4 build/main.o
                               0x1679 (size before relaxing)
 .debug_str     0x000014e4      0x3cd build/gpio.o
                                0x652 (size before relaxing)
 .debug_str     0x000018b1      0x118 build/stm32f1xx_it.o
                                0x840 (size before relaxing)
 .debug_str     0x000019c9       0x74 build/stm32f1xx_hal_msp.o
                                0x314 (size before relaxing)
 .debug_str     0x00001a3d      0xf2e build/stm32f1xx_hal_tim.o
                               0x171e (size before relaxing)
 .debug_str     0x0000296b      0x591 build/stm32f1xx_hal_tim_ex.o
                                0xf1f (size before relaxing)
 .debug_str     0x00002efc      0x251 build/stm32f1xx_hal.o
                                0x879 (size before relaxing)
 .debug_str     0x0000314d      0x1e2 build/stm32f1xx_hal_rcc.o
                                0x6c8 (size before relaxing)
 .debug_str     0x0000332f       0x9c build/stm32f1xx_hal_rcc_ex.o
                                0x4a7 (size before relaxing)
 .debug_str     0x000033cb      0x10e build/stm32f1xx_hal_gpio.o
                                0x4e6 (size before relaxing)
 .debug_str     0x000034d9      0x20a build/stm32f1xx_hal_dma.o
                                0x6e3 (size before relaxing)
 .debug_str     0x000036e3      0x3a5 build/stm32f1xx_hal_cortex.o
                                0x995 (size before relaxing)
 .debug_str     0x00003a88       0x4f build/system_stm32f1xx.o
                                0x2ee (size before relaxing)
 .debug_str     0x00003ad7       0x4e build/usart.o
                                0x75e (size before relaxing)
 .debug_str     0x00003b25      0x5dd build/stm32f1xx_hal_uart.o
                                0xd62 (size before relaxing)
 .debug_str     0x00004102       0x48 build/spi.o
                                0x751 (size before relaxing)
 .debug_str     0x0000414a      0x510 build/stm32f1xx_hal_spi.o
                                0xc2b (size before relaxing)
 .debug_str     0x0000465a        0xf build/dma.o
                                0x2bb (size before relaxing)
 .debug_str     0x00004669       0x65 build/tim.o
                                0xe63 (size before relaxing)
 .debug_str     0x000046ce       0x7f build/adc.o
                                0x71d (size before relaxing)
 .debug_str     0x0000474d      0x2f5 build/stm32f1xx_hal_adc.o
                                0x997 (size before relaxing)
 .debug_str     0x00004a42      0x28e build/stm32f1xx_hal_adc_ex.o
                                0x962 (size before relaxing)
 .debug_str     0x00004cd0       0x70 build/System.o
                               0x1437 (size before relaxing)
 .debug_str     0x00004d40       0x3e build/MyInit.o
                               0x143c (size before relaxing)
 .debug_str     0x00004d7e       0x19 build/CallBack.o
                               0x1442 (size before relaxing)
 .debug_str     0x00004d97       0x2e build/MyPrintf.o
                               0x140c (size before relaxing)
 .debug_str     0x00004dc5       0x44 build/LED.o
                               0x1463 (size before relaxing)
 .debug_str     0x00004e09       0x65 build/KEY.o
                               0x14b8 (size before relaxing)
 .debug_str     0x00004e6e       0x1f build/BELL.o
                               0x143e (size before relaxing)
 .debug_str     0x00004e8d      0x233 build/IPS114_LCD.o
                               0x1696 (size before relaxing)
 .debug_str     0x000050c0       0x1c build/MyAdc_Apply.o
                               0x142e (size before relaxing)
 .debug_str     0x000050dc       0x1b build/Vi_control.o
                               0x13f5 (size before relaxing)
 .debug_str     0x000050f7       0x24 build/startup_stm32f103xb.o
                                 0x4b (size before relaxing)

.comment        0x00000000       0x79
 .comment       0x00000000       0x79 build/main.o
                                 0x7a (size before relaxing)
 .comment       0x00000079       0x7a build/gpio.o
 .comment       0x00000079       0x7a build/stm32f1xx_it.o
 .comment       0x00000079       0x7a build/stm32f1xx_hal_msp.o
 .comment       0x00000079       0x7a build/stm32f1xx_hal_tim.o
 .comment       0x00000079       0x7a build/stm32f1xx_hal_tim_ex.o
 .comment       0x00000079       0x7a build/stm32f1xx_hal.o
 .comment       0x00000079       0x7a build/stm32f1xx_hal_rcc.o
 .comment       0x00000079       0x7a build/stm32f1xx_hal_rcc_ex.o
 .comment       0x00000079       0x7a build/stm32f1xx_hal_gpio.o
 .comment       0x00000079       0x7a build/stm32f1xx_hal_dma.o
 .comment       0x00000079       0x7a build/stm32f1xx_hal_cortex.o
 .comment       0x00000079       0x7a build/system_stm32f1xx.o
 .comment       0x00000079       0x7a build/usart.o
 .comment       0x00000079       0x7a build/stm32f1xx_hal_uart.o
 .comment       0x00000079       0x7a build/spi.o
 .comment       0x00000079       0x7a build/stm32f1xx_hal_spi.o
 .comment       0x00000079       0x7a build/dma.o
 .comment       0x00000079       0x7a build/tim.o
 .comment       0x00000079       0x7a build/adc.o
 .comment       0x00000079       0x7a build/stm32f1xx_hal_adc.o
 .comment       0x00000079       0x7a build/stm32f1xx_hal_adc_ex.o
 .comment       0x00000079       0x7a build/System.o
 .comment       0x00000079       0x7a build/MyInit.o
 .comment       0x00000079       0x7a build/CallBack.o
 .comment       0x00000079       0x7a build/MyPrintf.o
 .comment       0x00000079       0x7a build/LED.o
 .comment       0x00000079       0x7a build/KEY.o
 .comment       0x00000079       0x7a build/BELL.o
 .comment       0x00000079       0x7a build/IPS114_LCD.o
 .comment       0x00000079       0x7a build/MyAdc_Apply.o
 .comment       0x00000079       0x7a build/Vi_control.o

.debug_frame    0x00000000     0x487c
 .debug_frame   0x00000000       0x84 build/main.o
 .debug_frame   0x00000084       0x40 build/gpio.o
 .debug_frame   0x000000c4      0x100 build/stm32f1xx_it.o
 .debug_frame   0x000001c4       0x2c build/stm32f1xx_hal_msp.o
 .debug_frame   0x000001f0      0xd80 build/stm32f1xx_hal_tim.o
 .debug_frame   0x00000f70      0x514 build/stm32f1xx_hal_tim_ex.o
 .debug_frame   0x00001484      0x1e4 build/stm32f1xx_hal.o
 .debug_frame   0x00001668      0x1e0 build/stm32f1xx_hal_rcc.o
 .debug_frame   0x00001848       0x6c build/stm32f1xx_hal_rcc_ex.o
 .debug_frame   0x000018b4      0x11c build/stm32f1xx_hal_gpio.o
 .debug_frame   0x000019d0      0x188 build/stm32f1xx_hal_dma.o
 .debug_frame   0x00001b58      0x194 build/stm32f1xx_hal_cortex.o
 .debug_frame   0x00001cec       0x30 build/system_stm32f1xx.o
 .debug_frame   0x00001d1c       0x6c build/usart.o
 .debug_frame   0x00001d88      0x698 build/stm32f1xx_hal_uart.o
 .debug_frame   0x00002420       0x68 build/spi.o
 .debug_frame   0x00002488      0x664 build/stm32f1xx_hal_spi.o
 .debug_frame   0x00002aec       0x28 build/dma.o
 .debug_frame   0x00002b14       0xf8 build/tim.o
 .debug_frame   0x00002c0c       0x70 build/adc.o
 .debug_frame   0x00002c7c      0x300 build/stm32f1xx_hal_adc.o
 .debug_frame   0x00002f7c      0x1c8 build/stm32f1xx_hal_adc_ex.o
 .debug_frame   0x00003144       0x88 build/System.o
 .debug_frame   0x000031cc       0x2c build/MyInit.o
 .debug_frame   0x000031f8       0x48 build/CallBack.o
 .debug_frame   0x00003240       0x4c build/MyPrintf.o
 .debug_frame   0x0000328c       0x64 build/LED.o
 .debug_frame   0x000032f0       0xac build/KEY.o
 .debug_frame   0x0000339c       0x64 build/BELL.o
 .debug_frame   0x00003400      0x2a8 build/IPS114_LCD.o
 .debug_frame   0x000036a8       0x5c build/MyAdc_Apply.o
 .debug_frame   0x00003704       0x2c c:/gnu_tool_arm_embedded/bin/../lib/gcc/arm-none-eabi/9.2.1/../../../../arm-none-eabi/lib/thumb/v7-m/nofp\libc_nano.a(lib_a-init.o)
 .debug_frame   0x00003730       0x20 c:/gnu_tool_arm_embedded/bin/../lib/gcc/arm-none-eabi/9.2.1/../../../../arm-none-eabi/lib/thumb/v7-m/nofp\libc_nano.a(lib_a-memset.o)
 .debug_frame   0x00003750       0x94 c:/gnu_tool_arm_embedded/bin/../lib/gcc/arm-none-eabi/9.2.1/../../../../arm-none-eabi/lib/thumb/v7-m/nofp\libc_nano.a(lib_a-nano-vfprintf_float.o)
 .debug_frame   0x000037e4       0x60 c:/gnu_tool_arm_embedded/bin/../lib/gcc/arm-none-eabi/9.2.1/../../../../arm-none-eabi/lib/thumb/v7-m/nofp\libc_nano.a(lib_a-nano-vfprintf_i.o)
 .debug_frame   0x00003844       0x74 c:/gnu_tool_arm_embedded/bin/../lib/gcc/arm-none-eabi/9.2.1/../../../../arm-none-eabi/lib/thumb/v7-m/nofp\libc_nano.a(lib_a-printf.o)
 .debug_frame   0x000038b8       0x3c c:/gnu_tool_arm_embedded/bin/../lib/gcc/arm-none-eabi/9.2.1/../../../../arm-none-eabi/lib/thumb/v7-m/nofp\libc_nano.a(lib_a-puts.o)
 .debug_frame   0x000038f4       0x40 c:/gnu_tool_arm_embedded/bin/../lib/gcc/arm-none-eabi/9.2.1/../../../../arm-none-eabi/lib/thumb/v7-m/nofp\libc_nano.a(lib_a-wbuf.o)
 .debug_frame   0x00003934       0x2c c:/gnu_tool_arm_embedded/bin/../lib/gcc/arm-none-eabi/9.2.1/../../../../arm-none-eabi/lib/thumb/v7-m/nofp\libc_nano.a(lib_a-wsetup.o)
 .debug_frame   0x00003960       0x6c c:/gnu_tool_arm_embedded/bin/../lib/gcc/arm-none-eabi/9.2.1/../../../../arm-none-eabi/lib/thumb/v7-m/nofp\libc_nano.a(lib_a-dtoa.o)
 .debug_frame   0x000039cc       0x5c c:/gnu_tool_arm_embedded/bin/../lib/gcc/arm-none-eabi/9.2.1/../../../../arm-none-eabi/lib/thumb/v7-m/nofp\libc_nano.a(lib_a-fflush.o)
 .debug_frame   0x00003a28      0x14c c:/gnu_tool_arm_embedded/bin/../lib/gcc/arm-none-eabi/9.2.1/../../../../arm-none-eabi/lib/thumb/v7-m/nofp\libc_nano.a(lib_a-findfp.o)
 .debug_frame   0x00003b74       0x54 c:/gnu_tool_arm_embedded/bin/../lib/gcc/arm-none-eabi/9.2.1/../../../../arm-none-eabi/lib/thumb/v7-m/nofp\libc_nano.a(lib_a-fwalk.o)
 .debug_frame   0x00003bc8       0x40 c:/gnu_tool_arm_embedded/bin/../lib/gcc/arm-none-eabi/9.2.1/../../../../arm-none-eabi/lib/thumb/v7-m/nofp\libc_nano.a(lib_a-localeconv.o)
 .debug_frame   0x00003c08       0xb0 c:/gnu_tool_arm_embedded/bin/../lib/gcc/arm-none-eabi/9.2.1/../../../../arm-none-eabi/lib/thumb/v7-m/nofp\libc_nano.a(lib_a-lock.o)
 .debug_frame   0x00003cb8       0x58 c:/gnu_tool_arm_embedded/bin/../lib/gcc/arm-none-eabi/9.2.1/../../../../arm-none-eabi/lib/thumb/v7-m/nofp\libc_nano.a(lib_a-makebuf.o)
 .debug_frame   0x00003d10       0x30 c:/gnu_tool_arm_embedded/bin/../lib/gcc/arm-none-eabi/9.2.1/../../../../arm-none-eabi/lib/thumb/v7-m/nofp\libc_nano.a(lib_a-malloc.o)
 .debug_frame   0x00003d40       0x28 c:/gnu_tool_arm_embedded/bin/../lib/gcc/arm-none-eabi/9.2.1/../../../../arm-none-eabi/lib/thumb/v7-m/nofp\libc_nano.a(lib_a-memchr-stub.o)
 .debug_frame   0x00003d68       0x28 c:/gnu_tool_arm_embedded/bin/../lib/gcc/arm-none-eabi/9.2.1/../../../../arm-none-eabi/lib/thumb/v7-m/nofp\libc_nano.a(lib_a-memcpy-stub.o)
 .debug_frame   0x00003d90      0x254 c:/gnu_tool_arm_embedded/bin/../lib/gcc/arm-none-eabi/9.2.1/../../../../arm-none-eabi/lib/thumb/v7-m/nofp\libc_nano.a(lib_a-mprec.o)
 .debug_frame   0x00003fe4       0x2c c:/gnu_tool_arm_embedded/bin/../lib/gcc/arm-none-eabi/9.2.1/../../../../arm-none-eabi/lib/thumb/v7-m/nofp\libc_nano.a(lib_a-nano-callocr.o)
 .debug_frame   0x00004010       0x38 c:/gnu_tool_arm_embedded/bin/../lib/gcc/arm-none-eabi/9.2.1/../../../../arm-none-eabi/lib/thumb/v7-m/nofp\libc_nano.a(lib_a-nano-freer.o)
 .debug_frame   0x00004048       0x30 c:/gnu_tool_arm_embedded/bin/../lib/gcc/arm-none-eabi/9.2.1/../../../../arm-none-eabi/lib/thumb/v7-m/nofp\libc_nano.a(lib_a-nano-mallocr.o)
 .debug_frame   0x00004078       0xac c:/gnu_tool_arm_embedded/bin/../lib/gcc/arm-none-eabi/9.2.1/../../../../arm-none-eabi/lib/thumb/v7-m/nofp\libc_nano.a(lib_a-nano-vfprintf.o)
 .debug_frame   0x00004124       0x2c c:/gnu_tool_arm_embedded/bin/../lib/gcc/arm-none-eabi/9.2.1/../../../../arm-none-eabi/lib/thumb/v7-m/nofp\libc_nano.a(lib_a-sbrkr.o)
 .debug_frame   0x00004150       0x88 c:/gnu_tool_arm_embedded/bin/../lib/gcc/arm-none-eabi/9.2.1/../../../../arm-none-eabi/lib/thumb/v7-m/nofp\libc_nano.a(lib_a-stdio.o)
 .debug_frame   0x000041d8       0x2c c:/gnu_tool_arm_embedded/bin/../lib/gcc/arm-none-eabi/9.2.1/../../../../arm-none-eabi/lib/thumb/v7-m/nofp\libc_nano.a(lib_a-writer.o)
 .debug_frame   0x00004204       0x2c c:/gnu_tool_arm_embedded/bin/../lib/gcc/arm-none-eabi/9.2.1/../../../../arm-none-eabi/lib/thumb/v7-m/nofp\libc_nano.a(lib_a-closer.o)
 .debug_frame   0x00004230       0x2c c:/gnu_tool_arm_embedded/bin/../lib/gcc/arm-none-eabi/9.2.1/../../../../arm-none-eabi/lib/thumb/v7-m/nofp\libc_nano.a(lib_a-fstatr.o)
 .debug_frame   0x0000425c       0x2c c:/gnu_tool_arm_embedded/bin/../lib/gcc/arm-none-eabi/9.2.1/../../../../arm-none-eabi/lib/thumb/v7-m/nofp\libc_nano.a(lib_a-isattyr.o)
 .debug_frame   0x00004288       0x48 c:/gnu_tool_arm_embedded/bin/../lib/gcc/arm-none-eabi/9.2.1/../../../../arm-none-eabi/lib/thumb/v7-m/nofp\libc_nano.a(lib_a-locale.o)
 .debug_frame   0x000042d0       0x2c c:/gnu_tool_arm_embedded/bin/../lib/gcc/arm-none-eabi/9.2.1/../../../../arm-none-eabi/lib/thumb/v7-m/nofp\libc_nano.a(lib_a-lseekr.o)
 .debug_frame   0x000042fc       0x48 c:/gnu_tool_arm_embedded/bin/../lib/gcc/arm-none-eabi/9.2.1/../../../../arm-none-eabi/lib/thumb/v7-m/nofp\libc_nano.a(lib_a-mbtowc_r.o)
 .debug_frame   0x00004344       0x30 c:/gnu_tool_arm_embedded/bin/../lib/gcc/arm-none-eabi/9.2.1/../../../../arm-none-eabi/lib/thumb/v7-m/nofp\libc_nano.a(lib_a-mlock.o)
 .debug_frame   0x00004374       0x2c c:/gnu_tool_arm_embedded/bin/../lib/gcc/arm-none-eabi/9.2.1/../../../../arm-none-eabi/lib/thumb/v7-m/nofp\libc_nano.a(lib_a-readr.o)
 .debug_frame   0x000043a0       0x5c c:/gnu_tool_arm_embedded/bin/../lib/gcc/arm-none-eabi/9.2.1/../../../../arm-none-eabi/lib/thumb/v7-m/nofp\libc_nano.a(lib_a-reent.o)
 .debug_frame   0x000043fc       0x3c c:/gnu_tool_arm_embedded/bin/../lib/gcc/arm-none-eabi/9.2.1/../../../../arm-none-eabi/lib/thumb/v7-m/nofp\libc_nano.a(lib_a-wctomb_r.o)
 .debug_frame   0x00004438       0x20 c:/gnu_tool_arm_embedded/bin/../lib/gcc/arm-none-eabi/9.2.1/../../../../arm-none-eabi/lib/thumb/v7-m/nofp\libnosys.a(close.o)
 .debug_frame   0x00004458       0x20 c:/gnu_tool_arm_embedded/bin/../lib/gcc/arm-none-eabi/9.2.1/../../../../arm-none-eabi/lib/thumb/v7-m/nofp\libnosys.a(fstat.o)
 .debug_frame   0x00004478       0x20 c:/gnu_tool_arm_embedded/bin/../lib/gcc/arm-none-eabi/9.2.1/../../../../arm-none-eabi/lib/thumb/v7-m/nofp\libnosys.a(isatty.o)
 .debug_frame   0x00004498       0x20 c:/gnu_tool_arm_embedded/bin/../lib/gcc/arm-none-eabi/9.2.1/../../../../arm-none-eabi/lib/thumb/v7-m/nofp\libnosys.a(lseek.o)
 .debug_frame   0x000044b8       0x20 c:/gnu_tool_arm_embedded/bin/../lib/gcc/arm-none-eabi/9.2.1/../../../../arm-none-eabi/lib/thumb/v7-m/nofp\libnosys.a(read.o)
 .debug_frame   0x000044d8       0x20 c:/gnu_tool_arm_embedded/bin/../lib/gcc/arm-none-eabi/9.2.1/../../../../arm-none-eabi/lib/thumb/v7-m/nofp\libnosys.a(sbrk.o)
 .debug_frame   0x000044f8       0x24 c:/gnu_tool_arm_embedded/bin/../lib/gcc/arm-none-eabi/9.2.1/thumb/v7-m/nofp\libgcc.a(_arm_mulsf3.o)
 .debug_frame   0x0000451c       0xac c:/gnu_tool_arm_embedded/bin/../lib/gcc/arm-none-eabi/9.2.1/thumb/v7-m/nofp\libgcc.a(_arm_addsubdf3.o)
 .debug_frame   0x000045c8       0x50 c:/gnu_tool_arm_embedded/bin/../lib/gcc/arm-none-eabi/9.2.1/thumb/v7-m/nofp\libgcc.a(_arm_muldivdf3.o)
 .debug_frame   0x00004618       0xc4 c:/gnu_tool_arm_embedded/bin/../lib/gcc/arm-none-eabi/9.2.1/thumb/v7-m/nofp\libgcc.a(_arm_cmpdf2.o)
 .debug_frame   0x000046dc       0x20 c:/gnu_tool_arm_embedded/bin/../lib/gcc/arm-none-eabi/9.2.1/thumb/v7-m/nofp\libgcc.a(_arm_unorddf2.o)
 .debug_frame   0x000046fc       0x24 c:/gnu_tool_arm_embedded/bin/../lib/gcc/arm-none-eabi/9.2.1/thumb/v7-m/nofp\libgcc.a(_arm_fixdfsi.o)
 .debug_frame   0x00004720       0x24 c:/gnu_tool_arm_embedded/bin/../lib/gcc/arm-none-eabi/9.2.1/thumb/v7-m/nofp\libgcc.a(_arm_truncdfsf2.o)
 .debug_frame   0x00004744       0x4c c:/gnu_tool_arm_embedded/bin/../lib/gcc/arm-none-eabi/9.2.1/thumb/v7-m/nofp\libgcc.a(_arm_addsubsf3.o)
 .debug_frame   0x00004790       0xc8 c:/gnu_tool_arm_embedded/bin/../lib/gcc/arm-none-eabi/9.2.1/thumb/v7-m/nofp\libgcc.a(_arm_cmpsf2.o)
 .debug_frame   0x00004858       0x24 c:/gnu_tool_arm_embedded/bin/../lib/gcc/arm-none-eabi/9.2.1/thumb/v7-m/nofp\libgcc.a(_arm_fixunssfsi.o)

.stab           0x00000000       0x84
 .stab          0x00000000       0x24 c:/gnu_tool_arm_embedded/bin/../lib/gcc/arm-none-eabi/9.2.1/../../../../arm-none-eabi/lib/thumb/v7-m/nofp\libnosys.a(close.o)
 .stab          0x00000024       0x18 c:/gnu_tool_arm_embedded/bin/../lib/gcc/arm-none-eabi/9.2.1/../../../../arm-none-eabi/lib/thumb/v7-m/nofp\libnosys.a(fstat.o)
                                 0x24 (size before relaxing)
 .stab          0x0000003c       0x18 c:/gnu_tool_arm_embedded/bin/../lib/gcc/arm-none-eabi/9.2.1/../../../../arm-none-eabi/lib/thumb/v7-m/nofp\libnosys.a(isatty.o)
                                 0x24 (size before relaxing)
 .stab          0x00000054       0x18 c:/gnu_tool_arm_embedded/bin/../lib/gcc/arm-none-eabi/9.2.1/../../../../arm-none-eabi/lib/thumb/v7-m/nofp\libnosys.a(lseek.o)
                                 0x24 (size before relaxing)
 .stab          0x0000006c       0x18 c:/gnu_tool_arm_embedded/bin/../lib/gcc/arm-none-eabi/9.2.1/../../../../arm-none-eabi/lib/thumb/v7-m/nofp\libnosys.a(read.o)
                                 0x24 (size before relaxing)

.stabstr        0x00000000      0x117
 .stabstr       0x00000000      0x117 c:/gnu_tool_arm_embedded/bin/../lib/gcc/arm-none-eabi/9.2.1/../../../../arm-none-eabi/lib/thumb/v7-m/nofp\libnosys.a(close.o)

Cross Reference Table

Symbol                                            File
ADC1_2_IRQHandler                                 build/startup_stm32f103xb.o
ADC_ConversionStop_Disable                        build/stm32f1xx_hal_adc.o
                                                  build/stm32f1xx_hal_adc_ex.o
ADC_ConvertedValue                                build/main.o
ADC_DMAConvCplt                                   build/stm32f1xx_hal_adc.o
                                                  build/stm32f1xx_hal_adc_ex.o
ADC_DMAError                                      build/stm32f1xx_hal_adc.o
                                                  build/stm32f1xx_hal_adc_ex.o
ADC_DMAHalfConvCplt                               build/stm32f1xx_hal_adc.o
                                                  build/stm32f1xx_hal_adc_ex.o
ADC_Enable                                        build/stm32f1xx_hal_adc.o
                                                  build/stm32f1xx_hal_adc_ex.o
AHBPrescTable                                     build/system_stm32f1xx.o
                                                  build/stm32f1xx_hal_rcc.o
APBPrescTable                                     build/system_stm32f1xx.o
                                                  build/stm32f1xx_hal_rcc.o
BELL                                              build/BELL.o
                                                  build/KEY.o
                                                  build/MyInit.o
BusFault_Handler                                  build/stm32f1xx_it.o
CAN1_RX1_IRQHandler                               build/startup_stm32f103xb.o
CAN1_SCE_IRQHandler                               build/startup_stm32f103xb.o
DMA1_Channel1_IRQHandler                          build/startup_stm32f103xb.o
DMA1_Channel2_IRQHandler                          build/startup_stm32f103xb.o
DMA1_Channel3_IRQHandler                          build/startup_stm32f103xb.o
DMA1_Channel4_IRQHandler                          build/startup_stm32f103xb.o
DMA1_Channel5_IRQHandler                          build/startup_stm32f103xb.o
DMA1_Channel6_IRQHandler                          build/startup_stm32f103xb.o
DMA1_Channel7_IRQHandler                          build/startup_stm32f103xb.o
DebugMon_Handler                                  build/stm32f1xx_it.o
Default_Handler                                   build/startup_stm32f103xb.o
EC11_KEY                                          build/KEY.o
                                                  build/CallBack.o
EXTI0_IRQHandler                                  build/startup_stm32f103xb.o
EXTI15_10_IRQHandler                              build/stm32f1xx_it.o
EXTI1_IRQHandler                                  build/startup_stm32f103xb.o
EXTI2_IRQHandler                                  build/startup_stm32f103xb.o
EXTI3_IRQHandler                                  build/startup_stm32f103xb.o
EXTI4_IRQHandler                                  build/startup_stm32f103xb.o
EXTI9_5_IRQHandler                                build/stm32f1xx_it.o
Error_Handler                                     build/main.o
                                                  build/adc.o
                                                  build/tim.o
                                                  build/spi.o
                                                  build/usart.o
FLASH_IRQHandler                                  build/startup_stm32f103xb.o
FLASH_PageErase                                   build/stm32f1xx_hal_flash_ex.o
                                                  build/stm32f1xx_hal_flash.o
FLASH_WaitForLastOperation                        build/stm32f1xx_hal_flash.o
                                                  build/stm32f1xx_hal_flash_ex.o
FONT_CHN12                                        build/IPS114_LCD.o
FONT_CHN16                                        build/IPS114_LCD.o
FONT_CHN24                                        build/IPS114_LCD.o
FONT_CHN32                                        build/IPS114_LCD.o
HAL_ADCEx_Calibration_Start                       build/stm32f1xx_hal_adc_ex.o
                                                  build/MyAdc_Apply.o
HAL_ADCEx_InjectedConfigChannel                   build/stm32f1xx_hal_adc_ex.o
HAL_ADCEx_InjectedConvCpltCallback                build/stm32f1xx_hal_adc_ex.o
                                                  build/stm32f1xx_hal_adc.o
HAL_ADCEx_InjectedGetValue                        build/stm32f1xx_hal_adc_ex.o
HAL_ADCEx_InjectedPollForConversion               build/stm32f1xx_hal_adc_ex.o
HAL_ADCEx_InjectedStart                           build/stm32f1xx_hal_adc_ex.o
HAL_ADCEx_InjectedStart_IT                        build/stm32f1xx_hal_adc_ex.o
HAL_ADCEx_InjectedStop                            build/stm32f1xx_hal_adc_ex.o
HAL_ADCEx_InjectedStop_IT                         build/stm32f1xx_hal_adc_ex.o
HAL_ADCEx_MultiModeConfigChannel                  build/stm32f1xx_hal_adc_ex.o
HAL_ADCEx_MultiModeGetValue                       build/stm32f1xx_hal_adc_ex.o
HAL_ADCEx_MultiModeStart_DMA                      build/stm32f1xx_hal_adc_ex.o
HAL_ADCEx_MultiModeStop_DMA                       build/stm32f1xx_hal_adc_ex.o
HAL_ADC_AnalogWDGConfig                           build/stm32f1xx_hal_adc.o
HAL_ADC_ConfigChannel                             build/stm32f1xx_hal_adc.o
                                                  build/adc.o
HAL_ADC_ConvCpltCallback                          build/stm32f1xx_hal_adc.o
HAL_ADC_ConvHalfCpltCallback                      build/stm32f1xx_hal_adc.o
HAL_ADC_DeInit                                    build/stm32f1xx_hal_adc.o
HAL_ADC_ErrorCallback                             build/stm32f1xx_hal_adc.o
HAL_ADC_GetError                                  build/stm32f1xx_hal_adc.o
HAL_ADC_GetState                                  build/stm32f1xx_hal_adc.o
HAL_ADC_GetValue                                  build/stm32f1xx_hal_adc.o
HAL_ADC_IRQHandler                                build/stm32f1xx_hal_adc.o
HAL_ADC_Init                                      build/stm32f1xx_hal_adc.o
                                                  build/adc.o
HAL_ADC_LevelOutOfWindowCallback                  build/stm32f1xx_hal_adc.o
HAL_ADC_MspDeInit                                 build/adc.o
HAL_ADC_MspInit                                   build/adc.o
HAL_ADC_PollForConversion                         build/stm32f1xx_hal_adc.o
HAL_ADC_PollForEvent                              build/stm32f1xx_hal_adc.o
HAL_ADC_Start                                     build/stm32f1xx_hal_adc.o
HAL_ADC_Start_DMA                                 build/stm32f1xx_hal_adc.o
                                                  build/MyAdc_Apply.o
HAL_ADC_Start_IT                                  build/stm32f1xx_hal_adc.o
HAL_ADC_Stop                                      build/stm32f1xx_hal_adc.o
HAL_ADC_Stop_DMA                                  build/stm32f1xx_hal_adc.o
HAL_ADC_Stop_IT                                   build/stm32f1xx_hal_adc.o
HAL_DBGMCU_DisableDBGSleepMode                    build/stm32f1xx_hal.o
HAL_DBGMCU_DisableDBGStandbyMode                  build/stm32f1xx_hal.o
HAL_DBGMCU_DisableDBGStopMode                     build/stm32f1xx_hal.o
HAL_DBGMCU_EnableDBGSleepMode                     build/stm32f1xx_hal.o
HAL_DBGMCU_EnableDBGStandbyMode                   build/stm32f1xx_hal.o
HAL_DBGMCU_EnableDBGStopMode                      build/stm32f1xx_hal.o
HAL_DMA_Abort                                     build/stm32f1xx_hal_dma.o
                                                  build/stm32f1xx_hal_adc_ex.o
                                                  build/stm32f1xx_hal_adc.o
                                                  build/stm32f1xx_hal_spi.o
                                                  build/stm32f1xx_hal_uart.o
HAL_DMA_Abort_IT                                  build/stm32f1xx_hal_dma.o
                                                  build/stm32f1xx_hal_spi.o
                                                  build/stm32f1xx_hal_uart.o
                                                  build/stm32f1xx_hal_tim_ex.o
                                                  build/stm32f1xx_hal_tim.o
HAL_DMA_DeInit                                    build/stm32f1xx_hal_dma.o
                                                  build/adc.o
HAL_DMA_GetError                                  build/stm32f1xx_hal_dma.o
                                                  build/stm32f1xx_hal_uart.o
HAL_DMA_GetState                                  build/stm32f1xx_hal_dma.o
HAL_DMA_IRQHandler                                build/stm32f1xx_hal_dma.o
HAL_DMA_Init                                      build/stm32f1xx_hal_dma.o
                                                  build/adc.o
HAL_DMA_PollForTransfer                           build/stm32f1xx_hal_dma.o
HAL_DMA_RegisterCallback                          build/stm32f1xx_hal_dma.o
HAL_DMA_Start                                     build/stm32f1xx_hal_dma.o
HAL_DMA_Start_IT                                  build/stm32f1xx_hal_dma.o
                                                  build/stm32f1xx_hal_adc_ex.o
                                                  build/stm32f1xx_hal_adc.o
                                                  build/stm32f1xx_hal_spi.o
                                                  build/stm32f1xx_hal_uart.o
                                                  build/stm32f1xx_hal_tim_ex.o
                                                  build/stm32f1xx_hal_tim.o
HAL_DMA_UnRegisterCallback                        build/stm32f1xx_hal_dma.o
HAL_DeInit                                        build/stm32f1xx_hal.o
HAL_Delay                                         build/stm32f1xx_hal.o
                                                  build/MyAdc_Apply.o
                                                  build/IPS114_LCD.o
                                                  build/KEY.o
                                                  build/MyInit.o
HAL_EXTI_ClearConfigLine                          build/stm32f1xx_hal_exti.o
HAL_EXTI_ClearPending                             build/stm32f1xx_hal_exti.o
HAL_EXTI_GenerateSWI                              build/stm32f1xx_hal_exti.o
HAL_EXTI_GetConfigLine                            build/stm32f1xx_hal_exti.o
HAL_EXTI_GetHandle                                build/stm32f1xx_hal_exti.o
HAL_EXTI_GetPending                               build/stm32f1xx_hal_exti.o
HAL_EXTI_IRQHandler                               build/stm32f1xx_hal_exti.o
HAL_EXTI_RegisterCallback                         build/stm32f1xx_hal_exti.o
HAL_EXTI_SetConfigLine                            build/stm32f1xx_hal_exti.o
HAL_FLASHEx_Erase                                 build/stm32f1xx_hal_flash_ex.o
HAL_FLASHEx_Erase_IT                              build/stm32f1xx_hal_flash_ex.o
HAL_FLASHEx_OBErase                               build/stm32f1xx_hal_flash_ex.o
HAL_FLASHEx_OBGetConfig                           build/stm32f1xx_hal_flash_ex.o
HAL_FLASHEx_OBGetUserData                         build/stm32f1xx_hal_flash_ex.o
HAL_FLASHEx_OBProgram                             build/stm32f1xx_hal_flash_ex.o
HAL_FLASH_EndOfOperationCallback                  build/stm32f1xx_hal_flash.o
HAL_FLASH_GetError                                build/stm32f1xx_hal_flash.o
HAL_FLASH_IRQHandler                              build/stm32f1xx_hal_flash.o
HAL_FLASH_Lock                                    build/stm32f1xx_hal_flash.o
HAL_FLASH_OB_Launch                               build/stm32f1xx_hal_flash.o
HAL_FLASH_OB_Lock                                 build/stm32f1xx_hal_flash.o
HAL_FLASH_OB_Unlock                               build/stm32f1xx_hal_flash.o
HAL_FLASH_OperationErrorCallback                  build/stm32f1xx_hal_flash.o
HAL_FLASH_Program                                 build/stm32f1xx_hal_flash.o
HAL_FLASH_Program_IT                              build/stm32f1xx_hal_flash.o
HAL_FLASH_Unlock                                  build/stm32f1xx_hal_flash.o
HAL_GPIOEx_ConfigEventout                         build/stm32f1xx_hal_gpio_ex.o
HAL_GPIOEx_DisableEventout                        build/stm32f1xx_hal_gpio_ex.o
HAL_GPIOEx_EnableEventout                         build/stm32f1xx_hal_gpio_ex.o
HAL_GPIO_DeInit                                   build/stm32f1xx_hal_gpio.o
                                                  build/adc.o
                                                  build/spi.o
                                                  build/usart.o
HAL_GPIO_EXTI_Callback                            build/CallBack.o
                                                  build/stm32f1xx_hal_gpio.o
HAL_GPIO_EXTI_IRQHandler                          build/stm32f1xx_hal_gpio.o
                                                  build/stm32f1xx_it.o
HAL_GPIO_Init                                     build/stm32f1xx_hal_gpio.o
                                                  build/adc.o
                                                  build/tim.o
                                                  build/spi.o
                                                  build/usart.o
                                                  build/stm32f1xx_hal_rcc.o
                                                  build/gpio.o
HAL_GPIO_LockPin                                  build/stm32f1xx_hal_gpio.o
HAL_GPIO_ReadPin                                  build/stm32f1xx_hal_gpio.o
                                                  build/KEY.o
HAL_GPIO_TogglePin                                build/stm32f1xx_hal_gpio.o
                                                  build/BELL.o
                                                  build/LED.o
HAL_GPIO_WritePin                                 build/stm32f1xx_hal_gpio.o
                                                  build/IPS114_LCD.o
                                                  build/BELL.o
                                                  build/LED.o
                                                  build/gpio.o
HAL_GetDEVID                                      build/stm32f1xx_hal.o
HAL_GetHalVersion                                 build/stm32f1xx_hal.o
HAL_GetREVID                                      build/stm32f1xx_hal.o
HAL_GetTick                                       build/stm32f1xx_hal.o
                                                  build/stm32f1xx_hal_adc_ex.o
                                                  build/stm32f1xx_hal_adc.o
                                                  build/stm32f1xx_hal_spi.o
                                                  build/stm32f1xx_hal_uart.o
                                                  build/stm32f1xx_hal_flash.o
                                                  build/stm32f1xx_hal_dma.o
                                                  build/stm32f1xx_hal_rcc_ex.o
                                                  build/stm32f1xx_hal_rcc.o
HAL_GetTickFreq                                   build/stm32f1xx_hal.o
HAL_GetTickPrio                                   build/stm32f1xx_hal.o
HAL_GetUIDw0                                      build/stm32f1xx_hal.o
HAL_GetUIDw1                                      build/stm32f1xx_hal.o
HAL_GetUIDw2                                      build/stm32f1xx_hal.o
HAL_HalfDuplex_EnableReceiver                     build/stm32f1xx_hal_uart.o
HAL_HalfDuplex_EnableTransmitter                  build/stm32f1xx_hal_uart.o
HAL_HalfDuplex_Init                               build/stm32f1xx_hal_uart.o
HAL_IncTick                                       build/stm32f1xx_hal.o
                                                  build/stm32f1xx_it.o
HAL_Init                                          build/stm32f1xx_hal.o
                                                  build/main.o
HAL_InitTick                                      build/stm32f1xx_hal.o
                                                  build/stm32f1xx_hal_rcc.o
HAL_LIN_Init                                      build/stm32f1xx_hal_uart.o
HAL_LIN_SendBreak                                 build/stm32f1xx_hal_uart.o
HAL_MspDeInit                                     build/stm32f1xx_hal.o
HAL_MspInit                                       build/stm32f1xx_hal_msp.o
HAL_MultiProcessor_EnterMuteMode                  build/stm32f1xx_hal_uart.o
HAL_MultiProcessor_ExitMuteMode                   build/stm32f1xx_hal_uart.o
HAL_MultiProcessor_Init                           build/stm32f1xx_hal_uart.o
HAL_NVIC_ClearPendingIRQ                          build/stm32f1xx_hal_cortex.o
HAL_NVIC_DisableIRQ                               build/stm32f1xx_hal_cortex.o
                                                  build/tim.o
HAL_NVIC_EnableIRQ                                build/stm32f1xx_hal_cortex.o
                                                  build/tim.o
                                                  build/gpio.o
HAL_NVIC_GetActive                                build/stm32f1xx_hal_cortex.o
HAL_NVIC_GetPendingIRQ                            build/stm32f1xx_hal_cortex.o
HAL_NVIC_GetPriority                              build/stm32f1xx_hal_cortex.o
HAL_NVIC_GetPriorityGrouping                      build/stm32f1xx_hal_cortex.o
HAL_NVIC_SetPendingIRQ                            build/stm32f1xx_hal_cortex.o
HAL_NVIC_SetPriority                              build/stm32f1xx_hal_cortex.o
                                                  build/tim.o
                                                  build/stm32f1xx_hal.o
                                                  build/gpio.o
HAL_NVIC_SetPriorityGrouping                      build/stm32f1xx_hal_cortex.o
                                                  build/stm32f1xx_hal.o
                                                  build/stm32f1xx_hal_msp.o
HAL_NVIC_SystemReset                              build/stm32f1xx_hal_cortex.o
                                                  build/stm32f1xx_hal_flash.o
HAL_PWR_ConfigPVD                                 build/stm32f1xx_hal_pwr.o
HAL_PWR_DeInit                                    build/stm32f1xx_hal_pwr.o
HAL_PWR_DisableBkUpAccess                         build/stm32f1xx_hal_pwr.o
HAL_PWR_DisablePVD                                build/stm32f1xx_hal_pwr.o
HAL_PWR_DisableSEVOnPend                          build/stm32f1xx_hal_pwr.o
HAL_PWR_DisableSleepOnExit                        build/stm32f1xx_hal_pwr.o
HAL_PWR_DisableWakeUpPin                          build/stm32f1xx_hal_pwr.o
HAL_PWR_EnableBkUpAccess                          build/stm32f1xx_hal_pwr.o
HAL_PWR_EnablePVD                                 build/stm32f1xx_hal_pwr.o
HAL_PWR_EnableSEVOnPend                           build/stm32f1xx_hal_pwr.o
HAL_PWR_EnableSleepOnExit                         build/stm32f1xx_hal_pwr.o
HAL_PWR_EnableWakeUpPin                           build/stm32f1xx_hal_pwr.o
HAL_PWR_EnterSLEEPMode                            build/stm32f1xx_hal_pwr.o
HAL_PWR_EnterSTANDBYMode                          build/stm32f1xx_hal_pwr.o
HAL_PWR_EnterSTOPMode                             build/stm32f1xx_hal_pwr.o
HAL_PWR_PVDCallback                               build/stm32f1xx_hal_pwr.o
HAL_PWR_PVD_IRQHandler                            build/stm32f1xx_hal_pwr.o
HAL_RCCEx_GetPeriphCLKConfig                      build/stm32f1xx_hal_rcc_ex.o
HAL_RCCEx_GetPeriphCLKFreq                        build/stm32f1xx_hal_rcc_ex.o
                                                  build/stm32f1xx_hal_adc_ex.o
                                                  build/stm32f1xx_hal_adc.o
HAL_RCCEx_PeriphCLKConfig                         build/stm32f1xx_hal_rcc_ex.o
                                                  build/main.o
HAL_RCC_CSSCallback                               build/stm32f1xx_hal_rcc.o
HAL_RCC_ClockConfig                               build/stm32f1xx_hal_rcc.o
                                                  build/main.o
HAL_RCC_DeInit                                    build/stm32f1xx_hal_rcc.o
HAL_RCC_DisableCSS                                build/stm32f1xx_hal_rcc.o
HAL_RCC_EnableCSS                                 build/stm32f1xx_hal_rcc.o
HAL_RCC_GetClockConfig                            build/stm32f1xx_hal_rcc.o
HAL_RCC_GetHCLKFreq                               build/stm32f1xx_hal_rcc.o
HAL_RCC_GetOscConfig                              build/stm32f1xx_hal_rcc.o
HAL_RCC_GetPCLK1Freq                              build/stm32f1xx_hal_rcc.o
                                                  build/stm32f1xx_hal_uart.o
HAL_RCC_GetPCLK2Freq                              build/stm32f1xx_hal_rcc.o
                                                  build/stm32f1xx_hal_uart.o
                                                  build/stm32f1xx_hal_rcc_ex.o
HAL_RCC_GetSysClockFreq                           build/stm32f1xx_hal_rcc.o
HAL_RCC_MCOConfig                                 build/stm32f1xx_hal_rcc.o
HAL_RCC_NMI_IRQHandler                            build/stm32f1xx_hal_rcc.o
HAL_RCC_OscConfig                                 build/stm32f1xx_hal_rcc.o
                                                  build/main.o
HAL_ResumeTick                                    build/stm32f1xx_hal.o
HAL_SPI_Abort                                     build/stm32f1xx_hal_spi.o
HAL_SPI_AbortCpltCallback                         build/stm32f1xx_hal_spi.o
HAL_SPI_Abort_IT                                  build/stm32f1xx_hal_spi.o
HAL_SPI_DMAPause                                  build/stm32f1xx_hal_spi.o
HAL_SPI_DMAResume                                 build/stm32f1xx_hal_spi.o
HAL_SPI_DMAStop                                   build/stm32f1xx_hal_spi.o
HAL_SPI_DeInit                                    build/stm32f1xx_hal_spi.o
HAL_SPI_ErrorCallback                             build/stm32f1xx_hal_spi.o
HAL_SPI_GetError                                  build/stm32f1xx_hal_spi.o
HAL_SPI_GetState                                  build/stm32f1xx_hal_spi.o
HAL_SPI_IRQHandler                                build/stm32f1xx_hal_spi.o
HAL_SPI_Init                                      build/stm32f1xx_hal_spi.o
                                                  build/spi.o
HAL_SPI_MspDeInit                                 build/spi.o
HAL_SPI_MspInit                                   build/spi.o
HAL_SPI_Receive                                   build/stm32f1xx_hal_spi.o
HAL_SPI_Receive_DMA                               build/stm32f1xx_hal_spi.o
HAL_SPI_Receive_IT                                build/stm32f1xx_hal_spi.o
HAL_SPI_RxCpltCallback                            build/stm32f1xx_hal_spi.o
HAL_SPI_RxHalfCpltCallback                        build/stm32f1xx_hal_spi.o
HAL_SPI_Transmit                                  build/stm32f1xx_hal_spi.o
                                                  build/IPS114_LCD.o
HAL_SPI_TransmitReceive                           build/stm32f1xx_hal_spi.o
HAL_SPI_TransmitReceive_DMA                       build/stm32f1xx_hal_spi.o
HAL_SPI_TransmitReceive_IT                        build/stm32f1xx_hal_spi.o
HAL_SPI_Transmit_DMA                              build/stm32f1xx_hal_spi.o
HAL_SPI_Transmit_IT                               build/stm32f1xx_hal_spi.o
HAL_SPI_TxCpltCallback                            build/stm32f1xx_hal_spi.o
HAL_SPI_TxHalfCpltCallback                        build/stm32f1xx_hal_spi.o
HAL_SPI_TxRxCpltCallback                          build/stm32f1xx_hal_spi.o
HAL_SPI_TxRxHalfCpltCallback                      build/stm32f1xx_hal_spi.o
HAL_SYSTICK_CLKSourceConfig                       build/stm32f1xx_hal_cortex.o
HAL_SYSTICK_Callback                              build/stm32f1xx_hal_cortex.o
HAL_SYSTICK_Config                                build/stm32f1xx_hal_cortex.o
                                                  build/stm32f1xx_hal.o
HAL_SYSTICK_IRQHandler                            build/stm32f1xx_hal_cortex.o
HAL_SetTickFreq                                   build/stm32f1xx_hal.o
HAL_SuspendTick                                   build/stm32f1xx_hal.o
HAL_TIMEx_BreakCallback                           build/stm32f1xx_hal_tim_ex.o
                                                  build/stm32f1xx_hal_tim.o
HAL_TIMEx_CommutCallback                          build/stm32f1xx_hal_tim_ex.o
                                                  build/stm32f1xx_hal_tim.o
HAL_TIMEx_CommutHalfCpltCallback                  build/stm32f1xx_hal_tim_ex.o
HAL_TIMEx_ConfigBreakDeadTime                     build/stm32f1xx_hal_tim_ex.o
                                                  build/tim.o
HAL_TIMEx_ConfigCommutEvent                       build/stm32f1xx_hal_tim_ex.o
HAL_TIMEx_ConfigCommutEvent_DMA                   build/stm32f1xx_hal_tim_ex.o
HAL_TIMEx_ConfigCommutEvent_IT                    build/stm32f1xx_hal_tim_ex.o
HAL_TIMEx_GetChannelNState                        build/stm32f1xx_hal_tim_ex.o
HAL_TIMEx_HallSensor_DeInit                       build/stm32f1xx_hal_tim_ex.o
HAL_TIMEx_HallSensor_GetState                     build/stm32f1xx_hal_tim_ex.o
HAL_TIMEx_HallSensor_Init                         build/stm32f1xx_hal_tim_ex.o
HAL_TIMEx_HallSensor_MspDeInit                    build/stm32f1xx_hal_tim_ex.o
HAL_TIMEx_HallSensor_MspInit                      build/stm32f1xx_hal_tim_ex.o
HAL_TIMEx_HallSensor_Start                        build/stm32f1xx_hal_tim_ex.o
HAL_TIMEx_HallSensor_Start_DMA                    build/stm32f1xx_hal_tim_ex.o
HAL_TIMEx_HallSensor_Start_IT                     build/stm32f1xx_hal_tim_ex.o
HAL_TIMEx_HallSensor_Stop                         build/stm32f1xx_hal_tim_ex.o
HAL_TIMEx_HallSensor_Stop_DMA                     build/stm32f1xx_hal_tim_ex.o
HAL_TIMEx_HallSensor_Stop_IT                      build/stm32f1xx_hal_tim_ex.o
HAL_TIMEx_MasterConfigSynchronization             build/stm32f1xx_hal_tim_ex.o
                                                  build/tim.o
HAL_TIMEx_OCN_Start                               build/stm32f1xx_hal_tim_ex.o
HAL_TIMEx_OCN_Start_DMA                           build/stm32f1xx_hal_tim_ex.o
HAL_TIMEx_OCN_Start_IT                            build/stm32f1xx_hal_tim_ex.o
HAL_TIMEx_OCN_Stop                                build/stm32f1xx_hal_tim_ex.o
HAL_TIMEx_OCN_Stop_DMA                            build/stm32f1xx_hal_tim_ex.o
HAL_TIMEx_OCN_Stop_IT                             build/stm32f1xx_hal_tim_ex.o
HAL_TIMEx_OnePulseN_Start                         build/stm32f1xx_hal_tim_ex.o
HAL_TIMEx_OnePulseN_Start_IT                      build/stm32f1xx_hal_tim_ex.o
HAL_TIMEx_OnePulseN_Stop                          build/stm32f1xx_hal_tim_ex.o
HAL_TIMEx_OnePulseN_Stop_IT                       build/stm32f1xx_hal_tim_ex.o
HAL_TIMEx_PWMN_Start                              build/stm32f1xx_hal_tim_ex.o
HAL_TIMEx_PWMN_Start_DMA                          build/stm32f1xx_hal_tim_ex.o
HAL_TIMEx_PWMN_Start_IT                           build/stm32f1xx_hal_tim_ex.o
HAL_TIMEx_PWMN_Stop                               build/stm32f1xx_hal_tim_ex.o
HAL_TIMEx_PWMN_Stop_DMA                           build/stm32f1xx_hal_tim_ex.o
HAL_TIMEx_PWMN_Stop_IT                            build/stm32f1xx_hal_tim_ex.o
HAL_TIMEx_RemapConfig                             build/stm32f1xx_hal_tim_ex.o
HAL_TIM_Base_DeInit                               build/stm32f1xx_hal_tim.o
HAL_TIM_Base_GetState                             build/stm32f1xx_hal_tim.o
HAL_TIM_Base_Init                                 build/stm32f1xx_hal_tim.o
                                                  build/tim.o
HAL_TIM_Base_MspDeInit                            build/tim.o
                                                  build/stm32f1xx_hal_tim.o
HAL_TIM_Base_MspInit                              build/tim.o
                                                  build/stm32f1xx_hal_tim.o
HAL_TIM_Base_Start                                build/stm32f1xx_hal_tim.o
                                                  build/MyAdc_Apply.o
HAL_TIM_Base_Start_DMA                            build/stm32f1xx_hal_tim.o
HAL_TIM_Base_Start_IT                             build/stm32f1xx_hal_tim.o
                                                  build/MyInit.o
HAL_TIM_Base_Stop                                 build/stm32f1xx_hal_tim.o
HAL_TIM_Base_Stop_DMA                             build/stm32f1xx_hal_tim.o
HAL_TIM_Base_Stop_IT                              build/stm32f1xx_hal_tim.o
HAL_TIM_ConfigClockSource                         build/stm32f1xx_hal_tim.o
                                                  build/tim.o
HAL_TIM_ConfigOCrefClear                          build/stm32f1xx_hal_tim.o
HAL_TIM_ConfigTI1Input                            build/stm32f1xx_hal_tim.o
HAL_TIM_DMABurstState                             build/stm32f1xx_hal_tim.o
HAL_TIM_DMABurst_MultiReadStart                   build/stm32f1xx_hal_tim.o
HAL_TIM_DMABurst_MultiWriteStart                  build/stm32f1xx_hal_tim.o
HAL_TIM_DMABurst_ReadStart                        build/stm32f1xx_hal_tim.o
HAL_TIM_DMABurst_ReadStop                         build/stm32f1xx_hal_tim.o
HAL_TIM_DMABurst_WriteStart                       build/stm32f1xx_hal_tim.o
HAL_TIM_DMABurst_WriteStop                        build/stm32f1xx_hal_tim.o
HAL_TIM_Encoder_DeInit                            build/stm32f1xx_hal_tim.o
HAL_TIM_Encoder_GetState                          build/stm32f1xx_hal_tim.o
HAL_TIM_Encoder_Init                              build/stm32f1xx_hal_tim.o
HAL_TIM_Encoder_MspDeInit                         build/stm32f1xx_hal_tim.o
HAL_TIM_Encoder_MspInit                           build/stm32f1xx_hal_tim.o
HAL_TIM_Encoder_Start                             build/stm32f1xx_hal_tim.o
HAL_TIM_Encoder_Start_DMA                         build/stm32f1xx_hal_tim.o
HAL_TIM_Encoder_Start_IT                          build/stm32f1xx_hal_tim.o
HAL_TIM_Encoder_Stop                              build/stm32f1xx_hal_tim.o
HAL_TIM_Encoder_Stop_DMA                          build/stm32f1xx_hal_tim.o
HAL_TIM_Encoder_Stop_IT                           build/stm32f1xx_hal_tim.o
HAL_TIM_ErrorCallback                             build/stm32f1xx_hal_tim.o
                                                  build/stm32f1xx_hal_tim_ex.o
HAL_TIM_GenerateEvent                             build/stm32f1xx_hal_tim.o
HAL_TIM_GetActiveChannel                          build/stm32f1xx_hal_tim.o
HAL_TIM_GetChannelState                           build/stm32f1xx_hal_tim.o
HAL_TIM_IC_CaptureCallback                        build/stm32f1xx_hal_tim.o
HAL_TIM_IC_CaptureHalfCpltCallback                build/stm32f1xx_hal_tim.o
HAL_TIM_IC_ConfigChannel                          build/stm32f1xx_hal_tim.o
HAL_TIM_IC_DeInit                                 build/stm32f1xx_hal_tim.o
HAL_TIM_IC_GetState                               build/stm32f1xx_hal_tim.o
HAL_TIM_IC_Init                                   build/stm32f1xx_hal_tim.o
HAL_TIM_IC_MspDeInit                              build/stm32f1xx_hal_tim.o
HAL_TIM_IC_MspInit                                build/stm32f1xx_hal_tim.o
HAL_TIM_IC_Start                                  build/stm32f1xx_hal_tim.o
HAL_TIM_IC_Start_DMA                              build/stm32f1xx_hal_tim.o
HAL_TIM_IC_Start_IT                               build/stm32f1xx_hal_tim.o
HAL_TIM_IC_Stop                                   build/stm32f1xx_hal_tim.o
HAL_TIM_IC_Stop_DMA                               build/stm32f1xx_hal_tim.o
HAL_TIM_IC_Stop_IT                                build/stm32f1xx_hal_tim.o
HAL_TIM_IRQHandler                                build/stm32f1xx_hal_tim.o
                                                  build/stm32f1xx_it.o
HAL_TIM_MspPostInit                               build/tim.o
HAL_TIM_OC_ConfigChannel                          build/stm32f1xx_hal_tim.o
HAL_TIM_OC_DeInit                                 build/stm32f1xx_hal_tim.o
HAL_TIM_OC_DelayElapsedCallback                   build/stm32f1xx_hal_tim.o
HAL_TIM_OC_GetState                               build/stm32f1xx_hal_tim.o
HAL_TIM_OC_Init                                   build/stm32f1xx_hal_tim.o
HAL_TIM_OC_MspDeInit                              build/stm32f1xx_hal_tim.o
HAL_TIM_OC_MspInit                                build/stm32f1xx_hal_tim.o
HAL_TIM_OC_Start                                  build/stm32f1xx_hal_tim.o
HAL_TIM_OC_Start_DMA                              build/stm32f1xx_hal_tim.o
HAL_TIM_OC_Start_IT                               build/stm32f1xx_hal_tim.o
HAL_TIM_OC_Stop                                   build/stm32f1xx_hal_tim.o
HAL_TIM_OC_Stop_DMA                               build/stm32f1xx_hal_tim.o
HAL_TIM_OC_Stop_IT                                build/stm32f1xx_hal_tim.o
HAL_TIM_OnePulse_ConfigChannel                    build/stm32f1xx_hal_tim.o
HAL_TIM_OnePulse_DeInit                           build/stm32f1xx_hal_tim.o
HAL_TIM_OnePulse_GetState                         build/stm32f1xx_hal_tim.o
HAL_TIM_OnePulse_Init                             build/stm32f1xx_hal_tim.o
HAL_TIM_OnePulse_MspDeInit                        build/stm32f1xx_hal_tim.o
HAL_TIM_OnePulse_MspInit                          build/stm32f1xx_hal_tim.o
HAL_TIM_OnePulse_Start                            build/stm32f1xx_hal_tim.o
HAL_TIM_OnePulse_Start_IT                         build/stm32f1xx_hal_tim.o
HAL_TIM_OnePulse_Stop                             build/stm32f1xx_hal_tim.o
HAL_TIM_OnePulse_Stop_IT                          build/stm32f1xx_hal_tim.o
HAL_TIM_PWM_ConfigChannel                         build/stm32f1xx_hal_tim.o
                                                  build/tim.o
HAL_TIM_PWM_DeInit                                build/stm32f1xx_hal_tim.o
HAL_TIM_PWM_GetState                              build/stm32f1xx_hal_tim.o
HAL_TIM_PWM_Init                                  build/stm32f1xx_hal_tim.o
                                                  build/tim.o
HAL_TIM_PWM_MspDeInit                             build/tim.o
                                                  build/stm32f1xx_hal_tim.o
HAL_TIM_PWM_MspInit                               build/tim.o
                                                  build/stm32f1xx_hal_tim.o
HAL_TIM_PWM_PulseFinishedCallback                 build/stm32f1xx_hal_tim.o
                                                  build/stm32f1xx_hal_tim_ex.o
HAL_TIM_PWM_PulseFinishedHalfCpltCallback         build/stm32f1xx_hal_tim.o
HAL_TIM_PWM_Start                                 build/stm32f1xx_hal_tim.o
                                                  build/MyInit.o
HAL_TIM_PWM_Start_DMA                             build/stm32f1xx_hal_tim.o
HAL_TIM_PWM_Start_IT                              build/stm32f1xx_hal_tim.o
HAL_TIM_PWM_Stop                                  build/stm32f1xx_hal_tim.o
HAL_TIM_PWM_Stop_DMA                              build/stm32f1xx_hal_tim.o
HAL_TIM_PWM_Stop_IT                               build/stm32f1xx_hal_tim.o
HAL_TIM_PeriodElapsedCallback                     build/CallBack.o
                                                  build/stm32f1xx_hal_tim.o
HAL_TIM_PeriodElapsedHalfCpltCallback             build/stm32f1xx_hal_tim.o
HAL_TIM_ReadCapturedValue                         build/stm32f1xx_hal_tim.o
HAL_TIM_SlaveConfigSynchro                        build/stm32f1xx_hal_tim.o
HAL_TIM_SlaveConfigSynchro_IT                     build/stm32f1xx_hal_tim.o
HAL_TIM_TriggerCallback                           build/stm32f1xx_hal_tim.o
HAL_TIM_TriggerHalfCpltCallback                   build/stm32f1xx_hal_tim.o
HAL_UARTEx_ReceiveToIdle                          build/stm32f1xx_hal_uart.o
HAL_UARTEx_ReceiveToIdle_DMA                      build/stm32f1xx_hal_uart.o
HAL_UARTEx_ReceiveToIdle_IT                       build/stm32f1xx_hal_uart.o
HAL_UARTEx_RxEventCallback                        build/stm32f1xx_hal_uart.o
HAL_UART_Abort                                    build/stm32f1xx_hal_uart.o
HAL_UART_AbortCpltCallback                        build/stm32f1xx_hal_uart.o
HAL_UART_AbortReceive                             build/stm32f1xx_hal_uart.o
HAL_UART_AbortReceiveCpltCallback                 build/stm32f1xx_hal_uart.o
HAL_UART_AbortReceive_IT                          build/stm32f1xx_hal_uart.o
HAL_UART_AbortTransmit                            build/stm32f1xx_hal_uart.o
HAL_UART_AbortTransmitCpltCallback                build/stm32f1xx_hal_uart.o
HAL_UART_AbortTransmit_IT                         build/stm32f1xx_hal_uart.o
HAL_UART_Abort_IT                                 build/stm32f1xx_hal_uart.o
HAL_UART_DMAPause                                 build/stm32f1xx_hal_uart.o
HAL_UART_DMAResume                                build/stm32f1xx_hal_uart.o
HAL_UART_DMAStop                                  build/stm32f1xx_hal_uart.o
HAL_UART_DeInit                                   build/stm32f1xx_hal_uart.o
HAL_UART_ErrorCallback                            build/stm32f1xx_hal_uart.o
HAL_UART_GetError                                 build/stm32f1xx_hal_uart.o
HAL_UART_GetState                                 build/stm32f1xx_hal_uart.o
HAL_UART_IRQHandler                               build/stm32f1xx_hal_uart.o
HAL_UART_Init                                     build/stm32f1xx_hal_uart.o
                                                  build/usart.o
HAL_UART_MspDeInit                                build/usart.o
HAL_UART_MspInit                                  build/usart.o
HAL_UART_Receive                                  build/stm32f1xx_hal_uart.o
HAL_UART_Receive_DMA                              build/stm32f1xx_hal_uart.o
HAL_UART_Receive_IT                               build/stm32f1xx_hal_uart.o
HAL_UART_RxCpltCallback                           build/stm32f1xx_hal_uart.o
HAL_UART_RxHalfCpltCallback                       build/stm32f1xx_hal_uart.o
HAL_UART_Transmit                                 build/stm32f1xx_hal_uart.o
                                                  build/MyPrintf.o
HAL_UART_Transmit_DMA                             build/stm32f1xx_hal_uart.o
HAL_UART_Transmit_IT                              build/stm32f1xx_hal_uart.o
HAL_UART_TxCpltCallback                           build/stm32f1xx_hal_uart.o
HAL_UART_TxHalfCpltCallback                       build/stm32f1xx_hal_uart.o
HardFault_Handler                                 build/stm32f1xx_it.o
I2C1_ER_IRQHandler                                build/startup_stm32f103xb.o
I2C1_EV_IRQHandler                                build/startup_stm32f103xb.o
I2C2_ER_IRQHandler                                build/startup_stm32f103xb.o
I2C2_EV_IRQHandler                                build/startup_stm32f103xb.o
KEY_DOWN                                          build/KEY.o
                                                  build/CallBack.o
KEY_OUT                                           build/KEY.o
                                                  build/CallBack.o
KEY_SET                                           build/KEY.o
                                                  build/CallBack.o
Key_scan                                          build/KEY.o
                                                  build/System.o
LED                                               build/LED.o
                                                  build/KEY.o
MX_ADC1_Init                                      build/adc.o
                                                  build/main.o
MX_DMA_Init                                       build/dma.o
                                                  build/main.o
MX_GPIO_Init                                      build/gpio.o
                                                  build/main.o
MX_SPI1_Init                                      build/spi.o
                                                  build/main.o
MX_TIM1_Init                                      build/tim.o
                                                  build/main.o
MX_TIM2_Init                                      build/tim.o
                                                  build/main.o
MX_TIM3_Init                                      build/tim.o
                                                  build/main.o
MX_USART1_UART_Init                               build/usart.o
                                                  build/main.o
MemManage_Handler                                 build/stm32f1xx_it.o
MyADC                                             build/MyAdc_Apply.o
                                                  build/CallBack.o
                                                  build/MyInit.o
                                                  build/System.o
MyInit                                            build/MyInit.o
                                                  build/main.o
NMI_Handler                                       build/stm32f1xx_it.o
PVD_IRQHandler                                    build/startup_stm32f103xb.o
PendSV_Handler                                    build/stm32f1xx_it.o
RCC_IRQHandler                                    build/startup_stm32f103xb.o
RTC_Alarm_IRQHandler                              build/startup_stm32f103xb.o
RTC_IRQHandler                                    build/startup_stm32f103xb.o
Reset_Handler                                     build/startup_stm32f103xb.o
SPI1_IRQHandler                                   build/startup_stm32f103xb.o
SPI2_IRQHandler                                   build/startup_stm32f103xb.o
SVC_Handler                                       build/stm32f1xx_it.o
Software_Version                                  build/MyInit.o
SysTick_Handler                                   build/stm32f1xx_it.o
System                                            build/System.o
                                                  build/LED.o
                                                  build/main.o
SystemClock_Config                                build/main.o
SystemCoreClock                                   build/system_stm32f1xx.o
                                                  build/stm32f1xx_hal_adc_ex.o
                                                  build/stm32f1xx_hal_adc.o
                                                  build/stm32f1xx_hal_spi.o
                                                  build/stm32f1xx_hal_rcc.o
                                                  build/stm32f1xx_hal.o
SystemCoreClockUpdate                             build/system_stm32f1xx.o
SystemInit                                        build/system_stm32f1xx.o
                                                  build/startup_stm32f103xb.o
TAMPER_IRQHandler                                 build/startup_stm32f103xb.o
TFT_LCD                                           build/IPS114_LCD.o
                                                  build/KEY.o
                                                  build/MyInit.o
                                                  build/System.o
TIM1_BRK_IRQHandler                               build/startup_stm32f103xb.o
TIM1_CC_IRQHandler                                build/startup_stm32f103xb.o
TIM1_TRG_COM_IRQHandler                           build/startup_stm32f103xb.o
TIM1_UP_IRQHandler                                build/startup_stm32f103xb.o
TIM2_IRQHandler                                   build/startup_stm32f103xb.o
TIM3_IRQHandler                                   build/stm32f1xx_it.o
TIM4_IRQHandler                                   build/startup_stm32f103xb.o
TIMEx_DMACommutationCplt                          build/stm32f1xx_hal_tim_ex.o
                                                  build/stm32f1xx_hal_tim.o
TIMEx_DMACommutationHalfCplt                      build/stm32f1xx_hal_tim_ex.o
                                                  build/stm32f1xx_hal_tim.o
TIM_Base_SetConfig                                build/stm32f1xx_hal_tim.o
                                                  build/stm32f1xx_hal_tim_ex.o
TIM_CCxChannelCmd                                 build/stm32f1xx_hal_tim.o
                                                  build/stm32f1xx_hal_tim_ex.o
TIM_DMACaptureCplt                                build/stm32f1xx_hal_tim.o
                                                  build/stm32f1xx_hal_tim_ex.o
TIM_DMACaptureHalfCplt                            build/stm32f1xx_hal_tim.o
                                                  build/stm32f1xx_hal_tim_ex.o
TIM_DMADelayPulseHalfCplt                         build/stm32f1xx_hal_tim.o
                                                  build/stm32f1xx_hal_tim_ex.o
TIM_DMAError                                      build/stm32f1xx_hal_tim.o
                                                  build/stm32f1xx_hal_tim_ex.o
TIM_ETR_SetConfig                                 build/stm32f1xx_hal_tim.o
TIM_OC2_SetConfig                                 build/stm32f1xx_hal_tim.o
                                                  build/stm32f1xx_hal_tim_ex.o
TIM_TI1_SetConfig                                 build/stm32f1xx_hal_tim.o
                                                  build/stm32f1xx_hal_tim_ex.o
UART_Start_Receive_DMA                            build/stm32f1xx_hal_uart.o
UART_Start_Receive_IT                             build/stm32f1xx_hal_uart.o
USART1_IRQHandler                                 build/startup_stm32f103xb.o
USART2_IRQHandler                                 build/startup_stm32f103xb.o
USART3_IRQHandler                                 build/startup_stm32f103xb.o
USBWakeUp_IRQHandler                              build/startup_stm32f103xb.o
USB_HP_CAN1_TX_IRQHandler                         build/startup_stm32f103xb.o
USB_LP_CAN1_RX0_IRQHandler                        build/startup_stm32f103xb.o
UsageFault_Handler                                build/stm32f1xx_it.o
WWDG_IRQHandler                                   build/startup_stm32f103xb.o
_Balloc                                           c:/gnu_tool_arm_embedded/bin/../lib/gcc/arm-none-eabi/9.2.1/../../../../arm-none-eabi/lib/thumb/v7-m/nofp\libc_nano.a(lib_a-mprec.o)
                                                  c:/gnu_tool_arm_embedded/bin/../lib/gcc/arm-none-eabi/9.2.1/../../../../arm-none-eabi/lib/thumb/v7-m/nofp\libc_nano.a(lib_a-dtoa.o)
_Bfree                                            c:/gnu_tool_arm_embedded/bin/../lib/gcc/arm-none-eabi/9.2.1/../../../../arm-none-eabi/lib/thumb/v7-m/nofp\libc_nano.a(lib_a-mprec.o)
                                                  c:/gnu_tool_arm_embedded/bin/../lib/gcc/arm-none-eabi/9.2.1/../../../../arm-none-eabi/lib/thumb/v7-m/nofp\libc_nano.a(lib_a-dtoa.o)
_PathLocale                                       c:/gnu_tool_arm_embedded/bin/../lib/gcc/arm-none-eabi/9.2.1/../../../../arm-none-eabi/lib/thumb/v7-m/nofp\libc_nano.a(lib_a-locale.o)
__adddf3                                          c:/gnu_tool_arm_embedded/bin/../lib/gcc/arm-none-eabi/9.2.1/thumb/v7-m/nofp\libgcc.a(_arm_addsubdf3.o)
__addsf3                                          c:/gnu_tool_arm_embedded/bin/../lib/gcc/arm-none-eabi/9.2.1/thumb/v7-m/nofp\libgcc.a(_arm_addsubsf3.o)
__aeabi_cdcmpeq                                   c:/gnu_tool_arm_embedded/bin/../lib/gcc/arm-none-eabi/9.2.1/thumb/v7-m/nofp\libgcc.a(_arm_cmpdf2.o)
__aeabi_cdcmple                                   c:/gnu_tool_arm_embedded/bin/../lib/gcc/arm-none-eabi/9.2.1/thumb/v7-m/nofp\libgcc.a(_arm_cmpdf2.o)
__aeabi_cdrcmple                                  c:/gnu_tool_arm_embedded/bin/../lib/gcc/arm-none-eabi/9.2.1/thumb/v7-m/nofp\libgcc.a(_arm_cmpdf2.o)
__aeabi_cfcmpeq                                   c:/gnu_tool_arm_embedded/bin/../lib/gcc/arm-none-eabi/9.2.1/thumb/v7-m/nofp\libgcc.a(_arm_cmpsf2.o)
__aeabi_cfcmple                                   c:/gnu_tool_arm_embedded/bin/../lib/gcc/arm-none-eabi/9.2.1/thumb/v7-m/nofp\libgcc.a(_arm_cmpsf2.o)
__aeabi_cfrcmple                                  c:/gnu_tool_arm_embedded/bin/../lib/gcc/arm-none-eabi/9.2.1/thumb/v7-m/nofp\libgcc.a(_arm_cmpsf2.o)
__aeabi_d2f                                       c:/gnu_tool_arm_embedded/bin/../lib/gcc/arm-none-eabi/9.2.1/thumb/v7-m/nofp\libgcc.a(_arm_truncdfsf2.o)
                                                  build/MyAdc_Apply.o
__aeabi_d2iz                                      c:/gnu_tool_arm_embedded/bin/../lib/gcc/arm-none-eabi/9.2.1/thumb/v7-m/nofp\libgcc.a(_arm_fixdfsi.o)
                                                  c:/gnu_tool_arm_embedded/bin/../lib/gcc/arm-none-eabi/9.2.1/../../../../arm-none-eabi/lib/thumb/v7-m/nofp\libc_nano.a(lib_a-dtoa.o)
__aeabi_dadd                                      c:/gnu_tool_arm_embedded/bin/../lib/gcc/arm-none-eabi/9.2.1/thumb/v7-m/nofp\libgcc.a(_arm_addsubdf3.o)
                                                  c:/gnu_tool_arm_embedded/bin/../lib/gcc/arm-none-eabi/9.2.1/../../../../arm-none-eabi/lib/thumb/v7-m/nofp\libc_nano.a(lib_a-dtoa.o)
__aeabi_dcmpeq                                    c:/gnu_tool_arm_embedded/bin/../lib/gcc/arm-none-eabi/9.2.1/thumb/v7-m/nofp\libgcc.a(_arm_cmpdf2.o)
                                                  c:/gnu_tool_arm_embedded/bin/../lib/gcc/arm-none-eabi/9.2.1/../../../../arm-none-eabi/lib/thumb/v7-m/nofp\libc_nano.a(lib_a-dtoa.o)
                                                  c:/gnu_tool_arm_embedded/bin/../lib/gcc/arm-none-eabi/9.2.1/../../../../arm-none-eabi/lib/thumb/v7-m/nofp\libc_nano.a(lib_a-nano-vfprintf_float.o)
__aeabi_dcmpge                                    c:/gnu_tool_arm_embedded/bin/../lib/gcc/arm-none-eabi/9.2.1/thumb/v7-m/nofp\libgcc.a(_arm_cmpdf2.o)
                                                  c:/gnu_tool_arm_embedded/bin/../lib/gcc/arm-none-eabi/9.2.1/../../../../arm-none-eabi/lib/thumb/v7-m/nofp\libc_nano.a(lib_a-dtoa.o)
__aeabi_dcmpgt                                    c:/gnu_tool_arm_embedded/bin/../lib/gcc/arm-none-eabi/9.2.1/thumb/v7-m/nofp\libgcc.a(_arm_cmpdf2.o)
                                                  c:/gnu_tool_arm_embedded/bin/../lib/gcc/arm-none-eabi/9.2.1/../../../../arm-none-eabi/lib/thumb/v7-m/nofp\libc_nano.a(lib_a-dtoa.o)
__aeabi_dcmple                                    c:/gnu_tool_arm_embedded/bin/../lib/gcc/arm-none-eabi/9.2.1/thumb/v7-m/nofp\libgcc.a(_arm_cmpdf2.o)
                                                  c:/gnu_tool_arm_embedded/bin/../lib/gcc/arm-none-eabi/9.2.1/../../../../arm-none-eabi/lib/thumb/v7-m/nofp\libc_nano.a(lib_a-nano-vfprintf_float.o)
__aeabi_dcmplt                                    c:/gnu_tool_arm_embedded/bin/../lib/gcc/arm-none-eabi/9.2.1/thumb/v7-m/nofp\libgcc.a(_arm_cmpdf2.o)
                                                  c:/gnu_tool_arm_embedded/bin/../lib/gcc/arm-none-eabi/9.2.1/../../../../arm-none-eabi/lib/thumb/v7-m/nofp\libc_nano.a(lib_a-dtoa.o)
                                                  c:/gnu_tool_arm_embedded/bin/../lib/gcc/arm-none-eabi/9.2.1/../../../../arm-none-eabi/lib/thumb/v7-m/nofp\libc_nano.a(lib_a-nano-vfprintf_float.o)
__aeabi_dcmpun                                    c:/gnu_tool_arm_embedded/bin/../lib/gcc/arm-none-eabi/9.2.1/thumb/v7-m/nofp\libgcc.a(_arm_unorddf2.o)
                                                  c:/gnu_tool_arm_embedded/bin/../lib/gcc/arm-none-eabi/9.2.1/../../../../arm-none-eabi/lib/thumb/v7-m/nofp\libc_nano.a(lib_a-nano-vfprintf_float.o)
__aeabi_ddiv                                      c:/gnu_tool_arm_embedded/bin/../lib/gcc/arm-none-eabi/9.2.1/thumb/v7-m/nofp\libgcc.a(_arm_muldivdf3.o)
                                                  c:/gnu_tool_arm_embedded/bin/../lib/gcc/arm-none-eabi/9.2.1/../../../../arm-none-eabi/lib/thumb/v7-m/nofp\libc_nano.a(lib_a-mprec.o)
                                                  c:/gnu_tool_arm_embedded/bin/../lib/gcc/arm-none-eabi/9.2.1/../../../../arm-none-eabi/lib/thumb/v7-m/nofp\libc_nano.a(lib_a-dtoa.o)
                                                  build/MyAdc_Apply.o
__aeabi_dmul                                      c:/gnu_tool_arm_embedded/bin/../lib/gcc/arm-none-eabi/9.2.1/thumb/v7-m/nofp\libgcc.a(_arm_muldivdf3.o)
                                                  c:/gnu_tool_arm_embedded/bin/../lib/gcc/arm-none-eabi/9.2.1/thumb/v7-m/nofp\libgcc.a(_arm_muldf3.o)
                                                  c:/gnu_tool_arm_embedded/bin/../lib/gcc/arm-none-eabi/9.2.1/../../../../arm-none-eabi/lib/thumb/v7-m/nofp\libc_nano.a(lib_a-mprec.o)
                                                  c:/gnu_tool_arm_embedded/bin/../lib/gcc/arm-none-eabi/9.2.1/../../../../arm-none-eabi/lib/thumb/v7-m/nofp\libc_nano.a(lib_a-dtoa.o)
                                                  build/MyAdc_Apply.o
__aeabi_drsub                                     c:/gnu_tool_arm_embedded/bin/../lib/gcc/arm-none-eabi/9.2.1/thumb/v7-m/nofp\libgcc.a(_arm_addsubdf3.o)
__aeabi_dsub                                      c:/gnu_tool_arm_embedded/bin/../lib/gcc/arm-none-eabi/9.2.1/thumb/v7-m/nofp\libgcc.a(_arm_addsubdf3.o)
                                                  c:/gnu_tool_arm_embedded/bin/../lib/gcc/arm-none-eabi/9.2.1/../../../../arm-none-eabi/lib/thumb/v7-m/nofp\libc_nano.a(lib_a-dtoa.o)
__aeabi_f2d                                       c:/gnu_tool_arm_embedded/bin/../lib/gcc/arm-none-eabi/9.2.1/thumb/v7-m/nofp\libgcc.a(_arm_addsubdf3.o)
                                                  build/MyAdc_Apply.o
                                                  build/MyInit.o
__aeabi_f2uiz                                     c:/gnu_tool_arm_embedded/bin/../lib/gcc/arm-none-eabi/9.2.1/thumb/v7-m/nofp\libgcc.a(_arm_fixunssfsi.o)
                                                  build/System.o
__aeabi_fadd                                      c:/gnu_tool_arm_embedded/bin/../lib/gcc/arm-none-eabi/9.2.1/thumb/v7-m/nofp\libgcc.a(_arm_addsubsf3.o)
                                                  build/MyAdc_Apply.o
__aeabi_fcmpeq                                    c:/gnu_tool_arm_embedded/bin/../lib/gcc/arm-none-eabi/9.2.1/thumb/v7-m/nofp\libgcc.a(_arm_cmpsf2.o)
__aeabi_fcmpge                                    c:/gnu_tool_arm_embedded/bin/../lib/gcc/arm-none-eabi/9.2.1/thumb/v7-m/nofp\libgcc.a(_arm_cmpsf2.o)
__aeabi_fcmpgt                                    c:/gnu_tool_arm_embedded/bin/../lib/gcc/arm-none-eabi/9.2.1/thumb/v7-m/nofp\libgcc.a(_arm_cmpsf2.o)
__aeabi_fcmple                                    c:/gnu_tool_arm_embedded/bin/../lib/gcc/arm-none-eabi/9.2.1/thumb/v7-m/nofp\libgcc.a(_arm_cmpsf2.o)
__aeabi_fcmplt                                    c:/gnu_tool_arm_embedded/bin/../lib/gcc/arm-none-eabi/9.2.1/thumb/v7-m/nofp\libgcc.a(_arm_cmpsf2.o)
                                                  build/MyAdc_Apply.o
__aeabi_fmul                                      c:/gnu_tool_arm_embedded/bin/../lib/gcc/arm-none-eabi/9.2.1/thumb/v7-m/nofp\libgcc.a(_arm_mulsf3.o)
                                                  build/MyAdc_Apply.o
                                                  build/System.o
__aeabi_frsub                                     c:/gnu_tool_arm_embedded/bin/../lib/gcc/arm-none-eabi/9.2.1/thumb/v7-m/nofp\libgcc.a(_arm_addsubsf3.o)
__aeabi_fsub                                      c:/gnu_tool_arm_embedded/bin/../lib/gcc/arm-none-eabi/9.2.1/thumb/v7-m/nofp\libgcc.a(_arm_addsubsf3.o)
__aeabi_i2d                                       c:/gnu_tool_arm_embedded/bin/../lib/gcc/arm-none-eabi/9.2.1/thumb/v7-m/nofp\libgcc.a(_arm_addsubdf3.o)
                                                  c:/gnu_tool_arm_embedded/bin/../lib/gcc/arm-none-eabi/9.2.1/../../../../arm-none-eabi/lib/thumb/v7-m/nofp\libc_nano.a(lib_a-dtoa.o)
__aeabi_i2f                                       c:/gnu_tool_arm_embedded/bin/../lib/gcc/arm-none-eabi/9.2.1/thumb/v7-m/nofp\libgcc.a(_arm_addsubsf3.o)
                                                  build/MyAdc_Apply.o
__aeabi_l2d                                       c:/gnu_tool_arm_embedded/bin/../lib/gcc/arm-none-eabi/9.2.1/thumb/v7-m/nofp\libgcc.a(_arm_addsubdf3.o)
__aeabi_l2f                                       c:/gnu_tool_arm_embedded/bin/../lib/gcc/arm-none-eabi/9.2.1/thumb/v7-m/nofp\libgcc.a(_arm_addsubsf3.o)
__aeabi_ui2d                                      c:/gnu_tool_arm_embedded/bin/../lib/gcc/arm-none-eabi/9.2.1/thumb/v7-m/nofp\libgcc.a(_arm_addsubdf3.o)
                                                  c:/gnu_tool_arm_embedded/bin/../lib/gcc/arm-none-eabi/9.2.1/../../../../arm-none-eabi/lib/thumb/v7-m/nofp\libc_nano.a(lib_a-dtoa.o)
__aeabi_ui2f                                      c:/gnu_tool_arm_embedded/bin/../lib/gcc/arm-none-eabi/9.2.1/thumb/v7-m/nofp\libgcc.a(_arm_addsubsf3.o)
__aeabi_ul2d                                      c:/gnu_tool_arm_embedded/bin/../lib/gcc/arm-none-eabi/9.2.1/thumb/v7-m/nofp\libgcc.a(_arm_addsubdf3.o)
__aeabi_ul2f                                      c:/gnu_tool_arm_embedded/bin/../lib/gcc/arm-none-eabi/9.2.1/thumb/v7-m/nofp\libgcc.a(_arm_addsubsf3.o)
__any_on                                          c:/gnu_tool_arm_embedded/bin/../lib/gcc/arm-none-eabi/9.2.1/../../../../arm-none-eabi/lib/thumb/v7-m/nofp\libc_nano.a(lib_a-mprec.o)
__ascii_mbtowc                                    c:/gnu_tool_arm_embedded/bin/../lib/gcc/arm-none-eabi/9.2.1/../../../../arm-none-eabi/lib/thumb/v7-m/nofp\libc_nano.a(lib_a-mbtowc_r.o)
                                                  c:/gnu_tool_arm_embedded/bin/../lib/gcc/arm-none-eabi/9.2.1/../../../../arm-none-eabi/lib/thumb/v7-m/nofp\libc_nano.a(lib_a-locale.o)
__ascii_wctomb                                    c:/gnu_tool_arm_embedded/bin/../lib/gcc/arm-none-eabi/9.2.1/../../../../arm-none-eabi/lib/thumb/v7-m/nofp\libc_nano.a(lib_a-wctomb_r.o)
                                                  c:/gnu_tool_arm_embedded/bin/../lib/gcc/arm-none-eabi/9.2.1/../../../../arm-none-eabi/lib/thumb/v7-m/nofp\libc_nano.a(lib_a-locale.o)
__b2d                                             c:/gnu_tool_arm_embedded/bin/../lib/gcc/arm-none-eabi/9.2.1/../../../../arm-none-eabi/lib/thumb/v7-m/nofp\libc_nano.a(lib_a-mprec.o)
__bss_end__                                       c:/gnu_tool_arm_embedded/bin/../lib/gcc/arm-none-eabi/9.2.1/../../../../arm-none-eabi/lib/thumb/v7-m/nofp/crt0.o
__bss_start__                                     c:/gnu_tool_arm_embedded/bin/../lib/gcc/arm-none-eabi/9.2.1/../../../../arm-none-eabi/lib/thumb/v7-m/nofp/crt0.o
__call_exitprocs                                  c:/gnu_tool_arm_embedded/bin/../lib/gcc/arm-none-eabi/9.2.1/../../../../arm-none-eabi/lib/thumb/v7-m/nofp\libc_nano.a(lib_a-exit.o)
__cmpdf2                                          c:/gnu_tool_arm_embedded/bin/../lib/gcc/arm-none-eabi/9.2.1/thumb/v7-m/nofp\libgcc.a(_arm_cmpdf2.o)
__cmpsf2                                          c:/gnu_tool_arm_embedded/bin/../lib/gcc/arm-none-eabi/9.2.1/thumb/v7-m/nofp\libgcc.a(_arm_cmpsf2.o)
__copybits                                        c:/gnu_tool_arm_embedded/bin/../lib/gcc/arm-none-eabi/9.2.1/../../../../arm-none-eabi/lib/thumb/v7-m/nofp\libc_nano.a(lib_a-mprec.o)
__cvt                                             c:/gnu_tool_arm_embedded/bin/../lib/gcc/arm-none-eabi/9.2.1/../../../../arm-none-eabi/lib/thumb/v7-m/nofp\libc_nano.a(lib_a-nano-vfprintf_float.o)
__d2b                                             c:/gnu_tool_arm_embedded/bin/../lib/gcc/arm-none-eabi/9.2.1/../../../../arm-none-eabi/lib/thumb/v7-m/nofp\libc_nano.a(lib_a-mprec.o)
                                                  c:/gnu_tool_arm_embedded/bin/../lib/gcc/arm-none-eabi/9.2.1/../../../../arm-none-eabi/lib/thumb/v7-m/nofp\libc_nano.a(lib_a-dtoa.o)
__deregister_frame_info                           c:/gnu_tool_arm_embedded/bin/../lib/gcc/arm-none-eabi/9.2.1/thumb/v7-m/nofp/crtbegin.o
__divdf3                                          c:/gnu_tool_arm_embedded/bin/../lib/gcc/arm-none-eabi/9.2.1/thumb/v7-m/nofp\libgcc.a(_arm_muldivdf3.o)
__dso_handle                                      c:/gnu_tool_arm_embedded/bin/../lib/gcc/arm-none-eabi/9.2.1/thumb/v7-m/nofp/crtbegin.o
__eqdf2                                           c:/gnu_tool_arm_embedded/bin/../lib/gcc/arm-none-eabi/9.2.1/thumb/v7-m/nofp\libgcc.a(_arm_cmpdf2.o)
__eqsf2                                           c:/gnu_tool_arm_embedded/bin/../lib/gcc/arm-none-eabi/9.2.1/thumb/v7-m/nofp\libgcc.a(_arm_cmpsf2.o)
__exponent                                        c:/gnu_tool_arm_embedded/bin/../lib/gcc/arm-none-eabi/9.2.1/../../../../arm-none-eabi/lib/thumb/v7-m/nofp\libc_nano.a(lib_a-nano-vfprintf_float.o)
__extendsfdf2                                     c:/gnu_tool_arm_embedded/bin/../lib/gcc/arm-none-eabi/9.2.1/thumb/v7-m/nofp\libgcc.a(_arm_addsubdf3.o)
__fixdfsi                                         c:/gnu_tool_arm_embedded/bin/../lib/gcc/arm-none-eabi/9.2.1/thumb/v7-m/nofp\libgcc.a(_arm_fixdfsi.o)
__fixunssfsi                                      c:/gnu_tool_arm_embedded/bin/../lib/gcc/arm-none-eabi/9.2.1/thumb/v7-m/nofp\libgcc.a(_arm_fixunssfsi.o)
__floatdidf                                       c:/gnu_tool_arm_embedded/bin/../lib/gcc/arm-none-eabi/9.2.1/thumb/v7-m/nofp\libgcc.a(_arm_addsubdf3.o)
__floatdisf                                       c:/gnu_tool_arm_embedded/bin/../lib/gcc/arm-none-eabi/9.2.1/thumb/v7-m/nofp\libgcc.a(_arm_addsubsf3.o)
__floatsidf                                       c:/gnu_tool_arm_embedded/bin/../lib/gcc/arm-none-eabi/9.2.1/thumb/v7-m/nofp\libgcc.a(_arm_addsubdf3.o)
__floatsisf                                       c:/gnu_tool_arm_embedded/bin/../lib/gcc/arm-none-eabi/9.2.1/thumb/v7-m/nofp\libgcc.a(_arm_addsubsf3.o)
__floatundidf                                     c:/gnu_tool_arm_embedded/bin/../lib/gcc/arm-none-eabi/9.2.1/thumb/v7-m/nofp\libgcc.a(_arm_addsubdf3.o)
__floatundisf                                     c:/gnu_tool_arm_embedded/bin/../lib/gcc/arm-none-eabi/9.2.1/thumb/v7-m/nofp\libgcc.a(_arm_addsubsf3.o)
__floatunsidf                                     c:/gnu_tool_arm_embedded/bin/../lib/gcc/arm-none-eabi/9.2.1/thumb/v7-m/nofp\libgcc.a(_arm_addsubdf3.o)
__floatunsisf                                     c:/gnu_tool_arm_embedded/bin/../lib/gcc/arm-none-eabi/9.2.1/thumb/v7-m/nofp\libgcc.a(_arm_addsubsf3.o)
__fp_lock_all                                     c:/gnu_tool_arm_embedded/bin/../lib/gcc/arm-none-eabi/9.2.1/../../../../arm-none-eabi/lib/thumb/v7-m/nofp\libc_nano.a(lib_a-findfp.o)
__fp_unlock_all                                   c:/gnu_tool_arm_embedded/bin/../lib/gcc/arm-none-eabi/9.2.1/../../../../arm-none-eabi/lib/thumb/v7-m/nofp\libc_nano.a(lib_a-findfp.o)
__gedf2                                           c:/gnu_tool_arm_embedded/bin/../lib/gcc/arm-none-eabi/9.2.1/thumb/v7-m/nofp\libgcc.a(_arm_cmpdf2.o)
__gesf2                                           c:/gnu_tool_arm_embedded/bin/../lib/gcc/arm-none-eabi/9.2.1/thumb/v7-m/nofp\libgcc.a(_arm_cmpsf2.o)
__global_locale                                   c:/gnu_tool_arm_embedded/bin/../lib/gcc/arm-none-eabi/9.2.1/../../../../arm-none-eabi/lib/thumb/v7-m/nofp\libc_nano.a(lib_a-locale.o)
                                                  c:/gnu_tool_arm_embedded/bin/../lib/gcc/arm-none-eabi/9.2.1/../../../../arm-none-eabi/lib/thumb/v7-m/nofp\libc_nano.a(lib_a-wctomb_r.o)
                                                  c:/gnu_tool_arm_embedded/bin/../lib/gcc/arm-none-eabi/9.2.1/../../../../arm-none-eabi/lib/thumb/v7-m/nofp\libc_nano.a(lib_a-mbtowc_r.o)
                                                  c:/gnu_tool_arm_embedded/bin/../lib/gcc/arm-none-eabi/9.2.1/../../../../arm-none-eabi/lib/thumb/v7-m/nofp\libc_nano.a(lib_a-localeconv.o)
__gtdf2                                           c:/gnu_tool_arm_embedded/bin/../lib/gcc/arm-none-eabi/9.2.1/thumb/v7-m/nofp\libgcc.a(_arm_cmpdf2.o)
__gtsf2                                           c:/gnu_tool_arm_embedded/bin/../lib/gcc/arm-none-eabi/9.2.1/thumb/v7-m/nofp\libgcc.a(_arm_cmpsf2.o)
__hi0bits                                         c:/gnu_tool_arm_embedded/bin/../lib/gcc/arm-none-eabi/9.2.1/../../../../arm-none-eabi/lib/thumb/v7-m/nofp\libc_nano.a(lib_a-mprec.o)
                                                  c:/gnu_tool_arm_embedded/bin/../lib/gcc/arm-none-eabi/9.2.1/../../../../arm-none-eabi/lib/thumb/v7-m/nofp\libc_nano.a(lib_a-dtoa.o)
__i2b                                             c:/gnu_tool_arm_embedded/bin/../lib/gcc/arm-none-eabi/9.2.1/../../../../arm-none-eabi/lib/thumb/v7-m/nofp\libc_nano.a(lib_a-mprec.o)
                                                  c:/gnu_tool_arm_embedded/bin/../lib/gcc/arm-none-eabi/9.2.1/../../../../arm-none-eabi/lib/thumb/v7-m/nofp\libc_nano.a(lib_a-dtoa.o)
__init_array_end                                  c:/gnu_tool_arm_embedded/bin/../lib/gcc/arm-none-eabi/9.2.1/../../../../arm-none-eabi/lib/thumb/v7-m/nofp\libc_nano.a(lib_a-init.o)
__init_array_start                                c:/gnu_tool_arm_embedded/bin/../lib/gcc/arm-none-eabi/9.2.1/../../../../arm-none-eabi/lib/thumb/v7-m/nofp\libc_nano.a(lib_a-init.o)
__io_putchar                                      build/MyPrintf.o
__ledf2                                           c:/gnu_tool_arm_embedded/bin/../lib/gcc/arm-none-eabi/9.2.1/thumb/v7-m/nofp\libgcc.a(_arm_cmpdf2.o)
__lesf2                                           c:/gnu_tool_arm_embedded/bin/../lib/gcc/arm-none-eabi/9.2.1/thumb/v7-m/nofp\libgcc.a(_arm_cmpsf2.o)
__libc_fini_array                                 c:/gnu_tool_arm_embedded/bin/../lib/gcc/arm-none-eabi/9.2.1/../../../../arm-none-eabi/lib/thumb/v7-m/nofp/crt0.o
__libc_init_array                                 c:/gnu_tool_arm_embedded/bin/../lib/gcc/arm-none-eabi/9.2.1/../../../../arm-none-eabi/lib/thumb/v7-m/nofp\libc_nano.a(lib_a-init.o)
                                                  build/startup_stm32f103xb.o
                                                  c:/gnu_tool_arm_embedded/bin/../lib/gcc/arm-none-eabi/9.2.1/../../../../arm-none-eabi/lib/thumb/v7-m/nofp/crt0.o
__lo0bits                                         c:/gnu_tool_arm_embedded/bin/../lib/gcc/arm-none-eabi/9.2.1/../../../../arm-none-eabi/lib/thumb/v7-m/nofp\libc_nano.a(lib_a-mprec.o)
__locale_mb_cur_max                               c:/gnu_tool_arm_embedded/bin/../lib/gcc/arm-none-eabi/9.2.1/../../../../arm-none-eabi/lib/thumb/v7-m/nofp\libc_nano.a(lib_a-locale.o)
__localeconv_l                                    c:/gnu_tool_arm_embedded/bin/../lib/gcc/arm-none-eabi/9.2.1/../../../../arm-none-eabi/lib/thumb/v7-m/nofp\libc_nano.a(lib_a-localeconv.o)
__lock___arc4random_mutex                         c:/gnu_tool_arm_embedded/bin/../lib/gcc/arm-none-eabi/9.2.1/../../../../arm-none-eabi/lib/thumb/v7-m/nofp\libc_nano.a(lib_a-lock.o)
__lock___at_quick_exit_mutex                      c:/gnu_tool_arm_embedded/bin/../lib/gcc/arm-none-eabi/9.2.1/../../../../arm-none-eabi/lib/thumb/v7-m/nofp\libc_nano.a(lib_a-lock.o)
__lock___atexit_recursive_mutex                   c:/gnu_tool_arm_embedded/bin/../lib/gcc/arm-none-eabi/9.2.1/../../../../arm-none-eabi/lib/thumb/v7-m/nofp\libc_nano.a(lib_a-lock.o)
__lock___dd_hash_mutex                            c:/gnu_tool_arm_embedded/bin/../lib/gcc/arm-none-eabi/9.2.1/../../../../arm-none-eabi/lib/thumb/v7-m/nofp\libc_nano.a(lib_a-lock.o)
__lock___env_recursive_mutex                      c:/gnu_tool_arm_embedded/bin/../lib/gcc/arm-none-eabi/9.2.1/../../../../arm-none-eabi/lib/thumb/v7-m/nofp\libc_nano.a(lib_a-lock.o)
__lock___malloc_recursive_mutex                   c:/gnu_tool_arm_embedded/bin/../lib/gcc/arm-none-eabi/9.2.1/../../../../arm-none-eabi/lib/thumb/v7-m/nofp\libc_nano.a(lib_a-lock.o)
                                                  c:/gnu_tool_arm_embedded/bin/../lib/gcc/arm-none-eabi/9.2.1/../../../../arm-none-eabi/lib/thumb/v7-m/nofp\libc_nano.a(lib_a-mlock.o)
__lock___sfp_recursive_mutex                      c:/gnu_tool_arm_embedded/bin/../lib/gcc/arm-none-eabi/9.2.1/../../../../arm-none-eabi/lib/thumb/v7-m/nofp\libc_nano.a(lib_a-lock.o)
                                                  c:/gnu_tool_arm_embedded/bin/../lib/gcc/arm-none-eabi/9.2.1/../../../../arm-none-eabi/lib/thumb/v7-m/nofp\libc_nano.a(lib_a-findfp.o)
__lock___sinit_recursive_mutex                    c:/gnu_tool_arm_embedded/bin/../lib/gcc/arm-none-eabi/9.2.1/../../../../arm-none-eabi/lib/thumb/v7-m/nofp\libc_nano.a(lib_a-lock.o)
                                                  c:/gnu_tool_arm_embedded/bin/../lib/gcc/arm-none-eabi/9.2.1/../../../../arm-none-eabi/lib/thumb/v7-m/nofp\libc_nano.a(lib_a-findfp.o)
__lock___tz_mutex                                 c:/gnu_tool_arm_embedded/bin/../lib/gcc/arm-none-eabi/9.2.1/../../../../arm-none-eabi/lib/thumb/v7-m/nofp\libc_nano.a(lib_a-lock.o)
__lshift                                          c:/gnu_tool_arm_embedded/bin/../lib/gcc/arm-none-eabi/9.2.1/../../../../arm-none-eabi/lib/thumb/v7-m/nofp\libc_nano.a(lib_a-mprec.o)
                                                  c:/gnu_tool_arm_embedded/bin/../lib/gcc/arm-none-eabi/9.2.1/../../../../arm-none-eabi/lib/thumb/v7-m/nofp\libc_nano.a(lib_a-dtoa.o)
__ltdf2                                           c:/gnu_tool_arm_embedded/bin/../lib/gcc/arm-none-eabi/9.2.1/thumb/v7-m/nofp\libgcc.a(_arm_cmpdf2.o)
__ltsf2                                           c:/gnu_tool_arm_embedded/bin/../lib/gcc/arm-none-eabi/9.2.1/thumb/v7-m/nofp\libgcc.a(_arm_cmpsf2.o)
__malloc_free_list                                c:/gnu_tool_arm_embedded/bin/../lib/gcc/arm-none-eabi/9.2.1/../../../../arm-none-eabi/lib/thumb/v7-m/nofp\libc_nano.a(lib_a-nano-mallocr.o)
                                                  c:/gnu_tool_arm_embedded/bin/../lib/gcc/arm-none-eabi/9.2.1/../../../../arm-none-eabi/lib/thumb/v7-m/nofp\libc_nano.a(lib_a-nano-freer.o)
