:020000040800F2
:1000000000500020316100080112000803120008AE
:10001000051200080712000809120008000000007D
:100020000000000000000000000000000B120008AB
:100030000D120008000000000F1200081112000845
:100040007961000879610008796100087961000828
:100050007961000879610008796100087961000818
:100060007961000879610008796100087961000808
:1000700079610008796100087961000879610008F8
:1000800079610008796100087961000879610008E8
:100090007961000879610008796100081912000887
:1000A00079610008796100087961000879610008C8
:1000B000796100082D120008796100087961000853
:1000C00079610008796100087961000879610008A8
:1000D0007961000879610008796100087961000898
:1000E0003D120008796100087961000800000000F5
:1000F0000000000000000000000000000000000000
:0C01000000000000000000005FF808F1A3
:1001100010B5054C237833B9044B13B10448AFF341
:1001200000800123237010BD9C020020000000000D
:10013000F88A000808B5034B1BB103490348AFF325
:10014000008008BD00000000A0020020F88A00081E
:10015000034613F8012B002AFBD1181A0138704707
:100160004FF0FF0C1CEAD0521EBF1CEAD15392EA9A
:100170000C0F93EA0C0F6FD01A4480EA010C400276
:1001800018BF5FEA41211ED04FF0006343EA5010D0
:1001900043EA5111A0FB01310CF00040B1F5000F12
:1001A0003EBF490041EAD3715B0040EA010062F1C1
:1001B0007F02FD2A1DD8B3F1004F40EBC25008BFAB
:1001C00020F00100704790F0000F0CF0004C08BFC9
:1001D00049024CEA502040EA51207F3AC2BFD2F196
:1001E000FF0340EAC250704740F400004FF00003A4
:1001F000013A5DDC12F1190FDCBF00F000407047DE
:10020000C2F10002410021FA02F1C2F1200200FA1B
:1002100002FC5FEA310040F1000053EA4C0308BFE2
:1002200020EADC70704792F0000F00F0004C02BF33
:10023000400010F4000F013AF9D040EA0C0093F0AE
:10024000000F01F0004C02BF490011F4000F013B08
:10025000F9D041EA0C018FE70CEAD15392EA0C0F76
:1002600018BF93EA0C0F0AD030F0004C18BF31F0E1
:10027000004CD8D180EA010000F00040704790F0B7
:10028000000F17BF90F0004F084691F0000F91F05B
:10029000004F14D092EA0C0F01D142020FD193EA21
:1002A0000C0F03D14B0218BF084608D180EA0100A9
:1002B00000F0004040F0FE4040F40000704740F085
:1002C000FE4040F44000704781F0004102E000BF72
:1002D00083F0004330B54FEA41044FEA430594EA06
:1002E000050F08BF90EA020F1FBF54EA000C55EA41
:1002F000020C7FEA645C7FEA655C00F0E2804FEA12
:100300005454D4EB5555B8BF6D420CDD2C4480EAF3
:10031000020281EA030382EA000083EA010180EA23
:10032000020281EA0303362D88BF30BD11F0004F71
:100330004FEA01314FF4801C4CEA113102D04042A7
:1003400061EB410113F0004F4FEA03334CEA1333E2
:1003500002D0524263EB430394EA050F00F0A780FA
:10036000A4F10104D5F1200E0DDB02FA0EFC22FAF5
:1003700005F2801841F1000103FA0EF2801843FAE9
:1003800005F359410EE0A5F120050EF1200E012ADA
:1003900003FA0EFC28BF4CF0020C43FA05F3C01818
:1003A00051EBE37101F0004507D54FF0000EDCF191
:1003B000000C7EEB00006EEB0101B1F5801F1BD33A
:1003C000B1F5001F0CD349085FEA30004FEA3C0C3E
:1003D00004F101044FEA445212F5800F80F09A8034
:1003E000BCF1004F08BF5FEA500C50F1000041EB38
:1003F000045141EA050130BD5FEA4C0C404141EB3C
:100400000101013C28BFB1F5801FE9D291F0000F36
:1004100004BF01460020B1FA81F308BF2033A3F1E5
:100420000B03B3F120020CDA0C3208DD02F1140CDC
:10043000C2F10C0201FA0CF021FA02F10CE002F117
:100440001402D8BFC2F1200C01FA02F120FA0CFC10
:10045000DCBF41EA0C019040E41AA2BF01EB045159
:10046000294330BD6FEA04041F3C1CDA0C340EDC57
:1004700004F11404C4F1200220FA04F001FA02F39A
:1004800040EA030021FA04F345EA030130BDC4F158
:100490000C04C4F1200220FA02F001FA04F340EA4D
:1004A0000300294630BD21FA04F0294630BD94F0FE
:1004B000000F83F4801306BF81F480110134013DE5
:1004C0004EE77FEA645C18BF7FEA655C29D094EA56
:1004D000050F08BF90EA020F05D054EA000C04BFD4
:1004E0001946104630BD91EA030F1EBF00210020BF
:1004F00030BD5FEA545C05D14000494128BF41F05E
:10050000004130BD14F580043CBF01F5801130BDC1
:1005100001F0004545F0FE4141F470014FF000004C
:1005200030BD7FEA645C1ABF194610467FEA655CFD
:100530001CBF0B46024650EA013406BF52EA03359F
:1005400091EA030F41F4002130BD00BF90F0000F8D
:1005500004BF0021704730B54FF4806404F13204C9
:100560004FF000054FF0000150E700BF90F0000F82
:1005700004BF0021704730B54FF4806404F13204A9
:1005800010F0004548BF40424FF000013EE700BF79
:1005900042004FEAE2014FEA31014FEA02701FBF09
:1005A00012F07F4393F07F4F81F06051704732F03B
:1005B0007F4208BF704793F07F4F04BF41F4002192
:1005C000704730B54FF4607401F0004521F00041F0
:1005D0001CE700BF50EA010208BF704730B54FF07A
:1005E00000050AE050EA010208BF704730B511F07B
:1005F000004502D5404261EB41014FF4806404F1B3
:1006000032045FEA915C3FF4D8AE4FF003025FEA38
:10061000DC0C18BF03325FEADC0C18BF033202EBBC
:10062000DC02C2F1200300FA03FC20FA02F001FA16
:1006300003FE40EA0E0021FA02F11444BDE600BFB9
:1006400070B54FF0FF0C4CF4E06C1CEA11541DBF68
:100650001CEA135594EA0C0F95EA0C0F00F0DEF833
:100660002C4481EA030621EA4C5123EA4C5350EA18
:10067000013518BF52EA033541F4801143F4801369
:1006800038D0A0FB02CE4FF00005E1FB02E506F0FA
:100690000042E0FB03E54FF00006E1FB03569CF04F
:1006A000000F18BF4EF0010EA4F1FF04B6F5007F55
:1006B00064F5407404D25FEA4E0E6D4146EB0606C7
:1006C00042EAC62141EA55514FEAC52040EA5E5050
:1006D0004FEACE2EB4F1FD0C88BFBCF5E06F1ED8FA
:1006E000BEF1004F08BF5FEA500E50F1000041EB31
:1006F000045170BD06F0004646EA010140EA0200DE
:1007000081EA0301B4EB5C04C2BFD4EB0C0541EAFF
:10071000045170BD41F480114FF0000E013C00F314
:10072000AB8014F1360FDEBF002001F0004170BD38
:10073000C4F10004203C35DA0C341BDC04F1140451
:10074000C4F1200500FA05F320FA04F001FA05F2DD
:1007500040EA020001F0004221F0004110EBD370AA
:1007600021FA04F642EB06015EEA430E08BF20EAD6
:10077000D37070BDC4F10C04C4F1200500FA04F379
:1007800020FA05F001FA04F240EA020001F000410B
:1007900010EBD37041F100015EEA430E08BF20EA7E
:1007A000D37070BDC4F1200500FA05F24EEA020EC6
:1007B00020FA04F301FA05F243EA020321FA04F0F5
:1007C00001F0004121FA04F220EA020000EBD370AC
:1007D0005EEA430E08BF20EAD37070BD94F0000FAC
:1007E0000FD101F00046400041EB010111F4801FE0
:1007F00008BF013CF7D041EA060195F0000F18BF91
:10080000704703F00046520043EB030313F4801FCC
:1008100008BF013DF7D043EA0603704794EA0C0F86
:100820000CEA135518BF95EA0C0F0CD050EA41069C
:1008300018BF52EA4306D1D181EA030101F0004119
:100840004FF0000070BD50EA410606BF1046194641
:1008500052EA430619D094EA0C0F02D150EA01364D
:1008600013D195EA0C0F05D152EA03361CBF10468E
:1008700019460AD181EA030101F0004141F0FE412D
:1008800041F470014FF0000070BD41F0FE4141F4B1
:10089000780170BD70B54FF0FF0C4CF4E06C1CEAB1
:1008A00011541DBF1CEA135594EA0C0F95EA0C0F66
:1008B00000F0A7F8A4EB050481EA030E52EA033521
:1008C0004FEA013100F088804FEA03334FF0805542
:1008D00045EA131343EA12634FEA022245EA11156F
:1008E00045EA10654FEA00260EF000419D4208BF20
:1008F000964244F1FD0404F5407402D25B084FEACD
:100900003202B61A65EB03055B084FEA32024FF478
:1009100080104FF4002CB6EB020E75EB030E22BFD5
:10092000B61A754640EA0C005B084FEA3202B6EB95
:10093000020E75EB030E22BFB61A754640EA5C0044
:100940005B084FEA3202B6EB020E75EB030E22BFD4
:10095000B61A754640EA9C005B084FEA3202B6EBD5
:10096000020E75EB030E22BFB61A754640EADC0094
:1009700055EA060E18D04FEA051545EA16754FEAF6
:1009800006164FEAC30343EA52734FEAC2025FEA14
:100990001C1CC0D111F4801F0BD141EA00014FF0A3
:1009A00000004FF0004CB6E711F4801F04BF014374
:1009B0000020B4F1FD0C88BFBCF5E06F3FF6AFAE90
:1009C000B5EB030C04BFB6EB020C5FEA500C50F120
:1009D000000041EB045170BD0EF0004E4EEA1131A3
:1009E00014EB5C04C2BFD4EB0C0541EA045170BDAA
:1009F00041F480114FF0000E013C90E645EA060EEE
:100A00008DE60CEA135594EA0C0F08BF95EA0C0F1B
:100A10003FF43BAF94EA0C0F0AD150EA01347FF463
:100A200034AF95EA0C0F7FF425AF104619462CE73A
:100A300095EA0C0F06D152EA03353FF4FDAE10469D
:100A4000194622E750EA410618BF52EA43067FF4EE
:100A5000C5AE50EA41047FF40DAF52EA43057FF47E
:100A6000EBAE12E74FF0FF3C06E000BF4FF0010C89
:100A700002E000BF4FF0010C4DF804CD4FEA410CED
:100A80007FEA6C5C4FEA430C18BF7FEA6C5C1BD0BA
:100A900001B050EA410C0CBF52EA430C91EA030F3B
:100AA00002BF90EA020F0020704710F1000F91EA98
:100AB000030F58BF994208BF90422CBFD8176FEA66
:100AC000E37040F0010070474FEA410C7FEA6C5C34
:100AD00002D150EA013C07D14FEA430C7FEA6C5C3B
:100AE000D6D152EA033CD3D05DF8040B704700BF67
:100AF0008446104662468C461946634600E000BFB5
:100B000001B5FFF7B7FF002848BF10F1000F01BD86
:100B10004DF808EDFFF7F4FF0CBF012000205DF851
:100B200008FB00BF4DF808EDFFF7EAFF34BF0120D6
:100B300000205DF808FB00BF4DF808EDFFF7E0FF6F
:100B400094BF012000205DF808FB00BF4DF808EDC0
:100B5000FFF7CEFF94BF012000205DF808FB00BF27
:100B60004DF808EDFFF7C4FF34BF012000205DF809
:100B700008FB00BF4FEA410C7FEA6C5C02D150EAEF
:100B8000013C0AD14FEA430C7FEA6C5C02D152EA85
:100B9000033C02D14FF0000070474FF00100704756
:100BA0004FEA410212F5001215D211D56FF4787395
:100BB000B3EB625212D94FEAC12343F0004343EA38
:100BC000505311F0004F23FA02F018BF4042704713
:100BD0004FF00000704750EA013005D111F000409D
:100BE00008BF6FF0004070474FF00000704700BF33
:100BF0004FEA4102B2F1E04324BFB3F5001CDCF13F
:100C0000FE5C0DD901F0004C4FEAC0024CEA507076
:100C1000B2F1004F40EB830008BF20F001007047A5
:100C200011F0804F21D113F13872BCBF01F00040A8
:100C3000704741F480114FEA5252C2F11802C2F1DA
:100C4000200C10FA0CF320FA02F018BF40F001005B
:100C50004FEAC1234FEAD32303FA0CFC40EA0C000D
:100C600023FA02F34FEA4303CCE77FEA625307D14A
:100C700050EA01331EBF4FF0FE4040F44000704781
:100C800001F0004040F0FE4040F40000704700BF1B
:100C900080F0004002E000BF81F0004142001FBF31
:100CA0005FEA410392EA030F7FEA226C7FEA236C3A
:100CB0006AD04FEA1262D2EB1363C1BFD21841402F
:100CC00048404140B8BF5B42192B88BF704710F0C5
:100CD000004F40F4000020F07F4018BF404211F068
:100CE000004F41F4000121F07F4118BF494292EAD0
:100CF000030F3FD0A2F1010241FA03FC10EB0C00FC
:100D0000C3F1200301FA03F100F0004302D5494288
:100D100060EB4000B0F5000F13D3B0F1807F06D335
:100D200040084FEA310102F10102FE2A51D2B1F12D
:100D3000004F40EBC25008BF20F0010040EA030022
:100D40007047490040EB0000013A28BFB0F5000FA2
:100D5000EDD2B0FA80FCACF1080CB2EB0C0200FA58
:100D60000CF0AABF00EBC25052421843BCBFD040A7
:100D70001843704792F0000F81F4000106BF80F421
:100D800000000132013BB5E74FEA41037FEA226CE4
:100D900018BF7FEA236C21D092EA030F04D092F0AF
:100DA000000F08BF0846704790EA010F1CBF0020E3
:100DB000704712F07F4F04D1400028BF40F0004040
:100DC000704712F100723CBF00F50000704700F060
:100DD000004343F0FE4040F4000070477FEA226287
:100DE00016BF08467FEA23630146420206BF5FEA58
:100DF000412390EA010F40F4800070474FF0000358
:100E000004E000BF10F0004348BF40425FEA000C1E
:100E100008BF704743F0964301464FF000001CE0C6
:100E200050EA010208BF70474FF000030AE000BF1C
:100E300050EA010208BF704711F0004302D540425A
:100E400061EB41015FEA010C02BF844601460020CC
:100E500043F0B64308BFA3F18053A3F50003BCFAE7
:100E60008CF2083AA3EBC25310DB01FA02FC634494
:100E700000FA02FCC2F12002BCF1004F20FA02F29B
:100E800043EB020008BF20F00100704702F120028E
:100E900001FA02FCC2F1200250EA4C0021FA02F2EF
:100EA00043EB020008BF20EADC7070474FF0FF3CC4
:100EB00006E000BF4FF0010C02E000BF4FF0010C54
:100EC0004DF804CD4FEA40024FEA41037FEA226C1D
:100ED00018BF7FEA236C11D001B052EA530C18BF3F
:100EE00090EA010F58BFB2EB030088BFC81738BFA4
:100EF0006FEAE17018BF40F0010070477FEA226C92
:100F000002D15FEA402C05D17FEA236CE4D15FEA8D
:100F1000412CE1D05DF8040B704700BF84460846C1
:100F20006146FFE70FB5FFF7C9FF002848BF10F182
:100F3000000F0FBD4DF808EDFFF7F4FF0CBF0120C7
:100F400000205DF808FB00BF4DF808EDFFF7EAFF51
:100F500034BF012000205DF808FB00BF4DF808ED0C
:100F6000FFF7E0FF94BF012000205DF808FB00BF01
:100F70004DF808EDFFF7D2FF94BF012000205DF887
:100F800008FB00BF4DF808EDFFF7C8FF34BF012094
:100F900000205DF808FB00BF42000ED2B2F1FE4F08
:100FA0000BD34FF09E03B3EB126209D44FEA002338
:100FB00043F0004323FA02F070474FF000007047FF
:100FC00012F1610F01D1420202D14FF0FF307047A0
:100FD0004FF00000704700BF08B5024B5B689847B0
:100FE00008BD00BF1000002000B595B000230D9390
:100FF0000F93109305930693079308930993019316
:1010000002930393049301210A914FF480320B92CF
:101010000C930E910223119312924FF4E013139349
:101020000AA801F00DFAC8B90F2305930221069111
:10103000002307934FF480620892099305A801F0FA
:10104000D9FC70B9022301934FF40043039301A824
:1010500001F00AFE40B915B05DF804FBFFF7BCFFD4
:10106000E2E7FFF7B9FFEDE7FFF7B6FFF3E70000B0
:1010700008B501F097F9FFF7B7FF00F021F802F08B
:1010800081FF02F0DDFA02F0C1FC03F057F803F033
:1010900019F902F087FF03F0D1F8034B1B6898475A
:1010A000024B1B689847FBE71C0000201000002043
:1010B00008B5024B9B68984708BD00BF1000002090
:1010C0002DE9F04389B00024049405940694079414
:1010D000464B9A6942F010029A619A6902F0100236
:1010E0000092009A9A6942F020029A619A6902F08D
:1010F00020020192019A9A6942F004029A619A6967
:1011000002F004020292029A9A6942F008029A617D
:101110009B6903F008030393039BDFF8E09001222F
:101120004FF40051484602F0ABF8314E224648F6E3
:101130003B41304602F0A4F84FF4005304930125DC
:10114000059506940227079704A9484601F0D2FEA8
:101150004FF4404304934FF00308CDF8148004A9E2
:10116000484601F0C7FE41F24C030493CDF81480C9
:1011700004A9204801F0BEFE40F203430493059504
:101180000695079704A9304601F0B4FEC4230493E2
:10119000CDF8148004A9304601F0ACFE48F63803BF
:1011A000049305950694079704A9304601F0A2FE22
:1011B0004FF4E6430493104B0593069504A930467B
:1011C00001F098FE22462946172002F0C3F91720A5
:1011D00002F006FA22463946282002F0BBF9282000
:1011E00002F0FEF909B0BDE8F08300BF0010024034
:1011F000000C0140000801400000211000100140D7
:10120000FEE7FEE7FEE7FEE7FEE770477047704740
:1012100008B501F0D9F808BD08B54FF4807002F0A8
:1012200061F84FF4007002F05DF808BD08B502489F
:1012300000F0E0F908BD00BF6803002008B54FF4D6
:10124000805002F04FF84FF4005002F04BF84FF48A
:10125000804002F047F808BD00B583B00F4B9A6993
:1012600042F001029A619A6902F001020092009A2A
:10127000DA6942F08052DA61DB6903F0805301934E
:10128000019B052002F048F9054A536823F0E0630A
:1012900043F00073536003B05DF804FB001002409C
:1012A0000000014030B4036A056A25F001050562BB
:1012B000846924F0F00444EA021423F00A030B4387
:1012C0008461036230BC704730B4056A25F01005B4
:1012D00005628469036A24F4704444EA023423F00A
:1012E000A00343EA01138461036230BC7047836842
:1012F00023F070030B4343F0070383607047000043
:101300002DE9F04104460D46036A23F00103036210
:10131000066AD0F80480836923F073030F681F43C3
:1013200026F002038E681E431E4B98420AD01D4BC6
:101330009C4218D0C4F80480A7616B68636326627E
:10134000BDE8F081CB680BB1082B06D126F008066A
:10135000EB681E4326F00406E9E741F641211248F6
:10136000FFF7A6FEF2E7AB69B3F5007F00D06BB9DB
:101370006B69B3F5807F00D073B928F440786B694E
:1013800043EA0808AB6943EA0808D3E741F64E216F
:101390000548FFF78DFEEBE741F64F210248FFF7C6
:1013A00087FEEAE7002C0140108B00082DE9F04190
:1013B00004460E46036A23F480730362056AD0F87C
:1013C0000480C36923F073030F681F4325F400757D
:1013D0008B6845EA03251F4B98420AD01D4B9C425F
:1013E00019D0C4F80480E7617368E3632562BDE83F
:1013F000F081CB680BB1082B07D125F40065F368A9
:1014000045EA032525F48065E8E741F6D72112482F
:10141000FFF74EFEF1E7B369B3F5007F00D06BB97B
:101420007369B3F5807F00D073B928F440587369AD
:1014300048EA0318B36948EA0318D2E741F6E42101
:101440000548FFF735FEEBE741F6E5210248FFF7D7
:101450002FFEEAE7002C0140108B00082DE9F04137
:1014600004460D46036A23F480530362066AD0F8EB
:101470000480C76927F4E6470B6847EA032726F488
:1014800000568B6846EA03360D4B984207D0C4F8E5
:101490000480E7616B6823642662BDE8F0814B69D4
:1014A000B3F5807F00D02BB928F480486B6948EAF7
:1014B0008318ECE741F623310248FFF7F9FDF3E723
:1014C000002C0140108B000810B5044603681F4A29
:1014D00093420FD0B3F1804F0CD0A2F594329342D7
:1014E00008D002F58062934204D04FF4CA711848C4
:1014F000FFF7DEFD94F83D30DBB2012B22D1022351
:1015000084F83D302368114A934210D0B3F1804FE4
:101510000DD0A2F59432934209D002F58062934235
:1015200005D01A6842F001021A6000200BE09A68A8
:1015300002F00702062A07D01A6842F001021A6078
:10154000002000E0012010BD0020FCE7002C01403D
:10155000108B000810B504460368224A93420FD04E
:10156000B3F1804F0CD0A2F59432934208D002F52B
:101570008062934204D040F2CF111B48FFF798FDE0
:1015800094F83D30DBB2012B27D1022384F83D30A3
:101590002268D36843F00103D3602368114A934261
:1015A00010D0B3F1804F0DD0A2F59432934209D000
:1015B00002F58062934205D01A6842F001021A6077
:1015C00000200BE09A6802F00702062A07D01A688A
:1015D00042F001021A60002000E0012010BD00204E
:1015E000FCE700BF002C0140108B000870477047DB
:1015F0007047704710B5044603681A6912F0020F6D
:1016000011D0DA6812F0020F0DD06FF002021A61E9
:101610000123037703689B6913F0030F70D0FFF772
:10162000E6FF0023237723681A6912F0040F12D013
:10163000DA6812F0040F0ED06FF004021A61022370
:10164000237723689B6913F4407F5FD02046FFF720
:10165000CEFF0023237723681A6912F0080F12D0F7
:10166000DA6812F0080F0ED06FF008021A61042336
:1016700023772368DB6913F0030F4ED02046FFF772
:10168000B6FF0023237723681A6912F0100F12D0D7
:10169000DA6812F0100F0ED06FF010021A610823F2
:1016A00023772368DB6913F4407F3DD02046FFF7A2
:1016B0009EFF0023237723681A6912F0010F03D0DD
:1016C000DA6812F0010F36D123681A6912F0800F20
:1016D00003D0DA6812F0800F34D123681A6912F04F
:1016E000400F03D0DA6812F0400F32D123681A6934
:1016F00012F0200F03D0DA6812F0200F30D110BDA5
:10170000FFF774FF2046FFF773FF8AE72046FFF7D5
:101710006DFF2046FFF76CFF9BE72046FFF766FF53
:101720002046FFF765FFACE72046FFF75FFF204646
:10173000FFF75EFFBDE76FF001021A61204603F07C
:10174000E9FBC1E76FF080021A61204600F003FE5A
:10175000C3E76FF040021A612046FFF74AFFC5E772
:101760006FF020021A61204600F0F4FDC7E7000088
:1017700003681B4A90420AD0B0F1804F07D0A2F50F
:101780009432904203D002F58062904203D123F05C
:1017900070034A681343124A90420AD0B0F1804F56
:1017A00007D0A2F59432904203D002F580629042B5
:1017B00003D123F44073CA68134323F080034A69BA
:1017C000134303608B68C3620B688362044B9842C7
:1017D00002D00123436170470B690363F9E700BF3F
:1017E000002C0140002865D010B504460368324A39
:1017F00093420FD0B3F1804F0CD0A2F594329342B4
:1018000008D002F58062934204D040F213112B48B5
:10181000FFF74EFCA3683BB1102B05D0202B03D063
:10182000402B01D0602B2DD123692BB1B3F5807FE4
:1018300002D0B3F5007F2BD1A3690BB1802B2DD142
:1018400094F83D3083B3022384F83D30214651F8AB
:10185000040BFFF78DFF012384F8463084F83E30F7
:1018600084F83F3084F8403084F8413084F84230C6
:1018700084F8433084F8443084F8453084F83D30AF
:10188000002010BD4FF48A710C48FFF711FCCBE724
:1018900040F215110948FFF70BFCCDE74FF48B71AF
:1018A0000648FFF705FCCBE784F83C30204602F001
:1018B000B3FBC8E701207047002C0140108B0008E3
:1018C000002865D010B504460368324A93420FD011
:1018D000B3F1804F0CD0A2F59432934208D002F5B8
:1018E0008062934204D040F213512B48FFF7E0FB93
:1018F000A3683BB1102B05D0202B03D0402B01D087
:10190000602B2DD123692BB1B3F5807F02D0B3F5C5
:10191000007F2BD1A3690BB1802B2DD194F83D30E2
:1019200083B3022384F83D30214651F8040BFFF7BE
:101930001FFF012384F8463084F83E3084F83F309E
:1019400084F8403084F8413084F8423084F84330E1
:1019500084F8443084F8453084F83D30002010BDD0
:1019600040F214510C48FFF7A3FBCBE740F21551AE
:101970000948FFF79DFBCDE740F216510648FFF7F7
:1019800097FBCBE784F83C30204602F075FBC8E7B4
:1019900001207047002C0140108B00082DE9F04118
:1019A00004460E46036A23F010030362056AD0F86A
:1019B0000480876927F4E6470B6847EA032725F088
:1019C00020058B6845EA03151F4B98420AD01E4B31
:1019D0009C4219D0C4F80480A7617368A363256290
:1019E000BDE8F081CB680BB1082B07D125F080054D
:1019F000F36845EA031525F04005E8E741F68C2138
:101A00001248FFF755FBF1E7B369B3F5007F00D04B
:101A10006BB97369B3F5807F00D073B928F440685F
:101A2000736948EA8308B36948EA8308D2E741F654
:101A30009A210648FFF73CFBEBE741F69B21034860
:101A4000FFF736FBEAE700BF002C0140108B0008CF
:101A500070B504460D4616463AB1042A05D0082A48
:101A600003D00C2A01D03C2A1FD12B68602B01D057
:101A7000702B20D1AB680BB1022B22D12B690BB19B
:101A8000042B24D194F83C30012B00F0CB800123AF
:101A900084F83C300C2E47D8DFE806F01F46464657
:101AA0004A464646734646469B0041F227015E4839
:101AB000FFF7FEFAD9E741F228015B48FFF7F8FA91
:101AC000D8E741F229015848FFF7F2FAD6E741F288
:101AD0002A015548FFF7ECFAD4E72368534A9342AA
:101AE0000FD0B3F1804F0CD0A2F59432934208D0BE
:101AF00002F58062934204D041F234014A48FFF774
:101B0000D7FA29462068FFF7FBFB2268936943F068
:101B1000080393612268936923F0040393612268A8
:101B2000936929690B439361002084F83C0070BDE0
:101B300023683E4A93420FD0B3F1804F0CD0A2F5F8
:101B40009432934208D002F58062934204D041F26D
:101B500045013548FFF7ACFA29462068FFF71EFF1C
:101B60002268936943F4006393612268936923F4C4
:101B70008063936122689369296943EA0123936131
:101B8000D2E72368294A93420FD0B3F1804F0CD09B
:101B9000A2F59432934208D002F58062934204D0B9
:101BA00041F256012048FFF783FA29462068FFF7E3
:101BB000FDFB2268D36943F00803D3612268D3692F
:101BC00023F00403D3612268D36929690B43D361ED
:101BD000AAE72368154A93420FD0B3F1804F0CD087
:101BE000A2F59432934208D002F58062934204D069
:101BF00041F267010C48FFF75BFA29462068FFF7BE
:101C00002DFC2268D36943F40063D3612268D36951
:101C100023F48063D3612268D369296943EA0123ED
:101C2000D36181E7022082E7108B0008002C01407D
:101C300010B4846824F47F4442EA03220A43224316
:101C4000826010BC7047000038B590F83C30012B22
:101C500000F0BA8104460D46012380F83C3002238F
:101C600080F83D300B68B3F5805F11D0B3F5005FAD
:101C70000ED06BB1102B0BD0202B09D0302B07D0FE
:101C8000402B05D0502B03D0602B01D0702B3DD1C1
:101C90002268936823F47F4323F0770393602B68D3
:101CA000602B00F020815FD8402B00F0578133D9A2
:101CB000502B36D12368A74A93420FD0B3F1804FFF
:101CC0000CD0A2F59432934208D002F58062934280
:101CD00004D041F27141A048FFF7EAF96B68B3F50F
:101CE000004F05D023B1022B02D00A2B40F0EF8029
:101CF000EB680F2B00F2F180EA6869682068FFF753
:101D0000D1FA50212068FFF7F2FA0AE041F232419D
:101D10009148FFF7CDF9BBE7202B0CD008D9302B29
:101D200009D0012384F83D30002084F83C0038BD00
:101D30000BB1102BF5D12368864A93420FD0B3F133
:101D4000804F0CD0A2F59432934208D002F5806205
:101D5000934204D041F2A4417F48FFF7A9F92968D2
:101D60002068FFF7C4FADCE7B3F5805F72D0B3F503
:101D7000005F36D12368774A93420FD0B3F1804F8A
:101D80000CD0A2F59432934208D002F580629342BF
:101D900004D041F25D417048FFF78AF9AB6843B166
:101DA000B3F5805F05D0B3F5005F02D0B3F5405FB7
:101DB0007BD16B68B3F5004F04D01BB1022B01D06F
:101DC0000A2B78D1EB680F2B7BD8EB686A68A9687F
:101DD0002068FFF72DFF2268936843F480439360E7
:101DE0009FE7702B9DD123685A4A93420FD0B3F1DD
:101DF000804F0CD0A2F59432934208D002F5806255
:101E0000934204D041F245415348FFF751F9AB6882
:101E100043B1B3F5805F05D0B3F5005F02D0B3F5F1
:101E2000405F30D16B68B3F5004F04D01BB1022B7B
:101E300001D00A2B2DD1EB680F2B30D8EB686A68E4
:101E4000A9682068FFF7F4FE2268936843F07703DF
:101E5000936066E723683F4A93423FF462AFB3F171
:101E6000804F3FF45EAFA2F5943293423FF459AFF6
:101E700002F5806293423FF454AF41F23E4136484E
:101E8000FFF716F94DE741F248413348FFF710F9E3
:101E9000C8E741F249413048FFF70AF9CBE741F280
:101EA0004A412D48FFF704F9C8E74FF4A3512A48E7
:101EB000FFF7FEF87DE741F261412748FFF7F8F8A8
:101EC00080E741F262412448FFF7F2F87DE741F2F2
:101ED00074412148FFF7ECF80AE741F275411E48CA
:101EE000FFF7E6F808E723681A4A93420FD0B3F1E8
:101EF000804F0CD0A2F59432934208D002F5806254
:101F0000934204D041F281411348FFF7D1F86B6846
:101F1000B3F5004F04D01BB1022B01D00A2B0CD11A
:101F2000EB680F2B0FD8EA6869682068FFF7CCF9D7
:101F300060212068FFF7DBF9F3E641F284410648AF
:101F4000FFF7B6F8ECE741F285410348FFF7B0F838
:101F5000E9E700BF002C0140108B000823681B4AF2
:101F600093420FD0B3F1804F0CD0A2F5943293423C
:101F700008D002F58062934204D041F291411448A6
:101F8000FFF796F86B68B3F5004F04D01BB1022B36
:101F900001D00A2B0CD1EB680F2B0FD8EA686968C7
:101FA0002068FFF77FF940212068FFF7A0F9B8E625
:101FB00041F294410648FFF77BF8ECE741F2954186
:101FC0000348FFF775F8E9E70220B0E6002C01406E
:101FD000108B000870B504460D461646184B984203
:101FE0000FD0B0F1804F0CD0A3F59433984208D0B5
:101FF00003F58063984204D041F609511148FFF778
:1020000057F83DB1042D05D0082D03D00C2D01D07B
:102010003C2D0ED105F01F05012303FA05F2236ABA
:1020200023EA02032362236A06FA05F51D432562AB
:1020300070BD41F60A510348FFF73AF8EAE700BFDE
:10204000002C0140108B000838B505460C4603688B
:10205000424A93423CD0B3F1804F39D0A2F594323A
:10206000934235D002F58062934231D040F29951CB
:102070003B48FFF71DF8002C33D195F83E30DBB21A
:10208000013B18BF0123002B64D1002C42D1022355
:1020900085F83E30012221462868FFF79BFF2B6818
:1020A0002E4A934246D02B682C4A934247D0B3F134
:1020B000804F44D0A2F59432934240D002F5806222
:1020C00093423CD01A6842F001021A60002042E0BC
:1020D000002CD0D0042CCED0082CCCD00C2CC5D1C8
:1020E000C9E7042C08D0082C0DD095F84130DBB29C
:1020F000013B18BF0123C6E795F83F30DBB2013B37
:1021000018BF0123BFE795F84030DBB2013B18BF91
:102110000123B8E7042C05D0082C07D0022385F84A
:102120004130B7E7022385F83F30B3E7022385F853
:102130004030AFE75A6C42F400425A64B3E79A6801
:1021400002F00702062A07D01A6842F001021A605C
:10215000002000E0012038BD0020FCE7002C0140F9
:10216000108B000838B504460D460368304A934288
:102170000FD0B3F1804F0CD0A2F59432934208D027
:1021800002F58062934204D040F286712948FEF73E
:102190008FFF2B686BB1102B0BD0202B09D0302B6D
:1021A00007D0402B05D0502B03D0602B01D0702BD3
:1021B00030D16B68802B00D093BB94F83C30012B5E
:1021C00034D0012384F83C30022384F83D30236866
:1021D0005968986821F070012A680A435A60236898
:1021E000134A93420AD0B3F1804F07D0A2F594323C
:1021F000934203D002F58062934204D120F0800024
:102200006A6810439860012384F83D30002084F808
:102210003C0038BD40F287710648FEF749FFC8E729
:102220004FF4F1610348FEF743FFC6E70220F0E7F1
:10223000002C0140488B000838B504460D46026862
:10224000424B9A4204D040F2C3714148FEF730FF3E
:102250002B68B3F5006F01D0002B4AD16B68B3F542
:10226000806F01D0002B4AD1AB6843B1B3F5807FBA
:1022700005D0B3F5007F02D0B3F5407F45D1EB68C0
:10228000FF2B48D82B69B3F5805F01D0002B48D1D4
:102290006B6913B1B3F5005F49D1EB69B3F5804FBA
:1022A00001D0002B49D194F83C30012B4BD00123B5
:1022B00084F83C30EB6823F44073AA68134323F49A
:1022C00080636A68134323F400632A68134323F48A
:1022D00080532A69134323F400536A69134323F498
:1022E0008043EA69134322685364002084F83C0069
:1022F00038BD40F2C4711648FEF7DAFEAEE740F290
:10230000C5711348FEF7D4FEAEE740F2C67110481F
:10231000FEF7CEFEB3E740F2C7710D48FEF7C8FEE8
:10232000B0E74FF4F9610A48FEF7C2FEB0E740F2A9
:10233000C9710748FEF7BCFEAFE740F2CA71044816
:10234000FEF7B6FEAFE70220D2E700BF002C014047
:10235000488B00087047704710B504460E4B18783C
:102360004FF47A73B3FBF0F30C4A1068B0FBF3F050
:1023700001F04EF968B90F2C01D901200AE00022C2
:1023800021464FF0FF3001F0E5F8054B1C600020BE
:1023900000E0012010BD00BF000000200800002068
:1023A0000400002008B5074A136843F010031360C7
:1023B000032001F0B1F80020FFF7CEFFFEF74CFF3D
:1023C000002008BD00200240034A1168034B1B781F
:1023D0000B441360704700BFC802002000000020BB
:1023E000014B1868704700BFC802002038B504468A
:1023F000FFF7F6FF0546B4F1FF3F02D0044B1B7810
:102400001C44FFF7EDFF401BA042FAD338BD00BFCC
:102410000000002082B0084B1B68084AA2FB03237F
:102420005B0A00FB03F3019300BF019B5A1E01925C
:10243000002BF9D102B0704708000020D34D621084
:10244000002800F08A8270B582B00446036813B198
:1024500013F00F0F2AD0236813F0010F40D06368E8
:102460002BB1B3F5803F02D0B3F5A02F24D1A94BF7
:102470005B6803F00C03042B29D0A64B5B6803F0C8
:102480000C03082B1ED06368B3F5803F55D0002B9A
:1024900069D103F1804303F504331A6822F48032D2
:1024A0001A601A6822F480221A604BE040F2671129
:1024B0009948FEF7FDFDCEE740F26D119648FEF714
:1024C000F7FDD4E7934B5B6813F4803FDBD0914B6F
:1024D0001B6813F4003F03D06368002B00F03F82B9
:1024E000236813F0020F00F089802369012B63D861
:1024F00063691F2B66D8874B5B6813F00C0F6CD099
:10250000844B5B6803F00C03082B61D02369002B1C
:1025100000F09980814B01221A60FFF761FF0546A8
:102520007C4B1B6813F0020F40F08480FFF758FFCC
:10253000401B0228F4D9032016E2764A136843F4BC
:1025400080331360636843B3FFF74AFF0546714B5E
:102550001B6813F4003FC3D1FFF742FF401B642800
:10256000F5D9032000E2B3F5A02F09D0694B1A6812
:1025700022F480321A601A6822F480221A60E1E79D
:1025800003F18043A3F53C331A6842F480221A60B9
:102590001A6842F480321A60D4E7FFF721FF05463B
:1025A0005C4B1B6813F4003F9AD0FFF719FF401BE8
:1025B0006428F5D90320D7E140F2A1115648FEF76F
:1025C00077FD95E74FF4D1715348FEF771FD92E71F
:1025D000504B5B6813F4803F98D14E4B1B6813F04F
:1025E000020F03D02369012B40F0BB81494A1368D5
:1025F00023F0F803616943EAC1031360236813F011
:10260000080F3BD0A369012B2FD8A369002B50D012
:10261000434B01221A60FFF7E3FE05463D4B5B6A20
:1026200013F0020F27D1FFF7DBFE401B0228F5D97C
:10263000032099E1374A136823F0F803616943EAFC
:10264000C1031360DAE7354B00221A60FFF7C8FEBA
:102650000546304B1B6813F0020FCFD0FFF7C0FECA
:10266000401B0228F5D903207EE14FF4F1712A487E
:10267000FEF71EFDC9E70120FFF7CCFE236813F02B
:10268000040F00F0A680E368012B01D9052B22D1AD
:10269000204BDB6913F0805F23D11E4BDA6942F0D7
:1026A0008052DA61DB6903F080530193019B0125BD
:1026B00018E01B4B00221A60FFF792FE0546154BEF
:1026C0005B6A13F0020FD9D0FFF78AFE401B022885
:1026D000F5D9032048E140F211210F48FEF7E8FC4C
:1026E000D6E700250F4B1B6813F4807F1CD0E368EE
:1026F000012B2DD0002B43D103F1804303F504338C
:102700001A6A22F001021A621A6A22F004021A629C
:1027100023E000BF00100240808B0008000042420E
:102720008004424200700040934A136843F480736F
:102730001360FFF755FE06468F4B1B6813F4807F2E
:10274000D5D1FFF74DFE801B6428F5D903200BE19E
:102750008A4A136A43F001031362E36833B3FFF755
:102760003FFE0646854B1B6A13F0020F2FD1FFF781
:1027700037FE801B41F288339842F3D90320F3E0FF
:10278000052B09D07D4B1A6A22F001021A621A6ADF
:1027900022F004021A62E0E7784B1A6A42F004025F
:1027A0001A621A6A42F001021A62D6E7FFF718FEAF
:1027B0000646724B1B6A13F0020F08D0FFF710FE9B
:1027C000801B41F288339842F3D90320CCE0002DDE
:1027D00053D1E369022B56D8E369002B00F0C38084
:1027E000664A526802F00C02082A00F0A680022B0A
:1027F00040F08F80236A13B1B3F5803F49D1636AFB
:102800004BB3B3F5802F26D0B3F5002F23D0B3F50B
:10281000402F20D0B3F5801F1DD0B3F5A01F1AD0D4
:10282000B3F5C01F17D0B3F5E01F14D0B3F5001FE8
:1028300011D0B3F5101F0ED0B3F5201F0BD0B3F598
:10284000301F08D0B3F5401F05D0B3F5501F02D09C
:10285000B3F5601F23D14A4B00221A60FFF7C0FD79
:102860000546464B1B6813F0007F1ED0FFF7B8FDEE
:10287000401B0228F5D9032076E0404AD36923F0B3
:102880008053D361A5E740F2AF213E48FEF710FC2C
:10289000A2E74FF42E713B48FEF70AFCAFE740F287
:1028A000B9213848FEF704FCD5E7236AB3F5803F29
:1028B0001AD032494B6823F47413226A606A0243C7
:1028C00013434B602E4B01221A60FFF789FD04462B
:1028D0002A4B1B6813F0007F19D1FFF781FD001B05
:1028E0000228F5D903203FE0A36813B1B3F5003FF8
:1028F00007D1224A536823F40033A1680B43536085
:10290000D7E740F2CF211F48FEF7D2FBF1E70020C6
:102910002AE01B4B00221A60FFF762FD0446174BAA
:102920001B6813F0007F06D0FFF75AFD001B02283A
:10293000F5D9032018E0002016E0012B16D00F4B2C
:102940005B6803F48031226A914211D103F4701361
:10295000626A93420ED1002006E0012070470120F8
:1029600002E0012000E0002002B070BD0120FBE782
:102970000120F9E70120F7E7007000400010024055
:1029800060004242808B000886B0164B0FCB0DF1E1
:10299000180C0CE90F0040F20123ADF80430124B83
:1029A0005B6803F00C02082A02D0104806B070479A
:1029B000C3F38342624412F8102C13F4803F0CD00E
:1029C000094B5B68C3F34043634413F8143C074866
:1029D00000FB02F0B0FBF3F0E8E7054800FB02F073
:1029E000E4E700BFB88B00080010024000127A0034
:1029F00000093D00002800F0FC8070B50D4604463B
:102A0000036813F00F0F6DD0022D71D87D4B1B683A
:102A100003F00703AB420BD27A4A136823F0070393
:102A20002B431360136803F00703AB4240F0E380CD
:102A3000236813F0020F29D013F0040F04D0724A58
:102A4000536843F4E0635360236813F0080F04D025
:102A50006D4A536843F460535360A3687BB1802B85
:102A60000DD0902B0BD0A02B09D0B02B07D0C02BB2
:102A700005D0D02B03D0E02B01D0F02B3ED1624A01
:102A8000536823F0F003A1680B435360236813F0ED
:102A9000010F4DD06368022B36D86368012B39D003
:102AA000022B3ED0584A126812F0020F00F0A580A7
:102AB00055494A6822F0030213434B60FFF790FC2C
:102AC0000646514B5B6803F00C036268B3EB820F60
:102AD0002ED0FFF785FC801B41F288339842F0D955
:102AE000032079E04FF44E714848FEF7E1FA8BE796
:102AF00040F239314548FEF7DBFA87E740F25F31B3
:102B00004248FEF7D5FABAE740F266313F48FEF791
:102B1000CFFAC2E73C4A126812F4003FC8D1012044
:102B20005AE0394A126812F0007FC1D1012053E007
:102B3000344B1B6803F00703AB420AD9314A1368D0
:102B400023F007032B431360136803F00703AB4222
:102B500055D1236813F0040F14D0E3685BB1B3F5CB
:102B6000806F08D0B3F5A06F05D0B3F5C06F02D069
:102B7000B3F5E06F31D1244A536823F4E063E16890
:102B80000B435360236813F0080F15D023695BB122
:102B9000B3F5806F08D0B3F5A06F05D0B3F5C06F63
:102BA00002D0B3F5E06F1ED1174A536823F4605387
:102BB000216943EAC1035360FFF7E6FE124B5B68ED
:102BC000C3F30313124AD35CD840124B1860124B64
:102BD0001868FFF7C1FB002070BD4FF469710B4806
:102BE000FEF766FAC7E740F2AB310848FEF760FA35
:102BF000DAE7012070470120EEE70120ECE7012031
:102C0000EAE700BF0020024000100240808B00086D
:102C1000AC8C00080800002004000020014B18685C
:102C2000704700BF0800002008B5FFF7F7FF044B0E
:102C30005B68C3F30223034AD35CD84008BD00BFDE
:102C400000100240BC8C000808B5FFF7E7FF044BFA
:102C50005B68C3F3C223034AD35CD84008BD00BFFE
:102C600000100240BC8C000870B582B004460368B6
:102C700013F0130F6CD0236813F0010F3FD063687B
:102C800043B1B3F5807F05D0B3F5007F02D0B3F533
:102C9000407F62D1504BDB6913F0805F62D14E4BB5
:102CA000DA6942F08052DA61DB6903F08053019304
:102CB000019B0125494B1B6813F4807F54D0464B80
:102CC0001B6A13F4407311D0626802F440729A4296
:102CD0000CD0414A136A23F44070414901260E602A
:102CE00000260E60106213F0010F51D13A4A136AA8
:102CF00023F4407361680B431362002D59D123689C
:102D000013F0020F11D0A36843B1B3F5804F05D083
:102D1000B3F5004F02D0B3F5404F4FD12E4A536860
:102D200023F44043A1680B435360236813F0100F52
:102D30004FD0E368B3F5800F01D0002B43D1264A72
:102D4000536823F48003E1680B435360002041E0A3
:102D50006C212448FEF7ACF98DE774212148FEF779
:102D6000A7F997E70025A5E71C4A136843F4807389
:102D70001360FFF735FB0646184B1B6813F4807F82
:102D80009DD1FFF72DFB801B6428F5D9032021E09E
:102D9000FFF726FB0646104B1B6A13F0020FA5D166
:102DA000FFF71EFB801B41F288339842F3D90320C2
:102DB00010E0D36923F08053D361A0E7B92109481B
:102DC000FEF776F9AAE740F215110648FEF770F90A
:102DD000B5E7002002B070BD001002400070004056
:102DE00040044242CC8B000810B586B004463B4BF1
:102DF0000FCB0DF1180C0CE90F0040F20123ADF8D8
:102E0000043014F0130F08D0022C58D0102C0AD024
:102E1000012C32D0002006B010BD4FF4CB713048E9
:102E2000FEF746F9F0E72F4B5A68186810F08070EB
:102E3000F1D0C2F3834306A90B4413F8100C12F42B
:102E4000803F16D0274B5B68C3F340430B4413F815
:102E5000142C254BB3FBF2F300FB03F0214B5B6812
:102E600013F4800FD7D14000204BA3FB0030400863
:102E7000D1E71F4B03FB00F0F0E71A4B1B6A40F24F
:102E800002321A40B2F5817F24D003F44073B3F5C7
:102E9000007F04D0B3F5407F09D00020BBE7114A82
:102EA000526A12F0020FF5D049F64040B3E70D4BDD
:102EB000186810F40030AED04FF22440ABE7FFF7B3
:102EC000C3FE084B5B68C3F3813301335B00B0FB87
:102ED000F3F0A0E74FF400409DE700BFB88B000877
:102EE000CC8B00080010024000127A00ABAAAAAAFC
:102EF00000093D002DE9F04383B007460E46BD4B67
:102F0000984213D003F5806398420FD003F5806395
:102F100098420BD003F58063984207D003F5806395
:102F2000984203D0BD21B448FEF7C2F833689AB284
:102F300012B11B0C1B041BB1BE21AF48FEF7B8F841
:102F40007368012B1ED9112B1CD0022B1AD0122B07
:102F500018D0AA4A934215D002F58012934211D09C
:102F600002F5801293420DD0A2F5F812934209D0D7
:102F700002F58012934205D002F58012934201D0EF
:102F8000032B03D14FF000094D46E1E0BF219A48E1
:102F9000FEF78EF8F6E79A4A934210D007D9994A7D
:102FA00093420CD002F58032934208D018E0A2F58B
:102FB0008012934203D002F5702293420CD1B36881
:102FC000022B7FD8B368002B00F08880012B7ED0C5
:102FD0007C614FF0080903E0A2F580129342EED025
:102FE000B8F1FF0F7DD83846B8F1FF0F7BD8AA00A3
:102FF00003680F21914023EA010309FA02F2134307
:103000000360736813F0805F00F0A1807E4B9A69C3
:1030100042F001029A619B6903F001030193019B55
:10302000AA08911C794B53F8210005F0030399007D
:103030000F238B4020EA03006E4B9F4259D003F5CB
:1030400080639F4200F0E68003F580639F4200F0BA
:10305000E38003F580639F4249D004234AE0F3688C
:10306000013B022B02D8D6F80C90B9E7D521624873
:10307000FEF71EF8F7E7F368013B022B03D8F3686D
:1030800003F10409ACE7DC215B48FEF711F8F6E731
:10309000F368013B022B03D8F36803F108099FE7AB
:1030A000E3215548FEF704F8F6E7F368013B022BED
:1030B00003D8F36803F10C0992E7EA214E48FDF7C3
:1030C000F7FFF6E7F7214C48FDF7F2FF7AE73C619E
:1030D0004FF0080984E74FF0000981E74FF0040939
:1030E0007EE7381D80E7A5F10802920080E7032300
:1030F00000E000238B4003430232444941F8223070
:10310000736813F4803F00F08980414A136843EAF2
:1031100008031360736813F4003F00F085803C4A95
:10312000536843EA08035360736813F4801F00F088
:103130008180374A936843EA08039360736813F405
:10314000001F7DD0324AD36843EA0803D3600135BB
:10315000336833FA05F279D00124AC4003EA04085D
:1031600034EA0303F3D1234B9F4213D003F580636A
:103170009F420FD003F580639F420BD003F580631D
:103180009F4207D003F580639F4203D0CD211A48A8
:10319000FDF78EFF7368122B3FF6FDAE122B3FF644
:1031A0001FAF01A252F823F0BF2F00085F300008C4
:1031B00091300008D7300008E12F0008E12F000807
:1031C000E12F0008E12F0008E12F0008E12F00089F
:1031D000E12F0008E12F0008E12F0008E12F00088F
:1031E000E12F0008E12F0008E12F000877300008E8
:1031F000AB30000800080140048C000800001110EA
:1032000000002210000031100010024000000140B8
:103210000004014001236DE702236BE70D4A1368A8
:1032200023EA0803136075E70A4A536823EA080390
:10323000536079E7074A936823EA080393607DE7C0
:10324000044AD36823EA0803D36080E703B0BDE8EB
:10325000F08300BF0004014038B504460D4621B19B
:10326000A3681D4207D0012038BD4FF4DA7103482E
:10327000FDF71EFFF4E70020F6E700BF048C00080E
:1032800070B5054614460E4621B1012C08D86CB124
:103290002E6170BD4FF4EA710648FDF709FFF4E7AF
:1032A00040F2D5110348FDF703FFF0E736042E6125
:1032B000EFE700BF048C000838B505460C4641B165
:1032C000EB6804EA030224EA030444EA02442C61A2
:1032D00038BD4FF4F6710248FDF7EAFEF0E700BF93
:1032E000048C000808B5054B5B69034200D108BD9A
:1032F000024B586101F0DAFDF9E700BF000401401C
:1033000070B4066CC56B0124B4406C6004686360E3
:103310004368102B05D0036899600368DA6070BCBD
:10332000704703689A600368D960F8E7002800F0E6
:10333000998010B5044603684B4A934215D0143265
:10334000934212D0143293420FD0143293420CD0D5
:103350001432934209D01432934206D0143293426D
:1033600003D09A214148FDF7A3FE636823B1102BD7
:1033700002D0B3F5804F52D1A368402B01D0002B6F
:1033800052D1E368802B01D0002B52D123692BB19D
:10339000B3F5807F02D0B3F5007F4FD163692BB1C5
:1033A000B3F5806F02D0B3F5006F4CD1A3690BB1B8
:1033B000202B4DD1E36943B1B3F5805F05D0B3F560
:1033C000005F02D0B3F5405F47D12268284B134419
:1033D0002849A1FB03131B099B002364264BE363CD
:1033E000022384F82130116821F47F5121F030014B
:1033F0006368A0680343E06803432069034360698E
:103400000343A0690343E06903430B4313600020B7
:10341000A063012384F8213084F8200010BD9B2193
:103420001248FDF745FEA7E79C211048FDF740FE36
:10343000A7E79D210D48FDF73BFEA7E79E210B481E
:10344000FDF736FEAAE79F210848FDF731FEADE7FC
:10345000A0210648FDF72CFEACE7A1210348FDF7AB
:1034600027FEB2E701207047080002403C8C0008AC
:10347000F8FFFDBFCDCCCCCC00000240F8B504462F
:103480000E4617461D46581E4FF6FE7398420FD83B
:1034900094F82030012B3AD0012384F8203094F89E
:1034A0002130012B0AD0002384F820300220F8BDFF
:1034B00040F26F111748FDF7FBFDE9E7022384F89E
:1034C00021300023A3632268136823F001031360F3
:1034D0002B463A4631462046FFF712FFE36A5BB1BE
:1034E0002268136843F00E0313602268136843F0E8
:1034F000010313600020DAE72268136823F0040355
:1035000013602268136843F00A031360EDE702209A
:10351000CDE700BF3C8C000810B50446C31E042B49
:103520000FD80A4AD36823F4E0631B041B0C24025F
:1035300004F4E064234343F0BF6343F40033D360F7
:1035400010BD92210248FDF7B3FDEAE700ED00E06F
:10355000748C000870B505460C4616460F2A25D80F
:103560000F2C28D81B4BDB68C3F30223C3F10701E0
:10357000042928BF04211A1D062A21D9033B4FF034
:10358000FF3202FA01F124EA01049C4002FA03F33B
:1035900026EA03063443002D14DB2401E4B205F1CE
:1035A000604505F5614585F8004370BDAA210A48CC
:1035B000FDF77EFDD4E7AB210748FDF779FDD1E7A4
:1035C0000023DCE705F00F052401E4B2034B5C5552
:1035D000EBE700BF00ED00E0748C000814ED00E0A4
:1035E00010B5041E0ADB002C07DB04F01F0264097F
:1035F00001239340044A42F8243010BDBE21034801
:10360000FDF756FDEFE700BF00E100E0748C000815
:103610000138B0F1807F0AD2064B5860064AF0218B
:1036200082F823100020986007221A60704701205A
:10363000704700BF10E000E000ED00E070470000C0
:1036400008B50A480A4B03604FF4E1334360002396
:103650008360C36003610C2242618361C36100F037
:10366000F3F800B908BDFDF7B7FCFBE7CC0200207A
:103670000038014010B586B00023029303930493F1
:1036800005930268174B9A4201D006B010BD03F5AE
:1036900058439A6942F480429A619A6902F48042DE
:1036A0000092009A9A6942F004029A619B6903F0C1
:1036B00004030193019B4FF40073029302230393CD
:1036C00003230593084C02A92046FFF713FC4FF48F
:1036D0008063029300230393049302A92046FFF71B
:1036E00009FCD2E7003801400008014010B504464B
:1036F0004268374B9A4256D8E36813B1B3F5005F7E
:1037000057D123692BB1B3F5806F02D0B3F5C06FE9
:1037100055D163694FF6F372134200D123B940F6D5
:1037200056612C48FDF7C4FC2268136923F440530A
:10373000E1680B431361A3682269134362691A436A
:103740002168CB6823F4B05323F00C031343CB6000
:103750002268536923F44073A1690B4353612268C3
:103760001D4B9A4231D0FFF75FFA00EB800303EB69
:10377000830362689200B3FBF2F21848A0FB0231A7
:103780004909642303FB11231B013233A0FB0323EC
:103790005B0903F0F00202EB011203F00F03216852
:1037A00013448B6010BD40F653610A48FDF780FC5E
:1037B000A2E740F654610748FDF77AFCA1E740F61E
:1037C00055610448FDF774FCA3E7FFF73DFACCE729
:1037D00020AA4400C48C0008003801401F85EB512A
:1037E0002DE9F84305460F4616469946DDF8208038
:1037F0002C68246837EA04030CBF01240024B44277
:103800001FD1B8F1FF3FF3D0B8F1000F05D0FEF79C
:10381000E7FDA0EB09004045EAD92A68D36823F404
:10382000D073D3602A68536923F0010353612023C6
:1038300085F83D3085F83E30002385F83C30032084
:1038400000E00020BDE8F88300286CD010B50446E5
:1038500083690BB30368354A93420CD0A2F57442D6
:10386000934208D002F58062934204D04FF4B671BF
:103870002F48FDF71DFCA369FBB1B3F5807F1CD079
:10388000B3F5007F19D0B3F5407F16D040F26D112B
:103890002748FDF70DFC10E00368244A93420CD042
:1038A000A2F57442934208D002F58062934204D09C
:1038B00040F271111E48FDF7FBFBA36813B1B3F58D
:1038C000805F24D194F83D303BB3242384F83D300D
:1038D0002268D36823F40053D3602046FFF706FF25
:1038E0002268136923F4904313612268536923F01B
:1038F0002A0353612268D36843F40053D360002045
:103900002064202384F83D3084F83E3010BD40F21E
:1039100073110748FDF7CCFBD4E784F83C30204610
:10392000FFF7A8FED1E70120704700BF0038014033
:10393000C48C00082DE9F04182B01E4690F83D305D
:10394000DBB2202B54D104460D469046002953D0BB
:10395000002A53D090F83C30012B51D0012380F83D
:103960003C3000230364212380F83D30FEF738FD0E
:103970000746A4F82480A4F82680A368B3F5805FE6
:1039800005D04FF00008002384F83C3012E0236992
:1039900013B14FF00008F6E7A8460025F3E738F822
:1039A000023B2268C3F308035360E28C92B2013AEF
:1039B00092B2E284E38C9BB273B100963B46002244
:1039C00080212046FFF70CFFE0B9002DE7D015F865
:1039D000012B23685A60E8E700963B46002240210D
:1039E0002046FFF7FDFE78B9202384F83D3000E043
:1039F000022002B0BDE8F0810120FAE70120F8E7DB
:103A00000220F6E70320F4E70320F2E708B50E48AA
:103A10000E4B03604FF48273436000238360C360E6
:103A2000036143614FF4007282610822C261036244
:103A3000436283620A23C36200F0B6F800B908BD8E
:103A4000FDF7CAFAFBE700BF100300200030014079
:103A500000B587B000230293039304930593026893
:103A6000124B9A4202D007B05DF804FB03F56043A5
:103A70009A6942F480529A619A6902F480520092E3
:103A8000009A9A6942F004029A619B6903F0040368
:103A90000193019BA0230293022303930323059325
:103AA00002A90348FFF726FADDE700BF0030014016
:103AB000000801402DE9F04782B0054688461746C8
:103AC0001E46FEF78DFC0A9B1B1A03EB0609FEF748
:103AD00087FC82462A4B1B68C3F3CB3309FB03F3F5
:103AE00001932B689C6838EA04030CBF012400246E
:103AF000BC4240D0B6F1FF3FF3D0FEF771FCA0EB23
:103B00000A0048450AD2B9F1000F07D0019A02B164
:103B10004A46019B013B01939146E2E72A685368BC
:103B200023F0E00353606B68B3F5827F0BD0AB6A80
:103B3000B3F5005F14D0012385F85130002385F8D8
:103B40005030032018E0AB68B3F5004F02D0B3F556
:103B5000806FECD12A68136823F040031360E6E716
:103B60002A68136823F4005313602A68136843F427
:103B700000531360DFE7002002B0BDE8F08700BF0C
:103B80000800002010B582B004460B4600920022C7
:103B90008021FFF78FFF08B902B010BD636D43F0BD
:103BA000200363650320F7E7002800F0008110B5CB
:103BB000044603687F4A934208D0A2F578429342B4
:103BC00004D04FF4AC717C48FDF772FA636813B10E
:103BD000B3F5827F3DD1A3682BB1B3F5806F02D0DE
:103BE000B3F5004F3BD1E368B3F5006F01D0002B74
:103BF0003BD1A369B3F5007F03D013B1B3F5802F98
:103C000039D1E3696BB1082B0BD0102B09D0182BDD
:103C100007D0202B05D0282B03D0302B01D0382BF8
:103C20002FD1236A0BB1802B31D1636A002B34D1A1
:103C3000636A002B59D123690BB1022B33D163691D
:103C4000012B36D86368B3F5827F38D00023E36157
:103C50005EE040F259115848FDF72AFABBE74FF4ED
:103C6000AD715548FDF724FABDE740F25B115248AB
:103C7000FDF71EFABDE74FF4AE714F48FDF718FA95
:103C8000BFE740F25D114C48FDF712FAC9E74FF467
:103C9000AF714948FDF70CFAC7E740F26111464899
:103CA000FDF706FAC4E74FF4B2714348FDF700FA96
:103CB000C5E740F265114048FDF7FAF9C2E7E3694C
:103CC00033B3082B24D0102B22D0182B20D0202B3C
:103CD0001ED0282B1CD0302B1AD0382B18D040F2F5
:103CE00069113548FDF7E4F912E0E3696BB1082B7F
:103CF0000BD0102B09D0182B07D0202B05D0282B48
:103D000003D0302B01D0382B45D1002323616361D0
:103D10000023A36294F85130002B42D0022384F890
:103D200051302268136823F040031360636803F482
:103D30008273A26802F404421343E26802F4006250
:103D40001343226902F002021343626902F0010286
:103D50001343A26902F400721343E26902F03802CD
:103D60001343226A02F080021343A26A02F4005253
:103D7000216813430B60638B226803F004035360D4
:103D80002268D36923F40063D361002060650123B6
:103D900084F8513010BD40F273110748FDF788F9DF
:103DA000B3E784F850302046FFF752FEB6E7012013
:103DB000704700BF00300140FC8C00082DE9F04343
:103DC00083B00446894690461D46836813B1B3F517
:103DD000004F4BD194F85030012B00F0CF800123DD
:103DE00084F85030FEF7FCFA074694F85160F6B2BA
:103DF000012E40F0B080B9F1000F00F0AD80B8F1B5
:103E0000000F00F0A980032384F85130002363657C
:103E1000C4F83090A4F83480A4F83680A363A38754
:103E2000E38763642364A368B3F5004F24D0236859
:103E30001A6812F0400F03D11A6842F040021A606B
:103E4000E368B3F5006F22D0636813B1B8F1010FD6
:103E500058D1226B236812781A73236B01332363C2
:103E6000E38E9BB2013B9BB2E3864BE040F22231F2
:103E70004348FDF71DF9ADE72268136823F04003BE
:103E800013602268136843F480431360CFE76368CC
:103E900013B1B8F1010F16D1226B23681288DA60D2
:103EA000236B02332363E38E9BB2013B9BB2E38619
:103EB00009E0FEF795FAC01BA84202D3B5F1FF3F17
:103EC00054D1002D54D0E38E9BB2002B2ED023680A
:103ED0009A6812F0020FECD0226B1288DA60236B22
:103EE00002332363E38E9BB2013B9BB2E386EAE796
:103EF000FEF776FAC01BA84202D3B5F1FF3F39D1D5
:103F0000002D39D0E38E9BB283B123689A6812F0FA
:103F1000020FEDD0226B12781A73236B01332363E7
:103F2000E28E92B2013A92B2E286EBE73A46294635
:103F30002046FFF727FE08B120236365A36833B945
:103F400001932368DA6801929B680193019B636D7A
:103F500013B9002600E00226012384F85130002323
:103F600084F85030304603B0BDE8F0830326F3E711
:103F70000326F1E70326EFE70326EDE70226F1E744
:103F8000FC8C000882B0064B5A6942F001025A616B
:103F90005B6903F001030193019B02B0704700BF0E
:103FA0000010024000B587B00023029303930493EE
:103FB0000593009301931648164A02604722426017
:103FC000836040F2CF72C260036180238361FDF79A
:103FD00009FC98B94FF48053029302A90C48FDF7ED
:103FE00033FE70B9202300930023019369460848EB
:103FF000FEF7B8F840B907B05DF804FBFCF7ECFF3A
:10400000E8E7FCF7E9FFEDE7FCF7E6FFF3E700BFC1
:10401000680300200004004000B583B00368134A21
:10402000934205D0124A93420DD003B05DF804FBD1
:10403000104B9A6942F400629A619B6903F4006331
:104040000093009BF1E70B4BDA6942F00202DA6160
:10405000DB6903F002030193019B002211461D203E
:10406000FFF778FA1D20FFF7BBFADEE7002C0140CE
:1040700000040040001002400368B3F1804F00D0FC
:10408000704782B003F50433DA6942F00102DA6165
:10409000DB6903F001030193019B02B0704700004C
:1040A00000B587B00023029303930493059303683C
:1040B0001E4A934205D0B3F1804F17D007B05DF888
:1040C00004FB1B4B9A6942F004029A619B6903F05E
:1040D00004030093009B4FF41063029302230393A5
:1040E000059302A91348FEF705FFE7E703F504333C
:1040F0009A6942F004029A619B6903F004030193F8
:10410000019B4FF40043029302230393059302A9FA
:104110000848FEF7EFFE084A536823F4407343F063
:10412000E06343F480735360C8E700BF002C014094
:1041300000100240000801400000014010B596B098
:1041400000241294139414941594109411940994C7
:104150000A940B940C940D940E940F9420222146F3
:1041600001A802F02FF83348334B036044608460A9
:1041700040F2CF23C3600461446180238361FDF773
:1041800031FB002840D14FF48053129312A92948E3
:10419000FDF75AFD00283AD12648FDF791FB00288B
:1041A00038D100231093119310A92248FDF7DAFFAC
:1041B000002832D1602309934FF496730A930022AA
:1041C0000B920C920D920E920F9209A91948FDF7CD
:1041D0003FFC28BB0C2209A91648FDF739FC10BB8F
:1041E0000023019302930393049305934FF4005229
:1041F0000692089301A90F48FEF71EF8B0B90D48C2
:10420000FFF74EFF16B010BDFCF7E6FEBBE7FCF76C
:10421000E3FEC1E7FCF7E0FEC3E7FCF7DDFEC9E71C
:10422000FCF7DAFED6E7FCF7D7FED9E7FCF7D4FEB9
:10423000E5E700BFB0030020002C014000B58BB0C3
:104240000023089309930193029303930493059326
:10425000069307931A484FF08042026041F61F42CE
:104260004260836041F28732C260036180238361D0
:10427000FDF726FBD0B900230893099308A910483D
:10428000FDF770FFA8B96023019340F6C4130293B1
:1042900000220392059201A90948FDF7D9FB58B9FC
:1042A0000748FFF7FDFE0BB05DF804FBFCF794FE3A
:1042B000E1E7FCF791FEE6E7FCF78EFEF0E700BFD2
:1042C000F803002000B585B0002301930293039307
:1042D0001E481F4A02604FF48072826001220273FE
:1042E00003754FF40022C26143600323036100F0B1
:1042F00099FAF8B90023019301230293072303934A
:1043000001A9124800F0B2F8B8B9012301930223C1
:10431000029301A90D4800F0A9F888B9042301937C
:104320000323029301A9094800F0A0F858B905B089
:104330005DF804FBFCF750FEDCE7FCF74DFEE4E71C
:10434000FCF74AFEEAE7FCF747FEF0E740040020EE
:104350000024014010B586B0002302930393049318
:10436000059302681E4B9A4201D006B010BD044668
:1043700003F56C439A6942F400729A619A6902F4F7
:1043800000720092009A9A6942F004029A619B6955
:1043900003F004030193019B13230293032303936C
:1043A00002A91048FEF7A6FD0F48104B036000233A
:1043B000436083608022C2604FF4807202614FF4D8
:1043C0008062426120228261C361FEF7AFFF18B9AB
:1043D000054B23625C62C8E7FCF7FEFDF8E700BF0F
:1043E0000024014000080140700400200800024041
:1043F000704708B5436A9A6A12F0500F1ED19A6A44
:1044000042F400729A621A68926802F46022B2F56D
:10441000602F03D01846FFF7EBFF08BD1A7B002A78
:10442000F8D19A6A22F480729A629A6A12F4805FD2
:10443000F0D19A6A42F001029A62EBE71B6A1B6BA9
:104440009847EAE7704708B5406AFFF7FBFF08BDE9
:10445000704708B5406A836A43F040038362C36AC9
:1044600043F00403C362FFF7F3FF08BD30B583B028
:1044700005460C460023019303685C4A934208D02A
:1044800002F58062934204D040F2DD715848FCF797
:104490000FFE2368112B3AD86368013B0F2B3CD8E1
:1044A000A368072B3FD895F82430012B00F09B80A0
:1044B000012385F824306368062B3AD82868426BBC
:1044C00003EB8303053B1F21994022EA0102216887
:1044D00001FA03F3134343632368092B49D928687E
:1044E000C26803EB43031E3B0721994022EA010205
:1044F000A16801FA03F31343C3602368103B012B47
:1045000045D90020002385F8243003B030BD40F2A7
:10451000DE713748FCF7CCFDBEE740F2DF7134486E
:10452000FCF7C6FDBCE74FF4FC613148FCF7C0FD69
:10453000B9E70C2B0ED82868026B03EB8303233BEF
:104540001F21994022EA0102216801FA03F3134373
:104550000363C1E72868C26A03EB8303413B1F2161
:10456000994022EA0102216801FA03F31343C3626E
:10457000B2E72868026903EB43030721994022EA66
:104580000102A16801FA03F313430361B5E72B6845
:10459000164A934205D0AB6A43F02003AB62012078
:1045A000B0E79A6812F4000F1BD19A6842F4000237
:1045B0009A602368102B01D00020A3E70D4B1B68E5
:1045C0000D4AA2FB03239B0C03EB83035B000193C7
:1045D00002E0019B013B0193019B002BF9D10020DC
:1045E00090E700208EE702208FE700BF0024014003
:1045F000348D00080800002083DE1B4330B583B0F3
:104600000023019303689A6812F0010F32D1044627
:104610009A6842F001029A60184B1B68184AA2FB84
:1046200003239B0C0193019B1BB1019B013B019355
:10463000F9E7FDF7D5FE054623689B6813F0010FE7
:1046400016D1FDF7CDFE431B022BF5D923689B68DD
:1046500013F0010FF0D1A36A43F01003A362E36AE1
:1046600043F00103E362002384F82430012002E0D8
:10467000002000E0002003B030BD00BF0800002093
:1046800083DE1B43F8B504460D4616460268494BC7
:104690009A4204D04FF4C4614748FCF709FD2368EF
:1046A000444A93425AD002F58062934256D094F81D
:1046B0002430012B7CD0012384F824302046FFF7DE
:1046C0009DFF074600286ED1A36A23F4706323F090
:1046D000010343F48073A3622268384B9A4244D0AA
:1046E000A36A23F48013A362536813F4806F05D088
:1046F000A36A23F4405343F48053A362A36A13F4E0
:10470000805F48D0E36A23F00603E362002384F865
:104710002430236A2A4A9A62236A2A4ADA62236A7E
:10472000294A1A6323686FF002021A6022689368AC
:1047300043F480739360216833462A464C31206AE3
:10474000FEF79CFE23689A6802F46022B2F5602F9F
:1047500024D09A6842F480129A6027E0154B5B6877
:1047600013F4702FA3D0012720E0A3F580635B68CA
:1047700013F4702FB4D0A36A43F48013A3620D4BDB
:104780005B6813F4806FB9D0A36A23F4405343F4F9
:104790008053A362B2E70023E362B7E79A6842F46A
:1047A000A0029A6002E0002384F824303846F8BD65
:1047B0000227FBE700240140348D00080028014057
:1047C000F3430008474400085344000838B5036821
:1047D0009A6812F0010F01D1002038BD04469A6892
:1047E00022F001029A60FDF7FBFD054623689B68F5
:1047F00013F0010F13D0FDF7F3FD431B022BF5D986
:1048000023689B6813F0010FF0D0A36A43F01003F4
:10481000A362E36A43F00103E3620120DDE70020C5
:10482000DBE70000002800F0E78070B5044603686D
:10483000724A934208D002F58062934204D040F25B
:10484000B3116F48FCF734FC636813B1B3F5006F24
:104850007ED1A36813B1B3F5807F7FD1237B012B79
:1048600000F28280E3698BB1B3F5003F0ED0B3F55F
:10487000C02F0BD0B3F5002F08D0B3F5202F05D0F3
:10488000B3F5402F02D0B3F5602F73D1A36863B1A5
:104890002369013B0F2B73D8237D012B76D8237D11
:1048A0001BB1A369013B072B76D8A36A002B79D0F3
:1048B0002046FFF78BFFA36A13F0100340F09680A9
:1048C000002840F09380A26A22F4885222F002026B
:1048D00042F00202A2626268E1690A43217B42EA75
:1048E0004102A568B5F5807F02D0012D61D01D463B
:1048F000267D012E60D02668716821F46941294324
:1049000071602568AE683F4931401143A960A168D4
:10491000B1F5807F01D0012902D12369013B1B053C
:104920002568E96A21F470010B43EB6223689968FA
:10493000354B0B409A4250D0A36A23F0120343F048
:104940001003A362E36A43F00103E362012052E033
:104950004FF4DA712A48FCF7ABFB7AE740F2B51165
:104960002748FCF7A5FB79E74FF4DB712448FCF7F7
:104970009FFB77E740F2B7112148FCF799FB85E7E9
:1049800040F2BB111E48FCF793FB85E74FF4DE7144
:104990001B48FCF78DFB82E740F2BF111848FCF77B
:1049A00087FB82E7E36284F824302046FFF7D2FCDD
:1049B0007EE74FF480759BE731B9A169013945EA7B
:1049C000413141F4006596E7A16A41F02001A162FE
:1049D000E16A41F00101E1628DE70023E362A36A2D
:1049E00023F0030343F00103A36204E0A36A43F04E
:1049F0001003A362012070BD012070470024014014
:104A0000348D0008FDF7E1FFFE0E1FFF70B582B088
:104A10000446002301930368414A934207D002F5FC
:104A20008062934203D085213E48FCF741FB94F815
:104A30002430012B72D0012384F824302046FFF764
:104A4000C5FE054628B1002384F82430284602B06C
:104A500070BDA36A23F4885323F0020343F00203DA
:104A6000A362314B1E680220FEF7BEF9B6FBF0F6DA
:104A70007600019602E0019B013B0193019B002B14
:104A8000F9D12046FFF7BAFD2268936843F0080386
:104A90009360FDF7A5FC064623689A6812F0080F9C
:104AA00014D0FDF79DFC801B0A28F5D923689B686C
:104AB00013F0080FF0D0A36A23F0120343F01003A1
:104AC000A362002384F824300125BFE79A6842F0EE
:104AD00004029A60FDF784FC064623689B6813F085
:104AE000040F14D0FDF77CFC801B0A28F5D923683D
:104AF0009B6813F0040FF0D0A36A23F0120343F075
:104B00001003A362002384F8243001259EE7A36AE2
:104B100023F0030343F00103A36294E7022595E722
:104B2000002401406C8D0008080000202DE9F04FA2
:104B300087B0A24B1B78012B00F08C80A049A14BC1
:104B4000186CFBF70DFBFCF727FAC0B29E4CA4FBD8
:104B500000235B0903F130028DF81020642202FB70
:104B60001303DBB2994DA5FB0313DB0830338DF83B
:104B700011304FF02E0A8DF812A0A5FB0013DB08B0
:104B800003EB8303A0EB430030308DF813004FF0AC
:104B9000560B8DF814B04FF000088DF81580DFF833
:104BA0003892CDF80C801826029601964FF6FF73C6
:104BB00000931F2304A90A466C21B220D9F81C7067
:104BC000B84783497F4B986BFBF7CAFAFCF7E4F9C7
:104BD00080B2804BA3FB00139B0903F130028DF8D8
:104BE00010204FF47A7202FB13039BB2A4FB031351
:104BF0005B0930338DF811308DF812A0A4FB00133F
:104C00005B09642202FB13039BB2A5FB0323DB08B1
:104C100030338DF81330A5FB0035ED0805EB850525
:104C2000A0EB450530358DF814508DF815B08DF892
:104C30001680D9F81C40CDF80C80029601964FF6EC
:104C4000FF7300931F2304AA38214A20A04707B00E
:104C5000BDE8F08F4FF00009584B83F800905E4C90
:104C6000E568CDF800908623942201211046A847DC
:104C7000E568CDF800903723942219460120A84713
:104C8000E568CDF800905123EF2219469420A847FB
:104C90002569CDF800908523EE2201210846A8471A
:104CA00001260296182501954FF4FC68CDF8008086
:104CB0004FF47843494A032102206769B8470296B6
:104CC0000195CDF800804FF47843454A1D2102201C
:104CD0006769B84702960195CDF800804FF4784394
:104CE000404A382102206769B84702960195CDF8FD
:104CF00000804FF478433C4A522102206769B8474C
:104D000002960195CDF800804FF47843374A6C2124
:104D100002206769B84702960195CDF800804FF4EC
:104D20007843334A0321C4206769B8470296019546
:104D3000CDF800804FF478432E4A1D21C4206769C6
:104D4000B847029601954FF6FF7ACDF800A04FF4D0
:104D50007843294A3721C4206769B847CDF800A0B5
:104D60001B23BE220321A6206768B847CDF800A008
:104D70003523BE221D21A6206768B847CDF800A0C4
:104D80004F23BE223721A6206768B847CDF8089088
:104D90000195CDF800A04FF47843184A5221A02085
:104DA0006769B847646902960195CDF800804FF4B1
:104DB0007843134A6C219A20A047BFE60C000020DC
:104DC00000002041800000201F85EB51CDCCCCCCD1
:104DD0000000C842D34D621060000020A48D00087E
:104DE000AC8D0008B48D0008BC8D0008C48D00088F
:104DF000CC8D0008D08D0008D48D0008D88D000817
:104E0000E08D000808B5034B1B689847FFF78EFE3E
:104E100008BD00BF500000207047704710B5194C06
:104E2000236898474FF4FA70FDF7E0FA63689847F3
:104E3000154C00212046FDF707F90C212046FDF70F
:104E400003F91248FCF786FB00211148FDF7FCF836
:104E5000104801F0A5FE104801F0A2FE0F4B1868A3
:104E6000FBF796FB02460B460D4801F013FE0D4B77
:104E70001B6898470120FDF7B9FA0B4B5B6C98470C
:104E800010BD00BF54000020B003002068030020C4
:104E9000F8030020E48D0008148E00082000002094
:104EA000408E0008600000208000002008B5B0F5AA
:104EB000805F18D009D9B0F5005F18D0B0F5804FE9
:104EC00019D10F4B01221A700CE0B0F5807F06D08B
:104ED000B0F5007F0FD10B4B01221A7002E00A4B94
:104EE00001221A7008BD094B01221A70FAE7074B1C
:104EF00001225A70F6E7064801F052FEF2E700BFC1
:104F00003800002048000020400000203000002031
:104F1000608E000808B50268044B1B689A4200D0F6
:104F200008BD034B9B6C9847FAE700BF680300205D
:104F30008000002000B583B001904FF6FF7301227E
:104F400001A90348FEF7F6FC019803B05DF804FBE5
:104F5000CC02002070B50C4616460025B54205DA95
:104F600014F8010BFFF7E6FF0135F7E7304670BD97
:104F700008B50138032818D8DFE800F002070C1143
:104F800008210C48FEF798F908BD10210948FEF7E2
:104F900093F9F9E720210748FEF78EF9F4E74FF47B
:104FA00000510548FEF788F9EEE7044B9B689847E7
:104FB000EAE700BF000C0140001001401000002093
:104FC00008B5013803281CD8DFE800F002080E14E9
:104FD000012208210D48FEF753F908BD01221021D6
:104FE0000A48FEF74DF9F8E7012220210748FEF7AD
:104FF00047F9F2E701224FF400510548FEF740F966
:10500000EBE7044B9B689847E7E700BF000C0140C3
:10501000001001401000002008B5013803281CD8FA
:10502000DFE800F002080E14002208210D48FEF708
:1050300027F908BD002210210A48FEF721F9F8E7F8
:10504000002220210748FEF71BF9F2E700224FF467
:1050500000510548FEF714F9EBE7044B9B689847AD
:10506000E7E700BF000C01400010014010000020E5
:10507000F0B585B0514B1B78DBB2012B05D0504BFE
:105080005B78012B4FD005B0F0BD0520FDF7AEF9E0
:105090004B4B5B78012B2DD0494B01225A701A7073
:1050A000484C666900230293182301934FF6FF755D
:1050B00000954FF47843444A3721C420B0476768CD
:1050C0004FF4FC6600964F23BE223721A620B84736
:1050D000676800963523BE221D21A620B847646864
:1050E00000951B23BE220321A620A047334B00229C
:1050F0001A70C4E70023324A5370324D6E6902932E
:10510000182301934FF6FF7400944FF478432F4A0D
:105110003721C420B0476D6800944F23BE22372149
:10512000A620A847E2E72A4B1B78DBB2012BAAD1C5
:105130000520FDF75BF9234B5C69002302931823DC
:1051400001934FF6FF7300934FF47843214A5221A5
:10515000A020A0471A4B1B78CBB9194B01221A701B
:10516000184C65684FF4FC6300933523BE221D2163
:10517000A620A84764684FF6FF7300931B23BE2246
:105180000321A620A047124B00221A707BE70C4B8C
:1051900000221A700B4C65684FF6FF73009335239D
:1051A000BE221D21A620A84764684FF4FC6300932B
:1051B0001B23BE220321A620A047E4E740000020D5
:1051C000B802002060000020A48E0008D48D0008E2
:1051D00048000020A88E00081E4B1B78DBB2012B74
:1051E00000D0704710B51B4B00245C7001229A70F0
:1051F000C72C11D80A20FDF7F9F84FF400711648B2
:10520000FEF72AF8012802D00134E4B2F0E7114B8E
:1052100001225A7000229A700E4B5B78012B09D044
:105220000C4B9B78012B0CD00A4B00221A705A7041
:105230009A7010BD094801F0B3FC094B9B68984770
:10524000EEE7084801F0ACFC074B9B680420984748
:10525000EAE700BF48000020000C0140B08E0008C3
:1052600054000020C08E0008240000201E4B1B7834
:10527000DBB2012B00D0704710B51B4B00245C70D3
:1052800001229A70C72C11D80A20FDF7AFF84FF40D
:1052900080711648FDF7E0FF012802D00134E4B226
:1052A000F0E7114B01225A7000229A700E4B5B7886
:1052B000012B09D00C4B9B78012B0CD00A4B002200
:1052C0001A705A709A7010BD094801F069FC094BB8
:1052D0009B689847EEE7084801F062FC074B9B6823
:1052E00004209847EAE700BF40000020000C01407E
:1052F000D08E000854000020E08E0008240000201A
:105300001E4B1B78DBB2012B00D0704710B51B4B36
:1053100000245C7001229A70632C11D80A20FDF7DA
:1053200065F84FF480411648FDF796FF012802D03A
:105330000134E4B2F0E7114B01225A7000229A7056
:105340000E4B5B78012B09D00C4B9B78012B0CD0BA
:105350000A4B00221A705A709A7010BD094801F069
:105360001FFC094B9B689847EEE7084801F018FCC2
:10537000074B9B6804209847EAE700BF38000020ED
:10538000000C0140F08E000854000020048F00083B
:105390002400002008B5164B1B78DBB2012B00D08F
:1053A00008BD4FF400511348FDF756FF68B14FF4A4
:1053B00000511048FDF750FF01280FD00C4B002280
:1053C0009A70DA701A705A70EAE7094B01229A70E3
:1053D0000022DA70084801F0E3FBE8E7044B002202
:1053E0009A700122DA70054801F0DAFBE6E700BFA7
:1053F00030000020000C0140188F0008288F0008A2
:1054000008B54FF400410248FDF756FF08BD00BF44
:10541000000C014008B500224FF400410148FDF79F
:105420002FFF08BD000C014008B501224FF40041D8
:105430000148FDF725FF08BD000C014010B582B002
:105440008DF807000B4C00224FF480612046FDF7D9
:1054500017FF4FF6FF7301220DF107010648FEF713
:10546000ADFC01224FF480612046FDF709FF02B038
:1054700010BD00BF000C01401003002038B50446E9
:10548000074D002202212846FDF7FAFE2046FFF7CD
:10549000D5FF012202212846FDF7F2FE38BD00BFEC
:1054A000000C014010B50446012202210348FDF71B
:1054B000E7FE2046FFF7C2FF10BD00BF000C014011
:1054C00010B50446000AFFF7EDFFE0B2FFF7EAFF70
:1054D00010BDF8B507460D4616461C462A20FFF7B4
:1054E000CDFF07F1280080B2FFF7EAFF06F12800A0
:1054F00080B2FFF7E5FF2B20FFF7C0FF05F1350075
:1055000080B2FFF7DDFF04F1350080B2FFF7D8FF6E
:105510002C20FFF7B3FFF8BD10B50B46144602462A
:10552000FFF7D7FF2046FFF7CBFF10BD2DE9F04F67
:1055300085B0BDF8384001948046A2EB000A894648
:10554000A3EB010BBAF1000F0DDD01220292BBF1BA
:10555000000F14DD01230393DA451CDD56460025B8
:105560002F462C461BE0BAF1000F05D0A0EB020A33
:105570004FF0FF320292EAE7CDF808A0E7E7BBF16F
:10558000000F05D0A1EB030B4FF0FF330393E3E7CC
:10559000CDF80CB0E0E75E46E1E70134A4B2B442D6
:1055A00013DC019A1FFA89F11FFA88F0FFF7B4FFA4
:1055B00057445D44BE4202DABF1B029B9844AE4290
:1055C000EBDAAD1B039B9944E7E705B0BDE8F08F2C
:1055D0002DE9F04182B006460F461C46BDF82080FA
:1055E0008518ADB2013DADB2CDF800800B462A461C
:1055F000FFF79CFF3C44A4B2013CA4B2CDF800806C
:1056000023462A4639462846FFF790FFCDF800800A
:105610002346324621462846FFF788FFCDF8008012
:105620003B46324621463046FFF780FF02B0BDE8D8
:10563000F08100002DE9F04F89B0039004910092B1
:105640000293BDF8483001939DF84C409DF850906E
:1056500014F0070318BF012303EBD403A2B2069290
:1056600004FB03F305930C2C0DD0039E0025102C96
:1056700000F01581182C00F09E81202C00F016827D
:1056800009B0BDE8F08F8221AA4801F003FA1A217F
:10569000A94801F0FFF9009B1978A84801F0FAF930
:1056A000A74D2978A74801F0F5F96978A64801F0D7
:1056B000F1F9039E4FF0000845464EE00298FFF7CF
:1056C000FFFE0135EDB2B5FBF4F304FB135313F009
:1056D000FF033AD00137FFB2072F25D8B9F1000FE9
:1056E0000DD1974A1A2303FB0B2353449B783B416C
:1056F00013F0010FE2D00198FFF7E2FEE1E7904AD4
:105700001A2303FB0B2353449B783B4113F0010FF7
:1057100015D10136B6B2A6EB0803A342DAD1049B39
:1057200001339BB2049346460AF1010A5FFA8AFAF2
:105730001FFA8AF3059A934209D20027CCE7019A0F
:1057400004993046FFF7E8FEE3E71D46ECE7DDF895
:105750001C8008F101081FFA88F8B8F1040F86D8F8
:10576000C3461A2303FB08F3754AD25C009B1B78DF
:105770009A42EED1724A1A2303FB08235A78009BFF
:105780005B789A42E5D1069B9A1992B204990B4430
:105790009BB2013B013A9BB292B23046FFF799FEB1
:1057A0004FF0000ACDF81C80DDF80C80C0E70298AD
:1057B000FFF786FE0135EDB2B5FBF4F304FB13539E
:1057C00013F0FF033CD00137FFB2072F27D8B9F100
:1057D000000F0ED10AEB0A135C4A02EB43035B4451
:1057E0009B783B4113F0010FE1D00198FFF768FE71
:1057F000E0E70AEB0A13554A02EB43035B449B784C
:105800003B4113F0010F15D10136B6B2A6EB0803E8
:10581000A342D8D1049B01339BB2049346460BF1BB
:10582000010B5FFA8BFB1FFA8BF3059A934209D2A7
:105830000027CAE7019A04993046FFF76DFEE3E7B7
:105840001D46ECE7079F0137BFB2012F3FF612AFAD
:10585000BA4607EB07133D4A12F81320009B1B784A
:105860009A42F0D107EB0713384A02EB43035A7808
:10587000009B5B789A42E6D1069B9A1992B20499F2
:105880000B449BB2013B013A9BB292B23046FFF708
:1058900020FE4FF0000B0797DDF80C80C3E70027D0
:1058A000D3E70298FFF70CFE0135EDB2B5FBF4F338
:1058B00004FB135313F0FF033AD00137FFB2072F55
:1058C00025D8B9F1000F0DD1214A4A2303FB0B2340
:1058D00053449B783B4113F0010FE2D00198FFF74E
:1058E000EFFDE1E71A4A4A2303FB0B2353449B785D
:1058F0003B4113F0010F15D10136B6B2A6EB0803F8
:10590000A342DAD1049B01339BB2049346460AF1C9
:10591000010A5FFA8AFA1FFA8AF3059A934219D2AA
:105920000027CCE7019A04993046FFF7F5FDE3E73D
:105930001D46ECE73C8F0008508F0008648F00087C
:10594000E08F0008788F00088C8F000864900008B2
:10595000A8900008DDF81C8008F101081FFA88F8FB
:10596000B8F1010F3FF689AEC3464A2303FB08F3A3
:105970004F4AD25C009B1B789A42EDD14C4A4A2395
:1059800003FB08235A78009B5B789A42E4D1069B7C
:105990009A1992B204990B449BB2013B013A9BB213
:1059A00092B23046FFF795FD4FF0000ACDF81C800B
:1059B000DDF80C80AFE74FF00008D1E70298FFF761
:1059C0007FFD0135EDB2B5FBF4F304FB135313F087
:1059D000FF033CD00137FFB2072F27D8B9F1000FE2
:1059E0000ED10AEB8A13334A02EB43035B449B78E4
:1059F0003B4113F0010FE1D00198FFF761FDE0E7B3
:105A00000AEB8A132B4A02EB43035B449B783B412E
:105A100013F0010F15D10136B6B2A6EB0803A3426D
:105A2000D8D1049B01339BB2049346460BF1010B82
:105A30005FFA8BFB1FFA8BF3059A934209D200277A
:105A4000CAE7019A04993046FFF766FDE3E71D4671
:105A5000ECE7079F0137BFB2012F3FF611AEBA4600
:105A600007EB8713134A12F81320009B1B789A4206
:105A7000F0D107EB87130F4A02EB43035A78009BE0
:105A80005B789A42E6D1069B9A1992B204990B442C
:105A90009BB2013B013A9BB292B23046FFF719FD2F
:105AA0004FF0000B0797DDF80C80C3E70027D3E722
:105AB000A89000083C9100082DE9F04F87B083467C
:105AC00003910093BDF8403002939DF84440019447
:105AD0009DF84890670814F00E0318BF012303EBEC
:105AE000141304FB03F30493203AD3B2059300EBA1
:105AF000540292B263189BB2013B013A9BB292B23C
:105B0000FFF7E7FC5E464FF0000A554649E0059B6B
:105B100003EB4303334A02EB830313F80A800024A8
:105B20001DE0314B059A03EB021313F80A80F6E7E8
:105B3000059B03EB43032D4A02EB031313F80A8082
:105B4000EDE70298FFF7BCFC0135EDB2B5FBF7F3CA
:105B500007FB135313F0FF033FD00134E4B2072CCB
:105B60001BD8B9F1000F08D148FA04F313F0010F64
:105B7000E7D00098FFF7A4FCE6E748FA04F313F037
:105B8000010F24D10136B6B2A6EB0B03BB42E4D120
:105B9000039B01339BB203935E460AF1010A1FFA8D
:105BA0008AFA049B9A451AD2019B0C2BAFD0019B19
:105BB000102BB6D0019B182BBAD0019B202B0ED1F5
:105BC0000B4B059A03EB821313F80A80A7E7009AA0
:105BD00003993046FFF7A0FCD4E71D46DDE707B088
:105BE000BDE8F08F40920008B4960008A49C00081D
:105BF00074AE00082DE9F04F87B004460E461746F4
:105C00001D46BDF840B09DF844809DF848909DF831
:105C10004CA03EE004EB0803F02B02DD4644B6B294
:105C2000002406EB0803872B01DD00263446CDF85F
:105C300008A0CDF8048000955B463A4631462046E0
:105C4000FFF7F8FC02374444A4B222E04644B6B25F
:105C500000241DE04FEA5903059304EB5903F02B90
:105C600002DD4E44B6B2002406EB0903872B01DDAA
:105C700000263446CDF808A0CDF80490CDF800B049
:105C80002B4631462046FFF717FF059B1C44A4B264
:105C900001373A7872B112F0800FBBD10A2A18BFCF
:105CA0000D2AD7D117F9013C002BCFDB4E44B6B2F9
:105CB0000024EDE707B0BDE8F08F2DE9F04784B090
:105CC0000446884615461F46BDF830A09DF834604E
:105CD0009DF838902A7872B1CDF808900196CDF8E9
:105CE00000A03B4641462046FFF7E6FE04EB560483
:105CF000A4B20135EEE704B0BDE8F0872DE9F84322
:105D000081460F4615469846BDF82060013B013A92
:105D10009BB292B2FFF7DDFB08E03046FFF7D0FB05
:105D20000134A4B2AC42F8D30137BFB2474501D227
:105D30004C46F7E7BDE8F88308B53620FFF79EFB31
:105D40007020FFF7AFFB08BD2DE9F04784B0044693
:105D5000884615461F46BDF830A09DF834609DF872
:105D6000389004210E4800F095FE2846FAF7F0F925
:105D700001460C4800F08EFE2A7872B1CDF80890EA
:105D80000196CDF800A03B462A4641462046FFF743
:105D900051FC02353444A4B2EEE704B0BDE8F0870C
:105DA000A08F0008B48F000810B582B0724C00229A
:105DB0004FF400612046FDF763FA002201212046DE
:105DC000FDF75EFA1E20FCF711FB0122114620466A
:105DD000FDF756FA1E20FCF709FB1120FFF74EFBDA
:105DE0001E20FCF703FB1120FFF748FB1E20FCF7E9
:105DF000FDFAFFF7A1FF3A20FFF740FB0520FFF770
:105E000051FBB220FFF73AFB0C20FFF74BFB0C20B5
:105E1000FFF748FB0020FFF745FB3320FFF742FB6D
:105E20003320FFF73FFBB720FFF728FB3520FFF7B4
:105E300039FBBB20FFF722FB1920FFF733FBC02003
:105E4000FFF71CFB2C20FFF72DFBC220FFF716FBF2
:105E50000120FFF727FBC320FFF710FB1220FFF7FD
:105E600021FBC420FFF70AFB2020FFF71BFBC62005
:105E7000FFF704FB0F20FFF715FBD020FFF7FEFA1A
:105E8000A420FFF70FFBA120FFF70CFBE020FFF79A
:105E9000F5FAD020FFF706FB0420FFF703FB0D20E7
:105EA000FFF700FB1120FFF7FDFA1320FFF7FAFAC6
:105EB0002B20FFF7F7FA3F20FFF7F4FA5420FFF703
:105EC000F1FA4C20FFF7EEFA1820FFF7EBFA0D205D
:105ED000FFF7E8FA0B20FFF7E5FA1F20FFF7E2FAD9
:105EE0002320FFF7DFFAE120FFF7C8FAD020FFF701
:105EF000D9FA0420FFF7D6FA0C20FFF7D3FA1120C5
:105F0000FFF7D0FA1320FFF7CDFA2C20FFF7CAFADB
:105F10003F20FFF7C7FA4420FFF7C4FA5120FFF7EC
:105F2000C1FA2F20FFF7BEFA1F20FFF7BBFA1F2090
:105F3000FFF7B8FA2020FFF7B5FA2320FFF7B2FAEF
:105F40002120FFF79BFA2920FFF798FA01224FF44E
:105F500000612046FDF794F9084B5C684FF6FF732B
:105F600000938723F02200210846A047044800F050
:105F700017FE02B010BD00BF000C01406000002001
:105F8000C88F000800000000F0B585B00023019321
:105F900002930393072331E05D1E574A02EB45014C
:105FA000C88802EB4301C880D91D02EB4101C988B2
:105FB00003F1080402EB4404E18003F10F0102EB5A
:105FC0004101CE88103302EB4303DE80FAF71AFF5B
:105FD00001460198FAF762FE01903046FAF712FF87
:105FE00001460298FAF75AFE0290E088FAF70AFF93
:105FF00001460398FAF752FE0390ABB2002BCBD1C7
:106000003D4C208880B2E0806688B6B2E684A588E0
:10601000ADB2E582FAF7F6FE0199FAF73FFE0746C0
:106020003046FAF7EFFE0299FAF738FE06462846A0
:10603000FAF7E8FE0399FAF731FE05464FF078517A
:106040003846FAF78DF8FAF7A3FA23A3D3E9002329
:10605000FAF7F6FA22A3D3E90023FAF7F1FAFAF7EE
:10606000C7FDA0634FF078513046FAF779F8FAF798
:106070008FFA19A3D3E90023FAF7E2FA18A3D3E9B8
:106080000023FAF7DDFAFAF7B3FD20644FF07851F8
:106090002846FAF765F8FAF77BFA0FA3D3E900234D
:1060A000FAF7CEFA10A3D3E90023FAF7F3FB0022A4
:1060B000124BFAF7EFFB0EA3D3E90023FAF7EAFB42
:1060C000FAF796FDE0630021FAF73EFF08B905B044
:1060D000F0BD0022E263FAE76666666666664A3FDE
:1060E000D8D7D7D7D7D73240000000000020514082
:1060F0007B14AE47E17A843F800000200000F43F2B
:1061000010B50848FBF7E0F90120FCF76FF9064CE1
:106110002046FEF77BFC032204492046FEF7B2FA34
:1061200010BD00BF68030020400400208000002054
:106130000C480D490D4A002302E0D458C4500433E2
:10614000C4188C42F9D30A4A0A4C002301E01360B8
:106150000432A242FBD3FDF771FA00F00FF8FAF710
:1061600087FF7047000000209C02002000C9000843
:106170009C020020C4040020FEE7000070B5002649
:106180000C4D0D4C641BA410A64209D102F0B4FCC6
:1061900000260A4D0A4C641BA410A64205D170BD0E
:1061A00055F8043B98470136EEE755F8043B98470D
:1061B0000136F2E7F8C80008F8C80008F8C8000877
:1061C000FCC8000803460244934200D1704703F81C
:1061D000011BF9E7002B2DE9F0471F46BBBF03F178
:1061E00000431F4600232D2388B01446129A109DA9
:1061F0001370149BDDF84CA023F02008B8F1460F73
:1062000005D0B8F1450F00D10135022300E003238A
:1062100007AA049206AACDE902A2CDE900352246DA
:106220003B4600F015FEB8F1470F064602D1119B20
:10623000DB0722D5B8F1460F06EB050910D13378FC
:10624000302B0AD10022002320463946FAF760FCA1
:1062500018B9C5F10105CAF80050DAF800309944C0
:106260000022002320463946FAF752FC08B1CDF847
:106270001C903022079B4B4507D33046079B159A4D
:106280009B1B136008B0BDE8F087591C07911A707A
:10629000F0E70346F7B5002903F8022BB6BF2D221D
:1062A0002B224942092942702BDD0DF10704A44637
:1062B0000A2791FBF7F60A46A64607FB1615632A3E
:1062C00005F13005314604F1FF340EF8015CF0DCD5
:1062D0003031AEF1020504F8011C2946441C614529
:1062E0000AD30DF10902A2EB0E02654588BF002218
:1062F0001344181A03B0F0BD11F8012B04F8012F54
:10630000EDE7302330318370C170031DF1E70000E9
:106310002DE9F04F91B00C46DDF8688016461F4617
:10632000054601F01FFD036818460993F9F710FFB1
:1063300000230E93D8F800300A90073323F00703A8
:1063400003F1080294F81890D4F800B0C8F80020BF
:10635000D3E90023C4E91223D4E9128A2AF00043C6
:106360000B934FF0FF3240469C4B0B99FAF702FC1F
:1063700070BB4FF0FF324046984B0B99FAF7DCFBAD
:1063800030BB0022002340465146FAF7CBFB10B148
:106390002D2384F84330924B9248B9F1470F94BFB4
:1063A0009846804603234FF0000A23612BF0040334
:1063B000236033462146284600970FAA00F0D4F9FF
:1063C000013040F090804FF0FF3011B0BDE8F08F09
:1063D0004246534640465146FAF7CCFB48B1BAF123
:1063E000000FB8BF2D238048B8BF84F843307F4BDF
:1063F000D3E7636809F0DF015A1C42D106236360CA
:10640000002206920EAACDE904920DAA4BF48063F5
:1064100003920DF13302CDE90132236063684246F5
:106420000093284653460B91FFF7D4FE0B99804604
:1064300047290D9908D1C81C02DB6368994240DDE9
:10644000A9F102095FFA89F9B9F1650F1FD84A4627
:10645000013904F150000D91FFF71BFF0E9A82469F
:106460001318012A236102DC2268D20701D5013307
:1064700023619DF83330002B9BD02D2384F84330CB
:1064800097E74729BCD1002BBAD10123B7E7B9F16F
:10649000660F18D1002963680BDD216113B92268EA
:1064A000D00702D501330B4423614FF0000AA165E8
:1064B000DFE713B92268D20701D50233F4E70123DD
:1064C000F2E74FF067090E9B994205DB23682161D3
:1064D000D807EAD54B1CE7E70029CCBF0122C1F160
:1064E00002021344E0E723685A0507D423694246B1
:1064F00031462846B84701302BD164E7B9F1650F22
:1065000040F2DD80D4E9120100220023FAF700FBFB
:10651000002833D0012331462846354AB847013098
:106520003FF451AFDDE90D239A4202DB2368D8071F
:106530000FD5DDE9092331462846B84701303FF43D
:1065400042AF4FF0000804F11A090E9B013B43458E
:1065500009DC23689B0700F10281E0680F9B9842E9
:10656000B8BF184631E701234A4631462846B847A6
:1065700001303FF428AF08F10108E6E70D9B002B3E
:1065800038DC012331462846194AB84701303FF428
:106590001AAFDDE90D23134302D12368D907D8D5FB
:1065A000DDE9092331462846B84701303FF40BAFF7
:1065B0004FF0000904F11A0A0D9B5B424B4501DCC8
:1065C0000E9B94E70123524631462846B8470130D6
:1065D0003FF4F9AE09F10109EEE700BFFFFFEF7FDD
:1065E00038C600083CC6000844C6000840C600087B
:1065F00048C600080E9AA36D9A42A8BF1A46002A00
:10660000914637DC4FF0000B29EAE97904F11A02D0
:10661000D4F858A0AAEB09035B4533DCDDE90D2370
:106620009A423BDB2368DA0738D40E9A0D99A2EB25
:106630000A03A2EB01099945A8BF9946B9F1000FD9
:1066400034DC4FF0000829EAE97904F11A0ADDE99F
:106650000D239B1AA3EB090343457FF77AAF012370
:10666000524631462846B84701303FF4ACAE08F1F7
:106670000108ECE71346314642462846B847013048
:10668000C0D1A0E60123314628460B92B84701301D
:106690003FF499AE0B9A0BF1010BB9E73146DDE9F6
:1066A00009232846B8470130BFD18CE64B46314616
:1066B000284608EB0A02B8470130C2D183E60E9A99
:1066C000012A01DCDB0737D5012342463146284643
:1066D000B84701303FF477AEDDE90923314628465B
:1066E000B84701303FF46FAED4E912010022002315
:1066F000FAF70EFAD8B90E9B08F10102013B3146B8
:106700002846B84701300ED15DE601234A4631469E
:106710002846B84701303FF456AE08F101080E9BF9
:10672000013B4345F1DC534604F15002E0E64FF0F3
:10673000000804F11A09F2E701234246DFE70123CA
:106740004A4631462846B84701303FF43CAE08F18E
:106750000108E3680F995B1A4345F0DCFDE64FF052
:10676000000804F11909F4E72DE9F04716469946A7
:106770008A680B6907469342B8BF1346336091F8A5
:1067800043200C46DDF820800AB1013333602368D2
:10679000990642BF336802333360256815F0060559
:1067A00006D104F1190AE36832689B1AAB4228DC6F
:1067B00094F84320131E226818BF012392062DD49B
:1067C0004946384604F14302C047013020D02368CF
:1067D000E56803F00603042B18BF002532684FF06C
:1067E0000006A36808BFAD1A226908BF25EAE5754F
:1067F0009342C4BF9B1AED181A34B5421AD1002037
:1068000008E00123524649463846C047013003D1CB
:106810004FF0FF30BDE8F0870135C4E73020E118C4
:1068200081F843005A1C94F845102244023382F840
:106830004310C5E70123224649463846C047013088
:10684000E6D00136D9E700002DE9FF470C46277E48
:106850009146782F80469A460C9904F1430207D856
:10686000622F0AD8002F00F0D980582F00F0A480A2
:1068700004F1420684F842703AE0A7F16303152B55
:10688000F6D801A050F823F0E1680008F568000888
:106890007168000871680008716800087168000874
:1068A000F5680008716800087168000871680008E0
:1068B00071680008036A000825690008E569000896
:1068C0007168000871680008256A0008716800088E
:1068D000256900087168000871680008ED69000802
:1068E0000B6804F142061A1D1B680A6084F84230E6
:1068F0000123A4E0256808682E0600F104030AD5E8
:1069000005680B60002D03DA2D236D4284F84330B7
:106910000A235E4819E015F0400F05680B6018BFA8
:106920002DB2EFE70B682568181D0860280601D511
:106930001D6802E06906FBD51D886F2F0CBF082378
:106940000A235248002184F843106668002EA8BF2D
:106950002168A660A4BF21F0040121600DB9002EBA
:106960004DD01646B5FBF3F103FB1157C75D06F892
:10697000017D2F46BB420D46F4D9082B0BD123686D
:10698000DF0708D5236961689942DEBF302306F826
:10699000013C06F1FF36921B22614B4621464046E0
:1069A000CDF800A003AAFFF7DFFE01304CD14FF075
:1069B000FF3004B0BDE8F087344884F845700E68B5
:1069C000236856F8045B1F060E6014D5D90744BF30
:1069D00043F0200323601DB9236823F020032360C4
:1069E0001023AFE7236843F020032360782328486F
:1069F00084F84530E3E75E0648BFADB2E6E71646E9
:106A0000BBE70B6826681D1D60690D6035061B68B5
:106A100001D5186002E07106FBD5188000231646E8
:106A20002361BAE70B681A1D0A601E680021304610
:106A3000626801F00BFA08B1801B60606368236133
:106A4000002384F84330A8E732464946404623698C
:106A5000D0470130ABD023689B0713D4E068039B79
:106A60009842B8BF1846A4E701233246494640463B
:106A7000D04701309BD00135E36803995B1AAB42E4
:106A8000F2DCEBE7002504F11906F5E74AC6000839
:106A90005BC600080FB40A4B13B51C6824B1A36988
:106AA00013B9204601F0C0F805AB2046049AA1684E
:106AB000019301F0D3FD02B0BDE8104004B070476F
:106AC000CC00002070B50E46054618B183690BB99D
:106AD00001F0AAF8AB69AC6813B9284601F0A4F834
:106AE0002C4B9C4220D16C68636EDB0705D4A389D4
:106AF000980502D4A06D01F03AF9A38919071DD5B4
:106B00002369DBB1013EA36816F8011F013BA360B6
:106B100039BB002B38DA22460A21284600F048F813
:106B2000013011D00A2511E01B4B9C4201D1AC6809
:106B3000DAE71A4B9C4208BFEC68D5E721462846A5
:106B400000F088F80028DDD04FF0FF35636EDA07DB
:106B500005D4A3899B0502D4A06D01F009F928464C
:106B600070BD002B04DAA2699A4206DC0A2904D01F
:106B700023685A1C22601970C5E72246284600F097
:106B800017F80130BFD1DFE70A2523685A1C2260BD
:106B90001D70DBE79CC60008BCC600087CC6000868
:106BA000024B01461868FFF78DBF00BFCC000020E4
:106BB000F8B50E461446054618B183690BB901F0C5
:106BC00033F8214B9C422BD16C68A369A360A38945
:106BD0001A072FD523696BB323692068F6B2C01A50
:106BE00063693746834204DC2146284600F088FF6B
:106BF00030BBA3680130013BA36023685A1C2260AC
:106C00001E706369834204D0A389DB0706D50A2E70
:106C100004D12146284600F073FF88B93846F8BDF4
:106C20000A4B9C4201D1AC68CFE7094B9C4208BF9C
:106C3000EC68CAE72146284600F00CF80028CBD0C3
:106C40004FF0FF37EAE700BF9CC60008BCC600084B
:106C50007CC60008324B70B51D6806460C4625B14F
:106C6000AB6913B9284600F0DFFF2E4B9C420FD1D1
:106C70006C68A389B4F90C2019072CD4DD0611D453
:106C80000923336042F040034FF0FF30A3813EE020
:106C9000254B9C4201D1AC68EBE7244B9C4208BFDA
:106CA000EC68E6E7580712D5616B41B104F1440383
:106CB000994202D0304601F003FC00236363A389AC
:106CC00023F02403A3810023636023692360A38945
:106CD00043F00803A38123694BB9A38903F420730C
:106CE000B3F5007F03D02146304601F067F8A08954
:106CF000B4F90C2010F001030AD00023A3606369EB
:106D00005B42A361236943B910F08000BAD170BD22
:106D1000810758BF6369A360F4E70020F7E700BF6D
:106D2000CC0000209CC60008BCC600087CC6000839
:106D30002DE9F74F03690C690746A342C0F283802F
:106D4000013C00F1140501F1140805EB84030193E3
:106D500058F8243055F8242001339A42B2FBF3F658
:106D60004FEA840B08EB840932D34FF0000E404603
:106D7000AC46F24650F8042B93B206FB03E3120C28
:106D80004FEA134E06FB02E29BB2AAEB0303DCF8C8
:106D900000A04FEA124E1FFA8AFA53441FFA82FAF1
:106DA000DCF800208145CAEB124202EB23429BB281
:106DB00043EA02434FEA224A4CF8043BDAD255F840
:106DC0000B302BB9019B043B9D421A462FD33C61EB
:106DD000384601F080FA002825DB28464FF0000CE9
:106DE000013658F8041BD0F800E08BB2ACEB03037B
:106DF0001FFA8EF213440A0CC2EB1E4202EB23422E
:106E00009BB243EA0243C1454FEA224C40F8043B9F
:106E1000E7D255F8242005EB840322B9043B9D42B8
:106E20001A460AD33C61304603B0BDE8F08F1268C1
:106E3000043B002ACBD1013CC6E71268043B002A80
:106E4000F0D1013CEBE70020EEE70000000000007D
:106E50002DE9F04F16461F46446A99B00546CDE924
:106E60000467DDF894803CB9102000F0E7FFC0E92A
:106E7000014468620460C4606B6A196851B15A6861
:106E8000012393404A608B60284601F02FF80022CE
:106E90006B6A1A603B1EAFBF0023012223F0004340
:106EA0000593A8BFC8F80030DDF81490AC4BB8BF0C
:106EB000C8F8002033EA090319D142F20F73249A6B
:106EC0001360C9F31303334300F06C85269B53B959
:106ED000A44B23E0A44B03930833269A1360039832
:106EE00019B0BDE8F08F9F4B03930333F5E7DDE95D
:106EF0000434CDE90C34DDE90C0100220023F9F75C
:106F000007FE804660B10123249A1360269B002B64
:106F100000F04585954B269A1360013B0393DEE70D
:106F200016AB019317AB00932846DDE90C2301F063
:106F300069FAC9F30A548346002C7FD0DDE90C01BD
:106F40000D9BA4F2FF34C3F3130343F07F5141F4CC
:106F50004011CDF84C800022854BF9F7B9F97AA39E
:106F6000D3E90023F9F76CFB79A3D3E90023F9F700
:106F7000B1F9064620460F46F9F7F8FA76A3D3E9A9
:106F80000023F9F75DFB02460B4630463946F9F718
:106F9000A1F906460F46F9F703FE002282460023B8
:106FA00030463946F9F7BEFD48B15046F9F7DEFAEA
:106FB00032463B46F9F7ACFD08B90AF1FF3ABAF19F
:106FC000160F58D8DDE90C016A4B03EBCA03D3E96D
:106FD0000023F9F7A7FD00284FD000230AF1FF3A5C
:106FE0000F93169B1C1B631E099349BFC4F1010339
:106FF00000230693002354BF06930993BAF1000FB0
:107000003DDB099BCDF838A05344099300230A9334
:10701000229B092B00F2B480052BC4BF043B2293B2
:10702000229BC8BF0024A3F10203D8BF0124032B75
:1070300000F2B280DFE803F02D7C7AA2DDE916438E
:107040001C4404F23243202BC3BFC3F1400304F2BB
:10705000124009FA03F3C3F12003C6BF26FA00F079
:10706000184306FA03F0F9F771FA0123A1F1F87158
:10707000013C13936FE70123B2E70F90B1E7069B42
:10708000A3EB0A030693CAF100030A9300230E93AD
:10709000BEE700230B93239B002B00F380804FF06F
:1070A00001094B46CDF82090CDF88C9000226E6AF5
:1070B0007260042202F114009842716875D9284662
:1070C00000F0E0FE6B6A30601B680393089B0E2B98
:1070D00000F2EC80002C00F0E980BAF1000F78DDBE
:1070E000244A0AF00F0302EBC3031AF4807FD3E9AA
:1070F0000034CDE910344FEA2A145AD0DDE90C01EE
:107100001D4B0327D3E90823F9F7C4FBCDE904019C
:1071100004F00F04184E002C4DD1DDE91023DDE9F9
:107120000401F9F7B7FBCDE904016CE00123B1E7F5
:1071300000230B93239B0AEB030909F10103012BA5
:107140000893B8BF0123B1E761436F63A787D23FBC
:10715000B3C8608B288AC63FFB799F501344D33F46
:107160000000F07F75C600086CC6000849C600081C
:107170000000F83F08C70008E0C600080123D8E770
:10718000012400230B9422934FF0FF390022122395
:10719000CDF82090239289E701230B93F4E7DDF8E3
:1071A0008C904B46CDF8209080E701317160520001
:1071B00080E70227AEE7E10708D5DDE91001D6E94F
:1071C0000023F9F73DFACDE91001013764100836C4
:1071D000A1E700F0A580DDE90C01CAF10004A34B92
:1071E00004F00F0203EBC203D3E90023F9F728FAF6
:1071F00002270023CDE904019D4E2411002C40F00C
:107200008480002B8FD10F9B002B00F08B80DDE959
:107210000434CDE91034DDE910010022954BF9F773
:1072200081FC00287ED0089B002B7BD0B9F1000F99
:1072300038DDDDE9100100228F4BF9F701FA4C46E9
:10724000CDE904010AF1FF3801373846F9F78EF924
:10725000DDE90423F9F7F4F90022884BF9F73AF84D
:10726000A1F15076CDE910011196002C5DD1DDE938
:1072700004010022824BF9F72BF802460B46CDE9B8
:1072800004233346109AF9F76BFC002840F09782EC
:10729000DDE90401109A06F10043F9F743FC0028E8
:1072A00040F08B82DDE90C34CDE90434179B002BD0
:1072B000C0F25181BAF10E0F00F34D816B4B03EB1D
:1072C000CA03D3E90034CDE90634239B002B80F2B6
:1072D000DB80089B002B00F3D78040F06D82DDE956
:1072E00006010022664BF9F7ABF9DDE90423F9F753
:1072F0002DFC089C2646002840F043823123039F42
:107300000AF1010A07F8013B3FE2E20705D5D6E999
:107310000023F9F795F901230137641008366DE76A
:10732000022770E7D046089C8FE703994F4B214412
:1073300012910B9903EBC403DDE9106753E90223B3
:10734000002946D000204F49F9F7A4FA3B463246BF
:10735000F8F7BEFFCDE91001039FDDE90401F9F75D
:107360001FFC0446F9F702F902460B46DDE9040169
:10737000F8F7AEFF02460B463034CDE90423DDE9D1
:10738000102307F8014BF9F7CDFB002865D1DDE9A3
:10739000042300203749F8F79BFFDDE91023F9F7B4
:1073A000C1FB002840F0B680129B9F423FF47AAFA9
:1073B000DDE910010022304BF9F742F90022CDE956
:1073C0001001DDE904012C4BF9F73AF9CDE904018C
:1073D000C3E730463946F9F733F9129BCDE910017E
:1073E000039C1493DDE90401F9F7DAFB1590F9F732
:1073F000BDF802460B46DDE90401F8F769FF159B6D
:107400000646303304F8013B129B0F469C424FF076
:10741000000224D1DDE910011A4BF8F75BFF0246A8
:107420000B4630463946F9F79BFB002871D1DDE960
:10743000102300201349F8F74BFF02460B46304655
:107440003946F9F76FFB00283FF42CAF149F7B1EE1
:10745000149317F8013C302BF8D0C24649E0064B94
:10746000F9F7EEF8CDE90401BCE700BF08C7000852
:10747000E0C600080000F03F0000244000001C406F
:10748000000014400000E03F039FDDE90489DDE9CE
:10749000062340464946F9F7FDF9F9F781FB044612
:1074A000F9F764F8DDE90623F9F7CAF804F13006C4
:1074B0000B46024649464046F8F70AFF07F8016BBB
:1074C000039E089BBE1BB34238D102460B46F8F719
:1074D00001FFDDE9062380468946F9F741FB58BBE9
:1074E000DDE9062340464946F9F712FB08B1E107FA
:1074F00022D42846594600F0F9FC00233B70249B17
:107500000AF101001860269B002B3FF4E8AC1F60D5
:10751000E5E427463B461F4613F8012D392A07D1DB
:10752000039A9A42F7D13022039908F101080A70B0
:107530001A7801321A7090E7D046EBE70022A14B8F
:10754000F9F77EF80022002380468946F9F7E0FA31
:1075500000289CD0CDE70B9A002A00F0CD80229A1B
:10756000012A00F3AF80139A002A00F0A78003F2EB
:1075700033430A9C069F069A01211A440692099AEF
:1075800028461A44099200F054FD0646002F0CDDEF
:10759000099B002B09DDBB42A8BF3B46069AFF1A98
:1075A000D21A0692099AD31A09930A9BF3B10B9B3C
:1075B000002B00F0A580002C10DD31462246284625
:1075C00000F0DCFD5A4601460646284600F03AFD2A
:1075D00080465946284600F089FCC3460A9B1A1B80
:1075E00004D05946284600F0C9FD834601212846AB
:1075F00000F01FFD0E9B0446002B40F383801A46CB
:107600000146284600F0BAFD229B0446012B7CDD92
:107610004FF00008236904EB8303186900F0BBFCFA
:10762000C0F12000099B184410F01F0000F08E806C
:10763000C0F12003042B40F38780C0F11C00069B9F
:10764000074403440693099B03440993069B002BBC
:1076500005DD59461A46284600F0DEFD8346099BA3
:10766000002B05DD21461A46284600F0D5FD0446CC
:107670000F9B002B6CD02146584600F02CFE0028B2
:1076800066DA002359460A22284600F046FC0B9B86
:1076900083460AF1FF3A002B00F08B81314600232C
:1076A0000A22284600F039FCB9F1000F064600F323
:1076B0009180229B022B40F38D8051E0169BC3F1F9
:1076C000360356E7089B5C1E0A9BA342B7BF0A9B82
:1076D0001C1BE21A0E9BBEBF0A949B180E93089BBC
:1076E000B8BF0024002BBBBF069B089A069F9F1AB9
:1076F000ACBF089B00233EE70A9C069F0B9E45E714
:107700000A9A6EE7229B012B19DC049BBBB9059BEF
:10771000C3F313039BB9059B23F000431B0D1B050B
:1077200083B14FF00108069B01330693099B013397
:1077300009930E9B002B7FF46DAF012072E74FF091
:107740000008F6E79846F4E780D018461C3076E744
:10775000089B002B38DC229B022B35DDDDF82090C6
:10776000B9F1000F0DD121464B460522284600F005
:10777000D4FB01460446584600F0ADFD00283FF713
:10778000BDAD239B039F6FEA030A4FF0000821461B
:10779000284600F0ABFB002E3FF4ABAEB8F1000F73
:1077A00005D0B04503D04146284600F09FFB314646
:1077B000284600F09BFB9CE600242646E1E7C246F3
:1077C00026469BE5000024400B9BDDF82090002B13
:1077D00000F0F680002F05DD31463A46284600F0DD
:1077E0001BFD0646B8F1000F55D07168284600F021
:1077F00049FB0746326906F10C01023292000C3057
:1078000000F032FB01223946284600F005FDB04663
:107810000646039B01330893039B4B440A93049B46
:1078200003F001030993089B2146013B584604934A
:10783000FFF77EFA034641463033069058460B93D5
:1078400000F049FD324681462146284600F05EFDA3
:10785000C26807460B9B02BB0146584600F03BFD41
:1078600002460B9B39462846CDE90B3200F03EFB21
:10787000229B0C9A089F43EA0201099B0B430B9B36
:107880000DD1392B29D0B9F1000F01DD069B313321
:10789000049A13707BE73046B9E70122E2E7B9F1B9
:1078A000000F06DB229941EA0909099959EA010109
:1078B00020D1002AECDD594601222846089300F029
:1078C000ABFC2146834600F006FD0028089B02DC45
:1078D000DED1DA07DCD5392BD8D13923049A1370DD
:1078E0003B461F4617F8012C013B392A50D0013284
:1078F0001A704CE7002A03DD392BEED00133C7E7BD
:10790000089A0A9902F8013C8A422AD05946002373
:107910000A22284600F001FBB04583464FF00003E1
:107920004FF00A024146284607D100F0F6FA804699
:107930000646089B0133089375E700F0EEFA3146DE
:10794000804600230A22284600F0E7FA0646F0E7C0
:10795000B9F1000FCCBF4F4601274FF00008039A42
:107960001744594601222846089300F055FC214649
:10797000834600F0B0FC0028B2DC02D1089BDB0794
:10798000AED43B461F4613F8012D302AFAD0FEE64E
:10799000039A9A42A5D131230AF1010A79E7134BE0
:1079A000FFF7BCBA269B002B7FF494AA104BFFF77D
:1079B000B5BAB9F1000F03DC229B022B3FF7D0AE22
:1079C000039F21465846FFF7B3F9039A00F13003AD
:1079D00007F8013BBA1A9145BADD594600230A223D
:1079E000284600F09AFA8346EBE700BF48C6000835
:1079F0006CC600088A892DE9F041054610070C463F
:107A000058D44B68002B05DC0B6C002B02DC0020EB
:107A1000BDE8F081E66A002EF9D0002312F480520E
:107A20002F682B6032D0606DA3895A0705D5636833
:107A3000C01A636B0BB1236CC01A00230246E66ABE
:107A40002846216AB047431CA38906D129681D290D
:107A50002CD82A4ACA40D60728D50022626022695B
:107A6000D904226004D5421C01D12B6803B960659A
:107A7000616B2F600029CAD004F14403994202D0FF
:107A8000284600F01DFD00206063C1E7216A012344
:107A90002846B047411CC7D12B68002BC4D01D2BF2
:107AA00001D0162B01D12F60B1E7A38943F0400329
:107AB000A381ADE70F69002FA9D0930718BF00235A
:107AC0000E6808BF4B69A6EB07080F608B60B8F122
:107AD000000F9CDD43463A462846216AA66AB04715
:107AE000002806DCA3894FF0FF3043F04003A38158
:107AF0008EE70744A8EB0008E9E700BF010040203B
:107B000038B50B6905460C4613B90025284638BD23
:107B100018B183690BB900F087F8144B9C421BD154
:107B20006C68B4F90C30002BEFD0626ED00704D42F
:107B3000990502D4A06D00F01AF928462146FFF7F6
:107B400059FF636E0546DA07E0D4A3899B05DDD4AF
:107B5000A06D00F00DF9D9E7054B9C4201D1AC684E
:107B6000DFE7044B9C4208BFEC68DAE79CC60008DC
:107B7000BCC600087CC60008002310B50446C0E956
:107B80000033C0E90433836081814366C28183612D
:107B9000194608225C30FEF715FB054B2462636230
:107BA000044BA362044BE362044B236310BD00BF8C
:107BB000DD880008FF880008378900085B89000815
:107BC000014900F0AFB800BF017B000870B568251F
:107BD0004A1E55430E4605F1740100F0BDFC0446F3
:107BE00040B10021C0E900160C30A06005F1680228
:107BF000FEF7E8FA204670BD014800F0B8B800BFB3
:107C0000BC040020014800F0B3B800BFBC04002051
:107C1000014800F0ACB800BFB7040020014800F0F4
:107C2000A7B800BFB704002010B50446FFF7F0FF67
:107C3000A3691BB1BDE81040FFF7F0BFC4E91233E0
:107C40002365134B134A1B68A262A34208BF01239A
:107C5000204608BFA36100F01FF86060204600F0D6
:107C60001BF8A060204600F017F800220421E06015
:107C70006068FFF781FF01220921A068FFF77CFF00
:107C800002221221E068FFF777FF0123A361D1E709
:107C900034C60008C17B0008F8B50746FFF7ACFF03
:107CA0001E4B1E68B36913B93046FFF7BDFF483657
:107CB000D6E90134013B03D533680BB33668F7E7E7
:107CC000B4F90C50D5B9164B04F15800E360656661
:107CD00000F04CF8FFF796FF08222946C4E9015549
:107CE000C4E904552560A56104F15C00FEF76AFA59
:107CF000C4E90D55C4E912552046F8BD6834D9E7EA
:107D000004213846FFF762FF044630600028D5D1D1
:107D1000FFF778FF0C233B60EEE700BF34C6000896
:107D20000100FFFF2DE9F84306468846002700F1D1
:107D30004804D4E90195B9F1010905D52468002C5E
:107D4000F7D13846BDE8F883AB89012B07D9B5F9DF
:107D50000E30013303D029463046C047074368350B
:107D6000E9E7000000487047200200207047704794
:107D7000704770B50E46B1F90E10144600291D4625
:107D800096B007DA00232B60B3891A0610D44FF49B
:107D900080630EE06A4600F007FE0028F2DB019ADD
:107DA00002F47042A2F500535A425A412A60EEE7AB
:107DB00040230020236016B070BD00008B8973B58E
:107DC0009D0706460C4607D504F14703236023614F
:107DD0000123636102B070BD6A4601ABFFF7C9FFC2
:107DE00000990546304600F0B7FB48B9B4F90C30AD
:107DF0009A05EFD423F0030343F00203A381E3E7E2
:107E00000D4BB362A389206043F08003A381009BE4
:107E100020616361019B5BB13046B4F90E1000F044
:107E2000D5FD28B1A38923F0030343F00103A38107
:107E3000A0890543A581CDE7C17B0008024B01461F
:107E4000186800F089BB00BFCC000020034610B5C5
:107E5000C9B202449342184601D1002003E00478DD
:107E600001338C42F6D110BD0A44914200F1FF3338
:107E700000D1704710B511F8014B914203F8014F42
:107E8000F9D110BD70B5466A04460D463EB91020C2
:107E9000FFF7D4FFC0E9016660620660C660666AEB
:107EA000F36883B1636ADB6853F82500B8B9012130
:107EB00001FA05F6721D2046920000F0F2FA60B158
:107EC000C0E901560EE021220421204600F0E9FA23
:107ED000636AF060DB68002BE4D1002070BD0268AB
:107EE00043F825200023C0E90333F7E770B5466A5D
:107EF00005460C463EB91020FFF7A0FFC0E9016619
:107F000068620660C6603CB16B6A6268DB6853F801
:107F10002210216043F8224070BD2DE9F0419846BF
:107F20000C4600230E69074601F114000568013371
:107F3000A9B202FB01812D0C4FEA114C02FB05C5D1
:107F400089B201EB05419E424FEA154840F8041BF7
:107F5000ECDCB8F1000F1BD0A368B34212DC6168FF
:107F600038460131FFF78EFF0546226904F10C0106
:107F7000023292000C30FFF777FF21463846FFF7B8
:107F8000B5FF2C4604EB86030136C3F81480266146
:107F90002046BDE8F081020C12040346CAB903046E
:107FA000102013F07F4F04BF1B02083013F0704FF6
:107FB00004BF1B01043013F0404F04BF9B0002308C
:107FC000002B05DB13F0804F00F1010008BF2020DB
:107FD00070470020E5E70368024613F007000BD066
:107FE000D90722D4980749BF5B089B08012013607A
:107FF0005CBF02201360704799B209B910201B0CB6
:1080000013F0FF0F04BF1B0A0830190704BF1B0938
:108010000430990704BF9B080230D90703D45B08DA
:1080200000F1010003D0136070470020704720204A
:10803000704710B50C460121FFF724FF012244616F
:10804000026110BD2DE9F04F15460A692B690C46F7
:108050009A42BEBF0B462C461D462769D5F81090A4
:10806000A368616807EB0906B342B8BF013185B068
:10807000FFF708FF00F114010B46002201EB860810
:1080800043451DD304F1140305F1140203EB8707E4
:1080900002EB890302933B1B153B23F003030433DC
:1080A00004F11505AF4238BF04230193029B0392EC
:1080B000934208D8002E5ADC066105B0BDE8F08F67
:1080C00043F8042BDCE7B2F800A0BAF1000F24D08B
:1080D00089464FF0000C04F1140E5EF8045BD9F8E9
:1080E00000B0ABB21FFA8BFB0AFB03B34FEA154B90
:1080F000D9F8005063444FEA154C0AFB0BC505EB59
:1081000013459BB243EA054377454FEA154C49F8BE
:10811000043BE2D8019B41F803C0039B0432B3F84F
:108120000290B9F1000F20D08E464FF0000A0B6884
:1081300004F1140CBCF80050BEF802B09BB209FB6D
:1081400005B5AA4443EA0A434EF8043B5CF8043BF5
:10815000BEF800501B0C09FB0353674503EB1A43A1
:108160004FEA134AE6D8019D4B5104319EE758F877
:10817000043D002BA0D1013E9CE700002DE9F8430F
:10818000154612F0030206460F4607D0214C013A6D
:10819000002354F82220FFF7C0FE0746AD1035D06B
:1081A000746A3CB91020FFF749FEC0E901447062CF
:1081B0000460C460D6F82480D8F808404CB940F276
:1081C00071213046FFF735FF00230446C8F8080048
:1081D00003604FF00009EB070AD5394622463046C6
:1081E000FFF730FF804639463046FFF77FFE4746AF
:1081F0006D100BD0206838B9224621463046FFF773
:1082000021FF2060C0F800900446E4E73846BDE84E
:10821000F88300BFD0C700082DE9F0470C46074699
:1082200091462369496803EB6218A3684FEA621A12
:1082300008F10106B3423FDB3846FFF723FE002377
:10824000054600F1140100F110021846534536DBD3
:1082500020692AEAEA7A04F1140319F01F0901EBF4
:108260008A0103EB800C2ED08A460022C9F1200E31
:10827000186800FA09F002434AF8042B53F8042B5B
:108280009C4522FA0EF2F3D8ACEB0403153B23F025
:108290000303043304F11500604588BF0423CA506A
:1082A0000AB108F10206013E384621462E61FFF769
:1082B0001DFE2846BDE8F08701315B00BAE742F8B1
:1082C000040F0133C2E7043953F8042B9C4541F8ED
:1082D000042FF9D8E7E703460A69006930B5801A28
:1082E0000DD11433143103EB820401EB820154F8F5
:1082F000045D51F8042D954202D004D3012030BD15
:10830000A342F4D3FBE74FF0FF30F8E72DE9F84F35
:108310000C460646114620469246FFF7DCFF051E36
:1083200008D129463046FFF7ADFD0123C0E90435E9
:10833000BDE8F88FA4BF5346A2463046DAF80410D1
:10834000A6BF1C4600250125FFF79CFD00F114087F
:10835000DAF81070C5600AF110020AF114054FF046
:10836000000CC246266904F1140905EB870E09EBDF
:10837000860652F804BF59F8043B1FFA8BF161449A
:108380001FFA83FC1B0CA1EB0C01C3EB1B4303EB9B
:10839000214389B24FEA234C4E4541EA03434AF850
:1083A000043BE6D8331B153B23F003031534043399
:1083B000A64238BF04231D4443441E462C46744540
:1083C0000ED30EF10302521B22F00302033DAE4511
:1083D00038BF00221A4452F8043D8BB10761A7E769
:1083E00054F8048B1FFA88F26244111401EB18410F
:1083F00092B242EA01424FEA214C46F8042BDEE7F2
:10840000013FE8E72DE9F3411C46DDE9086501215C
:108410009046FFF737FDC4F31303C4F30A5407462D
:108420002CBB0193B8F1000326D068460093FFF7F8
:10843000D2FD0099F0B1019AC0F1200302FA03F3D2
:108440000B43C2407B610192019B002B14BF0221B0
:108450000121BB613961C4B1A4F233440444C0F1C9
:10846000350034602860384602B0BDE8F08143F43E
:108470008013D6E77961E7E701A8FFF7ACFD01219A
:10848000019B39617B612030E5E707EB8103A0F2B6
:10849000324030601869FFF77EFDC0EB4111296062
:1084A000E1E738B502FB01F5294600F055F804462E
:1084B00018B12A460021FDF785FE204638BD000090
:1084C00038B50546002943D051F8043C0C1F002B59
:1084D000B8BFE41800F0AEFA1E4A1368104633B96C
:1084E000636014602846BDE8384000F0A9BAA34292
:1084F0000AD921686218934201BF1A685B68521852
:10850000226063600460EDE71A465B680BB1A3422A
:10851000FAD911685018A0420BD1206801445018B4
:1085200083421160DED118685B68014411605360BA
:10853000D8E702D90C232B60D4E7206821188B429E
:1085400001BF19685B680918216063605460C9E75E
:1085500038BD00BFBC020020F8B5CD1C25F00305D6
:1085600008350C2D38BF0C25002D064601DBA9422D
:1085700003D90C2333600020F8BD00F05BFA2149D9
:108580000A6814469CB9204F3B6823B921463046FF
:1085900000F094F938602946304600F08FF9431C0A
:1085A00023D10C233046336000F04AFAE3E7236816
:1085B0005B1B17D40B2B03D923601C44256004E0FC
:1085C0006368A2420CBF0B605360304600F038FA7B
:1085D00004F10B00231D20F00700C21ACCD01B1A97
:1085E000A350C9E722466468CCE7C41C24F0030406
:1085F000A042E3D0211A304600F060F90130DDD10D
:10860000CFE700BFBC020020C0020020936810B476
:10861000013B002B936007DA9469A34201DB0A292E
:1086200002D110BCFEF7C4BA1368581C1060197050
:10863000084610BC7047F8B506460F461446D518D4
:10864000AC4201D1002007E03A46304614F8011B45
:10865000FFF7DCFF431CF3D1F8BD00002DE9F04F1C
:108660000D461446984606469DB018B183690BB96D
:10867000FFF7DAFA894B9D421BD175686B6ED907FB
:1086800005D4AB899A0502D4A86DFFF770FBAB89BE
:108690001B0701D52B69EBB929463046FEF7DAFAFC
:1086A000C0B16B6EDC070ED54FF0FF301DB0BDE8DA
:1086B000F08F7B4B9D4201D1B568DFE7794B9D423E
:1086C00008BFF568DAE7AB899805EDD4A86DFFF728
:1086D0004FFBE9E70023099320238DF8293030234D
:1086E0004FF00109CDF80C80DFF8BC818DF82A30FD
:1086F00023469A4613F8012B0AB1252AF9D1BAEB81
:10870000040B0BD05B46224629463046FFF793FF09
:10871000013000F0AA80099A5A4409929AF8003070
:10872000002B00F0A28000234FF0FF32CDE905239B
:108730000AF1010A049307938DF853301A935446B3
:10874000052214F8011B5848FFF780FB049AD8B99A
:10875000D10644BF20238DF85330130744BF2B2389
:108760008DF853309AF800302A2B15D0544600204B
:108770004FF00A0C079A214611F8013B303B092BB8
:108780004ED9B0B1079214E0A0EB080309FA03F345
:108790001343A2460493D2E7039B191D1B68039160
:1087A000002BBBBF5B4242F0020207930793B8BFA6
:1087B000049223782E2B0CD163782A2B35D1039B7E
:1087C00002341A1D1B680392002BB8BF4FF0FF3311
:1087D0000593DFF8E4A0032250462178FFF736FB2B
:1087E00040B14023A0EB0A0003FA00F0049B0134DF
:1087F0000343049314F8011B06222C488DF828101B
:10880000FFF724FB00283FD0294B1BBB039B0733FA
:1088100023F0070308330393099B3B44099367E75D
:108820000C4601200CFB0232A5E700234FF00A0C96
:10883000194601340593204610F8012B303A092AD5
:1088400003D9002BC5D00591C3E7044601230CFBD7
:108850000121F0E703AB00932A463046154B04A9EB
:10886000FDF756FD0746781CD6D16B6ED90705D4A7
:10887000AB899A0502D4A86DFFF77AFAAB895B063B
:108880003FF512AF099811E703AB00932A46304633
:10889000084B04A9FDF7D8FFE4E700BF9CC6000819
:1088A000BCC600087CC60008DCC70008E6C7000894
:1088B0001163000837860008E2C7000838B50023B6
:1088C000054D044608462B6000F008F9431C02D110
:1088D0002B6803B1236038BDC004002010B50C46DE
:1088E000B1F90E1000F0B2F80028ABBF636DA38998
:1088F0001B1823F48053ACBF6365A38110BD2DE921
:10890000F0411F468B890546DB050C46164605D50A
:1089100002230022B1F90E1000F068F8A389324654
:1089200023F48053A38128463B46B4F90E10BDE8DA
:10893000F04100F017B810B50C46B1F90E1000F078
:1089400055F8431CA38915BF606523F4805343F495
:108950008053A38118BFA38110BDB1F90E1000F0A0
:1089600013B8000038B50446084611460022054DEC
:108970002A601A46FCF7EEFA431C02D12B6803B1B9
:10898000236038BDC004002038B50023054D0446DF
:1089900008462B6000F07AF8431C02D12B6803B123
:1089A000236038BDC004002038B50023064D0446BE
:1089B000084611462B6000F071F8431C02D12B6869
:1089C00003B1236038BD00BFC004002038B50023C8
:1089D000054D044608462B6000F068F8431C02D1A0
:1089E0002B6803B1236038BDC004002038B50446AD
:1089F000084611460022054D2A601A4600F05EF82E
:108A0000431C02D12B6803B1236038BDC004002091
:108A100082B001B901A942B14BB113780B60127851
:108A2000101E18BF012002B070471046FBE76FF020
:108A30000100F8E70148FFF79AB900BFB804002029
:108A40000148FFF795B900BFB804002038B50446C7
:108A5000084611460022054D2A601A4600F036F8F5
:108A6000431C02D12B6803B1236038BDC004002031
:108A70000346084641B1FF2A04D98A224FF0FF304D
:108A80001A60704701200A70704700005822024B9C
:108A90004FF0FF301A607047C00400205822024B8C
:108AA0004FF0FF301A607047C00400205822024B7C
:108AB00000201A60704700BFC00400205822024BFB
:108AC0004FF0FF301A607047C00400205822024B5C
:108AD0004FF0FF301A607047C0040020044A054977
:108AE0001368002B08BF0B461844106018467047E7
:108AF000C4020020C8040020F8B500BFF8BC08BCC0
:108B00009E467047F8B500BFF8BC08BC9E4670474B
:108B1000447269766572732F53544D3332463178FF
:108B2000785F48414C5F4472697665722F53726377
:108B30002F73746D3332663178785F68616C5F745F
:108B4000696D2E6300000000447269766572732FB0
:108B500053544D3332463178785F48414C5F44720C
:108B6000697665722F5372632F73746D3332663179
:108B700078785F68616C5F74696D5F65782E6300FB
:108B8000447269766572732F53544D33324631788F
:108B9000785F48414C5F4472697665722F53726307
:108BA0002F73746D3332663178785F68616C5F72F1
:108BB00063632E6300000000020304050607080932
:108BC0000A0B0C0D0E0F10100000000044726976A5
:108BD0006572732F53544D3332463178785F484174
:108BE0004C5F4472697665722F5372632F73746D94
:108BF0003332663178785F68616C5F7263635F659A
:108C0000782E6300447269766572732F53544D3326
:108C100032463178785F48414C5F447269766572BC
:108C20002F5372632F73746D3332663178785F68B7
:108C3000616C5F6770696F2E630000004472697633
:108C40006572732F53544D3332463178785F484103
:108C50004C5F4472697665722F5372632F73746D23
:108C60003332663178785F68616C5F646D612E6362
:108C700000000000447269766572732F53544D33BF
:108C800032463178785F48414C5F4472697665724C
:108C90002F5372632F73746D3332663178785F6847
:108CA000616C5F636F727465782E63000000000072
:108CB000000000000102030406070809000000008C
:108CC00001020304447269766572732F53544D3365
:108CD00032463178785F48414C5F447269766572FC
:108CE0002F5372632F73746D3332663178785F68F7
:108CF000616C5F756172742E630000004472697666
:108D00006572732F53544D3332463178785F484142
:108D10004C5F4472697665722F5372632F73746D62
:108D20003332663178785F68616C5F7370692E6387
:108D300000000000447269766572732F53544D33FE
:108D400032463178785F48414C5F4472697665728B
:108D50002F5372632F73746D3332663178785F6886
:108D6000616C5F6164632E63000000004472697689
:108D70006572732F53544D3332463178785F4841D2
:108D80004C5F4472697665722F5372632F73746DF2
:108D90003332663178785F68616C5F6164635F6508
:108DA000782E6300552D5345543A0000492D534504
:108DB000543A0000552D4F55543A0000492D4F5557
:108DC000543A0000504F5745523A000043560000B5
:108DD000434300004F464600522D4D4F444500008E
:108DE000494E0000546869732066756E6374696F3C
:108DF0006E20696D706C656D656E7473207365723D
:108E000069616C20706F7274207072696E74696E23
:108E1000670D0000496E697469616C697A617469F3
:108E20006F6E20636F6D706C65746564202C737950
:108E30007374656D2073746172747570210D000018
:108E4000536F6674776172652076657273696F6EB1
:108E50002069732056252E31660D0A0D0A00000088
:108E60004572726F72202D204B65792076616C758A
:108E700065206572726F7220696E20657874657204
:108E80006E616C20696E74657272757074206361B6
:108E90006C6C6261636B2066756E6374696F6E21C2
:108EA0000D0A0D004F4E2000532D4D4F444500003C
:108EB0004B45595F5345542D3E436C69636B0D0020
:108EC0004B45595F5345542D3E50726573730D00E9
:108ED0004B45595F4F55542D3E436C69636B0D00F4
:108EE0004B45595F4F55542D3E50726573730D00BD
:108EF0004B45595F444F574E2D3E436C69636B0D94
:108F0000000000004B45595F444F574E2D3E5072B4
:108F10006573730D000000004B45595F4C45465486
:108F20003E436C69636B0D004B45595F524947489E
:108F3000543E436C69636B0D00000000485A6E7527
:108F40006D5F5445534554312025640D0A0D0A00C8
:108F5000485A6E756D5F5445534554322025640D53
:108F60000A0D0A00485A6E756D5F544553455433D7
:108F70002025640D0A0D0A00485A6E756D5F544530
:108F8000534554342025780D0A0D0A00485A6E7551
:108F90006D5F5445534554352025780D0A0D0A0060
:108FA00073697A656F665F74657374312025640D2B
:108FB0000A0D0A007374726C656E5F7465737431A8
:108FC0002025640D0A0D0A004950533131345F4C9D
:108FD000434420496E6974204F4B210D000000006E
:108FE000D6D0200020002000FE032202220222020E
:108FF000FE032202200020002000BEB0FC0104017C
:10900000FC010401FC012000FF070401FC01200019
:1090100024013202C0E85E00C8073F051C05AA040F
:1090200059068C0123062401A80024013202B9FA52
:10903000FF070104FD0521042104FD05A10421050C
:10904000FF070104FF070104BAEC0400E4038200F7
:1090500089008700840082008F0080008C008300DC
:10906000F0070000D6D08000800080008000FC1F48
:1090700084108410841084108410FC1F84108000DD
:10908000800080008000BEB0F80F0808F80F0808C4
:10909000F80F8000FF7F0000F80F08080808F80F9D
:1090A00080008410A2204000D6D000000000000004
:1090B000001800000800000800000800080818F860
:1090C000FF1F180818180818180818180818180882
:1090D00018180818F8FF1F08080800080000080002
:1090E0000008000008000018000018000018000028
:1090F0000000BEB0000000000000400006C0FF07F6
:10910000400006C0FF07400006C0FF0740080200FD
:109110003000FEFF3F000000C0FF07C00002C0009B
:1091200002C00002C0FF0380100080110160100E19
:109130003010180C1E30001C00000000D6D00000BB
:10914000000000000000008000000080010000809E
:1091500001000080010000800100008001001080FB
:10916000010CF0FFFF0F30800104308001043080DB
:10917000010430800104308001043080010430801B
:10918000010430800104F0FFFF07308001043080CB
:1091900001040080010000800100008001000080C7
:1091A00001000080010000800100008001000080BB
:1091B0000100008001000080000000000000BEB03F
:1091C000000000000000000000000000000180011D
:1091D00000FFFF01000380010003800100FFFF0189
:1091E000000380010003800100FFFF010081810076
:1091F000000003000000031CFCFFFF3F00004000D4
:109200000003C00100FFFF010003C0000003C00015
:109210000003C00000FFFF00000141000004010046
:10922000000E710000078101800101076000010E3E
:109230001898011C04E0011800C0000000000000A4
:109240000000000000000000000000000000040416
:10925000040404000004000014140A0000000000CC
:109260000000000000000A0A1F0A0A1F0A0A000084
:1092700000040E1505060C14150E0400000012154E
:109280000D152E2C2A1200000000040A0A361515AE
:10929000291600000202010000000000000000008A
:1092A0001008080404040404080810000204040858
:1092B000080808080404020000000004150E0E153A
:1092C0000400000000000008083E0808000000003C
:1092D0000000000000000000020201000000000089
:1092E000003F00000000000000000000000000003F
:1092F000000200000020101008080404020201000F
:1093000000000E1111111111110E000000000406D1
:1093100004040404040E000000000E1111080402ED
:10932000011F000000000E11100C1010110E0000A3
:109330000000080C0C0A091F081C000000001F0197
:10934000010F1110110E000000000C12010D13117D
:10935000110E000000001E100808040404040000A0
:1093600000000E11110E1111110E000000000E115F
:10937000111916100906000000000000040000008A
:1093800000040000000000000004000000040400CD
:109390000000100804020204081000000000000091
:1093A0003F003F0000000000000002040810100809
:1093B0000402000000000E11110804040004000063
:1093C00000001C22292D2D1D221C00000000040479
:1093D0000C0A0A1E1233000000000F12120E1212A5
:1093E000120F000000001E1101010101110E00000A
:1093F00000000F1212121212120F000000001F12B2
:109400000A0E0A02121F000000001F120A0E0A02B2
:109410000207000000001C1201013911120C0000AB
:1094200000003312121E12121233000000001F043B
:1094300004040404041F000000003E080808080893
:1094400008080907000037120A060A12123700003E
:109450000000070202020202223F000000003B1B44
:109460001B1B15151535000000003B1216161A1AA5
:109470001217000000000E1111111111110E000041
:1094800000000F12120E02020207000000000E116F
:1094900011111117190E180000000F12120E0A12E6
:1094A0001237000000001E1101060810110F000005
:1094B00000001F1504040404040E00000000331211
:1094C00012121212120C000000003312120A0A0CBF
:1094D000040400000000151515150E0A0A0A000004
:1094E00000001B0A0A04040A0A1B000000001B0AF1
:1094F0000A0A0404040E000000001F090804040204
:10950000121F00001C0404040404040404041C00CE
:109510000002020404040808081010000E080808DD
:109520000808080808080E00040A000000000000EF
:109530000000000000000000000000000000003FEC
:109540000204000000000000000000000000000015
:10955000000C121C123C000000030202020E121248
:10956000120E000000000000001C1202120C00008D
:1095700000181010101C1212123C00000000000015
:10958000000C121E021C000000182404041E040417
:10959000041E000000000000003C120C021C221CF3
:1095A00000030202020E121212370000000404002F
:1095B00000060404040E000000080800000C08085F
:1095C0000808080700030202021A0A060A1300002C
:1095D0000007040404040404041F00000000000049
:1095E000000F15151515000000000000000F1212E5
:1095F0001237000000000000000C1212120C0000D4
:1096000000000000000F1212120E020700000000FE
:10961000001C1212121C103800000000001B060271
:109620000207000000000000001E020C101E0000D7
:1096300000000004041E0404041C000000000000DC
:10964000001B1212123C000000000000001B0A0A5E
:1096500004040000000000000015150E0A0A0000B6
:1096600000000000001B0A040A1B000000000000AC
:10967000003312120C08040300000000001E08044E
:10968000041E000018080808080C0808080818003C
:109690000808080808080808080808080604040458
:1096A0000408040404040600160900000000000079
:1096B00000000000000000000000000000000000AA
:1096C0000000000000000008080808080808000062
:1096D0001818000000486C24120000000000000070
:1096E000000000000000002424247F1212127F12C8
:1096F000121200000000081C2A2A0A0C1828282A26
:109700002A1C080800000022251515152A58545453
:10971000542200000000000C1212120A76252911B2
:10972000916E000000060604030000000000000027
:109730000000000000402010100808080808081069
:10974000102040000002040808101010101010082B
:10975000080402000000000008086B1C1C6B0808CD
:109760000000000000000000080808087F08080842
:1097700008000000000000000000000000000000E1
:10978000060604030000000000000000FE000000C8
:1097900000000000000000000000000000000000C9
:1097A0000606000000008040402020101008080439
:1097B0000402020000000018244242424242424297
:1097C00024180000000000080E080808080808080F
:1097D000083E00000000003C4242422020100804E5
:1097E000427E00000000003C4242201820404042DF
:1097F000221C0000000000203028242422227E2089
:10980000207800000000007E0202021A264040423A
:10981000221C0000000000382402021A26424242A4
:10982000241800000000007E2222101008080808FA
:10983000080800000000003C424242241824424232
:10984000423C00000000001824424242645840405C
:10985000241C000000000000000018180000000098
:1098600018180000000000000000000800000000C0
:10987000000808040000004020100804020408103A
:10988000204000000000000000007F0000007F007A
:109890000000000000000002040810204020100812
:1098A000040200000000003C42424640201010002C
:1098B000181800000000001C225A555555552D421D
:1098C000221C00000000000808181414243C224246
:1098D00042E700000000001F2222221E22424242D4
:1098E000221F00000000007C4242010101010142F0
:1098F000221C00000000001F22424242424242421B
:10990000221F00000000003F4212121E12120242EB
:10991000423F00000000003F4212121E12120202DB
:10992000020700000000003C2222010101712122F7
:10993000221C0000000000E7424242427E424242B6
:1099400042E700000000003E080808080808080870
:10995000083E00000000007C1010101010101010C5
:109960001010110F0000007722120A0E0A121222A4
:109970002277000000000007020202020202020237
:10998000427F000000000077363636362A2A2A2A1F
:109990002A6B0000000000E346464A4A52525262D7
:1099A000624700000000001C224141414141414109
:1099B000221C00000000003F424242423E020202DE
:1099C000020700000000001C2241414141414D536B
:1099D000321C60000000003F4242423E121222222E
:1099E00042C700000000007C4242020418204042AE
:1099F000423E00000000007F4908080808080808E7
:109A0000081C0000000000E742424242424242423B
:109A1000423C0000000000E74242222424141418B3
:109A2000080800000000006B494949495555362295
:109A300022220000000000E74224241818182424E1
:109A400042E70000000000772222141408080808EA
:109A5000081C00000000007E2120101008040442B1
:109A6000423F0000007808080808080808080808AD
:109A700008087800000002020404080808101020FA
:109A800020204040001E1010101010101010101058
:109A900010101E000038440000000000000000000C
:109AA00000000000000000000000000000000000B6
:109AB000000000FF00060800000000000000000099
:109AC00000000000000000000000003C427844421A
:109AD00042FC0000000000030202021A2642424239
:109AE000261A0000000000000000003844020202B4
:109AF0004438000000000060404040784442424248
:109B000064D80000000000000000003C427E020219
:109B1000423C0000000000F08808087E08080808A1
:109B2000083E0000000000000000007C22221C0211
:109B30003C42423C000000030202023A46424242DA
:109B400042E700000000000C0C00000E08080808A6
:109B5000083E0000000000303000003820202020A7
:109B60002020221E0000000302020272120A1612B6
:109B7000227700000000000E0808080808080808FE
:109B8000083E0000000000000000007F92929292C8
:109B900092B70000000000000000003B4642424235
:109BA00042E70000000000000000003C4242424248
:109BB000423C0000000000000000001B2642424220
:109BC000221E0207000000000000007844424242CA
:109BD000447840E000000000000000774C040404DA
:109BE000041F0000000000000000007C42023C4016
:109BF000423E0000000000000008083E0808080877
:109C000008300000000000000000006342424242B1
:109C100062DC000000000000000000E74224241481
:109C20000808000000000000000000EB49495555FD
:109C300022220000000000000000007624181818FE
:109C4000246E000000000000000000E742242414FD
:109C500018080807000000000000007E2210080815
:109C6000447E000000C02020202020102020202042
:109C70002020C00010101010101010101010101024
:109C80001010101000060808080808100808080836
:109C9000080806000C32C2000000000000000000AE
:109CA00000000000000000000000000000000000B4
:109CB00000000000000000000000000000000000A4
:109CC0000000000000000000000000000000000094
:109CD00000000000000000000000000060006000C4
:109CE0006000600060006000600040002000200014
:109CF0002000000000000000600060006000000024
:109D000000000000000000006006600630039801BB
:109D10008800440000000000000000000000000077
:109D20000000000000000000000000000000000033
:109D300000000000000000000000000010021002FF
:109D400010021002FE07FE070802080108010801C0
:109D50000801FE07FE0704010401040104010000DC
:109D60000000000000000000000040004000F00182
:109D700058034C03CC034C0058007000E000C001B5
:109D8000C00140034C035C034C034801F000400059
:109D90004000000000000000000000000E010A0169
:109DA000910091009100510051003A00AE03A002D1
:109DB000500450044804480448048402840300000A
:109DC00000000000000000000000000038006C00EF
:109DD0006C006C006C006C002C0098071C011A01D0
:109DE000330133016301E300C308C6093C070000E7
:109DF00000000000000000000C001C00100010001B
:109E00000800040000000000000000000000000046
:109E10000000000000000000000000000000000042
:109E200000000000000000000004000200018000AB
:109E30008000400040002000200020002000200082
:109E4000200020004000400080008000000100024F
:109E500000040000000000000200040008001000E0
:109E60001000200020004000400040004000400062
:109E700040004000200020001000100008000400F6
:109E800002000000000000000000000000000000D0
:109E90004000C0004000460C4E0FD001F0015E0FA4
:109EA000460C4000400040000000000000000000A0
:109EB00000000000000000000000000000000000A2
:109EC000000040004000400040004000FE0F400005
:109ED0004000400040004000000000000000000082
:109EE0000000000000000000000000000000000072
:109EF0000000000000000000000000000000000062
:109F000000000000000000000C001C001000100009
:109F10000800040000000000000000000000000035
:109F2000000000000000000000000000FE0700002C
:109F30000000000000000000000000000000000021
:109F40000000000000000000000000000000000011
:109F50000000000000000000000000000000000001
:109F600000000000000000001C001C001C0000009D
:109F700000000000000000000004000600020003D2
:109F800000010001800080004000400060002000CF
:109F9000200010001000080008000C00040006005B
:109FA0000200000000000000000000000000F000BF
:109FB00098010C030C0306060606060606060606AE
:109FC0000606060606060C030C039801F0000000C6
:109FD0000000000000000000000000000000400041
:109FE0007C00600060006000600060006000600055
:109FF000600060006000600060006000FC03000022
:10A000000000000000000000000000000000F80058
:10A010008401020306030603000300018001C0005F
:10A02000600020001000080204020602FE03000087
:10A0300000000000000000000000000000007800A8
:10A04000C6008601860180018001C0007000800189
:10A05000000100030003060306038601F800000068
:10A06000000000000000000000000000000080016F
:10A070008001C001A001A001900188018801840134
:10A080008201FE0F8001800180018001E007000055
:10A090000000000000000000000000000000FC03C1
:10A0A00004000400040004000400F4008C01040314
:10A0B000000300030603060382018401F800000088
:10A0C0000000000000000000000000000000E001AF
:10A0D00018030C030C0004000600E60116030E062C
:10A0E00006060606060604060C021803F000000029
:10A0F0000000000000000000000000000000F80761
:10A100000C060402040100010001800080004000F0
:10A1100040004000600060006000600060000000DF
:10A120000000000000000000000000000000F80136
:10A130000C030606060606060C021C03F000C80106
:10A140000C0306060606060606060C03F0010000D0
:10A150000000000000000000000000000000F0000F
:10A160000C010C03060206060606060606078C0608
:10A1700078060006000300030C018C017800000043
:10A1800000000000000000000000000000000000CF
:10A190000000000000000000E000E000E00000001F
:10A1A0000000000000000000E000E000E00000000F
:10A1B000000000000000000000000000000000009F
:10A1C00000000000000000006000600000000000CF
:10A1D000000000000000000000006000600040007F
:10A1E0002000200000000000000000000004000229
:10A1F000000180004000200010000800040008005A
:10A200001000200040008000000100020004000057
:10A21000000000000000000000000000000000003E
:10A220000000000000000000FE0700000000000029
:10A23000FE07000000000000000000000000000019
:10A240000000000000000000000000000400080002
:10A250001000200040008000000100020004000205
:10A2600000018000400020001000080004000000F1
:10A270000000000000000000000000000000E003FB
:10A280001806040C040C0C0C0C0C00078001400098
:10A290004000400000000000E000E000E00000009E
:10A2A000000000000000000000000000E0001803B3
:10A2B0000C02CC0564056605A605B604B604B60412
:10A2C000B604B602E4010C040C021803F00000000E
:10A2D000000000000000000000000000000060001E
:10A2E00060005000D00090009000880088010801B4
:10A2F000F801040304030402020202060F0F000027
:10A300000000000000000000000000000000FE004F
:10A310008C030C030C030C030C038C01FC000C03DA
:10A320000C020C060C060C060C060C03FE010000C9
:10A330000000000000000000000000000000E0033A
:10A3400018030C060C0404040600060006000600B0
:10A350000600060006040C040C021803F0000000BE
:10A3600000000000000000000000000000007F006E
:10A370008C010C030C030C060C060C060C060C06D8
:10A380000C060C060C060C030C038C017F0000006D
:10A390000000000000000000000000000000FF03BB
:10A3A000060306040604060086008600FE008600FA
:10A3B000860086000600060406040602FF0300006D
:10A3C0000000000000000000000000000000FF038B
:10A3D000060306040604060086008600FE008600CA
:10A3E0008600860006000600060006001F0000002A
:10A3F0000000000000000000000000000000F0006D
:10A4000018010C020C0204020600060006000600F9
:10A41000C60F060306030C030C031803F00000002C
:10A4200000000000000000000000000000000F0F0E
:10A43000060606060606060606060606FE070606C3
:10A440000606060606060606060606060F0F0000A6
:10A450000000000000000000000000000000FC03FD
:10A4600060006000600060006000600060006000EC
:10A47000600060006000600060006000FC0300009D
:10A480000000000000000000000000000000F807CD
:10A49000C000C000C000C000C000C000C000C000BC
:10A4A000C000C000C000C000C000C000C000C600A6
:10A4B00066003C0000000000000000000000CF0328
:10A4C0008601C60046002600160036002E006E00EB
:10A4D0004600C60086008601060106038F070000BD
:10A4E00000000000000000000000000000001F004D
:10A4F000060006000600060006000600060006002C
:10A50000060006000600060406040602FF0300001B
:10A51000000000000000000000000000000007072D
:10A52000860386038E038E034E034E034A035A03AB
:10A530005A033A033203320332031203870700003F
:10A5400000000000000000000000000000008E0F6E
:10A550000C021C021C023402340264026402440233
:10A56000C402840284038403040304031F02000062
:10A570000000000000000000000000000000F000EB
:10A5800098010C030C0206060606060606060606D9
:10A590000606060606060C020C039801F0000000F1
:10A5A0000000000000000000000000000000FF00AC
:10A5B0000603060606060606060606068603FE00CF
:10A5C0000600060006000600060006001F00000048
:10A5D0000000000000000000000000000000F0008B
:10A5E00098010C030C020606060606060606060679
:10A5F0000606060676064C02CC039801F00080079A
:10A600000003000000000000000000000000FF0147
:10A61000060306060606060606060603FE004600B4
:10A62000C600860086010603060306060F0E00001C
:10A630000000000000000000000000000000F80220
:10A640000C030602060206000E003C00F800E003C0
:10A65000800300070206020606060C03F001000054
:10A660000000000000000000000000000000FE07E5
:10A6700062046108610860006000600060006000C2
:10A68000600060006000600060006000F801000091
:10A6900000000000000000000000000000001E0795
:10A6A0000C020C020C020C020C020C020C020C023A
:10A6B0000C020C020C020C020C021801F00000004B
:10A6C00000000000000000000000000000000F0774
:10A6D0000602040104010C010C01880088009800A6
:10A6E0009800500050007000300020002000000052
:10A6F0000000000000000000000000000000F70E55
:10A70000620442044604460464026402E402E40271
:10A710009C029C0198019801880188008800000033
:10A7200000000000000000000000000000009E0784
:10A730000C01080118019000B000600020006000CA
:10A740006000D00090008801080104038E0700001B
:10A7500000000000000000000000000000000F0FDB
:10A76000060404020C0208011801B800B0007000D1
:10A77000600060006000600060006000F8010000A0
:10A780000000000000000000000000000000FC07C6
:10A790000C020603020180018000400040002000FE
:10A7A00020001000180008040C040402FE0300003E
:10A7B0000000000000000000E00320002000200056
:10A7C0002000200020002000200020002000200089
:10A7D0002000200020002000200020002000200079
:10A7E000E00300000000000000000000040004007E
:10A7F0000800080010001000100020002000400099
:10A800004000C00080008000000100010002000242
:10A8100000020004000000007C00400040004000F6
:10A820004000400040004000400040004000400028
:10A830004000400040004000400040004000400018
:10A840007C00000000006000900008010000000093
:10A8500000000000000000000000000000000000F8
:10A8600000000000000000000000000000000000E8
:10A8700000000000000000000000000000000000D8
:10A8800000000000000000000000000000000000C8
:10A8900000000000000000000000000000000000B8
:10A8A0000000FF0F00000000180060000000000022
:10A8B0000000000000000000000000000000000098
:10A8C0000000000000000000000000000000000088
:10A8D0000000000000000000000000000000000078
:10A8E0000000000000000000F0010C030C03000356
:10A8F000E0031C030E03060306038E0B7C0E000010
:10A9000000000000000000000000000008000E0031
:10A910000C000C000C000C00CC013C031C060C06C7
:10A920000C060C060C060C060C021C03E4010000CD
:10A930000000000000000000000000000000000017
:10A940000000000000000000F0008C018C01860176
:10A9500006000600060006020C020C01F0000000D2
:10A960000000000000000000000000000002C00322
:10A97000000300030003000378038C030C030603A9
:10A98000060306030603060304038C077801000090
:10A9900000000000000000000000000000000000B7
:10A9A0000000000000000000E001180308020C068F
:10A9B0000C06FC070C000C0018041802E001000053
:10A9C0000000000000000000000000000000C003C4
:10A9D0006006300630003000FE01300030003000EC
:10A9E000300030003000300030003000FC0100004A
:10A9F0000000000000000000000000000000000057
:10AA00000000000000000000F007D8068C018C0157
:10AA10008C019801F8000C00FC00CC03060306032F
:10AA20008E03F800000000000000000008000E0087
:10AA30000C000C000C000C00EC011C030C030C03BC
:10AA40000C030C030C030C030C030C039E07000007
:10AA50000000000000000000000000000000600096
:10AA600060000000000040007C00600060006000AA
:10AA7000600060006000600060006000FC03000097
:10AA80000000000000000000000000000000C00105
:10AA9000C001000000000001F00180018001800180
:10AAA000800180018001800180018001800180019E
:10AAB000CC007C00000000000000000008000E0038
:10AAC0000C000C000C000C008C038C008C004C0063
:10AAD0006C005C008C008C010C010C039E070000D4
:10AAE00000000000000000000000000040007C00AA
:10AAF0006000600060006000600060006000600056
:10AB0000600060006000600060006000FC03000006
:10AB10000000000000000000000000000000000035
:10AB200000000000000000003707EE06660666061B
:10AB3000660666066606660666066606FF0F00007F
:10AB40000000000000000000000000000000000005
:10AB50000000000000000000EE011C030C030C03C9
:10AB60000C030C030C030C030C030C039E070000E6
:10AB700000000000000000000000000000000000D5
:10AB80000000000000000000F00098010C03060621
:10AB900006060606060606060C030C03F000000077
:10ABA00000000000000000000000000000000000A5
:10ABB0000000000000000000EE011C030C060C0663
:10ABC0000C060C060C060C060C031C03EC010C0016
:10ABD0000C003E000000000000000000000000002B
:10ABE000000000000000000078028C030C03060344
:10ABF000060306030603060304038C03780300031D
:10AC00000003C0070000000000000000000000007A
:10AC100000000000000000009F03580638061800DE
:10AC2000180018001800180018001800FF00000095
:10AC30000000000000000000000000000000000014
:10AC40000000000000000000F0031C030C020C02D6
:10AC50003800F000C003040304038C03FC0100006F
:10AC600000000000000000000000000000000000E4
:10AC70002000200030003000FE01300030003000A5
:10AC8000300030003000300030023002E0010000BF
:10AC900000000000000000000000000000000000B4
:10ACA00000000000000008028E030C030C030C03DC
:10ACB0000C030C030C030C030C039C07780100002D
:10ACC0000000000000000000000000000000000084
:10ACD00000000000000000001E070C02080108012F
:10ACE00018019000B000B00060006000200000007B
:10ACF0000000000000000000000000000000000054
:10AD00000000000000000000F70E62044604640228
:10AD10006402EC029C01980198019801080000006F
:10AD20000000000000000000000000000000000023
:10AD30000000000000000000BC0718011001B00076
:10AD400060006000E0009000080108039E0700001A
:10AD500000000000000000000000000000000000F3
:10AD600000000000000000009E0708010801080123
:10AD700090009000B00060006000600020002000A3
:10AD800024001C0000000000000000000000000083
:10AD90000000000000000000FC018401C400440029
:10ADA000600020003000180208020C03FC010000C3
:10ADB0000000000000000000000380008000800010
:10ADC0008000800080008000800040002000400063
:10ADD0008000800080008000800080008000800073
:10ADE00000030000400040004000400040004000E0
:10ADF0004000400040004000400040004000400053
:10AE00004000400040004000400040004000400042
:10AE100040004000000000000C0010001000100076
:10AE20001000100010001000100020004000200052
:10AE30001000100010001000100010001000100092
:10AE40000C00000000001C002204C204800300006B
:10AE500000000000000000000000000000000000F2
:10AE600000000000000000000000000000000000E2
:10AE700000000000000000000000000000000000D2
:10AE800000000000000000000000000000000000C2
:10AE900000000000000000000000000000000000B2
:10AEA00000000000000000000000000000000000A2
:10AEB0000000000000000000000000000000C001D1
:10AEC000C001C001C001C001C001C00180008000FC
:10AED00080008000800080008000000000000000F2
:10AEE00000008001C003C0038001000000000000DA
:10AEF00000000000000000000000E01CE01CF01E4C
:10AF0000700E3807180308018400000000000000DC
:10AF10000000000000000000000000000000000031
:10AF20000000000000000000000000000000000021
:10AF30000000000000000000000000000000000011
:10AF400020102010201020102010FE7FFE7F1008FF
:10AF5000100810081008100810081008FE7FFE7F67
:10AF600008040804080408040804000000000000A5
:10AF700000000000000000000000000000010001CF
:10AF8000C0076019103118311839183938017001AB
:10AF9000E001C0038007000F001D003900311C31A3
:10AFA0001C310C310C11180DE007000100010001EB
:10AFB0000000000000000000000000000000000091
:10AFC0001C1036186308630C630463046302630295
:10AFD0006301361D9C378022806340634063206399
:10AFE0002063306310221836081C000000000000A7
:10AFF0000000000000000000000000000000000051
:10B00000F00098018C018C018C018C018C00CC002B
:10B010007800183E1C083608320863046304C30431
:10B02000C303834306438E26781C00000000000003
:10B03000000000000000000000001C003C003C007C
:10B040003000300010000C0006000000000000007E
:10B0500000000000000000000000000000000000F0
:10B0600000000000000000000000000000000000E0
:10B070000000000000000000000000400020001060
:10B080000008000C00040006000300030003800118
:10B090008001800180018001800180018001000326
:10B0A0000003000300060006000C0008001000204A
:10B0B0000040000000000000000002000400080042
:10B0C0001000300020006000C000C000C0008001FF
:10B0D0008001800180018001800180018001C00029
:10B0E000C000C000600060003000100008000400D4
:10B0F000020000000000000000000000000000004E
:10B100000000000000018003800300011C713C79F5
:10B11000783DC0070001C007783D3C791C710001F3
:10B120008003800380010000000000000000000098
:10B13000000000000000000000000000000000000F
:10B1400000000000000000010001000100010001FA
:10B1500000010001FC7F000100010001000100016D
:10B1600000010001000000000000000000000000DD
:10B1700000000000000000000000000000000000CF
:10B1800000000000000000000000000000000000BF
:10B1900000000000000000000000000000000000AF
:10B1A000000000001C003C003C003000300010009B
:10B1B0000C0006000000000000000000000000007D
:10B1C000000000000000000000000000000000007F
:10B1D00000000000FE7F00000000000000000000F2
:10B1E000000000000000000000000000000000005F
:10B1F000000000000000000000000000000000004F
:10B20000000000000000000000000000000000003E
:10B21000000000000000000000000000000000002E
:10B22000000018003C003C00180000000000000076
:10B23000000000000000000000000040006000204E
:10B240000030001000180008000C00040006000286
:10B250000003000180018000C00040006000200069
:10B2600030001000180008000C0004000600020066
:10B2700000000000000000000000000000000000CE
:10B28000C007600C30181830183018200C600C60A3
:10B290000C600C600C600C600C600C600C60182082
:10B2A000183018303018600CC00700000000000093
:10B2B000000000000000000000000000000000008E
:10B2C00000018001F801800180018001800180017E
:10B2D0008001800180018001800180018001800166
:10B2E000800180018001C003F81F00000000000001
:10B2F000000000000000000000000000000000004E
:10B30000E007101C0818043004300C300C300030FA
:10B310000018000800040002000180004000202006
:10B32000102008200430FC1FFC1F0000000000005B
:10B33000000000000000000000000000000000000D
:10B34000E003180E0C0C0C180C180C180018000C4C
:10B350000006C003000E00180010003000300C3052
:10B360000C300C100C18180CE0030000000000005A
:10B3700000000000000000000000000000000000CD
:10B38000000C000E000E000F800E800E400E600EAE
:10B39000200E100E100E080E040E040EFE7F000E7E
:10B3A000000E000E000E000E000EC07F0000000018
:10B3B000000000000000000000000000000000008D
:10B3C000F03FF03F10001000100008000800C80710
:10B3D000280C1818081000300030003000300C30F5
:10B3E0000C3004180418080CF003000000000000E2
:10B3F000000000000000000000000000000000004D
:10B40000800FC010203010301800180008000C0009
:10B410008C0F6C183C301C600C600C600C600C6075
:10B420001860182030306018C007000000000000CD
:10B43000000000000000000000000000000000000C
:10B44000F83FF83F1C100C08040804040004000234
:10B450000002000100010001800080008000C000A7
:10B46000C000C000C000C000C0000000000000001C
:10B4700000000000000000000000000000000000CC
:10B48000E007300C18180C300C300C301C30381819
:10B490007008E007B007180E0C1C0638063006309E
:10B4A000063006300C18180CE00300000000000005
:10B4B000000000000000000000000000000000008C
:10B4C000E00318040C080C1806100630063006308D
:10B4D000063006380C3C1836F031003000180018E1
:10B4E00000180C0C0C060C03F0010000000000001A
:10B4F000000000000000000000000000000000004C
:10B5000000000000000000000000000000008001BA
:10B51000C003C00380010000000000000000000024
:10B5200000008001C003C003800100000000000093
:10B53000000000000000000000000000000000000B
:10B540000000000000000000000000000000C0003B
:10B55000C00000000000000000000000000000002B
:10B56000000000000000C000C0008000800040001B
:10B57000400000000000000000000000000000206B
:10B58000001000080004000600038001C0006000F5
:10B59000300018000C00180030006000C00080016E
:10B5A0000003000600040008001000200000000056
:10B5B000000000000000000000000000000000008B
:10B5C0000000000000000000000000000000FE7FFE
:10B5D00000000000000000000000FE7F00000000EE
:10B5E000000000000000000000000000000000005B
:10B5F0000000000000000000000000000000040047
:10B600000800100020006000C00080010003000658
:10B61000000C001800300018000C00060003800128
:10B62000C0006000200010000800040000000000BE
:10B630000000000000000000000000000000C00743
:10B640003018083008600C601C601C601C60003002
:10B65000001C0006000180008000800080000000C7
:10B6600000008001C003C003800100000000000052
:10B6700000000000000000000000000000000000CA
:10B68000C0076018103018200C2F8C4D864CC64C0B
:10B69000C64C664C66446644662666266615CC1C17
:10B6A0000C40082018303018C007000000000000CF
:10B6B0000000000000000000000000000000000189
:10B6C000C001C001C001400160032003200320032A
:10B6D0003006100610061006F80F080C080C080CAF
:10B6E0000C0C0418041806181F7C00000000000051
:10B6F000000000000000000000000000000000004A
:10B70000FE07181C18381830183018301830181860
:10B71000180CF807181818301820186018601860EE
:10B720001860186018301818FE0F000000000000A4
:10B730000000000000000000000000000000000009
:10B74000C0276038103018200C400C400400060060
:10B7500006000600060006000600060006000C4073
:10B760000C400C2018303018C0070000000000000A
:10B7700000000000000000000000000000000000C9
:10B78000FE03180E1818183018301830186018609A
:10B790001860186018601860186018601860183019
:10B7A000183018101818180EFE03000000000000D2
:10B7B0000000000000000000000000000000000089
:10B7C000FE3F183018201860184018001808180894
:10B7D000180CF80F180C1808180818001800180092
:10B7E0001840184018201830FE3F000000000000EC
:10B7F0000000000000000000000000000000000049
:10B80000FE7F1870184018C0188018001810181003
:10B810001818F81F18181810181018001800180019
:10B8200018001800180018007E000000000000003A
:10B830000000000000000000000000000000000008
:10B84000C013701C101018100C200C2004000600EF
:10B85000060006000600060006FC063006300C3026
:10B860000C30183018303008C0070000000000000D
:10B8700000000000000000000000000000000000C8
:10B880003F7E0C180C180C180C180C180C180C18FF
:10B890000C180C18FC1F0C180C180C180C180C1891
:10B8A0000C180C180C180C183F7E0000000000004B
:10B8B0000000000000000000000000000000000088
:10B8C000F81F8001800180018001800180018001DA
:10B8D0008001800180018001800180018001800160
:10B8E0008001800180018001F81F0000000000003D
:10B8F0000000000000000000000000000000000048
:10B90000E07F0006000600060006000600060006AE
:10B9100000060006000600060006000600060006F7
:10B920000006000600060006000600060E060E03CE
:10B930008E01FC000000000000000000000000007C
:10B940007E7C1818180818041806180218019801A7
:10B950009801D801B803380318071806180E180CF8
:10B96000181C1818183018307EFC00000000000069
:10B9700000000000000000000000000000000000C7
:10B980007E00180018001800180018001800180091
:10B9900018001800180018001800180018001800E7
:10B9A0001840184018201830FE3F0000000000002A
:10B9B0000000000000000000000000000000000087
:10B9C0001FF81C381C381C381C3C343434343434D4
:10B9D000343674326432643264326431C431C43116
:10B9E000C431C430C43084309FFC0000000000002B
:10B9F0000000000000000000000000000000000047
:10BA00001F7C1C103C103410341074106410E410AF
:10BA1000C410C41184118413041304170416041EE3
:10BA2000041C041C041C04181F1800000000000063
:10BA30000000000000000000000000000000000006
:10BA4000C003300C181808100C300C30066006606B
:10BA500006600660066006600660066006600C20F0
:10BA60000C3008101818300CC00300000000000053
:10BA700000000000000000000000000000000000C6
:10BA8000FE0F1818183018601860186018601860D9
:10BA900018301818F80F18001800180018001800AF
:10BAA00018001800180018007E00000000000000B8
:10BAB0000000000000000000000000000000000086
:10BAC000C003300C18180C100C300C2006600660F7
:10BAD0000660066006600660066006600660E46157
:10BAE0002C331C321816300EC007004C007C003876
:10BAF0000000000000000000000000000000000046
:10BB0000FE07181C1838183018301830183018185C
:10BB1000180CF80798031803180718061806180ECB
:10BB2000180C180C181C18187E7800000000000073
:10BB30000000000000000000000000000000000005
:10BB4000E027303818300C200C200C000C001800B6
:10BB50007800E003800F001E003800700060046071
:10BB60000460086018303818C80F0000000000009A
:10BB700000000000000000000000000000000000C5
:10BB8000FC3F8C21846182418241800180018001DF
:10BB9000800180018001800180018001800180019D
:10BBA0008001800180018001E007000000000000AA
:10BBB0000000000000000000000000000000000085
:10BBC0003F7C0C100C100C100C100C100C100C10F6
:10BBD0000C100C100C100C100C100C100C100C1085
:10BBE0000C100C1008083804E003000000000000EE
:10BBF0000000000000000000000000000000000045
:10BC00003EF8182018201820301030103010301056
:10BC1000600860086008E00CC004C004C004800331
:10BC20008003800380030001000100000000000089
:10BC30000000000000000000000000000000000004
:10BC4000DFF38661862186218C210C218C238C13C5
:10BC50008C138C134C1358125816580E380E380E7D
:10BC6000380E300C10041004100400000000000016
:10BC700000000000000000000000000000000000C4
:10BC80007E3E180838083004300470026002E0017B
:10BC9000C001C00180018003400340072006200648
:10BCA000100C100C081808183E7C00000000000062
:10BCB0000000000000000000000000000000000084
:10BCC0007E7C1C10181018083008300C70046004BA
:10BCD0006002C002C002C0018001800180018001B9
:10BCE0008001800180018001E00700000000000069
:10BCF0000000000000000000000000000000000044
:10BD0000F83F18180818040C040E0006000700037A
:10BD100080038001C001C000E000600070003000BE
:10BD2000382018201C100C18FE1F00000000000016
:10BD300000000000000000000000C03F4000400084
:10BD400040004000400040004000400040004000F3
:10BD500040004000400040004000400040004000E3
:10BD60004000400040004000400040004000C03F14
:10BD700000000000000000000000000000000800BB
:10BD80001800180010003000200060006000400023
:10BD9000C000800080018001000100030002000655
:10BDA00000060004000C0008001800180010003005
:10BDB00000200000000000000000FC030002000260
:10BDC0000002000200020002000200020002000263
:10BDD0000002000200020002000200020002000253
:10BDE0000002000200020002000200020002FC0346
:10BDF000000000000000000000008007C0062008CE
:10BE00001010000000000000000000000000000012
:10BE10000000000000000000000000000000000022
:10BE20000000000000000000000000000000000012
:10BE30000000000000000000000000000000000002
:10BE400000000000000000000000000000000000F2
:10BE500000000000000000000000000000000000E2
:10BE600000000000000000000000000000000000D2
:10BE70000000FFFF0000000000007800C00000018B
:10BE800000000000000000000000000000000000B2
:10BE900000000000000000000000000000000000A2
:10BEA0000000000000000000000000000000000092
:10BEB0000000000000000000000000000000000082
:10BEC0000000000000000000000000000000F0037F
:10BED00018060C0C0C0C000C800F700C1C0C0C0CBD
:10BEE000060C060C064C0C4FF83800000000000051
:10BEF0000000000000000000000000000000100032
:10BF00001E00180018001800180018001800180F5C
:10BF1000D8183830386018601860186018601860D9
:10BF20001860182038307818C8070000000000009A
:10BF30000000000000000000000000000000000001
:10BF40000000000000000000000000000000C0072A
:10BF5000700C181818180C180C000C000C000C00B1
:10BF60000C20182018103008C00700000000000046
:10BF700000000000000000000000000000000010B1
:10BF8000001E001800180018001800180018E01B08
:10BF9000301C181818180C180C180C180C180C1841
:10BFA0000C180818181C307AE00900000000000086
:10BFB0000000000000000000000000000000000081
:10BFC0000000000000000000000000000000C007AA
:10BFD000300C181808100C300C30FC3F0C000C0012
:10BFE0000C00182018107018C00700000000000096
:10BFF0000000000000000000000000000000000041
:10C00000003E80C380C0C0C0C000C000C000FC1F94
:10C01000C000C000C000C000C000C000C000C00020
:10C02000C000C000C000C000F80F00000000000009
:10C030000000000000000000000000000000000000
:10C040000000000000000000000000000000C077B9
:10C05000306C10181818181818181018300CF00731
:10C0600018001800F00FF03F08700C600C600C60B6
:10C070003838E00F00000000000000000000100051
:10C080001E00180018001800180018001800980F5B
:10C09000D818383018301830183018301830183098
:10C0A00018301830183018307EFC000000000000F6
:10C0B0000000000000000000000000000000000080
:10C0C0008003800380030000000000000001F801ED
:10C0D0008001800180018001800180018001800158
:10C0E0008001800180018001F81F00000000000035
:10C0F0000000000000000000000000000000000040
:10C100000038003800380000000000000010801FD8
:10C11000001800180018001800180018001800185F
:10C120000018001800180018001800180018180C43
:10C130001806F003000000000000000000001000DE
:10C140001E00180018001800180018001800183EEB
:10C15000180C1806180318019801D801380318079D
:10C160001806180C181C18187E7C0000000000002F
:10C1700000000000000000000000000000000001BE
:10C18000F80180018001800180018001800180012F
:10C190008001800180018001800180018001800197
:10C1A0008001800180018001F81F00000000000074
:10C1B000000000000000000000000000000000007F
:10C1C0000000000000000000000000000800EE1C5D
:10C1D0009C338C318C318C318C318C318C318C3165
:10C1E0008C318C318C318C31DE7B00000000000002
:10C1F000000000000000000000000000000000003F
:10C2000000000000000000000000000010001E0FF1
:10C21000D818383018301830183018301830183016
:10C2200018301830183018307EFC00000000000074
:10C2300000000000000000000000000000000000FE
:10C240000000000000000000000000000000C00727
:10C25000701C103018300C600C600C600C600C60AE
:10C260000C60183018303018C007000000000000C3
:10C2700000000000000000000000000000000000BE
:10C2800000000000000000000000000010009E0FF1
:10C290005818383018201860186018601860186036
:10C2A00018601830383078189807180018001800EF
:10C2B00018007E00000000000000000000000000E8
:10C2C0000000000000000000000000000000C0238B
:10C2D000303C183818300C300C300C300C300C302E
:10C2E0000C3008301838303CE0330030003000307B
:10C2F000003000FC00000000000000000000000012
:10C3000000000000000000000000000060007E3C13
:10C3100060666061E000E000600060006000600056
:10C320006000600060006000FE0700000000000088
:10C3300000000000000000000000000000000000FD
:10C340000000000000000000000000000000E027E6
:10C3500030381830182018007000E003800F001CDF
:10C36000043004300C301C18EC0F000000000000FA
:10C3700000000000000000000000000000000000BD
:10C3800000000000800080008000C000E000FC1F72
:10C39000C000C000C000C000C000C000C000C0009D
:10C3A000C000C020C0208011000F0000000000006D
:10C3B000000000000000000000000000000000007D
:10C3C00000000000000000000000000010201E3CE3
:10C3D000183018301830183018301830183018301D
:10C3E00018301830183830F4E01300000000000056
:10C3F000000000000000000000000000000000003D
:10C4000000000000000000000000000000007E3C72
:10C4100018181808380830043004700260026002EE
:10C42000E001C001C001C000800000000000000069
:10C4300000000000000000000000000000000000FC
:10C440000000000000000000000000000000DFF716
:10C450008E630C238C238C2398139813581658162C
:10C46000700E700E700E200420040000000000000A
:10C4700000000000000000000000000000000000BC
:10C480000000000000000000000000000000FC3E72
:10C4900070087004E004C002C001800380034007FC
:10C4A0006006200C100C18183E7E000000000000F2
:10C4B000000000000000000000000000000000007C
:10C4C00000000000000000000000000000007E7C72
:10C4D0001818180830083008300460046004C002DE
:10C4E000C002C002800180018001800080008000C5
:10C4F0004C003C00000000000000000000000000B4
:10C500000000000000000000000000000000FC1F10
:10C510000C0C040E0406000380038001C000E00040
:10C520007020302038301C18FC1F00000000000074
:10C5300000000000000000000000003000080004BF
:10C5400000040004000400040004000400040004CB
:10C550000004000280010002000400040004000442
:10C5600000040004000400040004000400040008A7
:10C570000030000000010001000100010001000185
:10C5800000010001000100010001000100010001A3
:10C590000001000100010001000100010001000193
:10C5A0000001000100010001000100010001000183
:10C5B000000100010000000000000C00100020003D
:10C5C000200020002000200020002000200020006B
:10C5D00020004000800140002000200020002000BA
:10C5E000200020002000200020002000200010005B
:10C5F0000C00000000003800C400864002610022E8
:10C60000001C00000000000000000000000000000E
:10C61000000000000000000000000000000000001A
:10C62000000000000000000000000000000000000A
:10C6300000000000D0000020494E4600696E6600F0
:10C640004E414E006E616E00300030313233343571
:10C65000363738394142434445460030313233346D
:10C66000353637383961626364656600496E6669DC
:10C670006E697479004E614E0000000000000000F9
:10C6800000000000000000000000000000000000AA
:10C69000000000000000000000000000000000009A
:10C6A000000000000000000000000000000000008A
:10C6B000000000000000000000000000000000007A
:10C6C000000000000000000000000000000000006A
:10C6D000000000000000000000000000000000005A
:10C6E0000080E03779C34143176E05B5B5B893466E
:10C6F000F5F93FE9034F384D321D30F94877825A3A
:10C700003CBF737FDD4F1575000000000000F03F57
:10C71000000000000000244000000000000059401C
:10C720000000000000408F40000000000088C3406F
:10C7300000000000006AF8400000000080842E41E4
:10C7400000000000D01263410000000084D7974130
:10C750000000000065CDCD41000000205FA0024236
:10C76000000000E876483742000000A2941A6D42AB
:10C77000000040E59C30A2420000901EC4BCD6429E
:10C7800000003426F56B0C430080E03779C3414349
:10C7900000A0D8855734764300C84E676DC1AB43BF
:10C7A000003D9160E458E143408CB5781DAF1544DD
:10C7B00050EFE2D6E41A4B4492D54D06CFF08044B8
:10C7C000F64AE1C7022DB544B49DD9794378EA44CD
:10C7D00005000000190000007D000000232D302B13
:10C7E0002000686C4C006566674546470043005072
:10C7F0004F534958002E00002020202020202020C8
:10C800002028282828282020202020202020202000
:10C810002020202020202020881010101010101020
:10C820001010101010101010040404040404040468
:10C8300004041010101010101041414141414101F9
:10C8400001010101010101010101010101010101D8
:10C8500001010110101010101042424242424202E7
:10C8600002020202020202020202020202020202A8
:10C870000202021010101020000000000000000052
:10C8800000000000000000000000000000000000A8
:10C890000000000000000000000000000000000098
:10C8A0000000000000000000000000000000000088
:10C8B0000000000000000000000000000000000078
:10C8C0000000000000000000000000000000000068
:10C8D0000000000000000000000000000000000058
:10C8E0000000000000000000000000000000000048
:08C8F000000000000000000040
:04C8F80035010008FE
:04C8FC00110100081E
:10C9000001000000100000000024F40001000000FD
:10C91000054E0008194E00081B4E00081D4E000869
:10C920000000803F19500008C14F0008714F0008F7
:10C9300000000000955300080000000001530008AB
:10C94000000000006D52000800000000D9510008EE
:10C9500071500008295400081554000801540008BB
:10C96000A95D0008FD5C0008195500082D55000858
:10C97000D1550008BB5C0008495D0008F55B000864
:10C9800000000000000000000000000000000000A7
:10C990000000000000000000000000000000000097
:10C9A0000000000000000000000000000000000087
:10C9B0000000000000000000000000000000000077
:10C9C0000000000001610008895F0008D00000201D
:10C9D000000000009CC60008BCC600087CC6000819
:10C9E0000000000000000000000000000000000047
:10C9F0000000000000000000000000000000000037
:10CA00000000000000000000000000000000000026
:10CA10000000000000000000000000000000000016
:10CA20000000000000000000000000000000000006
:10CA300043000000000000000000000000000000B3
:10CA400000000000000000000000000000000000E6
:10CA50004300000000000000000000000000000093
:10CA600000000000000000000000000000000000C6
:10CA70004300000000000000000000000000000073
:10CA800000000000000000000000000000000000A6
:10CA90004300000000000000000000000000000053
:10CAA0000000000000000000000000000000000086
:10CAB0004300000000000000000000000000000033
:10CAC0000000000000000000000000000000000066
:10CAD0004300000000000000000000000000000013
:10CAE0000000000000000000000000000000000046
:10CAF00043000000000000000000000000000000F3
:10CB00000000000000000000000000000000000025
:10CB1000718A0008118A000800000000F7C70008A9
:10CB2000F5C70008E1C70008E1C70008E1C7000831
:10CB3000E1C70008E1C70008E1C70008E1C7000835
:10CB4000E1C70008E1C70008FFFFFFFFFFFFFFFF8D
:10CB5000FFFFFFFFFFFF0000010041534349490071
:10CB600000000000000000000000000000000000C5
:10CB7000000000000000000000004153434949004C
:10CB800000000000000000000000000000000000A5
:0CCB900000000000000000000000000099
:04000005080061315D
:00000001FF
