ARM GAS  C:\Users\LIGUOH~1\AppData\Local\Temp\ccgA945g.s 			page 1


   1              		.cpu cortex-m3
   2              		.eabi_attribute 20, 1
   3              		.eabi_attribute 21, 1
   4              		.eabi_attribute 23, 3
   5              		.eabi_attribute 24, 1
   6              		.eabi_attribute 25, 1
   7              		.eabi_attribute 26, 1
   8              		.eabi_attribute 30, 1
   9              		.eabi_attribute 34, 1
  10              		.eabi_attribute 18, 4
  11              		.file	"stm32f1xx_hal_pwr.c"
  12              		.text
  13              	.Ltext0:
  14              		.cfi_sections	.debug_frame
  15              		.section	.text.PWR_OverloadWfe,"ax",%progbits
  16              		.align	1
  17              		.arch armv7-m
  18              		.syntax unified
  19              		.thumb
  20              		.thumb_func
  21              		.fpu softvfp
  23              	PWR_OverloadWfe:
  24              	.LFB65:
  25              		.file 1 "Drivers/STM32F1xx_HAL_Driver/Src/stm32f1xx_hal_pwr.c"
   1:Drivers/STM32F1xx_HAL_Driver/Src/stm32f1xx_hal_pwr.c **** /**
   2:Drivers/STM32F1xx_HAL_Driver/Src/stm32f1xx_hal_pwr.c ****   ******************************************************************************
   3:Drivers/STM32F1xx_HAL_Driver/Src/stm32f1xx_hal_pwr.c ****   * @file    stm32f1xx_hal_pwr.c
   4:Drivers/STM32F1xx_HAL_Driver/Src/stm32f1xx_hal_pwr.c ****   * @author  MCD Application Team
   5:Drivers/STM32F1xx_HAL_Driver/Src/stm32f1xx_hal_pwr.c ****   * @brief   PWR HAL module driver.
   6:Drivers/STM32F1xx_HAL_Driver/Src/stm32f1xx_hal_pwr.c ****   *
   7:Drivers/STM32F1xx_HAL_Driver/Src/stm32f1xx_hal_pwr.c ****   *          This file provides firmware functions to manage the following
   8:Drivers/STM32F1xx_HAL_Driver/Src/stm32f1xx_hal_pwr.c ****   *          functionalities of the Power Controller (PWR) peripheral:
   9:Drivers/STM32F1xx_HAL_Driver/Src/stm32f1xx_hal_pwr.c ****   *           + Initialization/de-initialization functions
  10:Drivers/STM32F1xx_HAL_Driver/Src/stm32f1xx_hal_pwr.c ****   *           + Peripheral Control functions 
  11:Drivers/STM32F1xx_HAL_Driver/Src/stm32f1xx_hal_pwr.c ****   *
  12:Drivers/STM32F1xx_HAL_Driver/Src/stm32f1xx_hal_pwr.c ****   ******************************************************************************
  13:Drivers/STM32F1xx_HAL_Driver/Src/stm32f1xx_hal_pwr.c ****   * @attention
  14:Drivers/STM32F1xx_HAL_Driver/Src/stm32f1xx_hal_pwr.c ****   *
  15:Drivers/STM32F1xx_HAL_Driver/Src/stm32f1xx_hal_pwr.c ****   * <h2><center>&copy; Copyright (c) 2016 STMicroelectronics.
  16:Drivers/STM32F1xx_HAL_Driver/Src/stm32f1xx_hal_pwr.c ****   * All rights reserved.</center></h2>
  17:Drivers/STM32F1xx_HAL_Driver/Src/stm32f1xx_hal_pwr.c ****   *
  18:Drivers/STM32F1xx_HAL_Driver/Src/stm32f1xx_hal_pwr.c ****   * This software component is licensed by ST under BSD 3-Clause license,
  19:Drivers/STM32F1xx_HAL_Driver/Src/stm32f1xx_hal_pwr.c ****   * the "License"; You may not use this file except in compliance with the
  20:Drivers/STM32F1xx_HAL_Driver/Src/stm32f1xx_hal_pwr.c ****   * License. You may obtain a copy of the License at:
  21:Drivers/STM32F1xx_HAL_Driver/Src/stm32f1xx_hal_pwr.c ****   *                        opensource.org/licenses/BSD-3-Clause
  22:Drivers/STM32F1xx_HAL_Driver/Src/stm32f1xx_hal_pwr.c ****   *
  23:Drivers/STM32F1xx_HAL_Driver/Src/stm32f1xx_hal_pwr.c ****   ******************************************************************************
  24:Drivers/STM32F1xx_HAL_Driver/Src/stm32f1xx_hal_pwr.c ****   */
  25:Drivers/STM32F1xx_HAL_Driver/Src/stm32f1xx_hal_pwr.c **** 
  26:Drivers/STM32F1xx_HAL_Driver/Src/stm32f1xx_hal_pwr.c **** /* Includes ------------------------------------------------------------------*/
  27:Drivers/STM32F1xx_HAL_Driver/Src/stm32f1xx_hal_pwr.c **** #include "stm32f1xx_hal.h"
  28:Drivers/STM32F1xx_HAL_Driver/Src/stm32f1xx_hal_pwr.c **** 
  29:Drivers/STM32F1xx_HAL_Driver/Src/stm32f1xx_hal_pwr.c **** /** @addtogroup STM32F1xx_HAL_Driver
  30:Drivers/STM32F1xx_HAL_Driver/Src/stm32f1xx_hal_pwr.c ****   * @{
  31:Drivers/STM32F1xx_HAL_Driver/Src/stm32f1xx_hal_pwr.c ****   */
  32:Drivers/STM32F1xx_HAL_Driver/Src/stm32f1xx_hal_pwr.c **** 
  33:Drivers/STM32F1xx_HAL_Driver/Src/stm32f1xx_hal_pwr.c **** /** @defgroup PWR PWR
ARM GAS  C:\Users\LIGUOH~1\AppData\Local\Temp\ccgA945g.s 			page 2


  34:Drivers/STM32F1xx_HAL_Driver/Src/stm32f1xx_hal_pwr.c ****   * @brief    PWR HAL module driver
  35:Drivers/STM32F1xx_HAL_Driver/Src/stm32f1xx_hal_pwr.c ****   * @{
  36:Drivers/STM32F1xx_HAL_Driver/Src/stm32f1xx_hal_pwr.c ****   */
  37:Drivers/STM32F1xx_HAL_Driver/Src/stm32f1xx_hal_pwr.c **** 
  38:Drivers/STM32F1xx_HAL_Driver/Src/stm32f1xx_hal_pwr.c **** #ifdef HAL_PWR_MODULE_ENABLED
  39:Drivers/STM32F1xx_HAL_Driver/Src/stm32f1xx_hal_pwr.c **** 
  40:Drivers/STM32F1xx_HAL_Driver/Src/stm32f1xx_hal_pwr.c **** /* Private typedef -----------------------------------------------------------*/
  41:Drivers/STM32F1xx_HAL_Driver/Src/stm32f1xx_hal_pwr.c **** /* Private define ------------------------------------------------------------*/
  42:Drivers/STM32F1xx_HAL_Driver/Src/stm32f1xx_hal_pwr.c **** 
  43:Drivers/STM32F1xx_HAL_Driver/Src/stm32f1xx_hal_pwr.c **** /** @defgroup PWR_Private_Constants PWR Private Constants
  44:Drivers/STM32F1xx_HAL_Driver/Src/stm32f1xx_hal_pwr.c ****   * @{
  45:Drivers/STM32F1xx_HAL_Driver/Src/stm32f1xx_hal_pwr.c ****   */
  46:Drivers/STM32F1xx_HAL_Driver/Src/stm32f1xx_hal_pwr.c ****   
  47:Drivers/STM32F1xx_HAL_Driver/Src/stm32f1xx_hal_pwr.c **** /** @defgroup PWR_PVD_Mode_Mask PWR PVD Mode Mask
  48:Drivers/STM32F1xx_HAL_Driver/Src/stm32f1xx_hal_pwr.c ****   * @{
  49:Drivers/STM32F1xx_HAL_Driver/Src/stm32f1xx_hal_pwr.c ****   */ 
  50:Drivers/STM32F1xx_HAL_Driver/Src/stm32f1xx_hal_pwr.c **** #define PVD_MODE_IT               0x00010000U
  51:Drivers/STM32F1xx_HAL_Driver/Src/stm32f1xx_hal_pwr.c **** #define PVD_MODE_EVT              0x00020000U
  52:Drivers/STM32F1xx_HAL_Driver/Src/stm32f1xx_hal_pwr.c **** #define PVD_RISING_EDGE           0x00000001U
  53:Drivers/STM32F1xx_HAL_Driver/Src/stm32f1xx_hal_pwr.c **** #define PVD_FALLING_EDGE          0x00000002U
  54:Drivers/STM32F1xx_HAL_Driver/Src/stm32f1xx_hal_pwr.c **** /**
  55:Drivers/STM32F1xx_HAL_Driver/Src/stm32f1xx_hal_pwr.c ****   * @}
  56:Drivers/STM32F1xx_HAL_Driver/Src/stm32f1xx_hal_pwr.c ****   */
  57:Drivers/STM32F1xx_HAL_Driver/Src/stm32f1xx_hal_pwr.c **** 
  58:Drivers/STM32F1xx_HAL_Driver/Src/stm32f1xx_hal_pwr.c **** 
  59:Drivers/STM32F1xx_HAL_Driver/Src/stm32f1xx_hal_pwr.c **** /** @defgroup PWR_register_alias_address PWR Register alias address
  60:Drivers/STM32F1xx_HAL_Driver/Src/stm32f1xx_hal_pwr.c ****   * @{
  61:Drivers/STM32F1xx_HAL_Driver/Src/stm32f1xx_hal_pwr.c ****   */ 
  62:Drivers/STM32F1xx_HAL_Driver/Src/stm32f1xx_hal_pwr.c **** /* ------------- PWR registers bit address in the alias region ---------------*/
  63:Drivers/STM32F1xx_HAL_Driver/Src/stm32f1xx_hal_pwr.c **** #define PWR_OFFSET               (PWR_BASE - PERIPH_BASE)
  64:Drivers/STM32F1xx_HAL_Driver/Src/stm32f1xx_hal_pwr.c **** #define PWR_CR_OFFSET            0x00U
  65:Drivers/STM32F1xx_HAL_Driver/Src/stm32f1xx_hal_pwr.c **** #define PWR_CSR_OFFSET           0x04U
  66:Drivers/STM32F1xx_HAL_Driver/Src/stm32f1xx_hal_pwr.c **** #define PWR_CR_OFFSET_BB         (PWR_OFFSET + PWR_CR_OFFSET)
  67:Drivers/STM32F1xx_HAL_Driver/Src/stm32f1xx_hal_pwr.c **** #define PWR_CSR_OFFSET_BB        (PWR_OFFSET + PWR_CSR_OFFSET)
  68:Drivers/STM32F1xx_HAL_Driver/Src/stm32f1xx_hal_pwr.c **** /**
  69:Drivers/STM32F1xx_HAL_Driver/Src/stm32f1xx_hal_pwr.c ****   * @}
  70:Drivers/STM32F1xx_HAL_Driver/Src/stm32f1xx_hal_pwr.c ****   */
  71:Drivers/STM32F1xx_HAL_Driver/Src/stm32f1xx_hal_pwr.c ****    
  72:Drivers/STM32F1xx_HAL_Driver/Src/stm32f1xx_hal_pwr.c **** /** @defgroup PWR_CR_register_alias PWR CR Register alias address
  73:Drivers/STM32F1xx_HAL_Driver/Src/stm32f1xx_hal_pwr.c ****   * @{
  74:Drivers/STM32F1xx_HAL_Driver/Src/stm32f1xx_hal_pwr.c ****   */  
  75:Drivers/STM32F1xx_HAL_Driver/Src/stm32f1xx_hal_pwr.c **** /* --- CR Register ---*/
  76:Drivers/STM32F1xx_HAL_Driver/Src/stm32f1xx_hal_pwr.c **** /* Alias word address of LPSDSR bit */
  77:Drivers/STM32F1xx_HAL_Driver/Src/stm32f1xx_hal_pwr.c **** #define LPSDSR_BIT_NUMBER        PWR_CR_LPDS_Pos
  78:Drivers/STM32F1xx_HAL_Driver/Src/stm32f1xx_hal_pwr.c **** #define CR_LPSDSR_BB             ((uint32_t)(PERIPH_BB_BASE + (PWR_CR_OFFSET_BB * 32U) + (LPSDSR_BI
  79:Drivers/STM32F1xx_HAL_Driver/Src/stm32f1xx_hal_pwr.c **** 
  80:Drivers/STM32F1xx_HAL_Driver/Src/stm32f1xx_hal_pwr.c **** /* Alias word address of DBP bit */
  81:Drivers/STM32F1xx_HAL_Driver/Src/stm32f1xx_hal_pwr.c **** #define DBP_BIT_NUMBER            PWR_CR_DBP_Pos
  82:Drivers/STM32F1xx_HAL_Driver/Src/stm32f1xx_hal_pwr.c **** #define CR_DBP_BB                ((uint32_t)(PERIPH_BB_BASE + (PWR_CR_OFFSET_BB * 32U) + (DBP_BIT_N
  83:Drivers/STM32F1xx_HAL_Driver/Src/stm32f1xx_hal_pwr.c **** 
  84:Drivers/STM32F1xx_HAL_Driver/Src/stm32f1xx_hal_pwr.c **** /* Alias word address of PVDE bit */
  85:Drivers/STM32F1xx_HAL_Driver/Src/stm32f1xx_hal_pwr.c **** #define PVDE_BIT_NUMBER           PWR_CR_PVDE_Pos
  86:Drivers/STM32F1xx_HAL_Driver/Src/stm32f1xx_hal_pwr.c **** #define CR_PVDE_BB               ((uint32_t)(PERIPH_BB_BASE + (PWR_CR_OFFSET_BB * 32U) + (PVDE_BIT_
  87:Drivers/STM32F1xx_HAL_Driver/Src/stm32f1xx_hal_pwr.c **** 
  88:Drivers/STM32F1xx_HAL_Driver/Src/stm32f1xx_hal_pwr.c **** /**
  89:Drivers/STM32F1xx_HAL_Driver/Src/stm32f1xx_hal_pwr.c ****   * @}
  90:Drivers/STM32F1xx_HAL_Driver/Src/stm32f1xx_hal_pwr.c ****   */
ARM GAS  C:\Users\LIGUOH~1\AppData\Local\Temp\ccgA945g.s 			page 3


  91:Drivers/STM32F1xx_HAL_Driver/Src/stm32f1xx_hal_pwr.c **** 
  92:Drivers/STM32F1xx_HAL_Driver/Src/stm32f1xx_hal_pwr.c **** /** @defgroup PWR_CSR_register_alias PWR CSR Register alias address
  93:Drivers/STM32F1xx_HAL_Driver/Src/stm32f1xx_hal_pwr.c ****   * @{
  94:Drivers/STM32F1xx_HAL_Driver/Src/stm32f1xx_hal_pwr.c ****   */
  95:Drivers/STM32F1xx_HAL_Driver/Src/stm32f1xx_hal_pwr.c **** 
  96:Drivers/STM32F1xx_HAL_Driver/Src/stm32f1xx_hal_pwr.c **** /* --- CSR Register ---*/
  97:Drivers/STM32F1xx_HAL_Driver/Src/stm32f1xx_hal_pwr.c **** /* Alias word address of EWUP1 bit */
  98:Drivers/STM32F1xx_HAL_Driver/Src/stm32f1xx_hal_pwr.c **** #define CSR_EWUP_BB(VAL)         ((uint32_t)(PERIPH_BB_BASE + (PWR_CSR_OFFSET_BB * 32U) + (POSITION
  99:Drivers/STM32F1xx_HAL_Driver/Src/stm32f1xx_hal_pwr.c **** /**
 100:Drivers/STM32F1xx_HAL_Driver/Src/stm32f1xx_hal_pwr.c ****   * @}
 101:Drivers/STM32F1xx_HAL_Driver/Src/stm32f1xx_hal_pwr.c ****   */
 102:Drivers/STM32F1xx_HAL_Driver/Src/stm32f1xx_hal_pwr.c ****   
 103:Drivers/STM32F1xx_HAL_Driver/Src/stm32f1xx_hal_pwr.c **** /**
 104:Drivers/STM32F1xx_HAL_Driver/Src/stm32f1xx_hal_pwr.c ****   * @}
 105:Drivers/STM32F1xx_HAL_Driver/Src/stm32f1xx_hal_pwr.c ****   */
 106:Drivers/STM32F1xx_HAL_Driver/Src/stm32f1xx_hal_pwr.c **** 
 107:Drivers/STM32F1xx_HAL_Driver/Src/stm32f1xx_hal_pwr.c **** /* Private variables ---------------------------------------------------------*/
 108:Drivers/STM32F1xx_HAL_Driver/Src/stm32f1xx_hal_pwr.c **** /* Private function prototypes -----------------------------------------------*/
 109:Drivers/STM32F1xx_HAL_Driver/Src/stm32f1xx_hal_pwr.c **** /** @defgroup PWR_Private_Functions PWR Private Functions
 110:Drivers/STM32F1xx_HAL_Driver/Src/stm32f1xx_hal_pwr.c ****  * brief   WFE cortex command overloaded for HAL_PWR_EnterSTOPMode usage only (see Workaround secti
 111:Drivers/STM32F1xx_HAL_Driver/Src/stm32f1xx_hal_pwr.c ****  * @{
 112:Drivers/STM32F1xx_HAL_Driver/Src/stm32f1xx_hal_pwr.c ****  */
 113:Drivers/STM32F1xx_HAL_Driver/Src/stm32f1xx_hal_pwr.c **** static void PWR_OverloadWfe(void);
 114:Drivers/STM32F1xx_HAL_Driver/Src/stm32f1xx_hal_pwr.c **** 
 115:Drivers/STM32F1xx_HAL_Driver/Src/stm32f1xx_hal_pwr.c **** /* Private functions ---------------------------------------------------------*/
 116:Drivers/STM32F1xx_HAL_Driver/Src/stm32f1xx_hal_pwr.c **** __NOINLINE
 117:Drivers/STM32F1xx_HAL_Driver/Src/stm32f1xx_hal_pwr.c **** static void PWR_OverloadWfe(void)
 118:Drivers/STM32F1xx_HAL_Driver/Src/stm32f1xx_hal_pwr.c **** {
  26              		.loc 1 118 1 view -0
  27              		.cfi_startproc
  28              		@ args = 0, pretend = 0, frame = 0
  29              		@ frame_needed = 0, uses_anonymous_args = 0
  30              		@ link register save eliminated.
 119:Drivers/STM32F1xx_HAL_Driver/Src/stm32f1xx_hal_pwr.c ****   __asm volatile( "wfe" );
  31              		.loc 1 119 3 view .LVU1
  32              		.syntax unified
  33              	@ 119 "Drivers/STM32F1xx_HAL_Driver/Src/stm32f1xx_hal_pwr.c" 1
  34 0000 20BF     		wfe
  35              	@ 0 "" 2
 120:Drivers/STM32F1xx_HAL_Driver/Src/stm32f1xx_hal_pwr.c ****   __asm volatile( "nop" );
  36              		.loc 1 120 3 view .LVU2
  37              	@ 120 "Drivers/STM32F1xx_HAL_Driver/Src/stm32f1xx_hal_pwr.c" 1
  38 0002 00BF     		nop
  39              	@ 0 "" 2
 121:Drivers/STM32F1xx_HAL_Driver/Src/stm32f1xx_hal_pwr.c **** }
  40              		.loc 1 121 1 is_stmt 0 view .LVU3
  41              		.thumb
  42              		.syntax unified
  43 0004 7047     		bx	lr
  44              		.cfi_endproc
  45              	.LFE65:
  47              		.section	.text.HAL_PWR_DeInit,"ax",%progbits
  48              		.align	1
  49              		.global	HAL_PWR_DeInit
  50              		.syntax unified
  51              		.thumb
  52              		.thumb_func
ARM GAS  C:\Users\LIGUOH~1\AppData\Local\Temp\ccgA945g.s 			page 4


  53              		.fpu softvfp
  55              	HAL_PWR_DeInit:
  56              	.LFB66:
 122:Drivers/STM32F1xx_HAL_Driver/Src/stm32f1xx_hal_pwr.c **** 
 123:Drivers/STM32F1xx_HAL_Driver/Src/stm32f1xx_hal_pwr.c **** /**
 124:Drivers/STM32F1xx_HAL_Driver/Src/stm32f1xx_hal_pwr.c ****   * @}
 125:Drivers/STM32F1xx_HAL_Driver/Src/stm32f1xx_hal_pwr.c ****   */
 126:Drivers/STM32F1xx_HAL_Driver/Src/stm32f1xx_hal_pwr.c **** 
 127:Drivers/STM32F1xx_HAL_Driver/Src/stm32f1xx_hal_pwr.c **** 
 128:Drivers/STM32F1xx_HAL_Driver/Src/stm32f1xx_hal_pwr.c **** /** @defgroup PWR_Exported_Functions PWR Exported Functions
 129:Drivers/STM32F1xx_HAL_Driver/Src/stm32f1xx_hal_pwr.c ****   * @{
 130:Drivers/STM32F1xx_HAL_Driver/Src/stm32f1xx_hal_pwr.c ****   */
 131:Drivers/STM32F1xx_HAL_Driver/Src/stm32f1xx_hal_pwr.c **** 
 132:Drivers/STM32F1xx_HAL_Driver/Src/stm32f1xx_hal_pwr.c **** /** @defgroup PWR_Exported_Functions_Group1 Initialization and de-initialization functions 
 133:Drivers/STM32F1xx_HAL_Driver/Src/stm32f1xx_hal_pwr.c ****   *  @brief   Initialization and de-initialization functions
 134:Drivers/STM32F1xx_HAL_Driver/Src/stm32f1xx_hal_pwr.c ****   *
 135:Drivers/STM32F1xx_HAL_Driver/Src/stm32f1xx_hal_pwr.c **** @verbatim
 136:Drivers/STM32F1xx_HAL_Driver/Src/stm32f1xx_hal_pwr.c ****  ===============================================================================
 137:Drivers/STM32F1xx_HAL_Driver/Src/stm32f1xx_hal_pwr.c ****               ##### Initialization and de-initialization functions #####
 138:Drivers/STM32F1xx_HAL_Driver/Src/stm32f1xx_hal_pwr.c ****  ===============================================================================
 139:Drivers/STM32F1xx_HAL_Driver/Src/stm32f1xx_hal_pwr.c ****     [..]
 140:Drivers/STM32F1xx_HAL_Driver/Src/stm32f1xx_hal_pwr.c ****       After reset, the backup domain (RTC registers, RTC backup data
 141:Drivers/STM32F1xx_HAL_Driver/Src/stm32f1xx_hal_pwr.c ****       registers) is protected against possible unwanted
 142:Drivers/STM32F1xx_HAL_Driver/Src/stm32f1xx_hal_pwr.c ****       write accesses.
 143:Drivers/STM32F1xx_HAL_Driver/Src/stm32f1xx_hal_pwr.c ****       To enable access to the RTC Domain and RTC registers, proceed as follows:
 144:Drivers/STM32F1xx_HAL_Driver/Src/stm32f1xx_hal_pwr.c ****         (+) Enable the Power Controller (PWR) APB1 interface clock using the
 145:Drivers/STM32F1xx_HAL_Driver/Src/stm32f1xx_hal_pwr.c ****             __HAL_RCC_PWR_CLK_ENABLE() macro.
 146:Drivers/STM32F1xx_HAL_Driver/Src/stm32f1xx_hal_pwr.c ****         (+) Enable access to RTC domain using the HAL_PWR_EnableBkUpAccess() function.
 147:Drivers/STM32F1xx_HAL_Driver/Src/stm32f1xx_hal_pwr.c **** 
 148:Drivers/STM32F1xx_HAL_Driver/Src/stm32f1xx_hal_pwr.c **** @endverbatim
 149:Drivers/STM32F1xx_HAL_Driver/Src/stm32f1xx_hal_pwr.c ****   * @{
 150:Drivers/STM32F1xx_HAL_Driver/Src/stm32f1xx_hal_pwr.c ****   */
 151:Drivers/STM32F1xx_HAL_Driver/Src/stm32f1xx_hal_pwr.c **** 
 152:Drivers/STM32F1xx_HAL_Driver/Src/stm32f1xx_hal_pwr.c **** /**
 153:Drivers/STM32F1xx_HAL_Driver/Src/stm32f1xx_hal_pwr.c ****   * @brief  Deinitializes the PWR peripheral registers to their default reset values.  
 154:Drivers/STM32F1xx_HAL_Driver/Src/stm32f1xx_hal_pwr.c ****   * @retval None
 155:Drivers/STM32F1xx_HAL_Driver/Src/stm32f1xx_hal_pwr.c ****   */
 156:Drivers/STM32F1xx_HAL_Driver/Src/stm32f1xx_hal_pwr.c **** void HAL_PWR_DeInit(void)
 157:Drivers/STM32F1xx_HAL_Driver/Src/stm32f1xx_hal_pwr.c **** {
  57              		.loc 1 157 1 is_stmt 1 view -0
  58              		.cfi_startproc
  59              		@ args = 0, pretend = 0, frame = 0
  60              		@ frame_needed = 0, uses_anonymous_args = 0
  61              		@ link register save eliminated.
 158:Drivers/STM32F1xx_HAL_Driver/Src/stm32f1xx_hal_pwr.c ****   __HAL_RCC_PWR_FORCE_RESET();
  62              		.loc 1 158 3 view .LVU5
  63 0000 044B     		ldr	r3, .L3
  64 0002 1A69     		ldr	r2, [r3, #16]
  65 0004 42F08052 		orr	r2, r2, #268435456
  66 0008 1A61     		str	r2, [r3, #16]
 159:Drivers/STM32F1xx_HAL_Driver/Src/stm32f1xx_hal_pwr.c ****   __HAL_RCC_PWR_RELEASE_RESET();
  67              		.loc 1 159 3 view .LVU6
  68 000a 1A69     		ldr	r2, [r3, #16]
  69 000c 22F08052 		bic	r2, r2, #268435456
  70 0010 1A61     		str	r2, [r3, #16]
 160:Drivers/STM32F1xx_HAL_Driver/Src/stm32f1xx_hal_pwr.c **** }
  71              		.loc 1 160 1 is_stmt 0 view .LVU7
ARM GAS  C:\Users\LIGUOH~1\AppData\Local\Temp\ccgA945g.s 			page 5


  72 0012 7047     		bx	lr
  73              	.L4:
  74              		.align	2
  75              	.L3:
  76 0014 00100240 		.word	1073876992
  77              		.cfi_endproc
  78              	.LFE66:
  80              		.section	.text.HAL_PWR_EnableBkUpAccess,"ax",%progbits
  81              		.align	1
  82              		.global	HAL_PWR_EnableBkUpAccess
  83              		.syntax unified
  84              		.thumb
  85              		.thumb_func
  86              		.fpu softvfp
  88              	HAL_PWR_EnableBkUpAccess:
  89              	.LFB67:
 161:Drivers/STM32F1xx_HAL_Driver/Src/stm32f1xx_hal_pwr.c **** 
 162:Drivers/STM32F1xx_HAL_Driver/Src/stm32f1xx_hal_pwr.c **** /**
 163:Drivers/STM32F1xx_HAL_Driver/Src/stm32f1xx_hal_pwr.c ****   * @brief  Enables access to the backup domain (RTC registers, RTC
 164:Drivers/STM32F1xx_HAL_Driver/Src/stm32f1xx_hal_pwr.c ****   *         backup data registers ).
 165:Drivers/STM32F1xx_HAL_Driver/Src/stm32f1xx_hal_pwr.c ****   * @note   If the HSE divided by 128 is used as the RTC clock, the
 166:Drivers/STM32F1xx_HAL_Driver/Src/stm32f1xx_hal_pwr.c ****   *         Backup Domain Access should be kept enabled.
 167:Drivers/STM32F1xx_HAL_Driver/Src/stm32f1xx_hal_pwr.c ****   * @retval None
 168:Drivers/STM32F1xx_HAL_Driver/Src/stm32f1xx_hal_pwr.c ****   */
 169:Drivers/STM32F1xx_HAL_Driver/Src/stm32f1xx_hal_pwr.c **** void HAL_PWR_EnableBkUpAccess(void)
 170:Drivers/STM32F1xx_HAL_Driver/Src/stm32f1xx_hal_pwr.c **** {
  90              		.loc 1 170 1 is_stmt 1 view -0
  91              		.cfi_startproc
  92              		@ args = 0, pretend = 0, frame = 0
  93              		@ frame_needed = 0, uses_anonymous_args = 0
  94              		@ link register save eliminated.
 171:Drivers/STM32F1xx_HAL_Driver/Src/stm32f1xx_hal_pwr.c ****   /* Enable access to RTC and backup registers */
 172:Drivers/STM32F1xx_HAL_Driver/Src/stm32f1xx_hal_pwr.c ****   *(__IO uint32_t *) CR_DBP_BB = (uint32_t)ENABLE;
  95              		.loc 1 172 3 view .LVU9
  96              		.loc 1 172 32 is_stmt 0 view .LVU10
  97 0000 014B     		ldr	r3, .L6
  98 0002 0122     		movs	r2, #1
  99 0004 1A60     		str	r2, [r3]
 173:Drivers/STM32F1xx_HAL_Driver/Src/stm32f1xx_hal_pwr.c **** }
 100              		.loc 1 173 1 view .LVU11
 101 0006 7047     		bx	lr
 102              	.L7:
 103              		.align	2
 104              	.L6:
 105 0008 20000E42 		.word	1108213792
 106              		.cfi_endproc
 107              	.LFE67:
 109              		.section	.text.HAL_PWR_DisableBkUpAccess,"ax",%progbits
 110              		.align	1
 111              		.global	HAL_PWR_DisableBkUpAccess
 112              		.syntax unified
 113              		.thumb
 114              		.thumb_func
 115              		.fpu softvfp
 117              	HAL_PWR_DisableBkUpAccess:
 118              	.LFB68:
 174:Drivers/STM32F1xx_HAL_Driver/Src/stm32f1xx_hal_pwr.c **** 
ARM GAS  C:\Users\LIGUOH~1\AppData\Local\Temp\ccgA945g.s 			page 6


 175:Drivers/STM32F1xx_HAL_Driver/Src/stm32f1xx_hal_pwr.c **** /**
 176:Drivers/STM32F1xx_HAL_Driver/Src/stm32f1xx_hal_pwr.c ****   * @brief  Disables access to the backup domain (RTC registers, RTC
 177:Drivers/STM32F1xx_HAL_Driver/Src/stm32f1xx_hal_pwr.c ****   *         backup data registers).
 178:Drivers/STM32F1xx_HAL_Driver/Src/stm32f1xx_hal_pwr.c ****   * @note   If the HSE divided by 128 is used as the RTC clock, the
 179:Drivers/STM32F1xx_HAL_Driver/Src/stm32f1xx_hal_pwr.c ****   *         Backup Domain Access should be kept enabled.
 180:Drivers/STM32F1xx_HAL_Driver/Src/stm32f1xx_hal_pwr.c ****   * @retval None
 181:Drivers/STM32F1xx_HAL_Driver/Src/stm32f1xx_hal_pwr.c ****   */
 182:Drivers/STM32F1xx_HAL_Driver/Src/stm32f1xx_hal_pwr.c **** void HAL_PWR_DisableBkUpAccess(void)
 183:Drivers/STM32F1xx_HAL_Driver/Src/stm32f1xx_hal_pwr.c **** {
 119              		.loc 1 183 1 is_stmt 1 view -0
 120              		.cfi_startproc
 121              		@ args = 0, pretend = 0, frame = 0
 122              		@ frame_needed = 0, uses_anonymous_args = 0
 123              		@ link register save eliminated.
 184:Drivers/STM32F1xx_HAL_Driver/Src/stm32f1xx_hal_pwr.c ****   /* Disable access to RTC and backup registers */
 185:Drivers/STM32F1xx_HAL_Driver/Src/stm32f1xx_hal_pwr.c ****   *(__IO uint32_t *) CR_DBP_BB = (uint32_t)DISABLE;
 124              		.loc 1 185 3 view .LVU13
 125              		.loc 1 185 32 is_stmt 0 view .LVU14
 126 0000 014B     		ldr	r3, .L9
 127 0002 0022     		movs	r2, #0
 128 0004 1A60     		str	r2, [r3]
 186:Drivers/STM32F1xx_HAL_Driver/Src/stm32f1xx_hal_pwr.c **** }
 129              		.loc 1 186 1 view .LVU15
 130 0006 7047     		bx	lr
 131              	.L10:
 132              		.align	2
 133              	.L9:
 134 0008 20000E42 		.word	1108213792
 135              		.cfi_endproc
 136              	.LFE68:
 138              		.section	.rodata.HAL_PWR_ConfigPVD.str1.4,"aMS",%progbits,1
 139              		.align	2
 140              	.LC0:
 141 0000 44726976 		.ascii	"Drivers/STM32F1xx_HAL_Driver/Src/stm32f1xx_hal_pwr."
 141      6572732F 
 141      53544D33 
 141      32463178 
 141      785F4841 
 142 0033 6300     		.ascii	"c\000"
 143              		.section	.text.HAL_PWR_ConfigPVD,"ax",%progbits
 144              		.align	1
 145              		.global	HAL_PWR_ConfigPVD
 146              		.syntax unified
 147              		.thumb
 148              		.thumb_func
 149              		.fpu softvfp
 151              	HAL_PWR_ConfigPVD:
 152              	.LVL0:
 153              	.LFB69:
 187:Drivers/STM32F1xx_HAL_Driver/Src/stm32f1xx_hal_pwr.c **** 
 188:Drivers/STM32F1xx_HAL_Driver/Src/stm32f1xx_hal_pwr.c **** /**
 189:Drivers/STM32F1xx_HAL_Driver/Src/stm32f1xx_hal_pwr.c ****   * @}
 190:Drivers/STM32F1xx_HAL_Driver/Src/stm32f1xx_hal_pwr.c ****   */
 191:Drivers/STM32F1xx_HAL_Driver/Src/stm32f1xx_hal_pwr.c **** 
 192:Drivers/STM32F1xx_HAL_Driver/Src/stm32f1xx_hal_pwr.c **** /** @defgroup PWR_Exported_Functions_Group2 Peripheral Control functions 
 193:Drivers/STM32F1xx_HAL_Driver/Src/stm32f1xx_hal_pwr.c ****   * @brief    Low Power modes configuration functions
 194:Drivers/STM32F1xx_HAL_Driver/Src/stm32f1xx_hal_pwr.c ****   *
ARM GAS  C:\Users\LIGUOH~1\AppData\Local\Temp\ccgA945g.s 			page 7


 195:Drivers/STM32F1xx_HAL_Driver/Src/stm32f1xx_hal_pwr.c **** @verbatim
 196:Drivers/STM32F1xx_HAL_Driver/Src/stm32f1xx_hal_pwr.c ****  ===============================================================================
 197:Drivers/STM32F1xx_HAL_Driver/Src/stm32f1xx_hal_pwr.c ****                  ##### Peripheral Control functions #####
 198:Drivers/STM32F1xx_HAL_Driver/Src/stm32f1xx_hal_pwr.c ****  ===============================================================================
 199:Drivers/STM32F1xx_HAL_Driver/Src/stm32f1xx_hal_pwr.c ****      
 200:Drivers/STM32F1xx_HAL_Driver/Src/stm32f1xx_hal_pwr.c ****     *** PVD configuration ***
 201:Drivers/STM32F1xx_HAL_Driver/Src/stm32f1xx_hal_pwr.c ****     =========================
 202:Drivers/STM32F1xx_HAL_Driver/Src/stm32f1xx_hal_pwr.c ****     [..]
 203:Drivers/STM32F1xx_HAL_Driver/Src/stm32f1xx_hal_pwr.c ****       (+) The PVD is used to monitor the VDD power supply by comparing it to a
 204:Drivers/STM32F1xx_HAL_Driver/Src/stm32f1xx_hal_pwr.c ****           threshold selected by the PVD Level (PLS[2:0] bits in the PWR_CR).
 205:Drivers/STM32F1xx_HAL_Driver/Src/stm32f1xx_hal_pwr.c **** 
 206:Drivers/STM32F1xx_HAL_Driver/Src/stm32f1xx_hal_pwr.c ****       (+) A PVDO flag is available to indicate if VDD/VDDA is higher or lower
 207:Drivers/STM32F1xx_HAL_Driver/Src/stm32f1xx_hal_pwr.c ****           than the PVD threshold. This event is internally connected to the EXTI
 208:Drivers/STM32F1xx_HAL_Driver/Src/stm32f1xx_hal_pwr.c ****           line16 and can generate an interrupt if enabled. This is done through
 209:Drivers/STM32F1xx_HAL_Driver/Src/stm32f1xx_hal_pwr.c ****           __HAL_PVD_EXTI_ENABLE_IT() macro.
 210:Drivers/STM32F1xx_HAL_Driver/Src/stm32f1xx_hal_pwr.c ****       (+) The PVD is stopped in Standby mode.
 211:Drivers/STM32F1xx_HAL_Driver/Src/stm32f1xx_hal_pwr.c **** 
 212:Drivers/STM32F1xx_HAL_Driver/Src/stm32f1xx_hal_pwr.c ****     *** WakeUp pin configuration ***
 213:Drivers/STM32F1xx_HAL_Driver/Src/stm32f1xx_hal_pwr.c ****     ================================
 214:Drivers/STM32F1xx_HAL_Driver/Src/stm32f1xx_hal_pwr.c ****     [..]
 215:Drivers/STM32F1xx_HAL_Driver/Src/stm32f1xx_hal_pwr.c ****       (+) WakeUp pin is used to wake up the system from Standby mode. This pin is
 216:Drivers/STM32F1xx_HAL_Driver/Src/stm32f1xx_hal_pwr.c ****           forced in input pull-down configuration and is active on rising edges.
 217:Drivers/STM32F1xx_HAL_Driver/Src/stm32f1xx_hal_pwr.c ****       (+) There is one WakeUp pin:
 218:Drivers/STM32F1xx_HAL_Driver/Src/stm32f1xx_hal_pwr.c ****           WakeUp Pin 1 on PA.00.
 219:Drivers/STM32F1xx_HAL_Driver/Src/stm32f1xx_hal_pwr.c **** 
 220:Drivers/STM32F1xx_HAL_Driver/Src/stm32f1xx_hal_pwr.c ****     [..]
 221:Drivers/STM32F1xx_HAL_Driver/Src/stm32f1xx_hal_pwr.c **** 
 222:Drivers/STM32F1xx_HAL_Driver/Src/stm32f1xx_hal_pwr.c ****     *** Low Power modes configuration ***
 223:Drivers/STM32F1xx_HAL_Driver/Src/stm32f1xx_hal_pwr.c ****     =====================================
 224:Drivers/STM32F1xx_HAL_Driver/Src/stm32f1xx_hal_pwr.c ****      [..]
 225:Drivers/STM32F1xx_HAL_Driver/Src/stm32f1xx_hal_pwr.c ****       The device features 3 low-power modes:
 226:Drivers/STM32F1xx_HAL_Driver/Src/stm32f1xx_hal_pwr.c ****       (+) Sleep mode: CPU clock off, all peripherals including Cortex-M3 core peripherals like 
 227:Drivers/STM32F1xx_HAL_Driver/Src/stm32f1xx_hal_pwr.c ****                       NVIC, SysTick, etc. are kept running
 228:Drivers/STM32F1xx_HAL_Driver/Src/stm32f1xx_hal_pwr.c ****       (+) Stop mode: All clocks are stopped
 229:Drivers/STM32F1xx_HAL_Driver/Src/stm32f1xx_hal_pwr.c ****       (+) Standby mode: 1.8V domain powered off
 230:Drivers/STM32F1xx_HAL_Driver/Src/stm32f1xx_hal_pwr.c ****   
 231:Drivers/STM32F1xx_HAL_Driver/Src/stm32f1xx_hal_pwr.c ****   
 232:Drivers/STM32F1xx_HAL_Driver/Src/stm32f1xx_hal_pwr.c ****    *** Sleep mode ***
 233:Drivers/STM32F1xx_HAL_Driver/Src/stm32f1xx_hal_pwr.c ****    ==================
 234:Drivers/STM32F1xx_HAL_Driver/Src/stm32f1xx_hal_pwr.c ****     [..]
 235:Drivers/STM32F1xx_HAL_Driver/Src/stm32f1xx_hal_pwr.c ****       (+) Entry:
 236:Drivers/STM32F1xx_HAL_Driver/Src/stm32f1xx_hal_pwr.c ****           The Sleep mode is entered by using the HAL_PWR_EnterSLEEPMode(PWR_MAINREGULATOR_ON, PWR_S
 237:Drivers/STM32F1xx_HAL_Driver/Src/stm32f1xx_hal_pwr.c ****               functions with
 238:Drivers/STM32F1xx_HAL_Driver/Src/stm32f1xx_hal_pwr.c ****           (++) PWR_SLEEPENTRY_WFI: enter SLEEP mode with WFI instruction
 239:Drivers/STM32F1xx_HAL_Driver/Src/stm32f1xx_hal_pwr.c ****           (++) PWR_SLEEPENTRY_WFE: enter SLEEP mode with WFE instruction
 240:Drivers/STM32F1xx_HAL_Driver/Src/stm32f1xx_hal_pwr.c ****      
 241:Drivers/STM32F1xx_HAL_Driver/Src/stm32f1xx_hal_pwr.c ****       (+) Exit:
 242:Drivers/STM32F1xx_HAL_Driver/Src/stm32f1xx_hal_pwr.c ****         (++) WFI entry mode, Any peripheral interrupt acknowledged by the nested vectored interrupt
 243:Drivers/STM32F1xx_HAL_Driver/Src/stm32f1xx_hal_pwr.c ****              controller (NVIC) can wake up the device from Sleep mode.
 244:Drivers/STM32F1xx_HAL_Driver/Src/stm32f1xx_hal_pwr.c ****         (++) WFE entry mode, Any wakeup event can wake up the device from Sleep mode.
 245:Drivers/STM32F1xx_HAL_Driver/Src/stm32f1xx_hal_pwr.c ****            (+++) Any peripheral interrupt w/o NVIC configuration & SEVONPEND bit set in the Cortex 
 246:Drivers/STM32F1xx_HAL_Driver/Src/stm32f1xx_hal_pwr.c ****            (+++) Any EXTI Line (Internal or External) configured in Event mode
 247:Drivers/STM32F1xx_HAL_Driver/Src/stm32f1xx_hal_pwr.c **** 
 248:Drivers/STM32F1xx_HAL_Driver/Src/stm32f1xx_hal_pwr.c ****    *** Stop mode ***
 249:Drivers/STM32F1xx_HAL_Driver/Src/stm32f1xx_hal_pwr.c ****    =================
 250:Drivers/STM32F1xx_HAL_Driver/Src/stm32f1xx_hal_pwr.c ****     [..]
 251:Drivers/STM32F1xx_HAL_Driver/Src/stm32f1xx_hal_pwr.c ****       The Stop mode is based on the Cortex-M3 deepsleep mode combined with peripheral
ARM GAS  C:\Users\LIGUOH~1\AppData\Local\Temp\ccgA945g.s 			page 8


 252:Drivers/STM32F1xx_HAL_Driver/Src/stm32f1xx_hal_pwr.c ****       clock gating. The voltage regulator can be configured either in normal or low-power mode.
 253:Drivers/STM32F1xx_HAL_Driver/Src/stm32f1xx_hal_pwr.c ****       In Stop mode, all clocks in the 1.8 V domain are stopped, the PLL, the HSI and the HSE RC 
 254:Drivers/STM32F1xx_HAL_Driver/Src/stm32f1xx_hal_pwr.c ****       oscillators are disabled. SRAM and register contents are preserved.
 255:Drivers/STM32F1xx_HAL_Driver/Src/stm32f1xx_hal_pwr.c ****       In Stop mode, all I/O pins keep the same state as in Run mode.
 256:Drivers/STM32F1xx_HAL_Driver/Src/stm32f1xx_hal_pwr.c **** 
 257:Drivers/STM32F1xx_HAL_Driver/Src/stm32f1xx_hal_pwr.c ****       (+) Entry:
 258:Drivers/STM32F1xx_HAL_Driver/Src/stm32f1xx_hal_pwr.c ****            The Stop mode is entered using the HAL_PWR_EnterSTOPMode(PWR_REGULATOR_VALUE, PWR_SLEEPE
 259:Drivers/STM32F1xx_HAL_Driver/Src/stm32f1xx_hal_pwr.c ****              function with:
 260:Drivers/STM32F1xx_HAL_Driver/Src/stm32f1xx_hal_pwr.c ****           (++) PWR_REGULATOR_VALUE= PWR_MAINREGULATOR_ON: Main regulator ON.
 261:Drivers/STM32F1xx_HAL_Driver/Src/stm32f1xx_hal_pwr.c ****           (++) PWR_REGULATOR_VALUE= PWR_LOWPOWERREGULATOR_ON: Low Power regulator ON.
 262:Drivers/STM32F1xx_HAL_Driver/Src/stm32f1xx_hal_pwr.c ****           (++) PWR_SLEEPENTRY_WFx= PWR_SLEEPENTRY_WFI: enter STOP mode with WFI instruction
 263:Drivers/STM32F1xx_HAL_Driver/Src/stm32f1xx_hal_pwr.c ****           (++) PWR_SLEEPENTRY_WFx= PWR_SLEEPENTRY_WFE: enter STOP mode with WFE instruction
 264:Drivers/STM32F1xx_HAL_Driver/Src/stm32f1xx_hal_pwr.c ****       (+) Exit:
 265:Drivers/STM32F1xx_HAL_Driver/Src/stm32f1xx_hal_pwr.c ****           (++) WFI entry mode, Any EXTI Line (Internal or External) configured in Interrupt mode wi
 266:Drivers/STM32F1xx_HAL_Driver/Src/stm32f1xx_hal_pwr.c ****           (++) WFE entry mode, Any EXTI Line (Internal or External) configured in Event mode.
 267:Drivers/STM32F1xx_HAL_Driver/Src/stm32f1xx_hal_pwr.c **** 
 268:Drivers/STM32F1xx_HAL_Driver/Src/stm32f1xx_hal_pwr.c ****    *** Standby mode ***
 269:Drivers/STM32F1xx_HAL_Driver/Src/stm32f1xx_hal_pwr.c ****    ====================
 270:Drivers/STM32F1xx_HAL_Driver/Src/stm32f1xx_hal_pwr.c ****      [..]
 271:Drivers/STM32F1xx_HAL_Driver/Src/stm32f1xx_hal_pwr.c ****       The Standby mode allows to achieve the lowest power consumption. It is based on the
 272:Drivers/STM32F1xx_HAL_Driver/Src/stm32f1xx_hal_pwr.c ****       Cortex-M3 deepsleep mode, with the voltage regulator disabled. The 1.8 V domain is 
 273:Drivers/STM32F1xx_HAL_Driver/Src/stm32f1xx_hal_pwr.c ****       consequently powered off. The PLL, the HSI oscillator and the HSE oscillator are also 
 274:Drivers/STM32F1xx_HAL_Driver/Src/stm32f1xx_hal_pwr.c ****       switched off. SRAM and register contents are lost except for registers in the Backup domain 
 275:Drivers/STM32F1xx_HAL_Driver/Src/stm32f1xx_hal_pwr.c ****       and Standby circuitry
 276:Drivers/STM32F1xx_HAL_Driver/Src/stm32f1xx_hal_pwr.c ****       
 277:Drivers/STM32F1xx_HAL_Driver/Src/stm32f1xx_hal_pwr.c ****       (+) Entry:
 278:Drivers/STM32F1xx_HAL_Driver/Src/stm32f1xx_hal_pwr.c ****         (++) The Standby mode is entered using the HAL_PWR_EnterSTANDBYMode() function.
 279:Drivers/STM32F1xx_HAL_Driver/Src/stm32f1xx_hal_pwr.c ****       (+) Exit:
 280:Drivers/STM32F1xx_HAL_Driver/Src/stm32f1xx_hal_pwr.c ****         (++) WKUP pin rising edge, RTC alarm event rising edge, external Reset in 
 281:Drivers/STM32F1xx_HAL_Driver/Src/stm32f1xx_hal_pwr.c ****              NRSTpin, IWDG Reset
 282:Drivers/STM32F1xx_HAL_Driver/Src/stm32f1xx_hal_pwr.c **** 
 283:Drivers/STM32F1xx_HAL_Driver/Src/stm32f1xx_hal_pwr.c ****    *** Auto-wakeup (AWU) from low-power mode ***
 284:Drivers/STM32F1xx_HAL_Driver/Src/stm32f1xx_hal_pwr.c ****        =============================================
 285:Drivers/STM32F1xx_HAL_Driver/Src/stm32f1xx_hal_pwr.c ****        [..]
 286:Drivers/STM32F1xx_HAL_Driver/Src/stm32f1xx_hal_pwr.c ****         
 287:Drivers/STM32F1xx_HAL_Driver/Src/stm32f1xx_hal_pwr.c ****        (+) The MCU can be woken up from low-power mode by an RTC Alarm event, 
 288:Drivers/STM32F1xx_HAL_Driver/Src/stm32f1xx_hal_pwr.c ****            without depending on an external interrupt (Auto-wakeup mode).
 289:Drivers/STM32F1xx_HAL_Driver/Src/stm32f1xx_hal_pwr.c ****    
 290:Drivers/STM32F1xx_HAL_Driver/Src/stm32f1xx_hal_pwr.c ****        (+) RTC auto-wakeup (AWU) from the Stop and Standby modes
 291:Drivers/STM32F1xx_HAL_Driver/Src/stm32f1xx_hal_pwr.c **** 
 292:Drivers/STM32F1xx_HAL_Driver/Src/stm32f1xx_hal_pwr.c ****            (++) To wake up from the Stop mode with an RTC alarm event, it is necessary to 
 293:Drivers/STM32F1xx_HAL_Driver/Src/stm32f1xx_hal_pwr.c ****                 configure the RTC to generate the RTC alarm using the HAL_RTC_SetAlarm_IT() functio
 294:Drivers/STM32F1xx_HAL_Driver/Src/stm32f1xx_hal_pwr.c **** 
 295:Drivers/STM32F1xx_HAL_Driver/Src/stm32f1xx_hal_pwr.c ****    *** PWR Workarounds linked to Silicon Limitation ***
 296:Drivers/STM32F1xx_HAL_Driver/Src/stm32f1xx_hal_pwr.c ****        ====================================================
 297:Drivers/STM32F1xx_HAL_Driver/Src/stm32f1xx_hal_pwr.c ****        [..]
 298:Drivers/STM32F1xx_HAL_Driver/Src/stm32f1xx_hal_pwr.c ****        Below the list of all silicon limitations known on STM32F1xx prouct.
 299:Drivers/STM32F1xx_HAL_Driver/Src/stm32f1xx_hal_pwr.c **** 
 300:Drivers/STM32F1xx_HAL_Driver/Src/stm32f1xx_hal_pwr.c ****        (#)Workarounds Implemented inside PWR HAL Driver
 301:Drivers/STM32F1xx_HAL_Driver/Src/stm32f1xx_hal_pwr.c ****           (##)Debugging Stop mode with WFE entry - overloaded the WFE by an internal function    
 302:Drivers/STM32F1xx_HAL_Driver/Src/stm32f1xx_hal_pwr.c ****         
 303:Drivers/STM32F1xx_HAL_Driver/Src/stm32f1xx_hal_pwr.c **** @endverbatim
 304:Drivers/STM32F1xx_HAL_Driver/Src/stm32f1xx_hal_pwr.c ****   * @{
 305:Drivers/STM32F1xx_HAL_Driver/Src/stm32f1xx_hal_pwr.c ****   */
 306:Drivers/STM32F1xx_HAL_Driver/Src/stm32f1xx_hal_pwr.c **** 
 307:Drivers/STM32F1xx_HAL_Driver/Src/stm32f1xx_hal_pwr.c **** /**
 308:Drivers/STM32F1xx_HAL_Driver/Src/stm32f1xx_hal_pwr.c ****   * @brief  Configures the voltage threshold detected by the Power Voltage Detector(PVD).
ARM GAS  C:\Users\LIGUOH~1\AppData\Local\Temp\ccgA945g.s 			page 9


 309:Drivers/STM32F1xx_HAL_Driver/Src/stm32f1xx_hal_pwr.c ****   * @param  sConfigPVD: pointer to an PWR_PVDTypeDef structure that contains the configuration
 310:Drivers/STM32F1xx_HAL_Driver/Src/stm32f1xx_hal_pwr.c ****   *         information for the PVD.
 311:Drivers/STM32F1xx_HAL_Driver/Src/stm32f1xx_hal_pwr.c ****   * @note   Refer to the electrical characteristics of your device datasheet for
 312:Drivers/STM32F1xx_HAL_Driver/Src/stm32f1xx_hal_pwr.c ****   *         more details about the voltage threshold corresponding to each
 313:Drivers/STM32F1xx_HAL_Driver/Src/stm32f1xx_hal_pwr.c ****   *         detection level.
 314:Drivers/STM32F1xx_HAL_Driver/Src/stm32f1xx_hal_pwr.c ****   * @retval None
 315:Drivers/STM32F1xx_HAL_Driver/Src/stm32f1xx_hal_pwr.c ****   */
 316:Drivers/STM32F1xx_HAL_Driver/Src/stm32f1xx_hal_pwr.c **** void HAL_PWR_ConfigPVD(PWR_PVDTypeDef *sConfigPVD)
 317:Drivers/STM32F1xx_HAL_Driver/Src/stm32f1xx_hal_pwr.c **** {
 154              		.loc 1 317 1 is_stmt 1 view -0
 155              		.cfi_startproc
 156              		@ args = 0, pretend = 0, frame = 0
 157              		@ frame_needed = 0, uses_anonymous_args = 0
 158              		.loc 1 317 1 is_stmt 0 view .LVU17
 159 0000 10B5     		push	{r4, lr}
 160              	.LCFI0:
 161              		.cfi_def_cfa_offset 8
 162              		.cfi_offset 4, -8
 163              		.cfi_offset 14, -4
 164 0002 0446     		mov	r4, r0
 318:Drivers/STM32F1xx_HAL_Driver/Src/stm32f1xx_hal_pwr.c ****   /* Check the parameters */
 319:Drivers/STM32F1xx_HAL_Driver/Src/stm32f1xx_hal_pwr.c ****   assert_param(IS_PWR_PVD_LEVEL(sConfigPVD->PVDLevel));
 165              		.loc 1 319 3 is_stmt 1 view .LVU18
 166 0004 0368     		ldr	r3, [r0]
 167 0006 6BB1     		cbz	r3, .L12
 168              		.loc 1 319 3 is_stmt 0 discriminator 1 view .LVU19
 169 0008 202B     		cmp	r3, #32
 170 000a 0BD0     		beq	.L12
 171              		.loc 1 319 3 discriminator 2 view .LVU20
 172 000c 402B     		cmp	r3, #64
 173 000e 09D0     		beq	.L12
 174              		.loc 1 319 3 discriminator 3 view .LVU21
 175 0010 602B     		cmp	r3, #96
 176 0012 07D0     		beq	.L12
 177              		.loc 1 319 3 discriminator 4 view .LVU22
 178 0014 802B     		cmp	r3, #128
 179 0016 05D0     		beq	.L12
 180              		.loc 1 319 3 discriminator 5 view .LVU23
 181 0018 A02B     		cmp	r3, #160
 182 001a 03D0     		beq	.L12
 183              		.loc 1 319 3 discriminator 6 view .LVU24
 184 001c C02B     		cmp	r3, #192
 185 001e 01D0     		beq	.L12
 186              		.loc 1 319 3 discriminator 7 view .LVU25
 187 0020 E02B     		cmp	r3, #224
 188 0022 4CD1     		bne	.L19
 189              	.LVL1:
 190              	.L12:
 320:Drivers/STM32F1xx_HAL_Driver/Src/stm32f1xx_hal_pwr.c ****   assert_param(IS_PWR_PVD_MODE(sConfigPVD->Mode));
 191              		.loc 1 320 3 is_stmt 1 view .LVU26
 192 0024 6368     		ldr	r3, [r4, #4]
 193 0026 A3F10112 		sub	r2, r3, #65537
 194 002a 022A     		cmp	r2, #2
 195 002c 0AD9     		bls	.L13
 196              		.loc 1 320 3 is_stmt 0 discriminator 1 view .LVU27
 197 002e 2A4A     		ldr	r2, .L21
 198 0030 9342     		cmp	r3, r2
ARM GAS  C:\Users\LIGUOH~1\AppData\Local\Temp\ccgA945g.s 			page 10


 199 0032 07D0     		beq	.L13
 200              		.loc 1 320 3 discriminator 2 view .LVU28
 201 0034 B3F1021F 		cmp	r3, #131074
 202 0038 04D0     		beq	.L13
 203              		.loc 1 320 3 discriminator 3 view .LVU29
 204 003a 0232     		adds	r2, r2, #2
 205 003c 9342     		cmp	r3, r2
 206 003e 01D0     		beq	.L13
 207              		.loc 1 320 3 discriminator 4 view .LVU30
 208 0040 002B     		cmp	r3, #0
 209 0042 42D1     		bne	.L20
 210              	.L13:
 321:Drivers/STM32F1xx_HAL_Driver/Src/stm32f1xx_hal_pwr.c **** 
 322:Drivers/STM32F1xx_HAL_Driver/Src/stm32f1xx_hal_pwr.c ****   /* Set PLS[7:5] bits according to PVDLevel value */
 323:Drivers/STM32F1xx_HAL_Driver/Src/stm32f1xx_hal_pwr.c ****   MODIFY_REG(PWR->CR, PWR_CR_PLS, sConfigPVD->PVDLevel);
 211              		.loc 1 323 3 is_stmt 1 view .LVU31
 212 0044 254A     		ldr	r2, .L21+4
 213 0046 1368     		ldr	r3, [r2]
 214 0048 23F0E003 		bic	r3, r3, #224
 215 004c 2168     		ldr	r1, [r4]
 216 004e 0B43     		orrs	r3, r3, r1
 217 0050 1360     		str	r3, [r2]
 324:Drivers/STM32F1xx_HAL_Driver/Src/stm32f1xx_hal_pwr.c ****   
 325:Drivers/STM32F1xx_HAL_Driver/Src/stm32f1xx_hal_pwr.c ****   /* Clear any previous config. Keep it clear if no event or IT mode is selected */
 326:Drivers/STM32F1xx_HAL_Driver/Src/stm32f1xx_hal_pwr.c ****   __HAL_PWR_PVD_EXTI_DISABLE_EVENT();
 218              		.loc 1 326 3 view .LVU32
 219 0052 234B     		ldr	r3, .L21+8
 220 0054 5A68     		ldr	r2, [r3, #4]
 221 0056 22F48032 		bic	r2, r2, #65536
 222 005a 5A60     		str	r2, [r3, #4]
 327:Drivers/STM32F1xx_HAL_Driver/Src/stm32f1xx_hal_pwr.c ****   __HAL_PWR_PVD_EXTI_DISABLE_IT();
 223              		.loc 1 327 3 view .LVU33
 224 005c 1A68     		ldr	r2, [r3]
 225 005e 22F48032 		bic	r2, r2, #65536
 226 0062 1A60     		str	r2, [r3]
 328:Drivers/STM32F1xx_HAL_Driver/Src/stm32f1xx_hal_pwr.c ****   __HAL_PWR_PVD_EXTI_DISABLE_FALLING_EDGE(); 
 227              		.loc 1 328 3 view .LVU34
 228 0064 DA68     		ldr	r2, [r3, #12]
 229 0066 22F48032 		bic	r2, r2, #65536
 230 006a DA60     		str	r2, [r3, #12]
 329:Drivers/STM32F1xx_HAL_Driver/Src/stm32f1xx_hal_pwr.c ****   __HAL_PWR_PVD_EXTI_DISABLE_RISING_EDGE();
 231              		.loc 1 329 3 view .LVU35
 232 006c 9A68     		ldr	r2, [r3, #8]
 233 006e 22F48032 		bic	r2, r2, #65536
 234 0072 9A60     		str	r2, [r3, #8]
 330:Drivers/STM32F1xx_HAL_Driver/Src/stm32f1xx_hal_pwr.c **** 
 331:Drivers/STM32F1xx_HAL_Driver/Src/stm32f1xx_hal_pwr.c ****   /* Configure interrupt mode */
 332:Drivers/STM32F1xx_HAL_Driver/Src/stm32f1xx_hal_pwr.c ****   if((sConfigPVD->Mode & PVD_MODE_IT) == PVD_MODE_IT)
 235              		.loc 1 332 3 view .LVU36
 236              		.loc 1 332 17 is_stmt 0 view .LVU37
 237 0074 6368     		ldr	r3, [r4, #4]
 238              		.loc 1 332 5 view .LVU38
 239 0076 13F4803F 		tst	r3, #65536
 240 007a 04D0     		beq	.L14
 333:Drivers/STM32F1xx_HAL_Driver/Src/stm32f1xx_hal_pwr.c ****   {
 334:Drivers/STM32F1xx_HAL_Driver/Src/stm32f1xx_hal_pwr.c ****     __HAL_PWR_PVD_EXTI_ENABLE_IT();
 241              		.loc 1 334 5 is_stmt 1 view .LVU39
ARM GAS  C:\Users\LIGUOH~1\AppData\Local\Temp\ccgA945g.s 			page 11


 242 007c 184A     		ldr	r2, .L21+8
 243 007e 1368     		ldr	r3, [r2]
 244 0080 43F48033 		orr	r3, r3, #65536
 245 0084 1360     		str	r3, [r2]
 246              	.L14:
 335:Drivers/STM32F1xx_HAL_Driver/Src/stm32f1xx_hal_pwr.c ****   }
 336:Drivers/STM32F1xx_HAL_Driver/Src/stm32f1xx_hal_pwr.c ****   
 337:Drivers/STM32F1xx_HAL_Driver/Src/stm32f1xx_hal_pwr.c ****   /* Configure event mode */
 338:Drivers/STM32F1xx_HAL_Driver/Src/stm32f1xx_hal_pwr.c ****   if((sConfigPVD->Mode & PVD_MODE_EVT) == PVD_MODE_EVT)
 247              		.loc 1 338 3 view .LVU40
 248              		.loc 1 338 17 is_stmt 0 view .LVU41
 249 0086 6368     		ldr	r3, [r4, #4]
 250              		.loc 1 338 5 view .LVU42
 251 0088 13F4003F 		tst	r3, #131072
 252 008c 04D0     		beq	.L15
 339:Drivers/STM32F1xx_HAL_Driver/Src/stm32f1xx_hal_pwr.c ****   {
 340:Drivers/STM32F1xx_HAL_Driver/Src/stm32f1xx_hal_pwr.c ****     __HAL_PWR_PVD_EXTI_ENABLE_EVENT();
 253              		.loc 1 340 5 is_stmt 1 view .LVU43
 254 008e 144A     		ldr	r2, .L21+8
 255 0090 5368     		ldr	r3, [r2, #4]
 256 0092 43F48033 		orr	r3, r3, #65536
 257 0096 5360     		str	r3, [r2, #4]
 258              	.L15:
 341:Drivers/STM32F1xx_HAL_Driver/Src/stm32f1xx_hal_pwr.c ****   }
 342:Drivers/STM32F1xx_HAL_Driver/Src/stm32f1xx_hal_pwr.c ****   
 343:Drivers/STM32F1xx_HAL_Driver/Src/stm32f1xx_hal_pwr.c ****   /* Configure the edge */
 344:Drivers/STM32F1xx_HAL_Driver/Src/stm32f1xx_hal_pwr.c ****   if((sConfigPVD->Mode & PVD_RISING_EDGE) == PVD_RISING_EDGE)
 259              		.loc 1 344 3 view .LVU44
 260              		.loc 1 344 17 is_stmt 0 view .LVU45
 261 0098 6368     		ldr	r3, [r4, #4]
 262              		.loc 1 344 5 view .LVU46
 263 009a 13F0010F 		tst	r3, #1
 264 009e 04D0     		beq	.L16
 345:Drivers/STM32F1xx_HAL_Driver/Src/stm32f1xx_hal_pwr.c ****   {
 346:Drivers/STM32F1xx_HAL_Driver/Src/stm32f1xx_hal_pwr.c ****     __HAL_PWR_PVD_EXTI_ENABLE_RISING_EDGE();
 265              		.loc 1 346 5 is_stmt 1 view .LVU47
 266 00a0 0F4A     		ldr	r2, .L21+8
 267 00a2 9368     		ldr	r3, [r2, #8]
 268 00a4 43F48033 		orr	r3, r3, #65536
 269 00a8 9360     		str	r3, [r2, #8]
 270              	.L16:
 347:Drivers/STM32F1xx_HAL_Driver/Src/stm32f1xx_hal_pwr.c ****   }
 348:Drivers/STM32F1xx_HAL_Driver/Src/stm32f1xx_hal_pwr.c ****   
 349:Drivers/STM32F1xx_HAL_Driver/Src/stm32f1xx_hal_pwr.c ****   if((sConfigPVD->Mode & PVD_FALLING_EDGE) == PVD_FALLING_EDGE)
 271              		.loc 1 349 3 view .LVU48
 272              		.loc 1 349 17 is_stmt 0 view .LVU49
 273 00aa 6368     		ldr	r3, [r4, #4]
 274              		.loc 1 349 5 view .LVU50
 275 00ac 13F0020F 		tst	r3, #2
 276 00b0 04D0     		beq	.L11
 350:Drivers/STM32F1xx_HAL_Driver/Src/stm32f1xx_hal_pwr.c ****   {
 351:Drivers/STM32F1xx_HAL_Driver/Src/stm32f1xx_hal_pwr.c ****     __HAL_PWR_PVD_EXTI_ENABLE_FALLING_EDGE();
 277              		.loc 1 351 5 is_stmt 1 view .LVU51
 278 00b2 0B4A     		ldr	r2, .L21+8
 279 00b4 D368     		ldr	r3, [r2, #12]
 280 00b6 43F48033 		orr	r3, r3, #65536
 281 00ba D360     		str	r3, [r2, #12]
ARM GAS  C:\Users\LIGUOH~1\AppData\Local\Temp\ccgA945g.s 			page 12


 282              	.L11:
 352:Drivers/STM32F1xx_HAL_Driver/Src/stm32f1xx_hal_pwr.c ****   }
 353:Drivers/STM32F1xx_HAL_Driver/Src/stm32f1xx_hal_pwr.c **** }
 283              		.loc 1 353 1 is_stmt 0 view .LVU52
 284 00bc 10BD     		pop	{r4, pc}
 285              	.LVL2:
 286              	.L19:
 319:Drivers/STM32F1xx_HAL_Driver/Src/stm32f1xx_hal_pwr.c ****   assert_param(IS_PWR_PVD_MODE(sConfigPVD->Mode));
 287              		.loc 1 319 3 discriminator 8 view .LVU53
 288 00be 40F23F11 		movw	r1, #319
 289 00c2 0848     		ldr	r0, .L21+12
 290              	.LVL3:
 319:Drivers/STM32F1xx_HAL_Driver/Src/stm32f1xx_hal_pwr.c ****   assert_param(IS_PWR_PVD_MODE(sConfigPVD->Mode));
 291              		.loc 1 319 3 discriminator 8 view .LVU54
 292 00c4 FFF7FEFF 		bl	assert_failed
 293              	.LVL4:
 294 00c8 ACE7     		b	.L12
 295              	.L20:
 320:Drivers/STM32F1xx_HAL_Driver/Src/stm32f1xx_hal_pwr.c **** 
 296              		.loc 1 320 3 discriminator 5 view .LVU55
 297 00ca 4FF4A071 		mov	r1, #320
 298 00ce 0548     		ldr	r0, .L21+12
 299 00d0 FFF7FEFF 		bl	assert_failed
 300              	.LVL5:
 301 00d4 B6E7     		b	.L13
 302              	.L22:
 303 00d6 00BF     		.align	2
 304              	.L21:
 305 00d8 01000200 		.word	131073
 306 00dc 00700040 		.word	1073770496
 307 00e0 00040140 		.word	1073808384
 308 00e4 00000000 		.word	.LC0
 309              		.cfi_endproc
 310              	.LFE69:
 312              		.section	.text.HAL_PWR_EnablePVD,"ax",%progbits
 313              		.align	1
 314              		.global	HAL_PWR_EnablePVD
 315              		.syntax unified
 316              		.thumb
 317              		.thumb_func
 318              		.fpu softvfp
 320              	HAL_PWR_EnablePVD:
 321              	.LFB70:
 354:Drivers/STM32F1xx_HAL_Driver/Src/stm32f1xx_hal_pwr.c **** 
 355:Drivers/STM32F1xx_HAL_Driver/Src/stm32f1xx_hal_pwr.c **** /**
 356:Drivers/STM32F1xx_HAL_Driver/Src/stm32f1xx_hal_pwr.c ****   * @brief  Enables the Power Voltage Detector(PVD).
 357:Drivers/STM32F1xx_HAL_Driver/Src/stm32f1xx_hal_pwr.c ****   * @retval None
 358:Drivers/STM32F1xx_HAL_Driver/Src/stm32f1xx_hal_pwr.c ****   */
 359:Drivers/STM32F1xx_HAL_Driver/Src/stm32f1xx_hal_pwr.c **** void HAL_PWR_EnablePVD(void)
 360:Drivers/STM32F1xx_HAL_Driver/Src/stm32f1xx_hal_pwr.c **** {
 322              		.loc 1 360 1 is_stmt 1 view -0
 323              		.cfi_startproc
 324              		@ args = 0, pretend = 0, frame = 0
 325              		@ frame_needed = 0, uses_anonymous_args = 0
 326              		@ link register save eliminated.
 361:Drivers/STM32F1xx_HAL_Driver/Src/stm32f1xx_hal_pwr.c ****   /* Enable the power voltage detector */
 362:Drivers/STM32F1xx_HAL_Driver/Src/stm32f1xx_hal_pwr.c ****   *(__IO uint32_t *) CR_PVDE_BB = (uint32_t)ENABLE;
ARM GAS  C:\Users\LIGUOH~1\AppData\Local\Temp\ccgA945g.s 			page 13


 327              		.loc 1 362 3 view .LVU57
 328              		.loc 1 362 33 is_stmt 0 view .LVU58
 329 0000 014B     		ldr	r3, .L24
 330 0002 0122     		movs	r2, #1
 331 0004 1A60     		str	r2, [r3]
 363:Drivers/STM32F1xx_HAL_Driver/Src/stm32f1xx_hal_pwr.c **** }
 332              		.loc 1 363 1 view .LVU59
 333 0006 7047     		bx	lr
 334              	.L25:
 335              		.align	2
 336              	.L24:
 337 0008 10000E42 		.word	1108213776
 338              		.cfi_endproc
 339              	.LFE70:
 341              		.section	.text.HAL_PWR_DisablePVD,"ax",%progbits
 342              		.align	1
 343              		.global	HAL_PWR_DisablePVD
 344              		.syntax unified
 345              		.thumb
 346              		.thumb_func
 347              		.fpu softvfp
 349              	HAL_PWR_DisablePVD:
 350              	.LFB71:
 364:Drivers/STM32F1xx_HAL_Driver/Src/stm32f1xx_hal_pwr.c **** 
 365:Drivers/STM32F1xx_HAL_Driver/Src/stm32f1xx_hal_pwr.c **** /**
 366:Drivers/STM32F1xx_HAL_Driver/Src/stm32f1xx_hal_pwr.c ****   * @brief  Disables the Power Voltage Detector(PVD).
 367:Drivers/STM32F1xx_HAL_Driver/Src/stm32f1xx_hal_pwr.c ****   * @retval None
 368:Drivers/STM32F1xx_HAL_Driver/Src/stm32f1xx_hal_pwr.c ****   */
 369:Drivers/STM32F1xx_HAL_Driver/Src/stm32f1xx_hal_pwr.c **** void HAL_PWR_DisablePVD(void)
 370:Drivers/STM32F1xx_HAL_Driver/Src/stm32f1xx_hal_pwr.c **** {
 351              		.loc 1 370 1 is_stmt 1 view -0
 352              		.cfi_startproc
 353              		@ args = 0, pretend = 0, frame = 0
 354              		@ frame_needed = 0, uses_anonymous_args = 0
 355              		@ link register save eliminated.
 371:Drivers/STM32F1xx_HAL_Driver/Src/stm32f1xx_hal_pwr.c ****   /* Disable the power voltage detector */
 372:Drivers/STM32F1xx_HAL_Driver/Src/stm32f1xx_hal_pwr.c ****   *(__IO uint32_t *) CR_PVDE_BB = (uint32_t)DISABLE;
 356              		.loc 1 372 3 view .LVU61
 357              		.loc 1 372 33 is_stmt 0 view .LVU62
 358 0000 014B     		ldr	r3, .L27
 359 0002 0022     		movs	r2, #0
 360 0004 1A60     		str	r2, [r3]
 373:Drivers/STM32F1xx_HAL_Driver/Src/stm32f1xx_hal_pwr.c **** }
 361              		.loc 1 373 1 view .LVU63
 362 0006 7047     		bx	lr
 363              	.L28:
 364              		.align	2
 365              	.L27:
 366 0008 10000E42 		.word	1108213776
 367              		.cfi_endproc
 368              	.LFE71:
 370              		.section	.text.HAL_PWR_EnableWakeUpPin,"ax",%progbits
 371              		.align	1
 372              		.global	HAL_PWR_EnableWakeUpPin
 373              		.syntax unified
 374              		.thumb
 375              		.thumb_func
ARM GAS  C:\Users\LIGUOH~1\AppData\Local\Temp\ccgA945g.s 			page 14


 376              		.fpu softvfp
 378              	HAL_PWR_EnableWakeUpPin:
 379              	.LVL6:
 380              	.LFB72:
 374:Drivers/STM32F1xx_HAL_Driver/Src/stm32f1xx_hal_pwr.c **** 
 375:Drivers/STM32F1xx_HAL_Driver/Src/stm32f1xx_hal_pwr.c **** /**
 376:Drivers/STM32F1xx_HAL_Driver/Src/stm32f1xx_hal_pwr.c ****   * @brief Enables the WakeUp PINx functionality.
 377:Drivers/STM32F1xx_HAL_Driver/Src/stm32f1xx_hal_pwr.c ****   * @param WakeUpPinx: Specifies the Power Wake-Up pin to enable.
 378:Drivers/STM32F1xx_HAL_Driver/Src/stm32f1xx_hal_pwr.c ****   *        This parameter can be one of the following values:
 379:Drivers/STM32F1xx_HAL_Driver/Src/stm32f1xx_hal_pwr.c ****   *           @arg PWR_WAKEUP_PIN1
 380:Drivers/STM32F1xx_HAL_Driver/Src/stm32f1xx_hal_pwr.c ****   * @retval None
 381:Drivers/STM32F1xx_HAL_Driver/Src/stm32f1xx_hal_pwr.c ****   */
 382:Drivers/STM32F1xx_HAL_Driver/Src/stm32f1xx_hal_pwr.c **** void HAL_PWR_EnableWakeUpPin(uint32_t WakeUpPinx)
 383:Drivers/STM32F1xx_HAL_Driver/Src/stm32f1xx_hal_pwr.c **** {
 381              		.loc 1 383 1 is_stmt 1 view -0
 382              		.cfi_startproc
 383              		@ args = 0, pretend = 0, frame = 0
 384              		@ frame_needed = 0, uses_anonymous_args = 0
 385              		.loc 1 383 1 is_stmt 0 view .LVU65
 386 0000 10B5     		push	{r4, lr}
 387              	.LCFI1:
 388              		.cfi_def_cfa_offset 8
 389              		.cfi_offset 4, -8
 390              		.cfi_offset 14, -4
 391 0002 0446     		mov	r4, r0
 384:Drivers/STM32F1xx_HAL_Driver/Src/stm32f1xx_hal_pwr.c ****   /* Check the parameter */
 385:Drivers/STM32F1xx_HAL_Driver/Src/stm32f1xx_hal_pwr.c ****   assert_param(IS_PWR_WAKEUP_PIN(WakeUpPinx));
 392              		.loc 1 385 3 is_stmt 1 view .LVU66
 393 0004 B0F5807F 		cmp	r0, #256
 394 0008 09D1     		bne	.L32
 395              	.LVL7:
 396              	.L30:
 386:Drivers/STM32F1xx_HAL_Driver/Src/stm32f1xx_hal_pwr.c ****   /* Enable the EWUPx pin */
 387:Drivers/STM32F1xx_HAL_Driver/Src/stm32f1xx_hal_pwr.c ****   *(__IO uint32_t *) CSR_EWUP_BB(WakeUpPinx) = (uint32_t)ENABLE;
 397              		.loc 1 387 3 view .LVU67
 398              	.LBB6:
 399              	.LBI6:
 400              		.file 2 "Drivers/CMSIS/Include/cmsis_gcc.h"
   1:Drivers/CMSIS/Include/cmsis_gcc.h **** /**************************************************************************//**
   2:Drivers/CMSIS/Include/cmsis_gcc.h ****  * @file     cmsis_gcc.h
   3:Drivers/CMSIS/Include/cmsis_gcc.h ****  * @brief    CMSIS compiler GCC header file
   4:Drivers/CMSIS/Include/cmsis_gcc.h ****  * @version  V5.0.4
   5:Drivers/CMSIS/Include/cmsis_gcc.h ****  * @date     09. April 2018
   6:Drivers/CMSIS/Include/cmsis_gcc.h ****  ******************************************************************************/
   7:Drivers/CMSIS/Include/cmsis_gcc.h **** /*
   8:Drivers/CMSIS/Include/cmsis_gcc.h ****  * Copyright (c) 2009-2018 Arm Limited. All rights reserved.
   9:Drivers/CMSIS/Include/cmsis_gcc.h ****  *
  10:Drivers/CMSIS/Include/cmsis_gcc.h ****  * SPDX-License-Identifier: Apache-2.0
  11:Drivers/CMSIS/Include/cmsis_gcc.h ****  *
  12:Drivers/CMSIS/Include/cmsis_gcc.h ****  * Licensed under the Apache License, Version 2.0 (the License); you may
  13:Drivers/CMSIS/Include/cmsis_gcc.h ****  * not use this file except in compliance with the License.
  14:Drivers/CMSIS/Include/cmsis_gcc.h ****  * You may obtain a copy of the License at
  15:Drivers/CMSIS/Include/cmsis_gcc.h ****  *
  16:Drivers/CMSIS/Include/cmsis_gcc.h ****  * www.apache.org/licenses/LICENSE-2.0
  17:Drivers/CMSIS/Include/cmsis_gcc.h ****  *
  18:Drivers/CMSIS/Include/cmsis_gcc.h ****  * Unless required by applicable law or agreed to in writing, software
  19:Drivers/CMSIS/Include/cmsis_gcc.h ****  * distributed under the License is distributed on an AS IS BASIS, WITHOUT
ARM GAS  C:\Users\LIGUOH~1\AppData\Local\Temp\ccgA945g.s 			page 15


  20:Drivers/CMSIS/Include/cmsis_gcc.h ****  * WARRANTIES OR CONDITIONS OF ANY KIND, either express or implied.
  21:Drivers/CMSIS/Include/cmsis_gcc.h ****  * See the License for the specific language governing permissions and
  22:Drivers/CMSIS/Include/cmsis_gcc.h ****  * limitations under the License.
  23:Drivers/CMSIS/Include/cmsis_gcc.h ****  */
  24:Drivers/CMSIS/Include/cmsis_gcc.h **** 
  25:Drivers/CMSIS/Include/cmsis_gcc.h **** #ifndef __CMSIS_GCC_H
  26:Drivers/CMSIS/Include/cmsis_gcc.h **** #define __CMSIS_GCC_H
  27:Drivers/CMSIS/Include/cmsis_gcc.h **** 
  28:Drivers/CMSIS/Include/cmsis_gcc.h **** /* ignore some GCC warnings */
  29:Drivers/CMSIS/Include/cmsis_gcc.h **** #pragma GCC diagnostic push
  30:Drivers/CMSIS/Include/cmsis_gcc.h **** #pragma GCC diagnostic ignored "-Wsign-conversion"
  31:Drivers/CMSIS/Include/cmsis_gcc.h **** #pragma GCC diagnostic ignored "-Wconversion"
  32:Drivers/CMSIS/Include/cmsis_gcc.h **** #pragma GCC diagnostic ignored "-Wunused-parameter"
  33:Drivers/CMSIS/Include/cmsis_gcc.h **** 
  34:Drivers/CMSIS/Include/cmsis_gcc.h **** /* Fallback for __has_builtin */
  35:Drivers/CMSIS/Include/cmsis_gcc.h **** #ifndef __has_builtin
  36:Drivers/CMSIS/Include/cmsis_gcc.h ****   #define __has_builtin(x) (0)
  37:Drivers/CMSIS/Include/cmsis_gcc.h **** #endif
  38:Drivers/CMSIS/Include/cmsis_gcc.h **** 
  39:Drivers/CMSIS/Include/cmsis_gcc.h **** /* CMSIS compiler specific defines */
  40:Drivers/CMSIS/Include/cmsis_gcc.h **** #ifndef   __ASM
  41:Drivers/CMSIS/Include/cmsis_gcc.h ****   #define __ASM                                  __asm
  42:Drivers/CMSIS/Include/cmsis_gcc.h **** #endif
  43:Drivers/CMSIS/Include/cmsis_gcc.h **** #ifndef   __INLINE
  44:Drivers/CMSIS/Include/cmsis_gcc.h ****   #define __INLINE                               inline
  45:Drivers/CMSIS/Include/cmsis_gcc.h **** #endif
  46:Drivers/CMSIS/Include/cmsis_gcc.h **** #ifndef   __STATIC_INLINE
  47:Drivers/CMSIS/Include/cmsis_gcc.h ****   #define __STATIC_INLINE                        static inline
  48:Drivers/CMSIS/Include/cmsis_gcc.h **** #endif
  49:Drivers/CMSIS/Include/cmsis_gcc.h **** #ifndef   __STATIC_FORCEINLINE                 
  50:Drivers/CMSIS/Include/cmsis_gcc.h ****   #define __STATIC_FORCEINLINE                   __attribute__((always_inline)) static inline
  51:Drivers/CMSIS/Include/cmsis_gcc.h **** #endif                                           
  52:Drivers/CMSIS/Include/cmsis_gcc.h **** #ifndef   __NO_RETURN
  53:Drivers/CMSIS/Include/cmsis_gcc.h ****   #define __NO_RETURN                            __attribute__((__noreturn__))
  54:Drivers/CMSIS/Include/cmsis_gcc.h **** #endif
  55:Drivers/CMSIS/Include/cmsis_gcc.h **** #ifndef   __USED
  56:Drivers/CMSIS/Include/cmsis_gcc.h ****   #define __USED                                 __attribute__((used))
  57:Drivers/CMSIS/Include/cmsis_gcc.h **** #endif
  58:Drivers/CMSIS/Include/cmsis_gcc.h **** #ifndef   __WEAK
  59:Drivers/CMSIS/Include/cmsis_gcc.h ****   #define __WEAK                                 __attribute__((weak))
  60:Drivers/CMSIS/Include/cmsis_gcc.h **** #endif
  61:Drivers/CMSIS/Include/cmsis_gcc.h **** #ifndef   __PACKED
  62:Drivers/CMSIS/Include/cmsis_gcc.h ****   #define __PACKED                               __attribute__((packed, aligned(1)))
  63:Drivers/CMSIS/Include/cmsis_gcc.h **** #endif
  64:Drivers/CMSIS/Include/cmsis_gcc.h **** #ifndef   __PACKED_STRUCT
  65:Drivers/CMSIS/Include/cmsis_gcc.h ****   #define __PACKED_STRUCT                        struct __attribute__((packed, aligned(1)))
  66:Drivers/CMSIS/Include/cmsis_gcc.h **** #endif
  67:Drivers/CMSIS/Include/cmsis_gcc.h **** #ifndef   __PACKED_UNION
  68:Drivers/CMSIS/Include/cmsis_gcc.h ****   #define __PACKED_UNION                         union __attribute__((packed, aligned(1)))
  69:Drivers/CMSIS/Include/cmsis_gcc.h **** #endif
  70:Drivers/CMSIS/Include/cmsis_gcc.h **** #ifndef   __UNALIGNED_UINT32        /* deprecated */
  71:Drivers/CMSIS/Include/cmsis_gcc.h ****   #pragma GCC diagnostic push
  72:Drivers/CMSIS/Include/cmsis_gcc.h ****   #pragma GCC diagnostic ignored "-Wpacked"
  73:Drivers/CMSIS/Include/cmsis_gcc.h ****   #pragma GCC diagnostic ignored "-Wattributes"
  74:Drivers/CMSIS/Include/cmsis_gcc.h ****   struct __attribute__((packed)) T_UINT32 { uint32_t v; };
  75:Drivers/CMSIS/Include/cmsis_gcc.h ****   #pragma GCC diagnostic pop
  76:Drivers/CMSIS/Include/cmsis_gcc.h ****   #define __UNALIGNED_UINT32(x)                  (((struct T_UINT32 *)(x))->v)
ARM GAS  C:\Users\LIGUOH~1\AppData\Local\Temp\ccgA945g.s 			page 16


  77:Drivers/CMSIS/Include/cmsis_gcc.h **** #endif
  78:Drivers/CMSIS/Include/cmsis_gcc.h **** #ifndef   __UNALIGNED_UINT16_WRITE
  79:Drivers/CMSIS/Include/cmsis_gcc.h ****   #pragma GCC diagnostic push
  80:Drivers/CMSIS/Include/cmsis_gcc.h ****   #pragma GCC diagnostic ignored "-Wpacked"
  81:Drivers/CMSIS/Include/cmsis_gcc.h ****   #pragma GCC diagnostic ignored "-Wattributes"
  82:Drivers/CMSIS/Include/cmsis_gcc.h ****   __PACKED_STRUCT T_UINT16_WRITE { uint16_t v; };
  83:Drivers/CMSIS/Include/cmsis_gcc.h ****   #pragma GCC diagnostic pop
  84:Drivers/CMSIS/Include/cmsis_gcc.h ****   #define __UNALIGNED_UINT16_WRITE(addr, val)    (void)((((struct T_UINT16_WRITE *)(void *)(addr))-
  85:Drivers/CMSIS/Include/cmsis_gcc.h **** #endif
  86:Drivers/CMSIS/Include/cmsis_gcc.h **** #ifndef   __UNALIGNED_UINT16_READ
  87:Drivers/CMSIS/Include/cmsis_gcc.h ****   #pragma GCC diagnostic push
  88:Drivers/CMSIS/Include/cmsis_gcc.h ****   #pragma GCC diagnostic ignored "-Wpacked"
  89:Drivers/CMSIS/Include/cmsis_gcc.h ****   #pragma GCC diagnostic ignored "-Wattributes"
  90:Drivers/CMSIS/Include/cmsis_gcc.h ****   __PACKED_STRUCT T_UINT16_READ { uint16_t v; };
  91:Drivers/CMSIS/Include/cmsis_gcc.h ****   #pragma GCC diagnostic pop
  92:Drivers/CMSIS/Include/cmsis_gcc.h ****   #define __UNALIGNED_UINT16_READ(addr)          (((const struct T_UINT16_READ *)(const void *)(add
  93:Drivers/CMSIS/Include/cmsis_gcc.h **** #endif
  94:Drivers/CMSIS/Include/cmsis_gcc.h **** #ifndef   __UNALIGNED_UINT32_WRITE
  95:Drivers/CMSIS/Include/cmsis_gcc.h ****   #pragma GCC diagnostic push
  96:Drivers/CMSIS/Include/cmsis_gcc.h ****   #pragma GCC diagnostic ignored "-Wpacked"
  97:Drivers/CMSIS/Include/cmsis_gcc.h ****   #pragma GCC diagnostic ignored "-Wattributes"
  98:Drivers/CMSIS/Include/cmsis_gcc.h ****   __PACKED_STRUCT T_UINT32_WRITE { uint32_t v; };
  99:Drivers/CMSIS/Include/cmsis_gcc.h ****   #pragma GCC diagnostic pop
 100:Drivers/CMSIS/Include/cmsis_gcc.h ****   #define __UNALIGNED_UINT32_WRITE(addr, val)    (void)((((struct T_UINT32_WRITE *)(void *)(addr))-
 101:Drivers/CMSIS/Include/cmsis_gcc.h **** #endif
 102:Drivers/CMSIS/Include/cmsis_gcc.h **** #ifndef   __UNALIGNED_UINT32_READ
 103:Drivers/CMSIS/Include/cmsis_gcc.h ****   #pragma GCC diagnostic push
 104:Drivers/CMSIS/Include/cmsis_gcc.h ****   #pragma GCC diagnostic ignored "-Wpacked"
 105:Drivers/CMSIS/Include/cmsis_gcc.h ****   #pragma GCC diagnostic ignored "-Wattributes"
 106:Drivers/CMSIS/Include/cmsis_gcc.h ****   __PACKED_STRUCT T_UINT32_READ { uint32_t v; };
 107:Drivers/CMSIS/Include/cmsis_gcc.h ****   #pragma GCC diagnostic pop
 108:Drivers/CMSIS/Include/cmsis_gcc.h ****   #define __UNALIGNED_UINT32_READ(addr)          (((const struct T_UINT32_READ *)(const void *)(add
 109:Drivers/CMSIS/Include/cmsis_gcc.h **** #endif
 110:Drivers/CMSIS/Include/cmsis_gcc.h **** #ifndef   __ALIGNED
 111:Drivers/CMSIS/Include/cmsis_gcc.h ****   #define __ALIGNED(x)                           __attribute__((aligned(x)))
 112:Drivers/CMSIS/Include/cmsis_gcc.h **** #endif
 113:Drivers/CMSIS/Include/cmsis_gcc.h **** #ifndef   __RESTRICT
 114:Drivers/CMSIS/Include/cmsis_gcc.h ****   #define __RESTRICT                             __restrict
 115:Drivers/CMSIS/Include/cmsis_gcc.h **** #endif
 116:Drivers/CMSIS/Include/cmsis_gcc.h **** 
 117:Drivers/CMSIS/Include/cmsis_gcc.h **** 
 118:Drivers/CMSIS/Include/cmsis_gcc.h **** /* ###########################  Core Function Access  ########################### */
 119:Drivers/CMSIS/Include/cmsis_gcc.h **** /** \ingroup  CMSIS_Core_FunctionInterface
 120:Drivers/CMSIS/Include/cmsis_gcc.h ****     \defgroup CMSIS_Core_RegAccFunctions CMSIS Core Register Access Functions
 121:Drivers/CMSIS/Include/cmsis_gcc.h ****   @{
 122:Drivers/CMSIS/Include/cmsis_gcc.h ****  */
 123:Drivers/CMSIS/Include/cmsis_gcc.h **** 
 124:Drivers/CMSIS/Include/cmsis_gcc.h **** /**
 125:Drivers/CMSIS/Include/cmsis_gcc.h ****   \brief   Enable IRQ Interrupts
 126:Drivers/CMSIS/Include/cmsis_gcc.h ****   \details Enables IRQ interrupts by clearing the I-bit in the CPSR.
 127:Drivers/CMSIS/Include/cmsis_gcc.h ****            Can only be executed in Privileged modes.
 128:Drivers/CMSIS/Include/cmsis_gcc.h ****  */
 129:Drivers/CMSIS/Include/cmsis_gcc.h **** __STATIC_FORCEINLINE void __enable_irq(void)
 130:Drivers/CMSIS/Include/cmsis_gcc.h **** {
 131:Drivers/CMSIS/Include/cmsis_gcc.h ****   __ASM volatile ("cpsie i" : : : "memory");
 132:Drivers/CMSIS/Include/cmsis_gcc.h **** }
 133:Drivers/CMSIS/Include/cmsis_gcc.h **** 
ARM GAS  C:\Users\LIGUOH~1\AppData\Local\Temp\ccgA945g.s 			page 17


 134:Drivers/CMSIS/Include/cmsis_gcc.h **** 
 135:Drivers/CMSIS/Include/cmsis_gcc.h **** /**
 136:Drivers/CMSIS/Include/cmsis_gcc.h ****   \brief   Disable IRQ Interrupts
 137:Drivers/CMSIS/Include/cmsis_gcc.h ****   \details Disables IRQ interrupts by setting the I-bit in the CPSR.
 138:Drivers/CMSIS/Include/cmsis_gcc.h ****            Can only be executed in Privileged modes.
 139:Drivers/CMSIS/Include/cmsis_gcc.h ****  */
 140:Drivers/CMSIS/Include/cmsis_gcc.h **** __STATIC_FORCEINLINE void __disable_irq(void)
 141:Drivers/CMSIS/Include/cmsis_gcc.h **** {
 142:Drivers/CMSIS/Include/cmsis_gcc.h ****   __ASM volatile ("cpsid i" : : : "memory");
 143:Drivers/CMSIS/Include/cmsis_gcc.h **** }
 144:Drivers/CMSIS/Include/cmsis_gcc.h **** 
 145:Drivers/CMSIS/Include/cmsis_gcc.h **** 
 146:Drivers/CMSIS/Include/cmsis_gcc.h **** /**
 147:Drivers/CMSIS/Include/cmsis_gcc.h ****   \brief   Get Control Register
 148:Drivers/CMSIS/Include/cmsis_gcc.h ****   \details Returns the content of the Control Register.
 149:Drivers/CMSIS/Include/cmsis_gcc.h ****   \return               Control Register value
 150:Drivers/CMSIS/Include/cmsis_gcc.h ****  */
 151:Drivers/CMSIS/Include/cmsis_gcc.h **** __STATIC_FORCEINLINE uint32_t __get_CONTROL(void)
 152:Drivers/CMSIS/Include/cmsis_gcc.h **** {
 153:Drivers/CMSIS/Include/cmsis_gcc.h ****   uint32_t result;
 154:Drivers/CMSIS/Include/cmsis_gcc.h **** 
 155:Drivers/CMSIS/Include/cmsis_gcc.h ****   __ASM volatile ("MRS %0, control" : "=r" (result) );
 156:Drivers/CMSIS/Include/cmsis_gcc.h ****   return(result);
 157:Drivers/CMSIS/Include/cmsis_gcc.h **** }
 158:Drivers/CMSIS/Include/cmsis_gcc.h **** 
 159:Drivers/CMSIS/Include/cmsis_gcc.h **** 
 160:Drivers/CMSIS/Include/cmsis_gcc.h **** #if (defined (__ARM_FEATURE_CMSE ) && (__ARM_FEATURE_CMSE == 3))
 161:Drivers/CMSIS/Include/cmsis_gcc.h **** /**
 162:Drivers/CMSIS/Include/cmsis_gcc.h ****   \brief   Get Control Register (non-secure)
 163:Drivers/CMSIS/Include/cmsis_gcc.h ****   \details Returns the content of the non-secure Control Register when in secure mode.
 164:Drivers/CMSIS/Include/cmsis_gcc.h ****   \return               non-secure Control Register value
 165:Drivers/CMSIS/Include/cmsis_gcc.h ****  */
 166:Drivers/CMSIS/Include/cmsis_gcc.h **** __STATIC_FORCEINLINE uint32_t __TZ_get_CONTROL_NS(void)
 167:Drivers/CMSIS/Include/cmsis_gcc.h **** {
 168:Drivers/CMSIS/Include/cmsis_gcc.h ****   uint32_t result;
 169:Drivers/CMSIS/Include/cmsis_gcc.h **** 
 170:Drivers/CMSIS/Include/cmsis_gcc.h ****   __ASM volatile ("MRS %0, control_ns" : "=r" (result) );
 171:Drivers/CMSIS/Include/cmsis_gcc.h ****   return(result);
 172:Drivers/CMSIS/Include/cmsis_gcc.h **** }
 173:Drivers/CMSIS/Include/cmsis_gcc.h **** #endif
 174:Drivers/CMSIS/Include/cmsis_gcc.h **** 
 175:Drivers/CMSIS/Include/cmsis_gcc.h **** 
 176:Drivers/CMSIS/Include/cmsis_gcc.h **** /**
 177:Drivers/CMSIS/Include/cmsis_gcc.h ****   \brief   Set Control Register
 178:Drivers/CMSIS/Include/cmsis_gcc.h ****   \details Writes the given value to the Control Register.
 179:Drivers/CMSIS/Include/cmsis_gcc.h ****   \param [in]    control  Control Register value to set
 180:Drivers/CMSIS/Include/cmsis_gcc.h ****  */
 181:Drivers/CMSIS/Include/cmsis_gcc.h **** __STATIC_FORCEINLINE void __set_CONTROL(uint32_t control)
 182:Drivers/CMSIS/Include/cmsis_gcc.h **** {
 183:Drivers/CMSIS/Include/cmsis_gcc.h ****   __ASM volatile ("MSR control, %0" : : "r" (control) : "memory");
 184:Drivers/CMSIS/Include/cmsis_gcc.h **** }
 185:Drivers/CMSIS/Include/cmsis_gcc.h **** 
 186:Drivers/CMSIS/Include/cmsis_gcc.h **** 
 187:Drivers/CMSIS/Include/cmsis_gcc.h **** #if (defined (__ARM_FEATURE_CMSE ) && (__ARM_FEATURE_CMSE == 3))
 188:Drivers/CMSIS/Include/cmsis_gcc.h **** /**
 189:Drivers/CMSIS/Include/cmsis_gcc.h ****   \brief   Set Control Register (non-secure)
 190:Drivers/CMSIS/Include/cmsis_gcc.h ****   \details Writes the given value to the non-secure Control Register when in secure state.
ARM GAS  C:\Users\LIGUOH~1\AppData\Local\Temp\ccgA945g.s 			page 18


 191:Drivers/CMSIS/Include/cmsis_gcc.h ****   \param [in]    control  Control Register value to set
 192:Drivers/CMSIS/Include/cmsis_gcc.h ****  */
 193:Drivers/CMSIS/Include/cmsis_gcc.h **** __STATIC_FORCEINLINE void __TZ_set_CONTROL_NS(uint32_t control)
 194:Drivers/CMSIS/Include/cmsis_gcc.h **** {
 195:Drivers/CMSIS/Include/cmsis_gcc.h ****   __ASM volatile ("MSR control_ns, %0" : : "r" (control) : "memory");
 196:Drivers/CMSIS/Include/cmsis_gcc.h **** }
 197:Drivers/CMSIS/Include/cmsis_gcc.h **** #endif
 198:Drivers/CMSIS/Include/cmsis_gcc.h **** 
 199:Drivers/CMSIS/Include/cmsis_gcc.h **** 
 200:Drivers/CMSIS/Include/cmsis_gcc.h **** /**
 201:Drivers/CMSIS/Include/cmsis_gcc.h ****   \brief   Get IPSR Register
 202:Drivers/CMSIS/Include/cmsis_gcc.h ****   \details Returns the content of the IPSR Register.
 203:Drivers/CMSIS/Include/cmsis_gcc.h ****   \return               IPSR Register value
 204:Drivers/CMSIS/Include/cmsis_gcc.h ****  */
 205:Drivers/CMSIS/Include/cmsis_gcc.h **** __STATIC_FORCEINLINE uint32_t __get_IPSR(void)
 206:Drivers/CMSIS/Include/cmsis_gcc.h **** {
 207:Drivers/CMSIS/Include/cmsis_gcc.h ****   uint32_t result;
 208:Drivers/CMSIS/Include/cmsis_gcc.h **** 
 209:Drivers/CMSIS/Include/cmsis_gcc.h ****   __ASM volatile ("MRS %0, ipsr" : "=r" (result) );
 210:Drivers/CMSIS/Include/cmsis_gcc.h ****   return(result);
 211:Drivers/CMSIS/Include/cmsis_gcc.h **** }
 212:Drivers/CMSIS/Include/cmsis_gcc.h **** 
 213:Drivers/CMSIS/Include/cmsis_gcc.h **** 
 214:Drivers/CMSIS/Include/cmsis_gcc.h **** /**
 215:Drivers/CMSIS/Include/cmsis_gcc.h ****   \brief   Get APSR Register
 216:Drivers/CMSIS/Include/cmsis_gcc.h ****   \details Returns the content of the APSR Register.
 217:Drivers/CMSIS/Include/cmsis_gcc.h ****   \return               APSR Register value
 218:Drivers/CMSIS/Include/cmsis_gcc.h ****  */
 219:Drivers/CMSIS/Include/cmsis_gcc.h **** __STATIC_FORCEINLINE uint32_t __get_APSR(void)
 220:Drivers/CMSIS/Include/cmsis_gcc.h **** {
 221:Drivers/CMSIS/Include/cmsis_gcc.h ****   uint32_t result;
 222:Drivers/CMSIS/Include/cmsis_gcc.h **** 
 223:Drivers/CMSIS/Include/cmsis_gcc.h ****   __ASM volatile ("MRS %0, apsr" : "=r" (result) );
 224:Drivers/CMSIS/Include/cmsis_gcc.h ****   return(result);
 225:Drivers/CMSIS/Include/cmsis_gcc.h **** }
 226:Drivers/CMSIS/Include/cmsis_gcc.h **** 
 227:Drivers/CMSIS/Include/cmsis_gcc.h **** 
 228:Drivers/CMSIS/Include/cmsis_gcc.h **** /**
 229:Drivers/CMSIS/Include/cmsis_gcc.h ****   \brief   Get xPSR Register
 230:Drivers/CMSIS/Include/cmsis_gcc.h ****   \details Returns the content of the xPSR Register.
 231:Drivers/CMSIS/Include/cmsis_gcc.h ****   \return               xPSR Register value
 232:Drivers/CMSIS/Include/cmsis_gcc.h ****  */
 233:Drivers/CMSIS/Include/cmsis_gcc.h **** __STATIC_FORCEINLINE uint32_t __get_xPSR(void)
 234:Drivers/CMSIS/Include/cmsis_gcc.h **** {
 235:Drivers/CMSIS/Include/cmsis_gcc.h ****   uint32_t result;
 236:Drivers/CMSIS/Include/cmsis_gcc.h **** 
 237:Drivers/CMSIS/Include/cmsis_gcc.h ****   __ASM volatile ("MRS %0, xpsr" : "=r" (result) );
 238:Drivers/CMSIS/Include/cmsis_gcc.h ****   return(result);
 239:Drivers/CMSIS/Include/cmsis_gcc.h **** }
 240:Drivers/CMSIS/Include/cmsis_gcc.h **** 
 241:Drivers/CMSIS/Include/cmsis_gcc.h **** 
 242:Drivers/CMSIS/Include/cmsis_gcc.h **** /**
 243:Drivers/CMSIS/Include/cmsis_gcc.h ****   \brief   Get Process Stack Pointer
 244:Drivers/CMSIS/Include/cmsis_gcc.h ****   \details Returns the current value of the Process Stack Pointer (PSP).
 245:Drivers/CMSIS/Include/cmsis_gcc.h ****   \return               PSP Register value
 246:Drivers/CMSIS/Include/cmsis_gcc.h ****  */
 247:Drivers/CMSIS/Include/cmsis_gcc.h **** __STATIC_FORCEINLINE uint32_t __get_PSP(void)
ARM GAS  C:\Users\LIGUOH~1\AppData\Local\Temp\ccgA945g.s 			page 19


 248:Drivers/CMSIS/Include/cmsis_gcc.h **** {
 249:Drivers/CMSIS/Include/cmsis_gcc.h ****   uint32_t result;
 250:Drivers/CMSIS/Include/cmsis_gcc.h **** 
 251:Drivers/CMSIS/Include/cmsis_gcc.h ****   __ASM volatile ("MRS %0, psp"  : "=r" (result) );
 252:Drivers/CMSIS/Include/cmsis_gcc.h ****   return(result);
 253:Drivers/CMSIS/Include/cmsis_gcc.h **** }
 254:Drivers/CMSIS/Include/cmsis_gcc.h **** 
 255:Drivers/CMSIS/Include/cmsis_gcc.h **** 
 256:Drivers/CMSIS/Include/cmsis_gcc.h **** #if (defined (__ARM_FEATURE_CMSE ) && (__ARM_FEATURE_CMSE == 3))
 257:Drivers/CMSIS/Include/cmsis_gcc.h **** /**
 258:Drivers/CMSIS/Include/cmsis_gcc.h ****   \brief   Get Process Stack Pointer (non-secure)
 259:Drivers/CMSIS/Include/cmsis_gcc.h ****   \details Returns the current value of the non-secure Process Stack Pointer (PSP) when in secure s
 260:Drivers/CMSIS/Include/cmsis_gcc.h ****   \return               PSP Register value
 261:Drivers/CMSIS/Include/cmsis_gcc.h ****  */
 262:Drivers/CMSIS/Include/cmsis_gcc.h **** __STATIC_FORCEINLINE uint32_t __TZ_get_PSP_NS(void)
 263:Drivers/CMSIS/Include/cmsis_gcc.h **** {
 264:Drivers/CMSIS/Include/cmsis_gcc.h ****   uint32_t result;
 265:Drivers/CMSIS/Include/cmsis_gcc.h **** 
 266:Drivers/CMSIS/Include/cmsis_gcc.h ****   __ASM volatile ("MRS %0, psp_ns"  : "=r" (result) );
 267:Drivers/CMSIS/Include/cmsis_gcc.h ****   return(result);
 268:Drivers/CMSIS/Include/cmsis_gcc.h **** }
 269:Drivers/CMSIS/Include/cmsis_gcc.h **** #endif
 270:Drivers/CMSIS/Include/cmsis_gcc.h **** 
 271:Drivers/CMSIS/Include/cmsis_gcc.h **** 
 272:Drivers/CMSIS/Include/cmsis_gcc.h **** /**
 273:Drivers/CMSIS/Include/cmsis_gcc.h ****   \brief   Set Process Stack Pointer
 274:Drivers/CMSIS/Include/cmsis_gcc.h ****   \details Assigns the given value to the Process Stack Pointer (PSP).
 275:Drivers/CMSIS/Include/cmsis_gcc.h ****   \param [in]    topOfProcStack  Process Stack Pointer value to set
 276:Drivers/CMSIS/Include/cmsis_gcc.h ****  */
 277:Drivers/CMSIS/Include/cmsis_gcc.h **** __STATIC_FORCEINLINE void __set_PSP(uint32_t topOfProcStack)
 278:Drivers/CMSIS/Include/cmsis_gcc.h **** {
 279:Drivers/CMSIS/Include/cmsis_gcc.h ****   __ASM volatile ("MSR psp, %0" : : "r" (topOfProcStack) : );
 280:Drivers/CMSIS/Include/cmsis_gcc.h **** }
 281:Drivers/CMSIS/Include/cmsis_gcc.h **** 
 282:Drivers/CMSIS/Include/cmsis_gcc.h **** 
 283:Drivers/CMSIS/Include/cmsis_gcc.h **** #if (defined (__ARM_FEATURE_CMSE ) && (__ARM_FEATURE_CMSE == 3))
 284:Drivers/CMSIS/Include/cmsis_gcc.h **** /**
 285:Drivers/CMSIS/Include/cmsis_gcc.h ****   \brief   Set Process Stack Pointer (non-secure)
 286:Drivers/CMSIS/Include/cmsis_gcc.h ****   \details Assigns the given value to the non-secure Process Stack Pointer (PSP) when in secure sta
 287:Drivers/CMSIS/Include/cmsis_gcc.h ****   \param [in]    topOfProcStack  Process Stack Pointer value to set
 288:Drivers/CMSIS/Include/cmsis_gcc.h ****  */
 289:Drivers/CMSIS/Include/cmsis_gcc.h **** __STATIC_FORCEINLINE void __TZ_set_PSP_NS(uint32_t topOfProcStack)
 290:Drivers/CMSIS/Include/cmsis_gcc.h **** {
 291:Drivers/CMSIS/Include/cmsis_gcc.h ****   __ASM volatile ("MSR psp_ns, %0" : : "r" (topOfProcStack) : );
 292:Drivers/CMSIS/Include/cmsis_gcc.h **** }
 293:Drivers/CMSIS/Include/cmsis_gcc.h **** #endif
 294:Drivers/CMSIS/Include/cmsis_gcc.h **** 
 295:Drivers/CMSIS/Include/cmsis_gcc.h **** 
 296:Drivers/CMSIS/Include/cmsis_gcc.h **** /**
 297:Drivers/CMSIS/Include/cmsis_gcc.h ****   \brief   Get Main Stack Pointer
 298:Drivers/CMSIS/Include/cmsis_gcc.h ****   \details Returns the current value of the Main Stack Pointer (MSP).
 299:Drivers/CMSIS/Include/cmsis_gcc.h ****   \return               MSP Register value
 300:Drivers/CMSIS/Include/cmsis_gcc.h ****  */
 301:Drivers/CMSIS/Include/cmsis_gcc.h **** __STATIC_FORCEINLINE uint32_t __get_MSP(void)
 302:Drivers/CMSIS/Include/cmsis_gcc.h **** {
 303:Drivers/CMSIS/Include/cmsis_gcc.h ****   uint32_t result;
 304:Drivers/CMSIS/Include/cmsis_gcc.h **** 
ARM GAS  C:\Users\LIGUOH~1\AppData\Local\Temp\ccgA945g.s 			page 20


 305:Drivers/CMSIS/Include/cmsis_gcc.h ****   __ASM volatile ("MRS %0, msp" : "=r" (result) );
 306:Drivers/CMSIS/Include/cmsis_gcc.h ****   return(result);
 307:Drivers/CMSIS/Include/cmsis_gcc.h **** }
 308:Drivers/CMSIS/Include/cmsis_gcc.h **** 
 309:Drivers/CMSIS/Include/cmsis_gcc.h **** 
 310:Drivers/CMSIS/Include/cmsis_gcc.h **** #if (defined (__ARM_FEATURE_CMSE ) && (__ARM_FEATURE_CMSE == 3))
 311:Drivers/CMSIS/Include/cmsis_gcc.h **** /**
 312:Drivers/CMSIS/Include/cmsis_gcc.h ****   \brief   Get Main Stack Pointer (non-secure)
 313:Drivers/CMSIS/Include/cmsis_gcc.h ****   \details Returns the current value of the non-secure Main Stack Pointer (MSP) when in secure stat
 314:Drivers/CMSIS/Include/cmsis_gcc.h ****   \return               MSP Register value
 315:Drivers/CMSIS/Include/cmsis_gcc.h ****  */
 316:Drivers/CMSIS/Include/cmsis_gcc.h **** __STATIC_FORCEINLINE uint32_t __TZ_get_MSP_NS(void)
 317:Drivers/CMSIS/Include/cmsis_gcc.h **** {
 318:Drivers/CMSIS/Include/cmsis_gcc.h ****   uint32_t result;
 319:Drivers/CMSIS/Include/cmsis_gcc.h **** 
 320:Drivers/CMSIS/Include/cmsis_gcc.h ****   __ASM volatile ("MRS %0, msp_ns" : "=r" (result) );
 321:Drivers/CMSIS/Include/cmsis_gcc.h ****   return(result);
 322:Drivers/CMSIS/Include/cmsis_gcc.h **** }
 323:Drivers/CMSIS/Include/cmsis_gcc.h **** #endif
 324:Drivers/CMSIS/Include/cmsis_gcc.h **** 
 325:Drivers/CMSIS/Include/cmsis_gcc.h **** 
 326:Drivers/CMSIS/Include/cmsis_gcc.h **** /**
 327:Drivers/CMSIS/Include/cmsis_gcc.h ****   \brief   Set Main Stack Pointer
 328:Drivers/CMSIS/Include/cmsis_gcc.h ****   \details Assigns the given value to the Main Stack Pointer (MSP).
 329:Drivers/CMSIS/Include/cmsis_gcc.h ****   \param [in]    topOfMainStack  Main Stack Pointer value to set
 330:Drivers/CMSIS/Include/cmsis_gcc.h ****  */
 331:Drivers/CMSIS/Include/cmsis_gcc.h **** __STATIC_FORCEINLINE void __set_MSP(uint32_t topOfMainStack)
 332:Drivers/CMSIS/Include/cmsis_gcc.h **** {
 333:Drivers/CMSIS/Include/cmsis_gcc.h ****   __ASM volatile ("MSR msp, %0" : : "r" (topOfMainStack) : );
 334:Drivers/CMSIS/Include/cmsis_gcc.h **** }
 335:Drivers/CMSIS/Include/cmsis_gcc.h **** 
 336:Drivers/CMSIS/Include/cmsis_gcc.h **** 
 337:Drivers/CMSIS/Include/cmsis_gcc.h **** #if (defined (__ARM_FEATURE_CMSE ) && (__ARM_FEATURE_CMSE == 3))
 338:Drivers/CMSIS/Include/cmsis_gcc.h **** /**
 339:Drivers/CMSIS/Include/cmsis_gcc.h ****   \brief   Set Main Stack Pointer (non-secure)
 340:Drivers/CMSIS/Include/cmsis_gcc.h ****   \details Assigns the given value to the non-secure Main Stack Pointer (MSP) when in secure state.
 341:Drivers/CMSIS/Include/cmsis_gcc.h ****   \param [in]    topOfMainStack  Main Stack Pointer value to set
 342:Drivers/CMSIS/Include/cmsis_gcc.h ****  */
 343:Drivers/CMSIS/Include/cmsis_gcc.h **** __STATIC_FORCEINLINE void __TZ_set_MSP_NS(uint32_t topOfMainStack)
 344:Drivers/CMSIS/Include/cmsis_gcc.h **** {
 345:Drivers/CMSIS/Include/cmsis_gcc.h ****   __ASM volatile ("MSR msp_ns, %0" : : "r" (topOfMainStack) : );
 346:Drivers/CMSIS/Include/cmsis_gcc.h **** }
 347:Drivers/CMSIS/Include/cmsis_gcc.h **** #endif
 348:Drivers/CMSIS/Include/cmsis_gcc.h **** 
 349:Drivers/CMSIS/Include/cmsis_gcc.h **** 
 350:Drivers/CMSIS/Include/cmsis_gcc.h **** #if (defined (__ARM_FEATURE_CMSE ) && (__ARM_FEATURE_CMSE == 3))
 351:Drivers/CMSIS/Include/cmsis_gcc.h **** /**
 352:Drivers/CMSIS/Include/cmsis_gcc.h ****   \brief   Get Stack Pointer (non-secure)
 353:Drivers/CMSIS/Include/cmsis_gcc.h ****   \details Returns the current value of the non-secure Stack Pointer (SP) when in secure state.
 354:Drivers/CMSIS/Include/cmsis_gcc.h ****   \return               SP Register value
 355:Drivers/CMSIS/Include/cmsis_gcc.h ****  */
 356:Drivers/CMSIS/Include/cmsis_gcc.h **** __STATIC_FORCEINLINE uint32_t __TZ_get_SP_NS(void)
 357:Drivers/CMSIS/Include/cmsis_gcc.h **** {
 358:Drivers/CMSIS/Include/cmsis_gcc.h ****   uint32_t result;
 359:Drivers/CMSIS/Include/cmsis_gcc.h **** 
 360:Drivers/CMSIS/Include/cmsis_gcc.h ****   __ASM volatile ("MRS %0, sp_ns" : "=r" (result) );
 361:Drivers/CMSIS/Include/cmsis_gcc.h ****   return(result);
ARM GAS  C:\Users\LIGUOH~1\AppData\Local\Temp\ccgA945g.s 			page 21


 362:Drivers/CMSIS/Include/cmsis_gcc.h **** }
 363:Drivers/CMSIS/Include/cmsis_gcc.h **** 
 364:Drivers/CMSIS/Include/cmsis_gcc.h **** 
 365:Drivers/CMSIS/Include/cmsis_gcc.h **** /**
 366:Drivers/CMSIS/Include/cmsis_gcc.h ****   \brief   Set Stack Pointer (non-secure)
 367:Drivers/CMSIS/Include/cmsis_gcc.h ****   \details Assigns the given value to the non-secure Stack Pointer (SP) when in secure state.
 368:Drivers/CMSIS/Include/cmsis_gcc.h ****   \param [in]    topOfStack  Stack Pointer value to set
 369:Drivers/CMSIS/Include/cmsis_gcc.h ****  */
 370:Drivers/CMSIS/Include/cmsis_gcc.h **** __STATIC_FORCEINLINE void __TZ_set_SP_NS(uint32_t topOfStack)
 371:Drivers/CMSIS/Include/cmsis_gcc.h **** {
 372:Drivers/CMSIS/Include/cmsis_gcc.h ****   __ASM volatile ("MSR sp_ns, %0" : : "r" (topOfStack) : );
 373:Drivers/CMSIS/Include/cmsis_gcc.h **** }
 374:Drivers/CMSIS/Include/cmsis_gcc.h **** #endif
 375:Drivers/CMSIS/Include/cmsis_gcc.h **** 
 376:Drivers/CMSIS/Include/cmsis_gcc.h **** 
 377:Drivers/CMSIS/Include/cmsis_gcc.h **** /**
 378:Drivers/CMSIS/Include/cmsis_gcc.h ****   \brief   Get Priority Mask
 379:Drivers/CMSIS/Include/cmsis_gcc.h ****   \details Returns the current state of the priority mask bit from the Priority Mask Register.
 380:Drivers/CMSIS/Include/cmsis_gcc.h ****   \return               Priority Mask value
 381:Drivers/CMSIS/Include/cmsis_gcc.h ****  */
 382:Drivers/CMSIS/Include/cmsis_gcc.h **** __STATIC_FORCEINLINE uint32_t __get_PRIMASK(void)
 383:Drivers/CMSIS/Include/cmsis_gcc.h **** {
 384:Drivers/CMSIS/Include/cmsis_gcc.h ****   uint32_t result;
 385:Drivers/CMSIS/Include/cmsis_gcc.h **** 
 386:Drivers/CMSIS/Include/cmsis_gcc.h ****   __ASM volatile ("MRS %0, primask" : "=r" (result) :: "memory");
 387:Drivers/CMSIS/Include/cmsis_gcc.h ****   return(result);
 388:Drivers/CMSIS/Include/cmsis_gcc.h **** }
 389:Drivers/CMSIS/Include/cmsis_gcc.h **** 
 390:Drivers/CMSIS/Include/cmsis_gcc.h **** 
 391:Drivers/CMSIS/Include/cmsis_gcc.h **** #if (defined (__ARM_FEATURE_CMSE ) && (__ARM_FEATURE_CMSE == 3))
 392:Drivers/CMSIS/Include/cmsis_gcc.h **** /**
 393:Drivers/CMSIS/Include/cmsis_gcc.h ****   \brief   Get Priority Mask (non-secure)
 394:Drivers/CMSIS/Include/cmsis_gcc.h ****   \details Returns the current state of the non-secure priority mask bit from the Priority Mask Reg
 395:Drivers/CMSIS/Include/cmsis_gcc.h ****   \return               Priority Mask value
 396:Drivers/CMSIS/Include/cmsis_gcc.h ****  */
 397:Drivers/CMSIS/Include/cmsis_gcc.h **** __STATIC_FORCEINLINE uint32_t __TZ_get_PRIMASK_NS(void)
 398:Drivers/CMSIS/Include/cmsis_gcc.h **** {
 399:Drivers/CMSIS/Include/cmsis_gcc.h ****   uint32_t result;
 400:Drivers/CMSIS/Include/cmsis_gcc.h **** 
 401:Drivers/CMSIS/Include/cmsis_gcc.h ****   __ASM volatile ("MRS %0, primask_ns" : "=r" (result) :: "memory");
 402:Drivers/CMSIS/Include/cmsis_gcc.h ****   return(result);
 403:Drivers/CMSIS/Include/cmsis_gcc.h **** }
 404:Drivers/CMSIS/Include/cmsis_gcc.h **** #endif
 405:Drivers/CMSIS/Include/cmsis_gcc.h **** 
 406:Drivers/CMSIS/Include/cmsis_gcc.h **** 
 407:Drivers/CMSIS/Include/cmsis_gcc.h **** /**
 408:Drivers/CMSIS/Include/cmsis_gcc.h ****   \brief   Set Priority Mask
 409:Drivers/CMSIS/Include/cmsis_gcc.h ****   \details Assigns the given value to the Priority Mask Register.
 410:Drivers/CMSIS/Include/cmsis_gcc.h ****   \param [in]    priMask  Priority Mask
 411:Drivers/CMSIS/Include/cmsis_gcc.h ****  */
 412:Drivers/CMSIS/Include/cmsis_gcc.h **** __STATIC_FORCEINLINE void __set_PRIMASK(uint32_t priMask)
 413:Drivers/CMSIS/Include/cmsis_gcc.h **** {
 414:Drivers/CMSIS/Include/cmsis_gcc.h ****   __ASM volatile ("MSR primask, %0" : : "r" (priMask) : "memory");
 415:Drivers/CMSIS/Include/cmsis_gcc.h **** }
 416:Drivers/CMSIS/Include/cmsis_gcc.h **** 
 417:Drivers/CMSIS/Include/cmsis_gcc.h **** 
 418:Drivers/CMSIS/Include/cmsis_gcc.h **** #if (defined (__ARM_FEATURE_CMSE ) && (__ARM_FEATURE_CMSE == 3))
ARM GAS  C:\Users\LIGUOH~1\AppData\Local\Temp\ccgA945g.s 			page 22


 419:Drivers/CMSIS/Include/cmsis_gcc.h **** /**
 420:Drivers/CMSIS/Include/cmsis_gcc.h ****   \brief   Set Priority Mask (non-secure)
 421:Drivers/CMSIS/Include/cmsis_gcc.h ****   \details Assigns the given value to the non-secure Priority Mask Register when in secure state.
 422:Drivers/CMSIS/Include/cmsis_gcc.h ****   \param [in]    priMask  Priority Mask
 423:Drivers/CMSIS/Include/cmsis_gcc.h ****  */
 424:Drivers/CMSIS/Include/cmsis_gcc.h **** __STATIC_FORCEINLINE void __TZ_set_PRIMASK_NS(uint32_t priMask)
 425:Drivers/CMSIS/Include/cmsis_gcc.h **** {
 426:Drivers/CMSIS/Include/cmsis_gcc.h ****   __ASM volatile ("MSR primask_ns, %0" : : "r" (priMask) : "memory");
 427:Drivers/CMSIS/Include/cmsis_gcc.h **** }
 428:Drivers/CMSIS/Include/cmsis_gcc.h **** #endif
 429:Drivers/CMSIS/Include/cmsis_gcc.h **** 
 430:Drivers/CMSIS/Include/cmsis_gcc.h **** 
 431:Drivers/CMSIS/Include/cmsis_gcc.h **** #if ((defined (__ARM_ARCH_7M__      ) && (__ARM_ARCH_7M__      == 1)) || \
 432:Drivers/CMSIS/Include/cmsis_gcc.h ****      (defined (__ARM_ARCH_7EM__     ) && (__ARM_ARCH_7EM__     == 1)) || \
 433:Drivers/CMSIS/Include/cmsis_gcc.h ****      (defined (__ARM_ARCH_8M_MAIN__ ) && (__ARM_ARCH_8M_MAIN__ == 1))    )
 434:Drivers/CMSIS/Include/cmsis_gcc.h **** /**
 435:Drivers/CMSIS/Include/cmsis_gcc.h ****   \brief   Enable FIQ
 436:Drivers/CMSIS/Include/cmsis_gcc.h ****   \details Enables FIQ interrupts by clearing the F-bit in the CPSR.
 437:Drivers/CMSIS/Include/cmsis_gcc.h ****            Can only be executed in Privileged modes.
 438:Drivers/CMSIS/Include/cmsis_gcc.h ****  */
 439:Drivers/CMSIS/Include/cmsis_gcc.h **** __STATIC_FORCEINLINE void __enable_fault_irq(void)
 440:Drivers/CMSIS/Include/cmsis_gcc.h **** {
 441:Drivers/CMSIS/Include/cmsis_gcc.h ****   __ASM volatile ("cpsie f" : : : "memory");
 442:Drivers/CMSIS/Include/cmsis_gcc.h **** }
 443:Drivers/CMSIS/Include/cmsis_gcc.h **** 
 444:Drivers/CMSIS/Include/cmsis_gcc.h **** 
 445:Drivers/CMSIS/Include/cmsis_gcc.h **** /**
 446:Drivers/CMSIS/Include/cmsis_gcc.h ****   \brief   Disable FIQ
 447:Drivers/CMSIS/Include/cmsis_gcc.h ****   \details Disables FIQ interrupts by setting the F-bit in the CPSR.
 448:Drivers/CMSIS/Include/cmsis_gcc.h ****            Can only be executed in Privileged modes.
 449:Drivers/CMSIS/Include/cmsis_gcc.h ****  */
 450:Drivers/CMSIS/Include/cmsis_gcc.h **** __STATIC_FORCEINLINE void __disable_fault_irq(void)
 451:Drivers/CMSIS/Include/cmsis_gcc.h **** {
 452:Drivers/CMSIS/Include/cmsis_gcc.h ****   __ASM volatile ("cpsid f" : : : "memory");
 453:Drivers/CMSIS/Include/cmsis_gcc.h **** }
 454:Drivers/CMSIS/Include/cmsis_gcc.h **** 
 455:Drivers/CMSIS/Include/cmsis_gcc.h **** 
 456:Drivers/CMSIS/Include/cmsis_gcc.h **** /**
 457:Drivers/CMSIS/Include/cmsis_gcc.h ****   \brief   Get Base Priority
 458:Drivers/CMSIS/Include/cmsis_gcc.h ****   \details Returns the current value of the Base Priority register.
 459:Drivers/CMSIS/Include/cmsis_gcc.h ****   \return               Base Priority register value
 460:Drivers/CMSIS/Include/cmsis_gcc.h ****  */
 461:Drivers/CMSIS/Include/cmsis_gcc.h **** __STATIC_FORCEINLINE uint32_t __get_BASEPRI(void)
 462:Drivers/CMSIS/Include/cmsis_gcc.h **** {
 463:Drivers/CMSIS/Include/cmsis_gcc.h ****   uint32_t result;
 464:Drivers/CMSIS/Include/cmsis_gcc.h **** 
 465:Drivers/CMSIS/Include/cmsis_gcc.h ****   __ASM volatile ("MRS %0, basepri" : "=r" (result) );
 466:Drivers/CMSIS/Include/cmsis_gcc.h ****   return(result);
 467:Drivers/CMSIS/Include/cmsis_gcc.h **** }
 468:Drivers/CMSIS/Include/cmsis_gcc.h **** 
 469:Drivers/CMSIS/Include/cmsis_gcc.h **** 
 470:Drivers/CMSIS/Include/cmsis_gcc.h **** #if (defined (__ARM_FEATURE_CMSE ) && (__ARM_FEATURE_CMSE == 3))
 471:Drivers/CMSIS/Include/cmsis_gcc.h **** /**
 472:Drivers/CMSIS/Include/cmsis_gcc.h ****   \brief   Get Base Priority (non-secure)
 473:Drivers/CMSIS/Include/cmsis_gcc.h ****   \details Returns the current value of the non-secure Base Priority register when in secure state.
 474:Drivers/CMSIS/Include/cmsis_gcc.h ****   \return               Base Priority register value
 475:Drivers/CMSIS/Include/cmsis_gcc.h ****  */
ARM GAS  C:\Users\LIGUOH~1\AppData\Local\Temp\ccgA945g.s 			page 23


 476:Drivers/CMSIS/Include/cmsis_gcc.h **** __STATIC_FORCEINLINE uint32_t __TZ_get_BASEPRI_NS(void)
 477:Drivers/CMSIS/Include/cmsis_gcc.h **** {
 478:Drivers/CMSIS/Include/cmsis_gcc.h ****   uint32_t result;
 479:Drivers/CMSIS/Include/cmsis_gcc.h **** 
 480:Drivers/CMSIS/Include/cmsis_gcc.h ****   __ASM volatile ("MRS %0, basepri_ns" : "=r" (result) );
 481:Drivers/CMSIS/Include/cmsis_gcc.h ****   return(result);
 482:Drivers/CMSIS/Include/cmsis_gcc.h **** }
 483:Drivers/CMSIS/Include/cmsis_gcc.h **** #endif
 484:Drivers/CMSIS/Include/cmsis_gcc.h **** 
 485:Drivers/CMSIS/Include/cmsis_gcc.h **** 
 486:Drivers/CMSIS/Include/cmsis_gcc.h **** /**
 487:Drivers/CMSIS/Include/cmsis_gcc.h ****   \brief   Set Base Priority
 488:Drivers/CMSIS/Include/cmsis_gcc.h ****   \details Assigns the given value to the Base Priority register.
 489:Drivers/CMSIS/Include/cmsis_gcc.h ****   \param [in]    basePri  Base Priority value to set
 490:Drivers/CMSIS/Include/cmsis_gcc.h ****  */
 491:Drivers/CMSIS/Include/cmsis_gcc.h **** __STATIC_FORCEINLINE void __set_BASEPRI(uint32_t basePri)
 492:Drivers/CMSIS/Include/cmsis_gcc.h **** {
 493:Drivers/CMSIS/Include/cmsis_gcc.h ****   __ASM volatile ("MSR basepri, %0" : : "r" (basePri) : "memory");
 494:Drivers/CMSIS/Include/cmsis_gcc.h **** }
 495:Drivers/CMSIS/Include/cmsis_gcc.h **** 
 496:Drivers/CMSIS/Include/cmsis_gcc.h **** 
 497:Drivers/CMSIS/Include/cmsis_gcc.h **** #if (defined (__ARM_FEATURE_CMSE ) && (__ARM_FEATURE_CMSE == 3))
 498:Drivers/CMSIS/Include/cmsis_gcc.h **** /**
 499:Drivers/CMSIS/Include/cmsis_gcc.h ****   \brief   Set Base Priority (non-secure)
 500:Drivers/CMSIS/Include/cmsis_gcc.h ****   \details Assigns the given value to the non-secure Base Priority register when in secure state.
 501:Drivers/CMSIS/Include/cmsis_gcc.h ****   \param [in]    basePri  Base Priority value to set
 502:Drivers/CMSIS/Include/cmsis_gcc.h ****  */
 503:Drivers/CMSIS/Include/cmsis_gcc.h **** __STATIC_FORCEINLINE void __TZ_set_BASEPRI_NS(uint32_t basePri)
 504:Drivers/CMSIS/Include/cmsis_gcc.h **** {
 505:Drivers/CMSIS/Include/cmsis_gcc.h ****   __ASM volatile ("MSR basepri_ns, %0" : : "r" (basePri) : "memory");
 506:Drivers/CMSIS/Include/cmsis_gcc.h **** }
 507:Drivers/CMSIS/Include/cmsis_gcc.h **** #endif
 508:Drivers/CMSIS/Include/cmsis_gcc.h **** 
 509:Drivers/CMSIS/Include/cmsis_gcc.h **** 
 510:Drivers/CMSIS/Include/cmsis_gcc.h **** /**
 511:Drivers/CMSIS/Include/cmsis_gcc.h ****   \brief   Set Base Priority with condition
 512:Drivers/CMSIS/Include/cmsis_gcc.h ****   \details Assigns the given value to the Base Priority register only if BASEPRI masking is disable
 513:Drivers/CMSIS/Include/cmsis_gcc.h ****            or the new value increases the BASEPRI priority level.
 514:Drivers/CMSIS/Include/cmsis_gcc.h ****   \param [in]    basePri  Base Priority value to set
 515:Drivers/CMSIS/Include/cmsis_gcc.h ****  */
 516:Drivers/CMSIS/Include/cmsis_gcc.h **** __STATIC_FORCEINLINE void __set_BASEPRI_MAX(uint32_t basePri)
 517:Drivers/CMSIS/Include/cmsis_gcc.h **** {
 518:Drivers/CMSIS/Include/cmsis_gcc.h ****   __ASM volatile ("MSR basepri_max, %0" : : "r" (basePri) : "memory");
 519:Drivers/CMSIS/Include/cmsis_gcc.h **** }
 520:Drivers/CMSIS/Include/cmsis_gcc.h **** 
 521:Drivers/CMSIS/Include/cmsis_gcc.h **** 
 522:Drivers/CMSIS/Include/cmsis_gcc.h **** /**
 523:Drivers/CMSIS/Include/cmsis_gcc.h ****   \brief   Get Fault Mask
 524:Drivers/CMSIS/Include/cmsis_gcc.h ****   \details Returns the current value of the Fault Mask register.
 525:Drivers/CMSIS/Include/cmsis_gcc.h ****   \return               Fault Mask register value
 526:Drivers/CMSIS/Include/cmsis_gcc.h ****  */
 527:Drivers/CMSIS/Include/cmsis_gcc.h **** __STATIC_FORCEINLINE uint32_t __get_FAULTMASK(void)
 528:Drivers/CMSIS/Include/cmsis_gcc.h **** {
 529:Drivers/CMSIS/Include/cmsis_gcc.h ****   uint32_t result;
 530:Drivers/CMSIS/Include/cmsis_gcc.h **** 
 531:Drivers/CMSIS/Include/cmsis_gcc.h ****   __ASM volatile ("MRS %0, faultmask" : "=r" (result) );
 532:Drivers/CMSIS/Include/cmsis_gcc.h ****   return(result);
ARM GAS  C:\Users\LIGUOH~1\AppData\Local\Temp\ccgA945g.s 			page 24


 533:Drivers/CMSIS/Include/cmsis_gcc.h **** }
 534:Drivers/CMSIS/Include/cmsis_gcc.h **** 
 535:Drivers/CMSIS/Include/cmsis_gcc.h **** 
 536:Drivers/CMSIS/Include/cmsis_gcc.h **** #if (defined (__ARM_FEATURE_CMSE ) && (__ARM_FEATURE_CMSE == 3))
 537:Drivers/CMSIS/Include/cmsis_gcc.h **** /**
 538:Drivers/CMSIS/Include/cmsis_gcc.h ****   \brief   Get Fault Mask (non-secure)
 539:Drivers/CMSIS/Include/cmsis_gcc.h ****   \details Returns the current value of the non-secure Fault Mask register when in secure state.
 540:Drivers/CMSIS/Include/cmsis_gcc.h ****   \return               Fault Mask register value
 541:Drivers/CMSIS/Include/cmsis_gcc.h ****  */
 542:Drivers/CMSIS/Include/cmsis_gcc.h **** __STATIC_FORCEINLINE uint32_t __TZ_get_FAULTMASK_NS(void)
 543:Drivers/CMSIS/Include/cmsis_gcc.h **** {
 544:Drivers/CMSIS/Include/cmsis_gcc.h ****   uint32_t result;
 545:Drivers/CMSIS/Include/cmsis_gcc.h **** 
 546:Drivers/CMSIS/Include/cmsis_gcc.h ****   __ASM volatile ("MRS %0, faultmask_ns" : "=r" (result) );
 547:Drivers/CMSIS/Include/cmsis_gcc.h ****   return(result);
 548:Drivers/CMSIS/Include/cmsis_gcc.h **** }
 549:Drivers/CMSIS/Include/cmsis_gcc.h **** #endif
 550:Drivers/CMSIS/Include/cmsis_gcc.h **** 
 551:Drivers/CMSIS/Include/cmsis_gcc.h **** 
 552:Drivers/CMSIS/Include/cmsis_gcc.h **** /**
 553:Drivers/CMSIS/Include/cmsis_gcc.h ****   \brief   Set Fault Mask
 554:Drivers/CMSIS/Include/cmsis_gcc.h ****   \details Assigns the given value to the Fault Mask register.
 555:Drivers/CMSIS/Include/cmsis_gcc.h ****   \param [in]    faultMask  Fault Mask value to set
 556:Drivers/CMSIS/Include/cmsis_gcc.h ****  */
 557:Drivers/CMSIS/Include/cmsis_gcc.h **** __STATIC_FORCEINLINE void __set_FAULTMASK(uint32_t faultMask)
 558:Drivers/CMSIS/Include/cmsis_gcc.h **** {
 559:Drivers/CMSIS/Include/cmsis_gcc.h ****   __ASM volatile ("MSR faultmask, %0" : : "r" (faultMask) : "memory");
 560:Drivers/CMSIS/Include/cmsis_gcc.h **** }
 561:Drivers/CMSIS/Include/cmsis_gcc.h **** 
 562:Drivers/CMSIS/Include/cmsis_gcc.h **** 
 563:Drivers/CMSIS/Include/cmsis_gcc.h **** #if (defined (__ARM_FEATURE_CMSE ) && (__ARM_FEATURE_CMSE == 3))
 564:Drivers/CMSIS/Include/cmsis_gcc.h **** /**
 565:Drivers/CMSIS/Include/cmsis_gcc.h ****   \brief   Set Fault Mask (non-secure)
 566:Drivers/CMSIS/Include/cmsis_gcc.h ****   \details Assigns the given value to the non-secure Fault Mask register when in secure state.
 567:Drivers/CMSIS/Include/cmsis_gcc.h ****   \param [in]    faultMask  Fault Mask value to set
 568:Drivers/CMSIS/Include/cmsis_gcc.h ****  */
 569:Drivers/CMSIS/Include/cmsis_gcc.h **** __STATIC_FORCEINLINE void __TZ_set_FAULTMASK_NS(uint32_t faultMask)
 570:Drivers/CMSIS/Include/cmsis_gcc.h **** {
 571:Drivers/CMSIS/Include/cmsis_gcc.h ****   __ASM volatile ("MSR faultmask_ns, %0" : : "r" (faultMask) : "memory");
 572:Drivers/CMSIS/Include/cmsis_gcc.h **** }
 573:Drivers/CMSIS/Include/cmsis_gcc.h **** #endif
 574:Drivers/CMSIS/Include/cmsis_gcc.h **** 
 575:Drivers/CMSIS/Include/cmsis_gcc.h **** #endif /* ((defined (__ARM_ARCH_7M__      ) && (__ARM_ARCH_7M__      == 1)) || \
 576:Drivers/CMSIS/Include/cmsis_gcc.h ****            (defined (__ARM_ARCH_7EM__     ) && (__ARM_ARCH_7EM__     == 1)) || \
 577:Drivers/CMSIS/Include/cmsis_gcc.h ****            (defined (__ARM_ARCH_8M_MAIN__ ) && (__ARM_ARCH_8M_MAIN__ == 1))    ) */
 578:Drivers/CMSIS/Include/cmsis_gcc.h **** 
 579:Drivers/CMSIS/Include/cmsis_gcc.h **** 
 580:Drivers/CMSIS/Include/cmsis_gcc.h **** #if ((defined (__ARM_ARCH_8M_MAIN__ ) && (__ARM_ARCH_8M_MAIN__ == 1)) || \
 581:Drivers/CMSIS/Include/cmsis_gcc.h ****      (defined (__ARM_ARCH_8M_BASE__ ) && (__ARM_ARCH_8M_BASE__ == 1))    )
 582:Drivers/CMSIS/Include/cmsis_gcc.h **** 
 583:Drivers/CMSIS/Include/cmsis_gcc.h **** /**
 584:Drivers/CMSIS/Include/cmsis_gcc.h ****   \brief   Get Process Stack Pointer Limit
 585:Drivers/CMSIS/Include/cmsis_gcc.h ****   Devices without ARMv8-M Main Extensions (i.e. Cortex-M23) lack the non-secure
 586:Drivers/CMSIS/Include/cmsis_gcc.h ****   Stack Pointer Limit register hence zero is returned always in non-secure
 587:Drivers/CMSIS/Include/cmsis_gcc.h ****   mode.
 588:Drivers/CMSIS/Include/cmsis_gcc.h ****   
 589:Drivers/CMSIS/Include/cmsis_gcc.h ****   \details Returns the current value of the Process Stack Pointer Limit (PSPLIM).
ARM GAS  C:\Users\LIGUOH~1\AppData\Local\Temp\ccgA945g.s 			page 25


 590:Drivers/CMSIS/Include/cmsis_gcc.h ****   \return               PSPLIM Register value
 591:Drivers/CMSIS/Include/cmsis_gcc.h ****  */
 592:Drivers/CMSIS/Include/cmsis_gcc.h **** __STATIC_FORCEINLINE uint32_t __get_PSPLIM(void)
 593:Drivers/CMSIS/Include/cmsis_gcc.h **** {
 594:Drivers/CMSIS/Include/cmsis_gcc.h **** #if (!(defined (__ARM_ARCH_8M_MAIN__ ) && (__ARM_ARCH_8M_MAIN__ == 1)) && \
 595:Drivers/CMSIS/Include/cmsis_gcc.h ****     (!defined (__ARM_FEATURE_CMSE) || (__ARM_FEATURE_CMSE < 3)))
 596:Drivers/CMSIS/Include/cmsis_gcc.h ****     // without main extensions, the non-secure PSPLIM is RAZ/WI
 597:Drivers/CMSIS/Include/cmsis_gcc.h ****   return 0U;
 598:Drivers/CMSIS/Include/cmsis_gcc.h **** #else
 599:Drivers/CMSIS/Include/cmsis_gcc.h ****   uint32_t result;
 600:Drivers/CMSIS/Include/cmsis_gcc.h ****   __ASM volatile ("MRS %0, psplim"  : "=r" (result) );
 601:Drivers/CMSIS/Include/cmsis_gcc.h ****   return result;
 602:Drivers/CMSIS/Include/cmsis_gcc.h **** #endif
 603:Drivers/CMSIS/Include/cmsis_gcc.h **** }
 604:Drivers/CMSIS/Include/cmsis_gcc.h **** 
 605:Drivers/CMSIS/Include/cmsis_gcc.h **** #if (defined (__ARM_FEATURE_CMSE) && (__ARM_FEATURE_CMSE == 3))
 606:Drivers/CMSIS/Include/cmsis_gcc.h **** /**
 607:Drivers/CMSIS/Include/cmsis_gcc.h ****   \brief   Get Process Stack Pointer Limit (non-secure)
 608:Drivers/CMSIS/Include/cmsis_gcc.h ****   Devices without ARMv8-M Main Extensions (i.e. Cortex-M23) lack the non-secure
 609:Drivers/CMSIS/Include/cmsis_gcc.h ****   Stack Pointer Limit register hence zero is returned always.
 610:Drivers/CMSIS/Include/cmsis_gcc.h **** 
 611:Drivers/CMSIS/Include/cmsis_gcc.h ****   \details Returns the current value of the non-secure Process Stack Pointer Limit (PSPLIM) when in
 612:Drivers/CMSIS/Include/cmsis_gcc.h ****   \return               PSPLIM Register value
 613:Drivers/CMSIS/Include/cmsis_gcc.h ****  */
 614:Drivers/CMSIS/Include/cmsis_gcc.h **** __STATIC_FORCEINLINE uint32_t __TZ_get_PSPLIM_NS(void)
 615:Drivers/CMSIS/Include/cmsis_gcc.h **** {
 616:Drivers/CMSIS/Include/cmsis_gcc.h **** #if (!(defined (__ARM_ARCH_8M_MAIN__ ) && (__ARM_ARCH_8M_MAIN__ == 1)))
 617:Drivers/CMSIS/Include/cmsis_gcc.h ****   // without main extensions, the non-secure PSPLIM is RAZ/WI
 618:Drivers/CMSIS/Include/cmsis_gcc.h ****   return 0U;
 619:Drivers/CMSIS/Include/cmsis_gcc.h **** #else
 620:Drivers/CMSIS/Include/cmsis_gcc.h ****   uint32_t result;
 621:Drivers/CMSIS/Include/cmsis_gcc.h ****   __ASM volatile ("MRS %0, psplim_ns"  : "=r" (result) );
 622:Drivers/CMSIS/Include/cmsis_gcc.h ****   return result;
 623:Drivers/CMSIS/Include/cmsis_gcc.h **** #endif
 624:Drivers/CMSIS/Include/cmsis_gcc.h **** }
 625:Drivers/CMSIS/Include/cmsis_gcc.h **** #endif
 626:Drivers/CMSIS/Include/cmsis_gcc.h **** 
 627:Drivers/CMSIS/Include/cmsis_gcc.h **** 
 628:Drivers/CMSIS/Include/cmsis_gcc.h **** /**
 629:Drivers/CMSIS/Include/cmsis_gcc.h ****   \brief   Set Process Stack Pointer Limit
 630:Drivers/CMSIS/Include/cmsis_gcc.h ****   Devices without ARMv8-M Main Extensions (i.e. Cortex-M23) lack the non-secure
 631:Drivers/CMSIS/Include/cmsis_gcc.h ****   Stack Pointer Limit register hence the write is silently ignored in non-secure
 632:Drivers/CMSIS/Include/cmsis_gcc.h ****   mode.
 633:Drivers/CMSIS/Include/cmsis_gcc.h ****   
 634:Drivers/CMSIS/Include/cmsis_gcc.h ****   \details Assigns the given value to the Process Stack Pointer Limit (PSPLIM).
 635:Drivers/CMSIS/Include/cmsis_gcc.h ****   \param [in]    ProcStackPtrLimit  Process Stack Pointer Limit value to set
 636:Drivers/CMSIS/Include/cmsis_gcc.h ****  */
 637:Drivers/CMSIS/Include/cmsis_gcc.h **** __STATIC_FORCEINLINE void __set_PSPLIM(uint32_t ProcStackPtrLimit)
 638:Drivers/CMSIS/Include/cmsis_gcc.h **** {
 639:Drivers/CMSIS/Include/cmsis_gcc.h **** #if (!(defined (__ARM_ARCH_8M_MAIN__ ) && (__ARM_ARCH_8M_MAIN__ == 1)) && \
 640:Drivers/CMSIS/Include/cmsis_gcc.h ****     (!defined (__ARM_FEATURE_CMSE) || (__ARM_FEATURE_CMSE < 3)))
 641:Drivers/CMSIS/Include/cmsis_gcc.h ****   // without main extensions, the non-secure PSPLIM is RAZ/WI
 642:Drivers/CMSIS/Include/cmsis_gcc.h ****   (void)ProcStackPtrLimit;
 643:Drivers/CMSIS/Include/cmsis_gcc.h **** #else
 644:Drivers/CMSIS/Include/cmsis_gcc.h ****   __ASM volatile ("MSR psplim, %0" : : "r" (ProcStackPtrLimit));
 645:Drivers/CMSIS/Include/cmsis_gcc.h **** #endif
 646:Drivers/CMSIS/Include/cmsis_gcc.h **** }
ARM GAS  C:\Users\LIGUOH~1\AppData\Local\Temp\ccgA945g.s 			page 26


 647:Drivers/CMSIS/Include/cmsis_gcc.h **** 
 648:Drivers/CMSIS/Include/cmsis_gcc.h **** 
 649:Drivers/CMSIS/Include/cmsis_gcc.h **** #if (defined (__ARM_FEATURE_CMSE  ) && (__ARM_FEATURE_CMSE   == 3))
 650:Drivers/CMSIS/Include/cmsis_gcc.h **** /**
 651:Drivers/CMSIS/Include/cmsis_gcc.h ****   \brief   Set Process Stack Pointer (non-secure)
 652:Drivers/CMSIS/Include/cmsis_gcc.h ****   Devices without ARMv8-M Main Extensions (i.e. Cortex-M23) lack the non-secure
 653:Drivers/CMSIS/Include/cmsis_gcc.h ****   Stack Pointer Limit register hence the write is silently ignored.
 654:Drivers/CMSIS/Include/cmsis_gcc.h **** 
 655:Drivers/CMSIS/Include/cmsis_gcc.h ****   \details Assigns the given value to the non-secure Process Stack Pointer Limit (PSPLIM) when in s
 656:Drivers/CMSIS/Include/cmsis_gcc.h ****   \param [in]    ProcStackPtrLimit  Process Stack Pointer Limit value to set
 657:Drivers/CMSIS/Include/cmsis_gcc.h ****  */
 658:Drivers/CMSIS/Include/cmsis_gcc.h **** __STATIC_FORCEINLINE void __TZ_set_PSPLIM_NS(uint32_t ProcStackPtrLimit)
 659:Drivers/CMSIS/Include/cmsis_gcc.h **** {
 660:Drivers/CMSIS/Include/cmsis_gcc.h **** #if (!(defined (__ARM_ARCH_8M_MAIN__ ) && (__ARM_ARCH_8M_MAIN__ == 1)))
 661:Drivers/CMSIS/Include/cmsis_gcc.h ****   // without main extensions, the non-secure PSPLIM is RAZ/WI
 662:Drivers/CMSIS/Include/cmsis_gcc.h ****   (void)ProcStackPtrLimit;
 663:Drivers/CMSIS/Include/cmsis_gcc.h **** #else
 664:Drivers/CMSIS/Include/cmsis_gcc.h ****   __ASM volatile ("MSR psplim_ns, %0\n" : : "r" (ProcStackPtrLimit));
 665:Drivers/CMSIS/Include/cmsis_gcc.h **** #endif
 666:Drivers/CMSIS/Include/cmsis_gcc.h **** }
 667:Drivers/CMSIS/Include/cmsis_gcc.h **** #endif
 668:Drivers/CMSIS/Include/cmsis_gcc.h **** 
 669:Drivers/CMSIS/Include/cmsis_gcc.h **** 
 670:Drivers/CMSIS/Include/cmsis_gcc.h **** /**
 671:Drivers/CMSIS/Include/cmsis_gcc.h ****   \brief   Get Main Stack Pointer Limit
 672:Drivers/CMSIS/Include/cmsis_gcc.h ****   Devices without ARMv8-M Main Extensions (i.e. Cortex-M23) lack the non-secure
 673:Drivers/CMSIS/Include/cmsis_gcc.h ****   Stack Pointer Limit register hence zero is returned always in non-secure
 674:Drivers/CMSIS/Include/cmsis_gcc.h ****   mode.
 675:Drivers/CMSIS/Include/cmsis_gcc.h **** 
 676:Drivers/CMSIS/Include/cmsis_gcc.h ****   \details Returns the current value of the Main Stack Pointer Limit (MSPLIM).
 677:Drivers/CMSIS/Include/cmsis_gcc.h ****   \return               MSPLIM Register value
 678:Drivers/CMSIS/Include/cmsis_gcc.h ****  */
 679:Drivers/CMSIS/Include/cmsis_gcc.h **** __STATIC_FORCEINLINE uint32_t __get_MSPLIM(void)
 680:Drivers/CMSIS/Include/cmsis_gcc.h **** {
 681:Drivers/CMSIS/Include/cmsis_gcc.h **** #if (!(defined (__ARM_ARCH_8M_MAIN__ ) && (__ARM_ARCH_8M_MAIN__ == 1)) && \
 682:Drivers/CMSIS/Include/cmsis_gcc.h ****     (!defined (__ARM_FEATURE_CMSE) || (__ARM_FEATURE_CMSE < 3)))
 683:Drivers/CMSIS/Include/cmsis_gcc.h ****   // without main extensions, the non-secure MSPLIM is RAZ/WI
 684:Drivers/CMSIS/Include/cmsis_gcc.h ****   return 0U;
 685:Drivers/CMSIS/Include/cmsis_gcc.h **** #else
 686:Drivers/CMSIS/Include/cmsis_gcc.h ****   uint32_t result;
 687:Drivers/CMSIS/Include/cmsis_gcc.h ****   __ASM volatile ("MRS %0, msplim" : "=r" (result) );
 688:Drivers/CMSIS/Include/cmsis_gcc.h ****   return result;
 689:Drivers/CMSIS/Include/cmsis_gcc.h **** #endif
 690:Drivers/CMSIS/Include/cmsis_gcc.h **** }
 691:Drivers/CMSIS/Include/cmsis_gcc.h **** 
 692:Drivers/CMSIS/Include/cmsis_gcc.h **** 
 693:Drivers/CMSIS/Include/cmsis_gcc.h **** #if (defined (__ARM_FEATURE_CMSE  ) && (__ARM_FEATURE_CMSE   == 3))
 694:Drivers/CMSIS/Include/cmsis_gcc.h **** /**
 695:Drivers/CMSIS/Include/cmsis_gcc.h ****   \brief   Get Main Stack Pointer Limit (non-secure)
 696:Drivers/CMSIS/Include/cmsis_gcc.h ****   Devices without ARMv8-M Main Extensions (i.e. Cortex-M23) lack the non-secure
 697:Drivers/CMSIS/Include/cmsis_gcc.h ****   Stack Pointer Limit register hence zero is returned always.
 698:Drivers/CMSIS/Include/cmsis_gcc.h **** 
 699:Drivers/CMSIS/Include/cmsis_gcc.h ****   \details Returns the current value of the non-secure Main Stack Pointer Limit(MSPLIM) when in sec
 700:Drivers/CMSIS/Include/cmsis_gcc.h ****   \return               MSPLIM Register value
 701:Drivers/CMSIS/Include/cmsis_gcc.h ****  */
 702:Drivers/CMSIS/Include/cmsis_gcc.h **** __STATIC_FORCEINLINE uint32_t __TZ_get_MSPLIM_NS(void)
 703:Drivers/CMSIS/Include/cmsis_gcc.h **** {
ARM GAS  C:\Users\LIGUOH~1\AppData\Local\Temp\ccgA945g.s 			page 27


 704:Drivers/CMSIS/Include/cmsis_gcc.h **** #if (!(defined (__ARM_ARCH_8M_MAIN__ ) && (__ARM_ARCH_8M_MAIN__ == 1)))
 705:Drivers/CMSIS/Include/cmsis_gcc.h ****   // without main extensions, the non-secure MSPLIM is RAZ/WI
 706:Drivers/CMSIS/Include/cmsis_gcc.h ****   return 0U;
 707:Drivers/CMSIS/Include/cmsis_gcc.h **** #else
 708:Drivers/CMSIS/Include/cmsis_gcc.h ****   uint32_t result;
 709:Drivers/CMSIS/Include/cmsis_gcc.h ****   __ASM volatile ("MRS %0, msplim_ns" : "=r" (result) );
 710:Drivers/CMSIS/Include/cmsis_gcc.h ****   return result;
 711:Drivers/CMSIS/Include/cmsis_gcc.h **** #endif
 712:Drivers/CMSIS/Include/cmsis_gcc.h **** }
 713:Drivers/CMSIS/Include/cmsis_gcc.h **** #endif
 714:Drivers/CMSIS/Include/cmsis_gcc.h **** 
 715:Drivers/CMSIS/Include/cmsis_gcc.h **** 
 716:Drivers/CMSIS/Include/cmsis_gcc.h **** /**
 717:Drivers/CMSIS/Include/cmsis_gcc.h ****   \brief   Set Main Stack Pointer Limit
 718:Drivers/CMSIS/Include/cmsis_gcc.h ****   Devices without ARMv8-M Main Extensions (i.e. Cortex-M23) lack the non-secure
 719:Drivers/CMSIS/Include/cmsis_gcc.h ****   Stack Pointer Limit register hence the write is silently ignored in non-secure
 720:Drivers/CMSIS/Include/cmsis_gcc.h ****   mode.
 721:Drivers/CMSIS/Include/cmsis_gcc.h **** 
 722:Drivers/CMSIS/Include/cmsis_gcc.h ****   \details Assigns the given value to the Main Stack Pointer Limit (MSPLIM).
 723:Drivers/CMSIS/Include/cmsis_gcc.h ****   \param [in]    MainStackPtrLimit  Main Stack Pointer Limit value to set
 724:Drivers/CMSIS/Include/cmsis_gcc.h ****  */
 725:Drivers/CMSIS/Include/cmsis_gcc.h **** __STATIC_FORCEINLINE void __set_MSPLIM(uint32_t MainStackPtrLimit)
 726:Drivers/CMSIS/Include/cmsis_gcc.h **** {
 727:Drivers/CMSIS/Include/cmsis_gcc.h **** #if (!(defined (__ARM_ARCH_8M_MAIN__ ) && (__ARM_ARCH_8M_MAIN__ == 1)) && \
 728:Drivers/CMSIS/Include/cmsis_gcc.h ****     (!defined (__ARM_FEATURE_CMSE) || (__ARM_FEATURE_CMSE < 3)))
 729:Drivers/CMSIS/Include/cmsis_gcc.h ****   // without main extensions, the non-secure MSPLIM is RAZ/WI
 730:Drivers/CMSIS/Include/cmsis_gcc.h ****   (void)MainStackPtrLimit;
 731:Drivers/CMSIS/Include/cmsis_gcc.h **** #else
 732:Drivers/CMSIS/Include/cmsis_gcc.h ****   __ASM volatile ("MSR msplim, %0" : : "r" (MainStackPtrLimit));
 733:Drivers/CMSIS/Include/cmsis_gcc.h **** #endif
 734:Drivers/CMSIS/Include/cmsis_gcc.h **** }
 735:Drivers/CMSIS/Include/cmsis_gcc.h **** 
 736:Drivers/CMSIS/Include/cmsis_gcc.h **** 
 737:Drivers/CMSIS/Include/cmsis_gcc.h **** #if (defined (__ARM_FEATURE_CMSE  ) && (__ARM_FEATURE_CMSE   == 3))
 738:Drivers/CMSIS/Include/cmsis_gcc.h **** /**
 739:Drivers/CMSIS/Include/cmsis_gcc.h ****   \brief   Set Main Stack Pointer Limit (non-secure)
 740:Drivers/CMSIS/Include/cmsis_gcc.h ****   Devices without ARMv8-M Main Extensions (i.e. Cortex-M23) lack the non-secure
 741:Drivers/CMSIS/Include/cmsis_gcc.h ****   Stack Pointer Limit register hence the write is silently ignored.
 742:Drivers/CMSIS/Include/cmsis_gcc.h **** 
 743:Drivers/CMSIS/Include/cmsis_gcc.h ****   \details Assigns the given value to the non-secure Main Stack Pointer Limit (MSPLIM) when in secu
 744:Drivers/CMSIS/Include/cmsis_gcc.h ****   \param [in]    MainStackPtrLimit  Main Stack Pointer value to set
 745:Drivers/CMSIS/Include/cmsis_gcc.h ****  */
 746:Drivers/CMSIS/Include/cmsis_gcc.h **** __STATIC_FORCEINLINE void __TZ_set_MSPLIM_NS(uint32_t MainStackPtrLimit)
 747:Drivers/CMSIS/Include/cmsis_gcc.h **** {
 748:Drivers/CMSIS/Include/cmsis_gcc.h **** #if (!(defined (__ARM_ARCH_8M_MAIN__ ) && (__ARM_ARCH_8M_MAIN__ == 1)))
 749:Drivers/CMSIS/Include/cmsis_gcc.h ****   // without main extensions, the non-secure MSPLIM is RAZ/WI
 750:Drivers/CMSIS/Include/cmsis_gcc.h ****   (void)MainStackPtrLimit;
 751:Drivers/CMSIS/Include/cmsis_gcc.h **** #else
 752:Drivers/CMSIS/Include/cmsis_gcc.h ****   __ASM volatile ("MSR msplim_ns, %0" : : "r" (MainStackPtrLimit));
 753:Drivers/CMSIS/Include/cmsis_gcc.h **** #endif
 754:Drivers/CMSIS/Include/cmsis_gcc.h **** }
 755:Drivers/CMSIS/Include/cmsis_gcc.h **** #endif
 756:Drivers/CMSIS/Include/cmsis_gcc.h **** 
 757:Drivers/CMSIS/Include/cmsis_gcc.h **** #endif /* ((defined (__ARM_ARCH_8M_MAIN__ ) && (__ARM_ARCH_8M_MAIN__ == 1)) || \
 758:Drivers/CMSIS/Include/cmsis_gcc.h ****            (defined (__ARM_ARCH_8M_BASE__ ) && (__ARM_ARCH_8M_BASE__ == 1))    ) */
 759:Drivers/CMSIS/Include/cmsis_gcc.h **** 
 760:Drivers/CMSIS/Include/cmsis_gcc.h **** 
ARM GAS  C:\Users\LIGUOH~1\AppData\Local\Temp\ccgA945g.s 			page 28


 761:Drivers/CMSIS/Include/cmsis_gcc.h **** /**
 762:Drivers/CMSIS/Include/cmsis_gcc.h ****   \brief   Get FPSCR
 763:Drivers/CMSIS/Include/cmsis_gcc.h ****   \details Returns the current value of the Floating Point Status/Control register.
 764:Drivers/CMSIS/Include/cmsis_gcc.h ****   \return               Floating Point Status/Control register value
 765:Drivers/CMSIS/Include/cmsis_gcc.h ****  */
 766:Drivers/CMSIS/Include/cmsis_gcc.h **** __STATIC_FORCEINLINE uint32_t __get_FPSCR(void)
 767:Drivers/CMSIS/Include/cmsis_gcc.h **** {
 768:Drivers/CMSIS/Include/cmsis_gcc.h **** #if ((defined (__FPU_PRESENT) && (__FPU_PRESENT == 1U)) && \
 769:Drivers/CMSIS/Include/cmsis_gcc.h ****      (defined (__FPU_USED   ) && (__FPU_USED    == 1U))     )
 770:Drivers/CMSIS/Include/cmsis_gcc.h **** #if __has_builtin(__builtin_arm_get_fpscr) 
 771:Drivers/CMSIS/Include/cmsis_gcc.h **** // Re-enable using built-in when GCC has been fixed
 772:Drivers/CMSIS/Include/cmsis_gcc.h **** // || (__GNUC__ > 7) || (__GNUC__ == 7 && __GNUC_MINOR__ >= 2)
 773:Drivers/CMSIS/Include/cmsis_gcc.h ****   /* see https://gcc.gnu.org/ml/gcc-patches/2017-04/msg00443.html */
 774:Drivers/CMSIS/Include/cmsis_gcc.h ****   return __builtin_arm_get_fpscr();
 775:Drivers/CMSIS/Include/cmsis_gcc.h **** #else
 776:Drivers/CMSIS/Include/cmsis_gcc.h ****   uint32_t result;
 777:Drivers/CMSIS/Include/cmsis_gcc.h **** 
 778:Drivers/CMSIS/Include/cmsis_gcc.h ****   __ASM volatile ("VMRS %0, fpscr" : "=r" (result) );
 779:Drivers/CMSIS/Include/cmsis_gcc.h ****   return(result);
 780:Drivers/CMSIS/Include/cmsis_gcc.h **** #endif
 781:Drivers/CMSIS/Include/cmsis_gcc.h **** #else
 782:Drivers/CMSIS/Include/cmsis_gcc.h ****   return(0U);
 783:Drivers/CMSIS/Include/cmsis_gcc.h **** #endif
 784:Drivers/CMSIS/Include/cmsis_gcc.h **** }
 785:Drivers/CMSIS/Include/cmsis_gcc.h **** 
 786:Drivers/CMSIS/Include/cmsis_gcc.h **** 
 787:Drivers/CMSIS/Include/cmsis_gcc.h **** /**
 788:Drivers/CMSIS/Include/cmsis_gcc.h ****   \brief   Set FPSCR
 789:Drivers/CMSIS/Include/cmsis_gcc.h ****   \details Assigns the given value to the Floating Point Status/Control register.
 790:Drivers/CMSIS/Include/cmsis_gcc.h ****   \param [in]    fpscr  Floating Point Status/Control value to set
 791:Drivers/CMSIS/Include/cmsis_gcc.h ****  */
 792:Drivers/CMSIS/Include/cmsis_gcc.h **** __STATIC_FORCEINLINE void __set_FPSCR(uint32_t fpscr)
 793:Drivers/CMSIS/Include/cmsis_gcc.h **** {
 794:Drivers/CMSIS/Include/cmsis_gcc.h **** #if ((defined (__FPU_PRESENT) && (__FPU_PRESENT == 1U)) && \
 795:Drivers/CMSIS/Include/cmsis_gcc.h ****      (defined (__FPU_USED   ) && (__FPU_USED    == 1U))     )
 796:Drivers/CMSIS/Include/cmsis_gcc.h **** #if __has_builtin(__builtin_arm_set_fpscr)
 797:Drivers/CMSIS/Include/cmsis_gcc.h **** // Re-enable using built-in when GCC has been fixed
 798:Drivers/CMSIS/Include/cmsis_gcc.h **** // || (__GNUC__ > 7) || (__GNUC__ == 7 && __GNUC_MINOR__ >= 2)
 799:Drivers/CMSIS/Include/cmsis_gcc.h ****   /* see https://gcc.gnu.org/ml/gcc-patches/2017-04/msg00443.html */
 800:Drivers/CMSIS/Include/cmsis_gcc.h ****   __builtin_arm_set_fpscr(fpscr);
 801:Drivers/CMSIS/Include/cmsis_gcc.h **** #else
 802:Drivers/CMSIS/Include/cmsis_gcc.h ****   __ASM volatile ("VMSR fpscr, %0" : : "r" (fpscr) : "vfpcc", "memory");
 803:Drivers/CMSIS/Include/cmsis_gcc.h **** #endif
 804:Drivers/CMSIS/Include/cmsis_gcc.h **** #else
 805:Drivers/CMSIS/Include/cmsis_gcc.h ****   (void)fpscr;
 806:Drivers/CMSIS/Include/cmsis_gcc.h **** #endif
 807:Drivers/CMSIS/Include/cmsis_gcc.h **** }
 808:Drivers/CMSIS/Include/cmsis_gcc.h **** 
 809:Drivers/CMSIS/Include/cmsis_gcc.h **** 
 810:Drivers/CMSIS/Include/cmsis_gcc.h **** /*@} end of CMSIS_Core_RegAccFunctions */
 811:Drivers/CMSIS/Include/cmsis_gcc.h **** 
 812:Drivers/CMSIS/Include/cmsis_gcc.h **** 
 813:Drivers/CMSIS/Include/cmsis_gcc.h **** /* ##########################  Core Instruction Access  ######################### */
 814:Drivers/CMSIS/Include/cmsis_gcc.h **** /** \defgroup CMSIS_Core_InstructionInterface CMSIS Core Instruction Interface
 815:Drivers/CMSIS/Include/cmsis_gcc.h ****   Access to dedicated instructions
 816:Drivers/CMSIS/Include/cmsis_gcc.h ****   @{
 817:Drivers/CMSIS/Include/cmsis_gcc.h **** */
ARM GAS  C:\Users\LIGUOH~1\AppData\Local\Temp\ccgA945g.s 			page 29


 818:Drivers/CMSIS/Include/cmsis_gcc.h **** 
 819:Drivers/CMSIS/Include/cmsis_gcc.h **** /* Define macros for porting to both thumb1 and thumb2.
 820:Drivers/CMSIS/Include/cmsis_gcc.h ****  * For thumb1, use low register (r0-r7), specified by constraint "l"
 821:Drivers/CMSIS/Include/cmsis_gcc.h ****  * Otherwise, use general registers, specified by constraint "r" */
 822:Drivers/CMSIS/Include/cmsis_gcc.h **** #if defined (__thumb__) && !defined (__thumb2__)
 823:Drivers/CMSIS/Include/cmsis_gcc.h **** #define __CMSIS_GCC_OUT_REG(r) "=l" (r)
 824:Drivers/CMSIS/Include/cmsis_gcc.h **** #define __CMSIS_GCC_RW_REG(r) "+l" (r)
 825:Drivers/CMSIS/Include/cmsis_gcc.h **** #define __CMSIS_GCC_USE_REG(r) "l" (r)
 826:Drivers/CMSIS/Include/cmsis_gcc.h **** #else
 827:Drivers/CMSIS/Include/cmsis_gcc.h **** #define __CMSIS_GCC_OUT_REG(r) "=r" (r)
 828:Drivers/CMSIS/Include/cmsis_gcc.h **** #define __CMSIS_GCC_RW_REG(r) "+r" (r)
 829:Drivers/CMSIS/Include/cmsis_gcc.h **** #define __CMSIS_GCC_USE_REG(r) "r" (r)
 830:Drivers/CMSIS/Include/cmsis_gcc.h **** #endif
 831:Drivers/CMSIS/Include/cmsis_gcc.h **** 
 832:Drivers/CMSIS/Include/cmsis_gcc.h **** /**
 833:Drivers/CMSIS/Include/cmsis_gcc.h ****   \brief   No Operation
 834:Drivers/CMSIS/Include/cmsis_gcc.h ****   \details No Operation does nothing. This instruction can be used for code alignment purposes.
 835:Drivers/CMSIS/Include/cmsis_gcc.h ****  */
 836:Drivers/CMSIS/Include/cmsis_gcc.h **** #define __NOP()                             __ASM volatile ("nop")
 837:Drivers/CMSIS/Include/cmsis_gcc.h **** 
 838:Drivers/CMSIS/Include/cmsis_gcc.h **** /**
 839:Drivers/CMSIS/Include/cmsis_gcc.h ****   \brief   Wait For Interrupt
 840:Drivers/CMSIS/Include/cmsis_gcc.h ****   \details Wait For Interrupt is a hint instruction that suspends execution until one of a number o
 841:Drivers/CMSIS/Include/cmsis_gcc.h ****  */
 842:Drivers/CMSIS/Include/cmsis_gcc.h **** #define __WFI()                             __ASM volatile ("wfi")
 843:Drivers/CMSIS/Include/cmsis_gcc.h **** 
 844:Drivers/CMSIS/Include/cmsis_gcc.h **** 
 845:Drivers/CMSIS/Include/cmsis_gcc.h **** /**
 846:Drivers/CMSIS/Include/cmsis_gcc.h ****   \brief   Wait For Event
 847:Drivers/CMSIS/Include/cmsis_gcc.h ****   \details Wait For Event is a hint instruction that permits the processor to enter
 848:Drivers/CMSIS/Include/cmsis_gcc.h ****            a low-power state until one of a number of events occurs.
 849:Drivers/CMSIS/Include/cmsis_gcc.h ****  */
 850:Drivers/CMSIS/Include/cmsis_gcc.h **** #define __WFE()                             __ASM volatile ("wfe")
 851:Drivers/CMSIS/Include/cmsis_gcc.h **** 
 852:Drivers/CMSIS/Include/cmsis_gcc.h **** 
 853:Drivers/CMSIS/Include/cmsis_gcc.h **** /**
 854:Drivers/CMSIS/Include/cmsis_gcc.h ****   \brief   Send Event
 855:Drivers/CMSIS/Include/cmsis_gcc.h ****   \details Send Event is a hint instruction. It causes an event to be signaled to the CPU.
 856:Drivers/CMSIS/Include/cmsis_gcc.h ****  */
 857:Drivers/CMSIS/Include/cmsis_gcc.h **** #define __SEV()                             __ASM volatile ("sev")
 858:Drivers/CMSIS/Include/cmsis_gcc.h **** 
 859:Drivers/CMSIS/Include/cmsis_gcc.h **** 
 860:Drivers/CMSIS/Include/cmsis_gcc.h **** /**
 861:Drivers/CMSIS/Include/cmsis_gcc.h ****   \brief   Instruction Synchronization Barrier
 862:Drivers/CMSIS/Include/cmsis_gcc.h ****   \details Instruction Synchronization Barrier flushes the pipeline in the processor,
 863:Drivers/CMSIS/Include/cmsis_gcc.h ****            so that all instructions following the ISB are fetched from cache or memory,
 864:Drivers/CMSIS/Include/cmsis_gcc.h ****            after the instruction has been completed.
 865:Drivers/CMSIS/Include/cmsis_gcc.h ****  */
 866:Drivers/CMSIS/Include/cmsis_gcc.h **** __STATIC_FORCEINLINE void __ISB(void)
 867:Drivers/CMSIS/Include/cmsis_gcc.h **** {
 868:Drivers/CMSIS/Include/cmsis_gcc.h ****   __ASM volatile ("isb 0xF":::"memory");
 869:Drivers/CMSIS/Include/cmsis_gcc.h **** }
 870:Drivers/CMSIS/Include/cmsis_gcc.h **** 
 871:Drivers/CMSIS/Include/cmsis_gcc.h **** 
 872:Drivers/CMSIS/Include/cmsis_gcc.h **** /**
 873:Drivers/CMSIS/Include/cmsis_gcc.h ****   \brief   Data Synchronization Barrier
 874:Drivers/CMSIS/Include/cmsis_gcc.h ****   \details Acts as a special kind of Data Memory Barrier.
ARM GAS  C:\Users\LIGUOH~1\AppData\Local\Temp\ccgA945g.s 			page 30


 875:Drivers/CMSIS/Include/cmsis_gcc.h ****            It completes when all explicit memory accesses before this instruction complete.
 876:Drivers/CMSIS/Include/cmsis_gcc.h ****  */
 877:Drivers/CMSIS/Include/cmsis_gcc.h **** __STATIC_FORCEINLINE void __DSB(void)
 878:Drivers/CMSIS/Include/cmsis_gcc.h **** {
 879:Drivers/CMSIS/Include/cmsis_gcc.h ****   __ASM volatile ("dsb 0xF":::"memory");
 880:Drivers/CMSIS/Include/cmsis_gcc.h **** }
 881:Drivers/CMSIS/Include/cmsis_gcc.h **** 
 882:Drivers/CMSIS/Include/cmsis_gcc.h **** 
 883:Drivers/CMSIS/Include/cmsis_gcc.h **** /**
 884:Drivers/CMSIS/Include/cmsis_gcc.h ****   \brief   Data Memory Barrier
 885:Drivers/CMSIS/Include/cmsis_gcc.h ****   \details Ensures the apparent order of the explicit memory operations before
 886:Drivers/CMSIS/Include/cmsis_gcc.h ****            and after the instruction, without ensuring their completion.
 887:Drivers/CMSIS/Include/cmsis_gcc.h ****  */
 888:Drivers/CMSIS/Include/cmsis_gcc.h **** __STATIC_FORCEINLINE void __DMB(void)
 889:Drivers/CMSIS/Include/cmsis_gcc.h **** {
 890:Drivers/CMSIS/Include/cmsis_gcc.h ****   __ASM volatile ("dmb 0xF":::"memory");
 891:Drivers/CMSIS/Include/cmsis_gcc.h **** }
 892:Drivers/CMSIS/Include/cmsis_gcc.h **** 
 893:Drivers/CMSIS/Include/cmsis_gcc.h **** 
 894:Drivers/CMSIS/Include/cmsis_gcc.h **** /**
 895:Drivers/CMSIS/Include/cmsis_gcc.h ****   \brief   Reverse byte order (32 bit)
 896:Drivers/CMSIS/Include/cmsis_gcc.h ****   \details Reverses the byte order in unsigned integer value. For example, 0x12345678 becomes 0x785
 897:Drivers/CMSIS/Include/cmsis_gcc.h ****   \param [in]    value  Value to reverse
 898:Drivers/CMSIS/Include/cmsis_gcc.h ****   \return               Reversed value
 899:Drivers/CMSIS/Include/cmsis_gcc.h ****  */
 900:Drivers/CMSIS/Include/cmsis_gcc.h **** __STATIC_FORCEINLINE uint32_t __REV(uint32_t value)
 901:Drivers/CMSIS/Include/cmsis_gcc.h **** {
 902:Drivers/CMSIS/Include/cmsis_gcc.h **** #if (__GNUC__ > 4) || (__GNUC__ == 4 && __GNUC_MINOR__ >= 5)
 903:Drivers/CMSIS/Include/cmsis_gcc.h ****   return __builtin_bswap32(value);
 904:Drivers/CMSIS/Include/cmsis_gcc.h **** #else
 905:Drivers/CMSIS/Include/cmsis_gcc.h ****   uint32_t result;
 906:Drivers/CMSIS/Include/cmsis_gcc.h **** 
 907:Drivers/CMSIS/Include/cmsis_gcc.h ****   __ASM volatile ("rev %0, %1" : __CMSIS_GCC_OUT_REG (result) : __CMSIS_GCC_USE_REG (value) );
 908:Drivers/CMSIS/Include/cmsis_gcc.h ****   return result;
 909:Drivers/CMSIS/Include/cmsis_gcc.h **** #endif
 910:Drivers/CMSIS/Include/cmsis_gcc.h **** }
 911:Drivers/CMSIS/Include/cmsis_gcc.h **** 
 912:Drivers/CMSIS/Include/cmsis_gcc.h **** 
 913:Drivers/CMSIS/Include/cmsis_gcc.h **** /**
 914:Drivers/CMSIS/Include/cmsis_gcc.h ****   \brief   Reverse byte order (16 bit)
 915:Drivers/CMSIS/Include/cmsis_gcc.h ****   \details Reverses the byte order within each halfword of a word. For example, 0x12345678 becomes 
 916:Drivers/CMSIS/Include/cmsis_gcc.h ****   \param [in]    value  Value to reverse
 917:Drivers/CMSIS/Include/cmsis_gcc.h ****   \return               Reversed value
 918:Drivers/CMSIS/Include/cmsis_gcc.h ****  */
 919:Drivers/CMSIS/Include/cmsis_gcc.h **** __STATIC_FORCEINLINE uint32_t __REV16(uint32_t value)
 920:Drivers/CMSIS/Include/cmsis_gcc.h **** {
 921:Drivers/CMSIS/Include/cmsis_gcc.h ****   uint32_t result;
 922:Drivers/CMSIS/Include/cmsis_gcc.h **** 
 923:Drivers/CMSIS/Include/cmsis_gcc.h ****   __ASM volatile ("rev16 %0, %1" : __CMSIS_GCC_OUT_REG (result) : __CMSIS_GCC_USE_REG (value) );
 924:Drivers/CMSIS/Include/cmsis_gcc.h ****   return result;
 925:Drivers/CMSIS/Include/cmsis_gcc.h **** }
 926:Drivers/CMSIS/Include/cmsis_gcc.h **** 
 927:Drivers/CMSIS/Include/cmsis_gcc.h **** 
 928:Drivers/CMSIS/Include/cmsis_gcc.h **** /**
 929:Drivers/CMSIS/Include/cmsis_gcc.h ****   \brief   Reverse byte order (16 bit)
 930:Drivers/CMSIS/Include/cmsis_gcc.h ****   \details Reverses the byte order in a 16-bit value and returns the signed 16-bit result. For exam
 931:Drivers/CMSIS/Include/cmsis_gcc.h ****   \param [in]    value  Value to reverse
ARM GAS  C:\Users\LIGUOH~1\AppData\Local\Temp\ccgA945g.s 			page 31


 932:Drivers/CMSIS/Include/cmsis_gcc.h ****   \return               Reversed value
 933:Drivers/CMSIS/Include/cmsis_gcc.h ****  */
 934:Drivers/CMSIS/Include/cmsis_gcc.h **** __STATIC_FORCEINLINE int16_t __REVSH(int16_t value)
 935:Drivers/CMSIS/Include/cmsis_gcc.h **** {
 936:Drivers/CMSIS/Include/cmsis_gcc.h **** #if (__GNUC__ > 4) || (__GNUC__ == 4 && __GNUC_MINOR__ >= 8)
 937:Drivers/CMSIS/Include/cmsis_gcc.h ****   return (int16_t)__builtin_bswap16(value);
 938:Drivers/CMSIS/Include/cmsis_gcc.h **** #else
 939:Drivers/CMSIS/Include/cmsis_gcc.h ****   int16_t result;
 940:Drivers/CMSIS/Include/cmsis_gcc.h **** 
 941:Drivers/CMSIS/Include/cmsis_gcc.h ****   __ASM volatile ("revsh %0, %1" : __CMSIS_GCC_OUT_REG (result) : __CMSIS_GCC_USE_REG (value) );
 942:Drivers/CMSIS/Include/cmsis_gcc.h ****   return result;
 943:Drivers/CMSIS/Include/cmsis_gcc.h **** #endif
 944:Drivers/CMSIS/Include/cmsis_gcc.h **** }
 945:Drivers/CMSIS/Include/cmsis_gcc.h **** 
 946:Drivers/CMSIS/Include/cmsis_gcc.h **** 
 947:Drivers/CMSIS/Include/cmsis_gcc.h **** /**
 948:Drivers/CMSIS/Include/cmsis_gcc.h ****   \brief   Rotate Right in unsigned value (32 bit)
 949:Drivers/CMSIS/Include/cmsis_gcc.h ****   \details Rotate Right (immediate) provides the value of the contents of a register rotated by a v
 950:Drivers/CMSIS/Include/cmsis_gcc.h ****   \param [in]    op1  Value to rotate
 951:Drivers/CMSIS/Include/cmsis_gcc.h ****   \param [in]    op2  Number of Bits to rotate
 952:Drivers/CMSIS/Include/cmsis_gcc.h ****   \return               Rotated value
 953:Drivers/CMSIS/Include/cmsis_gcc.h ****  */
 954:Drivers/CMSIS/Include/cmsis_gcc.h **** __STATIC_FORCEINLINE uint32_t __ROR(uint32_t op1, uint32_t op2)
 955:Drivers/CMSIS/Include/cmsis_gcc.h **** {
 956:Drivers/CMSIS/Include/cmsis_gcc.h ****   op2 %= 32U;
 957:Drivers/CMSIS/Include/cmsis_gcc.h ****   if (op2 == 0U)
 958:Drivers/CMSIS/Include/cmsis_gcc.h ****   {
 959:Drivers/CMSIS/Include/cmsis_gcc.h ****     return op1;
 960:Drivers/CMSIS/Include/cmsis_gcc.h ****   }
 961:Drivers/CMSIS/Include/cmsis_gcc.h ****   return (op1 >> op2) | (op1 << (32U - op2));
 962:Drivers/CMSIS/Include/cmsis_gcc.h **** }
 963:Drivers/CMSIS/Include/cmsis_gcc.h **** 
 964:Drivers/CMSIS/Include/cmsis_gcc.h **** 
 965:Drivers/CMSIS/Include/cmsis_gcc.h **** /**
 966:Drivers/CMSIS/Include/cmsis_gcc.h ****   \brief   Breakpoint
 967:Drivers/CMSIS/Include/cmsis_gcc.h ****   \details Causes the processor to enter Debug state.
 968:Drivers/CMSIS/Include/cmsis_gcc.h ****            Debug tools can use this to investigate system state when the instruction at a particula
 969:Drivers/CMSIS/Include/cmsis_gcc.h ****   \param [in]    value  is ignored by the processor.
 970:Drivers/CMSIS/Include/cmsis_gcc.h ****                  If required, a debugger can use it to store additional information about the break
 971:Drivers/CMSIS/Include/cmsis_gcc.h ****  */
 972:Drivers/CMSIS/Include/cmsis_gcc.h **** #define __BKPT(value)                       __ASM volatile ("bkpt "#value)
 973:Drivers/CMSIS/Include/cmsis_gcc.h **** 
 974:Drivers/CMSIS/Include/cmsis_gcc.h **** 
 975:Drivers/CMSIS/Include/cmsis_gcc.h **** /**
 976:Drivers/CMSIS/Include/cmsis_gcc.h ****   \brief   Reverse bit order of value
 977:Drivers/CMSIS/Include/cmsis_gcc.h ****   \details Reverses the bit order of the given value.
 978:Drivers/CMSIS/Include/cmsis_gcc.h ****   \param [in]    value  Value to reverse
 979:Drivers/CMSIS/Include/cmsis_gcc.h ****   \return               Reversed value
 980:Drivers/CMSIS/Include/cmsis_gcc.h ****  */
 981:Drivers/CMSIS/Include/cmsis_gcc.h **** __STATIC_FORCEINLINE uint32_t __RBIT(uint32_t value)
 401              		.loc 2 981 31 view .LVU68
 402              	.LBB7:
 982:Drivers/CMSIS/Include/cmsis_gcc.h **** {
 983:Drivers/CMSIS/Include/cmsis_gcc.h ****   uint32_t result;
 403              		.loc 2 983 3 view .LVU69
 984:Drivers/CMSIS/Include/cmsis_gcc.h **** 
 985:Drivers/CMSIS/Include/cmsis_gcc.h **** #if ((defined (__ARM_ARCH_7M__      ) && (__ARM_ARCH_7M__      == 1)) || \
ARM GAS  C:\Users\LIGUOH~1\AppData\Local\Temp\ccgA945g.s 			page 32


 986:Drivers/CMSIS/Include/cmsis_gcc.h ****      (defined (__ARM_ARCH_7EM__     ) && (__ARM_ARCH_7EM__     == 1)) || \
 987:Drivers/CMSIS/Include/cmsis_gcc.h ****      (defined (__ARM_ARCH_8M_MAIN__ ) && (__ARM_ARCH_8M_MAIN__ == 1))    )
 988:Drivers/CMSIS/Include/cmsis_gcc.h ****    __ASM volatile ("rbit %0, %1" : "=r" (result) : "r" (value) );
 404              		.loc 2 988 4 view .LVU70
 405              		.syntax unified
 406              	@ 988 "Drivers/CMSIS/Include/cmsis_gcc.h" 1
 407 000a 94FAA4F4 		rbit r4, r4
 408              	@ 0 "" 2
 409              	.LVL8:
 989:Drivers/CMSIS/Include/cmsis_gcc.h **** #else
 990:Drivers/CMSIS/Include/cmsis_gcc.h ****   uint32_t s = (4U /*sizeof(v)*/ * 8U) - 1U; /* extra shift needed at end */
 991:Drivers/CMSIS/Include/cmsis_gcc.h **** 
 992:Drivers/CMSIS/Include/cmsis_gcc.h ****   result = value;                      /* r will be reversed bits of v; first get LSB of v */
 993:Drivers/CMSIS/Include/cmsis_gcc.h ****   for (value >>= 1U; value != 0U; value >>= 1U)
 994:Drivers/CMSIS/Include/cmsis_gcc.h ****   {
 995:Drivers/CMSIS/Include/cmsis_gcc.h ****     result <<= 1U;
 996:Drivers/CMSIS/Include/cmsis_gcc.h ****     result |= value & 1U;
 997:Drivers/CMSIS/Include/cmsis_gcc.h ****     s--;
 998:Drivers/CMSIS/Include/cmsis_gcc.h ****   }
 999:Drivers/CMSIS/Include/cmsis_gcc.h ****   result <<= s;                        /* shift when v's highest bits are zero */
1000:Drivers/CMSIS/Include/cmsis_gcc.h **** #endif
1001:Drivers/CMSIS/Include/cmsis_gcc.h ****   return result;
 410              		.loc 2 1001 3 view .LVU71
 411              		.loc 2 1001 3 is_stmt 0 view .LVU72
 412              		.thumb
 413              		.syntax unified
 414              	.LBE7:
 415              	.LBE6:
 416              		.loc 1 387 22 view .LVU73
 417 000e B4FA84F4 		clz	r4, r4
 418 0012 064B     		ldr	r3, .L33
 419 0014 2344     		add	r3, r3, r4
 420 0016 9B00     		lsls	r3, r3, #2
 421              		.loc 1 387 46 view .LVU74
 422 0018 0122     		movs	r2, #1
 423 001a 1A60     		str	r2, [r3]
 388:Drivers/STM32F1xx_HAL_Driver/Src/stm32f1xx_hal_pwr.c **** }
 424              		.loc 1 388 1 view .LVU75
 425 001c 10BD     		pop	{r4, pc}
 426              	.LVL9:
 427              	.L32:
 385:Drivers/STM32F1xx_HAL_Driver/Src/stm32f1xx_hal_pwr.c ****   /* Enable the EWUPx pin */
 428              		.loc 1 385 3 discriminator 1 view .LVU76
 429 001e 40F28111 		movw	r1, #385
 430 0022 0348     		ldr	r0, .L33+4
 431              	.LVL10:
 385:Drivers/STM32F1xx_HAL_Driver/Src/stm32f1xx_hal_pwr.c ****   /* Enable the EWUPx pin */
 432              		.loc 1 385 3 discriminator 1 view .LVU77
 433 0024 FFF7FEFF 		bl	assert_failed
 434              	.LVL11:
 435 0028 EFE7     		b	.L30
 436              	.L34:
 437 002a 00BF     		.align	2
 438              	.L33:
 439 002c 20808310 		.word	277053472
 440 0030 00000000 		.word	.LC0
 441              		.cfi_endproc
ARM GAS  C:\Users\LIGUOH~1\AppData\Local\Temp\ccgA945g.s 			page 33


 442              	.LFE72:
 444              		.section	.text.HAL_PWR_DisableWakeUpPin,"ax",%progbits
 445              		.align	1
 446              		.global	HAL_PWR_DisableWakeUpPin
 447              		.syntax unified
 448              		.thumb
 449              		.thumb_func
 450              		.fpu softvfp
 452              	HAL_PWR_DisableWakeUpPin:
 453              	.LVL12:
 454              	.LFB73:
 389:Drivers/STM32F1xx_HAL_Driver/Src/stm32f1xx_hal_pwr.c **** 
 390:Drivers/STM32F1xx_HAL_Driver/Src/stm32f1xx_hal_pwr.c **** /**
 391:Drivers/STM32F1xx_HAL_Driver/Src/stm32f1xx_hal_pwr.c ****   * @brief Disables the WakeUp PINx functionality.
 392:Drivers/STM32F1xx_HAL_Driver/Src/stm32f1xx_hal_pwr.c ****   * @param WakeUpPinx: Specifies the Power Wake-Up pin to disable.
 393:Drivers/STM32F1xx_HAL_Driver/Src/stm32f1xx_hal_pwr.c ****   *        This parameter can be one of the following values:
 394:Drivers/STM32F1xx_HAL_Driver/Src/stm32f1xx_hal_pwr.c ****   *           @arg PWR_WAKEUP_PIN1
 395:Drivers/STM32F1xx_HAL_Driver/Src/stm32f1xx_hal_pwr.c ****   * @retval None
 396:Drivers/STM32F1xx_HAL_Driver/Src/stm32f1xx_hal_pwr.c ****   */
 397:Drivers/STM32F1xx_HAL_Driver/Src/stm32f1xx_hal_pwr.c **** void HAL_PWR_DisableWakeUpPin(uint32_t WakeUpPinx)
 398:Drivers/STM32F1xx_HAL_Driver/Src/stm32f1xx_hal_pwr.c **** {
 455              		.loc 1 398 1 is_stmt 1 view -0
 456              		.cfi_startproc
 457              		@ args = 0, pretend = 0, frame = 0
 458              		@ frame_needed = 0, uses_anonymous_args = 0
 459              		.loc 1 398 1 is_stmt 0 view .LVU79
 460 0000 10B5     		push	{r4, lr}
 461              	.LCFI2:
 462              		.cfi_def_cfa_offset 8
 463              		.cfi_offset 4, -8
 464              		.cfi_offset 14, -4
 465 0002 0446     		mov	r4, r0
 399:Drivers/STM32F1xx_HAL_Driver/Src/stm32f1xx_hal_pwr.c ****   /* Check the parameter */
 400:Drivers/STM32F1xx_HAL_Driver/Src/stm32f1xx_hal_pwr.c ****   assert_param(IS_PWR_WAKEUP_PIN(WakeUpPinx));
 466              		.loc 1 400 3 is_stmt 1 view .LVU80
 467 0004 B0F5807F 		cmp	r0, #256
 468 0008 09D1     		bne	.L38
 469              	.LVL13:
 470              	.L36:
 401:Drivers/STM32F1xx_HAL_Driver/Src/stm32f1xx_hal_pwr.c ****   /* Disable the EWUPx pin */
 402:Drivers/STM32F1xx_HAL_Driver/Src/stm32f1xx_hal_pwr.c ****   *(__IO uint32_t *) CSR_EWUP_BB(WakeUpPinx) = (uint32_t)DISABLE;
 471              		.loc 1 402 3 view .LVU81
 472              	.LBB8:
 473              	.LBI8:
 981:Drivers/CMSIS/Include/cmsis_gcc.h **** {
 474              		.loc 2 981 31 view .LVU82
 475              	.LBB9:
 983:Drivers/CMSIS/Include/cmsis_gcc.h **** 
 476              		.loc 2 983 3 view .LVU83
 988:Drivers/CMSIS/Include/cmsis_gcc.h **** #else
 477              		.loc 2 988 4 view .LVU84
 478              		.syntax unified
 479              	@ 988 "Drivers/CMSIS/Include/cmsis_gcc.h" 1
 480 000a 94FAA4F4 		rbit r4, r4
 481              	@ 0 "" 2
 482              	.LVL14:
 483              		.loc 2 1001 3 view .LVU85
ARM GAS  C:\Users\LIGUOH~1\AppData\Local\Temp\ccgA945g.s 			page 34


 484              		.loc 2 1001 3 is_stmt 0 view .LVU86
 485              		.thumb
 486              		.syntax unified
 487              	.LBE9:
 488              	.LBE8:
 489              		.loc 1 402 22 view .LVU87
 490 000e B4FA84F4 		clz	r4, r4
 491 0012 064B     		ldr	r3, .L39
 492 0014 2344     		add	r3, r3, r4
 493 0016 9B00     		lsls	r3, r3, #2
 494              		.loc 1 402 46 view .LVU88
 495 0018 0022     		movs	r2, #0
 496 001a 1A60     		str	r2, [r3]
 403:Drivers/STM32F1xx_HAL_Driver/Src/stm32f1xx_hal_pwr.c **** }
 497              		.loc 1 403 1 view .LVU89
 498 001c 10BD     		pop	{r4, pc}
 499              	.LVL15:
 500              	.L38:
 400:Drivers/STM32F1xx_HAL_Driver/Src/stm32f1xx_hal_pwr.c ****   /* Disable the EWUPx pin */
 501              		.loc 1 400 3 discriminator 1 view .LVU90
 502 001e 4FF4C871 		mov	r1, #400
 503 0022 0348     		ldr	r0, .L39+4
 504              	.LVL16:
 400:Drivers/STM32F1xx_HAL_Driver/Src/stm32f1xx_hal_pwr.c ****   /* Disable the EWUPx pin */
 505              		.loc 1 400 3 discriminator 1 view .LVU91
 506 0024 FFF7FEFF 		bl	assert_failed
 507              	.LVL17:
 508 0028 EFE7     		b	.L36
 509              	.L40:
 510 002a 00BF     		.align	2
 511              	.L39:
 512 002c 20808310 		.word	277053472
 513 0030 00000000 		.word	.LC0
 514              		.cfi_endproc
 515              	.LFE73:
 517              		.section	.text.HAL_PWR_EnterSLEEPMode,"ax",%progbits
 518              		.align	1
 519              		.global	HAL_PWR_EnterSLEEPMode
 520              		.syntax unified
 521              		.thumb
 522              		.thumb_func
 523              		.fpu softvfp
 525              	HAL_PWR_EnterSLEEPMode:
 526              	.LVL18:
 527              	.LFB74:
 404:Drivers/STM32F1xx_HAL_Driver/Src/stm32f1xx_hal_pwr.c **** 
 405:Drivers/STM32F1xx_HAL_Driver/Src/stm32f1xx_hal_pwr.c **** /**
 406:Drivers/STM32F1xx_HAL_Driver/Src/stm32f1xx_hal_pwr.c ****   * @brief Enters Sleep mode.
 407:Drivers/STM32F1xx_HAL_Driver/Src/stm32f1xx_hal_pwr.c ****   * @note  In Sleep mode, all I/O pins keep the same state as in Run mode.
 408:Drivers/STM32F1xx_HAL_Driver/Src/stm32f1xx_hal_pwr.c ****   * @param Regulator: Regulator state as no effect in SLEEP mode -  allows to support portability f
 409:Drivers/STM32F1xx_HAL_Driver/Src/stm32f1xx_hal_pwr.c ****   * @param SLEEPEntry: Specifies if SLEEP mode is entered with WFI or WFE instruction.
 410:Drivers/STM32F1xx_HAL_Driver/Src/stm32f1xx_hal_pwr.c ****   *           When WFI entry is used, tick interrupt have to be disabled if not desired as 
 411:Drivers/STM32F1xx_HAL_Driver/Src/stm32f1xx_hal_pwr.c ****   *           the interrupt wake up source.
 412:Drivers/STM32F1xx_HAL_Driver/Src/stm32f1xx_hal_pwr.c ****   *           This parameter can be one of the following values:
 413:Drivers/STM32F1xx_HAL_Driver/Src/stm32f1xx_hal_pwr.c ****   *            @arg PWR_SLEEPENTRY_WFI: enter SLEEP mode with WFI instruction
 414:Drivers/STM32F1xx_HAL_Driver/Src/stm32f1xx_hal_pwr.c ****   *            @arg PWR_SLEEPENTRY_WFE: enter SLEEP mode with WFE instruction
 415:Drivers/STM32F1xx_HAL_Driver/Src/stm32f1xx_hal_pwr.c ****   * @retval None
ARM GAS  C:\Users\LIGUOH~1\AppData\Local\Temp\ccgA945g.s 			page 35


 416:Drivers/STM32F1xx_HAL_Driver/Src/stm32f1xx_hal_pwr.c ****   */
 417:Drivers/STM32F1xx_HAL_Driver/Src/stm32f1xx_hal_pwr.c **** void HAL_PWR_EnterSLEEPMode(uint32_t Regulator, uint8_t SLEEPEntry)
 418:Drivers/STM32F1xx_HAL_Driver/Src/stm32f1xx_hal_pwr.c **** {
 528              		.loc 1 418 1 is_stmt 1 view -0
 529              		.cfi_startproc
 530              		@ args = 0, pretend = 0, frame = 0
 531              		@ frame_needed = 0, uses_anonymous_args = 0
 532              		.loc 1 418 1 is_stmt 0 view .LVU93
 533 0000 10B5     		push	{r4, lr}
 534              	.LCFI3:
 535              		.cfi_def_cfa_offset 8
 536              		.cfi_offset 4, -8
 537              		.cfi_offset 14, -4
 538 0002 0C46     		mov	r4, r1
 419:Drivers/STM32F1xx_HAL_Driver/Src/stm32f1xx_hal_pwr.c ****   /* Check the parameters */
 420:Drivers/STM32F1xx_HAL_Driver/Src/stm32f1xx_hal_pwr.c ****   /* No check on Regulator because parameter not used in SLEEP mode */
 421:Drivers/STM32F1xx_HAL_Driver/Src/stm32f1xx_hal_pwr.c ****   /* Prevent unused argument(s) compilation warning */
 422:Drivers/STM32F1xx_HAL_Driver/Src/stm32f1xx_hal_pwr.c ****   UNUSED(Regulator);
 539              		.loc 1 422 3 is_stmt 1 view .LVU94
 423:Drivers/STM32F1xx_HAL_Driver/Src/stm32f1xx_hal_pwr.c **** 
 424:Drivers/STM32F1xx_HAL_Driver/Src/stm32f1xx_hal_pwr.c ****   assert_param(IS_PWR_SLEEP_ENTRY(SLEEPEntry));
 540              		.loc 1 424 3 view .LVU95
 541 0004 4B1E     		subs	r3, r1, #1
 542 0006 DBB2     		uxtb	r3, r3
 543 0008 012B     		cmp	r3, #1
 544 000a 0AD8     		bhi	.L46
 545              	.LVL19:
 546              	.L42:
 425:Drivers/STM32F1xx_HAL_Driver/Src/stm32f1xx_hal_pwr.c **** 
 426:Drivers/STM32F1xx_HAL_Driver/Src/stm32f1xx_hal_pwr.c ****   /* Clear SLEEPDEEP bit of Cortex System Control Register */
 427:Drivers/STM32F1xx_HAL_Driver/Src/stm32f1xx_hal_pwr.c ****   CLEAR_BIT(SCB->SCR, ((uint32_t)SCB_SCR_SLEEPDEEP_Msk));
 547              		.loc 1 427 3 view .LVU96
 548 000c 094A     		ldr	r2, .L48
 549 000e 1369     		ldr	r3, [r2, #16]
 550 0010 23F00403 		bic	r3, r3, #4
 551 0014 1361     		str	r3, [r2, #16]
 428:Drivers/STM32F1xx_HAL_Driver/Src/stm32f1xx_hal_pwr.c **** 
 429:Drivers/STM32F1xx_HAL_Driver/Src/stm32f1xx_hal_pwr.c ****   /* Select SLEEP mode entry -------------------------------------------------*/
 430:Drivers/STM32F1xx_HAL_Driver/Src/stm32f1xx_hal_pwr.c ****   if(SLEEPEntry == PWR_SLEEPENTRY_WFI)
 552              		.loc 1 430 3 view .LVU97
 553              		.loc 1 430 5 is_stmt 0 view .LVU98
 554 0016 012C     		cmp	r4, #1
 555 0018 09D0     		beq	.L47
 431:Drivers/STM32F1xx_HAL_Driver/Src/stm32f1xx_hal_pwr.c ****   {
 432:Drivers/STM32F1xx_HAL_Driver/Src/stm32f1xx_hal_pwr.c ****     /* Request Wait For Interrupt */
 433:Drivers/STM32F1xx_HAL_Driver/Src/stm32f1xx_hal_pwr.c ****     __WFI();
 434:Drivers/STM32F1xx_HAL_Driver/Src/stm32f1xx_hal_pwr.c ****   }
 435:Drivers/STM32F1xx_HAL_Driver/Src/stm32f1xx_hal_pwr.c ****   else
 436:Drivers/STM32F1xx_HAL_Driver/Src/stm32f1xx_hal_pwr.c ****   {
 437:Drivers/STM32F1xx_HAL_Driver/Src/stm32f1xx_hal_pwr.c ****     /* Request Wait For Event */
 438:Drivers/STM32F1xx_HAL_Driver/Src/stm32f1xx_hal_pwr.c ****     __SEV();
 556              		.loc 1 438 5 is_stmt 1 view .LVU99
 557              		.syntax unified
 558              	@ 438 "Drivers/STM32F1xx_HAL_Driver/Src/stm32f1xx_hal_pwr.c" 1
 559 001a 40BF     		sev
 560              	@ 0 "" 2
 439:Drivers/STM32F1xx_HAL_Driver/Src/stm32f1xx_hal_pwr.c ****     __WFE();
ARM GAS  C:\Users\LIGUOH~1\AppData\Local\Temp\ccgA945g.s 			page 36


 561              		.loc 1 439 5 view .LVU100
 562              	@ 439 "Drivers/STM32F1xx_HAL_Driver/Src/stm32f1xx_hal_pwr.c" 1
 563 001c 20BF     		wfe
 564              	@ 0 "" 2
 440:Drivers/STM32F1xx_HAL_Driver/Src/stm32f1xx_hal_pwr.c ****     __WFE();
 565              		.loc 1 440 5 view .LVU101
 566              	@ 440 "Drivers/STM32F1xx_HAL_Driver/Src/stm32f1xx_hal_pwr.c" 1
 567 001e 20BF     		wfe
 568              	@ 0 "" 2
 569              		.thumb
 570              		.syntax unified
 571              	.L41:
 441:Drivers/STM32F1xx_HAL_Driver/Src/stm32f1xx_hal_pwr.c ****   }
 442:Drivers/STM32F1xx_HAL_Driver/Src/stm32f1xx_hal_pwr.c **** }
 572              		.loc 1 442 1 is_stmt 0 view .LVU102
 573 0020 10BD     		pop	{r4, pc}
 574              	.LVL20:
 575              	.L46:
 424:Drivers/STM32F1xx_HAL_Driver/Src/stm32f1xx_hal_pwr.c **** 
 576              		.loc 1 424 3 discriminator 1 view .LVU103
 577 0022 4FF4D471 		mov	r1, #424
 578              	.LVL21:
 424:Drivers/STM32F1xx_HAL_Driver/Src/stm32f1xx_hal_pwr.c **** 
 579              		.loc 1 424 3 discriminator 1 view .LVU104
 580 0026 0448     		ldr	r0, .L48+4
 581              	.LVL22:
 424:Drivers/STM32F1xx_HAL_Driver/Src/stm32f1xx_hal_pwr.c **** 
 582              		.loc 1 424 3 discriminator 1 view .LVU105
 583 0028 FFF7FEFF 		bl	assert_failed
 584              	.LVL23:
 585 002c EEE7     		b	.L42
 586              	.L47:
 433:Drivers/STM32F1xx_HAL_Driver/Src/stm32f1xx_hal_pwr.c ****   }
 587              		.loc 1 433 5 is_stmt 1 view .LVU106
 588              		.syntax unified
 589              	@ 433 "Drivers/STM32F1xx_HAL_Driver/Src/stm32f1xx_hal_pwr.c" 1
 590 002e 30BF     		wfi
 591              	@ 0 "" 2
 592              		.thumb
 593              		.syntax unified
 594 0030 F6E7     		b	.L41
 595              	.L49:
 596 0032 00BF     		.align	2
 597              	.L48:
 598 0034 00ED00E0 		.word	-536810240
 599 0038 00000000 		.word	.LC0
 600              		.cfi_endproc
 601              	.LFE74:
 603              		.section	.text.HAL_PWR_EnterSTOPMode,"ax",%progbits
 604              		.align	1
 605              		.global	HAL_PWR_EnterSTOPMode
 606              		.syntax unified
 607              		.thumb
 608              		.thumb_func
 609              		.fpu softvfp
 611              	HAL_PWR_EnterSTOPMode:
 612              	.LVL24:
ARM GAS  C:\Users\LIGUOH~1\AppData\Local\Temp\ccgA945g.s 			page 37


 613              	.LFB75:
 443:Drivers/STM32F1xx_HAL_Driver/Src/stm32f1xx_hal_pwr.c **** 
 444:Drivers/STM32F1xx_HAL_Driver/Src/stm32f1xx_hal_pwr.c **** /**
 445:Drivers/STM32F1xx_HAL_Driver/Src/stm32f1xx_hal_pwr.c ****   * @brief Enters Stop mode. 
 446:Drivers/STM32F1xx_HAL_Driver/Src/stm32f1xx_hal_pwr.c ****   * @note  In Stop mode, all I/O pins keep the same state as in Run mode.
 447:Drivers/STM32F1xx_HAL_Driver/Src/stm32f1xx_hal_pwr.c ****   * @note  When exiting Stop mode by using an interrupt or a wakeup event,
 448:Drivers/STM32F1xx_HAL_Driver/Src/stm32f1xx_hal_pwr.c ****   *        HSI RC oscillator is selected as system clock.
 449:Drivers/STM32F1xx_HAL_Driver/Src/stm32f1xx_hal_pwr.c ****   * @note  When the voltage regulator operates in low power mode, an additional
 450:Drivers/STM32F1xx_HAL_Driver/Src/stm32f1xx_hal_pwr.c ****   *         startup delay is incurred when waking up from Stop mode. 
 451:Drivers/STM32F1xx_HAL_Driver/Src/stm32f1xx_hal_pwr.c ****   *         By keeping the internal regulator ON during Stop mode, the consumption
 452:Drivers/STM32F1xx_HAL_Driver/Src/stm32f1xx_hal_pwr.c ****   *         is higher although the startup time is reduced.    
 453:Drivers/STM32F1xx_HAL_Driver/Src/stm32f1xx_hal_pwr.c ****   * @param Regulator: Specifies the regulator state in Stop mode.
 454:Drivers/STM32F1xx_HAL_Driver/Src/stm32f1xx_hal_pwr.c ****   *          This parameter can be one of the following values:
 455:Drivers/STM32F1xx_HAL_Driver/Src/stm32f1xx_hal_pwr.c ****   *            @arg PWR_MAINREGULATOR_ON: Stop mode with regulator ON
 456:Drivers/STM32F1xx_HAL_Driver/Src/stm32f1xx_hal_pwr.c ****   *            @arg PWR_LOWPOWERREGULATOR_ON: Stop mode with low power regulator ON
 457:Drivers/STM32F1xx_HAL_Driver/Src/stm32f1xx_hal_pwr.c ****   * @param STOPEntry: Specifies if Stop mode in entered with WFI or WFE instruction.
 458:Drivers/STM32F1xx_HAL_Driver/Src/stm32f1xx_hal_pwr.c ****   *          This parameter can be one of the following values:
 459:Drivers/STM32F1xx_HAL_Driver/Src/stm32f1xx_hal_pwr.c ****   *            @arg PWR_STOPENTRY_WFI: Enter Stop mode with WFI instruction
 460:Drivers/STM32F1xx_HAL_Driver/Src/stm32f1xx_hal_pwr.c ****   *            @arg PWR_STOPENTRY_WFE: Enter Stop mode with WFE instruction   
 461:Drivers/STM32F1xx_HAL_Driver/Src/stm32f1xx_hal_pwr.c ****   * @retval None
 462:Drivers/STM32F1xx_HAL_Driver/Src/stm32f1xx_hal_pwr.c ****   */
 463:Drivers/STM32F1xx_HAL_Driver/Src/stm32f1xx_hal_pwr.c **** void HAL_PWR_EnterSTOPMode(uint32_t Regulator, uint8_t STOPEntry)
 464:Drivers/STM32F1xx_HAL_Driver/Src/stm32f1xx_hal_pwr.c **** {
 614              		.loc 1 464 1 view -0
 615              		.cfi_startproc
 616              		@ args = 0, pretend = 0, frame = 0
 617              		@ frame_needed = 0, uses_anonymous_args = 0
 618              		.loc 1 464 1 is_stmt 0 view .LVU108
 619 0000 38B5     		push	{r3, r4, r5, lr}
 620              	.LCFI4:
 621              		.cfi_def_cfa_offset 16
 622              		.cfi_offset 3, -16
 623              		.cfi_offset 4, -12
 624              		.cfi_offset 5, -8
 625              		.cfi_offset 14, -4
 626 0002 0546     		mov	r5, r0
 627 0004 0C46     		mov	r4, r1
 465:Drivers/STM32F1xx_HAL_Driver/Src/stm32f1xx_hal_pwr.c ****   /* Check the parameters */
 466:Drivers/STM32F1xx_HAL_Driver/Src/stm32f1xx_hal_pwr.c ****   assert_param(IS_PWR_REGULATOR(Regulator));
 628              		.loc 1 466 3 is_stmt 1 view .LVU109
 629 0006 0128     		cmp	r0, #1
 630 0008 1BD8     		bhi	.L56
 631              	.LVL25:
 632              	.L51:
 467:Drivers/STM32F1xx_HAL_Driver/Src/stm32f1xx_hal_pwr.c ****   assert_param(IS_PWR_STOP_ENTRY(STOPEntry));
 633              		.loc 1 467 3 view .LVU110
 634 000a 631E     		subs	r3, r4, #1
 635 000c DBB2     		uxtb	r3, r3
 636 000e 012B     		cmp	r3, #1
 637 0010 1DD8     		bhi	.L57
 638              	.L52:
 468:Drivers/STM32F1xx_HAL_Driver/Src/stm32f1xx_hal_pwr.c **** 
 469:Drivers/STM32F1xx_HAL_Driver/Src/stm32f1xx_hal_pwr.c ****   /* Clear PDDS bit in PWR register to specify entering in STOP mode when CPU enter in Deepsleep */
 470:Drivers/STM32F1xx_HAL_Driver/Src/stm32f1xx_hal_pwr.c ****   CLEAR_BIT(PWR->CR,  PWR_CR_PDDS);
 639              		.loc 1 470 3 view .LVU111
 640 0012 154A     		ldr	r2, .L58
 641 0014 1368     		ldr	r3, [r2]
ARM GAS  C:\Users\LIGUOH~1\AppData\Local\Temp\ccgA945g.s 			page 38


 642 0016 23F00203 		bic	r3, r3, #2
 643 001a 1360     		str	r3, [r2]
 471:Drivers/STM32F1xx_HAL_Driver/Src/stm32f1xx_hal_pwr.c **** 
 472:Drivers/STM32F1xx_HAL_Driver/Src/stm32f1xx_hal_pwr.c ****   /* Select the voltage regulator mode by setting LPDS bit in PWR register according to Regulator p
 473:Drivers/STM32F1xx_HAL_Driver/Src/stm32f1xx_hal_pwr.c ****   MODIFY_REG(PWR->CR, PWR_CR_LPDS, Regulator);
 644              		.loc 1 473 3 view .LVU112
 645 001c 1368     		ldr	r3, [r2]
 646 001e 23F00103 		bic	r3, r3, #1
 647 0022 2B43     		orrs	r3, r3, r5
 648 0024 1360     		str	r3, [r2]
 474:Drivers/STM32F1xx_HAL_Driver/Src/stm32f1xx_hal_pwr.c **** 
 475:Drivers/STM32F1xx_HAL_Driver/Src/stm32f1xx_hal_pwr.c ****   /* Set SLEEPDEEP bit of Cortex System Control Register */
 476:Drivers/STM32F1xx_HAL_Driver/Src/stm32f1xx_hal_pwr.c ****   SET_BIT(SCB->SCR, ((uint32_t)SCB_SCR_SLEEPDEEP_Msk));
 649              		.loc 1 476 3 view .LVU113
 650 0026 114A     		ldr	r2, .L58+4
 651 0028 1369     		ldr	r3, [r2, #16]
 652 002a 43F00403 		orr	r3, r3, #4
 653 002e 1361     		str	r3, [r2, #16]
 477:Drivers/STM32F1xx_HAL_Driver/Src/stm32f1xx_hal_pwr.c **** 
 478:Drivers/STM32F1xx_HAL_Driver/Src/stm32f1xx_hal_pwr.c ****   /* Select Stop mode entry --------------------------------------------------*/
 479:Drivers/STM32F1xx_HAL_Driver/Src/stm32f1xx_hal_pwr.c ****   if(STOPEntry == PWR_STOPENTRY_WFI)
 654              		.loc 1 479 3 view .LVU114
 655              		.loc 1 479 5 is_stmt 0 view .LVU115
 656 0030 012C     		cmp	r4, #1
 657 0032 12D1     		bne	.L53
 480:Drivers/STM32F1xx_HAL_Driver/Src/stm32f1xx_hal_pwr.c ****   {
 481:Drivers/STM32F1xx_HAL_Driver/Src/stm32f1xx_hal_pwr.c ****     /* Request Wait For Interrupt */
 482:Drivers/STM32F1xx_HAL_Driver/Src/stm32f1xx_hal_pwr.c ****     __WFI();
 658              		.loc 1 482 5 is_stmt 1 view .LVU116
 659              		.syntax unified
 660              	@ 482 "Drivers/STM32F1xx_HAL_Driver/Src/stm32f1xx_hal_pwr.c" 1
 661 0034 30BF     		wfi
 662              	@ 0 "" 2
 663              		.thumb
 664              		.syntax unified
 665              	.L54:
 483:Drivers/STM32F1xx_HAL_Driver/Src/stm32f1xx_hal_pwr.c ****   }
 484:Drivers/STM32F1xx_HAL_Driver/Src/stm32f1xx_hal_pwr.c ****   else
 485:Drivers/STM32F1xx_HAL_Driver/Src/stm32f1xx_hal_pwr.c ****   {
 486:Drivers/STM32F1xx_HAL_Driver/Src/stm32f1xx_hal_pwr.c ****     /* Request Wait For Event */
 487:Drivers/STM32F1xx_HAL_Driver/Src/stm32f1xx_hal_pwr.c ****     __SEV();
 488:Drivers/STM32F1xx_HAL_Driver/Src/stm32f1xx_hal_pwr.c ****     PWR_OverloadWfe(); /* WFE redefine locally */
 489:Drivers/STM32F1xx_HAL_Driver/Src/stm32f1xx_hal_pwr.c ****     PWR_OverloadWfe(); /* WFE redefine locally */
 490:Drivers/STM32F1xx_HAL_Driver/Src/stm32f1xx_hal_pwr.c ****   }
 491:Drivers/STM32F1xx_HAL_Driver/Src/stm32f1xx_hal_pwr.c ****   /* Reset SLEEPDEEP bit of Cortex System Control Register */
 492:Drivers/STM32F1xx_HAL_Driver/Src/stm32f1xx_hal_pwr.c ****   CLEAR_BIT(SCB->SCR, ((uint32_t)SCB_SCR_SLEEPDEEP_Msk));
 666              		.loc 1 492 3 view .LVU117
 667 0036 0D4A     		ldr	r2, .L58+4
 668 0038 1369     		ldr	r3, [r2, #16]
 669 003a 23F00403 		bic	r3, r3, #4
 670 003e 1361     		str	r3, [r2, #16]
 493:Drivers/STM32F1xx_HAL_Driver/Src/stm32f1xx_hal_pwr.c **** }
 671              		.loc 1 493 1 is_stmt 0 view .LVU118
 672 0040 38BD     		pop	{r3, r4, r5, pc}
 673              	.LVL26:
 674              	.L56:
 466:Drivers/STM32F1xx_HAL_Driver/Src/stm32f1xx_hal_pwr.c ****   assert_param(IS_PWR_STOP_ENTRY(STOPEntry));
ARM GAS  C:\Users\LIGUOH~1\AppData\Local\Temp\ccgA945g.s 			page 39


 675              		.loc 1 466 3 discriminator 1 view .LVU119
 676 0042 4FF4E971 		mov	r1, #466
 677              	.LVL27:
 466:Drivers/STM32F1xx_HAL_Driver/Src/stm32f1xx_hal_pwr.c ****   assert_param(IS_PWR_STOP_ENTRY(STOPEntry));
 678              		.loc 1 466 3 discriminator 1 view .LVU120
 679 0046 0A48     		ldr	r0, .L58+8
 680              	.LVL28:
 466:Drivers/STM32F1xx_HAL_Driver/Src/stm32f1xx_hal_pwr.c ****   assert_param(IS_PWR_STOP_ENTRY(STOPEntry));
 681              		.loc 1 466 3 discriminator 1 view .LVU121
 682 0048 FFF7FEFF 		bl	assert_failed
 683              	.LVL29:
 684 004c DDE7     		b	.L51
 685              	.L57:
 467:Drivers/STM32F1xx_HAL_Driver/Src/stm32f1xx_hal_pwr.c **** 
 686              		.loc 1 467 3 discriminator 1 view .LVU122
 687 004e 40F2D311 		movw	r1, #467
 688 0052 0748     		ldr	r0, .L58+8
 689 0054 FFF7FEFF 		bl	assert_failed
 690              	.LVL30:
 691 0058 DBE7     		b	.L52
 692              	.L53:
 487:Drivers/STM32F1xx_HAL_Driver/Src/stm32f1xx_hal_pwr.c ****     PWR_OverloadWfe(); /* WFE redefine locally */
 693              		.loc 1 487 5 is_stmt 1 view .LVU123
 694              		.syntax unified
 695              	@ 487 "Drivers/STM32F1xx_HAL_Driver/Src/stm32f1xx_hal_pwr.c" 1
 696 005a 40BF     		sev
 697              	@ 0 "" 2
 488:Drivers/STM32F1xx_HAL_Driver/Src/stm32f1xx_hal_pwr.c ****     PWR_OverloadWfe(); /* WFE redefine locally */
 698              		.loc 1 488 5 view .LVU124
 699              		.thumb
 700              		.syntax unified
 701 005c FFF7FEFF 		bl	PWR_OverloadWfe
 702              	.LVL31:
 489:Drivers/STM32F1xx_HAL_Driver/Src/stm32f1xx_hal_pwr.c ****   }
 703              		.loc 1 489 5 view .LVU125
 704 0060 FFF7FEFF 		bl	PWR_OverloadWfe
 705              	.LVL32:
 706 0064 E7E7     		b	.L54
 707              	.L59:
 708 0066 00BF     		.align	2
 709              	.L58:
 710 0068 00700040 		.word	1073770496
 711 006c 00ED00E0 		.word	-536810240
 712 0070 00000000 		.word	.LC0
 713              		.cfi_endproc
 714              	.LFE75:
 716              		.section	.text.HAL_PWR_EnterSTANDBYMode,"ax",%progbits
 717              		.align	1
 718              		.global	HAL_PWR_EnterSTANDBYMode
 719              		.syntax unified
 720              		.thumb
 721              		.thumb_func
 722              		.fpu softvfp
 724              	HAL_PWR_EnterSTANDBYMode:
 725              	.LFB76:
 494:Drivers/STM32F1xx_HAL_Driver/Src/stm32f1xx_hal_pwr.c **** 
 495:Drivers/STM32F1xx_HAL_Driver/Src/stm32f1xx_hal_pwr.c **** /**
ARM GAS  C:\Users\LIGUOH~1\AppData\Local\Temp\ccgA945g.s 			page 40


 496:Drivers/STM32F1xx_HAL_Driver/Src/stm32f1xx_hal_pwr.c ****   * @brief Enters Standby mode.
 497:Drivers/STM32F1xx_HAL_Driver/Src/stm32f1xx_hal_pwr.c ****   * @note  In Standby mode, all I/O pins are high impedance except for:
 498:Drivers/STM32F1xx_HAL_Driver/Src/stm32f1xx_hal_pwr.c ****   *          - Reset pad (still available) 
 499:Drivers/STM32F1xx_HAL_Driver/Src/stm32f1xx_hal_pwr.c ****   *          - TAMPER pin if configured for tamper or calibration out.
 500:Drivers/STM32F1xx_HAL_Driver/Src/stm32f1xx_hal_pwr.c ****   *          - WKUP pin (PA0) if enabled.
 501:Drivers/STM32F1xx_HAL_Driver/Src/stm32f1xx_hal_pwr.c ****   * @retval None
 502:Drivers/STM32F1xx_HAL_Driver/Src/stm32f1xx_hal_pwr.c ****   */
 503:Drivers/STM32F1xx_HAL_Driver/Src/stm32f1xx_hal_pwr.c **** void HAL_PWR_EnterSTANDBYMode(void)
 504:Drivers/STM32F1xx_HAL_Driver/Src/stm32f1xx_hal_pwr.c **** {
 726              		.loc 1 504 1 view -0
 727              		.cfi_startproc
 728              		@ args = 0, pretend = 0, frame = 0
 729              		@ frame_needed = 0, uses_anonymous_args = 0
 730              		@ link register save eliminated.
 505:Drivers/STM32F1xx_HAL_Driver/Src/stm32f1xx_hal_pwr.c ****   /* Select Standby mode */
 506:Drivers/STM32F1xx_HAL_Driver/Src/stm32f1xx_hal_pwr.c ****   SET_BIT(PWR->CR, PWR_CR_PDDS);
 731              		.loc 1 506 3 view .LVU127
 732 0000 054A     		ldr	r2, .L61
 733 0002 1368     		ldr	r3, [r2]
 734 0004 43F00203 		orr	r3, r3, #2
 735 0008 1360     		str	r3, [r2]
 507:Drivers/STM32F1xx_HAL_Driver/Src/stm32f1xx_hal_pwr.c **** 
 508:Drivers/STM32F1xx_HAL_Driver/Src/stm32f1xx_hal_pwr.c ****   /* Set SLEEPDEEP bit of Cortex System Control Register */
 509:Drivers/STM32F1xx_HAL_Driver/Src/stm32f1xx_hal_pwr.c ****   SET_BIT(SCB->SCR, ((uint32_t)SCB_SCR_SLEEPDEEP_Msk));
 736              		.loc 1 509 3 view .LVU128
 737 000a 044A     		ldr	r2, .L61+4
 738 000c 1369     		ldr	r3, [r2, #16]
 739 000e 43F00403 		orr	r3, r3, #4
 740 0012 1361     		str	r3, [r2, #16]
 510:Drivers/STM32F1xx_HAL_Driver/Src/stm32f1xx_hal_pwr.c **** 
 511:Drivers/STM32F1xx_HAL_Driver/Src/stm32f1xx_hal_pwr.c ****   /* This option is used to ensure that store operations are completed */
 512:Drivers/STM32F1xx_HAL_Driver/Src/stm32f1xx_hal_pwr.c **** #if defined ( __CC_ARM)
 513:Drivers/STM32F1xx_HAL_Driver/Src/stm32f1xx_hal_pwr.c ****   __force_stores();
 514:Drivers/STM32F1xx_HAL_Driver/Src/stm32f1xx_hal_pwr.c **** #endif
 515:Drivers/STM32F1xx_HAL_Driver/Src/stm32f1xx_hal_pwr.c ****   /* Request Wait For Interrupt */
 516:Drivers/STM32F1xx_HAL_Driver/Src/stm32f1xx_hal_pwr.c ****   __WFI();
 741              		.loc 1 516 3 view .LVU129
 742              		.syntax unified
 743              	@ 516 "Drivers/STM32F1xx_HAL_Driver/Src/stm32f1xx_hal_pwr.c" 1
 744 0014 30BF     		wfi
 745              	@ 0 "" 2
 517:Drivers/STM32F1xx_HAL_Driver/Src/stm32f1xx_hal_pwr.c **** }
 746              		.loc 1 517 1 is_stmt 0 view .LVU130
 747              		.thumb
 748              		.syntax unified
 749 0016 7047     		bx	lr
 750              	.L62:
 751              		.align	2
 752              	.L61:
 753 0018 00700040 		.word	1073770496
 754 001c 00ED00E0 		.word	-536810240
 755              		.cfi_endproc
 756              	.LFE76:
 758              		.section	.text.HAL_PWR_EnableSleepOnExit,"ax",%progbits
 759              		.align	1
 760              		.global	HAL_PWR_EnableSleepOnExit
 761              		.syntax unified
ARM GAS  C:\Users\LIGUOH~1\AppData\Local\Temp\ccgA945g.s 			page 41


 762              		.thumb
 763              		.thumb_func
 764              		.fpu softvfp
 766              	HAL_PWR_EnableSleepOnExit:
 767              	.LFB77:
 518:Drivers/STM32F1xx_HAL_Driver/Src/stm32f1xx_hal_pwr.c **** 
 519:Drivers/STM32F1xx_HAL_Driver/Src/stm32f1xx_hal_pwr.c **** 
 520:Drivers/STM32F1xx_HAL_Driver/Src/stm32f1xx_hal_pwr.c **** /**
 521:Drivers/STM32F1xx_HAL_Driver/Src/stm32f1xx_hal_pwr.c ****   * @brief Indicates Sleep-On-Exit when returning from Handler mode to Thread mode. 
 522:Drivers/STM32F1xx_HAL_Driver/Src/stm32f1xx_hal_pwr.c ****   * @note Set SLEEPONEXIT bit of SCR register. When this bit is set, the processor 
 523:Drivers/STM32F1xx_HAL_Driver/Src/stm32f1xx_hal_pwr.c ****   *       re-enters SLEEP mode when an interruption handling is over.
 524:Drivers/STM32F1xx_HAL_Driver/Src/stm32f1xx_hal_pwr.c ****   *       Setting this bit is useful when the processor is expected to run only on
 525:Drivers/STM32F1xx_HAL_Driver/Src/stm32f1xx_hal_pwr.c ****   *       interruptions handling.         
 526:Drivers/STM32F1xx_HAL_Driver/Src/stm32f1xx_hal_pwr.c ****   * @retval None
 527:Drivers/STM32F1xx_HAL_Driver/Src/stm32f1xx_hal_pwr.c ****   */
 528:Drivers/STM32F1xx_HAL_Driver/Src/stm32f1xx_hal_pwr.c **** void HAL_PWR_EnableSleepOnExit(void)
 529:Drivers/STM32F1xx_HAL_Driver/Src/stm32f1xx_hal_pwr.c **** {
 768              		.loc 1 529 1 is_stmt 1 view -0
 769              		.cfi_startproc
 770              		@ args = 0, pretend = 0, frame = 0
 771              		@ frame_needed = 0, uses_anonymous_args = 0
 772              		@ link register save eliminated.
 530:Drivers/STM32F1xx_HAL_Driver/Src/stm32f1xx_hal_pwr.c ****   /* Set SLEEPONEXIT bit of Cortex System Control Register */
 531:Drivers/STM32F1xx_HAL_Driver/Src/stm32f1xx_hal_pwr.c ****   SET_BIT(SCB->SCR, ((uint32_t)SCB_SCR_SLEEPONEXIT_Msk));
 773              		.loc 1 531 3 view .LVU132
 774 0000 024A     		ldr	r2, .L64
 775 0002 1369     		ldr	r3, [r2, #16]
 776 0004 43F00203 		orr	r3, r3, #2
 777 0008 1361     		str	r3, [r2, #16]
 532:Drivers/STM32F1xx_HAL_Driver/Src/stm32f1xx_hal_pwr.c **** }
 778              		.loc 1 532 1 is_stmt 0 view .LVU133
 779 000a 7047     		bx	lr
 780              	.L65:
 781              		.align	2
 782              	.L64:
 783 000c 00ED00E0 		.word	-536810240
 784              		.cfi_endproc
 785              	.LFE77:
 787              		.section	.text.HAL_PWR_DisableSleepOnExit,"ax",%progbits
 788              		.align	1
 789              		.global	HAL_PWR_DisableSleepOnExit
 790              		.syntax unified
 791              		.thumb
 792              		.thumb_func
 793              		.fpu softvfp
 795              	HAL_PWR_DisableSleepOnExit:
 796              	.LFB78:
 533:Drivers/STM32F1xx_HAL_Driver/Src/stm32f1xx_hal_pwr.c **** 
 534:Drivers/STM32F1xx_HAL_Driver/Src/stm32f1xx_hal_pwr.c **** 
 535:Drivers/STM32F1xx_HAL_Driver/Src/stm32f1xx_hal_pwr.c **** /**
 536:Drivers/STM32F1xx_HAL_Driver/Src/stm32f1xx_hal_pwr.c ****   * @brief Disables Sleep-On-Exit feature when returning from Handler mode to Thread mode. 
 537:Drivers/STM32F1xx_HAL_Driver/Src/stm32f1xx_hal_pwr.c ****   * @note Clears SLEEPONEXIT bit of SCR register. When this bit is set, the processor 
 538:Drivers/STM32F1xx_HAL_Driver/Src/stm32f1xx_hal_pwr.c ****   *       re-enters SLEEP mode when an interruption handling is over.          
 539:Drivers/STM32F1xx_HAL_Driver/Src/stm32f1xx_hal_pwr.c ****   * @retval None
 540:Drivers/STM32F1xx_HAL_Driver/Src/stm32f1xx_hal_pwr.c ****   */
 541:Drivers/STM32F1xx_HAL_Driver/Src/stm32f1xx_hal_pwr.c **** void HAL_PWR_DisableSleepOnExit(void)
 542:Drivers/STM32F1xx_HAL_Driver/Src/stm32f1xx_hal_pwr.c **** {
ARM GAS  C:\Users\LIGUOH~1\AppData\Local\Temp\ccgA945g.s 			page 42


 797              		.loc 1 542 1 is_stmt 1 view -0
 798              		.cfi_startproc
 799              		@ args = 0, pretend = 0, frame = 0
 800              		@ frame_needed = 0, uses_anonymous_args = 0
 801              		@ link register save eliminated.
 543:Drivers/STM32F1xx_HAL_Driver/Src/stm32f1xx_hal_pwr.c ****   /* Clear SLEEPONEXIT bit of Cortex System Control Register */
 544:Drivers/STM32F1xx_HAL_Driver/Src/stm32f1xx_hal_pwr.c ****   CLEAR_BIT(SCB->SCR, ((uint32_t)SCB_SCR_SLEEPONEXIT_Msk));
 802              		.loc 1 544 3 view .LVU135
 803 0000 024A     		ldr	r2, .L67
 804 0002 1369     		ldr	r3, [r2, #16]
 805 0004 23F00203 		bic	r3, r3, #2
 806 0008 1361     		str	r3, [r2, #16]
 545:Drivers/STM32F1xx_HAL_Driver/Src/stm32f1xx_hal_pwr.c **** }
 807              		.loc 1 545 1 is_stmt 0 view .LVU136
 808 000a 7047     		bx	lr
 809              	.L68:
 810              		.align	2
 811              	.L67:
 812 000c 00ED00E0 		.word	-536810240
 813              		.cfi_endproc
 814              	.LFE78:
 816              		.section	.text.HAL_PWR_EnableSEVOnPend,"ax",%progbits
 817              		.align	1
 818              		.global	HAL_PWR_EnableSEVOnPend
 819              		.syntax unified
 820              		.thumb
 821              		.thumb_func
 822              		.fpu softvfp
 824              	HAL_PWR_EnableSEVOnPend:
 825              	.LFB79:
 546:Drivers/STM32F1xx_HAL_Driver/Src/stm32f1xx_hal_pwr.c **** 
 547:Drivers/STM32F1xx_HAL_Driver/Src/stm32f1xx_hal_pwr.c **** 
 548:Drivers/STM32F1xx_HAL_Driver/Src/stm32f1xx_hal_pwr.c **** /**
 549:Drivers/STM32F1xx_HAL_Driver/Src/stm32f1xx_hal_pwr.c ****   * @brief Enables CORTEX M3 SEVONPEND bit. 
 550:Drivers/STM32F1xx_HAL_Driver/Src/stm32f1xx_hal_pwr.c ****   * @note Sets SEVONPEND bit of SCR register. When this bit is set, this causes 
 551:Drivers/STM32F1xx_HAL_Driver/Src/stm32f1xx_hal_pwr.c ****   *       WFE to wake up when an interrupt moves from inactive to pended.
 552:Drivers/STM32F1xx_HAL_Driver/Src/stm32f1xx_hal_pwr.c ****   * @retval None
 553:Drivers/STM32F1xx_HAL_Driver/Src/stm32f1xx_hal_pwr.c ****   */
 554:Drivers/STM32F1xx_HAL_Driver/Src/stm32f1xx_hal_pwr.c **** void HAL_PWR_EnableSEVOnPend(void)
 555:Drivers/STM32F1xx_HAL_Driver/Src/stm32f1xx_hal_pwr.c **** {
 826              		.loc 1 555 1 is_stmt 1 view -0
 827              		.cfi_startproc
 828              		@ args = 0, pretend = 0, frame = 0
 829              		@ frame_needed = 0, uses_anonymous_args = 0
 830              		@ link register save eliminated.
 556:Drivers/STM32F1xx_HAL_Driver/Src/stm32f1xx_hal_pwr.c ****   /* Set SEVONPEND bit of Cortex System Control Register */
 557:Drivers/STM32F1xx_HAL_Driver/Src/stm32f1xx_hal_pwr.c ****   SET_BIT(SCB->SCR, ((uint32_t)SCB_SCR_SEVONPEND_Msk));
 831              		.loc 1 557 3 view .LVU138
 832 0000 024A     		ldr	r2, .L70
 833 0002 1369     		ldr	r3, [r2, #16]
 834 0004 43F01003 		orr	r3, r3, #16
 835 0008 1361     		str	r3, [r2, #16]
 558:Drivers/STM32F1xx_HAL_Driver/Src/stm32f1xx_hal_pwr.c **** }
 836              		.loc 1 558 1 is_stmt 0 view .LVU139
 837 000a 7047     		bx	lr
 838              	.L71:
 839              		.align	2
ARM GAS  C:\Users\LIGUOH~1\AppData\Local\Temp\ccgA945g.s 			page 43


 840              	.L70:
 841 000c 00ED00E0 		.word	-536810240
 842              		.cfi_endproc
 843              	.LFE79:
 845              		.section	.text.HAL_PWR_DisableSEVOnPend,"ax",%progbits
 846              		.align	1
 847              		.global	HAL_PWR_DisableSEVOnPend
 848              		.syntax unified
 849              		.thumb
 850              		.thumb_func
 851              		.fpu softvfp
 853              	HAL_PWR_DisableSEVOnPend:
 854              	.LFB80:
 559:Drivers/STM32F1xx_HAL_Driver/Src/stm32f1xx_hal_pwr.c **** 
 560:Drivers/STM32F1xx_HAL_Driver/Src/stm32f1xx_hal_pwr.c **** 
 561:Drivers/STM32F1xx_HAL_Driver/Src/stm32f1xx_hal_pwr.c **** /**
 562:Drivers/STM32F1xx_HAL_Driver/Src/stm32f1xx_hal_pwr.c ****   * @brief Disables CORTEX M3 SEVONPEND bit. 
 563:Drivers/STM32F1xx_HAL_Driver/Src/stm32f1xx_hal_pwr.c ****   * @note Clears SEVONPEND bit of SCR register. When this bit is set, this causes 
 564:Drivers/STM32F1xx_HAL_Driver/Src/stm32f1xx_hal_pwr.c ****   *       WFE to wake up when an interrupt moves from inactive to pended.         
 565:Drivers/STM32F1xx_HAL_Driver/Src/stm32f1xx_hal_pwr.c ****   * @retval None
 566:Drivers/STM32F1xx_HAL_Driver/Src/stm32f1xx_hal_pwr.c ****   */
 567:Drivers/STM32F1xx_HAL_Driver/Src/stm32f1xx_hal_pwr.c **** void HAL_PWR_DisableSEVOnPend(void)
 568:Drivers/STM32F1xx_HAL_Driver/Src/stm32f1xx_hal_pwr.c **** {
 855              		.loc 1 568 1 is_stmt 1 view -0
 856              		.cfi_startproc
 857              		@ args = 0, pretend = 0, frame = 0
 858              		@ frame_needed = 0, uses_anonymous_args = 0
 859              		@ link register save eliminated.
 569:Drivers/STM32F1xx_HAL_Driver/Src/stm32f1xx_hal_pwr.c ****   /* Clear SEVONPEND bit of Cortex System Control Register */
 570:Drivers/STM32F1xx_HAL_Driver/Src/stm32f1xx_hal_pwr.c ****   CLEAR_BIT(SCB->SCR, ((uint32_t)SCB_SCR_SEVONPEND_Msk));
 860              		.loc 1 570 3 view .LVU141
 861 0000 024A     		ldr	r2, .L73
 862 0002 1369     		ldr	r3, [r2, #16]
 863 0004 23F01003 		bic	r3, r3, #16
 864 0008 1361     		str	r3, [r2, #16]
 571:Drivers/STM32F1xx_HAL_Driver/Src/stm32f1xx_hal_pwr.c **** }
 865              		.loc 1 571 1 is_stmt 0 view .LVU142
 866 000a 7047     		bx	lr
 867              	.L74:
 868              		.align	2
 869              	.L73:
 870 000c 00ED00E0 		.word	-536810240
 871              		.cfi_endproc
 872              	.LFE80:
 874              		.section	.text.HAL_PWR_PVDCallback,"ax",%progbits
 875              		.align	1
 876              		.weak	HAL_PWR_PVDCallback
 877              		.syntax unified
 878              		.thumb
 879              		.thumb_func
 880              		.fpu softvfp
 882              	HAL_PWR_PVDCallback:
 883              	.LFB82:
 572:Drivers/STM32F1xx_HAL_Driver/Src/stm32f1xx_hal_pwr.c **** 
 573:Drivers/STM32F1xx_HAL_Driver/Src/stm32f1xx_hal_pwr.c **** 
 574:Drivers/STM32F1xx_HAL_Driver/Src/stm32f1xx_hal_pwr.c **** 
 575:Drivers/STM32F1xx_HAL_Driver/Src/stm32f1xx_hal_pwr.c **** /**
ARM GAS  C:\Users\LIGUOH~1\AppData\Local\Temp\ccgA945g.s 			page 44


 576:Drivers/STM32F1xx_HAL_Driver/Src/stm32f1xx_hal_pwr.c ****   * @brief  This function handles the PWR PVD interrupt request.
 577:Drivers/STM32F1xx_HAL_Driver/Src/stm32f1xx_hal_pwr.c ****   * @note   This API should be called under the PVD_IRQHandler().
 578:Drivers/STM32F1xx_HAL_Driver/Src/stm32f1xx_hal_pwr.c ****   * @retval None
 579:Drivers/STM32F1xx_HAL_Driver/Src/stm32f1xx_hal_pwr.c ****   */
 580:Drivers/STM32F1xx_HAL_Driver/Src/stm32f1xx_hal_pwr.c **** void HAL_PWR_PVD_IRQHandler(void)
 581:Drivers/STM32F1xx_HAL_Driver/Src/stm32f1xx_hal_pwr.c **** {
 582:Drivers/STM32F1xx_HAL_Driver/Src/stm32f1xx_hal_pwr.c ****   /* Check PWR exti flag */
 583:Drivers/STM32F1xx_HAL_Driver/Src/stm32f1xx_hal_pwr.c ****   if(__HAL_PWR_PVD_EXTI_GET_FLAG() != RESET)
 584:Drivers/STM32F1xx_HAL_Driver/Src/stm32f1xx_hal_pwr.c ****   {
 585:Drivers/STM32F1xx_HAL_Driver/Src/stm32f1xx_hal_pwr.c ****     /* PWR PVD interrupt user callback */
 586:Drivers/STM32F1xx_HAL_Driver/Src/stm32f1xx_hal_pwr.c ****     HAL_PWR_PVDCallback();
 587:Drivers/STM32F1xx_HAL_Driver/Src/stm32f1xx_hal_pwr.c **** 
 588:Drivers/STM32F1xx_HAL_Driver/Src/stm32f1xx_hal_pwr.c ****     /* Clear PWR Exti pending bit */
 589:Drivers/STM32F1xx_HAL_Driver/Src/stm32f1xx_hal_pwr.c ****     __HAL_PWR_PVD_EXTI_CLEAR_FLAG();
 590:Drivers/STM32F1xx_HAL_Driver/Src/stm32f1xx_hal_pwr.c ****   }
 591:Drivers/STM32F1xx_HAL_Driver/Src/stm32f1xx_hal_pwr.c **** }
 592:Drivers/STM32F1xx_HAL_Driver/Src/stm32f1xx_hal_pwr.c **** 
 593:Drivers/STM32F1xx_HAL_Driver/Src/stm32f1xx_hal_pwr.c **** /**
 594:Drivers/STM32F1xx_HAL_Driver/Src/stm32f1xx_hal_pwr.c ****   * @brief  PWR PVD interrupt callback
 595:Drivers/STM32F1xx_HAL_Driver/Src/stm32f1xx_hal_pwr.c ****   * @retval None
 596:Drivers/STM32F1xx_HAL_Driver/Src/stm32f1xx_hal_pwr.c ****   */
 597:Drivers/STM32F1xx_HAL_Driver/Src/stm32f1xx_hal_pwr.c **** __weak void HAL_PWR_PVDCallback(void)
 598:Drivers/STM32F1xx_HAL_Driver/Src/stm32f1xx_hal_pwr.c **** {
 884              		.loc 1 598 1 is_stmt 1 view -0
 885              		.cfi_startproc
 886              		@ args = 0, pretend = 0, frame = 0
 887              		@ frame_needed = 0, uses_anonymous_args = 0
 888              		@ link register save eliminated.
 599:Drivers/STM32F1xx_HAL_Driver/Src/stm32f1xx_hal_pwr.c ****   /* NOTE : This function Should not be modified, when the callback is needed,
 600:Drivers/STM32F1xx_HAL_Driver/Src/stm32f1xx_hal_pwr.c ****             the HAL_PWR_PVDCallback could be implemented in the user file
 601:Drivers/STM32F1xx_HAL_Driver/Src/stm32f1xx_hal_pwr.c ****    */ 
 602:Drivers/STM32F1xx_HAL_Driver/Src/stm32f1xx_hal_pwr.c **** }
 889              		.loc 1 602 1 view .LVU144
 890 0000 7047     		bx	lr
 891              		.cfi_endproc
 892              	.LFE82:
 894              		.section	.text.HAL_PWR_PVD_IRQHandler,"ax",%progbits
 895              		.align	1
 896              		.global	HAL_PWR_PVD_IRQHandler
 897              		.syntax unified
 898              		.thumb
 899              		.thumb_func
 900              		.fpu softvfp
 902              	HAL_PWR_PVD_IRQHandler:
 903              	.LFB81:
 581:Drivers/STM32F1xx_HAL_Driver/Src/stm32f1xx_hal_pwr.c ****   /* Check PWR exti flag */
 904              		.loc 1 581 1 view -0
 905              		.cfi_startproc
 906              		@ args = 0, pretend = 0, frame = 0
 907              		@ frame_needed = 0, uses_anonymous_args = 0
 908 0000 08B5     		push	{r3, lr}
 909              	.LCFI5:
 910              		.cfi_def_cfa_offset 8
 911              		.cfi_offset 3, -8
 912              		.cfi_offset 14, -4
 583:Drivers/STM32F1xx_HAL_Driver/Src/stm32f1xx_hal_pwr.c ****   {
 913              		.loc 1 583 3 view .LVU146
ARM GAS  C:\Users\LIGUOH~1\AppData\Local\Temp\ccgA945g.s 			page 45


 583:Drivers/STM32F1xx_HAL_Driver/Src/stm32f1xx_hal_pwr.c ****   {
 914              		.loc 1 583 6 is_stmt 0 view .LVU147
 915 0002 064B     		ldr	r3, .L80
 916 0004 5B69     		ldr	r3, [r3, #20]
 583:Drivers/STM32F1xx_HAL_Driver/Src/stm32f1xx_hal_pwr.c ****   {
 917              		.loc 1 583 5 view .LVU148
 918 0006 13F4803F 		tst	r3, #65536
 919 000a 00D1     		bne	.L79
 920              	.L76:
 591:Drivers/STM32F1xx_HAL_Driver/Src/stm32f1xx_hal_pwr.c **** 
 921              		.loc 1 591 1 view .LVU149
 922 000c 08BD     		pop	{r3, pc}
 923              	.L79:
 586:Drivers/STM32F1xx_HAL_Driver/Src/stm32f1xx_hal_pwr.c **** 
 924              		.loc 1 586 5 is_stmt 1 view .LVU150
 925 000e FFF7FEFF 		bl	HAL_PWR_PVDCallback
 926              	.LVL33:
 589:Drivers/STM32F1xx_HAL_Driver/Src/stm32f1xx_hal_pwr.c ****   }
 927              		.loc 1 589 5 view .LVU151
 928 0012 024B     		ldr	r3, .L80
 929 0014 4FF48032 		mov	r2, #65536
 930 0018 5A61     		str	r2, [r3, #20]
 591:Drivers/STM32F1xx_HAL_Driver/Src/stm32f1xx_hal_pwr.c **** 
 931              		.loc 1 591 1 is_stmt 0 view .LVU152
 932 001a F7E7     		b	.L76
 933              	.L81:
 934              		.align	2
 935              	.L80:
 936 001c 00040140 		.word	1073808384
 937              		.cfi_endproc
 938              	.LFE81:
 940              		.text
 941              	.Letext0:
 942              		.file 3 "c:\\gnu_tool_arm_embedded\\arm-none-eabi\\include\\machine\\_default_types.h"
 943              		.file 4 "c:\\gnu_tool_arm_embedded\\arm-none-eabi\\include\\sys\\_stdint.h"
 944              		.file 5 "Drivers/CMSIS/Include/core_cm3.h"
 945              		.file 6 "Drivers/CMSIS/Device/ST/STM32F1xx/Include/system_stm32f1xx.h"
 946              		.file 7 "Drivers/CMSIS/Device/ST/STM32F1xx/Include/stm32f103xb.h"
 947              		.file 8 "Drivers/CMSIS/Device/ST/STM32F1xx/Include/stm32f1xx.h"
 948              		.file 9 "Drivers/STM32F1xx_HAL_Driver/Inc/stm32f1xx_hal_pwr.h"
 949              		.file 10 "Drivers/STM32F1xx_HAL_Driver/Inc/stm32f1xx_hal.h"
 950              		.file 11 "Core/Inc/stm32f1xx_hal_conf.h"
ARM GAS  C:\Users\LIGUOH~1\AppData\Local\Temp\ccgA945g.s 			page 46


DEFINED SYMBOLS
                            *ABS*:00000000 stm32f1xx_hal_pwr.c
C:\Users\LIGUOH~1\AppData\Local\Temp\ccgA945g.s:16     .text.PWR_OverloadWfe:00000000 $t
C:\Users\LIGUOH~1\AppData\Local\Temp\ccgA945g.s:23     .text.PWR_OverloadWfe:00000000 PWR_OverloadWfe
C:\Users\LIGUOH~1\AppData\Local\Temp\ccgA945g.s:48     .text.HAL_PWR_DeInit:00000000 $t
C:\Users\LIGUOH~1\AppData\Local\Temp\ccgA945g.s:55     .text.HAL_PWR_DeInit:00000000 HAL_PWR_DeInit
C:\Users\LIGUOH~1\AppData\Local\Temp\ccgA945g.s:76     .text.HAL_PWR_DeInit:00000014 $d
C:\Users\LIGUOH~1\AppData\Local\Temp\ccgA945g.s:81     .text.HAL_PWR_EnableBkUpAccess:00000000 $t
C:\Users\LIGUOH~1\AppData\Local\Temp\ccgA945g.s:88     .text.HAL_PWR_EnableBkUpAccess:00000000 HAL_PWR_EnableBkUpAccess
C:\Users\LIGUOH~1\AppData\Local\Temp\ccgA945g.s:105    .text.HAL_PWR_EnableBkUpAccess:00000008 $d
C:\Users\LIGUOH~1\AppData\Local\Temp\ccgA945g.s:110    .text.HAL_PWR_DisableBkUpAccess:00000000 $t
C:\Users\LIGUOH~1\AppData\Local\Temp\ccgA945g.s:117    .text.HAL_PWR_DisableBkUpAccess:00000000 HAL_PWR_DisableBkUpAccess
C:\Users\LIGUOH~1\AppData\Local\Temp\ccgA945g.s:134    .text.HAL_PWR_DisableBkUpAccess:00000008 $d
C:\Users\LIGUOH~1\AppData\Local\Temp\ccgA945g.s:139    .rodata.HAL_PWR_ConfigPVD.str1.4:00000000 $d
C:\Users\LIGUOH~1\AppData\Local\Temp\ccgA945g.s:144    .text.HAL_PWR_ConfigPVD:00000000 $t
C:\Users\LIGUOH~1\AppData\Local\Temp\ccgA945g.s:151    .text.HAL_PWR_ConfigPVD:00000000 HAL_PWR_ConfigPVD
C:\Users\LIGUOH~1\AppData\Local\Temp\ccgA945g.s:305    .text.HAL_PWR_ConfigPVD:000000d8 $d
C:\Users\LIGUOH~1\AppData\Local\Temp\ccgA945g.s:313    .text.HAL_PWR_EnablePVD:00000000 $t
C:\Users\LIGUOH~1\AppData\Local\Temp\ccgA945g.s:320    .text.HAL_PWR_EnablePVD:00000000 HAL_PWR_EnablePVD
C:\Users\LIGUOH~1\AppData\Local\Temp\ccgA945g.s:337    .text.HAL_PWR_EnablePVD:00000008 $d
C:\Users\LIGUOH~1\AppData\Local\Temp\ccgA945g.s:342    .text.HAL_PWR_DisablePVD:00000000 $t
C:\Users\LIGUOH~1\AppData\Local\Temp\ccgA945g.s:349    .text.HAL_PWR_DisablePVD:00000000 HAL_PWR_DisablePVD
C:\Users\LIGUOH~1\AppData\Local\Temp\ccgA945g.s:366    .text.HAL_PWR_DisablePVD:00000008 $d
C:\Users\LIGUOH~1\AppData\Local\Temp\ccgA945g.s:371    .text.HAL_PWR_EnableWakeUpPin:00000000 $t
C:\Users\LIGUOH~1\AppData\Local\Temp\ccgA945g.s:378    .text.HAL_PWR_EnableWakeUpPin:00000000 HAL_PWR_EnableWakeUpPin
C:\Users\LIGUOH~1\AppData\Local\Temp\ccgA945g.s:439    .text.HAL_PWR_EnableWakeUpPin:0000002c $d
C:\Users\LIGUOH~1\AppData\Local\Temp\ccgA945g.s:445    .text.HAL_PWR_DisableWakeUpPin:00000000 $t
C:\Users\LIGUOH~1\AppData\Local\Temp\ccgA945g.s:452    .text.HAL_PWR_DisableWakeUpPin:00000000 HAL_PWR_DisableWakeUpPin
C:\Users\LIGUOH~1\AppData\Local\Temp\ccgA945g.s:512    .text.HAL_PWR_DisableWakeUpPin:0000002c $d
C:\Users\LIGUOH~1\AppData\Local\Temp\ccgA945g.s:518    .text.HAL_PWR_EnterSLEEPMode:00000000 $t
C:\Users\LIGUOH~1\AppData\Local\Temp\ccgA945g.s:525    .text.HAL_PWR_EnterSLEEPMode:00000000 HAL_PWR_EnterSLEEPMode
C:\Users\LIGUOH~1\AppData\Local\Temp\ccgA945g.s:598    .text.HAL_PWR_EnterSLEEPMode:00000034 $d
C:\Users\LIGUOH~1\AppData\Local\Temp\ccgA945g.s:604    .text.HAL_PWR_EnterSTOPMode:00000000 $t
C:\Users\LIGUOH~1\AppData\Local\Temp\ccgA945g.s:611    .text.HAL_PWR_EnterSTOPMode:00000000 HAL_PWR_EnterSTOPMode
C:\Users\LIGUOH~1\AppData\Local\Temp\ccgA945g.s:710    .text.HAL_PWR_EnterSTOPMode:00000068 $d
C:\Users\LIGUOH~1\AppData\Local\Temp\ccgA945g.s:717    .text.HAL_PWR_EnterSTANDBYMode:00000000 $t
C:\Users\LIGUOH~1\AppData\Local\Temp\ccgA945g.s:724    .text.HAL_PWR_EnterSTANDBYMode:00000000 HAL_PWR_EnterSTANDBYMode
C:\Users\LIGUOH~1\AppData\Local\Temp\ccgA945g.s:753    .text.HAL_PWR_EnterSTANDBYMode:00000018 $d
C:\Users\LIGUOH~1\AppData\Local\Temp\ccgA945g.s:759    .text.HAL_PWR_EnableSleepOnExit:00000000 $t
C:\Users\LIGUOH~1\AppData\Local\Temp\ccgA945g.s:766    .text.HAL_PWR_EnableSleepOnExit:00000000 HAL_PWR_EnableSleepOnExit
C:\Users\LIGUOH~1\AppData\Local\Temp\ccgA945g.s:783    .text.HAL_PWR_EnableSleepOnExit:0000000c $d
C:\Users\LIGUOH~1\AppData\Local\Temp\ccgA945g.s:788    .text.HAL_PWR_DisableSleepOnExit:00000000 $t
C:\Users\LIGUOH~1\AppData\Local\Temp\ccgA945g.s:795    .text.HAL_PWR_DisableSleepOnExit:00000000 HAL_PWR_DisableSleepOnExit
C:\Users\LIGUOH~1\AppData\Local\Temp\ccgA945g.s:812    .text.HAL_PWR_DisableSleepOnExit:0000000c $d
C:\Users\LIGUOH~1\AppData\Local\Temp\ccgA945g.s:817    .text.HAL_PWR_EnableSEVOnPend:00000000 $t
C:\Users\LIGUOH~1\AppData\Local\Temp\ccgA945g.s:824    .text.HAL_PWR_EnableSEVOnPend:00000000 HAL_PWR_EnableSEVOnPend
C:\Users\LIGUOH~1\AppData\Local\Temp\ccgA945g.s:841    .text.HAL_PWR_EnableSEVOnPend:0000000c $d
C:\Users\LIGUOH~1\AppData\Local\Temp\ccgA945g.s:846    .text.HAL_PWR_DisableSEVOnPend:00000000 $t
C:\Users\LIGUOH~1\AppData\Local\Temp\ccgA945g.s:853    .text.HAL_PWR_DisableSEVOnPend:00000000 HAL_PWR_DisableSEVOnPend
C:\Users\LIGUOH~1\AppData\Local\Temp\ccgA945g.s:870    .text.HAL_PWR_DisableSEVOnPend:0000000c $d
C:\Users\LIGUOH~1\AppData\Local\Temp\ccgA945g.s:875    .text.HAL_PWR_PVDCallback:00000000 $t
C:\Users\LIGUOH~1\AppData\Local\Temp\ccgA945g.s:882    .text.HAL_PWR_PVDCallback:00000000 HAL_PWR_PVDCallback
C:\Users\LIGUOH~1\AppData\Local\Temp\ccgA945g.s:895    .text.HAL_PWR_PVD_IRQHandler:00000000 $t
C:\Users\LIGUOH~1\AppData\Local\Temp\ccgA945g.s:902    .text.HAL_PWR_PVD_IRQHandler:00000000 HAL_PWR_PVD_IRQHandler
C:\Users\LIGUOH~1\AppData\Local\Temp\ccgA945g.s:936    .text.HAL_PWR_PVD_IRQHandler:0000001c $d

UNDEFINED SYMBOLS
ARM GAS  C:\Users\LIGUOH~1\AppData\Local\Temp\ccgA945g.s 			page 47


assert_failed
