ARM GAS  C:\Users\LIGUOH~1\AppData\Local\Temp\ccUGF0Rb.s 			page 1


   1              		.cpu cortex-m3
   2              		.eabi_attribute 20, 1
   3              		.eabi_attribute 21, 1
   4              		.eabi_attribute 23, 3
   5              		.eabi_attribute 24, 1
   6              		.eabi_attribute 25, 1
   7              		.eabi_attribute 26, 1
   8              		.eabi_attribute 30, 1
   9              		.eabi_attribute 34, 1
  10              		.eabi_attribute 18, 4
  11              		.file	"tim.c"
  12              		.text
  13              	.Ltext0:
  14              		.cfi_sections	.debug_frame
  15              		.section	.text.MX_TIM3_Init,"ax",%progbits
  16              		.align	1
  17              		.global	MX_TIM3_Init
  18              		.arch armv7-m
  19              		.syntax unified
  20              		.thumb
  21              		.thumb_func
  22              		.fpu softvfp
  24              	MX_TIM3_Init:
  25              	.LFB67:
  26              		.file 1 "Core/Src/tim.c"
   1:Core/Src/tim.c **** /**
   2:Core/Src/tim.c ****   ******************************************************************************
   3:Core/Src/tim.c ****   * @file    tim.c
   4:Core/Src/tim.c ****   * @brief   This file provides code for the configuration
   5:Core/Src/tim.c ****   *          of the TIM instances.
   6:Core/Src/tim.c ****   ******************************************************************************
   7:Core/Src/tim.c ****   * @attention
   8:Core/Src/tim.c ****   *
   9:Core/Src/tim.c ****   * <h2><center>&copy; Copyright (c) 2021 STMicroelectronics.
  10:Core/Src/tim.c ****   * All rights reserved.</center></h2>
  11:Core/Src/tim.c ****   *
  12:Core/Src/tim.c ****   * This software component is licensed by ST under BSD 3-Clause license,
  13:Core/Src/tim.c ****   * the "License"; You may not use this file except in compliance with the
  14:Core/Src/tim.c ****   * License. You may obtain a copy of the License at:
  15:Core/Src/tim.c ****   *                        opensource.org/licenses/BSD-3-Clause
  16:Core/Src/tim.c ****   *
  17:Core/Src/tim.c ****   ******************************************************************************
  18:Core/Src/tim.c ****   */
  19:Core/Src/tim.c **** 
  20:Core/Src/tim.c **** /* Includes ------------------------------------------------------------------*/
  21:Core/Src/tim.c **** #include "tim.h"
  22:Core/Src/tim.c **** 
  23:Core/Src/tim.c **** /* USER CODE BEGIN 0 */
  24:Core/Src/tim.c **** 
  25:Core/Src/tim.c **** /* USER CODE END 0 */
  26:Core/Src/tim.c **** 
  27:Core/Src/tim.c **** TIM_HandleTypeDef htim1;
  28:Core/Src/tim.c **** TIM_HandleTypeDef htim2;
  29:Core/Src/tim.c **** TIM_HandleTypeDef htim3;
  30:Core/Src/tim.c **** 
  31:Core/Src/tim.c **** /* TIM1 init function */
  32:Core/Src/tim.c **** void MX_TIM1_Init(void)
ARM GAS  C:\Users\LIGUOH~1\AppData\Local\Temp\ccUGF0Rb.s 			page 2


  33:Core/Src/tim.c **** {
  34:Core/Src/tim.c **** 
  35:Core/Src/tim.c ****   /* USER CODE BEGIN TIM1_Init 0 */
  36:Core/Src/tim.c **** 
  37:Core/Src/tim.c ****   /* USER CODE END TIM1_Init 0 */
  38:Core/Src/tim.c **** 
  39:Core/Src/tim.c ****   TIM_ClockConfigTypeDef sClockSourceConfig = {0};
  40:Core/Src/tim.c ****   TIM_MasterConfigTypeDef sMasterConfig = {0};
  41:Core/Src/tim.c ****   TIM_OC_InitTypeDef sConfigOC = {0};
  42:Core/Src/tim.c ****   TIM_BreakDeadTimeConfigTypeDef sBreakDeadTimeConfig = {0};
  43:Core/Src/tim.c **** 
  44:Core/Src/tim.c ****   /* USER CODE BEGIN TIM1_Init 1 */
  45:Core/Src/tim.c **** 
  46:Core/Src/tim.c ****   /* USER CODE END TIM1_Init 1 */
  47:Core/Src/tim.c ****   htim1.Instance = TIM1;
  48:Core/Src/tim.c ****   htim1.Init.Prescaler = 1-1;
  49:Core/Src/tim.c ****   htim1.Init.CounterMode = TIM_COUNTERMODE_UP;
  50:Core/Src/tim.c ****   htim1.Init.Period = 719;
  51:Core/Src/tim.c ****   htim1.Init.ClockDivision = TIM_CLOCKDIVISION_DIV1;
  52:Core/Src/tim.c ****   htim1.Init.RepetitionCounter = 0;
  53:Core/Src/tim.c ****   htim1.Init.AutoReloadPreload = TIM_AUTORELOAD_PRELOAD_ENABLE;
  54:Core/Src/tim.c ****   if (HAL_TIM_Base_Init(&htim1) != HAL_OK)
  55:Core/Src/tim.c ****   {
  56:Core/Src/tim.c ****     Error_Handler();
  57:Core/Src/tim.c ****   }
  58:Core/Src/tim.c ****   sClockSourceConfig.ClockSource = TIM_CLOCKSOURCE_INTERNAL;
  59:Core/Src/tim.c ****   if (HAL_TIM_ConfigClockSource(&htim1, &sClockSourceConfig) != HAL_OK)
  60:Core/Src/tim.c ****   {
  61:Core/Src/tim.c ****     Error_Handler();
  62:Core/Src/tim.c ****   }
  63:Core/Src/tim.c ****   if (HAL_TIM_PWM_Init(&htim1) != HAL_OK)
  64:Core/Src/tim.c ****   {
  65:Core/Src/tim.c ****     Error_Handler();
  66:Core/Src/tim.c ****   }
  67:Core/Src/tim.c ****   sMasterConfig.MasterOutputTrigger = TIM_TRGO_RESET;
  68:Core/Src/tim.c ****   sMasterConfig.MasterSlaveMode = TIM_MASTERSLAVEMODE_DISABLE;
  69:Core/Src/tim.c ****   if (HAL_TIMEx_MasterConfigSynchronization(&htim1, &sMasterConfig) != HAL_OK)
  70:Core/Src/tim.c ****   {
  71:Core/Src/tim.c ****     Error_Handler();
  72:Core/Src/tim.c ****   }
  73:Core/Src/tim.c ****   sConfigOC.OCMode = TIM_OCMODE_PWM1;
  74:Core/Src/tim.c ****   sConfigOC.Pulse = 300;
  75:Core/Src/tim.c ****   sConfigOC.OCPolarity = TIM_OCPOLARITY_HIGH;
  76:Core/Src/tim.c ****   sConfigOC.OCNPolarity = TIM_OCNPOLARITY_HIGH;
  77:Core/Src/tim.c ****   sConfigOC.OCFastMode = TIM_OCFAST_DISABLE;
  78:Core/Src/tim.c ****   sConfigOC.OCIdleState = TIM_OCIDLESTATE_RESET;
  79:Core/Src/tim.c ****   sConfigOC.OCNIdleState = TIM_OCNIDLESTATE_RESET;
  80:Core/Src/tim.c ****   if (HAL_TIM_PWM_ConfigChannel(&htim1, &sConfigOC, TIM_CHANNEL_1) != HAL_OK)
  81:Core/Src/tim.c ****   {
  82:Core/Src/tim.c ****     Error_Handler();
  83:Core/Src/tim.c ****   }
  84:Core/Src/tim.c ****   if (HAL_TIM_PWM_ConfigChannel(&htim1, &sConfigOC, TIM_CHANNEL_4) != HAL_OK)
  85:Core/Src/tim.c ****   {
  86:Core/Src/tim.c ****     Error_Handler();
  87:Core/Src/tim.c ****   }
  88:Core/Src/tim.c ****   sBreakDeadTimeConfig.OffStateRunMode = TIM_OSSR_DISABLE;
  89:Core/Src/tim.c ****   sBreakDeadTimeConfig.OffStateIDLEMode = TIM_OSSI_DISABLE;
ARM GAS  C:\Users\LIGUOH~1\AppData\Local\Temp\ccUGF0Rb.s 			page 3


  90:Core/Src/tim.c ****   sBreakDeadTimeConfig.LockLevel = TIM_LOCKLEVEL_OFF;
  91:Core/Src/tim.c ****   sBreakDeadTimeConfig.DeadTime = 0;
  92:Core/Src/tim.c ****   sBreakDeadTimeConfig.BreakState = TIM_BREAK_DISABLE;
  93:Core/Src/tim.c ****   sBreakDeadTimeConfig.BreakPolarity = TIM_BREAKPOLARITY_HIGH;
  94:Core/Src/tim.c ****   sBreakDeadTimeConfig.AutomaticOutput = TIM_AUTOMATICOUTPUT_DISABLE;
  95:Core/Src/tim.c ****   if (HAL_TIMEx_ConfigBreakDeadTime(&htim1, &sBreakDeadTimeConfig) != HAL_OK)
  96:Core/Src/tim.c ****   {
  97:Core/Src/tim.c ****     Error_Handler();
  98:Core/Src/tim.c ****   }
  99:Core/Src/tim.c ****   /* USER CODE BEGIN TIM1_Init 2 */
 100:Core/Src/tim.c **** 
 101:Core/Src/tim.c ****   /* USER CODE END TIM1_Init 2 */
 102:Core/Src/tim.c ****   HAL_TIM_MspPostInit(&htim1);
 103:Core/Src/tim.c **** 
 104:Core/Src/tim.c **** }
 105:Core/Src/tim.c **** /* TIM2 init function */
 106:Core/Src/tim.c **** void MX_TIM2_Init(void)
 107:Core/Src/tim.c **** {
 108:Core/Src/tim.c **** 
 109:Core/Src/tim.c ****   /* USER CODE BEGIN TIM2_Init 0 */
 110:Core/Src/tim.c **** 
 111:Core/Src/tim.c ****   /* USER CODE END TIM2_Init 0 */
 112:Core/Src/tim.c **** 
 113:Core/Src/tim.c ****   TIM_MasterConfigTypeDef sMasterConfig = {0};
 114:Core/Src/tim.c ****   TIM_OC_InitTypeDef sConfigOC = {0};
 115:Core/Src/tim.c **** 
 116:Core/Src/tim.c ****   /* USER CODE BEGIN TIM2_Init 1 */
 117:Core/Src/tim.c **** 
 118:Core/Src/tim.c ****   /* USER CODE END TIM2_Init 1 */
 119:Core/Src/tim.c ****   htim2.Instance = TIM2;
 120:Core/Src/tim.c ****   htim2.Init.Prescaler = 7200-1;
 121:Core/Src/tim.c ****   htim2.Init.CounterMode = TIM_COUNTERMODE_UP;
 122:Core/Src/tim.c ****   htim2.Init.Period = 5000-1;
 123:Core/Src/tim.c ****   htim2.Init.ClockDivision = TIM_CLOCKDIVISION_DIV1;
 124:Core/Src/tim.c ****   htim2.Init.AutoReloadPreload = TIM_AUTORELOAD_PRELOAD_ENABLE;
 125:Core/Src/tim.c ****   if (HAL_TIM_PWM_Init(&htim2) != HAL_OK)
 126:Core/Src/tim.c ****   {
 127:Core/Src/tim.c ****     Error_Handler();
 128:Core/Src/tim.c ****   }
 129:Core/Src/tim.c ****   sMasterConfig.MasterOutputTrigger = TIM_TRGO_RESET;
 130:Core/Src/tim.c ****   sMasterConfig.MasterSlaveMode = TIM_MASTERSLAVEMODE_DISABLE;
 131:Core/Src/tim.c ****   if (HAL_TIMEx_MasterConfigSynchronization(&htim2, &sMasterConfig) != HAL_OK)
 132:Core/Src/tim.c ****   {
 133:Core/Src/tim.c ****     Error_Handler();
 134:Core/Src/tim.c ****   }
 135:Core/Src/tim.c ****   sConfigOC.OCMode = TIM_OCMODE_PWM1;
 136:Core/Src/tim.c ****   sConfigOC.Pulse = 2500;
 137:Core/Src/tim.c ****   sConfigOC.OCPolarity = TIM_OCPOLARITY_HIGH;
 138:Core/Src/tim.c ****   sConfigOC.OCFastMode = TIM_OCFAST_DISABLE;
 139:Core/Src/tim.c ****   if (HAL_TIM_PWM_ConfigChannel(&htim2, &sConfigOC, TIM_CHANNEL_1) != HAL_OK)
 140:Core/Src/tim.c ****   {
 141:Core/Src/tim.c ****     Error_Handler();
 142:Core/Src/tim.c ****   }
 143:Core/Src/tim.c ****   /* USER CODE BEGIN TIM2_Init 2 */
 144:Core/Src/tim.c **** 
 145:Core/Src/tim.c ****   /* USER CODE END TIM2_Init 2 */
 146:Core/Src/tim.c ****   HAL_TIM_MspPostInit(&htim2);
ARM GAS  C:\Users\LIGUOH~1\AppData\Local\Temp\ccUGF0Rb.s 			page 4


 147:Core/Src/tim.c **** 
 148:Core/Src/tim.c **** }
 149:Core/Src/tim.c **** /* TIM3 init function */
 150:Core/Src/tim.c **** void MX_TIM3_Init(void)
 151:Core/Src/tim.c **** {
  27              		.loc 1 151 1 view -0
  28              		.cfi_startproc
  29              		@ args = 0, pretend = 0, frame = 24
  30              		@ frame_needed = 0, uses_anonymous_args = 0
  31 0000 00B5     		push	{lr}
  32              	.LCFI0:
  33              		.cfi_def_cfa_offset 4
  34              		.cfi_offset 14, -4
  35 0002 87B0     		sub	sp, sp, #28
  36              	.LCFI1:
  37              		.cfi_def_cfa_offset 32
 152:Core/Src/tim.c **** 
 153:Core/Src/tim.c ****   /* USER CODE BEGIN TIM3_Init 0 */
 154:Core/Src/tim.c **** 
 155:Core/Src/tim.c ****   /* USER CODE END TIM3_Init 0 */
 156:Core/Src/tim.c **** 
 157:Core/Src/tim.c ****   TIM_ClockConfigTypeDef sClockSourceConfig = {0};
  38              		.loc 1 157 3 view .LVU1
  39              		.loc 1 157 26 is_stmt 0 view .LVU2
  40 0004 0023     		movs	r3, #0
  41 0006 0293     		str	r3, [sp, #8]
  42 0008 0393     		str	r3, [sp, #12]
  43 000a 0493     		str	r3, [sp, #16]
  44 000c 0593     		str	r3, [sp, #20]
 158:Core/Src/tim.c ****   TIM_MasterConfigTypeDef sMasterConfig = {0};
  45              		.loc 1 158 3 is_stmt 1 view .LVU3
  46              		.loc 1 158 27 is_stmt 0 view .LVU4
  47 000e 0093     		str	r3, [sp]
  48 0010 0193     		str	r3, [sp, #4]
 159:Core/Src/tim.c **** 
 160:Core/Src/tim.c ****   /* USER CODE BEGIN TIM3_Init 1 */
 161:Core/Src/tim.c **** 
 162:Core/Src/tim.c ****   /* USER CODE END TIM3_Init 1 */
 163:Core/Src/tim.c ****   htim3.Instance = TIM3;
  49              		.loc 1 163 3 is_stmt 1 view .LVU5
  50              		.loc 1 163 18 is_stmt 0 view .LVU6
  51 0012 1648     		ldr	r0, .L9
  52 0014 164A     		ldr	r2, .L9+4
  53 0016 0260     		str	r2, [r0]
 164:Core/Src/tim.c ****   htim3.Init.Prescaler = 72-1;
  54              		.loc 1 164 3 is_stmt 1 view .LVU7
  55              		.loc 1 164 24 is_stmt 0 view .LVU8
  56 0018 4722     		movs	r2, #71
  57 001a 4260     		str	r2, [r0, #4]
 165:Core/Src/tim.c ****   htim3.Init.CounterMode = TIM_COUNTERMODE_UP;
  58              		.loc 1 165 3 is_stmt 1 view .LVU9
  59              		.loc 1 165 26 is_stmt 0 view .LVU10
  60 001c 8360     		str	r3, [r0, #8]
 166:Core/Src/tim.c ****   htim3.Init.Period = 2000-1;
  61              		.loc 1 166 3 is_stmt 1 view .LVU11
  62              		.loc 1 166 21 is_stmt 0 view .LVU12
  63 001e 40F2CF72 		movw	r2, #1999
ARM GAS  C:\Users\LIGUOH~1\AppData\Local\Temp\ccUGF0Rb.s 			page 5


  64 0022 C260     		str	r2, [r0, #12]
 167:Core/Src/tim.c ****   htim3.Init.ClockDivision = TIM_CLOCKDIVISION_DIV1;
  65              		.loc 1 167 3 is_stmt 1 view .LVU13
  66              		.loc 1 167 28 is_stmt 0 view .LVU14
  67 0024 0361     		str	r3, [r0, #16]
 168:Core/Src/tim.c ****   htim3.Init.AutoReloadPreload = TIM_AUTORELOAD_PRELOAD_ENABLE;
  68              		.loc 1 168 3 is_stmt 1 view .LVU15
  69              		.loc 1 168 32 is_stmt 0 view .LVU16
  70 0026 8023     		movs	r3, #128
  71 0028 8361     		str	r3, [r0, #24]
 169:Core/Src/tim.c ****   if (HAL_TIM_Base_Init(&htim3) != HAL_OK)
  72              		.loc 1 169 3 is_stmt 1 view .LVU17
  73              		.loc 1 169 7 is_stmt 0 view .LVU18
  74 002a FFF7FEFF 		bl	HAL_TIM_Base_Init
  75              	.LVL0:
  76              		.loc 1 169 6 view .LVU19
  77 002e 98B9     		cbnz	r0, .L6
  78              	.L2:
 170:Core/Src/tim.c ****   {
 171:Core/Src/tim.c ****     Error_Handler();
 172:Core/Src/tim.c ****   }
 173:Core/Src/tim.c ****   sClockSourceConfig.ClockSource = TIM_CLOCKSOURCE_INTERNAL;
  79              		.loc 1 173 3 is_stmt 1 view .LVU20
  80              		.loc 1 173 34 is_stmt 0 view .LVU21
  81 0030 4FF48053 		mov	r3, #4096
  82 0034 0293     		str	r3, [sp, #8]
 174:Core/Src/tim.c ****   if (HAL_TIM_ConfigClockSource(&htim3, &sClockSourceConfig) != HAL_OK)
  83              		.loc 1 174 3 is_stmt 1 view .LVU22
  84              		.loc 1 174 7 is_stmt 0 view .LVU23
  85 0036 02A9     		add	r1, sp, #8
  86 0038 0C48     		ldr	r0, .L9
  87 003a FFF7FEFF 		bl	HAL_TIM_ConfigClockSource
  88              	.LVL1:
  89              		.loc 1 174 6 view .LVU24
  90 003e 70B9     		cbnz	r0, .L7
  91              	.L3:
 175:Core/Src/tim.c ****   {
 176:Core/Src/tim.c ****     Error_Handler();
 177:Core/Src/tim.c ****   }
 178:Core/Src/tim.c ****   sMasterConfig.MasterOutputTrigger = TIM_TRGO_UPDATE;
  92              		.loc 1 178 3 is_stmt 1 view .LVU25
  93              		.loc 1 178 37 is_stmt 0 view .LVU26
  94 0040 2023     		movs	r3, #32
  95 0042 0093     		str	r3, [sp]
 179:Core/Src/tim.c ****   sMasterConfig.MasterSlaveMode = TIM_MASTERSLAVEMODE_DISABLE;
  96              		.loc 1 179 3 is_stmt 1 view .LVU27
  97              		.loc 1 179 33 is_stmt 0 view .LVU28
  98 0044 0023     		movs	r3, #0
  99 0046 0193     		str	r3, [sp, #4]
 180:Core/Src/tim.c ****   if (HAL_TIMEx_MasterConfigSynchronization(&htim3, &sMasterConfig) != HAL_OK)
 100              		.loc 1 180 3 is_stmt 1 view .LVU29
 101              		.loc 1 180 7 is_stmt 0 view .LVU30
 102 0048 6946     		mov	r1, sp
 103 004a 0848     		ldr	r0, .L9
 104 004c FFF7FEFF 		bl	HAL_TIMEx_MasterConfigSynchronization
 105              	.LVL2:
 106              		.loc 1 180 6 view .LVU31
ARM GAS  C:\Users\LIGUOH~1\AppData\Local\Temp\ccUGF0Rb.s 			page 6


 107 0050 40B9     		cbnz	r0, .L8
 108              	.L1:
 181:Core/Src/tim.c ****   {
 182:Core/Src/tim.c ****     Error_Handler();
 183:Core/Src/tim.c ****   }
 184:Core/Src/tim.c ****   /* USER CODE BEGIN TIM3_Init 2 */
 185:Core/Src/tim.c **** 
 186:Core/Src/tim.c ****   /* USER CODE END TIM3_Init 2 */
 187:Core/Src/tim.c **** 
 188:Core/Src/tim.c **** }
 109              		.loc 1 188 1 view .LVU32
 110 0052 07B0     		add	sp, sp, #28
 111              	.LCFI2:
 112              		.cfi_remember_state
 113              		.cfi_def_cfa_offset 4
 114              		@ sp needed
 115 0054 5DF804FB 		ldr	pc, [sp], #4
 116              	.L6:
 117              	.LCFI3:
 118              		.cfi_restore_state
 171:Core/Src/tim.c ****   }
 119              		.loc 1 171 5 is_stmt 1 view .LVU33
 120 0058 FFF7FEFF 		bl	Error_Handler
 121              	.LVL3:
 122 005c E8E7     		b	.L2
 123              	.L7:
 176:Core/Src/tim.c ****   }
 124              		.loc 1 176 5 view .LVU34
 125 005e FFF7FEFF 		bl	Error_Handler
 126              	.LVL4:
 127 0062 EDE7     		b	.L3
 128              	.L8:
 182:Core/Src/tim.c ****   }
 129              		.loc 1 182 5 view .LVU35
 130 0064 FFF7FEFF 		bl	Error_Handler
 131              	.LVL5:
 132              		.loc 1 188 1 is_stmt 0 view .LVU36
 133 0068 F3E7     		b	.L1
 134              	.L10:
 135 006a 00BF     		.align	2
 136              	.L9:
 137 006c 00000000 		.word	htim3
 138 0070 00040040 		.word	1073742848
 139              		.cfi_endproc
 140              	.LFE67:
 142              		.section	.text.HAL_TIM_Base_MspInit,"ax",%progbits
 143              		.align	1
 144              		.global	HAL_TIM_Base_MspInit
 145              		.syntax unified
 146              		.thumb
 147              		.thumb_func
 148              		.fpu softvfp
 150              	HAL_TIM_Base_MspInit:
 151              	.LVL6:
 152              	.LFB68:
 189:Core/Src/tim.c **** 
 190:Core/Src/tim.c **** void HAL_TIM_Base_MspInit(TIM_HandleTypeDef* tim_baseHandle)
ARM GAS  C:\Users\LIGUOH~1\AppData\Local\Temp\ccUGF0Rb.s 			page 7


 191:Core/Src/tim.c **** {
 153              		.loc 1 191 1 is_stmt 1 view -0
 154              		.cfi_startproc
 155              		@ args = 0, pretend = 0, frame = 8
 156              		@ frame_needed = 0, uses_anonymous_args = 0
 157              		.loc 1 191 1 is_stmt 0 view .LVU38
 158 0000 00B5     		push	{lr}
 159              	.LCFI4:
 160              		.cfi_def_cfa_offset 4
 161              		.cfi_offset 14, -4
 162 0002 83B0     		sub	sp, sp, #12
 163              	.LCFI5:
 164              		.cfi_def_cfa_offset 16
 192:Core/Src/tim.c **** 
 193:Core/Src/tim.c ****   if(tim_baseHandle->Instance==TIM1)
 165              		.loc 1 193 3 is_stmt 1 view .LVU39
 166              		.loc 1 193 20 is_stmt 0 view .LVU40
 167 0004 0368     		ldr	r3, [r0]
 168              		.loc 1 193 5 view .LVU41
 169 0006 134A     		ldr	r2, .L17
 170 0008 9342     		cmp	r3, r2
 171 000a 05D0     		beq	.L15
 194:Core/Src/tim.c ****   {
 195:Core/Src/tim.c ****   /* USER CODE BEGIN TIM1_MspInit 0 */
 196:Core/Src/tim.c **** 
 197:Core/Src/tim.c ****   /* USER CODE END TIM1_MspInit 0 */
 198:Core/Src/tim.c ****     /* TIM1 clock enable */
 199:Core/Src/tim.c ****     __HAL_RCC_TIM1_CLK_ENABLE();
 200:Core/Src/tim.c ****   /* USER CODE BEGIN TIM1_MspInit 1 */
 201:Core/Src/tim.c **** 
 202:Core/Src/tim.c ****   /* USER CODE END TIM1_MspInit 1 */
 203:Core/Src/tim.c ****   }
 204:Core/Src/tim.c ****   else if(tim_baseHandle->Instance==TIM3)
 172              		.loc 1 204 8 is_stmt 1 view .LVU42
 173              		.loc 1 204 10 is_stmt 0 view .LVU43
 174 000c 124A     		ldr	r2, .L17+4
 175 000e 9342     		cmp	r3, r2
 176 0010 0DD0     		beq	.L16
 177              	.LVL7:
 178              	.L11:
 205:Core/Src/tim.c ****   {
 206:Core/Src/tim.c ****   /* USER CODE BEGIN TIM3_MspInit 0 */
 207:Core/Src/tim.c **** 
 208:Core/Src/tim.c ****   /* USER CODE END TIM3_MspInit 0 */
 209:Core/Src/tim.c ****     /* TIM3 clock enable */
 210:Core/Src/tim.c ****     __HAL_RCC_TIM3_CLK_ENABLE();
 211:Core/Src/tim.c **** 
 212:Core/Src/tim.c ****     /* TIM3 interrupt Init */
 213:Core/Src/tim.c ****     HAL_NVIC_SetPriority(TIM3_IRQn, 0, 0);
 214:Core/Src/tim.c ****     HAL_NVIC_EnableIRQ(TIM3_IRQn);
 215:Core/Src/tim.c ****   /* USER CODE BEGIN TIM3_MspInit 1 */
 216:Core/Src/tim.c **** 
 217:Core/Src/tim.c ****   /* USER CODE END TIM3_MspInit 1 */
 218:Core/Src/tim.c ****   }
 219:Core/Src/tim.c **** }
 179              		.loc 1 219 1 view .LVU44
 180 0012 03B0     		add	sp, sp, #12
ARM GAS  C:\Users\LIGUOH~1\AppData\Local\Temp\ccUGF0Rb.s 			page 8


 181              	.LCFI6:
 182              		.cfi_remember_state
 183              		.cfi_def_cfa_offset 4
 184              		@ sp needed
 185 0014 5DF804FB 		ldr	pc, [sp], #4
 186              	.LVL8:
 187              	.L15:
 188              	.LCFI7:
 189              		.cfi_restore_state
 199:Core/Src/tim.c ****   /* USER CODE BEGIN TIM1_MspInit 1 */
 190              		.loc 1 199 5 is_stmt 1 view .LVU45
 191              	.LBB2:
 199:Core/Src/tim.c ****   /* USER CODE BEGIN TIM1_MspInit 1 */
 192              		.loc 1 199 5 view .LVU46
 199:Core/Src/tim.c ****   /* USER CODE BEGIN TIM1_MspInit 1 */
 193              		.loc 1 199 5 view .LVU47
 194 0018 104B     		ldr	r3, .L17+8
 195 001a 9A69     		ldr	r2, [r3, #24]
 196 001c 42F40062 		orr	r2, r2, #2048
 197 0020 9A61     		str	r2, [r3, #24]
 199:Core/Src/tim.c ****   /* USER CODE BEGIN TIM1_MspInit 1 */
 198              		.loc 1 199 5 view .LVU48
 199 0022 9B69     		ldr	r3, [r3, #24]
 200 0024 03F40063 		and	r3, r3, #2048
 201 0028 0093     		str	r3, [sp]
 199:Core/Src/tim.c ****   /* USER CODE BEGIN TIM1_MspInit 1 */
 202              		.loc 1 199 5 view .LVU49
 203 002a 009B     		ldr	r3, [sp]
 204              	.LBE2:
 199:Core/Src/tim.c ****   /* USER CODE BEGIN TIM1_MspInit 1 */
 205              		.loc 1 199 5 view .LVU50
 206 002c F1E7     		b	.L11
 207              	.L16:
 210:Core/Src/tim.c **** 
 208              		.loc 1 210 5 view .LVU51
 209              	.LBB3:
 210:Core/Src/tim.c **** 
 210              		.loc 1 210 5 view .LVU52
 210:Core/Src/tim.c **** 
 211              		.loc 1 210 5 view .LVU53
 212 002e 0B4B     		ldr	r3, .L17+8
 213 0030 DA69     		ldr	r2, [r3, #28]
 214 0032 42F00202 		orr	r2, r2, #2
 215 0036 DA61     		str	r2, [r3, #28]
 210:Core/Src/tim.c **** 
 216              		.loc 1 210 5 view .LVU54
 217 0038 DB69     		ldr	r3, [r3, #28]
 218 003a 03F00203 		and	r3, r3, #2
 219 003e 0193     		str	r3, [sp, #4]
 210:Core/Src/tim.c **** 
 220              		.loc 1 210 5 view .LVU55
 221 0040 019B     		ldr	r3, [sp, #4]
 222              	.LBE3:
 210:Core/Src/tim.c **** 
 223              		.loc 1 210 5 view .LVU56
 213:Core/Src/tim.c ****     HAL_NVIC_EnableIRQ(TIM3_IRQn);
 224              		.loc 1 213 5 view .LVU57
ARM GAS  C:\Users\LIGUOH~1\AppData\Local\Temp\ccUGF0Rb.s 			page 9


 225 0042 0022     		movs	r2, #0
 226 0044 1146     		mov	r1, r2
 227 0046 1D20     		movs	r0, #29
 228              	.LVL9:
 213:Core/Src/tim.c ****     HAL_NVIC_EnableIRQ(TIM3_IRQn);
 229              		.loc 1 213 5 is_stmt 0 view .LVU58
 230 0048 FFF7FEFF 		bl	HAL_NVIC_SetPriority
 231              	.LVL10:
 214:Core/Src/tim.c ****   /* USER CODE BEGIN TIM3_MspInit 1 */
 232              		.loc 1 214 5 is_stmt 1 view .LVU59
 233 004c 1D20     		movs	r0, #29
 234 004e FFF7FEFF 		bl	HAL_NVIC_EnableIRQ
 235              	.LVL11:
 236              		.loc 1 219 1 is_stmt 0 view .LVU60
 237 0052 DEE7     		b	.L11
 238              	.L18:
 239              		.align	2
 240              	.L17:
 241 0054 002C0140 		.word	1073818624
 242 0058 00040040 		.word	1073742848
 243 005c 00100240 		.word	1073876992
 244              		.cfi_endproc
 245              	.LFE68:
 247              		.section	.text.HAL_TIM_PWM_MspInit,"ax",%progbits
 248              		.align	1
 249              		.global	HAL_TIM_PWM_MspInit
 250              		.syntax unified
 251              		.thumb
 252              		.thumb_func
 253              		.fpu softvfp
 255              	HAL_TIM_PWM_MspInit:
 256              	.LVL12:
 257              	.LFB69:
 220:Core/Src/tim.c **** 
 221:Core/Src/tim.c **** void HAL_TIM_PWM_MspInit(TIM_HandleTypeDef* tim_pwmHandle)
 222:Core/Src/tim.c **** {
 258              		.loc 1 222 1 is_stmt 1 view -0
 259              		.cfi_startproc
 260              		@ args = 0, pretend = 0, frame = 8
 261              		@ frame_needed = 0, uses_anonymous_args = 0
 262              		@ link register save eliminated.
 223:Core/Src/tim.c **** 
 224:Core/Src/tim.c ****   if(tim_pwmHandle->Instance==TIM2)
 263              		.loc 1 224 3 view .LVU62
 264              		.loc 1 224 19 is_stmt 0 view .LVU63
 265 0000 0368     		ldr	r3, [r0]
 266              		.loc 1 224 5 view .LVU64
 267 0002 B3F1804F 		cmp	r3, #1073741824
 268 0006 00D0     		beq	.L25
 269 0008 7047     		bx	lr
 270              	.L25:
 222:Core/Src/tim.c **** 
 271              		.loc 1 222 1 view .LVU65
 272 000a 82B0     		sub	sp, sp, #8
 273              	.LCFI8:
 274              		.cfi_def_cfa_offset 8
 225:Core/Src/tim.c ****   {
ARM GAS  C:\Users\LIGUOH~1\AppData\Local\Temp\ccUGF0Rb.s 			page 10


 226:Core/Src/tim.c ****   /* USER CODE BEGIN TIM2_MspInit 0 */
 227:Core/Src/tim.c **** 
 228:Core/Src/tim.c ****   /* USER CODE END TIM2_MspInit 0 */
 229:Core/Src/tim.c ****     /* TIM2 clock enable */
 230:Core/Src/tim.c ****     __HAL_RCC_TIM2_CLK_ENABLE();
 275              		.loc 1 230 5 is_stmt 1 view .LVU66
 276              	.LBB4:
 277              		.loc 1 230 5 view .LVU67
 278              		.loc 1 230 5 view .LVU68
 279 000c 03F50433 		add	r3, r3, #135168
 280 0010 DA69     		ldr	r2, [r3, #28]
 281 0012 42F00102 		orr	r2, r2, #1
 282 0016 DA61     		str	r2, [r3, #28]
 283              		.loc 1 230 5 view .LVU69
 284 0018 DB69     		ldr	r3, [r3, #28]
 285 001a 03F00103 		and	r3, r3, #1
 286 001e 0193     		str	r3, [sp, #4]
 287              		.loc 1 230 5 view .LVU70
 288 0020 019B     		ldr	r3, [sp, #4]
 289              	.LBE4:
 290              		.loc 1 230 5 view .LVU71
 231:Core/Src/tim.c ****   /* USER CODE BEGIN TIM2_MspInit 1 */
 232:Core/Src/tim.c **** 
 233:Core/Src/tim.c ****   /* USER CODE END TIM2_MspInit 1 */
 234:Core/Src/tim.c ****   }
 235:Core/Src/tim.c **** }
 291              		.loc 1 235 1 is_stmt 0 view .LVU72
 292 0022 02B0     		add	sp, sp, #8
 293              	.LCFI9:
 294              		.cfi_def_cfa_offset 0
 295              		@ sp needed
 296 0024 7047     		bx	lr
 297              		.cfi_endproc
 298              	.LFE69:
 300              		.section	.text.HAL_TIM_MspPostInit,"ax",%progbits
 301              		.align	1
 302              		.global	HAL_TIM_MspPostInit
 303              		.syntax unified
 304              		.thumb
 305              		.thumb_func
 306              		.fpu softvfp
 308              	HAL_TIM_MspPostInit:
 309              	.LVL13:
 310              	.LFB70:
 236:Core/Src/tim.c **** void HAL_TIM_MspPostInit(TIM_HandleTypeDef* timHandle)
 237:Core/Src/tim.c **** {
 311              		.loc 1 237 1 is_stmt 1 view -0
 312              		.cfi_startproc
 313              		@ args = 0, pretend = 0, frame = 24
 314              		@ frame_needed = 0, uses_anonymous_args = 0
 315              		.loc 1 237 1 is_stmt 0 view .LVU74
 316 0000 00B5     		push	{lr}
 317              	.LCFI10:
 318              		.cfi_def_cfa_offset 4
 319              		.cfi_offset 14, -4
 320 0002 87B0     		sub	sp, sp, #28
 321              	.LCFI11:
ARM GAS  C:\Users\LIGUOH~1\AppData\Local\Temp\ccUGF0Rb.s 			page 11


 322              		.cfi_def_cfa_offset 32
 238:Core/Src/tim.c **** 
 239:Core/Src/tim.c ****   GPIO_InitTypeDef GPIO_InitStruct = {0};
 323              		.loc 1 239 3 is_stmt 1 view .LVU75
 324              		.loc 1 239 20 is_stmt 0 view .LVU76
 325 0004 0023     		movs	r3, #0
 326 0006 0293     		str	r3, [sp, #8]
 327 0008 0393     		str	r3, [sp, #12]
 328 000a 0493     		str	r3, [sp, #16]
 329 000c 0593     		str	r3, [sp, #20]
 240:Core/Src/tim.c ****   if(timHandle->Instance==TIM1)
 330              		.loc 1 240 3 is_stmt 1 view .LVU77
 331              		.loc 1 240 15 is_stmt 0 view .LVU78
 332 000e 0368     		ldr	r3, [r0]
 333              		.loc 1 240 5 view .LVU79
 334 0010 1E4A     		ldr	r2, .L32
 335 0012 9342     		cmp	r3, r2
 336 0014 05D0     		beq	.L30
 241:Core/Src/tim.c ****   {
 242:Core/Src/tim.c ****   /* USER CODE BEGIN TIM1_MspPostInit 0 */
 243:Core/Src/tim.c **** 
 244:Core/Src/tim.c ****   /* USER CODE END TIM1_MspPostInit 0 */
 245:Core/Src/tim.c ****     __HAL_RCC_GPIOA_CLK_ENABLE();
 246:Core/Src/tim.c ****     /**TIM1 GPIO Configuration
 247:Core/Src/tim.c ****     PA8     ------> TIM1_CH1
 248:Core/Src/tim.c ****     PA11     ------> TIM1_CH4
 249:Core/Src/tim.c ****     */
 250:Core/Src/tim.c ****     GPIO_InitStruct.Pin = PWM1_Pin|PWM2_Pin;
 251:Core/Src/tim.c ****     GPIO_InitStruct.Mode = GPIO_MODE_AF_PP;
 252:Core/Src/tim.c ****     GPIO_InitStruct.Speed = GPIO_SPEED_FREQ_LOW;
 253:Core/Src/tim.c ****     HAL_GPIO_Init(GPIOA, &GPIO_InitStruct);
 254:Core/Src/tim.c **** 
 255:Core/Src/tim.c ****   /* USER CODE BEGIN TIM1_MspPostInit 1 */
 256:Core/Src/tim.c **** 
 257:Core/Src/tim.c ****   /* USER CODE END TIM1_MspPostInit 1 */
 258:Core/Src/tim.c ****   }
 259:Core/Src/tim.c ****   else if(timHandle->Instance==TIM2)
 337              		.loc 1 259 8 is_stmt 1 view .LVU80
 338              		.loc 1 259 10 is_stmt 0 view .LVU81
 339 0016 B3F1804F 		cmp	r3, #1073741824
 340 001a 17D0     		beq	.L31
 341              	.LVL14:
 342              	.L26:
 260:Core/Src/tim.c ****   {
 261:Core/Src/tim.c ****   /* USER CODE BEGIN TIM2_MspPostInit 0 */
 262:Core/Src/tim.c **** 
 263:Core/Src/tim.c ****   /* USER CODE END TIM2_MspPostInit 0 */
 264:Core/Src/tim.c **** 
 265:Core/Src/tim.c ****     __HAL_RCC_GPIOA_CLK_ENABLE();
 266:Core/Src/tim.c ****     /**TIM2 GPIO Configuration
 267:Core/Src/tim.c ****     PA15     ------> TIM2_CH1
 268:Core/Src/tim.c ****     */
 269:Core/Src/tim.c ****     GPIO_InitStruct.Pin = GPIO_PIN_15;
 270:Core/Src/tim.c ****     GPIO_InitStruct.Mode = GPIO_MODE_AF_PP;
 271:Core/Src/tim.c ****     GPIO_InitStruct.Speed = GPIO_SPEED_FREQ_LOW;
 272:Core/Src/tim.c ****     HAL_GPIO_Init(GPIOA, &GPIO_InitStruct);
 273:Core/Src/tim.c **** 
ARM GAS  C:\Users\LIGUOH~1\AppData\Local\Temp\ccUGF0Rb.s 			page 12


 274:Core/Src/tim.c ****     __HAL_AFIO_REMAP_TIM2_PARTIAL_1();
 275:Core/Src/tim.c **** 
 276:Core/Src/tim.c ****   /* USER CODE BEGIN TIM2_MspPostInit 1 */
 277:Core/Src/tim.c **** 
 278:Core/Src/tim.c ****   /* USER CODE END TIM2_MspPostInit 1 */
 279:Core/Src/tim.c ****   }
 280:Core/Src/tim.c **** 
 281:Core/Src/tim.c **** }
 343              		.loc 1 281 1 view .LVU82
 344 001c 07B0     		add	sp, sp, #28
 345              	.LCFI12:
 346              		.cfi_remember_state
 347              		.cfi_def_cfa_offset 4
 348              		@ sp needed
 349 001e 5DF804FB 		ldr	pc, [sp], #4
 350              	.LVL15:
 351              	.L30:
 352              	.LCFI13:
 353              		.cfi_restore_state
 245:Core/Src/tim.c ****     /**TIM1 GPIO Configuration
 354              		.loc 1 245 5 is_stmt 1 view .LVU83
 355              	.LBB5:
 245:Core/Src/tim.c ****     /**TIM1 GPIO Configuration
 356              		.loc 1 245 5 view .LVU84
 245:Core/Src/tim.c ****     /**TIM1 GPIO Configuration
 357              		.loc 1 245 5 view .LVU85
 358 0022 1B4B     		ldr	r3, .L32+4
 359 0024 9A69     		ldr	r2, [r3, #24]
 360 0026 42F00402 		orr	r2, r2, #4
 361 002a 9A61     		str	r2, [r3, #24]
 245:Core/Src/tim.c ****     /**TIM1 GPIO Configuration
 362              		.loc 1 245 5 view .LVU86
 363 002c 9B69     		ldr	r3, [r3, #24]
 364 002e 03F00403 		and	r3, r3, #4
 365 0032 0093     		str	r3, [sp]
 245:Core/Src/tim.c ****     /**TIM1 GPIO Configuration
 366              		.loc 1 245 5 view .LVU87
 367 0034 009B     		ldr	r3, [sp]
 368              	.LBE5:
 245:Core/Src/tim.c ****     /**TIM1 GPIO Configuration
 369              		.loc 1 245 5 view .LVU88
 250:Core/Src/tim.c ****     GPIO_InitStruct.Mode = GPIO_MODE_AF_PP;
 370              		.loc 1 250 5 view .LVU89
 250:Core/Src/tim.c ****     GPIO_InitStruct.Mode = GPIO_MODE_AF_PP;
 371              		.loc 1 250 25 is_stmt 0 view .LVU90
 372 0036 4FF41063 		mov	r3, #2304
 373 003a 0293     		str	r3, [sp, #8]
 251:Core/Src/tim.c ****     GPIO_InitStruct.Speed = GPIO_SPEED_FREQ_LOW;
 374              		.loc 1 251 5 is_stmt 1 view .LVU91
 251:Core/Src/tim.c ****     GPIO_InitStruct.Speed = GPIO_SPEED_FREQ_LOW;
 375              		.loc 1 251 26 is_stmt 0 view .LVU92
 376 003c 0223     		movs	r3, #2
 377 003e 0393     		str	r3, [sp, #12]
 252:Core/Src/tim.c ****     HAL_GPIO_Init(GPIOA, &GPIO_InitStruct);
 378              		.loc 1 252 5 is_stmt 1 view .LVU93
 252:Core/Src/tim.c ****     HAL_GPIO_Init(GPIOA, &GPIO_InitStruct);
 379              		.loc 1 252 27 is_stmt 0 view .LVU94
ARM GAS  C:\Users\LIGUOH~1\AppData\Local\Temp\ccUGF0Rb.s 			page 13


 380 0040 0593     		str	r3, [sp, #20]
 253:Core/Src/tim.c **** 
 381              		.loc 1 253 5 is_stmt 1 view .LVU95
 382 0042 02A9     		add	r1, sp, #8
 383 0044 1348     		ldr	r0, .L32+8
 384              	.LVL16:
 253:Core/Src/tim.c **** 
 385              		.loc 1 253 5 is_stmt 0 view .LVU96
 386 0046 FFF7FEFF 		bl	HAL_GPIO_Init
 387              	.LVL17:
 388 004a E7E7     		b	.L26
 389              	.LVL18:
 390              	.L31:
 265:Core/Src/tim.c ****     /**TIM2 GPIO Configuration
 391              		.loc 1 265 5 is_stmt 1 view .LVU97
 392              	.LBB6:
 265:Core/Src/tim.c ****     /**TIM2 GPIO Configuration
 393              		.loc 1 265 5 view .LVU98
 265:Core/Src/tim.c ****     /**TIM2 GPIO Configuration
 394              		.loc 1 265 5 view .LVU99
 395 004c 03F50433 		add	r3, r3, #135168
 396 0050 9A69     		ldr	r2, [r3, #24]
 397 0052 42F00402 		orr	r2, r2, #4
 398 0056 9A61     		str	r2, [r3, #24]
 265:Core/Src/tim.c ****     /**TIM2 GPIO Configuration
 399              		.loc 1 265 5 view .LVU100
 400 0058 9B69     		ldr	r3, [r3, #24]
 401 005a 03F00403 		and	r3, r3, #4
 402 005e 0193     		str	r3, [sp, #4]
 265:Core/Src/tim.c ****     /**TIM2 GPIO Configuration
 403              		.loc 1 265 5 view .LVU101
 404 0060 019B     		ldr	r3, [sp, #4]
 405              	.LBE6:
 265:Core/Src/tim.c ****     /**TIM2 GPIO Configuration
 406              		.loc 1 265 5 view .LVU102
 269:Core/Src/tim.c ****     GPIO_InitStruct.Mode = GPIO_MODE_AF_PP;
 407              		.loc 1 269 5 view .LVU103
 269:Core/Src/tim.c ****     GPIO_InitStruct.Mode = GPIO_MODE_AF_PP;
 408              		.loc 1 269 25 is_stmt 0 view .LVU104
 409 0062 4FF40043 		mov	r3, #32768
 410 0066 0293     		str	r3, [sp, #8]
 270:Core/Src/tim.c ****     GPIO_InitStruct.Speed = GPIO_SPEED_FREQ_LOW;
 411              		.loc 1 270 5 is_stmt 1 view .LVU105
 270:Core/Src/tim.c ****     GPIO_InitStruct.Speed = GPIO_SPEED_FREQ_LOW;
 412              		.loc 1 270 26 is_stmt 0 view .LVU106
 413 0068 0223     		movs	r3, #2
 414 006a 0393     		str	r3, [sp, #12]
 271:Core/Src/tim.c ****     HAL_GPIO_Init(GPIOA, &GPIO_InitStruct);
 415              		.loc 1 271 5 is_stmt 1 view .LVU107
 271:Core/Src/tim.c ****     HAL_GPIO_Init(GPIOA, &GPIO_InitStruct);
 416              		.loc 1 271 27 is_stmt 0 view .LVU108
 417 006c 0593     		str	r3, [sp, #20]
 272:Core/Src/tim.c **** 
 418              		.loc 1 272 5 is_stmt 1 view .LVU109
 419 006e 02A9     		add	r1, sp, #8
 420 0070 0848     		ldr	r0, .L32+8
 421              	.LVL19:
ARM GAS  C:\Users\LIGUOH~1\AppData\Local\Temp\ccUGF0Rb.s 			page 14


 272:Core/Src/tim.c **** 
 422              		.loc 1 272 5 is_stmt 0 view .LVU110
 423 0072 FFF7FEFF 		bl	HAL_GPIO_Init
 424              	.LVL20:
 274:Core/Src/tim.c **** 
 425              		.loc 1 274 5 is_stmt 1 view .LVU111
 426              	.LBB7:
 274:Core/Src/tim.c **** 
 427              		.loc 1 274 5 view .LVU112
 428 0076 084A     		ldr	r2, .L32+12
 429 0078 5368     		ldr	r3, [r2, #4]
 430              	.LVL21:
 274:Core/Src/tim.c **** 
 431              		.loc 1 274 5 view .LVU113
 432 007a 23F44073 		bic	r3, r3, #768
 433              	.LVL22:
 274:Core/Src/tim.c **** 
 434              		.loc 1 274 5 view .LVU114
 274:Core/Src/tim.c **** 
 435              		.loc 1 274 5 view .LVU115
 436 007e 43F0E063 		orr	r3, r3, #117440512
 437              	.LVL23:
 274:Core/Src/tim.c **** 
 438              		.loc 1 274 5 is_stmt 0 view .LVU116
 439 0082 43F48073 		orr	r3, r3, #256
 440              	.LVL24:
 274:Core/Src/tim.c **** 
 441              		.loc 1 274 5 is_stmt 1 view .LVU117
 442 0086 5360     		str	r3, [r2, #4]
 443              	.LBE7:
 274:Core/Src/tim.c **** 
 444              		.loc 1 274 5 view .LVU118
 445              		.loc 1 281 1 is_stmt 0 view .LVU119
 446 0088 C8E7     		b	.L26
 447              	.L33:
 448 008a 00BF     		.align	2
 449              	.L32:
 450 008c 002C0140 		.word	1073818624
 451 0090 00100240 		.word	1073876992
 452 0094 00080140 		.word	1073809408
 453 0098 00000140 		.word	1073807360
 454              		.cfi_endproc
 455              	.LFE70:
 457              		.section	.text.MX_TIM1_Init,"ax",%progbits
 458              		.align	1
 459              		.global	MX_TIM1_Init
 460              		.syntax unified
 461              		.thumb
 462              		.thumb_func
 463              		.fpu softvfp
 465              	MX_TIM1_Init:
 466              	.LFB65:
  33:Core/Src/tim.c **** 
 467              		.loc 1 33 1 is_stmt 1 view -0
 468              		.cfi_startproc
 469              		@ args = 0, pretend = 0, frame = 88
 470              		@ frame_needed = 0, uses_anonymous_args = 0
ARM GAS  C:\Users\LIGUOH~1\AppData\Local\Temp\ccUGF0Rb.s 			page 15


 471 0000 10B5     		push	{r4, lr}
 472              	.LCFI14:
 473              		.cfi_def_cfa_offset 8
 474              		.cfi_offset 4, -8
 475              		.cfi_offset 14, -4
 476 0002 96B0     		sub	sp, sp, #88
 477              	.LCFI15:
 478              		.cfi_def_cfa_offset 96
  39:Core/Src/tim.c ****   TIM_MasterConfigTypeDef sMasterConfig = {0};
 479              		.loc 1 39 3 view .LVU121
  39:Core/Src/tim.c ****   TIM_MasterConfigTypeDef sMasterConfig = {0};
 480              		.loc 1 39 26 is_stmt 0 view .LVU122
 481 0004 0024     		movs	r4, #0
 482 0006 1294     		str	r4, [sp, #72]
 483 0008 1394     		str	r4, [sp, #76]
 484 000a 1494     		str	r4, [sp, #80]
 485 000c 1594     		str	r4, [sp, #84]
  40:Core/Src/tim.c ****   TIM_OC_InitTypeDef sConfigOC = {0};
 486              		.loc 1 40 3 is_stmt 1 view .LVU123
  40:Core/Src/tim.c ****   TIM_OC_InitTypeDef sConfigOC = {0};
 487              		.loc 1 40 27 is_stmt 0 view .LVU124
 488 000e 1094     		str	r4, [sp, #64]
 489 0010 1194     		str	r4, [sp, #68]
  41:Core/Src/tim.c ****   TIM_BreakDeadTimeConfigTypeDef sBreakDeadTimeConfig = {0};
 490              		.loc 1 41 3 is_stmt 1 view .LVU125
  41:Core/Src/tim.c ****   TIM_BreakDeadTimeConfigTypeDef sBreakDeadTimeConfig = {0};
 491              		.loc 1 41 22 is_stmt 0 view .LVU126
 492 0012 0994     		str	r4, [sp, #36]
 493 0014 0A94     		str	r4, [sp, #40]
 494 0016 0B94     		str	r4, [sp, #44]
 495 0018 0C94     		str	r4, [sp, #48]
 496 001a 0D94     		str	r4, [sp, #52]
 497 001c 0E94     		str	r4, [sp, #56]
 498 001e 0F94     		str	r4, [sp, #60]
  42:Core/Src/tim.c **** 
 499              		.loc 1 42 3 is_stmt 1 view .LVU127
  42:Core/Src/tim.c **** 
 500              		.loc 1 42 34 is_stmt 0 view .LVU128
 501 0020 2022     		movs	r2, #32
 502 0022 2146     		mov	r1, r4
 503 0024 01A8     		add	r0, sp, #4
 504 0026 FFF7FEFF 		bl	memset
 505              	.LVL25:
  47:Core/Src/tim.c ****   htim1.Init.Prescaler = 1-1;
 506              		.loc 1 47 3 is_stmt 1 view .LVU129
  47:Core/Src/tim.c ****   htim1.Init.Prescaler = 1-1;
 507              		.loc 1 47 18 is_stmt 0 view .LVU130
 508 002a 3348     		ldr	r0, .L50
 509 002c 334B     		ldr	r3, .L50+4
 510 002e 0360     		str	r3, [r0]
  48:Core/Src/tim.c ****   htim1.Init.CounterMode = TIM_COUNTERMODE_UP;
 511              		.loc 1 48 3 is_stmt 1 view .LVU131
  48:Core/Src/tim.c ****   htim1.Init.CounterMode = TIM_COUNTERMODE_UP;
 512              		.loc 1 48 24 is_stmt 0 view .LVU132
 513 0030 4460     		str	r4, [r0, #4]
  49:Core/Src/tim.c ****   htim1.Init.Period = 719;
 514              		.loc 1 49 3 is_stmt 1 view .LVU133
ARM GAS  C:\Users\LIGUOH~1\AppData\Local\Temp\ccUGF0Rb.s 			page 16


  49:Core/Src/tim.c ****   htim1.Init.Period = 719;
 515              		.loc 1 49 26 is_stmt 0 view .LVU134
 516 0032 8460     		str	r4, [r0, #8]
  50:Core/Src/tim.c ****   htim1.Init.ClockDivision = TIM_CLOCKDIVISION_DIV1;
 517              		.loc 1 50 3 is_stmt 1 view .LVU135
  50:Core/Src/tim.c ****   htim1.Init.ClockDivision = TIM_CLOCKDIVISION_DIV1;
 518              		.loc 1 50 21 is_stmt 0 view .LVU136
 519 0034 40F2CF23 		movw	r3, #719
 520 0038 C360     		str	r3, [r0, #12]
  51:Core/Src/tim.c ****   htim1.Init.RepetitionCounter = 0;
 521              		.loc 1 51 3 is_stmt 1 view .LVU137
  51:Core/Src/tim.c ****   htim1.Init.RepetitionCounter = 0;
 522              		.loc 1 51 28 is_stmt 0 view .LVU138
 523 003a 0461     		str	r4, [r0, #16]
  52:Core/Src/tim.c ****   htim1.Init.AutoReloadPreload = TIM_AUTORELOAD_PRELOAD_ENABLE;
 524              		.loc 1 52 3 is_stmt 1 view .LVU139
  52:Core/Src/tim.c ****   htim1.Init.AutoReloadPreload = TIM_AUTORELOAD_PRELOAD_ENABLE;
 525              		.loc 1 52 32 is_stmt 0 view .LVU140
 526 003c 4461     		str	r4, [r0, #20]
  53:Core/Src/tim.c ****   if (HAL_TIM_Base_Init(&htim1) != HAL_OK)
 527              		.loc 1 53 3 is_stmt 1 view .LVU141
  53:Core/Src/tim.c ****   if (HAL_TIM_Base_Init(&htim1) != HAL_OK)
 528              		.loc 1 53 32 is_stmt 0 view .LVU142
 529 003e 8023     		movs	r3, #128
 530 0040 8361     		str	r3, [r0, #24]
  54:Core/Src/tim.c ****   {
 531              		.loc 1 54 3 is_stmt 1 view .LVU143
  54:Core/Src/tim.c ****   {
 532              		.loc 1 54 7 is_stmt 0 view .LVU144
 533 0042 FFF7FEFF 		bl	HAL_TIM_Base_Init
 534              	.LVL26:
  54:Core/Src/tim.c ****   {
 535              		.loc 1 54 6 view .LVU145
 536 0046 0028     		cmp	r0, #0
 537 0048 40D1     		bne	.L43
 538              	.L35:
  58:Core/Src/tim.c ****   if (HAL_TIM_ConfigClockSource(&htim1, &sClockSourceConfig) != HAL_OK)
 539              		.loc 1 58 3 is_stmt 1 view .LVU146
  58:Core/Src/tim.c ****   if (HAL_TIM_ConfigClockSource(&htim1, &sClockSourceConfig) != HAL_OK)
 540              		.loc 1 58 34 is_stmt 0 view .LVU147
 541 004a 4FF48053 		mov	r3, #4096
 542 004e 1293     		str	r3, [sp, #72]
  59:Core/Src/tim.c ****   {
 543              		.loc 1 59 3 is_stmt 1 view .LVU148
  59:Core/Src/tim.c ****   {
 544              		.loc 1 59 7 is_stmt 0 view .LVU149
 545 0050 12A9     		add	r1, sp, #72
 546 0052 2948     		ldr	r0, .L50
 547 0054 FFF7FEFF 		bl	HAL_TIM_ConfigClockSource
 548              	.LVL27:
  59:Core/Src/tim.c ****   {
 549              		.loc 1 59 6 view .LVU150
 550 0058 0028     		cmp	r0, #0
 551 005a 3AD1     		bne	.L44
 552              	.L36:
  63:Core/Src/tim.c ****   {
 553              		.loc 1 63 3 is_stmt 1 view .LVU151
ARM GAS  C:\Users\LIGUOH~1\AppData\Local\Temp\ccUGF0Rb.s 			page 17


  63:Core/Src/tim.c ****   {
 554              		.loc 1 63 7 is_stmt 0 view .LVU152
 555 005c 2648     		ldr	r0, .L50
 556 005e FFF7FEFF 		bl	HAL_TIM_PWM_Init
 557              	.LVL28:
  63:Core/Src/tim.c ****   {
 558              		.loc 1 63 6 view .LVU153
 559 0062 0028     		cmp	r0, #0
 560 0064 38D1     		bne	.L45
 561              	.L37:
  67:Core/Src/tim.c ****   sMasterConfig.MasterSlaveMode = TIM_MASTERSLAVEMODE_DISABLE;
 562              		.loc 1 67 3 is_stmt 1 view .LVU154
  67:Core/Src/tim.c ****   sMasterConfig.MasterSlaveMode = TIM_MASTERSLAVEMODE_DISABLE;
 563              		.loc 1 67 37 is_stmt 0 view .LVU155
 564 0066 0023     		movs	r3, #0
 565 0068 1093     		str	r3, [sp, #64]
  68:Core/Src/tim.c ****   if (HAL_TIMEx_MasterConfigSynchronization(&htim1, &sMasterConfig) != HAL_OK)
 566              		.loc 1 68 3 is_stmt 1 view .LVU156
  68:Core/Src/tim.c ****   if (HAL_TIMEx_MasterConfigSynchronization(&htim1, &sMasterConfig) != HAL_OK)
 567              		.loc 1 68 33 is_stmt 0 view .LVU157
 568 006a 1193     		str	r3, [sp, #68]
  69:Core/Src/tim.c ****   {
 569              		.loc 1 69 3 is_stmt 1 view .LVU158
  69:Core/Src/tim.c ****   {
 570              		.loc 1 69 7 is_stmt 0 view .LVU159
 571 006c 10A9     		add	r1, sp, #64
 572 006e 2248     		ldr	r0, .L50
 573 0070 FFF7FEFF 		bl	HAL_TIMEx_MasterConfigSynchronization
 574              	.LVL29:
  69:Core/Src/tim.c ****   {
 575              		.loc 1 69 6 view .LVU160
 576 0074 0028     		cmp	r0, #0
 577 0076 32D1     		bne	.L46
 578              	.L38:
  73:Core/Src/tim.c ****   sConfigOC.Pulse = 300;
 579              		.loc 1 73 3 is_stmt 1 view .LVU161
  73:Core/Src/tim.c ****   sConfigOC.Pulse = 300;
 580              		.loc 1 73 20 is_stmt 0 view .LVU162
 581 0078 6023     		movs	r3, #96
 582 007a 0993     		str	r3, [sp, #36]
  74:Core/Src/tim.c ****   sConfigOC.OCPolarity = TIM_OCPOLARITY_HIGH;
 583              		.loc 1 74 3 is_stmt 1 view .LVU163
  74:Core/Src/tim.c ****   sConfigOC.OCPolarity = TIM_OCPOLARITY_HIGH;
 584              		.loc 1 74 19 is_stmt 0 view .LVU164
 585 007c 4FF49673 		mov	r3, #300
 586 0080 0A93     		str	r3, [sp, #40]
  75:Core/Src/tim.c ****   sConfigOC.OCNPolarity = TIM_OCNPOLARITY_HIGH;
 587              		.loc 1 75 3 is_stmt 1 view .LVU165
  75:Core/Src/tim.c ****   sConfigOC.OCNPolarity = TIM_OCNPOLARITY_HIGH;
 588              		.loc 1 75 24 is_stmt 0 view .LVU166
 589 0082 0022     		movs	r2, #0
 590 0084 0B92     		str	r2, [sp, #44]
  76:Core/Src/tim.c ****   sConfigOC.OCFastMode = TIM_OCFAST_DISABLE;
 591              		.loc 1 76 3 is_stmt 1 view .LVU167
  76:Core/Src/tim.c ****   sConfigOC.OCFastMode = TIM_OCFAST_DISABLE;
 592              		.loc 1 76 25 is_stmt 0 view .LVU168
 593 0086 0C92     		str	r2, [sp, #48]
ARM GAS  C:\Users\LIGUOH~1\AppData\Local\Temp\ccUGF0Rb.s 			page 18


  77:Core/Src/tim.c ****   sConfigOC.OCIdleState = TIM_OCIDLESTATE_RESET;
 594              		.loc 1 77 3 is_stmt 1 view .LVU169
  77:Core/Src/tim.c ****   sConfigOC.OCIdleState = TIM_OCIDLESTATE_RESET;
 595              		.loc 1 77 24 is_stmt 0 view .LVU170
 596 0088 0D92     		str	r2, [sp, #52]
  78:Core/Src/tim.c ****   sConfigOC.OCNIdleState = TIM_OCNIDLESTATE_RESET;
 597              		.loc 1 78 3 is_stmt 1 view .LVU171
  78:Core/Src/tim.c ****   sConfigOC.OCNIdleState = TIM_OCNIDLESTATE_RESET;
 598              		.loc 1 78 25 is_stmt 0 view .LVU172
 599 008a 0E92     		str	r2, [sp, #56]
  79:Core/Src/tim.c ****   if (HAL_TIM_PWM_ConfigChannel(&htim1, &sConfigOC, TIM_CHANNEL_1) != HAL_OK)
 600              		.loc 1 79 3 is_stmt 1 view .LVU173
  79:Core/Src/tim.c ****   if (HAL_TIM_PWM_ConfigChannel(&htim1, &sConfigOC, TIM_CHANNEL_1) != HAL_OK)
 601              		.loc 1 79 26 is_stmt 0 view .LVU174
 602 008c 0F92     		str	r2, [sp, #60]
  80:Core/Src/tim.c ****   {
 603              		.loc 1 80 3 is_stmt 1 view .LVU175
  80:Core/Src/tim.c ****   {
 604              		.loc 1 80 7 is_stmt 0 view .LVU176
 605 008e 09A9     		add	r1, sp, #36
 606 0090 1948     		ldr	r0, .L50
 607 0092 FFF7FEFF 		bl	HAL_TIM_PWM_ConfigChannel
 608              	.LVL30:
  80:Core/Src/tim.c ****   {
 609              		.loc 1 80 6 view .LVU177
 610 0096 28BB     		cbnz	r0, .L47
 611              	.L39:
  84:Core/Src/tim.c ****   {
 612              		.loc 1 84 3 is_stmt 1 view .LVU178
  84:Core/Src/tim.c ****   {
 613              		.loc 1 84 7 is_stmt 0 view .LVU179
 614 0098 0C22     		movs	r2, #12
 615 009a 09A9     		add	r1, sp, #36
 616 009c 1648     		ldr	r0, .L50
 617 009e FFF7FEFF 		bl	HAL_TIM_PWM_ConfigChannel
 618              	.LVL31:
  84:Core/Src/tim.c ****   {
 619              		.loc 1 84 6 view .LVU180
 620 00a2 10BB     		cbnz	r0, .L48
 621              	.L40:
  88:Core/Src/tim.c ****   sBreakDeadTimeConfig.OffStateIDLEMode = TIM_OSSI_DISABLE;
 622              		.loc 1 88 3 is_stmt 1 view .LVU181
  88:Core/Src/tim.c ****   sBreakDeadTimeConfig.OffStateIDLEMode = TIM_OSSI_DISABLE;
 623              		.loc 1 88 40 is_stmt 0 view .LVU182
 624 00a4 0023     		movs	r3, #0
 625 00a6 0193     		str	r3, [sp, #4]
  89:Core/Src/tim.c ****   sBreakDeadTimeConfig.LockLevel = TIM_LOCKLEVEL_OFF;
 626              		.loc 1 89 3 is_stmt 1 view .LVU183
  89:Core/Src/tim.c ****   sBreakDeadTimeConfig.LockLevel = TIM_LOCKLEVEL_OFF;
 627              		.loc 1 89 41 is_stmt 0 view .LVU184
 628 00a8 0293     		str	r3, [sp, #8]
  90:Core/Src/tim.c ****   sBreakDeadTimeConfig.DeadTime = 0;
 629              		.loc 1 90 3 is_stmt 1 view .LVU185
  90:Core/Src/tim.c ****   sBreakDeadTimeConfig.DeadTime = 0;
 630              		.loc 1 90 34 is_stmt 0 view .LVU186
 631 00aa 0393     		str	r3, [sp, #12]
  91:Core/Src/tim.c ****   sBreakDeadTimeConfig.BreakState = TIM_BREAK_DISABLE;
ARM GAS  C:\Users\LIGUOH~1\AppData\Local\Temp\ccUGF0Rb.s 			page 19


 632              		.loc 1 91 3 is_stmt 1 view .LVU187
  91:Core/Src/tim.c ****   sBreakDeadTimeConfig.BreakState = TIM_BREAK_DISABLE;
 633              		.loc 1 91 33 is_stmt 0 view .LVU188
 634 00ac 0493     		str	r3, [sp, #16]
  92:Core/Src/tim.c ****   sBreakDeadTimeConfig.BreakPolarity = TIM_BREAKPOLARITY_HIGH;
 635              		.loc 1 92 3 is_stmt 1 view .LVU189
  92:Core/Src/tim.c ****   sBreakDeadTimeConfig.BreakPolarity = TIM_BREAKPOLARITY_HIGH;
 636              		.loc 1 92 35 is_stmt 0 view .LVU190
 637 00ae 0593     		str	r3, [sp, #20]
  93:Core/Src/tim.c ****   sBreakDeadTimeConfig.AutomaticOutput = TIM_AUTOMATICOUTPUT_DISABLE;
 638              		.loc 1 93 3 is_stmt 1 view .LVU191
  93:Core/Src/tim.c ****   sBreakDeadTimeConfig.AutomaticOutput = TIM_AUTOMATICOUTPUT_DISABLE;
 639              		.loc 1 93 38 is_stmt 0 view .LVU192
 640 00b0 4FF40052 		mov	r2, #8192
 641 00b4 0692     		str	r2, [sp, #24]
  94:Core/Src/tim.c ****   if (HAL_TIMEx_ConfigBreakDeadTime(&htim1, &sBreakDeadTimeConfig) != HAL_OK)
 642              		.loc 1 94 3 is_stmt 1 view .LVU193
  94:Core/Src/tim.c ****   if (HAL_TIMEx_ConfigBreakDeadTime(&htim1, &sBreakDeadTimeConfig) != HAL_OK)
 643              		.loc 1 94 40 is_stmt 0 view .LVU194
 644 00b6 0893     		str	r3, [sp, #32]
  95:Core/Src/tim.c ****   {
 645              		.loc 1 95 3 is_stmt 1 view .LVU195
  95:Core/Src/tim.c ****   {
 646              		.loc 1 95 7 is_stmt 0 view .LVU196
 647 00b8 01A9     		add	r1, sp, #4
 648 00ba 0F48     		ldr	r0, .L50
 649 00bc FFF7FEFF 		bl	HAL_TIMEx_ConfigBreakDeadTime
 650              	.LVL32:
  95:Core/Src/tim.c ****   {
 651              		.loc 1 95 6 view .LVU197
 652 00c0 B0B9     		cbnz	r0, .L49
 653              	.L41:
 102:Core/Src/tim.c **** 
 654              		.loc 1 102 3 is_stmt 1 view .LVU198
 655 00c2 0D48     		ldr	r0, .L50
 656 00c4 FFF7FEFF 		bl	HAL_TIM_MspPostInit
 657              	.LVL33:
 104:Core/Src/tim.c **** /* TIM2 init function */
 658              		.loc 1 104 1 is_stmt 0 view .LVU199
 659 00c8 16B0     		add	sp, sp, #88
 660              	.LCFI16:
 661              		.cfi_remember_state
 662              		.cfi_def_cfa_offset 8
 663              		@ sp needed
 664 00ca 10BD     		pop	{r4, pc}
 665              	.L43:
 666              	.LCFI17:
 667              		.cfi_restore_state
  56:Core/Src/tim.c ****   }
 668              		.loc 1 56 5 is_stmt 1 view .LVU200
 669 00cc FFF7FEFF 		bl	Error_Handler
 670              	.LVL34:
 671 00d0 BBE7     		b	.L35
 672              	.L44:
  61:Core/Src/tim.c ****   }
 673              		.loc 1 61 5 view .LVU201
 674 00d2 FFF7FEFF 		bl	Error_Handler
ARM GAS  C:\Users\LIGUOH~1\AppData\Local\Temp\ccUGF0Rb.s 			page 20


 675              	.LVL35:
 676 00d6 C1E7     		b	.L36
 677              	.L45:
  65:Core/Src/tim.c ****   }
 678              		.loc 1 65 5 view .LVU202
 679 00d8 FFF7FEFF 		bl	Error_Handler
 680              	.LVL36:
 681 00dc C3E7     		b	.L37
 682              	.L46:
  71:Core/Src/tim.c ****   }
 683              		.loc 1 71 5 view .LVU203
 684 00de FFF7FEFF 		bl	Error_Handler
 685              	.LVL37:
 686 00e2 C9E7     		b	.L38
 687              	.L47:
  82:Core/Src/tim.c ****   }
 688              		.loc 1 82 5 view .LVU204
 689 00e4 FFF7FEFF 		bl	Error_Handler
 690              	.LVL38:
 691 00e8 D6E7     		b	.L39
 692              	.L48:
  86:Core/Src/tim.c ****   }
 693              		.loc 1 86 5 view .LVU205
 694 00ea FFF7FEFF 		bl	Error_Handler
 695              	.LVL39:
 696 00ee D9E7     		b	.L40
 697              	.L49:
  97:Core/Src/tim.c ****   }
 698              		.loc 1 97 5 view .LVU206
 699 00f0 FFF7FEFF 		bl	Error_Handler
 700              	.LVL40:
 701 00f4 E5E7     		b	.L41
 702              	.L51:
 703 00f6 00BF     		.align	2
 704              	.L50:
 705 00f8 00000000 		.word	htim1
 706 00fc 002C0140 		.word	1073818624
 707              		.cfi_endproc
 708              	.LFE65:
 710              		.section	.text.MX_TIM2_Init,"ax",%progbits
 711              		.align	1
 712              		.global	MX_TIM2_Init
 713              		.syntax unified
 714              		.thumb
 715              		.thumb_func
 716              		.fpu softvfp
 718              	MX_TIM2_Init:
 719              	.LFB66:
 107:Core/Src/tim.c **** 
 720              		.loc 1 107 1 view -0
 721              		.cfi_startproc
 722              		@ args = 0, pretend = 0, frame = 40
 723              		@ frame_needed = 0, uses_anonymous_args = 0
 724 0000 00B5     		push	{lr}
 725              	.LCFI18:
 726              		.cfi_def_cfa_offset 4
 727              		.cfi_offset 14, -4
ARM GAS  C:\Users\LIGUOH~1\AppData\Local\Temp\ccUGF0Rb.s 			page 21


 728 0002 8BB0     		sub	sp, sp, #44
 729              	.LCFI19:
 730              		.cfi_def_cfa_offset 48
 113:Core/Src/tim.c ****   TIM_OC_InitTypeDef sConfigOC = {0};
 731              		.loc 1 113 3 view .LVU208
 113:Core/Src/tim.c ****   TIM_OC_InitTypeDef sConfigOC = {0};
 732              		.loc 1 113 27 is_stmt 0 view .LVU209
 733 0004 0023     		movs	r3, #0
 734 0006 0893     		str	r3, [sp, #32]
 735 0008 0993     		str	r3, [sp, #36]
 114:Core/Src/tim.c **** 
 736              		.loc 1 114 3 is_stmt 1 view .LVU210
 114:Core/Src/tim.c **** 
 737              		.loc 1 114 22 is_stmt 0 view .LVU211
 738 000a 0193     		str	r3, [sp, #4]
 739 000c 0293     		str	r3, [sp, #8]
 740 000e 0393     		str	r3, [sp, #12]
 741 0010 0493     		str	r3, [sp, #16]
 742 0012 0593     		str	r3, [sp, #20]
 743 0014 0693     		str	r3, [sp, #24]
 744 0016 0793     		str	r3, [sp, #28]
 119:Core/Src/tim.c ****   htim2.Init.Prescaler = 7200-1;
 745              		.loc 1 119 3 is_stmt 1 view .LVU212
 119:Core/Src/tim.c ****   htim2.Init.Prescaler = 7200-1;
 746              		.loc 1 119 18 is_stmt 0 view .LVU213
 747 0018 1A48     		ldr	r0, .L60
 748 001a 4FF08042 		mov	r2, #1073741824
 749 001e 0260     		str	r2, [r0]
 120:Core/Src/tim.c ****   htim2.Init.CounterMode = TIM_COUNTERMODE_UP;
 750              		.loc 1 120 3 is_stmt 1 view .LVU214
 120:Core/Src/tim.c ****   htim2.Init.CounterMode = TIM_COUNTERMODE_UP;
 751              		.loc 1 120 24 is_stmt 0 view .LVU215
 752 0020 41F61F42 		movw	r2, #7199
 753 0024 4260     		str	r2, [r0, #4]
 121:Core/Src/tim.c ****   htim2.Init.Period = 5000-1;
 754              		.loc 1 121 3 is_stmt 1 view .LVU216
 121:Core/Src/tim.c ****   htim2.Init.Period = 5000-1;
 755              		.loc 1 121 26 is_stmt 0 view .LVU217
 756 0026 8360     		str	r3, [r0, #8]
 122:Core/Src/tim.c ****   htim2.Init.ClockDivision = TIM_CLOCKDIVISION_DIV1;
 757              		.loc 1 122 3 is_stmt 1 view .LVU218
 122:Core/Src/tim.c ****   htim2.Init.ClockDivision = TIM_CLOCKDIVISION_DIV1;
 758              		.loc 1 122 21 is_stmt 0 view .LVU219
 759 0028 41F28732 		movw	r2, #4999
 760 002c C260     		str	r2, [r0, #12]
 123:Core/Src/tim.c ****   htim2.Init.AutoReloadPreload = TIM_AUTORELOAD_PRELOAD_ENABLE;
 761              		.loc 1 123 3 is_stmt 1 view .LVU220
 123:Core/Src/tim.c ****   htim2.Init.AutoReloadPreload = TIM_AUTORELOAD_PRELOAD_ENABLE;
 762              		.loc 1 123 28 is_stmt 0 view .LVU221
 763 002e 0361     		str	r3, [r0, #16]
 124:Core/Src/tim.c ****   if (HAL_TIM_PWM_Init(&htim2) != HAL_OK)
 764              		.loc 1 124 3 is_stmt 1 view .LVU222
 124:Core/Src/tim.c ****   if (HAL_TIM_PWM_Init(&htim2) != HAL_OK)
 765              		.loc 1 124 32 is_stmt 0 view .LVU223
 766 0030 8023     		movs	r3, #128
 767 0032 8361     		str	r3, [r0, #24]
 125:Core/Src/tim.c ****   {
ARM GAS  C:\Users\LIGUOH~1\AppData\Local\Temp\ccUGF0Rb.s 			page 22


 768              		.loc 1 125 3 is_stmt 1 view .LVU224
 125:Core/Src/tim.c ****   {
 769              		.loc 1 125 7 is_stmt 0 view .LVU225
 770 0034 FFF7FEFF 		bl	HAL_TIM_PWM_Init
 771              	.LVL41:
 125:Core/Src/tim.c ****   {
 772              		.loc 1 125 6 view .LVU226
 773 0038 D0B9     		cbnz	r0, .L57
 774              	.L53:
 129:Core/Src/tim.c ****   sMasterConfig.MasterSlaveMode = TIM_MASTERSLAVEMODE_DISABLE;
 775              		.loc 1 129 3 is_stmt 1 view .LVU227
 129:Core/Src/tim.c ****   sMasterConfig.MasterSlaveMode = TIM_MASTERSLAVEMODE_DISABLE;
 776              		.loc 1 129 37 is_stmt 0 view .LVU228
 777 003a 0023     		movs	r3, #0
 778 003c 0893     		str	r3, [sp, #32]
 130:Core/Src/tim.c ****   if (HAL_TIMEx_MasterConfigSynchronization(&htim2, &sMasterConfig) != HAL_OK)
 779              		.loc 1 130 3 is_stmt 1 view .LVU229
 130:Core/Src/tim.c ****   if (HAL_TIMEx_MasterConfigSynchronization(&htim2, &sMasterConfig) != HAL_OK)
 780              		.loc 1 130 33 is_stmt 0 view .LVU230
 781 003e 0993     		str	r3, [sp, #36]
 131:Core/Src/tim.c ****   {
 782              		.loc 1 131 3 is_stmt 1 view .LVU231
 131:Core/Src/tim.c ****   {
 783              		.loc 1 131 7 is_stmt 0 view .LVU232
 784 0040 08A9     		add	r1, sp, #32
 785 0042 1048     		ldr	r0, .L60
 786 0044 FFF7FEFF 		bl	HAL_TIMEx_MasterConfigSynchronization
 787              	.LVL42:
 131:Core/Src/tim.c ****   {
 788              		.loc 1 131 6 view .LVU233
 789 0048 A8B9     		cbnz	r0, .L58
 790              	.L54:
 135:Core/Src/tim.c ****   sConfigOC.Pulse = 2500;
 791              		.loc 1 135 3 is_stmt 1 view .LVU234
 135:Core/Src/tim.c ****   sConfigOC.Pulse = 2500;
 792              		.loc 1 135 20 is_stmt 0 view .LVU235
 793 004a 6023     		movs	r3, #96
 794 004c 0193     		str	r3, [sp, #4]
 136:Core/Src/tim.c ****   sConfigOC.OCPolarity = TIM_OCPOLARITY_HIGH;
 795              		.loc 1 136 3 is_stmt 1 view .LVU236
 136:Core/Src/tim.c ****   sConfigOC.OCPolarity = TIM_OCPOLARITY_HIGH;
 796              		.loc 1 136 19 is_stmt 0 view .LVU237
 797 004e 40F6C413 		movw	r3, #2500
 798 0052 0293     		str	r3, [sp, #8]
 137:Core/Src/tim.c ****   sConfigOC.OCFastMode = TIM_OCFAST_DISABLE;
 799              		.loc 1 137 3 is_stmt 1 view .LVU238
 137:Core/Src/tim.c ****   sConfigOC.OCFastMode = TIM_OCFAST_DISABLE;
 800              		.loc 1 137 24 is_stmt 0 view .LVU239
 801 0054 0022     		movs	r2, #0
 802 0056 0392     		str	r2, [sp, #12]
 138:Core/Src/tim.c ****   if (HAL_TIM_PWM_ConfigChannel(&htim2, &sConfigOC, TIM_CHANNEL_1) != HAL_OK)
 803              		.loc 1 138 3 is_stmt 1 view .LVU240
 138:Core/Src/tim.c ****   if (HAL_TIM_PWM_ConfigChannel(&htim2, &sConfigOC, TIM_CHANNEL_1) != HAL_OK)
 804              		.loc 1 138 24 is_stmt 0 view .LVU241
 805 0058 0592     		str	r2, [sp, #20]
 139:Core/Src/tim.c ****   {
 806              		.loc 1 139 3 is_stmt 1 view .LVU242
ARM GAS  C:\Users\LIGUOH~1\AppData\Local\Temp\ccUGF0Rb.s 			page 23


 139:Core/Src/tim.c ****   {
 807              		.loc 1 139 7 is_stmt 0 view .LVU243
 808 005a 01A9     		add	r1, sp, #4
 809 005c 0948     		ldr	r0, .L60
 810 005e FFF7FEFF 		bl	HAL_TIM_PWM_ConfigChannel
 811              	.LVL43:
 139:Core/Src/tim.c ****   {
 812              		.loc 1 139 6 view .LVU244
 813 0062 58B9     		cbnz	r0, .L59
 814              	.L55:
 146:Core/Src/tim.c **** 
 815              		.loc 1 146 3 is_stmt 1 view .LVU245
 816 0064 0748     		ldr	r0, .L60
 817 0066 FFF7FEFF 		bl	HAL_TIM_MspPostInit
 818              	.LVL44:
 148:Core/Src/tim.c **** /* TIM3 init function */
 819              		.loc 1 148 1 is_stmt 0 view .LVU246
 820 006a 0BB0     		add	sp, sp, #44
 821              	.LCFI20:
 822              		.cfi_remember_state
 823              		.cfi_def_cfa_offset 4
 824              		@ sp needed
 825 006c 5DF804FB 		ldr	pc, [sp], #4
 826              	.L57:
 827              	.LCFI21:
 828              		.cfi_restore_state
 127:Core/Src/tim.c ****   }
 829              		.loc 1 127 5 is_stmt 1 view .LVU247
 830 0070 FFF7FEFF 		bl	Error_Handler
 831              	.LVL45:
 832 0074 E1E7     		b	.L53
 833              	.L58:
 133:Core/Src/tim.c ****   }
 834              		.loc 1 133 5 view .LVU248
 835 0076 FFF7FEFF 		bl	Error_Handler
 836              	.LVL46:
 837 007a E6E7     		b	.L54
 838              	.L59:
 141:Core/Src/tim.c ****   }
 839              		.loc 1 141 5 view .LVU249
 840 007c FFF7FEFF 		bl	Error_Handler
 841              	.LVL47:
 842 0080 F0E7     		b	.L55
 843              	.L61:
 844 0082 00BF     		.align	2
 845              	.L60:
 846 0084 00000000 		.word	htim2
 847              		.cfi_endproc
 848              	.LFE66:
 850              		.section	.text.HAL_TIM_Base_MspDeInit,"ax",%progbits
 851              		.align	1
 852              		.global	HAL_TIM_Base_MspDeInit
 853              		.syntax unified
 854              		.thumb
 855              		.thumb_func
 856              		.fpu softvfp
 858              	HAL_TIM_Base_MspDeInit:
ARM GAS  C:\Users\LIGUOH~1\AppData\Local\Temp\ccUGF0Rb.s 			page 24


 859              	.LVL48:
 860              	.LFB71:
 282:Core/Src/tim.c **** 
 283:Core/Src/tim.c **** void HAL_TIM_Base_MspDeInit(TIM_HandleTypeDef* tim_baseHandle)
 284:Core/Src/tim.c **** {
 861              		.loc 1 284 1 view -0
 862              		.cfi_startproc
 863              		@ args = 0, pretend = 0, frame = 0
 864              		@ frame_needed = 0, uses_anonymous_args = 0
 865              		.loc 1 284 1 is_stmt 0 view .LVU251
 866 0000 08B5     		push	{r3, lr}
 867              	.LCFI22:
 868              		.cfi_def_cfa_offset 8
 869              		.cfi_offset 3, -8
 870              		.cfi_offset 14, -4
 285:Core/Src/tim.c **** 
 286:Core/Src/tim.c ****   if(tim_baseHandle->Instance==TIM1)
 871              		.loc 1 286 3 is_stmt 1 view .LVU252
 872              		.loc 1 286 20 is_stmt 0 view .LVU253
 873 0002 0368     		ldr	r3, [r0]
 874              		.loc 1 286 5 view .LVU254
 875 0004 0B4A     		ldr	r2, .L68
 876 0006 9342     		cmp	r3, r2
 877 0008 03D0     		beq	.L66
 287:Core/Src/tim.c ****   {
 288:Core/Src/tim.c ****   /* USER CODE BEGIN TIM1_MspDeInit 0 */
 289:Core/Src/tim.c **** 
 290:Core/Src/tim.c ****   /* USER CODE END TIM1_MspDeInit 0 */
 291:Core/Src/tim.c ****     /* Peripheral clock disable */
 292:Core/Src/tim.c ****     __HAL_RCC_TIM1_CLK_DISABLE();
 293:Core/Src/tim.c ****   /* USER CODE BEGIN TIM1_MspDeInit 1 */
 294:Core/Src/tim.c **** 
 295:Core/Src/tim.c ****   /* USER CODE END TIM1_MspDeInit 1 */
 296:Core/Src/tim.c ****   }
 297:Core/Src/tim.c ****   else if(tim_baseHandle->Instance==TIM3)
 878              		.loc 1 297 8 is_stmt 1 view .LVU255
 879              		.loc 1 297 10 is_stmt 0 view .LVU256
 880 000a 0B4A     		ldr	r2, .L68+4
 881 000c 9342     		cmp	r3, r2
 882 000e 07D0     		beq	.L67
 883              	.LVL49:
 884              	.L62:
 298:Core/Src/tim.c ****   {
 299:Core/Src/tim.c ****   /* USER CODE BEGIN TIM3_MspDeInit 0 */
 300:Core/Src/tim.c **** 
 301:Core/Src/tim.c ****   /* USER CODE END TIM3_MspDeInit 0 */
 302:Core/Src/tim.c ****     /* Peripheral clock disable */
 303:Core/Src/tim.c ****     __HAL_RCC_TIM3_CLK_DISABLE();
 304:Core/Src/tim.c **** 
 305:Core/Src/tim.c ****     /* TIM3 interrupt Deinit */
 306:Core/Src/tim.c ****     HAL_NVIC_DisableIRQ(TIM3_IRQn);
 307:Core/Src/tim.c ****   /* USER CODE BEGIN TIM3_MspDeInit 1 */
 308:Core/Src/tim.c **** 
 309:Core/Src/tim.c ****   /* USER CODE END TIM3_MspDeInit 1 */
 310:Core/Src/tim.c ****   }
 311:Core/Src/tim.c **** }
 885              		.loc 1 311 1 view .LVU257
ARM GAS  C:\Users\LIGUOH~1\AppData\Local\Temp\ccUGF0Rb.s 			page 25


 886 0010 08BD     		pop	{r3, pc}
 887              	.LVL50:
 888              	.L66:
 292:Core/Src/tim.c ****   /* USER CODE BEGIN TIM1_MspDeInit 1 */
 889              		.loc 1 292 5 is_stmt 1 view .LVU258
 890 0012 02F56442 		add	r2, r2, #58368
 891 0016 9369     		ldr	r3, [r2, #24]
 892 0018 23F40063 		bic	r3, r3, #2048
 893 001c 9361     		str	r3, [r2, #24]
 894 001e F7E7     		b	.L62
 895              	.L67:
 303:Core/Src/tim.c **** 
 896              		.loc 1 303 5 view .LVU259
 897 0020 02F50332 		add	r2, r2, #134144
 898 0024 D369     		ldr	r3, [r2, #28]
 899 0026 23F00203 		bic	r3, r3, #2
 900 002a D361     		str	r3, [r2, #28]
 306:Core/Src/tim.c ****   /* USER CODE BEGIN TIM3_MspDeInit 1 */
 901              		.loc 1 306 5 view .LVU260
 902 002c 1D20     		movs	r0, #29
 903              	.LVL51:
 306:Core/Src/tim.c ****   /* USER CODE BEGIN TIM3_MspDeInit 1 */
 904              		.loc 1 306 5 is_stmt 0 view .LVU261
 905 002e FFF7FEFF 		bl	HAL_NVIC_DisableIRQ
 906              	.LVL52:
 907              		.loc 1 311 1 view .LVU262
 908 0032 EDE7     		b	.L62
 909              	.L69:
 910              		.align	2
 911              	.L68:
 912 0034 002C0140 		.word	1073818624
 913 0038 00040040 		.word	1073742848
 914              		.cfi_endproc
 915              	.LFE71:
 917              		.section	.text.HAL_TIM_PWM_MspDeInit,"ax",%progbits
 918              		.align	1
 919              		.global	HAL_TIM_PWM_MspDeInit
 920              		.syntax unified
 921              		.thumb
 922              		.thumb_func
 923              		.fpu softvfp
 925              	HAL_TIM_PWM_MspDeInit:
 926              	.LVL53:
 927              	.LFB72:
 312:Core/Src/tim.c **** 
 313:Core/Src/tim.c **** void HAL_TIM_PWM_MspDeInit(TIM_HandleTypeDef* tim_pwmHandle)
 314:Core/Src/tim.c **** {
 928              		.loc 1 314 1 is_stmt 1 view -0
 929              		.cfi_startproc
 930              		@ args = 0, pretend = 0, frame = 0
 931              		@ frame_needed = 0, uses_anonymous_args = 0
 932              		@ link register save eliminated.
 315:Core/Src/tim.c **** 
 316:Core/Src/tim.c ****   if(tim_pwmHandle->Instance==TIM2)
 933              		.loc 1 316 3 view .LVU264
 934              		.loc 1 316 19 is_stmt 0 view .LVU265
 935 0000 0368     		ldr	r3, [r0]
ARM GAS  C:\Users\LIGUOH~1\AppData\Local\Temp\ccUGF0Rb.s 			page 26


 936              		.loc 1 316 5 view .LVU266
 937 0002 B3F1804F 		cmp	r3, #1073741824
 938 0006 00D0     		beq	.L72
 939              	.L70:
 317:Core/Src/tim.c ****   {
 318:Core/Src/tim.c ****   /* USER CODE BEGIN TIM2_MspDeInit 0 */
 319:Core/Src/tim.c **** 
 320:Core/Src/tim.c ****   /* USER CODE END TIM2_MspDeInit 0 */
 321:Core/Src/tim.c ****     /* Peripheral clock disable */
 322:Core/Src/tim.c ****     __HAL_RCC_TIM2_CLK_DISABLE();
 323:Core/Src/tim.c ****   /* USER CODE BEGIN TIM2_MspDeInit 1 */
 324:Core/Src/tim.c **** 
 325:Core/Src/tim.c ****   /* USER CODE END TIM2_MspDeInit 1 */
 326:Core/Src/tim.c ****   }
 327:Core/Src/tim.c **** }
 940              		.loc 1 327 1 view .LVU267
 941 0008 7047     		bx	lr
 942              	.L72:
 322:Core/Src/tim.c ****   /* USER CODE BEGIN TIM2_MspDeInit 1 */
 943              		.loc 1 322 5 is_stmt 1 view .LVU268
 944 000a 034A     		ldr	r2, .L73
 945 000c D369     		ldr	r3, [r2, #28]
 946 000e 23F00103 		bic	r3, r3, #1
 947 0012 D361     		str	r3, [r2, #28]
 948              		.loc 1 327 1 is_stmt 0 view .LVU269
 949 0014 F8E7     		b	.L70
 950              	.L74:
 951 0016 00BF     		.align	2
 952              	.L73:
 953 0018 00100240 		.word	1073876992
 954              		.cfi_endproc
 955              	.LFE72:
 957              		.comm	htim3,72,4
 958              		.comm	htim2,72,4
 959              		.comm	htim1,72,4
 960              		.text
 961              	.Letext0:
 962              		.file 2 "c:\\gnu_tool_arm_embedded\\arm-none-eabi\\include\\machine\\_default_types.h"
 963              		.file 3 "c:\\gnu_tool_arm_embedded\\arm-none-eabi\\include\\sys\\_stdint.h"
 964              		.file 4 "Drivers/CMSIS/Include/core_cm3.h"
 965              		.file 5 "Drivers/CMSIS/Device/ST/STM32F1xx/Include/system_stm32f1xx.h"
 966              		.file 6 "Drivers/CMSIS/Device/ST/STM32F1xx/Include/stm32f103xb.h"
 967              		.file 7 "Drivers/STM32F1xx_HAL_Driver/Inc/stm32f1xx_hal_def.h"
 968              		.file 8 "Drivers/STM32F1xx_HAL_Driver/Inc/stm32f1xx_hal_gpio.h"
 969              		.file 9 "Drivers/STM32F1xx_HAL_Driver/Inc/stm32f1xx_hal_dma.h"
 970              		.file 10 "Drivers/STM32F1xx_HAL_Driver/Inc/stm32f1xx_hal_tim.h"
 971              		.file 11 "Drivers/STM32F1xx_HAL_Driver/Inc/stm32f1xx_hal.h"
 972              		.file 12 "Core/Inc/tim.h"
 973              		.file 13 "Drivers/STM32F1xx_HAL_Driver/Inc/stm32f1xx_hal_cortex.h"
 974              		.file 14 "Drivers/STM32F1xx_HAL_Driver/Inc/stm32f1xx_hal_tim_ex.h"
 975              		.file 15 "Core/Inc/main.h"
 976              		.file 16 "<built-in>"
ARM GAS  C:\Users\LIGUOH~1\AppData\Local\Temp\ccUGF0Rb.s 			page 27


DEFINED SYMBOLS
                            *ABS*:00000000 tim.c
C:\Users\LIGUOH~1\AppData\Local\Temp\ccUGF0Rb.s:16     .text.MX_TIM3_Init:00000000 $t
C:\Users\LIGUOH~1\AppData\Local\Temp\ccUGF0Rb.s:24     .text.MX_TIM3_Init:00000000 MX_TIM3_Init
C:\Users\LIGUOH~1\AppData\Local\Temp\ccUGF0Rb.s:137    .text.MX_TIM3_Init:0000006c $d
                            *COM*:00000048 htim3
C:\Users\LIGUOH~1\AppData\Local\Temp\ccUGF0Rb.s:143    .text.HAL_TIM_Base_MspInit:00000000 $t
C:\Users\LIGUOH~1\AppData\Local\Temp\ccUGF0Rb.s:150    .text.HAL_TIM_Base_MspInit:00000000 HAL_TIM_Base_MspInit
C:\Users\LIGUOH~1\AppData\Local\Temp\ccUGF0Rb.s:241    .text.HAL_TIM_Base_MspInit:00000054 $d
C:\Users\LIGUOH~1\AppData\Local\Temp\ccUGF0Rb.s:248    .text.HAL_TIM_PWM_MspInit:00000000 $t
C:\Users\LIGUOH~1\AppData\Local\Temp\ccUGF0Rb.s:255    .text.HAL_TIM_PWM_MspInit:00000000 HAL_TIM_PWM_MspInit
C:\Users\LIGUOH~1\AppData\Local\Temp\ccUGF0Rb.s:301    .text.HAL_TIM_MspPostInit:00000000 $t
C:\Users\LIGUOH~1\AppData\Local\Temp\ccUGF0Rb.s:308    .text.HAL_TIM_MspPostInit:00000000 HAL_TIM_MspPostInit
C:\Users\LIGUOH~1\AppData\Local\Temp\ccUGF0Rb.s:450    .text.HAL_TIM_MspPostInit:0000008c $d
C:\Users\LIGUOH~1\AppData\Local\Temp\ccUGF0Rb.s:458    .text.MX_TIM1_Init:00000000 $t
C:\Users\LIGUOH~1\AppData\Local\Temp\ccUGF0Rb.s:465    .text.MX_TIM1_Init:00000000 MX_TIM1_Init
C:\Users\LIGUOH~1\AppData\Local\Temp\ccUGF0Rb.s:705    .text.MX_TIM1_Init:000000f8 $d
                            *COM*:00000048 htim1
C:\Users\LIGUOH~1\AppData\Local\Temp\ccUGF0Rb.s:711    .text.MX_TIM2_Init:00000000 $t
C:\Users\LIGUOH~1\AppData\Local\Temp\ccUGF0Rb.s:718    .text.MX_TIM2_Init:00000000 MX_TIM2_Init
C:\Users\LIGUOH~1\AppData\Local\Temp\ccUGF0Rb.s:846    .text.MX_TIM2_Init:00000084 $d
                            *COM*:00000048 htim2
C:\Users\LIGUOH~1\AppData\Local\Temp\ccUGF0Rb.s:851    .text.HAL_TIM_Base_MspDeInit:00000000 $t
C:\Users\LIGUOH~1\AppData\Local\Temp\ccUGF0Rb.s:858    .text.HAL_TIM_Base_MspDeInit:00000000 HAL_TIM_Base_MspDeInit
C:\Users\LIGUOH~1\AppData\Local\Temp\ccUGF0Rb.s:912    .text.HAL_TIM_Base_MspDeInit:00000034 $d
C:\Users\LIGUOH~1\AppData\Local\Temp\ccUGF0Rb.s:918    .text.HAL_TIM_PWM_MspDeInit:00000000 $t
C:\Users\LIGUOH~1\AppData\Local\Temp\ccUGF0Rb.s:925    .text.HAL_TIM_PWM_MspDeInit:00000000 HAL_TIM_PWM_MspDeInit
C:\Users\LIGUOH~1\AppData\Local\Temp\ccUGF0Rb.s:953    .text.HAL_TIM_PWM_MspDeInit:00000018 $d

UNDEFINED SYMBOLS
HAL_TIM_Base_Init
HAL_TIM_ConfigClockSource
HAL_TIMEx_MasterConfigSynchronization
Error_Handler
HAL_NVIC_SetPriority
HAL_NVIC_EnableIRQ
HAL_GPIO_Init
memset
HAL_TIM_PWM_Init
HAL_TIM_PWM_ConfigChannel
HAL_TIMEx_ConfigBreakDeadTime
HAL_NVIC_DisableIRQ
