ARM GAS  C:\Users\LIGUOH~1\AppData\Local\Temp\cctlJdbM.s 			page 1


   1              		.cpu cortex-m3
   2              		.eabi_attribute 20, 1
   3              		.eabi_attribute 21, 1
   4              		.eabi_attribute 23, 3
   5              		.eabi_attribute 24, 1
   6              		.eabi_attribute 25, 1
   7              		.eabi_attribute 26, 1
   8              		.eabi_attribute 30, 1
   9              		.eabi_attribute 34, 1
  10              		.eabi_attribute 18, 4
  11              		.file	"LED.c"
  12              		.text
  13              	.Ltext0:
  14              		.cfi_sections	.debug_frame
  15              		.section	.text.LED_Flip,"ax",%progbits
  16              		.align	1
  17              		.arch armv7-m
  18              		.syntax unified
  19              		.thumb
  20              		.thumb_func
  21              		.fpu softvfp
  23              	LED_Flip:
  24              	.LVL0:
  25              	.LFB70:
  26              		.file 1 "MyApplication/LED.c"
   1:MyApplication/LED.c **** /*Include--------------------------------------------------------*/
   2:MyApplication/LED.c **** #include "LED.h"
   3:MyApplication/LED.c **** 
   4:MyApplication/LED.c **** /*private define-------------------------------------------------*/
   5:MyApplication/LED.c **** 
   6:MyApplication/LED.c **** /*private variables----------------------------------------------*/
   7:MyApplication/LED.c **** 
   8:MyApplication/LED.c **** static void LED_ON(uint8_t);   //静态函数
   9:MyApplication/LED.c **** static void LED_OFF(uint8_t);
  10:MyApplication/LED.c **** static void LED_Flip(uint8_t);
  11:MyApplication/LED.c **** 
  12:MyApplication/LED.c **** /*public variables-----------------------------------------------*/
  13:MyApplication/LED.c **** 
  14:MyApplication/LED.c **** LED_t LED =
  15:MyApplication/LED.c **** {
  16:MyApplication/LED.c **** 
  17:MyApplication/LED.c ****     LED_ON,
  18:MyApplication/LED.c ****     LED_OFF,
  19:MyApplication/LED.c ****     LED_Flip
  20:MyApplication/LED.c **** };
  21:MyApplication/LED.c **** 
  22:MyApplication/LED.c **** /*private function prototypes -----------------------------------*/
  23:MyApplication/LED.c **** 
  24:MyApplication/LED.c **** 
  25:MyApplication/LED.c **** /*
  26:MyApplication/LED.c **** * @name    LED_ON
  27:MyApplication/LED.c **** * @brief   LED打开
  28:MyApplication/LED.c **** * @param   Num->编号
  29:MyApplication/LED.c **** * @retval  None
  30:MyApplication/LED.c **** */
  31:MyApplication/LED.c **** static void LED_ON (uint8_t LED_Num)
  32:MyApplication/LED.c **** {
ARM GAS  C:\Users\LIGUOH~1\AppData\Local\Temp\cctlJdbM.s 			page 2


  33:MyApplication/LED.c ****     switch (LED_Num)
  34:MyApplication/LED.c ****     {
  35:MyApplication/LED.c ****     case LED_CC:  HAL_GPIO_WritePin(LED_CC_GPIO_Port,LED_CC_Pin,GPIO_PIN_RESET);break;
  36:MyApplication/LED.c ****     case LED_CV:  HAL_GPIO_WritePin(LED_CV_GPIO_Port,LED_CV_Pin,GPIO_PIN_RESET);break;
  37:MyApplication/LED.c ****     case LED_OUT: HAL_GPIO_WritePin(LED_OUT_GPIO_Port,LED_OUT_Pin,GPIO_PIN_RESET);break;   
  38:MyApplication/LED.c ****     default:System.Assert_Failed();
  39:MyApplication/LED.c ****     
  40:MyApplication/LED.c ****     }
  41:MyApplication/LED.c **** }
  42:MyApplication/LED.c **** 
  43:MyApplication/LED.c **** 
  44:MyApplication/LED.c **** /*
  45:MyApplication/LED.c **** * @name    LED_OFF
  46:MyApplication/LED.c **** * @brief   LED关闭
  47:MyApplication/LED.c **** * @param   Num->编号
  48:MyApplication/LED.c **** * @retval  None
  49:MyApplication/LED.c **** */
  50:MyApplication/LED.c **** 
  51:MyApplication/LED.c **** static void LED_OFF (uint8_t LED_Num)
  52:MyApplication/LED.c **** {
  53:MyApplication/LED.c ****     switch (LED_Num)
  54:MyApplication/LED.c ****     {
  55:MyApplication/LED.c ****     case LED_CC:  HAL_GPIO_WritePin(LED_CC_GPIO_Port,LED_CC_Pin,GPIO_PIN_SET);break;
  56:MyApplication/LED.c ****     case LED_CV:  HAL_GPIO_WritePin(LED_CV_GPIO_Port,LED_CV_Pin,GPIO_PIN_SET);break;
  57:MyApplication/LED.c ****     case LED_OUT: HAL_GPIO_WritePin(LED_OUT_GPIO_Port,LED_OUT_Pin,GPIO_PIN_SET);break;   
  58:MyApplication/LED.c ****     default:System.Assert_Failed();
  59:MyApplication/LED.c ****     
  60:MyApplication/LED.c ****     }
  61:MyApplication/LED.c **** }
  62:MyApplication/LED.c **** 
  63:MyApplication/LED.c **** 
  64:MyApplication/LED.c **** /*
  65:MyApplication/LED.c **** * @name    LED_Flip
  66:MyApplication/LED.c **** * @brief   LED取反
  67:MyApplication/LED.c **** * @param   Num->编号
  68:MyApplication/LED.c **** * @retval  None
  69:MyApplication/LED.c **** */
  70:MyApplication/LED.c **** 
  71:MyApplication/LED.c **** static void LED_Flip (uint8_t LED_Num)
  72:MyApplication/LED.c **** {
  27              		.loc 1 72 1 view -0
  28              		.cfi_startproc
  29              		@ args = 0, pretend = 0, frame = 0
  30              		@ frame_needed = 0, uses_anonymous_args = 0
  31              		.loc 1 72 1 is_stmt 0 view .LVU1
  32 0000 08B5     		push	{r3, lr}
  33              	.LCFI0:
  34              		.cfi_def_cfa_offset 8
  35              		.cfi_offset 3, -8
  36              		.cfi_offset 14, -4
  73:MyApplication/LED.c ****     switch (LED_Num)
  37              		.loc 1 73 5 is_stmt 1 view .LVU2
  38 0002 0228     		cmp	r0, #2
  39 0004 0CD0     		beq	.L2
  40 0006 0328     		cmp	r0, #3
  41 0008 0FD0     		beq	.L3
  42 000a 0128     		cmp	r0, #1
ARM GAS  C:\Users\LIGUOH~1\AppData\Local\Temp\cctlJdbM.s 			page 3


  43 000c 03D0     		beq	.L7
  74:MyApplication/LED.c ****     {
  75:MyApplication/LED.c ****     case LED_CC:  HAL_GPIO_TogglePin(LED_CC_GPIO_Port,LED_CC_Pin);break;
  76:MyApplication/LED.c ****     case LED_CV:  HAL_GPIO_TogglePin(LED_CV_GPIO_Port,LED_CV_Pin);break;
  77:MyApplication/LED.c ****     case LED_OUT: HAL_GPIO_TogglePin(LED_OUT_GPIO_Port,LED_OUT_Pin);break;   
  78:MyApplication/LED.c ****     default:System.Assert_Failed();
  44              		.loc 1 78 13 view .LVU3
  45              		.loc 1 78 19 is_stmt 0 view .LVU4
  46 000e 094B     		ldr	r3, .L8
  47 0010 9B68     		ldr	r3, [r3, #8]
  48              		.loc 1 78 13 view .LVU5
  49 0012 9847     		blx	r3
  50              	.LVL1:
  79:MyApplication/LED.c ****     
  80:MyApplication/LED.c ****     }
  81:MyApplication/LED.c **** }
  51              		.loc 1 81 1 view .LVU6
  52 0014 03E0     		b	.L1
  53              	.LVL2:
  54              	.L7:
  75:MyApplication/LED.c ****     case LED_CV:  HAL_GPIO_TogglePin(LED_CV_GPIO_Port,LED_CV_Pin);break;
  55              		.loc 1 75 19 is_stmt 1 view .LVU7
  56 0016 0821     		movs	r1, #8
  57 0018 0748     		ldr	r0, .L8+4
  58              	.LVL3:
  75:MyApplication/LED.c ****     case LED_CV:  HAL_GPIO_TogglePin(LED_CV_GPIO_Port,LED_CV_Pin);break;
  59              		.loc 1 75 19 is_stmt 0 view .LVU8
  60 001a FFF7FEFF 		bl	HAL_GPIO_TogglePin
  61              	.LVL4:
  75:MyApplication/LED.c ****     case LED_CV:  HAL_GPIO_TogglePin(LED_CV_GPIO_Port,LED_CV_Pin);break;
  62              		.loc 1 75 67 is_stmt 1 view .LVU9
  63              	.L1:
  64              		.loc 1 81 1 is_stmt 0 view .LVU10
  65 001e 08BD     		pop	{r3, pc}
  66              	.LVL5:
  67              	.L2:
  76:MyApplication/LED.c ****     case LED_OUT: HAL_GPIO_TogglePin(LED_OUT_GPIO_Port,LED_OUT_Pin);break;   
  68              		.loc 1 76 19 is_stmt 1 view .LVU11
  69 0020 1021     		movs	r1, #16
  70 0022 0548     		ldr	r0, .L8+4
  71              	.LVL6:
  76:MyApplication/LED.c ****     case LED_OUT: HAL_GPIO_TogglePin(LED_OUT_GPIO_Port,LED_OUT_Pin);break;   
  72              		.loc 1 76 19 is_stmt 0 view .LVU12
  73 0024 FFF7FEFF 		bl	HAL_GPIO_TogglePin
  74              	.LVL7:
  76:MyApplication/LED.c ****     case LED_OUT: HAL_GPIO_TogglePin(LED_OUT_GPIO_Port,LED_OUT_Pin);break;   
  75              		.loc 1 76 67 is_stmt 1 view .LVU13
  76:MyApplication/LED.c ****     case LED_OUT: HAL_GPIO_TogglePin(LED_OUT_GPIO_Port,LED_OUT_Pin);break;   
  76              		.loc 1 76 5 is_stmt 0 view .LVU14
  77 0028 F9E7     		b	.L1
  78              	.LVL8:
  79              	.L3:
  77:MyApplication/LED.c ****     default:System.Assert_Failed();
  80              		.loc 1 77 19 is_stmt 1 view .LVU15
  81 002a 2021     		movs	r1, #32
  82 002c 0248     		ldr	r0, .L8+4
  83              	.LVL9:
ARM GAS  C:\Users\LIGUOH~1\AppData\Local\Temp\cctlJdbM.s 			page 4


  77:MyApplication/LED.c ****     default:System.Assert_Failed();
  84              		.loc 1 77 19 is_stmt 0 view .LVU16
  85 002e FFF7FEFF 		bl	HAL_GPIO_TogglePin
  86              	.LVL10:
  77:MyApplication/LED.c ****     default:System.Assert_Failed();
  87              		.loc 1 77 69 is_stmt 1 view .LVU17
  77:MyApplication/LED.c ****     default:System.Assert_Failed();
  88              		.loc 1 77 5 is_stmt 0 view .LVU18
  89 0032 F4E7     		b	.L1
  90              	.L9:
  91              		.align	2
  92              	.L8:
  93 0034 00000000 		.word	System
  94 0038 000C0140 		.word	1073810432
  95              		.cfi_endproc
  96              	.LFE70:
  98              		.section	.text.LED_OFF,"ax",%progbits
  99              		.align	1
 100              		.syntax unified
 101              		.thumb
 102              		.thumb_func
 103              		.fpu softvfp
 105              	LED_OFF:
 106              	.LVL11:
 107              	.LFB69:
  52:MyApplication/LED.c ****     switch (LED_Num)
 108              		.loc 1 52 1 is_stmt 1 view -0
 109              		.cfi_startproc
 110              		@ args = 0, pretend = 0, frame = 0
 111              		@ frame_needed = 0, uses_anonymous_args = 0
  52:MyApplication/LED.c ****     switch (LED_Num)
 112              		.loc 1 52 1 is_stmt 0 view .LVU20
 113 0000 08B5     		push	{r3, lr}
 114              	.LCFI1:
 115              		.cfi_def_cfa_offset 8
 116              		.cfi_offset 3, -8
 117              		.cfi_offset 14, -4
  53:MyApplication/LED.c ****     {
 118              		.loc 1 53 5 is_stmt 1 view .LVU21
 119 0002 0228     		cmp	r0, #2
 120 0004 0DD0     		beq	.L11
 121 0006 0328     		cmp	r0, #3
 122 0008 11D0     		beq	.L12
 123 000a 0128     		cmp	r0, #1
 124 000c 03D0     		beq	.L16
  58:MyApplication/LED.c ****     
 125              		.loc 1 58 13 view .LVU22
  58:MyApplication/LED.c ****     
 126              		.loc 1 58 19 is_stmt 0 view .LVU23
 127 000e 0B4B     		ldr	r3, .L17
 128 0010 9B68     		ldr	r3, [r3, #8]
  58:MyApplication/LED.c ****     
 129              		.loc 1 58 13 view .LVU24
 130 0012 9847     		blx	r3
 131              	.LVL12:
  61:MyApplication/LED.c **** 
 132              		.loc 1 61 1 view .LVU25
ARM GAS  C:\Users\LIGUOH~1\AppData\Local\Temp\cctlJdbM.s 			page 5


 133 0014 04E0     		b	.L10
 134              	.LVL13:
 135              	.L16:
  55:MyApplication/LED.c ****     case LED_CV:  HAL_GPIO_WritePin(LED_CV_GPIO_Port,LED_CV_Pin,GPIO_PIN_SET);break;
 136              		.loc 1 55 19 is_stmt 1 view .LVU26
 137 0016 0122     		movs	r2, #1
 138 0018 0821     		movs	r1, #8
 139 001a 0948     		ldr	r0, .L17+4
 140              	.LVL14:
  55:MyApplication/LED.c ****     case LED_CV:  HAL_GPIO_WritePin(LED_CV_GPIO_Port,LED_CV_Pin,GPIO_PIN_SET);break;
 141              		.loc 1 55 19 is_stmt 0 view .LVU27
 142 001c FFF7FEFF 		bl	HAL_GPIO_WritePin
 143              	.LVL15:
  55:MyApplication/LED.c ****     case LED_CV:  HAL_GPIO_WritePin(LED_CV_GPIO_Port,LED_CV_Pin,GPIO_PIN_SET);break;
 144              		.loc 1 55 79 is_stmt 1 view .LVU28
 145              	.L10:
  61:MyApplication/LED.c **** 
 146              		.loc 1 61 1 is_stmt 0 view .LVU29
 147 0020 08BD     		pop	{r3, pc}
 148              	.LVL16:
 149              	.L11:
  56:MyApplication/LED.c ****     case LED_OUT: HAL_GPIO_WritePin(LED_OUT_GPIO_Port,LED_OUT_Pin,GPIO_PIN_SET);break;   
 150              		.loc 1 56 19 is_stmt 1 view .LVU30
 151 0022 0122     		movs	r2, #1
 152 0024 1021     		movs	r1, #16
 153 0026 0648     		ldr	r0, .L17+4
 154              	.LVL17:
  56:MyApplication/LED.c ****     case LED_OUT: HAL_GPIO_WritePin(LED_OUT_GPIO_Port,LED_OUT_Pin,GPIO_PIN_SET);break;   
 155              		.loc 1 56 19 is_stmt 0 view .LVU31
 156 0028 FFF7FEFF 		bl	HAL_GPIO_WritePin
 157              	.LVL18:
  56:MyApplication/LED.c ****     case LED_OUT: HAL_GPIO_WritePin(LED_OUT_GPIO_Port,LED_OUT_Pin,GPIO_PIN_SET);break;   
 158              		.loc 1 56 79 is_stmt 1 view .LVU32
  56:MyApplication/LED.c ****     case LED_OUT: HAL_GPIO_WritePin(LED_OUT_GPIO_Port,LED_OUT_Pin,GPIO_PIN_SET);break;   
 159              		.loc 1 56 5 is_stmt 0 view .LVU33
 160 002c F8E7     		b	.L10
 161              	.LVL19:
 162              	.L12:
  57:MyApplication/LED.c ****     default:System.Assert_Failed();
 163              		.loc 1 57 19 is_stmt 1 view .LVU34
 164 002e 0122     		movs	r2, #1
 165 0030 2021     		movs	r1, #32
 166 0032 0348     		ldr	r0, .L17+4
 167              	.LVL20:
  57:MyApplication/LED.c ****     default:System.Assert_Failed();
 168              		.loc 1 57 19 is_stmt 0 view .LVU35
 169 0034 FFF7FEFF 		bl	HAL_GPIO_WritePin
 170              	.LVL21:
  57:MyApplication/LED.c ****     default:System.Assert_Failed();
 171              		.loc 1 57 81 is_stmt 1 view .LVU36
  57:MyApplication/LED.c ****     default:System.Assert_Failed();
 172              		.loc 1 57 5 is_stmt 0 view .LVU37
 173 0038 F2E7     		b	.L10
 174              	.L18:
 175 003a 00BF     		.align	2
 176              	.L17:
 177 003c 00000000 		.word	System
ARM GAS  C:\Users\LIGUOH~1\AppData\Local\Temp\cctlJdbM.s 			page 6


 178 0040 000C0140 		.word	1073810432
 179              		.cfi_endproc
 180              	.LFE69:
 182              		.section	.text.LED_ON,"ax",%progbits
 183              		.align	1
 184              		.syntax unified
 185              		.thumb
 186              		.thumb_func
 187              		.fpu softvfp
 189              	LED_ON:
 190              	.LVL22:
 191              	.LFB68:
  32:MyApplication/LED.c ****     switch (LED_Num)
 192              		.loc 1 32 1 is_stmt 1 view -0
 193              		.cfi_startproc
 194              		@ args = 0, pretend = 0, frame = 0
 195              		@ frame_needed = 0, uses_anonymous_args = 0
  32:MyApplication/LED.c ****     switch (LED_Num)
 196              		.loc 1 32 1 is_stmt 0 view .LVU39
 197 0000 08B5     		push	{r3, lr}
 198              	.LCFI2:
 199              		.cfi_def_cfa_offset 8
 200              		.cfi_offset 3, -8
 201              		.cfi_offset 14, -4
  33:MyApplication/LED.c ****     {
 202              		.loc 1 33 5 is_stmt 1 view .LVU40
 203 0002 0228     		cmp	r0, #2
 204 0004 0DD0     		beq	.L20
 205 0006 0328     		cmp	r0, #3
 206 0008 11D0     		beq	.L21
 207 000a 0128     		cmp	r0, #1
 208 000c 03D0     		beq	.L25
  38:MyApplication/LED.c ****     
 209              		.loc 1 38 13 view .LVU41
  38:MyApplication/LED.c ****     
 210              		.loc 1 38 19 is_stmt 0 view .LVU42
 211 000e 0B4B     		ldr	r3, .L26
 212 0010 9B68     		ldr	r3, [r3, #8]
  38:MyApplication/LED.c ****     
 213              		.loc 1 38 13 view .LVU43
 214 0012 9847     		blx	r3
 215              	.LVL23:
  41:MyApplication/LED.c **** 
 216              		.loc 1 41 1 view .LVU44
 217 0014 04E0     		b	.L19
 218              	.LVL24:
 219              	.L25:
  35:MyApplication/LED.c ****     case LED_CV:  HAL_GPIO_WritePin(LED_CV_GPIO_Port,LED_CV_Pin,GPIO_PIN_RESET);break;
 220              		.loc 1 35 19 is_stmt 1 view .LVU45
 221 0016 0022     		movs	r2, #0
 222 0018 0821     		movs	r1, #8
 223 001a 0948     		ldr	r0, .L26+4
 224              	.LVL25:
  35:MyApplication/LED.c ****     case LED_CV:  HAL_GPIO_WritePin(LED_CV_GPIO_Port,LED_CV_Pin,GPIO_PIN_RESET);break;
 225              		.loc 1 35 19 is_stmt 0 view .LVU46
 226 001c FFF7FEFF 		bl	HAL_GPIO_WritePin
 227              	.LVL26:
ARM GAS  C:\Users\LIGUOH~1\AppData\Local\Temp\cctlJdbM.s 			page 7


  35:MyApplication/LED.c ****     case LED_CV:  HAL_GPIO_WritePin(LED_CV_GPIO_Port,LED_CV_Pin,GPIO_PIN_RESET);break;
 228              		.loc 1 35 81 is_stmt 1 view .LVU47
 229              	.L19:
  41:MyApplication/LED.c **** 
 230              		.loc 1 41 1 is_stmt 0 view .LVU48
 231 0020 08BD     		pop	{r3, pc}
 232              	.LVL27:
 233              	.L20:
  36:MyApplication/LED.c ****     case LED_OUT: HAL_GPIO_WritePin(LED_OUT_GPIO_Port,LED_OUT_Pin,GPIO_PIN_RESET);break;   
 234              		.loc 1 36 19 is_stmt 1 view .LVU49
 235 0022 0022     		movs	r2, #0
 236 0024 1021     		movs	r1, #16
 237 0026 0648     		ldr	r0, .L26+4
 238              	.LVL28:
  36:MyApplication/LED.c ****     case LED_OUT: HAL_GPIO_WritePin(LED_OUT_GPIO_Port,LED_OUT_Pin,GPIO_PIN_RESET);break;   
 239              		.loc 1 36 19 is_stmt 0 view .LVU50
 240 0028 FFF7FEFF 		bl	HAL_GPIO_WritePin
 241              	.LVL29:
  36:MyApplication/LED.c ****     case LED_OUT: HAL_GPIO_WritePin(LED_OUT_GPIO_Port,LED_OUT_Pin,GPIO_PIN_RESET);break;   
 242              		.loc 1 36 81 is_stmt 1 view .LVU51
  36:MyApplication/LED.c ****     case LED_OUT: HAL_GPIO_WritePin(LED_OUT_GPIO_Port,LED_OUT_Pin,GPIO_PIN_RESET);break;   
 243              		.loc 1 36 5 is_stmt 0 view .LVU52
 244 002c F8E7     		b	.L19
 245              	.LVL30:
 246              	.L21:
  37:MyApplication/LED.c ****     default:System.Assert_Failed();
 247              		.loc 1 37 19 is_stmt 1 view .LVU53
 248 002e 0022     		movs	r2, #0
 249 0030 2021     		movs	r1, #32
 250 0032 0348     		ldr	r0, .L26+4
 251              	.LVL31:
  37:MyApplication/LED.c ****     default:System.Assert_Failed();
 252              		.loc 1 37 19 is_stmt 0 view .LVU54
 253 0034 FFF7FEFF 		bl	HAL_GPIO_WritePin
 254              	.LVL32:
  37:MyApplication/LED.c ****     default:System.Assert_Failed();
 255              		.loc 1 37 83 is_stmt 1 view .LVU55
  37:MyApplication/LED.c ****     default:System.Assert_Failed();
 256              		.loc 1 37 5 is_stmt 0 view .LVU56
 257 0038 F2E7     		b	.L19
 258              	.L27:
 259 003a 00BF     		.align	2
 260              	.L26:
 261 003c 00000000 		.word	System
 262 0040 000C0140 		.word	1073810432
 263              		.cfi_endproc
 264              	.LFE68:
 266              		.global	LED
 267              		.section	.data.LED,"aw"
 268              		.align	2
 271              	LED:
 272 0000 00000000 		.word	LED_ON
 273 0004 00000000 		.word	LED_OFF
 274 0008 00000000 		.word	LED_Flip
 275              		.text
 276              	.Letext0:
 277              		.file 2 "c:\\gnu_tool_arm_embedded\\arm-none-eabi\\include\\machine\\_default_types.h"
ARM GAS  C:\Users\LIGUOH~1\AppData\Local\Temp\cctlJdbM.s 			page 8


 278              		.file 3 "c:\\gnu_tool_arm_embedded\\arm-none-eabi\\include\\sys\\_stdint.h"
 279              		.file 4 "Drivers/CMSIS/Include/core_cm3.h"
 280              		.file 5 "Drivers/CMSIS/Device/ST/STM32F1xx/Include/system_stm32f1xx.h"
 281              		.file 6 "Drivers/CMSIS/Device/ST/STM32F1xx/Include/stm32f103xb.h"
 282              		.file 7 "Drivers/STM32F1xx_HAL_Driver/Inc/stm32f1xx_hal_def.h"
 283              		.file 8 "Drivers/STM32F1xx_HAL_Driver/Inc/stm32f1xx_hal_gpio.h"
 284              		.file 9 "Drivers/STM32F1xx_HAL_Driver/Inc/stm32f1xx_hal_dma.h"
 285              		.file 10 "Drivers/STM32F1xx_HAL_Driver/Inc/stm32f1xx_hal_spi.h"
 286              		.file 11 "Drivers/STM32F1xx_HAL_Driver/Inc/stm32f1xx_hal_uart.h"
 287              		.file 12 "Drivers/STM32F1xx_HAL_Driver/Inc/stm32f1xx_hal.h"
 288              		.file 13 "Core/Inc/usart.h"
 289              		.file 14 "Core/Inc/spi.h"
 290              		.file 15 "c:\\gnu_tool_arm_embedded\\arm-none-eabi\\include\\sys\\lock.h"
 291              		.file 16 "c:\\gnu_tool_arm_embedded\\arm-none-eabi\\include\\sys\\_types.h"
 292              		.file 17 "c:\\gnu_tool_arm_embedded\\lib\\gcc\\arm-none-eabi\\9.2.1\\include\\stddef.h"
 293              		.file 18 "c:\\gnu_tool_arm_embedded\\arm-none-eabi\\include\\sys\\reent.h"
 294              		.file 19 "c:\\gnu_tool_arm_embedded\\arm-none-eabi\\include\\stdlib.h"
 295              		.file 20 "MyApplication/System.h"
 296              		.file 21 "MyApplication/MyInit.h"
 297              		.file 22 "MyApplication/LED.h"
ARM GAS  C:\Users\LIGUOH~1\AppData\Local\Temp\cctlJdbM.s 			page 9


DEFINED SYMBOLS
                            *ABS*:00000000 LED.c
C:\Users\LIGUOH~1\AppData\Local\Temp\cctlJdbM.s:16     .text.LED_Flip:00000000 $t
C:\Users\LIGUOH~1\AppData\Local\Temp\cctlJdbM.s:23     .text.LED_Flip:00000000 LED_Flip
C:\Users\LIGUOH~1\AppData\Local\Temp\cctlJdbM.s:93     .text.LED_Flip:00000034 $d
C:\Users\LIGUOH~1\AppData\Local\Temp\cctlJdbM.s:99     .text.LED_OFF:00000000 $t
C:\Users\LIGUOH~1\AppData\Local\Temp\cctlJdbM.s:105    .text.LED_OFF:00000000 LED_OFF
C:\Users\LIGUOH~1\AppData\Local\Temp\cctlJdbM.s:177    .text.LED_OFF:0000003c $d
C:\Users\LIGUOH~1\AppData\Local\Temp\cctlJdbM.s:183    .text.LED_ON:00000000 $t
C:\Users\LIGUOH~1\AppData\Local\Temp\cctlJdbM.s:189    .text.LED_ON:00000000 LED_ON
C:\Users\LIGUOH~1\AppData\Local\Temp\cctlJdbM.s:261    .text.LED_ON:0000003c $d
C:\Users\LIGUOH~1\AppData\Local\Temp\cctlJdbM.s:271    .data.LED:00000000 LED
C:\Users\LIGUOH~1\AppData\Local\Temp\cctlJdbM.s:268    .data.LED:00000000 $d

UNDEFINED SYMBOLS
HAL_GPIO_TogglePin
System
HAL_GPIO_WritePin
