:020000040800F2
:100000000050002065240008ED0B0008EF0B0008ED
:10001000F10B0008F30B0008F50B000800000000CE
:10002000000000000000000000000000F70B0008C6
:10003000F90B000800000000FB0B0008FD0B000896
:10004000AD240008AD240008AD240008AD2400084C
:10005000AD240008AD240008AD240008AD2400083C
:10006000AD240008AD240008AD240008AD2400082C
:10007000AD240008050C0008AD240008AD240008DC
:10008000AD240008AD240008AD240008AD2400080C
:10009000AD240008AD240008AD240008AD240008FC
:1000A000AD240008AD240008AD240008AD240008EC
:1000B000AD240008AD240008AD240008AD240008DC
:1000C000AD240008AD240008AD240008AD240008CC
:1000D000AD240008AD240008AD240008AD240008BC
:1000E000AD240008AD240008AD2400080000000085
:1000F0000000000000000000000000000000000000
:0C01000000000000000000005FF808F1A3
:1001100010B5054C237833B9044B13B10448AFF341
:1001200000800123237010BDFC01002000000000AE
:10013000284E000808B5034B1BB103490348AFF331
:10014000008008BD0000000000020020284E0008CA
:10015000034613F8012B002AFBD1181A0138704707
:1001600081F0004102E000BF83F0004330B54FEA68
:1001700041044FEA430594EA050F08BF90EA020FD5
:100180001FBF54EA000C55EA020C7FEA645C7FEA68
:10019000655C00F0E2804FEA5454D4EB5555B8BF8B
:1001A0006D420CDD2C4480EA020281EA030382EAFC
:1001B000000083EA010180EA020281EA0303362D8E
:1001C00088BF30BD11F0004F4FEA01314FF4801C61
:1001D0004CEA113102D0404261EB410113F0004F73
:1001E0004FEA03334CEA133302D0524263EB43032A
:1001F00094EA050F00F0A780A4F10104D5F1200EC8
:100200000DDB02FA0EFC22FA05F2801841F1000122
:1002100003FA0EF2801843FA05F359410EE0A5F1F6
:1002200020050EF1200E012A03FA0EFC28BF4CF027
:10023000020C43FA05F3C01851EBE37101F00045DD
:1002400007D54FF0000EDCF1000C7EEB00006EEBEA
:100250000101B1F5801F1BD3B1F5001F0CD3490874
:100260005FEA30004FEA3C0C04F101044FEA4452CB
:1002700012F5800F80F09A80BCF1004F08BF5FEA52
:10028000500C50F1000041EB045141EA050130BD32
:100290005FEA4C0C404141EB0101013C28BFB1F544
:1002A000801FE9D291F0000F04BF01460020B1FA8F
:1002B00081F308BF2033A3F10B03B3F120020CDA62
:1002C0000C3208DD02F1140CC2F10C0201FA0CF040
:1002D00021FA02F10CE002F11402D8BFC2F1200CA5
:1002E00001FA02F120FA0CFCDCBF41EA0C0190405B
:1002F000E41AA2BF01EB0451294330BD6FEA0404A4
:100300001F3C1CDA0C340EDC04F11404C4F120028E
:1003100020FA04F001FA02F340EA030021FA04F3A0
:1003200045EA030130BDC4F10C04C4F1200220FAF7
:1003300002F001FA04F340EA0300294630BD21FA35
:1003400004F0294630BD94F0000F83F4801306BFFB
:1003500081F480110134013D4EE77FEA645C18BFEF
:100360007FEA655C29D094EA050F08BF90EA020F86
:1003700005D054EA000C04BF1946104630BD91EA7E
:10038000030F1EBF0021002030BD5FEA545C05D181
:100390004000494128BF41F0004130BD14F58004C0
:1003A0003CBF01F5801130BD01F0004545F0FE4134
:1003B00041F470014FF0000030BD7FEA645C1ABF69
:1003C000194610467FEA655C1CBF0B46024650EAA0
:1003D000013406BF52EA033591EA030F41F40021CC
:1003E00030BD00BF90F0000F04BF0021704730B552
:1003F0004FF4806404F132044FF000054FF0000127
:1004000050E700BF90F0000F04BF0021704730B5E7
:100410004FF4806404F1320410F0004548BF4042BC
:100420004FF000013EE700BF42004FEAE2014FEA11
:1004300031014FEA02701FBF12F07F4393F07F4FEC
:1004400081F06051704732F07F4208BF704793F0EF
:100450007F4F04BF41F40021704730B54FF4607402
:1004600001F0004521F000411CE700BF50EA010205
:1004700008BF704730B54FF000050AE050EA0102AE
:1004800008BF704730B511F0004502D5404261EB1E
:1004900041014FF4806404F132045FEA915C3FF45F
:1004A000D8AE4FF003025FEADC0C18BF03325FEAFC
:1004B000DC0C18BF033202EBDC02C2F1200300FAAD
:1004C00003FC20FA02F001FA03FE40EA0E0021FAD2
:1004D00002F11444BDE600BF70B54FF0FF0C4CF4C0
:1004E000E06C1CEA11541DBF1CEA135594EA0C0F72
:1004F00095EA0C0F00F0DEF82C4481EA030621EAAD
:100500004C5123EA4C5350EA013518BF52EA0335E7
:1005100041F4801143F4801338D0A0FB02CE4FF099
:100520000005E1FB02E506F00042E0FB03E54FF0C9
:100530000006E1FB03569CF0000F18BF4EF0010EC1
:10054000A4F1FF04B6F5007F64F5407404D25FEABD
:100550004E0E6D4146EB060642EAC62141EA555170
:100560004FEAC52040EA5E504FEACE2EB4F1FD0CB2
:1005700088BFBCF5E06F1ED8BEF1004F08BF5FEA30
:10058000500E50F1000041EB045170BD06F00046E2
:1005900046EA010140EA020081EA0301B4EB5C048F
:1005A000C2BFD4EB0C0541EA045170BD41F4801187
:1005B0004FF0000E013C00F3AB8014F1360FDEBFAC
:1005C000002001F0004170BDC4F10004203C35DA88
:1005D0000C341BDC04F11404C4F1200500FA05F30B
:1005E00020FA04F001FA05F240EA020001F00042AC
:1005F00021F0004110EBD37021FA04F642EB060122
:100600005EEA430E08BF20EAD37070BDC4F10C044B
:10061000C4F1200500FA04F320FA05F001FA04F20F
:1006200040EA020001F0004110EBD37041F10001FB
:100630005EEA430E08BF20EAD37070BDC4F1200506
:1006400000FA05F24EEA020E20FA04F301FA05F26E
:1006500043EA020321FA04F001F0004121FA04F216
:1006600020EA020000EBD3705EEA430E08BF20EAE6
:10067000D37070BD94F0000F0FD101F00046400020
:1006800041EB010111F4801F08BF013CF7D041EAA2
:10069000060195F0000F18BF704703F000465200A6
:1006A00043EB030313F4801F08BF013DF7D043EA77
:1006B0000603704794EA0C0F0CEA135518BF95EA2D
:1006C0000C0F0CD050EA410618BF52EA4306D1D1B4
:1006D00081EA030101F000414FF0000070BD50EAD3
:1006E000410606BF1046194652EA430619D094EA5D
:1006F0000C0F02D150EA013613D195EA0C0F05D147
:1007000052EA03361CBF104619460AD181EA03019A
:1007100001F0004141F0FE4141F470014FF0000052
:1007200070BD41F0FE4141F4780170BD70B54FF0ED
:10073000FF0C4CF4E06C1CEA11541DBF1CEA13556D
:1007400094EA0C0F95EA0C0F00F0A7F8A4EB05044F
:1007500081EA030E52EA03354FEA013100F0888046
:100760004FEA03334FF0805545EA131343EA12630F
:100770004FEA022245EA111545EA10654FEA0026C4
:100780000EF000419D4208BF964244F1FD0404F57D
:10079000407402D25B084FEA3202B61A65EB0305D9
:1007A0005B084FEA32024FF480104FF4002CB6EB96
:1007B000020E75EB030E22BFB61A754640EA0C0016
:1007C0005B084FEA3202B6EB020E75EB030E22BF56
:1007D000B61A754640EA5C005B084FEA3202B6EB97
:1007E000020E75EB030E22BFB61A754640EA9C0056
:1007F0005B084FEA3202B6EB020E75EB030E22BF26
:10080000B61A754640EADC0055EA060E18D04FEAE3
:10081000051545EA16754FEA06164FEAC30343EA83
:1008200052734FEAC2025FEA1C1CC0D111F4801F50
:100830000BD141EA00014FF000004FF0004CB6E749
:1008400011F4801F04BF01430020B4F1FD0C88BFE8
:10085000BCF5E06F3FF6AFAEB5EB030C04BFB6EBF3
:10086000020C5FEA500C50F1000041EB045170BDE6
:100870000EF0004E4EEA113114EB5C04C2BFD4EB13
:100880000C0541EA045170BD41F480114FF0000E97
:10089000013C90E645EA060E8DE60CEA135594EA13
:1008A0000C0F08BF95EA0C0F3FF43BAF94EA0C0F16
:1008B0000AD150EA01347FF434AF95EA0C0F7FF48B
:1008C00025AF104619462CE795EA0C0F06D152EADF
:1008D00003353FF4FDAE1046194622E750EA4106C3
:1008E00018BF52EA43067FF4C5AE50EA41047FF4D4
:1008F0000DAF52EA43057FF4EBAE12E74FF0FF3C39
:1009000006E000BF4FF0010C02E000BF4FF0010C09
:100910004DF804CD4FEA410C7FEA6C5C4FEA430C82
:1009200018BF7FEA6C5C1BD001B050EA410C0CBFD1
:1009300052EA430C91EA030F02BF90EA020F002033
:10094000704710F1000F91EA030F58BF994208BF9A
:1009500090422CBFD8176FEAE37040F00100704757
:100960004FEA410C7FEA6C5C02D150EA013C07D1AE
:100970004FEA430C7FEA6C5CD6D152EA033CD3D0F9
:100980005DF8040B704700BF8446104662468C46F3
:100990001946634600E000BF01B5FFF7B7FF002826
:1009A00048BF10F1000F01BD4DF808EDFFF7F4FF4F
:1009B0000CBF012000205DF808FB00BF4DF808EDDA
:1009C000FFF7EAFF34BF012000205DF808FB00BFFD
:1009D0004DF808EDFFF7E0FF94BF012000205DF81F
:1009E00008FB00BF4DF808EDFFF7CEFF94BF0120D4
:1009F00000205DF808FB00BF4DF808EDFFF7C4FFCD
:100A000034BF012000205DF808FB00BF4FEA410C15
:100A10007FEA6C5C02D150EA013C0AD14FEA430CF8
:100A20007FEA6C5C02D152EA033C02D14FF0000035
:100A300070474FF0010070474FEA410212F5001273
:100A400015D211D56FF47873B3EB625212D94FEA15
:100A5000C12343F0004343EA505311F0004F23FAFF
:100A600002F018BF404270474FF00000704750EA54
:100A7000013005D111F0004008BF6FF00040704711
:100A80004FF00000704700BF72B6FEE700B591B0AE
:100A9000002309930B930C93019302930393049304
:100AA0000593012106914FF48032079208930A9131
:100AB00002230D930E924FF4E0130F9306A800F05B
:100AC00043F980B90F23019302210291002303937C
:100AD0004FF480620492059301A800F073FB20B9E3
:100AE00011B05DF804FBFFF7CFFFFFF7CDFF00006B
:100AF00008B500F0DBF8FFF7C9FF00F011F801F0CE
:100B00002DFA00F09FFE01F00BF8034B1B6898478D
:100B1000024B1B689847FBE7180000200C000020E0
:100B20002DE9F04188B000240494059406940794BC
:100B30002B4B9A6942F010029A619A6902F01002F6
:100B40000092009A9A6942F020029A619A6902F032
:100B500020020192019A9A6942F004029A619A690C
:100B600002F004020292029A9A6942F008029A6123
:100B70009B6903F008030393039BDFF86C80012259
:100B80004FF40051404600F009FD164E224648F64B
:100B90003B41304600F002FD4FF400530493012521
:100BA000059506940227079704A9404600F0E6FB46
:100BB00040F20343049305950695079704A9304630
:100BC00000F0DCFB48F6380304930595069407977C
:100BD00004A9304600F0D2FB08B0BDE8F08100BFA8
:100BE00000100240000C014000100140FEE7FEE74B
:100BF000FEE7FEE7FEE770477047704708B500F074
:100C000067F808BD08B5024800F00EFD08BD00BF3A
:100C1000C402002000B583B00F4B9A6942F0010274
:100C20009A619A6902F001020092009ADA6942F030
:100C30008052DA61DB6903F080530193019B052048
:100C400000F094FD054A536823F0E06343F000731D
:100C5000536003B05DF804FB001002400000014047
:100C600010B504460E4B18784FF47A73B3FBF0F3CB
:100C70000C4A1068B0FBF3F000F0CCFD68B90F2C03
:100C800001D901200AE0002221464FF0FF3000F098
:100C90007FFD054B1C60002000E0012010BD00BF5F
:100CA00000000020080000200400002008B5074ACA
:100CB000136843F010031360032000F057FD002079
:100CC000FFF7CEFFFFF7A6FF002008BD002002407F
:100CD000034A1168034B1B780B441360704700BF35
:100CE0002402002000000020014B1868704700BF5C
:100CF0002402002038B50446FFF7F6FF0546B4F19C
:100D0000FF3F02D0044B1B781C44FFF7EDFF401B54
:100D1000A042FAD338BD00BF0000002082B0084BCB
:100D20001B68084AA2FB03235B0A00FB03F3019341
:100D300000BF019B5A1E0192002BF9D102B07047EF
:100D400008000020D34D6210002800F0F18170B53A
:100D500082B00446036813F0010F2CD0AA4B5B68E5
:100D600003F00C03042B1DD0A74B5B6803F00C03AE
:100D7000082B12D06368B3F5803F41D0002B55D1CA
:100D800003F1804303F504331A6822F480321A60B9
:100D90001A6822F480221A6037E09B4B5B6813F4D8
:100DA000803FE7D0984B1B6813F4003F03D0636883
:100DB000002B00F0BF81236813F0020F75D0924B17
:100DC0005B6813F00C0F5FD08F4B5B6803F00C0374
:100DD000082B54D02369002B00F089808B4B012213
:100DE0001A60FFF781FF0546874B1B6813F0020F5F
:100DF00074D1FFF779FF401B0228F5D903209EE14B
:100E0000814A136843F480331360636843B3FFF788
:100E10006BFF05467C4B1B6813F4003FCBD1FFF7FB
:100E200063FF401B6428F5D9032088E1B3F5A02FA8
:100E300009D0754B1A6822F480321A601A6822F4BD
:100E400080221A60E1E703F18043A3F53C331A687E
:100E500042F480221A601A6842F480321A60D4E7A1
:100E6000FFF742FF0546684B1B6813F4003FA2D012
:100E7000FFF73AFF401B6428F5D903205FE1624B7E
:100E80005B6813F4803FA5D15F4B1B6813F0020F22
:100E900003D02369012B40F04F815B4A136823F094
:100EA000F803616943EAC1031360236813F0080F74
:100EB00032D0A369002B45D0554B01221A60FFF7B1
:100EC00013FF0546504B5B6A13F0020F21D1FFF769
:100ED0000BFF401B0228F5D9032030E14A4A136872
:100EE00023F0F803616943EAC1031360DDE7474B70
:100EF00000221A60FFF7F8FE0546434B1B6813F00B
:100F0000020FD2D0FFF7F0FE401B0228F5D90320D4
:100F100015E10120FFF702FF236813F0040F00F032
:100F20009780394BDB6913F0805F1DD1364BDA694E
:100F300042F08052DA61DB6903F080530193019B38
:100F4000012512E0324B00221A60FFF7CDFE054664
:100F50002D4B5B6A13F0020FDED0FFF7C5FE401B7E
:100F60000228F5D90320EAE000252A4B1B6813F478
:100F7000807F11D0E368012B22D0002B38D103F100
:100F8000804303F504331A6A22F001021A621A6AD6
:100F900022F004021A6218E01E4A136843F48073B8
:100FA0001360FFF7A1FE06461A4B1B6813F4807FFF
:100FB000E0D1FFF799FE801B6428F5D90320BEE03D
:100FC000114A136A43F001031362E36873B3FFF736
:100FD0008BFE06460C4B1B6A13F0020F37D1FFF74E
:100FE00083FE801B41F288339842F3D90320A6E0A8
:100FF000052B11D0044B1A6A22F001021A621A6AF8
:1010000022F004021A62E0E70010024000004242AF
:1010100080044242007000404D4B1A6A42F00402C4
:101020001A621A6A42F001021A62CEE7FFF75CFE0A
:101030000646474B1B6A13F0020F08D0FFF754FE19
:10104000801B41F288339842F3D9032077E0E5B959
:10105000E369002B72D03E4A526802F00C02082A63
:1010600056D0022B17D03B4B00221A60FFF73CFEF4
:101070000446374B1B6813F0007F47D0FFF734FE60
:10108000001B0228F5D9032059E0314AD36923F027
:101090008053D361DCE72F4B00221A60FFF724FE58
:1010A00005462B4B1B6813F0007F06D0FFF71CFE94
:1010B000401B0228F5D9032041E0236AB3F5803FA5
:1010C0001AD023494B6823F47413226A606A0243DE
:1010D00013434B601F4B01221A60FFF705FE0446C5
:1010E0001B4B1B6813F0007F0ED1FFF7FDFD001BAB
:1010F0000228F5D9032022E0154A536823F400336F
:10110000A1680B435360DCE7002018E0002016E0E4
:10111000012B16D00E4B5B6803F48031226A91429A
:1011200011D103F47013626A93420ED1002006E0DD
:1011300001207047012002E0012000E0002002B001
:1011400070BD0120FBE70120F9E70120F7E700BFB0
:10115000001002406000424286B0164B0FCB0DF1EA
:10116000180C0CE90F0040F20123ADF80430124BCB
:101170005B6803F00C02082A02D0104806B07047E2
:10118000C3F38342624412F8102C13F4803F0CD056
:10119000094B5B68C3F34043634413F8143C0748AE
:1011A00000FB02F0B0FBF3F0E8E7054800FB02F0BB
:1011B000E4E700BF404E00080010024000127A0031
:1011C00000093D00002800F0A08070B50D460446DF
:1011D000524B1B6803F007038B420BD24F4A136834
:1011E00023F007030B431360136803F007038B42DC
:1011F00040F08D80236813F0020F17D013F0040F16
:1012000004D0474A536843F4E0635360236813F003
:10121000080F04D0424A536843F460535360404A75
:10122000536823F0F003A1680B435360236813F065
:10123000010F31D06368012B20D0022B25D0384A12
:10124000126812F0020F64D035494A6822F0030296
:1012500013434B60FFF748FD0646314B5B6803F0D4
:101260000C036268B3EB820F16D0FFF73DFD801BC5
:1012700041F288339842F0D9032045E0284A1268A9
:1012800012F4003FE0D101203EE0254A126812F03E
:10129000007FD9D1012037E0204B1B6803F0070302
:1012A000AB420AD91D4A136823F007032B4313608E
:1012B000136803F00703AB422DD1236813F0040F2A
:1012C00006D0174A536823F4E063E1680B43536088
:1012D000236813F0080F07D0114A536823F46053B2
:1012E000216943EAC1035360FFF736FF0C4B5B688B
:1012F000C3F303130B4AD35CD8400B4B18600B4B62
:101300001868FFF7ADFC002070BD01207047012078
:10131000FAE70120F8E70120F6E700BF00200240CD
:1013200000100240544E0008080000200400002075
:10133000014B1868704700BF0800002008B5FFF790
:10134000F7FF044B5B68C3F30223034AD35CD84026
:1013500008BD00BF00100240644E000808B5FFF74A
:10136000E7FF044B5B68C3F3C223034AD35CD84056
:1013700008BD00BF00100240644E0008F0B482B007
:1013800000252C46A3E07F4FBB4210D007D97E4FEB
:10139000BB420CD007F58037BB4208D013E0A7F55D
:1013A0008017BB4203D007F57027BB4207D18B687B
:1013B000002B58D0012B51D04261082503E0A7F53E
:1013C0008017BB42F3D0FF2E4FD88446FF2E4FD854
:1013D000A200DCF800300F27974023EA070305FA44
:1013E00002F21343CCF800304B6813F0805F6DD0ED
:1013F000664B9A6942F001029A619B6903F001030E
:101400000193019BA208971C614B53F8273004F00D
:101410000307BF004FF00F0C0CFA07FC23EA0C0C7B
:101420005C4B98422AD003F58063984200F08A8092
:1014300003F58063984200F0878003F5806398424B
:101440001AD004231BE0CD68BDE7CD680435BAE7A8
:10145000CD680835B7E7CD680C35B4E702610825DB
:10146000B1E70025AFE70425ADE700F1040CADE7D7
:10147000A4F108029200ACE7032300E00023BB4084
:1014800043EA0C030232424F47F822304B6813F410
:10149000803F5BD0404A1368334313604B6813F4BA
:1014A000003F59D03C4A5368334353604B6813F4B0
:1014B000801F57D0384A9368334393604B6813F4C6
:1014C000001F55D0344AD3681E43D66001340B68E0
:1014D00033FA04F252D00122A24003EA020632EAB1
:1014E0000303F3D14B68122B3FF64DAF122B3FF69F
:1014F0006AAF01A757F823F0AF130008471400089C
:101500005114000863140008C7130008C71300082B
:10151000C7130008C7130008C7130008C713000843
:10152000C7130008C7130008C7130008C713000833
:10153000C7130008C7130008C71300084B1400089E
:101540005714000801239AE7022398E7124A136808
:1015500023EA06031360A1E70F4A536823EA060350
:101560005360A3E70C4A936823EA06039360A5E758
:10157000094AD36823EA0606D660A7E702B0F0BCA2
:10158000704700BF00002210000031100010024020
:101590000000014000080140000401400AB101615F
:1015A0007047090401617047C36801EA030221EA38
:1015B000030141EA024101617047000060B310B4C9
:1015C00002460168154B0B441548A0FB03031B0999
:1015D0009B001364134BD363022382F82130086805
:1015E00020F47F5020F03000536894682343D4687F
:1015F0002343146923435469234394692343D469DF
:10160000234303430B6000209063012382F82130C1
:1016100082F8200010BC704701207047F8FFFDBF22
:10162000CDCCCCCC0000024038B5C36B1A6804683E
:101630002568016C04238B40134235D015F0040F4C
:1016400032D0236813F0200F03D1236823F0040362
:1016500023600368434A934214D01432934218D053
:101660001432934217D01432934217D0143293425B
:1016700017D01432934202D04FF0806203E04FF44F
:10168000800200E00422384B5A60C36A03B19847D5
:1016900038BD4022F7E74FF48062F4E74FF4804210
:1016A000F1E74FF48022EEE702238B4013423CD057
:1016B00015F0020F39D0236813F0200F06D12368EC
:1016C00023F00A032360012380F821300368254AB0
:1016D000934214D0143293421CD0143293421BD044
:1016E000143293421BD0143293421BD014329342D3
:1016F00002D04FF0007203E04FF4001200E002222B
:10170000194B5A60002380F82030836A002BBFD029
:101710009847BDE72022F3E74FF40072F0E74FF45B
:101720000052EDE74FF40032EAE7082303FA01F133
:101730001142ADD015F0080FAAD0236823F00E0394
:101740002360026CC16B012303FA02F24A608363D7
:1017500080F82130002380F82030036B002B97D0D5
:10176000984795E70800024000000240074AD36806
:1017700023F4E0631B041B0C000200F4E06003434D
:1017800043F0BF6343F40033D360704700ED00E0E3
:1017900030B4174BDB68C3F30223C3F10704042CF6
:1017A00028BF04241D1D062D18D9033B4FF0FF351B
:1017B00005FA04F421EA0401994005FA03F322EA48
:1017C0000303194300280BDB0901C9B200F1604093
:1017D00000F5614080F8001330BC70470023E5E756
:1017E00000F00F000901C9B2024B1954F4E700BF21
:1017F00000ED00E014ED00E0002807DB00F01F0220
:10180000400901239340024A42F82030704700BF4C
:1018100000E100E00138B0F1807F0AD2064B586049
:10182000064AF02182F823100020986007221A60EF
:1018300070470120704700BF10E000E000ED00E0BD
:101840007047000008B50A480A4B03604FF4E133C3
:10185000436000238360C36003610C2242618361A3
:10186000C36100F0C1F800B908BDFFF70DF9FBE74F
:10187000280200200038014010B586B000230293F2
:101880000393049305930268174B9A4201D006B064
:1018900010BD03F558439A6942F480429A619A69EF
:1018A00002F480420092009A9A6942F004029A611E
:1018B0009B6903F004030193019B4FF400730293AF
:1018C0000223039303230593084C02A92046FFF744
:1018D00055FD4FF48063029300230393049302A900
:1018E0002046FFF74BFDD2E70038014000080140D9
:1018F00010B504460268136923F44053C1680B43D2
:10190000136183680269134342691A430168CB6813
:1019100023F4B05323F00C031343CB6002685369E4
:1019200023F4407381690B4353610268124B9A425E
:101930001FD0FFF703FD00EB800303EB8303626816
:101940009200B3FBF2F20D48A0FB02314909642377
:1019500003FB11231B013233A0FB03235B0903F0BC
:10196000F00202EB011203F00F03216813448B60B5
:1019700010BDFFF7F3FCDEE7003801401F85EB5197
:101980002DE9F84305460F4616469946DDF82080B6
:101990002C68246837EA04030CBF01240024B442F5
:1019A0001FD1B8F1FF3FF3D0B8F1000F05D0FFF71A
:1019B0009BF9A0EB09004045EAD92A68D36823F4D3
:1019C000D073D3602A68536923F001035361202345
:1019D00085F83D3085F83E30002385F83C30032003
:1019E00000E00020BDE8F88358B310B5044690F835
:1019F0003D300BB3242384F83D302268D36823F4B0
:101A00000053D3602046FFF773FF2268136923F465
:101A1000904313612268536923F02A0353612268BB
:101A2000D36843F40053D36000202064202384F85B
:101A30003D3084F83E3010BD80F83C30FFF71CFF8D
:101A4000D8E7012070472DE9F04182B01E4690F89A
:101A50003D30DBB2202B54D104460D469046002980
:101A600053D0002A53D090F83C30012B51D00123A1
:101A700080F83C3000230364212380F83D30FFF7D9
:101A800033F90746A4F82480A4F82680A368B3F5A8
:101A9000805F05D04FF00008002384F83C3012E04E
:101AA000236913B14FF00008F6E7A8460025F3E7D5
:101AB00038F8023B2268C3F308035360E28C92B209
:101AC000013A92B2E284E38C9BB273B100963B463A
:101AD000002280212046FFF753FFE0B9002DE7D018
:101AE00015F8012B23685A60E8E700963B46002270
:101AF00040212046FFF744FF78B9202384F83D3089
:101B000000E0022002B0BDE8F0810120FAE70120E8
:101B1000F8E70220F6E70320F4E70320F2E70000ED
:101B200008B50E480E4B03604FF4827343600023E8
:101B30008360C360036143614FF4007282610822D5
:101B4000C2610362436283620A23C36200F0D4F875
:101B500000B908BDFEF798FFFBE700BF6C0200204C
:101B60000030014010B586B0002302930393049324
:101B7000059302681F4B9A4201D006B010BD04467F
:101B800003F560439A6942F480529A619A6902F4BB
:101B900080520092009A9A6942F004029A619B690D
:101BA00003F004030193019BA023029302230393F8
:101BB0000323059302A91048FFF7E0FB0F48104BE1
:101BC000036010234360002383608022C2600361AE
:101BD0004FF48062426183614FF48053C361FFF729
:101BE000EDFC18B9054BA3645C62C6E7FEF74CFF39
:101BF000F8E700BF0030014000080140C4020020A7
:101C0000300002402DE9F04782B00546884617466D
:101C10001E46FFF769F80A9B1B1A03EB0609FFF73C
:101C200063F882462A4B1B68C3F3CB3309FB03F3EB
:101C300001932B689C6838EA04030CBF012400243C
:101C4000BC4240D0B6F1FF3FF3D0FFF74DF8A0EB18
:101C50000A0048450AD2B9F1000F07D0019A02B133
:101C60004A46019B013B01939146E2E72A6853688B
:101C700023F0E00353606B68B3F5827F0BD0AB6A4F
:101C8000B3F5005F14D0012385F85130002385F8A7
:101C90005030032018E0AB68B3F5004F02D0B3F525
:101CA000806FECD12A68136823F040031360E6E7E5
:101CB0002A68136823F4005313602A68136843F4F6
:101CC00000531360DFE7002002B0BDE8F08700BFDB
:101CD0000800002010B582B004460B460092002296
:101CE0008021FFF78FFF08B902B010BD636D43F08C
:101CF000200363650320F7E7002856D010B504469B
:101D0000436A33B94368B3F5827F05D00023C361CA
:101D100002E00023036143610023A36294F8513081
:101D2000002B3CD0022384F851302268136823F042
:101D300040031360636803F48273A26802F40442F0
:101D40001343E26802F400621343226902F00202C4
:101D50001343626902F001021343A26902F40072A4
:101D60001343E26902F038021343226A02F0800250
:101D70001343A26A02F40052216813430B60638B81
:101D8000226803F0040353602268D36923F40063DC
:101D9000D36100206065012384F8513010BD84F8C0
:101DA00050302046FFF7DEFEBCE7012070472DE9EA
:101DB000F04383B01D4690F85030012B00F0CC80EA
:101DC000044688469146012380F85030FEF78CFF88
:101DD000074694F85160F6B2012E40F0AA80B8F19F
:101DE000000F00F0A780B9F1000F00F0A3800323DB
:101DF00084F8513000236365C4F83080A4F834902F
:101E0000A4F83690A363A387E38763642364A3687D
:101E1000B3F5004F1ED023681A6812F0400F03D1AB
:101E20001A6842F040021A60E368B3F5006F1CD0F4
:101E3000636813B1B9F1010F52D1226B2368127894
:101E40001A73236B01332363E38E9BB2013B9BB276
:101E5000E38645E02268136823F04003136022689C
:101E6000136843F480431360D5E7636813B1B9F195
:101E7000010F16D1226B23681288DA60236B0233BC
:101E80002363E38E9BB2013B9BB2E38609E0FEF73E
:101E90002BFFC01BA84202D3B5F1FF3F54D1002D48
:101EA00054D0E38E9BB2002B2ED023689A6812F098
:101EB000020FECD0226B1288DA60236B02332363AB
:101EC000E38E9BB2013B9BB2E386EAE7FEF70CFF91
:101ED000C01BA84202D3B5F1FF3F39D1002D39D044
:101EE000E38E9BB283B123689A6812F0020FEDD0A3
:101EF000226B12781A73236B01332363E28E92B242
:101F0000013A92B2E286EBE73A4629462046FFF7CD
:101F1000E1FE08B120236365A36833B90193236808
:101F2000DA6801929B680193019B636D13B90026E7
:101F300000E00226012384F85130002384F8503059
:101F4000304603B0BDE8F0830326F3E70326F1E74C
:101F50000326EFE70326EDE70226F1E700B583B09D
:101F60000A4B5A6942F001025A615B6903F00103AE
:101F70000193019B032202210D20FFF709FC0D2094
:101F8000FFF73AFC03B05DF804FB00BF001002400D
:101F9000704770470000000010B54FF4FA70FEF76C
:101FA000A9FE1F4C236801209847636802209847C8
:101FB0006368032098474FF4FA70FEF79BFE63684E
:101FC00001209847236802209847636803209847B8
:101FD0004FF4FA70FEF78EFE63680120984763683D
:101FE000022098472368032098474FF4FA70FEF7C1
:101FF00081FE2368012098472368022098472368C0
:1020000003209847074800F065FF03A3D3E90023A6
:10201000054800F0D9FE10BD00000000D7A3E03F46
:10202000200000206C4E0008844E000800B583B0EC
:102030000E4800F04FFF0E4800F04CFF0D4B1868A3
:10204000FEF7F2F902460B460B4800F0BDFE00F029
:1020500005F94FF478430093C82364220021084611
:1020600000F0E2F903B05DF804FB00BF984E0008F1
:10207000C84E00081C000020F44E000800B583B0D4
:1020800001904FF6FF73012201A90348FFF7DBFC23
:10209000019803B05DF804FB2802002070B50C46DF
:1020A00016460025B54205DA14F8010BFFF7E6FFE6
:1020B0000135F7E7304670BD08B502280CD003287B
:1020C0000FD0012803D0094B9B68984703E00821F3
:1020D0000748FFF769FA08BD10210548FFF764FAC1
:1020E000F9E720210248FFF75FFAF4E70C0000202F
:1020F000000C014008B502280DD0032811D001289A
:1021000003D00B4B9B68984704E001220821094843
:10211000FFF744FA08BD012210210648FFF73EFAF6
:10212000F8E7012220210348FFF738FAF2E700BF61
:102130000C000020000C014008B502280DD0032837
:1021400011D0012803D00B4B9B68984704E0002274
:1021500008210948FFF722FA08BD0022102106488D
:10216000FFF71CFAF8E7002220210348FFF716FAD0
:10217000F2E700BF0C000020000C014010B582B057
:102180008DF807000B4C00224FF480612046FFF7CA
:1021900005FA4FF6FF7301220DF107010648FFF71C
:1021A00006FE01224FF480612046FFF7F7F902B0E6
:1021B00010BD00BF000C01406C02002010B50446A9
:1021C000012202210348FFF7E9F92046FFF7D6FF75
:1021D00010BD00BF000C014010B50446000AFFF717
:1021E000EDFFE0B2FFF7EAFF10BD000038B504468E
:1021F000074D002202212846FFF7D0F92046FFF7BD
:10220000BDFF012202212846FFF7C8F938BD00BFF3
:10221000000C0140F8B507460D4616461C462A201C
:10222000FFF7E4FF07F1280080B2FFF7D5FF06F1C2
:10223000280080B2FFF7D0FF2B20FFF7D7FF05F172
:10224000340080B2FFF7C8FF04F1340080B2FFF71A
:10225000C3FF2C20FFF7CAFFF8BD000010B5704C7B
:1022600000224FF400612046FFF798F90022012177
:102270002046FFF793F91E20FEF73CFD0122114690
:102280002046FFF78BF91E20FEF734FD01224FF4A4
:1022900000612046FFF782F9624800F01BFE1E2015
:1022A000FEF728FD1120FFF7A1FF1E20FEF722FDFB
:1022B0001120FFF79BFF1E20FEF71CFD3620FFF7C5
:1022C00095FFA020FFF77AFF3A20FFF78FFF052048
:1022D000FFF774FFB220FFF789FF0C20FFF76EFFB6
:1022E0000C20FFF76BFF0020FFF768FF3320FFF79C
:1022F00065FF3320FFF762FFB720FFF777FF352038
:10230000FFF75CFFBB20FFF771FF1920FFF756FFB7
:10231000C020FFF76BFF2C20FFF750FFC220FFF714
:1023200065FF0120FFF74AFFC320FFF75FFF122080
:10233000FFF744FFC420FFF759FF2020FFF73EFFBF
:10234000C620FFF753FF0F20FFF738FFD020FFF71D
:102350004DFFA420FFF732FFA120FFF72FFFE02061
:10236000FFF744FFD020FFF729FF0420FFF726FFE7
:102370000D20FFF723FF1120FFF720FF1320FFF7A9
:102380001DFF2B20FFF71AFF3F20FFF717FF5420F8
:10239000FFF714FF4C20FFF711FF1820FFF70EFF87
:1023A0000D20FFF70BFF0B20FFF708FF1F20FFF7A3
:1023B00005FF2320FFF702FFE120FFF717FFD020E2
:1023C000FFF7FCFE0420FFF7F9FE0C20FFF7F6FEF6
:1023D0001120FFF7F3FE1320FFF7F0FE2C20FFF78C
:1023E000EDFE3F20FFF7EAFE4420FFF7E7FE512015
:1023F000FFF7E4FE2F20FFF7E1FE1F20FFF7DEFED0
:102400001F20FFF7DBFE2020FFF7D8FE2320FFF779
:10241000D5FE2120FFF7EAFE2920FFF7E7FE10BDD9
:10242000000C0140144F00082DE9F84381460F4687
:1024300015469846BDF82060013B013A9BB292B226
:10244000FFF7E8FE08E03046FFF7C6FE0134A4B20D
:10245000AC42F8D30137BFB2474501D24C46F7E74B
:10246000BDE8F8830C480D490D4A002302E0D4581A
:10247000C4500433C4188C42F9D30A4A0A4C0023CE
:1024800001E013600432A242FBD3FFF7D9F900F058
:102490000FF8FEF72DFB704700000020FC01002024
:1024A000E8510008FC01002018030020FEE70000AE
:1024B00070B500260C4D0D4C641BA410A64209D12A
:1024C00002F0B2FC00260A4D0A4C641BA410A6427E
:1024D00005D170BD55F8043B98470136EEE755F835
:1024E000043B98470136F2E7E0510008E05100084C
:1024F000E0510008E451000803460244934200D131
:10250000704703F8011BF9E7002B2DE9F0471F4640
:10251000BBBF03F100431F4600232D2388B01446A0
:10252000129A109D1370149BDDF84CA023F0200824
:10253000B8F1460F05D0B8F1450F00D1013502239F
:1025400000E0032307AA049206AACDE902A2CDE97E
:10255000003522463B4600F013FEB8F1470F064611
:1025600002D1119BDB0722D5B8F1460F06EB050916
:1025700010D13378302B0AD100220023204639466F
:10258000FEF712FA18B9C5F10105CAF80050DAF8D9
:10259000003099440022002320463946FEF704FA11
:1025A00008B1CDF81C903022079B4B4507D330462D
:1025B000079B159A9B1B136008B0BDE8F087591C58
:1025C00007911A70F0E70346F7B5002903F8022BCC
:1025D000B6BF2D222B224942092942702BDD0DF175
:1025E0000704A4460A2791FBF7F60A46A64607FB0E
:1025F0001615632A05F13005314604F1FF340EF853
:10260000015CF0DC3031AEF1020504F8011C294612
:10261000441C61450AD30DF10902A2EB0E02654587
:1026200088BF00221344181A03B0F0BD11F8012B23
:1026300004F8012FEDE7302330318370C170031DA2
:10264000F1E700002DE9F04F91B00C46DDF868800D
:1026500016461F46054601F01DFD036818460993FE
:10266000FDF776FD00230E93D8F800300A9007336B
:1026700023F0070303F1080294F81890D4F800B08F
:10268000C8F80020D3E90023C4E91223D4E9128A50
:102690002AF000430B934FF0FF3240469C4B0B99BE
:1026A000FEF7B4F970BB4FF0FF324046984B0B99E0
:1026B000FEF78EF930BB0022002340465146FEF75C
:1026C0007DF910B12D2384F84330924B9248B9F133
:1026D000470F94BF9846804603234FF0000A2361BA
:1026E0002BF00403236033462146284600970FAAA7
:1026F00000F0D4F9013040F090804FF0FF3011B07D
:10270000BDE8F08F4246534640465146FEF77EF9FB
:1027100048B1BAF1000FB8BF2D238048B8BF84F884
:1027200043307F4BD3E7636809F0DF015A1C42D185
:1027300006236360002206920EAACDE904920DAA38
:102740004BF4806303920DF13302CDE90132236033
:10275000636842460093284653460B91FFF7D4FE28
:102760000B99804647290D9908D1C81C02DB636884
:10277000994240DDA9F102095FFA89F9B9F1650FC3
:102780001FD84A46013904F150000D91FFF71BFF95
:102790000E9A82461318012A236102DC2268D207AE
:1027A00001D5013323619DF83330002B9BD02D23BD
:1027B00084F8433097E74729BCD1002BBAD10123D5
:1027C000B7E7B9F1660F18D1002963680BDD216105
:1027D00013B92268D00702D501330B4423614FF0AF
:1027E000000AA165DFE713B92268D20701D50233D9
:1027F000F4E70123F2E74FF067090E9B994205DBEE
:1028000023682161D807EAD54B1CE7E70029CCBF34
:102810000122C1F102021344E0E723685A0507D4FC
:102820002369424631462846B84701302BD164E738
:10283000B9F1650F40F2DD80D4E9120100220023D6
:10284000FEF7B2F8002833D0012331462846354A36
:10285000B84701303FF451AFDDE90D239A4202DB66
:102860002368D8070FD5DDE9092331462846B84744
:1028700001303FF442AF4FF0000804F11A090E9BFB
:10288000013B434509DC23689B0700F10281E068B6
:102890000F9B9842B8BF184631E701234A4631469C
:1028A0002846B84701303FF428AF08F10108E6E7B1
:1028B0000D9B002B38DC012331462846194AB847C6
:1028C00001303FF41AAFDDE90D23134302D1236831
:1028D000D907D8D5DDE9092331462846B847013064
:1028E0003FF40BAF4FF0000904F11A0A0D9B5B4255
:1028F0004B4501DC0E9B94E70123524631462846A6
:10290000B84701303FF4F9AE09F10109EEE700BF25
:10291000FFFFEF7F244F0008284F0008304F0008CA
:102920002C4F0008344F00080E9AA36D9A42A8BF9E
:102930001A46002A914637DC4FF0000B29EAE97964
:1029400004F11A02D4F858A0AAEB09035B4533DC62
:10295000DDE90D239A423BDB2368DA0738D40E9A6F
:102960000D99A2EB0A03A2EB01099945A8BF99466C
:10297000B9F1000F34DC4FF0000829EAE97904F1DD
:102980001A0ADDE90D239B1AA3EB090343457FF7E0
:102990007AAF0123524631462846B84701303FF40A
:1029A000ACAE08F10108ECE7134631464246284632
:1029B000B8470130C0D1A0E60123314628460B922A
:1029C000B84701303FF499AE0B9A0BF1010BB9E710
:1029D0003146DDE909232846B8470130BFD18CE6EE
:1029E0004B463146284608EB0A02B8470130C2D1AF
:1029F00083E60E9A012A01DCDB0737D50123424624
:102A000031462846B84701303FF477AEDDE9092367
:102A100031462846B84701303FF46FAED4E9120181
:102A200000220023FDF7C0FFD8B90E9B08F1010278
:102A3000013B31462846B84701300ED15DE60123FF
:102A40004A4631462846B84701303FF456AE08F1B1
:102A500001080E9B013B4345F1DC534604F1500253
:102A6000E0E64FF0000804F11A09F2E701234246BC
:102A7000DFE701234A4631462846B84701303FF494
:102A80003CAE08F10108E3680F995B1A4345F0DC9E
:102A9000FDE64FF0000804F11909F4E72DE9F047CD
:102AA000164699468A680B6907469342B8BF134693
:102AB000336091F843200C46DDF820800AB10133E1
:102AC00033602368990642BF336802333360256858
:102AD00015F0060506D104F1190AE36832689B1A5D
:102AE000AB4228DC94F84320131E226818BF012350
:102AF00092062DD44946384604F14302C0470130BE
:102B000020D02368E56803F00603042B18BF0025D6
:102B100032684FF00006A36808BFAD1A226908BFEB
:102B200025EAE5759342C4BF9B1AED181A34B542E5
:102B30001AD1002008E00123524649463846C047D2
:102B4000013003D14FF0FF30BDE8F0870135C4E715
:102B50003020E11881F843005A1C94F845102244B3
:102B6000023382F84310C5E701232246494638461E
:102B7000C0470130E6D00136D9E700002DE9FF4714
:102B80000C46277E9146782F80469A460C9904F190
:102B9000430207D8622F0AD8002F00F0D980582F9F
:102BA00000F0A48004F1420684F842703AE0A7F1F4
:102BB0006303152BF6D801A050F823F0152C00085C
:102BC000292C0008A52B0008A52B0008A52B000820
:102BD000A52B0008292C0008A52B0008A52B000810
:102BE000A52B0008A52B0008372D0008592C00083C
:102BF000192D0008A52B0008A52B0008592D000849
:102C0000A52B0008592C0008A52B0008A52B0008AF
:102C1000212D00080B6804F142061A1D1B680A608A
:102C200084F842300123A4E0256808682E0600F1EC
:102C300004030AD505680B60002D03DA2D236D42CD
:102C400084F843300A235E4819E015F0400F056808
:102C50000B6018BF2DB2EFE70B682568181D0860E0
:102C6000280601D51D6802E06906FBD51D886F2F77
:102C70000CBF08230A235248002184F843106668D9
:102C8000002EA8BF2168A660A4BF21F00401216026
:102C90000DB9002E4DD01646B5FBF3F103FB1157CD
:102CA000C75D06F8017D2F46BB420D46F4D9082BBF
:102CB0000BD12368DF0708D5236961689942DEBF1D
:102CC000302306F8013C06F1FF36921B22614B4689
:102CD00021464046CDF800A003AAFFF7DFFE0130F1
:102CE0004CD14FF0FF3004B0BDE8F087344884F891
:102CF00045700E68236856F8045B1F060E6014D5F5
:102D0000D90744BF43F0200323601DB9236823F093
:102D1000200323601023AFE7236843F020032360E0
:102D20007823284884F84530E3E75E0648BFADB213
:102D3000E6E71646BBE70B6826681D1D60690D6057
:102D400035061B6801D5186002E07106FBD51880B6
:102D5000002316462361BAE70B681A1D0A601E6835
:102D600000213046626801F009FA08B1801B6060FA
:102D700063682361002384F84330A8E7324649465C
:102D800040462369D0470130ABD023689B0713D45A
:102D9000E068039B9842B8BF1846A4E70123324677
:102DA00049464046D04701309BD00135E36803993E
:102DB0005B1AAB42F2DCEBE7002504F11906F5E7FC
:102DC000364F0008474F00080FB40A4B13B51C6874
:102DD00024B1A36913B9204601F0BEF805AB204623
:102DE000049AA168019301F0D1FD02B0BDE8104042
:102DF00004B070472C00002070B50E46054618B18F
:102E000083690BB901F0A8F8AB69AC6813B928461F
:102E100001F0A2F82C4B9C4220D16C68636EDB075A
:102E200005D4A389980502D4A06D01F038F9A389CF
:102E300019071DD52369DBB1013EA36816F8011FF0
:102E4000013BA36039BB002B38DA22460A21284611
:102E500000F048F8013011D00A2511E01B4B9C42CC
:102E600001D1AC68DAE71A4B9C4208BFEC68D5E7A1
:102E70002146284600F088F80028DDD04FF0FF35C5
:102E8000636EDA0705D4A3899B0502D4A06D01F017
:102E900007F9284670BD002B04DAA2699A4206DCC5
:102EA0000A2904D023685A1C22601970C5E72246FB
:102EB000284600F017F80130BFD1DFE70A25236864
:102EC0005A1C22601D70DBE7884F0008A84F0008DD
:102ED000684F0008024B01461868FFF78DBF00BF1E
:102EE0002C000020F8B50E461446054618B183693B
:102EF0000BB901F031F8214B9C422BD16C68A369CE
:102F0000A360A3891A072FD523696BB323692068AF
:102F1000F6B2C01A63693746834204DC214628466C
:102F200000F086FF30BBA3680130013BA36023683B
:102F30005A1C22601E706369834204D0A389DB0798
:102F400006D50A2E04D12146284600F071FF88B923
:102F50003846F8BD0A4B9C4201D1AC68CFE7094B1B
:102F60009C4208BFEC68CAE72146284600F00CF8EE
:102F70000028CBD04FF0FF37EAE700BF884F0008AA
:102F8000A84F0008684F0008324B70B51D68064610
:102F90000C4625B1AB6913B9284600F0DDFF2E4B76
:102FA0009C420FD16C68A389B4F90C2019072CD46A
:102FB000DD0611D40923336042F040034FF0FF30A7
:102FC000A3813EE0254B9C4201D1AC68EBE7244B4A
:102FD0009C4208BFEC68E6E7580712D5616B41B127
:102FE00004F14403994202D0304601F001FC002371
:102FF0006363A38923F02403A3810023636023690F
:103000002360A38943F00803A38123694BB9A389F3
:1030100003F42073B3F5007F03D02146304601F05E
:1030200065F8A089B4F90C2010F001030AD0002340
:10303000A36063695B42A361236943B910F0800018
:10304000BAD170BD810758BF6369A360F4E700205F
:10305000F7E700BF2C000020884F0008A84F0008A9
:10306000684F00082DE9F74F03690C690746A34232
:10307000C0F28380013C00F1140501F1140805EB56
:103080008403019358F8243055F8242001339A42E0
:10309000B2FBF3F64FEA840B08EB840932D34FF00E
:1030A000000E4046AC46F24650F8042B93B206FBA5
:1030B00003E3120C4FEA134E06FB02E29BB2AAEBAB
:1030C0000303DCF800A04FEA124E1FFA8AFA5344B9
:1030D0001FFA82FADCF800208145CAEB124202EBAB
:1030E00023429BB243EA02434FEA224A4CF8043B94
:1030F000DAD255F80B302BB9019B043B9D421A469E
:103100002FD33C61384601F07EFA002825DB2846A3
:103110004FF0000C013658F8041BD0F800E08BB2D9
:10312000ACEB03031FFA8EF213440A0CC2EB1E42EF
:1031300002EB23429BB243EA0243C1454FEA224CD1
:1031400040F8043BE7D255F8242005EB840322B96C
:10315000043B9D421A460AD33C61304603B0BDE8A9
:10316000F08F1268043B002ACBD1013CC6E71268FD
:10317000043B002AF0D1013CEBE70020EEE7000021
:103180002DE9F04F16461F46446A99B00546CDE931
:103190000467DDF894803CB9102000F0E7FFC0E937
:1031A000014468620460C4606B6A196851B15A686E
:1031B000012393404A608B60284601F02FF80022DB
:1031C0006B6A1A603B1EAFBF0023012223F000434D
:1031D0000593A8BFC8F80030DDF81490AC4BB8BF19
:1031E000C8F8002033EA090319D142F20F73249A78
:1031F0001360C9F31303334300F06C85269B53B966
:10320000A44B23E0A44B03930833269A136003983E
:1032100019B0BDE8F08F9F4B03930333F5E7DDE969
:103220000434CDE90C34DDE90C0100220023FDF764
:10323000BBFB804660B10123249A1360269B002BC0
:1032400000F04585954B269A1360013B0393DEE71A
:1032500016AB019317AB00932846DDE90C2301F070
:1032600069FAC9F30A548346002C7FD0DDE90C01CA
:103270000D9BA4F2FF34C3F3130343F07F5141F4D9
:103280004011CDF84C800022854BFCF76DFF7AA3EE
:10329000D3E90023FDF720F979A3D3E90023FCF754
:1032A00065FF064620460F46FDF7ACF876A3D3E946
:1032B0000023FDF711F902460B4630463946FCF76C
:1032C00055FF06460F46FDF7B7FB00228246002356
:1032D00030463946FDF772FB48B15046FDF792F88B
:1032E00032463B46FDF760FB08B90AF1FF3ABAF1F6
:1032F000160F58D8DDE90C016A4B03EBCA03D3E97A
:103300000023FDF75BFB00284FD000230AF1FF3AB2
:103310000F93169B1C1B631E099349BFC4F1010345
:1033200000230693002354BF06930993BAF1000FBC
:103330003DDB099BCDF838A05344099300230A9341
:10334000229B092B00F2B480052BC4BF043B2293BF
:10335000229BC8BF0024A3F10203D8BF0124032B82
:1033600000F2B280DFE803F02D7C7AA2DDE916439B
:103370001C4404F23243202BC3BFC3F1400304F2C8
:10338000124009FA03F3C3F12003C6BF26FA00F086
:10339000184306FA03F0FDF725F80123A1F1F871AF
:1033A000013C13936FE70123B2E70F90B1E7069B4F
:1033B000A3EB0A030693CAF100030A9300230E93BA
:1033C000BEE700230B93239B002B00F380804FF07C
:1033D00001094B46CDF82090CDF88C9000226E6A02
:1033E0007260042202F114009842716875D928466F
:1033F00000F0E0FE6B6A30601B680393089B0E2BA5
:1034000000F2EC80002C00F0E980BAF1000F78DDCA
:10341000244A0AF00F0302EBC3031AF4807FD3E9B6
:103420000034CDE910344FEA2A145AD0DDE90C01FA
:103430001D4B0327D3E90823FDF778F9CDE90401F3
:1034400004F00F04184E002C4DD1DDE91023DDE906
:103450000401FDF76BF9CDE904016CE00123B1E74C
:1034600000230B93239B0AEB030909F10103012BB2
:103470000893B8BF0123B1E761436F63A787D23FC9
:10348000B3C8608B288AC63FFB799F501344D33F53
:103490000000F07F614F0008584F0008354F0008CA
:1034A0000000F83FF04F0008C84F00080123D8E79C
:1034B000012400230B9422934FF0FF3900221223A2
:1034C000CDF82090239289E701230B93F4E7DDF8F0
:1034D0008C904B46CDF8209080E70131716052000E
:1034E00080E70227AEE7E10708D5DDE91001D6E95C
:1034F0000023FCF7F1FFCDE9100101376410083615
:10350000A1E700F0A580DDE90C01CAF10004A34B9E
:1035100004F00F0203EBC203D3E90023FCF7DCFF46
:1035200002270023CDE904019D4E2411002C40F018
:103530008480002B8FD10F9B002B00F08B80DDE966
:103540000434CDE91034DDE910010022954BFDF77C
:1035500035FA00287ED0089B002B7BD0B9F1000FF4
:1035600038DDDDE9100100228F4BFCF7B5FF4C463A
:10357000CDE904010AF1FF3801373846FCF742FF74
:10358000DDE90423FCF7A8FF0022884BFCF7EEFDE1
:10359000A1F15076CDE910011196002C5DD1DDE945
:1035A00004010022824BFCF7DFFD02460B46CDE909
:1035B00004233346109AFDF71FFA002840F0978243
:1035C000DDE90401109A06F10043FDF7F7F9002840
:1035D00040F08B82DDE90C34CDE90434179B002BDD
:1035E000C0F25181BAF10E0F00F34D816B4B03EB2A
:1035F000CA03D3E90034CDE90634239B002B80F2C3
:10360000DB80089B002B00F3D78040F06D82DDE962
:1036100006010022664BFCF75FFFDDE90423FDF79E
:10362000E1F9089C2646002840F043823123039F9D
:103630000AF1010A07F8013B3FE2E20705D5D6E9A6
:103640000023FCF749FF01230137641008366DE7BA
:10365000022770E7D046089C8FE703994F4B21441F
:1036600012910B9903EBC403DDE9106753E90223C0
:10367000002946D000204F49FDF758F83B46324616
:10368000FCF772FDCDE91001039FDDE90401FDF7B0
:10369000D3F90446FCF7B6FE02460B46DDE9040109
:1036A000FCF762FD02460B463034CDE90423DDE928
:1036B000102307F8014BFDF781F9002865D1DDE9FA
:1036C000042300203749FCF74FFDDDE91023FDF707
:1036D00075F9002840F0B680129B9F423FF47AAF04
:1036E000DDE910010022304BFCF7F6FE0022CDE9A7
:1036F0001001DDE904012C4BFCF7EEFECDE90401DD
:10370000C3E730463946FCF7E7FE129BCDE91001CE
:10371000039C1493DDE90401FDF78EF91590FCF785
:1037200071FE02460B46DDE90401FCF71DFD159B09
:103730000646303304F8013B129B0F469C424FF083
:10374000000224D1DDE910011A4BFCF70FFD0246FF
:103750000B4630463946FDF74FF9002871D1DDE9B7
:10376000102300201349FCF7FFFC02460B463046AD
:103770003946FDF723F900283FF42CAF149F7B1E38
:10378000149317F8013C302BF8D0C24649E0064BA1
:10379000FCF7A2FECDE90401BCE700BFF04F000832
:1037A000C84F00080000F03F0000244000001C400B
:1037B000000014400000E03F039FDDE90489DDE9DB
:1037C000062340464946FCF7B1FFFDF735F90446AC
:1037D000FCF718FEDDE90623FCF77EFE04F1300657
:1037E0000B46024649464046FCF7BEFC07F8016B13
:1037F000039E089BBE1BB34238D102460B46FCF722
:10380000B5FCDDE9062380468946FDF7F5F858BB8F
:10381000DDE9062340464946FDF7C6F808B1E10751
:1038200022D42846594600F0F9FC00233B70249B23
:103830000AF101001860269B002B3FF4E8AC1F60E2
:10384000E5E427463B461F4613F8012D392A07D1E8
:10385000039A9A42F7D13022039908F101080A70BD
:103860001A7801321A7090E7D046EBE70022A14B9C
:10387000FCF732FE0022002380468946FDF794F8CB
:1038800000289CD0CDE70B9A002A00F0CD80229A28
:10389000012A00F3AF80139A002A00F0A78003F2F8
:1038A00033430A9C069F069A01211A440692099AFC
:1038B00028461A44099200F054FD0646002F0CDDFC
:1038C000099B002B09DDBB42A8BF3B46069AFF1AA5
:1038D000D21A0692099AD31A09930A9BF3B10B9B49
:1038E000002B00F0A580002C10DD31462246284632
:1038F00000F0DCFD5A4601460646284600F03AFD37
:1039000080465946284600F089FCC3460A9B1A1B8C
:1039100004D05946284600F0C9FD834601212846B7
:1039200000F01FFD0E9B0446002B40F383801A46D7
:103930000146284600F0BAFD229B0446012B7CDD9F
:103940004FF00008236904EB8303186900F0BBFC07
:10395000C0F12000099B184410F01F0000F08E8079
:10396000C0F12003042B40F38780C0F11C00069BAC
:10397000074403440693099B03440993069B002BC9
:1039800005DD59461A46284600F0DEFD8346099BB0
:10399000002B05DD21461A46284600F0D5FD0446D9
:1039A0000F9B002B6CD02146584600F02CFE0028BF
:1039B00066DA002359460A22284600F046FC0B9B93
:1039C00083460AF1FF3A002B00F08B813146002339
:1039D0000A22284600F039FCB9F1000F064600F330
:1039E0009180229B022B40F38D8051E0169BC3F106
:1039F000360356E7089B5C1E0A9BA342B7BF0A9B8F
:103A00001C1BE21A0E9BBEBF0A949B180E93089BC8
:103A1000B8BF0024002BBBBF069B089A069F9F1AC5
:103A2000ACBF089B00233EE70A9C069F0B9E45E720
:103A30000A9A6EE7229B012B19DC049BBBB9059BFC
:103A4000C3F313039BB9059B23F000431B0D1B0518
:103A500083B14FF00108069B01330693099B0133A4
:103A600009930E9B002B7FF46DAF012072E74FF09E
:103A70000008F6E79846F4E780D018461C3076E751
:103A8000089B002B38DC229B022B35DDDDF82090D3
:103A9000B9F1000F0DD121464B460522284600F012
:103AA000D4FB01460446584600F0ADFD00283FF720
:103AB000BDAD239B039F6FEA030A4FF00008214628
:103AC000284600F0ABFB002E3FF4ABAEB8F1000F80
:103AD00005D0B04503D04146284600F09FFB314653
:103AE000284600F09BFB9CE600242646E1E7C24600
:103AF00026469BE5000024400B9BDDF82090002B20
:103B000000F0F680002F05DD31463A46284600F0E9
:103B10001BFD0646B8F1000F55D07168284600F02D
:103B200049FB0746326906F10C01023292000C3063
:103B300000F032FB01223946284600F005FDB04670
:103B40000646039B01330893039B4B440A93049B53
:103B500003F001030993089B2146013B5846049357
:103B6000FFF780FA034641463033069058460B93E0
:103B700000F049FD324681462146284600F05EFDB0
:103B8000C26807460B9B02BB0146584600F03BFD4E
:103B900002460B9B39462846CDE90B3200F03EFB2E
:103BA000229B0C9A089F43EA0201099B0B430B9B43
:103BB0000DD1392B29D0B9F1000F01DD069B31332E
:103BC000049A13707BE73046B9E70122E2E7B9F1C6
:103BD000000F06DB229941EA0909099959EA010116
:103BE00020D1002AECDD594601222846089300F036
:103BF000ABFC2146834600F006FD0028089B02DC52
:103C0000DED1DA07DCD5392BD8D13923049A1370E9
:103C10003B461F4617F8012C013B392A50D0013290
:103C20001A704CE7002A03DD392BEED00133C7E7C9
:103C3000089A0A9902F8013C8A422AD05946002380
:103C40000A22284600F001FBB04583464FF00003EE
:103C50004FF00A024146284607D100F0F6FA8046A6
:103C60000646089B0133089375E700F0EEFA3146EB
:103C7000804600230A22284600F0E7FA0646F0E7CD
:103C8000B9F1000FCCBF4F4601274FF00008039A4F
:103C90001744594601222846089300F055FC214656
:103CA000834600F0B0FC0028B2DC02D1089BDB07A1
:103CB000AED43B461F4613F8012D302AFAD0FEE65B
:103CC000039A9A42A5D131230AF1010A79E7134BED
:103CD000FFF7BCBA269B002B7FF494AA104BFFF78A
:103CE000B5BAB9F1000F03DC229B022B3FF7D0AE2F
:103CF000039F21465846FFF7B5F9039A00F13003B8
:103D000007F8013BBA1A9145BADD594600230A2249
:103D1000284600F09AFA8346EBE700BF344F0008CC
:103D2000584F00088A892DE9F041054610070C46D6
:103D300058D44B68002B05DC0B6C002B02DC0020F8
:103D4000BDE8F081E66A002EF9D0002312F480521B
:103D50002F682B6032D0606DA3895A0705D5636840
:103D6000C01A636B0BB1236CC01A00230246E66ACB
:103D70002846216AB047431CA38906D129681D291A
:103D80002CD82A4ACA40D60728D500226260226968
:103D9000D904226004D5421C01D12B6803B96065A7
:103DA000616B2F600029CAD004F14403994202D00C
:103DB000284600F01DFD00206063C1E7216A012351
:103DC0002846B047411CC7D12B68002BC4D01D2BFF
:103DD00001D0162B01D12F60B1E7A38943F0400336
:103DE000A381ADE70F69002FA9D0930718BF002367
:103DF0000E6808BF4B69A6EB07080F608B60B8F12F
:103E0000000F9CDD43463A462846216AA66AB04721
:103E1000002806DCA3894FF0FF3043F04003A38164
:103E20008EE70744A8EB0008E9E700BF0100402047
:103E300038B50B6905460C4613B90025284638BD30
:103E400018B183690BB900F087F8144B9C421BD161
:103E50006C68B4F90C30002BEFD0626ED00704D43C
:103E6000990502D4A06D00F01AF928462146FFF703
:103E700059FF636E0546DA07E0D4A3899B05DDD4BC
:103E8000A06D00F00DF9D9E7054B9C4201D1AC685B
:103E9000DFE7044B9C4208BFEC68DAE7884F000874
:103EA000A84F0008684F0008002310B50446C0E979
:103EB0000033C0E90433836081814366C28183613A
:103EC000194608225C30FEF717FB054B246263623B
:103ED000044BA362044BE362044B236310BD00BF99
:103EE0000D4C00082F4C0008674C00088B4C000854
:103EF000014900F0AFB800BF313E000870B5682539
:103F00004A1E55430E4605F1740100F0BDFC0446FF
:103F100040B10021C0E900160C30A06005F1680234
:103F2000FEF7EAFA204670BD014800F0B8B800BFBD
:103F300010030020014800F0B3B800BF10030020B8
:103F4000014800F0ACB800BF0B030020014800F0AE
:103F5000A7B800BF0B03002010B50446FFF7F0FF21
:103F6000A3691BB1BDE81040FFF7F0BFC4E91233ED
:103F70002365134B134A1B68A262A34208BF0123A7
:103F8000204608BFA36100F01FF86060204600F0E3
:103F90001BF8A060204600F017F800220421E06022
:103FA0006068FFF781FF01220921A068FFF77CFF0D
:103FB00002221221E068FFF777FF0123A361D1E716
:103FC000204F0008F13E0008F8B50746FFF7ACFFA8
:103FD0001E4B1E68B36913B93046FFF7BDFF483664
:103FE000D6E90134013B03D533680BB33668F7E7F4
:103FF000B4F90C50D5B9164B04F15800E36065666E
:1040000000F04CF8FFF796FF08222946C4E9015555
:10401000C4E904552560A56104F15C00FEF76CFA63
:10402000C4E90D55C4E912552046F8BD6834D9E7F6
:1040300004213846FFF762FF044630600028D5D1DE
:10404000FFF778FF0C233B60EEE700BF204F00082E
:104050000100FFFF2DE9F84306468846002700F1DE
:104060004804D4E90195B9F1010905D52468002C6B
:10407000F7D13846BDE8F883AB89012B07D9B5F9EC
:104080000E30013303D029463046C0470743683518
:10409000E9E7000000487047800100207047704742
:1040A000704770B50E46B1F90E10144600291D4632
:1040B00096B007DA00232B60B3891A0610D44FF4A8
:1040C00080630EE06A4600F007FE0028F2DB019AEA
:1040D00002F47042A2F500535A425A412A60EEE7B8
:1040E00040230020236016B070BD00008B8973B59B
:1040F0009D0706460C4607D504F14703236023615C
:104100000123636102B070BD6A4601ABFFF7C9FFCE
:1041100000990546304600F0B7FB48B9B4F90C30B9
:104120009A05EFD423F0030343F00203A381E3E7EE
:104130000D4BB362A389206043F08003A381009BF1
:1041400020616361019B5BB13046B4F90E1000F051
:10415000D5FD28B1A38923F0030343F00103A38114
:10416000A0890543A581CDE7F13E0008024B014639
:10417000186800F089BB00BF2C000020034610B572
:10418000C9B202449342184601D1002003E00478EA
:1041900001338C42F6D110BD0A44914200F1FF3345
:1041A00000D1704710B511F8014B914203F8014F4F
:1041B000F9D110BD70B5466A04460D463EB91020CF
:1041C000FFF7D4FFC0E9016660620660C660666AF8
:1041D000F36883B1636ADB6853F82500B8B901213D
:1041E00001FA05F6721D2046920000F0F2FA60B165
:1041F000C0E901560EE021220421204600F0E9FA30
:10420000636AF060DB68002BE4D1002070BD0268B7
:1042100043F825200023C0E90333F7E770B5466A69
:1042200005460C463EB91020FFF7A0FFC0E9016625
:1042300068620660C6603CB16B6A6268DB6853F80E
:104240002210216043F8224070BD2DE9F0419846CC
:104250000C4600230E69074601F11400056801337E
:10426000A9B202FB01812D0C4FEA114C02FB05C5DE
:1042700089B201EB05419E424FEA154840F8041B04
:10428000ECDCB8F1000F1BD0A368B34212DC61680C
:1042900038460131FFF78EFF0546226904F10C0113
:1042A000023292000C30FFF777FF21463846FFF7C5
:1042B000B5FF2C4604EB86030136C3F81480266153
:1042C0002046BDE8F081020C12040346CAB903047B
:1042D000102013F07F4F04BF1B02083013F0704F03
:1042E00004BF1B01043013F0404F04BF9B00023099
:1042F000002B05DB13F0804F00F1010008BF2020E8
:1043000070470020E5E70368024613F007000BD072
:10431000D90722D4980749BF5B089B080120136086
:104320005CBF02201360704799B209B910201B0CC2
:1043300013F0FF0F04BF1B0A0830190704BF1B0945
:104340000430990704BF9B080230D90703D45B08E7
:1043500000F1010003D01360704700207047202057
:10436000704710B50C460121FFF724FF012244617C
:10437000026110BD2DE9F04F15460A692B690C4604
:104380009A42BEBF0B462C461D462769D5F81090B1
:10439000A368616807EB0906B342B8BF013185B075
:1043A000FFF708FF00F114010B46002201EB86081D
:1043B00043451DD304F1140305F1140203EB8707F1
:1043C00002EB890302933B1B153B23F003030433E9
:1043D00004F11505AF4238BF04230193029B0392F9
:1043E000934208D8002E5ADC066105B0BDE8F08F74
:1043F00043F8042BDCE7B2F800A0BAF1000F24D098
:1044000089464FF0000C04F1140E5EF8045BD9F8F5
:1044100000B0ABB21FFA8BFB0AFB03B34FEA154B9C
:10442000D9F8005063444FEA154C0AFB0BC505EB65
:1044300013459BB243EA054377454FEA154C49F8CB
:10444000043BE2D8019B41F803C0039B0432B3F85C
:104450000290B9F1000F20D08E464FF0000A0B6891
:1044600004F1140CBCF80050BEF802B09BB209FB7A
:1044700005B5AA4443EA0A434EF8043B5CF8043B02
:10448000BEF800501B0C09FB0353674503EB1A43AE
:104490004FEA134AE6D8019D4B5104319EE758F884
:1044A000043D002BA0D1013E9CE700002DE9F8431C
:1044B000154612F0030206460F4607D0214C013A7A
:1044C000002354F82220FFF7C0FE0746AD1035D078
:1044D000746A3CB91020FFF749FEC0E901447062DC
:1044E0000460C460D6F82480D8F808404CB940F283
:1044F00071213046FFF735FF00230446C8F8080055
:1045000003604FF00009EB070AD5394622463046D2
:10451000FFF730FF804639463046FFF77FFE4746BB
:104520006D100BD0206838B9224621463046FFF77F
:1045300021FF2060C0F800900446E4E73846BDE85B
:10454000F88300BFB85000082DE9F0470C46074635
:1045500091462369496803EB6218A3684FEA621A1F
:1045600008F10106B3423FDB3846FFF723FE002384
:10457000054600F1140100F110021846534536DBE0
:1045800020692AEAEA7A04F1140319F01F0901EB01
:104590008A0103EB800C2ED08A460022C9F1200E3E
:1045A000186800FA09F002434AF8042B53F8042B68
:1045B0009C4522FA0EF2F3D8ACEB0403153B23F032
:1045C0000303043304F11500604588BF0423CA5077
:1045D0000AB108F10206013E384621462E61FFF776
:1045E0001DFE2846BDE8F08701315B00BAE742F8BE
:1045F000040F0133C2E7043953F8042B9C4541F8FA
:10460000042FF9D8E7E703460A69006930B5801A34
:104610000DD11433143103EB820401EB820154F801
:10462000045D51F8042D954202D004D3012030BD21
:10463000A342F4D3FBE74FF0FF30F8E72DE9F84F42
:104640000C460646114620469246FFF7DCFF051E43
:1046500008D129463046FFF7ADFD0123C0E90435F6
:10466000BDE8F88FA4BF5346A2463046DAF80410DE
:10467000A6BF1C4600250125FFF79CFD00F114088C
:10468000DAF81070C5600AF110020AF114054FF053
:10469000000CC246266904F1140905EB870E09EBEC
:1046A000860652F804BF59F8043B1FFA8BF16144A7
:1046B0001FFA83FC1B0CA1EB0C01C3EB1B4303EBA8
:1046C000214389B24FEA234C4E4541EA03434AF85D
:1046D000043BE6D8331B153B23F0030315340433A6
:1046E000A64238BF04231D4443441E462C4674454D
:1046F0000ED30EF10302521B22F00302033DAE451E
:1047000038BF00221A4452F8043D8BB10761A7E775
:1047100054F8048B1FFA88F26244111401EB18411B
:1047200092B242EA01424FEA214C46F8042BDEE7FE
:10473000013FE8E72DE9F3411C46DDE90865012169
:104740009046FFF737FDC4F31303C4F30A5407463A
:104750002CBB0193B8F1000326D068460093FFF705
:10476000D2FD0099F0B1019AC0F1200302FA03F3DF
:104770000B43C2407B610192019B002B14BF0221BD
:104780000121BB613961C4B1A4F233440444C0F1D6
:10479000350034602860384602B0BDE8F08143F44B
:1047A0008013D6E77961E7E701A8FFF7ACFD0121A7
:1047B000019B39617B612030E5E707EB8103A0F2C3
:1047C000324030601869FFF77EFDC0EB411129606F
:1047D000E1E738B502FB01F5294600F055F804463B
:1047E00018B12A460021FDF787FE204638BD00009B
:1047F00038B50546002943D051F8043C0C1F002B66
:10480000B8BFE41800F0AEFA1E4A1368104633B978
:10481000636014602846BDE8384000F0A9BAA3429E
:104820000AD921686218934201BF1A685B6852185E
:10483000226063600460EDE71A465B680BB1A34237
:10484000FAD911685018A0420BD1206801445018C1
:1048500083421160DED118685B68014411605360C7
:10486000D8E702D90C232B60D4E7206821188B42AB
:1048700001BF19685B680918216063605460C9E76B
:1048800038BD00BF18020020F8B5CD1C25F0030587
:1048900008350C2D38BF0C25002D064601DBA9423A
:1048A00003D90C2333600020F8BD00F05BFA2149E6
:1048B0000A6814469CB9204F3B6823B9214630460C
:1048C00000F094F938602946304600F08FF9431C17
:1048D00023D10C233046336000F04AFAE3E7236823
:1048E0005B1B17D40B2B03D923601C44256004E009
:1048F0006368A2420CBF0B605360304600F038FA88
:1049000004F10B00231D20F00700C21ACCD01B1AA3
:10491000A350C9E722466468CCE7C41C24F0030412
:10492000A042E3D0211A304600F060F90130DDD119
:10493000CFE700BF180200201C020020936810B4CB
:10494000013B002B936007DA9469A34201DB0A293B
:1049500002D110BCFEF7C6BA1368581C106019705B
:10496000084610BC7047F8B506460F461446D518E1
:10497000AC4201D1002007E03A46304614F8011B52
:10498000FFF7DCFF431CF3D1F8BD00002DE9F04F29
:104990000D461446984606469DB018B183690BB97A
:1049A000FFF7DAFA894B9D421BD175686B6ED90708
:1049B00005D4AB899A0502D4A86DFFF770FBAB89CB
:1049C0001B0701D52B69EBB929463046FEF7DCFA07
:1049D000C0B16B6EDC070ED54FF0FF301DB0BDE8E7
:1049E000F08F7B4B9D4201D1B568DFE7794B9D424B
:1049F00008BFF568DAE7AB899805EDD4A86DFFF735
:104A00004FFBE9E70023099320238DF82930302359
:104A10004FF00109CDF80C80DFF8BC818DF82A3009
:104A200023469A4613F8012B0AB1252AF9D1BAEB8D
:104A3000040B0BD05B46224629463046FFF793FF16
:104A4000013000F0AA80099A5A4409929AF800307D
:104A5000002B00F0A28000234FF0FF32CDE90523A8
:104A60000AF1010A049307938DF853301A935446C0
:104A7000052214F8011B5848FFF780FB049AD8B9A7
:104A8000D10644BF20238DF85330130744BF2B2396
:104A90008DF853309AF800302A2B15D05446002058
:104AA0004FF00A0C079A214611F8013B303B092BC5
:104AB0004ED9B0B1079214E0A0EB080309FA03F352
:104AC0001343A2460493D2E7039B191D1B6803916D
:104AD000002BBBBF5B4242F0020207930793B8BFB3
:104AE000049223782E2B0CD163782A2B35D1039B8B
:104AF00002341A1D1B680392002BB8BF4FF0FF331E
:104B00000593DFF8E4A0032250462178FFF736FB37
:104B100040B14023A0EB0A0003FA00F0049B0134EB
:104B20000343049314F8011B06222C488DF8281027
:104B3000FFF724FB00283FD0294B1BBB039B073307
:104B400023F0070308330393099B3B44099367E76A
:104B50000C4601200CFB0232A5E700234FF00A0CA3
:104B6000194601340593204610F8012B303A092AE2
:104B700003D9002BC5D00591C3E7044601230CFBE4
:104B80000121F0E703AB00932A463046154B04A9F8
:104B9000FDF758FD0746781CD6D16B6ED90705D4B2
:104BA000AB899A0502D4A86DFFF77AFAAB895B0648
:104BB0003FF512AF099811E703AB00932A46304640
:104BC000084B04A9FDF7DAFFE4E700BF884F0008AF
:104BD000A84F0008684F0008C4500008CE500008D5
:104BE0004526000867490008CA50000838B5002368
:104BF000054D044608462B6000F008F9431C02D11D
:104C00002B6803B1236038BD1403002010B50C4697
:104C1000B1F90E1000F0B2F80028ABBF636DA389A4
:104C20001B1823F48053ACBF6365A38110BD2DE92D
:104C3000F0411F468B890546DB050C46164605D517
:104C400002230022B1F90E1000F068F8A389324661
:104C500023F48053A38128463B46B4F90E10BDE8E7
:104C6000F04100F017B810B50C46B1F90E1000F085
:104C700055F8431CA38915BF606523F4805343F4A2
:104C80008053A38118BFA38110BDB1F90E1000F0AD
:104C900013B8000038B50446084611460022054DF9
:104CA0002A601A46FDF7FAF9431C02D12B6803B1BA
:104CB000236038BD1403002038B50023054D044699
:104CC00008462B6000F07AF8431C02D12B6803B130
:104CD000236038BD1403002038B50023064D044678
:104CE000084611462B6000F071F8431C02D12B6876
:104CF00003B1236038BD00BF1403002038B5002382
:104D0000054D044608462B6000F068F8431C02D1AC
:104D10002B6803B1236038BD1403002038B5044666
:104D2000084611460022054D2A601A4600F05EF83A
:104D3000431C02D12B6803B1236038BD140300204B
:104D400082B001B901A942B14BB113780B6012785E
:104D5000101E18BF012002B070471046FBE76FF02D
:104D60000100F8E70148FFF79AB900BF0C030020E3
:104D70000148FFF795B900BF0C03002038B5044681
:104D8000084611460022054D2A601A4600F036F802
:104D9000431C02D12B6803B1236038BD14030020EB
:104DA0000346084641B1FF2A04D98A224FF0FF305A
:104DB0001A60704701200A70704700005822024BA9
:104DC0004FF0FF301A607047140300205822024B46
:104DD0004FF0FF301A607047140300205822024B36
:104DE00000201A60704700BF140300205822024BB5
:104DF0004FF0FF301A607047140300205822024B16
:104E00004FF0FF301A60704714030020044A054930
:104E10001368002B08BF0B461844106018467047F3
:104E20002002002018030020F8B500BFF8BC08BC21
:104E30009E467047F8B500BFF8BC08BC9E46704758
:104E400002030405060708090A0B0C0D0E0F1010CB
:104E50000000000000000000000000000102030448
:104E600006070809000000000102030441207365E1
:104E70007269616C20706F72742074657374212183
:104E8000210D000068656C6C6F20776F726C642177
:104E90002025660D0A000000546869732066756E4F
:104EA0006374696F6E20696D706C656D656E747387
:104EB0002073657269616C20706F72742070726902
:104EC0006E74696E670D0000496E697469616C6982
:104ED0007A6174696F6E20636F6D706C6574656460
:104EE000202C73797374656D20737461727475709E
:104EF000210D0000536F66747761726520766572CC
:104F000073696F6E2069732056252E31660D0A0D68
:104F10000A000000746674206F6B210D0000000011
:104F200030000020494E4600696E66004E414E003A
:104F30006E616E00300030313233343536373839F7
:104F400041424344454600303132333435363738F8
:104F50003961626364656600496E66696E69747979
:104F6000004E614E00000000000000000000000044
:104F70000000000000000000000000000000000031
:104F80000000000000000000000000000000000021
:104F90000000000000000000000000000000000011
:104FA0000000000000000000000000000000000001
:104FB00000000000000000000000000000000000F1
:104FC00000000000000000000080E03779C341438A
:104FD000176E05B5B5B89346F5F93FE9034F384D5F
:104FE000321D30F94877825A3CBF737FDD4F15750B
:104FF000000000000000F03F00000000000024401E
:1050000000000000000059400000000000408F40F8
:10501000000000000088C34000000000006AF84063
:105020000000000080842E4100000000D012634187
:105030000000000084D797410000000065CDCD41FD
:10504000000000205FA00242000000E876483742DE
:10505000000000A2941A6D42000040E59C30A2427C
:105060000000901EC4BCD64200003426F56B0C43F1
:105070000080E03779C3414300A0D8855734764398
:1050800000C84E676DC1AB43003D9160E458E143F9
:10509000408CB5781DAF154450EFE2D6E41A4B446E
:1050A00092D54D06CFF08044F64AE1C7022DB544B3
:1050B000B49DD9794378EA44050000001900000046
:1050C0007D000000232D302B2000686C4C006566AD
:1050D00067454647004300504F534958002E000093
:1050E0002020202020202020202828282828202098
:1050F00020202020202020202020202020202020B0
:105100008810101010101010101010101010101027
:105110000404040404040404040410101010101007
:1051200010414141414141010101010101010101E0
:105130000101010101010101010101101010101014
:1051400010424242424242020202020202020202B1
:1051500002020202020202020202021010101020D9
:10516000000000000000000000000000000000003F
:10517000000000000000000000000000000000002F
:10518000000000000000000000000000000000001F
:10519000000000000000000000000000000000000F
:1051A00000000000000000000000000000000000FF
:1051B00000000000000000000000000000000000EF
:1051C00000000000000000000000000000000000DF
:1051D00000000000000000000000000000000000CF
:0451E000350100088D
:0451E40011010008AD
:1051E80001000000100000000024F400991F0008CE
:1051F800911F0008931F00082D2000080000803F21
:1052080039210008F5200008B920000830000020E6
:1052180000000000884F0008A84F0008684F0008E9
:105228000000000000000000000000000000000076
:105238000000000000000000000000000000000066
:105248000000000000000000000000000000000056
:105258000000000000000000000000000000000046
:105268000000000000000000000000000000000036
:1052780043000000000000000000000000000000E3
:105288000000000000000000000000000000000016
:1052980043000000000000000000000000000000C3
:1052A80000000000000000000000000000000000F6
:1052B80043000000000000000000000000000000A3
:1052C80000000000000000000000000000000000D6
:1052D8004300000000000000000000000000000083
:1052E80000000000000000000000000000000000B6
:1052F8004300000000000000000000000000000063
:105308000000000000000000000000000000000095
:105318004300000000000000000000000000000042
:105328000000000000000000000000000000000075
:105338004300000000000000000000000000000022
:105348000000000000000000000000000000000055
:10535800A14D0008414D000800000000DF50000882
:10536800DD500008C9500008C9500008C95000089D
:10537800C9500008C9500008C9500008C9500008A1
:10538800C9500008C9500008FFFFFFFFFFFFFFFFDB
:10539800FFFFFFFFFFFF00000100415343494900A1
:1053A80000000000000000000000000000000000F5
:1053B800000000000000000000004153434949007C
:1053C80000000000000000000000000000000000D5
:0C53D800000000000000000000000000C9
:040000050800246566
:00000001FF
