ARM GAS  C:\Users\LIGUOH~1\AppData\Local\Temp\ccptuqAu.s 			page 1


   1              		.cpu cortex-m3
   2              		.eabi_attribute 20, 1
   3              		.eabi_attribute 21, 1
   4              		.eabi_attribute 23, 3
   5              		.eabi_attribute 24, 1
   6              		.eabi_attribute 25, 1
   7              		.eabi_attribute 26, 1
   8              		.eabi_attribute 30, 1
   9              		.eabi_attribute 34, 1
  10              		.eabi_attribute 18, 4
  11              		.file	"MyInit.c"
  12              		.text
  13              	.Ltext0:
  14              		.cfi_sections	.debug_frame
  15              		.section	.rodata.Peripheral_Set.str1.4,"aMS",%progbits,1
  16              		.align	2
  17              	.LC0:
  18 0000 54686973 		.ascii	"This function implements serial port printing\015\000"
  18      2066756E 
  18      6374696F 
  18      6E20696D 
  18      706C656D 
  19 002f 00       		.align	2
  20              	.LC1:
  21 0030 496E6974 		.ascii	"Initialization completed ,system startup!\015\000"
  21      69616C69 
  21      7A617469 
  21      6F6E2063 
  21      6F6D706C 
  22              		.global	__aeabi_f2d
  23 005b 00       		.align	2
  24              	.LC2:
  25 005c 536F6674 		.ascii	"Software version is V%.1f\015\012\015\012\000"
  25      77617265 
  25      20766572 
  25      73696F6E 
  25      20697320 
  26              		.section	.text.Peripheral_Set,"ax",%progbits
  27              		.align	1
  28              		.arch armv7-m
  29              		.syntax unified
  30              		.thumb
  31              		.thumb_func
  32              		.fpu softvfp
  34              	Peripheral_Set:
  35              	.LFB68:
  36              		.file 1 "MyApplication/MyInit.c"
   1:MyApplication/MyInit.c **** /*Include-----------------------------------------------*/
   2:MyApplication/MyInit.c **** #include "MyInit.h"
   3:MyApplication/MyInit.c **** static void Peripheral_Set(void);
   4:MyApplication/MyInit.c **** 
   5:MyApplication/MyInit.c **** float Software_Version=1.0;
   6:MyApplication/MyInit.c **** 
   7:MyApplication/MyInit.c **** MyInit_t MyInit =
   8:MyApplication/MyInit.c **** {
   9:MyApplication/MyInit.c ****     Peripheral_Set
  10:MyApplication/MyInit.c **** };
ARM GAS  C:\Users\LIGUOH~1\AppData\Local\Temp\ccptuqAu.s 			page 2


  11:MyApplication/MyInit.c **** 
  12:MyApplication/MyInit.c **** static void Peripheral_Set()
  13:MyApplication/MyInit.c **** {
  37              		.loc 1 13 1 view -0
  38              		.cfi_startproc
  39              		@ args = 0, pretend = 0, frame = 0
  40              		@ frame_needed = 0, uses_anonymous_args = 0
  41 0000 00B5     		push	{lr}
  42              	.LCFI0:
  43              		.cfi_def_cfa_offset 4
  44              		.cfi_offset 14, -4
  45 0002 83B0     		sub	sp, sp, #12
  46              	.LCFI1:
  47              		.cfi_def_cfa_offset 16
  14:MyApplication/MyInit.c ****  printf("This function implements serial port printing\r\n");
  48              		.loc 1 14 2 view .LVU1
  49 0004 0E48     		ldr	r0, .L3
  50 0006 FFF7FEFF 		bl	puts
  51              	.LVL0:
  15:MyApplication/MyInit.c ****  printf("Initialization completed ,system startup!\r\n");  //初始化完成系统启动
  52              		.loc 1 15 2 view .LVU2
  53 000a 0E48     		ldr	r0, .L3+4
  54 000c FFF7FEFF 		bl	puts
  55              	.LVL1:
  16:MyApplication/MyInit.c ****  printf("Software version is V%.1f\r\n\r\n",Software_Version);
  56              		.loc 1 16 2 view .LVU3
  57 0010 0D4B     		ldr	r3, .L3+8
  58 0012 1868     		ldr	r0, [r3]	@ float
  59 0014 FFF7FEFF 		bl	__aeabi_f2d
  60              	.LVL2:
  61 0018 0246     		mov	r2, r0
  62 001a 0B46     		mov	r3, r1
  63 001c 0B48     		ldr	r0, .L3+12
  64 001e FFF7FEFF 		bl	printf
  65              	.LVL3:
  17:MyApplication/MyInit.c ****  LCD_Init();
  66              		.loc 1 17 2 view .LVU4
  67 0022 FFF7FEFF 		bl	LCD_Init
  68              	.LVL4:
  18:MyApplication/MyInit.c ****  LCD_Fill1(0,0,100,200,RED);
  69              		.loc 1 18 2 view .LVU5
  70 0026 4FF47843 		mov	r3, #63488
  71 002a 0093     		str	r3, [sp]
  72 002c C823     		movs	r3, #200
  73 002e 6422     		movs	r2, #100
  74 0030 0021     		movs	r1, #0
  75 0032 0846     		mov	r0, r1
  76 0034 FFF7FEFF 		bl	LCD_Fill1
  77              	.LVL5:
  19:MyApplication/MyInit.c **** }...
  78              		.loc 1 19 1 is_stmt 0 view .LVU6
  79 0038 03B0     		add	sp, sp, #12
  80              	.LCFI2:
  81              		.cfi_def_cfa_offset 4
  82              		@ sp needed
  83 003a 5DF804FB 		ldr	pc, [sp], #4
  84              	.L4:
ARM GAS  C:\Users\LIGUOH~1\AppData\Local\Temp\ccptuqAu.s 			page 3


  85 003e 00BF     		.align	2
  86              	.L3:
  87 0040 00000000 		.word	.LC0
  88 0044 30000000 		.word	.LC1
  89 0048 00000000 		.word	.LANCHOR0
  90 004c 5C000000 		.word	.LC2
  91              		.cfi_endproc
  92              	.LFE68:
  94              		.global	MyInit
  95              		.global	Software_Version
  96              		.section	.data.MyInit,"aw"
  97              		.align	2
 100              	MyInit:
 101 0000 00000000 		.word	Peripheral_Set
 102              		.section	.data.Software_Version,"aw"
 103              		.align	2
 104              		.set	.LANCHOR0,. + 0
 107              	Software_Version:
 108 0000 0000803F 		.word	1065353216
 109              		.text
 110              	.Letext0:
 111              		.file 2 "c:\\gnu_tool_arm_embedded\\arm-none-eabi\\include\\machine\\_default_types.h"
 112              		.file 3 "c:\\gnu_tool_arm_embedded\\arm-none-eabi\\include\\sys\\_stdint.h"
 113              		.file 4 "Drivers/CMSIS/Include/core_cm3.h"
 114              		.file 5 "Drivers/CMSIS/Device/ST/STM32F1xx/Include/system_stm32f1xx.h"
 115              		.file 6 "Drivers/CMSIS/Device/ST/STM32F1xx/Include/stm32f103xb.h"
 116              		.file 7 "Drivers/STM32F1xx_HAL_Driver/Inc/stm32f1xx_hal_def.h"
 117              		.file 8 "Drivers/STM32F1xx_HAL_Driver/Inc/stm32f1xx_hal_dma.h"
 118              		.file 9 "Drivers/STM32F1xx_HAL_Driver/Inc/stm32f1xx_hal_spi.h"
 119              		.file 10 "Drivers/STM32F1xx_HAL_Driver/Inc/stm32f1xx_hal_uart.h"
 120              		.file 11 "Drivers/STM32F1xx_HAL_Driver/Inc/stm32f1xx_hal.h"
 121              		.file 12 "Core/Inc/usart.h"
 122              		.file 13 "Core/Inc/spi.h"
 123              		.file 14 "c:\\gnu_tool_arm_embedded\\arm-none-eabi\\include\\sys\\lock.h"
 124              		.file 15 "c:\\gnu_tool_arm_embedded\\arm-none-eabi\\include\\sys\\_types.h"
 125              		.file 16 "c:\\gnu_tool_arm_embedded\\lib\\gcc\\arm-none-eabi\\9.2.1\\include\\stddef.h"
 126              		.file 17 "c:\\gnu_tool_arm_embedded\\arm-none-eabi\\include\\sys\\reent.h"
 127              		.file 18 "c:\\gnu_tool_arm_embedded\\arm-none-eabi\\include\\stdlib.h"
 128              		.file 19 "MyApplication/System.h"
 129              		.file 20 "MyApplication/LED.h"
 130              		.file 21 "MyApplication/MyInit.h"
 131              		.file 22 "c:\\gnu_tool_arm_embedded\\arm-none-eabi\\include\\stdio.h"
 132              		.file 23 "MyApplication/lcd_init.h"
 133              		.file 24 "MyApplication/lcd.h"
 134              		.file 25 "<built-in>"
ARM GAS  C:\Users\LIGUOH~1\AppData\Local\Temp\ccptuqAu.s 			page 4


DEFINED SYMBOLS
                            *ABS*:00000000 MyInit.c
C:\Users\LIGUOH~1\AppData\Local\Temp\ccptuqAu.s:16     .rodata.Peripheral_Set.str1.4:00000000 $d
C:\Users\LIGUOH~1\AppData\Local\Temp\ccptuqAu.s:27     .text.Peripheral_Set:00000000 $t
C:\Users\LIGUOH~1\AppData\Local\Temp\ccptuqAu.s:34     .text.Peripheral_Set:00000000 Peripheral_Set
C:\Users\LIGUOH~1\AppData\Local\Temp\ccptuqAu.s:87     .text.Peripheral_Set:00000040 $d
C:\Users\LIGUOH~1\AppData\Local\Temp\ccptuqAu.s:100    .data.MyInit:00000000 MyInit
C:\Users\LIGUOH~1\AppData\Local\Temp\ccptuqAu.s:107    .data.Software_Version:00000000 Software_Version
C:\Users\LIGUOH~1\AppData\Local\Temp\ccptuqAu.s:97     .data.MyInit:00000000 $d
C:\Users\LIGUOH~1\AppData\Local\Temp\ccptuqAu.s:103    .data.Software_Version:00000000 $d

UNDEFINED SYMBOLS
__aeabi_f2d
puts
printf
LCD_Init
LCD_Fill1
