ARM GAS  C:\Users\LIGUOH~1\AppData\Local\Temp\ccJhcioF.s 			page 1


   1              		.cpu cortex-m3
   2              		.eabi_attribute 20, 1
   3              		.eabi_attribute 21, 1
   4              		.eabi_attribute 23, 3
   5              		.eabi_attribute 24, 1
   6              		.eabi_attribute 25, 1
   7              		.eabi_attribute 26, 1
   8              		.eabi_attribute 30, 1
   9              		.eabi_attribute 34, 1
  10              		.eabi_attribute 18, 4
  11              		.file	"stm32f1xx_hal_gpio.c"
  12              		.text
  13              	.Ltext0:
  14              		.cfi_sections	.debug_frame
  15              		.section	.text.HAL_GPIO_Init,"ax",%progbits
  16              		.align	1
  17              		.global	HAL_GPIO_Init
  18              		.arch armv7-m
  19              		.syntax unified
  20              		.thumb
  21              		.thumb_func
  22              		.fpu softvfp
  24              	HAL_GPIO_Init:
  25              	.LVL0:
  26              	.LFB65:
  27              		.file 1 "Drivers/STM32F1xx_HAL_Driver/Src/stm32f1xx_hal_gpio.c"
   1:Drivers/STM32F1xx_HAL_Driver/Src/stm32f1xx_hal_gpio.c **** /**
   2:Drivers/STM32F1xx_HAL_Driver/Src/stm32f1xx_hal_gpio.c ****   ******************************************************************************
   3:Drivers/STM32F1xx_HAL_Driver/Src/stm32f1xx_hal_gpio.c ****   * @file    stm32f1xx_hal_gpio.c
   4:Drivers/STM32F1xx_HAL_Driver/Src/stm32f1xx_hal_gpio.c ****   * @author  MCD Application Team
   5:Drivers/STM32F1xx_HAL_Driver/Src/stm32f1xx_hal_gpio.c ****   * @brief   GPIO HAL module driver.
   6:Drivers/STM32F1xx_HAL_Driver/Src/stm32f1xx_hal_gpio.c ****   *          This file provides firmware functions to manage the following
   7:Drivers/STM32F1xx_HAL_Driver/Src/stm32f1xx_hal_gpio.c ****   *          functionalities of the General Purpose Input/Output (GPIO) peripheral:
   8:Drivers/STM32F1xx_HAL_Driver/Src/stm32f1xx_hal_gpio.c ****   *           + Initialization and de-initialization functions
   9:Drivers/STM32F1xx_HAL_Driver/Src/stm32f1xx_hal_gpio.c ****   *           + IO operation functions
  10:Drivers/STM32F1xx_HAL_Driver/Src/stm32f1xx_hal_gpio.c ****   *
  11:Drivers/STM32F1xx_HAL_Driver/Src/stm32f1xx_hal_gpio.c ****   @verbatim
  12:Drivers/STM32F1xx_HAL_Driver/Src/stm32f1xx_hal_gpio.c ****   ==============================================================================
  13:Drivers/STM32F1xx_HAL_Driver/Src/stm32f1xx_hal_gpio.c ****                     ##### GPIO Peripheral features #####
  14:Drivers/STM32F1xx_HAL_Driver/Src/stm32f1xx_hal_gpio.c ****   ==============================================================================
  15:Drivers/STM32F1xx_HAL_Driver/Src/stm32f1xx_hal_gpio.c ****   [..]
  16:Drivers/STM32F1xx_HAL_Driver/Src/stm32f1xx_hal_gpio.c ****   Subject to the specific hardware characteristics of each I/O port listed in the datasheet, each
  17:Drivers/STM32F1xx_HAL_Driver/Src/stm32f1xx_hal_gpio.c ****   port bit of the General Purpose IO (GPIO) Ports, can be individually configured by software
  18:Drivers/STM32F1xx_HAL_Driver/Src/stm32f1xx_hal_gpio.c ****   in several modes:
  19:Drivers/STM32F1xx_HAL_Driver/Src/stm32f1xx_hal_gpio.c ****   (+) Input mode
  20:Drivers/STM32F1xx_HAL_Driver/Src/stm32f1xx_hal_gpio.c ****   (+) Analog mode
  21:Drivers/STM32F1xx_HAL_Driver/Src/stm32f1xx_hal_gpio.c ****   (+) Output mode
  22:Drivers/STM32F1xx_HAL_Driver/Src/stm32f1xx_hal_gpio.c ****   (+) Alternate function mode
  23:Drivers/STM32F1xx_HAL_Driver/Src/stm32f1xx_hal_gpio.c ****   (+) External interrupt/event lines
  24:Drivers/STM32F1xx_HAL_Driver/Src/stm32f1xx_hal_gpio.c **** 
  25:Drivers/STM32F1xx_HAL_Driver/Src/stm32f1xx_hal_gpio.c ****   [..]
  26:Drivers/STM32F1xx_HAL_Driver/Src/stm32f1xx_hal_gpio.c ****   During and just after reset, the alternate functions and external interrupt
  27:Drivers/STM32F1xx_HAL_Driver/Src/stm32f1xx_hal_gpio.c ****   lines are not active and the I/O ports are configured in input floating mode.
  28:Drivers/STM32F1xx_HAL_Driver/Src/stm32f1xx_hal_gpio.c **** 
  29:Drivers/STM32F1xx_HAL_Driver/Src/stm32f1xx_hal_gpio.c ****   [..]
  30:Drivers/STM32F1xx_HAL_Driver/Src/stm32f1xx_hal_gpio.c ****   All GPIO pins have weak internal pull-up and pull-down resistors, which can be
  31:Drivers/STM32F1xx_HAL_Driver/Src/stm32f1xx_hal_gpio.c ****   activated or not.
ARM GAS  C:\Users\LIGUOH~1\AppData\Local\Temp\ccJhcioF.s 			page 2


  32:Drivers/STM32F1xx_HAL_Driver/Src/stm32f1xx_hal_gpio.c **** 
  33:Drivers/STM32F1xx_HAL_Driver/Src/stm32f1xx_hal_gpio.c ****   [..]
  34:Drivers/STM32F1xx_HAL_Driver/Src/stm32f1xx_hal_gpio.c ****   In Output or Alternate mode, each IO can be configured on open-drain or push-pull
  35:Drivers/STM32F1xx_HAL_Driver/Src/stm32f1xx_hal_gpio.c ****   type and the IO speed can be selected depending on the VDD value.
  36:Drivers/STM32F1xx_HAL_Driver/Src/stm32f1xx_hal_gpio.c **** 
  37:Drivers/STM32F1xx_HAL_Driver/Src/stm32f1xx_hal_gpio.c ****   [..]
  38:Drivers/STM32F1xx_HAL_Driver/Src/stm32f1xx_hal_gpio.c ****   All ports have external interrupt/event capability. To use external interrupt
  39:Drivers/STM32F1xx_HAL_Driver/Src/stm32f1xx_hal_gpio.c ****   lines, the port must be configured in input mode. All available GPIO pins are
  40:Drivers/STM32F1xx_HAL_Driver/Src/stm32f1xx_hal_gpio.c ****   connected to the 16 external interrupt/event lines from EXTI0 to EXTI15.
  41:Drivers/STM32F1xx_HAL_Driver/Src/stm32f1xx_hal_gpio.c **** 
  42:Drivers/STM32F1xx_HAL_Driver/Src/stm32f1xx_hal_gpio.c ****   [..]
  43:Drivers/STM32F1xx_HAL_Driver/Src/stm32f1xx_hal_gpio.c ****   The external interrupt/event controller consists of up to 20 edge detectors in connectivity
  44:Drivers/STM32F1xx_HAL_Driver/Src/stm32f1xx_hal_gpio.c ****   line devices, or 19 edge detectors in other devices for generating event/interrupt requests.
  45:Drivers/STM32F1xx_HAL_Driver/Src/stm32f1xx_hal_gpio.c ****   Each input line can be independently configured to select the type (event or interrupt) and
  46:Drivers/STM32F1xx_HAL_Driver/Src/stm32f1xx_hal_gpio.c ****   the corresponding trigger event (rising or falling or both). Each line can also masked
  47:Drivers/STM32F1xx_HAL_Driver/Src/stm32f1xx_hal_gpio.c ****   independently. A pending register maintains the status line of the interrupt requests
  48:Drivers/STM32F1xx_HAL_Driver/Src/stm32f1xx_hal_gpio.c **** 
  49:Drivers/STM32F1xx_HAL_Driver/Src/stm32f1xx_hal_gpio.c ****                      ##### How to use this driver #####
  50:Drivers/STM32F1xx_HAL_Driver/Src/stm32f1xx_hal_gpio.c ****   ==============================================================================
  51:Drivers/STM32F1xx_HAL_Driver/Src/stm32f1xx_hal_gpio.c ****  [..]
  52:Drivers/STM32F1xx_HAL_Driver/Src/stm32f1xx_hal_gpio.c ****    (#) Enable the GPIO APB2 clock using the following function : __HAL_RCC_GPIOx_CLK_ENABLE().
  53:Drivers/STM32F1xx_HAL_Driver/Src/stm32f1xx_hal_gpio.c **** 
  54:Drivers/STM32F1xx_HAL_Driver/Src/stm32f1xx_hal_gpio.c ****    (#) Configure the GPIO pin(s) using HAL_GPIO_Init().
  55:Drivers/STM32F1xx_HAL_Driver/Src/stm32f1xx_hal_gpio.c ****        (++) Configure the IO mode using "Mode" member from GPIO_InitTypeDef structure
  56:Drivers/STM32F1xx_HAL_Driver/Src/stm32f1xx_hal_gpio.c ****        (++) Activate Pull-up, Pull-down resistor using "Pull" member from GPIO_InitTypeDef
  57:Drivers/STM32F1xx_HAL_Driver/Src/stm32f1xx_hal_gpio.c ****             structure.
  58:Drivers/STM32F1xx_HAL_Driver/Src/stm32f1xx_hal_gpio.c ****        (++) In case of Output or alternate function mode selection: the speed is
  59:Drivers/STM32F1xx_HAL_Driver/Src/stm32f1xx_hal_gpio.c ****             configured through "Speed" member from GPIO_InitTypeDef structure
  60:Drivers/STM32F1xx_HAL_Driver/Src/stm32f1xx_hal_gpio.c ****        (++) Analog mode is required when a pin is to be used as ADC channel
  61:Drivers/STM32F1xx_HAL_Driver/Src/stm32f1xx_hal_gpio.c ****             or DAC output.
  62:Drivers/STM32F1xx_HAL_Driver/Src/stm32f1xx_hal_gpio.c ****        (++) In case of external interrupt/event selection the "Mode" member from
  63:Drivers/STM32F1xx_HAL_Driver/Src/stm32f1xx_hal_gpio.c ****             GPIO_InitTypeDef structure select the type (interrupt or event) and
  64:Drivers/STM32F1xx_HAL_Driver/Src/stm32f1xx_hal_gpio.c ****             the corresponding trigger event (rising or falling or both).
  65:Drivers/STM32F1xx_HAL_Driver/Src/stm32f1xx_hal_gpio.c **** 
  66:Drivers/STM32F1xx_HAL_Driver/Src/stm32f1xx_hal_gpio.c ****    (#) In case of external interrupt/event mode selection, configure NVIC IRQ priority
  67:Drivers/STM32F1xx_HAL_Driver/Src/stm32f1xx_hal_gpio.c ****        mapped to the EXTI line using HAL_NVIC_SetPriority() and enable it using
  68:Drivers/STM32F1xx_HAL_Driver/Src/stm32f1xx_hal_gpio.c ****        HAL_NVIC_EnableIRQ().
  69:Drivers/STM32F1xx_HAL_Driver/Src/stm32f1xx_hal_gpio.c **** 
  70:Drivers/STM32F1xx_HAL_Driver/Src/stm32f1xx_hal_gpio.c ****    (#) To get the level of a pin configured in input mode use HAL_GPIO_ReadPin().
  71:Drivers/STM32F1xx_HAL_Driver/Src/stm32f1xx_hal_gpio.c **** 
  72:Drivers/STM32F1xx_HAL_Driver/Src/stm32f1xx_hal_gpio.c ****    (#) To set/reset the level of a pin configured in output mode use
  73:Drivers/STM32F1xx_HAL_Driver/Src/stm32f1xx_hal_gpio.c ****        HAL_GPIO_WritePin()/HAL_GPIO_TogglePin().
  74:Drivers/STM32F1xx_HAL_Driver/Src/stm32f1xx_hal_gpio.c **** 
  75:Drivers/STM32F1xx_HAL_Driver/Src/stm32f1xx_hal_gpio.c ****    (#) To lock pin configuration until next reset use HAL_GPIO_LockPin().
  76:Drivers/STM32F1xx_HAL_Driver/Src/stm32f1xx_hal_gpio.c **** 
  77:Drivers/STM32F1xx_HAL_Driver/Src/stm32f1xx_hal_gpio.c ****    (#) During and just after reset, the alternate functions are not
  78:Drivers/STM32F1xx_HAL_Driver/Src/stm32f1xx_hal_gpio.c ****        active and the GPIO pins are configured in input floating mode (except JTAG
  79:Drivers/STM32F1xx_HAL_Driver/Src/stm32f1xx_hal_gpio.c ****        pins).
  80:Drivers/STM32F1xx_HAL_Driver/Src/stm32f1xx_hal_gpio.c **** 
  81:Drivers/STM32F1xx_HAL_Driver/Src/stm32f1xx_hal_gpio.c ****    (#) The LSE oscillator pins OSC32_IN and OSC32_OUT can be used as general purpose
  82:Drivers/STM32F1xx_HAL_Driver/Src/stm32f1xx_hal_gpio.c ****        (PC14 and PC15, respectively) when the LSE oscillator is off. The LSE has
  83:Drivers/STM32F1xx_HAL_Driver/Src/stm32f1xx_hal_gpio.c ****        priority over the GPIO function.
  84:Drivers/STM32F1xx_HAL_Driver/Src/stm32f1xx_hal_gpio.c **** 
  85:Drivers/STM32F1xx_HAL_Driver/Src/stm32f1xx_hal_gpio.c ****    (#) The HSE oscillator pins OSC_IN/OSC_OUT can be used as
  86:Drivers/STM32F1xx_HAL_Driver/Src/stm32f1xx_hal_gpio.c ****        general purpose PD0 and PD1, respectively, when the HSE oscillator is off.
  87:Drivers/STM32F1xx_HAL_Driver/Src/stm32f1xx_hal_gpio.c ****        The HSE has priority over the GPIO function.
  88:Drivers/STM32F1xx_HAL_Driver/Src/stm32f1xx_hal_gpio.c **** 
ARM GAS  C:\Users\LIGUOH~1\AppData\Local\Temp\ccJhcioF.s 			page 3


  89:Drivers/STM32F1xx_HAL_Driver/Src/stm32f1xx_hal_gpio.c ****   @endverbatim
  90:Drivers/STM32F1xx_HAL_Driver/Src/stm32f1xx_hal_gpio.c ****   ******************************************************************************
  91:Drivers/STM32F1xx_HAL_Driver/Src/stm32f1xx_hal_gpio.c ****   * @attention
  92:Drivers/STM32F1xx_HAL_Driver/Src/stm32f1xx_hal_gpio.c ****   *
  93:Drivers/STM32F1xx_HAL_Driver/Src/stm32f1xx_hal_gpio.c ****   * <h2><center>&copy; Copyright (c) 2016 STMicroelectronics.
  94:Drivers/STM32F1xx_HAL_Driver/Src/stm32f1xx_hal_gpio.c ****   * All rights reserved.</center></h2>
  95:Drivers/STM32F1xx_HAL_Driver/Src/stm32f1xx_hal_gpio.c ****   *
  96:Drivers/STM32F1xx_HAL_Driver/Src/stm32f1xx_hal_gpio.c ****   * This software component is licensed by ST under BSD 3-Clause license,
  97:Drivers/STM32F1xx_HAL_Driver/Src/stm32f1xx_hal_gpio.c ****   * the "License"; You may not use this file except in compliance with the
  98:Drivers/STM32F1xx_HAL_Driver/Src/stm32f1xx_hal_gpio.c ****   * License. You may obtain a copy of the License at:
  99:Drivers/STM32F1xx_HAL_Driver/Src/stm32f1xx_hal_gpio.c ****   *                        opensource.org/licenses/BSD-3-Clause
 100:Drivers/STM32F1xx_HAL_Driver/Src/stm32f1xx_hal_gpio.c ****   *
 101:Drivers/STM32F1xx_HAL_Driver/Src/stm32f1xx_hal_gpio.c ****   ******************************************************************************
 102:Drivers/STM32F1xx_HAL_Driver/Src/stm32f1xx_hal_gpio.c ****   */
 103:Drivers/STM32F1xx_HAL_Driver/Src/stm32f1xx_hal_gpio.c **** 
 104:Drivers/STM32F1xx_HAL_Driver/Src/stm32f1xx_hal_gpio.c **** /* Includes ------------------------------------------------------------------*/
 105:Drivers/STM32F1xx_HAL_Driver/Src/stm32f1xx_hal_gpio.c **** #include "stm32f1xx_hal.h"
 106:Drivers/STM32F1xx_HAL_Driver/Src/stm32f1xx_hal_gpio.c **** 
 107:Drivers/STM32F1xx_HAL_Driver/Src/stm32f1xx_hal_gpio.c **** /** @addtogroup STM32F1xx_HAL_Driver
 108:Drivers/STM32F1xx_HAL_Driver/Src/stm32f1xx_hal_gpio.c ****   * @{
 109:Drivers/STM32F1xx_HAL_Driver/Src/stm32f1xx_hal_gpio.c ****   */
 110:Drivers/STM32F1xx_HAL_Driver/Src/stm32f1xx_hal_gpio.c **** 
 111:Drivers/STM32F1xx_HAL_Driver/Src/stm32f1xx_hal_gpio.c **** /** @defgroup GPIO GPIO
 112:Drivers/STM32F1xx_HAL_Driver/Src/stm32f1xx_hal_gpio.c ****   * @brief GPIO HAL module driver
 113:Drivers/STM32F1xx_HAL_Driver/Src/stm32f1xx_hal_gpio.c ****   * @{
 114:Drivers/STM32F1xx_HAL_Driver/Src/stm32f1xx_hal_gpio.c ****   */
 115:Drivers/STM32F1xx_HAL_Driver/Src/stm32f1xx_hal_gpio.c **** 
 116:Drivers/STM32F1xx_HAL_Driver/Src/stm32f1xx_hal_gpio.c **** #ifdef HAL_GPIO_MODULE_ENABLED
 117:Drivers/STM32F1xx_HAL_Driver/Src/stm32f1xx_hal_gpio.c **** 
 118:Drivers/STM32F1xx_HAL_Driver/Src/stm32f1xx_hal_gpio.c **** /* Private typedef -----------------------------------------------------------*/
 119:Drivers/STM32F1xx_HAL_Driver/Src/stm32f1xx_hal_gpio.c **** /* Private define ------------------------------------------------------------*/
 120:Drivers/STM32F1xx_HAL_Driver/Src/stm32f1xx_hal_gpio.c **** /** @addtogroup GPIO_Private_Constants GPIO Private Constants
 121:Drivers/STM32F1xx_HAL_Driver/Src/stm32f1xx_hal_gpio.c ****   * @{
 122:Drivers/STM32F1xx_HAL_Driver/Src/stm32f1xx_hal_gpio.c ****   */
 123:Drivers/STM32F1xx_HAL_Driver/Src/stm32f1xx_hal_gpio.c **** #define GPIO_MODE             0x00000003u
 124:Drivers/STM32F1xx_HAL_Driver/Src/stm32f1xx_hal_gpio.c **** #define EXTI_MODE             0x10000000u
 125:Drivers/STM32F1xx_HAL_Driver/Src/stm32f1xx_hal_gpio.c **** #define GPIO_MODE_IT          0x00010000u
 126:Drivers/STM32F1xx_HAL_Driver/Src/stm32f1xx_hal_gpio.c **** #define GPIO_MODE_EVT         0x00020000u
 127:Drivers/STM32F1xx_HAL_Driver/Src/stm32f1xx_hal_gpio.c **** #define RISING_EDGE           0x00100000u
 128:Drivers/STM32F1xx_HAL_Driver/Src/stm32f1xx_hal_gpio.c **** #define FALLING_EDGE          0x00200000u
 129:Drivers/STM32F1xx_HAL_Driver/Src/stm32f1xx_hal_gpio.c **** #define GPIO_OUTPUT_TYPE      0x00000010u
 130:Drivers/STM32F1xx_HAL_Driver/Src/stm32f1xx_hal_gpio.c **** 
 131:Drivers/STM32F1xx_HAL_Driver/Src/stm32f1xx_hal_gpio.c **** #define GPIO_NUMBER           16u
 132:Drivers/STM32F1xx_HAL_Driver/Src/stm32f1xx_hal_gpio.c **** 
 133:Drivers/STM32F1xx_HAL_Driver/Src/stm32f1xx_hal_gpio.c **** /* Definitions for bit manipulation of CRL and CRH register */
 134:Drivers/STM32F1xx_HAL_Driver/Src/stm32f1xx_hal_gpio.c **** #define  GPIO_CR_MODE_INPUT         0x00000000u /*!< 00: Input mode (reset state)  */
 135:Drivers/STM32F1xx_HAL_Driver/Src/stm32f1xx_hal_gpio.c **** #define  GPIO_CR_CNF_ANALOG         0x00000000u /*!< 00: Analog mode  */
 136:Drivers/STM32F1xx_HAL_Driver/Src/stm32f1xx_hal_gpio.c **** #define  GPIO_CR_CNF_INPUT_FLOATING 0x00000004u /*!< 01: Floating input (reset state)  */
 137:Drivers/STM32F1xx_HAL_Driver/Src/stm32f1xx_hal_gpio.c **** #define  GPIO_CR_CNF_INPUT_PU_PD    0x00000008u /*!< 10: Input with pull-up / pull-down  */
 138:Drivers/STM32F1xx_HAL_Driver/Src/stm32f1xx_hal_gpio.c **** #define  GPIO_CR_CNF_GP_OUTPUT_PP   0x00000000u /*!< 00: General purpose output push-pull  */
 139:Drivers/STM32F1xx_HAL_Driver/Src/stm32f1xx_hal_gpio.c **** #define  GPIO_CR_CNF_GP_OUTPUT_OD   0x00000004u /*!< 01: General purpose output Open-drain  */
 140:Drivers/STM32F1xx_HAL_Driver/Src/stm32f1xx_hal_gpio.c **** #define  GPIO_CR_CNF_AF_OUTPUT_PP   0x00000008u /*!< 10: Alternate function output Push-pull  */
 141:Drivers/STM32F1xx_HAL_Driver/Src/stm32f1xx_hal_gpio.c **** #define  GPIO_CR_CNF_AF_OUTPUT_OD   0x0000000Cu /*!< 11: Alternate function output Open-drain  */
 142:Drivers/STM32F1xx_HAL_Driver/Src/stm32f1xx_hal_gpio.c **** 
 143:Drivers/STM32F1xx_HAL_Driver/Src/stm32f1xx_hal_gpio.c **** /**
 144:Drivers/STM32F1xx_HAL_Driver/Src/stm32f1xx_hal_gpio.c ****   * @}
 145:Drivers/STM32F1xx_HAL_Driver/Src/stm32f1xx_hal_gpio.c ****   */
ARM GAS  C:\Users\LIGUOH~1\AppData\Local\Temp\ccJhcioF.s 			page 4


 146:Drivers/STM32F1xx_HAL_Driver/Src/stm32f1xx_hal_gpio.c **** /* Private macro -------------------------------------------------------------*/
 147:Drivers/STM32F1xx_HAL_Driver/Src/stm32f1xx_hal_gpio.c **** /* Private variables ---------------------------------------------------------*/
 148:Drivers/STM32F1xx_HAL_Driver/Src/stm32f1xx_hal_gpio.c **** /* Private function prototypes -----------------------------------------------*/
 149:Drivers/STM32F1xx_HAL_Driver/Src/stm32f1xx_hal_gpio.c **** /* Private functions ---------------------------------------------------------*/
 150:Drivers/STM32F1xx_HAL_Driver/Src/stm32f1xx_hal_gpio.c **** /* Exported functions --------------------------------------------------------*/
 151:Drivers/STM32F1xx_HAL_Driver/Src/stm32f1xx_hal_gpio.c **** /** @defgroup GPIO_Exported_Functions GPIO Exported Functions
 152:Drivers/STM32F1xx_HAL_Driver/Src/stm32f1xx_hal_gpio.c ****   * @{
 153:Drivers/STM32F1xx_HAL_Driver/Src/stm32f1xx_hal_gpio.c ****   */
 154:Drivers/STM32F1xx_HAL_Driver/Src/stm32f1xx_hal_gpio.c **** 
 155:Drivers/STM32F1xx_HAL_Driver/Src/stm32f1xx_hal_gpio.c **** /** @defgroup GPIO_Exported_Functions_Group1 Initialization and de-initialization functions
 156:Drivers/STM32F1xx_HAL_Driver/Src/stm32f1xx_hal_gpio.c ****  *  @brief    Initialization and Configuration functions
 157:Drivers/STM32F1xx_HAL_Driver/Src/stm32f1xx_hal_gpio.c ****  *
 158:Drivers/STM32F1xx_HAL_Driver/Src/stm32f1xx_hal_gpio.c **** @verbatim
 159:Drivers/STM32F1xx_HAL_Driver/Src/stm32f1xx_hal_gpio.c ****  ===============================================================================
 160:Drivers/STM32F1xx_HAL_Driver/Src/stm32f1xx_hal_gpio.c ****               ##### Initialization and de-initialization functions #####
 161:Drivers/STM32F1xx_HAL_Driver/Src/stm32f1xx_hal_gpio.c ****  ===============================================================================
 162:Drivers/STM32F1xx_HAL_Driver/Src/stm32f1xx_hal_gpio.c ****   [..]
 163:Drivers/STM32F1xx_HAL_Driver/Src/stm32f1xx_hal_gpio.c ****     This section provides functions allowing to initialize and de-initialize the GPIOs
 164:Drivers/STM32F1xx_HAL_Driver/Src/stm32f1xx_hal_gpio.c ****     to be ready for use.
 165:Drivers/STM32F1xx_HAL_Driver/Src/stm32f1xx_hal_gpio.c **** 
 166:Drivers/STM32F1xx_HAL_Driver/Src/stm32f1xx_hal_gpio.c **** @endverbatim
 167:Drivers/STM32F1xx_HAL_Driver/Src/stm32f1xx_hal_gpio.c ****   * @{
 168:Drivers/STM32F1xx_HAL_Driver/Src/stm32f1xx_hal_gpio.c ****   */
 169:Drivers/STM32F1xx_HAL_Driver/Src/stm32f1xx_hal_gpio.c **** 
 170:Drivers/STM32F1xx_HAL_Driver/Src/stm32f1xx_hal_gpio.c **** 
 171:Drivers/STM32F1xx_HAL_Driver/Src/stm32f1xx_hal_gpio.c **** /**
 172:Drivers/STM32F1xx_HAL_Driver/Src/stm32f1xx_hal_gpio.c ****   * @brief  Initializes the GPIOx peripheral according to the specified parameters in the GPIO_Init
 173:Drivers/STM32F1xx_HAL_Driver/Src/stm32f1xx_hal_gpio.c ****   * @param  GPIOx: where x can be (A..G depending on device used) to select the GPIO peripheral
 174:Drivers/STM32F1xx_HAL_Driver/Src/stm32f1xx_hal_gpio.c ****   * @param  GPIO_Init: pointer to a GPIO_InitTypeDef structure that contains
 175:Drivers/STM32F1xx_HAL_Driver/Src/stm32f1xx_hal_gpio.c ****   *         the configuration information for the specified GPIO peripheral.
 176:Drivers/STM32F1xx_HAL_Driver/Src/stm32f1xx_hal_gpio.c ****   * @retval None
 177:Drivers/STM32F1xx_HAL_Driver/Src/stm32f1xx_hal_gpio.c ****   */
 178:Drivers/STM32F1xx_HAL_Driver/Src/stm32f1xx_hal_gpio.c **** void HAL_GPIO_Init(GPIO_TypeDef  *GPIOx, GPIO_InitTypeDef *GPIO_Init)
 179:Drivers/STM32F1xx_HAL_Driver/Src/stm32f1xx_hal_gpio.c **** {
  28              		.loc 1 179 1 view -0
  29              		.cfi_startproc
  30              		@ args = 0, pretend = 0, frame = 8
  31              		@ frame_needed = 0, uses_anonymous_args = 0
  32              		@ link register save eliminated.
  33              		.loc 1 179 1 is_stmt 0 view .LVU1
  34 0000 F0B4     		push	{r4, r5, r6, r7}
  35              	.LCFI0:
  36              		.cfi_def_cfa_offset 16
  37              		.cfi_offset 4, -16
  38              		.cfi_offset 5, -12
  39              		.cfi_offset 6, -8
  40              		.cfi_offset 7, -4
  41 0002 82B0     		sub	sp, sp, #8
  42              	.LCFI1:
  43              		.cfi_def_cfa_offset 24
 180:Drivers/STM32F1xx_HAL_Driver/Src/stm32f1xx_hal_gpio.c ****   uint32_t position = 0x00u;
  44              		.loc 1 180 3 is_stmt 1 view .LVU2
  45              	.LVL1:
 181:Drivers/STM32F1xx_HAL_Driver/Src/stm32f1xx_hal_gpio.c ****   uint32_t ioposition;
  46              		.loc 1 181 3 view .LVU3
 182:Drivers/STM32F1xx_HAL_Driver/Src/stm32f1xx_hal_gpio.c ****   uint32_t iocurrent;
  47              		.loc 1 182 3 view .LVU4
ARM GAS  C:\Users\LIGUOH~1\AppData\Local\Temp\ccJhcioF.s 			page 5


 183:Drivers/STM32F1xx_HAL_Driver/Src/stm32f1xx_hal_gpio.c ****   uint32_t temp;
  48              		.loc 1 183 3 view .LVU5
 184:Drivers/STM32F1xx_HAL_Driver/Src/stm32f1xx_hal_gpio.c ****   uint32_t config = 0x00u;
  49              		.loc 1 184 3 view .LVU6
 185:Drivers/STM32F1xx_HAL_Driver/Src/stm32f1xx_hal_gpio.c ****   __IO uint32_t *configregister; /* Store the address of CRL or CRH register based on pin number */
  50              		.loc 1 185 3 view .LVU7
 186:Drivers/STM32F1xx_HAL_Driver/Src/stm32f1xx_hal_gpio.c ****   uint32_t registeroffset;       /* offset used during computation of CNF and MODE bits placement i
  51              		.loc 1 186 3 view .LVU8
 187:Drivers/STM32F1xx_HAL_Driver/Src/stm32f1xx_hal_gpio.c **** 
 188:Drivers/STM32F1xx_HAL_Driver/Src/stm32f1xx_hal_gpio.c ****   /* Check the parameters */
 189:Drivers/STM32F1xx_HAL_Driver/Src/stm32f1xx_hal_gpio.c ****   assert_param(IS_GPIO_ALL_INSTANCE(GPIOx));
  52              		.loc 1 189 3 view .LVU9
 190:Drivers/STM32F1xx_HAL_Driver/Src/stm32f1xx_hal_gpio.c ****   assert_param(IS_GPIO_PIN(GPIO_Init->Pin));
  53              		.loc 1 190 3 view .LVU10
 191:Drivers/STM32F1xx_HAL_Driver/Src/stm32f1xx_hal_gpio.c ****   assert_param(IS_GPIO_MODE(GPIO_Init->Mode));
  54              		.loc 1 191 3 view .LVU11
 192:Drivers/STM32F1xx_HAL_Driver/Src/stm32f1xx_hal_gpio.c **** 
 193:Drivers/STM32F1xx_HAL_Driver/Src/stm32f1xx_hal_gpio.c ****   /* Configure the port pins */
 194:Drivers/STM32F1xx_HAL_Driver/Src/stm32f1xx_hal_gpio.c ****   while (((GPIO_Init->Pin) >> position) != 0x00u)
  55              		.loc 1 194 3 view .LVU12
 184:Drivers/STM32F1xx_HAL_Driver/Src/stm32f1xx_hal_gpio.c ****   __IO uint32_t *configregister; /* Store the address of CRL or CRH register based on pin number */
  56              		.loc 1 184 12 is_stmt 0 view .LVU13
  57 0004 0025     		movs	r5, #0
 180:Drivers/STM32F1xx_HAL_Driver/Src/stm32f1xx_hal_gpio.c ****   uint32_t ioposition;
  58              		.loc 1 180 12 view .LVU14
  59 0006 2C46     		mov	r4, r5
  60              		.loc 1 194 9 view .LVU15
  61 0008 A3E0     		b	.L2
  62              	.LVL2:
  63              	.L4:
 195:Drivers/STM32F1xx_HAL_Driver/Src/stm32f1xx_hal_gpio.c ****   {
 196:Drivers/STM32F1xx_HAL_Driver/Src/stm32f1xx_hal_gpio.c ****     /* Get the IO position */
 197:Drivers/STM32F1xx_HAL_Driver/Src/stm32f1xx_hal_gpio.c ****     ioposition = (0x01uL << position);
 198:Drivers/STM32F1xx_HAL_Driver/Src/stm32f1xx_hal_gpio.c **** 
 199:Drivers/STM32F1xx_HAL_Driver/Src/stm32f1xx_hal_gpio.c ****     /* Get the current IO position */
 200:Drivers/STM32F1xx_HAL_Driver/Src/stm32f1xx_hal_gpio.c ****     iocurrent = (uint32_t)(GPIO_Init->Pin) & ioposition;
 201:Drivers/STM32F1xx_HAL_Driver/Src/stm32f1xx_hal_gpio.c **** 
 202:Drivers/STM32F1xx_HAL_Driver/Src/stm32f1xx_hal_gpio.c ****     if (iocurrent == ioposition)
 203:Drivers/STM32F1xx_HAL_Driver/Src/stm32f1xx_hal_gpio.c ****     {
 204:Drivers/STM32F1xx_HAL_Driver/Src/stm32f1xx_hal_gpio.c ****       /* Check the Alternate function parameters */
 205:Drivers/STM32F1xx_HAL_Driver/Src/stm32f1xx_hal_gpio.c ****       assert_param(IS_GPIO_AF_INSTANCE(GPIOx));
 206:Drivers/STM32F1xx_HAL_Driver/Src/stm32f1xx_hal_gpio.c **** 
 207:Drivers/STM32F1xx_HAL_Driver/Src/stm32f1xx_hal_gpio.c ****       /* Based on the required mode, filling config variable with MODEy[1:0] and CNFy[3:2] correspo
 208:Drivers/STM32F1xx_HAL_Driver/Src/stm32f1xx_hal_gpio.c ****       switch (GPIO_Init->Mode)
  64              		.loc 1 208 7 view .LVU16
  65 000a 7F4F     		ldr	r7, .L40
  66 000c BB42     		cmp	r3, r7
  67 000e 10D0     		beq	.L12
  68 0010 07D9     		bls	.L35
  69 0012 7E4F     		ldr	r7, .L40+4
  70 0014 BB42     		cmp	r3, r7
  71 0016 0CD0     		beq	.L12
  72 0018 07F58037 		add	r7, r7, #65536
  73 001c BB42     		cmp	r3, r7
  74 001e 08D0     		beq	.L12
  75 0020 13E0     		b	.L9
  76              	.L35:
ARM GAS  C:\Users\LIGUOH~1\AppData\Local\Temp\ccJhcioF.s 			page 6


  77 0022 A7F58017 		sub	r7, r7, #1048576
  78 0026 BB42     		cmp	r3, r7
  79 0028 03D0     		beq	.L12
  80 002a 07F57027 		add	r7, r7, #983040
  81 002e BB42     		cmp	r3, r7
  82 0030 07D1     		bne	.L36
  83              	.L12:
 209:Drivers/STM32F1xx_HAL_Driver/Src/stm32f1xx_hal_gpio.c ****       {
 210:Drivers/STM32F1xx_HAL_Driver/Src/stm32f1xx_hal_gpio.c ****         /* If we are configuring the pin in OUTPUT push-pull mode */
 211:Drivers/STM32F1xx_HAL_Driver/Src/stm32f1xx_hal_gpio.c ****         case GPIO_MODE_OUTPUT_PP:
 212:Drivers/STM32F1xx_HAL_Driver/Src/stm32f1xx_hal_gpio.c ****           /* Check the GPIO speed parameter */
 213:Drivers/STM32F1xx_HAL_Driver/Src/stm32f1xx_hal_gpio.c ****           assert_param(IS_GPIO_SPEED(GPIO_Init->Speed));
 214:Drivers/STM32F1xx_HAL_Driver/Src/stm32f1xx_hal_gpio.c ****           config = GPIO_Init->Speed + GPIO_CR_CNF_GP_OUTPUT_PP;
 215:Drivers/STM32F1xx_HAL_Driver/Src/stm32f1xx_hal_gpio.c ****           break;
 216:Drivers/STM32F1xx_HAL_Driver/Src/stm32f1xx_hal_gpio.c **** 
 217:Drivers/STM32F1xx_HAL_Driver/Src/stm32f1xx_hal_gpio.c ****         /* If we are configuring the pin in OUTPUT open-drain mode */
 218:Drivers/STM32F1xx_HAL_Driver/Src/stm32f1xx_hal_gpio.c ****         case GPIO_MODE_OUTPUT_OD:
 219:Drivers/STM32F1xx_HAL_Driver/Src/stm32f1xx_hal_gpio.c ****           /* Check the GPIO speed parameter */
 220:Drivers/STM32F1xx_HAL_Driver/Src/stm32f1xx_hal_gpio.c ****           assert_param(IS_GPIO_SPEED(GPIO_Init->Speed));
 221:Drivers/STM32F1xx_HAL_Driver/Src/stm32f1xx_hal_gpio.c ****           config = GPIO_Init->Speed + GPIO_CR_CNF_GP_OUTPUT_OD;
 222:Drivers/STM32F1xx_HAL_Driver/Src/stm32f1xx_hal_gpio.c ****           break;
 223:Drivers/STM32F1xx_HAL_Driver/Src/stm32f1xx_hal_gpio.c **** 
 224:Drivers/STM32F1xx_HAL_Driver/Src/stm32f1xx_hal_gpio.c ****         /* If we are configuring the pin in ALTERNATE FUNCTION push-pull mode */
 225:Drivers/STM32F1xx_HAL_Driver/Src/stm32f1xx_hal_gpio.c ****         case GPIO_MODE_AF_PP:
 226:Drivers/STM32F1xx_HAL_Driver/Src/stm32f1xx_hal_gpio.c ****           /* Check the GPIO speed parameter */
 227:Drivers/STM32F1xx_HAL_Driver/Src/stm32f1xx_hal_gpio.c ****           assert_param(IS_GPIO_SPEED(GPIO_Init->Speed));
 228:Drivers/STM32F1xx_HAL_Driver/Src/stm32f1xx_hal_gpio.c ****           config = GPIO_Init->Speed + GPIO_CR_CNF_AF_OUTPUT_PP;
 229:Drivers/STM32F1xx_HAL_Driver/Src/stm32f1xx_hal_gpio.c ****           break;
 230:Drivers/STM32F1xx_HAL_Driver/Src/stm32f1xx_hal_gpio.c **** 
 231:Drivers/STM32F1xx_HAL_Driver/Src/stm32f1xx_hal_gpio.c ****         /* If we are configuring the pin in ALTERNATE FUNCTION open-drain mode */
 232:Drivers/STM32F1xx_HAL_Driver/Src/stm32f1xx_hal_gpio.c ****         case GPIO_MODE_AF_OD:
 233:Drivers/STM32F1xx_HAL_Driver/Src/stm32f1xx_hal_gpio.c ****           /* Check the GPIO speed parameter */
 234:Drivers/STM32F1xx_HAL_Driver/Src/stm32f1xx_hal_gpio.c ****           assert_param(IS_GPIO_SPEED(GPIO_Init->Speed));
 235:Drivers/STM32F1xx_HAL_Driver/Src/stm32f1xx_hal_gpio.c ****           config = GPIO_Init->Speed + GPIO_CR_CNF_AF_OUTPUT_OD;
 236:Drivers/STM32F1xx_HAL_Driver/Src/stm32f1xx_hal_gpio.c ****           break;
 237:Drivers/STM32F1xx_HAL_Driver/Src/stm32f1xx_hal_gpio.c **** 
 238:Drivers/STM32F1xx_HAL_Driver/Src/stm32f1xx_hal_gpio.c ****         /* If we are configuring the pin in INPUT (also applicable to EVENT and IT mode) */
 239:Drivers/STM32F1xx_HAL_Driver/Src/stm32f1xx_hal_gpio.c ****         case GPIO_MODE_INPUT:
 240:Drivers/STM32F1xx_HAL_Driver/Src/stm32f1xx_hal_gpio.c ****         case GPIO_MODE_IT_RISING:
 241:Drivers/STM32F1xx_HAL_Driver/Src/stm32f1xx_hal_gpio.c ****         case GPIO_MODE_IT_FALLING:
 242:Drivers/STM32F1xx_HAL_Driver/Src/stm32f1xx_hal_gpio.c ****         case GPIO_MODE_IT_RISING_FALLING:
 243:Drivers/STM32F1xx_HAL_Driver/Src/stm32f1xx_hal_gpio.c ****         case GPIO_MODE_EVT_RISING:
 244:Drivers/STM32F1xx_HAL_Driver/Src/stm32f1xx_hal_gpio.c ****         case GPIO_MODE_EVT_FALLING:
 245:Drivers/STM32F1xx_HAL_Driver/Src/stm32f1xx_hal_gpio.c ****         case GPIO_MODE_EVT_RISING_FALLING:
 246:Drivers/STM32F1xx_HAL_Driver/Src/stm32f1xx_hal_gpio.c ****           /* Check the GPIO pull parameter */
 247:Drivers/STM32F1xx_HAL_Driver/Src/stm32f1xx_hal_gpio.c ****           assert_param(IS_GPIO_PULL(GPIO_Init->Pull));
  84              		.loc 1 247 11 is_stmt 1 view .LVU17
 248:Drivers/STM32F1xx_HAL_Driver/Src/stm32f1xx_hal_gpio.c ****           if (GPIO_Init->Pull == GPIO_NOPULL)
  85              		.loc 1 248 11 view .LVU18
  86              		.loc 1 248 24 is_stmt 0 view .LVU19
  87 0032 8B68     		ldr	r3, [r1, #8]
  88              		.loc 1 248 14 view .LVU20
  89 0034 002B     		cmp	r3, #0
  90 0036 58D0     		beq	.L29
 249:Drivers/STM32F1xx_HAL_Driver/Src/stm32f1xx_hal_gpio.c ****           {
 250:Drivers/STM32F1xx_HAL_Driver/Src/stm32f1xx_hal_gpio.c ****             config = GPIO_CR_MODE_INPUT + GPIO_CR_CNF_INPUT_FLOATING;
 251:Drivers/STM32F1xx_HAL_Driver/Src/stm32f1xx_hal_gpio.c ****           }
ARM GAS  C:\Users\LIGUOH~1\AppData\Local\Temp\ccJhcioF.s 			page 7


 252:Drivers/STM32F1xx_HAL_Driver/Src/stm32f1xx_hal_gpio.c ****           else if (GPIO_Init->Pull == GPIO_PULLUP)
  91              		.loc 1 252 16 is_stmt 1 view .LVU21
  92              		.loc 1 252 19 is_stmt 0 view .LVU22
  93 0038 012B     		cmp	r3, #1
  94 003a 51D0     		beq	.L37
 253:Drivers/STM32F1xx_HAL_Driver/Src/stm32f1xx_hal_gpio.c ****           {
 254:Drivers/STM32F1xx_HAL_Driver/Src/stm32f1xx_hal_gpio.c ****             config = GPIO_CR_MODE_INPUT + GPIO_CR_CNF_INPUT_PU_PD;
 255:Drivers/STM32F1xx_HAL_Driver/Src/stm32f1xx_hal_gpio.c **** 
 256:Drivers/STM32F1xx_HAL_Driver/Src/stm32f1xx_hal_gpio.c ****             /* Set the corresponding ODR bit */
 257:Drivers/STM32F1xx_HAL_Driver/Src/stm32f1xx_hal_gpio.c ****             GPIOx->BSRR = ioposition;
 258:Drivers/STM32F1xx_HAL_Driver/Src/stm32f1xx_hal_gpio.c ****           }
 259:Drivers/STM32F1xx_HAL_Driver/Src/stm32f1xx_hal_gpio.c ****           else /* GPIO_PULLDOWN */
 260:Drivers/STM32F1xx_HAL_Driver/Src/stm32f1xx_hal_gpio.c ****           {
 261:Drivers/STM32F1xx_HAL_Driver/Src/stm32f1xx_hal_gpio.c ****             config = GPIO_CR_MODE_INPUT + GPIO_CR_CNF_INPUT_PU_PD;
  95              		.loc 1 261 13 is_stmt 1 view .LVU23
  96              	.LVL3:
 262:Drivers/STM32F1xx_HAL_Driver/Src/stm32f1xx_hal_gpio.c **** 
 263:Drivers/STM32F1xx_HAL_Driver/Src/stm32f1xx_hal_gpio.c ****             /* Reset the corresponding ODR bit */
 264:Drivers/STM32F1xx_HAL_Driver/Src/stm32f1xx_hal_gpio.c ****             GPIOx->BRR = ioposition;
  97              		.loc 1 264 13 view .LVU24
  98              		.loc 1 264 24 is_stmt 0 view .LVU25
  99 003c 4261     		str	r2, [r0, #20]
 261:Drivers/STM32F1xx_HAL_Driver/Src/stm32f1xx_hal_gpio.c **** 
 100              		.loc 1 261 20 view .LVU26
 101 003e 0825     		movs	r5, #8
 102 0040 03E0     		b	.L9
 103              	.LVL4:
 104              	.L36:
 208:Drivers/STM32F1xx_HAL_Driver/Src/stm32f1xx_hal_gpio.c ****       {
 105              		.loc 1 208 7 view .LVU27
 106 0042 A7F58017 		sub	r7, r7, #1048576
 107 0046 BB42     		cmp	r3, r7
 108 0048 F3D0     		beq	.L12
 109              	.LVL5:
 110              	.L9:
 265:Drivers/STM32F1xx_HAL_Driver/Src/stm32f1xx_hal_gpio.c ****           }
 266:Drivers/STM32F1xx_HAL_Driver/Src/stm32f1xx_hal_gpio.c ****           break;
 267:Drivers/STM32F1xx_HAL_Driver/Src/stm32f1xx_hal_gpio.c **** 
 268:Drivers/STM32F1xx_HAL_Driver/Src/stm32f1xx_hal_gpio.c ****         /* If we are configuring the pin in INPUT analog mode */
 269:Drivers/STM32F1xx_HAL_Driver/Src/stm32f1xx_hal_gpio.c ****         case GPIO_MODE_ANALOG:
 270:Drivers/STM32F1xx_HAL_Driver/Src/stm32f1xx_hal_gpio.c ****           config = GPIO_CR_MODE_INPUT + GPIO_CR_CNF_ANALOG;
 271:Drivers/STM32F1xx_HAL_Driver/Src/stm32f1xx_hal_gpio.c ****           break;
 272:Drivers/STM32F1xx_HAL_Driver/Src/stm32f1xx_hal_gpio.c **** 
 273:Drivers/STM32F1xx_HAL_Driver/Src/stm32f1xx_hal_gpio.c ****         /* Parameters are checked with assert_param */
 274:Drivers/STM32F1xx_HAL_Driver/Src/stm32f1xx_hal_gpio.c ****         default:
 275:Drivers/STM32F1xx_HAL_Driver/Src/stm32f1xx_hal_gpio.c ****           break;
 276:Drivers/STM32F1xx_HAL_Driver/Src/stm32f1xx_hal_gpio.c ****       }
 277:Drivers/STM32F1xx_HAL_Driver/Src/stm32f1xx_hal_gpio.c **** 
 278:Drivers/STM32F1xx_HAL_Driver/Src/stm32f1xx_hal_gpio.c ****       /* Check if the current bit belongs to first half or last half of the pin count number
 279:Drivers/STM32F1xx_HAL_Driver/Src/stm32f1xx_hal_gpio.c ****        in order to address CRH or CRL register*/
 280:Drivers/STM32F1xx_HAL_Driver/Src/stm32f1xx_hal_gpio.c ****       configregister = (iocurrent < GPIO_PIN_8) ? &GPIOx->CRL     : &GPIOx->CRH;
 111              		.loc 1 280 7 is_stmt 1 view .LVU28
 112              		.loc 1 280 67 is_stmt 0 view .LVU29
 113 004a FF2E     		cmp	r6, #255
 114 004c 4FD8     		bhi	.L15
 115              		.loc 1 280 67 discriminator 1 view .LVU30
 116 004e 8446     		mov	ip, r0
ARM GAS  C:\Users\LIGUOH~1\AppData\Local\Temp\ccJhcioF.s 			page 8


 117              	.L16:
 118              	.LVL6:
 281:Drivers/STM32F1xx_HAL_Driver/Src/stm32f1xx_hal_gpio.c ****       registeroffset = (iocurrent < GPIO_PIN_8) ? (position << 2u) : ((position - 8u) << 2u);
 119              		.loc 1 281 7 is_stmt 1 discriminator 4 view .LVU31
 120              		.loc 1 281 68 is_stmt 0 discriminator 4 view .LVU32
 121 0050 FF2E     		cmp	r6, #255
 122 0052 4FD8     		bhi	.L17
 123              		.loc 1 281 68 discriminator 1 view .LVU33
 124 0054 A200     		lsls	r2, r4, #2
 125              	.LVL7:
 126              	.L18:
 282:Drivers/STM32F1xx_HAL_Driver/Src/stm32f1xx_hal_gpio.c **** 
 283:Drivers/STM32F1xx_HAL_Driver/Src/stm32f1xx_hal_gpio.c ****       /* Apply the new configuration of the pin to the register */
 284:Drivers/STM32F1xx_HAL_Driver/Src/stm32f1xx_hal_gpio.c ****       MODIFY_REG((*configregister), ((GPIO_CRL_MODE0 | GPIO_CRL_CNF0) << registeroffset), (config <
 127              		.loc 1 284 7 is_stmt 1 discriminator 4 view .LVU34
 128 0056 DCF80030 		ldr	r3, [ip]
 129 005a 0F27     		movs	r7, #15
 130 005c 9740     		lsls	r7, r7, r2
 131 005e 23EA0703 		bic	r3, r3, r7
 132 0062 05FA02F2 		lsl	r2, r5, r2
 133              	.LVL8:
 134              		.loc 1 284 7 is_stmt 0 discriminator 4 view .LVU35
 135 0066 1343     		orrs	r3, r3, r2
 136 0068 CCF80030 		str	r3, [ip]
 285:Drivers/STM32F1xx_HAL_Driver/Src/stm32f1xx_hal_gpio.c **** 
 286:Drivers/STM32F1xx_HAL_Driver/Src/stm32f1xx_hal_gpio.c ****       /*--------------------- EXTI Mode Configuration ------------------------*/
 287:Drivers/STM32F1xx_HAL_Driver/Src/stm32f1xx_hal_gpio.c ****       /* Configure the External Interrupt or event for the current IO */
 288:Drivers/STM32F1xx_HAL_Driver/Src/stm32f1xx_hal_gpio.c ****       if ((GPIO_Init->Mode & EXTI_MODE) == EXTI_MODE)
 137              		.loc 1 288 7 is_stmt 1 discriminator 4 view .LVU36
 138              		.loc 1 288 21 is_stmt 0 discriminator 4 view .LVU37
 139 006c 4B68     		ldr	r3, [r1, #4]
 140              		.loc 1 288 10 discriminator 4 view .LVU38
 141 006e 13F0805F 		tst	r3, #268435456
 142 0072 6DD0     		beq	.L3
 289:Drivers/STM32F1xx_HAL_Driver/Src/stm32f1xx_hal_gpio.c ****       {
 290:Drivers/STM32F1xx_HAL_Driver/Src/stm32f1xx_hal_gpio.c ****         /* Enable AFIO Clock */
 291:Drivers/STM32F1xx_HAL_Driver/Src/stm32f1xx_hal_gpio.c ****         __HAL_RCC_AFIO_CLK_ENABLE();
 143              		.loc 1 291 9 is_stmt 1 view .LVU39
 144              	.LBB2:
 145              		.loc 1 291 9 view .LVU40
 146              		.loc 1 291 9 view .LVU41
 147 0074 664B     		ldr	r3, .L40+8
 148 0076 9A69     		ldr	r2, [r3, #24]
 149 0078 42F00102 		orr	r2, r2, #1
 150 007c 9A61     		str	r2, [r3, #24]
 151              		.loc 1 291 9 view .LVU42
 152 007e 9B69     		ldr	r3, [r3, #24]
 153 0080 03F00103 		and	r3, r3, #1
 154 0084 0193     		str	r3, [sp, #4]
 155              		.loc 1 291 9 view .LVU43
 156 0086 019B     		ldr	r3, [sp, #4]
 157              	.LBE2:
 158              		.loc 1 291 9 view .LVU44
 292:Drivers/STM32F1xx_HAL_Driver/Src/stm32f1xx_hal_gpio.c ****         temp = AFIO->EXTICR[position >> 2u];
 159              		.loc 1 292 9 view .LVU45
 160              		.loc 1 292 38 is_stmt 0 view .LVU46
 161 0088 A208     		lsrs	r2, r4, #2
ARM GAS  C:\Users\LIGUOH~1\AppData\Local\Temp\ccJhcioF.s 			page 9


 162              		.loc 1 292 14 view .LVU47
 163 008a 971C     		adds	r7, r2, #2
 164 008c 614B     		ldr	r3, .L40+12
 165 008e 53F82730 		ldr	r3, [r3, r7, lsl #2]
 166              	.LVL9:
 293:Drivers/STM32F1xx_HAL_Driver/Src/stm32f1xx_hal_gpio.c ****         CLEAR_BIT(temp, (0x0Fu) << (4u * (position & 0x03u)));
 167              		.loc 1 293 9 is_stmt 1 view .LVU48
 168 0092 04F00307 		and	r7, r4, #3
 169 0096 BF00     		lsls	r7, r7, #2
 170 0098 4FF00F0C 		mov	ip, #15
 171              	.LVL10:
 172              		.loc 1 293 9 is_stmt 0 view .LVU49
 173 009c 0CFA07FC 		lsl	ip, ip, r7
 174 00a0 23EA0C0C 		bic	ip, r3, ip
 175              	.LVL11:
 294:Drivers/STM32F1xx_HAL_Driver/Src/stm32f1xx_hal_gpio.c ****         SET_BIT(temp, (GPIO_GET_INDEX(GPIOx)) << (4u * (position & 0x03u)));
 176              		.loc 1 294 9 is_stmt 1 view .LVU50
 177 00a4 5C4B     		ldr	r3, .L40+16
 178 00a6 9842     		cmp	r0, r3
 179 00a8 2AD0     		beq	.L30
 180              		.loc 1 294 9 is_stmt 0 discriminator 1 view .LVU51
 181 00aa 03F58063 		add	r3, r3, #1024
 182 00ae 9842     		cmp	r0, r3
 183 00b0 00F08A80 		beq	.L31
 184              		.loc 1 294 9 discriminator 3 view .LVU52
 185 00b4 03F58063 		add	r3, r3, #1024
 186 00b8 9842     		cmp	r0, r3
 187 00ba 00F08780 		beq	.L32
 188              		.loc 1 294 9 discriminator 5 view .LVU53
 189 00be 03F58063 		add	r3, r3, #1024
 190 00c2 9842     		cmp	r0, r3
 191 00c4 1AD0     		beq	.L38
 192              		.loc 1 294 9 view .LVU54
 193 00c6 0423     		movs	r3, #4
 194 00c8 1BE0     		b	.L19
 195              	.LVL12:
 196              	.L11:
 213:Drivers/STM32F1xx_HAL_Driver/Src/stm32f1xx_hal_gpio.c ****           config = GPIO_Init->Speed + GPIO_CR_CNF_GP_OUTPUT_PP;
 197              		.loc 1 213 11 is_stmt 1 view .LVU55
 214:Drivers/STM32F1xx_HAL_Driver/Src/stm32f1xx_hal_gpio.c ****           break;
 198              		.loc 1 214 11 view .LVU56
 214:Drivers/STM32F1xx_HAL_Driver/Src/stm32f1xx_hal_gpio.c ****           break;
 199              		.loc 1 214 18 is_stmt 0 view .LVU57
 200 00ca CD68     		ldr	r5, [r1, #12]
 201              	.LVL13:
 215:Drivers/STM32F1xx_HAL_Driver/Src/stm32f1xx_hal_gpio.c **** 
 202              		.loc 1 215 11 is_stmt 1 view .LVU58
 203 00cc BDE7     		b	.L9
 204              	.L8:
 220:Drivers/STM32F1xx_HAL_Driver/Src/stm32f1xx_hal_gpio.c ****           config = GPIO_Init->Speed + GPIO_CR_CNF_GP_OUTPUT_OD;
 205              		.loc 1 220 11 view .LVU59
 221:Drivers/STM32F1xx_HAL_Driver/Src/stm32f1xx_hal_gpio.c ****           break;
 206              		.loc 1 221 11 view .LVU60
 221:Drivers/STM32F1xx_HAL_Driver/Src/stm32f1xx_hal_gpio.c ****           break;
 207              		.loc 1 221 29 is_stmt 0 view .LVU61
 208 00ce CD68     		ldr	r5, [r1, #12]
 209              	.LVL14:
ARM GAS  C:\Users\LIGUOH~1\AppData\Local\Temp\ccJhcioF.s 			page 10


 221:Drivers/STM32F1xx_HAL_Driver/Src/stm32f1xx_hal_gpio.c ****           break;
 210              		.loc 1 221 18 view .LVU62
 211 00d0 0435     		adds	r5, r5, #4
 212              	.LVL15:
 222:Drivers/STM32F1xx_HAL_Driver/Src/stm32f1xx_hal_gpio.c **** 
 213              		.loc 1 222 11 is_stmt 1 view .LVU63
 214 00d2 BAE7     		b	.L9
 215              	.L10:
 227:Drivers/STM32F1xx_HAL_Driver/Src/stm32f1xx_hal_gpio.c ****           config = GPIO_Init->Speed + GPIO_CR_CNF_AF_OUTPUT_PP;
 216              		.loc 1 227 11 view .LVU64
 228:Drivers/STM32F1xx_HAL_Driver/Src/stm32f1xx_hal_gpio.c ****           break;
 217              		.loc 1 228 11 view .LVU65
 228:Drivers/STM32F1xx_HAL_Driver/Src/stm32f1xx_hal_gpio.c ****           break;
 218              		.loc 1 228 29 is_stmt 0 view .LVU66
 219 00d4 CD68     		ldr	r5, [r1, #12]
 220              	.LVL16:
 228:Drivers/STM32F1xx_HAL_Driver/Src/stm32f1xx_hal_gpio.c ****           break;
 221              		.loc 1 228 18 view .LVU67
 222 00d6 0835     		adds	r5, r5, #8
 223              	.LVL17:
 229:Drivers/STM32F1xx_HAL_Driver/Src/stm32f1xx_hal_gpio.c **** 
 224              		.loc 1 229 11 is_stmt 1 view .LVU68
 225 00d8 B7E7     		b	.L9
 226              	.L6:
 234:Drivers/STM32F1xx_HAL_Driver/Src/stm32f1xx_hal_gpio.c ****           config = GPIO_Init->Speed + GPIO_CR_CNF_AF_OUTPUT_OD;
 227              		.loc 1 234 11 view .LVU69
 235:Drivers/STM32F1xx_HAL_Driver/Src/stm32f1xx_hal_gpio.c ****           break;
 228              		.loc 1 235 11 view .LVU70
 235:Drivers/STM32F1xx_HAL_Driver/Src/stm32f1xx_hal_gpio.c ****           break;
 229              		.loc 1 235 29 is_stmt 0 view .LVU71
 230 00da CD68     		ldr	r5, [r1, #12]
 231              	.LVL18:
 235:Drivers/STM32F1xx_HAL_Driver/Src/stm32f1xx_hal_gpio.c ****           break;
 232              		.loc 1 235 18 view .LVU72
 233 00dc 0C35     		adds	r5, r5, #12
 234              	.LVL19:
 236:Drivers/STM32F1xx_HAL_Driver/Src/stm32f1xx_hal_gpio.c **** 
 235              		.loc 1 236 11 is_stmt 1 view .LVU73
 236 00de B4E7     		b	.L9
 237              	.L37:
 254:Drivers/STM32F1xx_HAL_Driver/Src/stm32f1xx_hal_gpio.c **** 
 238              		.loc 1 254 13 view .LVU74
 239              	.LVL20:
 257:Drivers/STM32F1xx_HAL_Driver/Src/stm32f1xx_hal_gpio.c ****           }
 240              		.loc 1 257 13 view .LVU75
 257:Drivers/STM32F1xx_HAL_Driver/Src/stm32f1xx_hal_gpio.c ****           }
 241              		.loc 1 257 25 is_stmt 0 view .LVU76
 242 00e0 0261     		str	r2, [r0, #16]
 254:Drivers/STM32F1xx_HAL_Driver/Src/stm32f1xx_hal_gpio.c **** 
 243              		.loc 1 254 20 view .LVU77
 244 00e2 0825     		movs	r5, #8
 245 00e4 B1E7     		b	.L9
 246              	.LVL21:
 247              	.L28:
 270:Drivers/STM32F1xx_HAL_Driver/Src/stm32f1xx_hal_gpio.c ****           break;
 248              		.loc 1 270 18 view .LVU78
 249 00e6 0025     		movs	r5, #0
ARM GAS  C:\Users\LIGUOH~1\AppData\Local\Temp\ccJhcioF.s 			page 11


 250              	.LVL22:
 270:Drivers/STM32F1xx_HAL_Driver/Src/stm32f1xx_hal_gpio.c ****           break;
 251              		.loc 1 270 18 view .LVU79
 252 00e8 AFE7     		b	.L9
 253              	.LVL23:
 254              	.L29:
 250:Drivers/STM32F1xx_HAL_Driver/Src/stm32f1xx_hal_gpio.c ****           }
 255              		.loc 1 250 20 view .LVU80
 256 00ea 0425     		movs	r5, #4
 257              	.LVL24:
 250:Drivers/STM32F1xx_HAL_Driver/Src/stm32f1xx_hal_gpio.c ****           }
 258              		.loc 1 250 20 view .LVU81
 259 00ec ADE7     		b	.L9
 260              	.LVL25:
 261              	.L15:
 280:Drivers/STM32F1xx_HAL_Driver/Src/stm32f1xx_hal_gpio.c ****       registeroffset = (iocurrent < GPIO_PIN_8) ? (position << 2u) : ((position - 8u) << 2u);
 262              		.loc 1 280 67 discriminator 2 view .LVU82
 263 00ee 00F1040C 		add	ip, r0, #4
 264 00f2 ADE7     		b	.L16
 265              	.LVL26:
 266              	.L17:
 281:Drivers/STM32F1xx_HAL_Driver/Src/stm32f1xx_hal_gpio.c **** 
 267              		.loc 1 281 81 discriminator 2 view .LVU83
 268 00f4 A4F10802 		sub	r2, r4, #8
 269              	.LVL27:
 281:Drivers/STM32F1xx_HAL_Driver/Src/stm32f1xx_hal_gpio.c **** 
 270              		.loc 1 281 68 discriminator 2 view .LVU84
 271 00f8 9200     		lsls	r2, r2, #2
 272 00fa ACE7     		b	.L18
 273              	.LVL28:
 274              	.L38:
 275              		.loc 1 294 9 view .LVU85
 276 00fc 0323     		movs	r3, #3
 277 00fe 00E0     		b	.L19
 278              	.L30:
 279 0100 0023     		movs	r3, #0
 280              	.L19:
 281              		.loc 1 294 9 discriminator 16 view .LVU86
 282 0102 BB40     		lsls	r3, r3, r7
 283 0104 43EA0C03 		orr	r3, r3, ip
 284              	.LVL29:
 295:Drivers/STM32F1xx_HAL_Driver/Src/stm32f1xx_hal_gpio.c ****         AFIO->EXTICR[position >> 2u] = temp;
 285              		.loc 1 295 9 is_stmt 1 discriminator 16 view .LVU87
 286              		.loc 1 295 38 is_stmt 0 discriminator 16 view .LVU88
 287 0108 0232     		adds	r2, r2, #2
 288 010a 424F     		ldr	r7, .L40+12
 289 010c 47F82230 		str	r3, [r7, r2, lsl #2]
 296:Drivers/STM32F1xx_HAL_Driver/Src/stm32f1xx_hal_gpio.c **** 
 297:Drivers/STM32F1xx_HAL_Driver/Src/stm32f1xx_hal_gpio.c **** 
 298:Drivers/STM32F1xx_HAL_Driver/Src/stm32f1xx_hal_gpio.c ****         /* Configure the interrupt mask */
 299:Drivers/STM32F1xx_HAL_Driver/Src/stm32f1xx_hal_gpio.c ****         if ((GPIO_Init->Mode & GPIO_MODE_IT) == GPIO_MODE_IT)
 290              		.loc 1 299 9 is_stmt 1 discriminator 16 view .LVU89
 291              		.loc 1 299 23 is_stmt 0 discriminator 16 view .LVU90
 292 0110 4B68     		ldr	r3, [r1, #4]
 293              	.LVL30:
 294              		.loc 1 299 12 discriminator 16 view .LVU91
 295 0112 13F4803F 		tst	r3, #65536
ARM GAS  C:\Users\LIGUOH~1\AppData\Local\Temp\ccJhcioF.s 			page 12


 296 0116 5BD0     		beq	.L20
 300:Drivers/STM32F1xx_HAL_Driver/Src/stm32f1xx_hal_gpio.c ****         {
 301:Drivers/STM32F1xx_HAL_Driver/Src/stm32f1xx_hal_gpio.c ****           SET_BIT(EXTI->IMR, iocurrent);
 297              		.loc 1 301 11 is_stmt 1 view .LVU92
 298 0118 404A     		ldr	r2, .L40+20
 299              	.LVL31:
 300              		.loc 1 301 11 is_stmt 0 view .LVU93
 301 011a 1368     		ldr	r3, [r2]
 302 011c 3343     		orrs	r3, r3, r6
 303 011e 1360     		str	r3, [r2]
 304              	.LVL32:
 305              	.L21:
 302:Drivers/STM32F1xx_HAL_Driver/Src/stm32f1xx_hal_gpio.c ****         }
 303:Drivers/STM32F1xx_HAL_Driver/Src/stm32f1xx_hal_gpio.c ****         else
 304:Drivers/STM32F1xx_HAL_Driver/Src/stm32f1xx_hal_gpio.c ****         {
 305:Drivers/STM32F1xx_HAL_Driver/Src/stm32f1xx_hal_gpio.c ****           CLEAR_BIT(EXTI->IMR, iocurrent);
 306:Drivers/STM32F1xx_HAL_Driver/Src/stm32f1xx_hal_gpio.c ****         }
 307:Drivers/STM32F1xx_HAL_Driver/Src/stm32f1xx_hal_gpio.c **** 
 308:Drivers/STM32F1xx_HAL_Driver/Src/stm32f1xx_hal_gpio.c ****         /* Configure the event mask */
 309:Drivers/STM32F1xx_HAL_Driver/Src/stm32f1xx_hal_gpio.c ****         if ((GPIO_Init->Mode & GPIO_MODE_EVT) == GPIO_MODE_EVT)
 306              		.loc 1 309 9 is_stmt 1 view .LVU94
 307              		.loc 1 309 23 is_stmt 0 view .LVU95
 308 0120 4B68     		ldr	r3, [r1, #4]
 309              		.loc 1 309 12 view .LVU96
 310 0122 13F4003F 		tst	r3, #131072
 311 0126 59D0     		beq	.L22
 310:Drivers/STM32F1xx_HAL_Driver/Src/stm32f1xx_hal_gpio.c ****         {
 311:Drivers/STM32F1xx_HAL_Driver/Src/stm32f1xx_hal_gpio.c ****           SET_BIT(EXTI->EMR, iocurrent);
 312              		.loc 1 311 11 is_stmt 1 view .LVU97
 313 0128 3C4A     		ldr	r2, .L40+20
 314 012a 5368     		ldr	r3, [r2, #4]
 315 012c 3343     		orrs	r3, r3, r6
 316 012e 5360     		str	r3, [r2, #4]
 317              	.L23:
 312:Drivers/STM32F1xx_HAL_Driver/Src/stm32f1xx_hal_gpio.c ****         }
 313:Drivers/STM32F1xx_HAL_Driver/Src/stm32f1xx_hal_gpio.c ****         else
 314:Drivers/STM32F1xx_HAL_Driver/Src/stm32f1xx_hal_gpio.c ****         {
 315:Drivers/STM32F1xx_HAL_Driver/Src/stm32f1xx_hal_gpio.c ****           CLEAR_BIT(EXTI->EMR, iocurrent);
 316:Drivers/STM32F1xx_HAL_Driver/Src/stm32f1xx_hal_gpio.c ****         }
 317:Drivers/STM32F1xx_HAL_Driver/Src/stm32f1xx_hal_gpio.c **** 
 318:Drivers/STM32F1xx_HAL_Driver/Src/stm32f1xx_hal_gpio.c ****         /* Enable or disable the rising trigger */
 319:Drivers/STM32F1xx_HAL_Driver/Src/stm32f1xx_hal_gpio.c ****         if ((GPIO_Init->Mode & RISING_EDGE) == RISING_EDGE)
 318              		.loc 1 319 9 view .LVU98
 319              		.loc 1 319 23 is_stmt 0 view .LVU99
 320 0130 4B68     		ldr	r3, [r1, #4]
 321              		.loc 1 319 12 view .LVU100
 322 0132 13F4801F 		tst	r3, #1048576
 323 0136 57D0     		beq	.L24
 320:Drivers/STM32F1xx_HAL_Driver/Src/stm32f1xx_hal_gpio.c ****         {
 321:Drivers/STM32F1xx_HAL_Driver/Src/stm32f1xx_hal_gpio.c ****           SET_BIT(EXTI->RTSR, iocurrent);
 324              		.loc 1 321 11 is_stmt 1 view .LVU101
 325 0138 384A     		ldr	r2, .L40+20
 326 013a 9368     		ldr	r3, [r2, #8]
 327 013c 3343     		orrs	r3, r3, r6
 328 013e 9360     		str	r3, [r2, #8]
 329              	.L25:
 322:Drivers/STM32F1xx_HAL_Driver/Src/stm32f1xx_hal_gpio.c ****         }
ARM GAS  C:\Users\LIGUOH~1\AppData\Local\Temp\ccJhcioF.s 			page 13


 323:Drivers/STM32F1xx_HAL_Driver/Src/stm32f1xx_hal_gpio.c ****         else
 324:Drivers/STM32F1xx_HAL_Driver/Src/stm32f1xx_hal_gpio.c ****         {
 325:Drivers/STM32F1xx_HAL_Driver/Src/stm32f1xx_hal_gpio.c ****           CLEAR_BIT(EXTI->RTSR, iocurrent);
 326:Drivers/STM32F1xx_HAL_Driver/Src/stm32f1xx_hal_gpio.c ****         }
 327:Drivers/STM32F1xx_HAL_Driver/Src/stm32f1xx_hal_gpio.c **** 
 328:Drivers/STM32F1xx_HAL_Driver/Src/stm32f1xx_hal_gpio.c ****         /* Enable or disable the falling trigger */
 329:Drivers/STM32F1xx_HAL_Driver/Src/stm32f1xx_hal_gpio.c ****         if ((GPIO_Init->Mode & FALLING_EDGE) == FALLING_EDGE)
 330              		.loc 1 329 9 view .LVU102
 331              		.loc 1 329 23 is_stmt 0 view .LVU103
 332 0140 4B68     		ldr	r3, [r1, #4]
 333              		.loc 1 329 12 view .LVU104
 334 0142 13F4001F 		tst	r3, #2097152
 335 0146 55D0     		beq	.L26
 330:Drivers/STM32F1xx_HAL_Driver/Src/stm32f1xx_hal_gpio.c ****         {
 331:Drivers/STM32F1xx_HAL_Driver/Src/stm32f1xx_hal_gpio.c ****           SET_BIT(EXTI->FTSR, iocurrent);
 336              		.loc 1 331 11 is_stmt 1 view .LVU105
 337 0148 344A     		ldr	r2, .L40+20
 338 014a D368     		ldr	r3, [r2, #12]
 339 014c 1E43     		orrs	r6, r6, r3
 340              	.LVL33:
 341              		.loc 1 331 11 is_stmt 0 view .LVU106
 342 014e D660     		str	r6, [r2, #12]
 343              	.L3:
 332:Drivers/STM32F1xx_HAL_Driver/Src/stm32f1xx_hal_gpio.c ****         }
 333:Drivers/STM32F1xx_HAL_Driver/Src/stm32f1xx_hal_gpio.c ****         else
 334:Drivers/STM32F1xx_HAL_Driver/Src/stm32f1xx_hal_gpio.c ****         {
 335:Drivers/STM32F1xx_HAL_Driver/Src/stm32f1xx_hal_gpio.c ****           CLEAR_BIT(EXTI->FTSR, iocurrent);
 336:Drivers/STM32F1xx_HAL_Driver/Src/stm32f1xx_hal_gpio.c ****         }
 337:Drivers/STM32F1xx_HAL_Driver/Src/stm32f1xx_hal_gpio.c ****       }
 338:Drivers/STM32F1xx_HAL_Driver/Src/stm32f1xx_hal_gpio.c ****     }
 339:Drivers/STM32F1xx_HAL_Driver/Src/stm32f1xx_hal_gpio.c **** 
 340:Drivers/STM32F1xx_HAL_Driver/Src/stm32f1xx_hal_gpio.c **** 	position++;
 344              		.loc 1 340 2 is_stmt 1 view .LVU107
 345              		.loc 1 340 10 is_stmt 0 view .LVU108
 346 0150 0134     		adds	r4, r4, #1
 347              	.LVL34:
 348              	.L2:
 194:Drivers/STM32F1xx_HAL_Driver/Src/stm32f1xx_hal_gpio.c ****   {
 349              		.loc 1 194 9 is_stmt 1 view .LVU109
 194:Drivers/STM32F1xx_HAL_Driver/Src/stm32f1xx_hal_gpio.c ****   {
 350              		.loc 1 194 21 is_stmt 0 view .LVU110
 351 0152 0B68     		ldr	r3, [r1]
 194:Drivers/STM32F1xx_HAL_Driver/Src/stm32f1xx_hal_gpio.c ****   {
 352              		.loc 1 194 9 view .LVU111
 353 0154 33FA04F2 		lsrs	r2, r3, r4
 354 0158 52D0     		beq	.L39
 197:Drivers/STM32F1xx_HAL_Driver/Src/stm32f1xx_hal_gpio.c **** 
 355              		.loc 1 197 5 is_stmt 1 view .LVU112
 197:Drivers/STM32F1xx_HAL_Driver/Src/stm32f1xx_hal_gpio.c **** 
 356              		.loc 1 197 16 is_stmt 0 view .LVU113
 357 015a 0122     		movs	r2, #1
 358 015c A240     		lsls	r2, r2, r4
 359              	.LVL35:
 200:Drivers/STM32F1xx_HAL_Driver/Src/stm32f1xx_hal_gpio.c **** 
 360              		.loc 1 200 5 is_stmt 1 view .LVU114
 200:Drivers/STM32F1xx_HAL_Driver/Src/stm32f1xx_hal_gpio.c **** 
 361              		.loc 1 200 15 is_stmt 0 view .LVU115
ARM GAS  C:\Users\LIGUOH~1\AppData\Local\Temp\ccJhcioF.s 			page 14


 362 015e 03EA0206 		and	r6, r3, r2
 363              	.LVL36:
 202:Drivers/STM32F1xx_HAL_Driver/Src/stm32f1xx_hal_gpio.c ****     {
 364              		.loc 1 202 5 is_stmt 1 view .LVU116
 202:Drivers/STM32F1xx_HAL_Driver/Src/stm32f1xx_hal_gpio.c ****     {
 365              		.loc 1 202 8 is_stmt 0 view .LVU117
 366 0162 32EA0303 		bics	r3, r2, r3
 367 0166 F3D1     		bne	.L3
 205:Drivers/STM32F1xx_HAL_Driver/Src/stm32f1xx_hal_gpio.c **** 
 368              		.loc 1 205 7 is_stmt 1 view .LVU118
 208:Drivers/STM32F1xx_HAL_Driver/Src/stm32f1xx_hal_gpio.c ****       {
 369              		.loc 1 208 7 view .LVU119
 208:Drivers/STM32F1xx_HAL_Driver/Src/stm32f1xx_hal_gpio.c ****       {
 370              		.loc 1 208 24 is_stmt 0 view .LVU120
 371 0168 4B68     		ldr	r3, [r1, #4]
 208:Drivers/STM32F1xx_HAL_Driver/Src/stm32f1xx_hal_gpio.c ****       {
 372              		.loc 1 208 7 view .LVU121
 373 016a 122B     		cmp	r3, #18
 374 016c 3FF64DAF 		bhi	.L4
 375 0170 122B     		cmp	r3, #18
 376 0172 3FF66AAF 		bhi	.L9
 377 0176 01A7     		adr	r7, .L7
 378 0178 57F823F0 		ldr	pc, [r7, r3, lsl #2]
 379              		.p2align 2
 380              	.L7:
 381 017c 33000000 		.word	.L12+1
 382 0180 CB000000 		.word	.L11+1
 383 0184 D5000000 		.word	.L10+1
 384 0188 E7000000 		.word	.L28+1
 385 018c 4B000000 		.word	.L9+1
 386 0190 4B000000 		.word	.L9+1
 387 0194 4B000000 		.word	.L9+1
 388 0198 4B000000 		.word	.L9+1
 389 019c 4B000000 		.word	.L9+1
 390 01a0 4B000000 		.word	.L9+1
 391 01a4 4B000000 		.word	.L9+1
 392 01a8 4B000000 		.word	.L9+1
 393 01ac 4B000000 		.word	.L9+1
 394 01b0 4B000000 		.word	.L9+1
 395 01b4 4B000000 		.word	.L9+1
 396 01b8 4B000000 		.word	.L9+1
 397 01bc 4B000000 		.word	.L9+1
 398 01c0 CF000000 		.word	.L8+1
 399 01c4 DB000000 		.word	.L6+1
 400              	.LVL37:
 401              		.p2align 1
 402              	.L31:
 294:Drivers/STM32F1xx_HAL_Driver/Src/stm32f1xx_hal_gpio.c ****         AFIO->EXTICR[position >> 2u] = temp;
 403              		.loc 1 294 9 view .LVU122
 404 01c8 0123     		movs	r3, #1
 405              	.LVL38:
 294:Drivers/STM32F1xx_HAL_Driver/Src/stm32f1xx_hal_gpio.c ****         AFIO->EXTICR[position >> 2u] = temp;
 406              		.loc 1 294 9 view .LVU123
 407 01ca 9AE7     		b	.L19
 408              	.LVL39:
 409              	.L32:
 294:Drivers/STM32F1xx_HAL_Driver/Src/stm32f1xx_hal_gpio.c ****         AFIO->EXTICR[position >> 2u] = temp;
ARM GAS  C:\Users\LIGUOH~1\AppData\Local\Temp\ccJhcioF.s 			page 15


 410              		.loc 1 294 9 view .LVU124
 411 01cc 0223     		movs	r3, #2
 412 01ce 98E7     		b	.L19
 413              	.LVL40:
 414              	.L20:
 305:Drivers/STM32F1xx_HAL_Driver/Src/stm32f1xx_hal_gpio.c ****         }
 415              		.loc 1 305 11 is_stmt 1 view .LVU125
 416 01d0 124A     		ldr	r2, .L40+20
 417              	.LVL41:
 305:Drivers/STM32F1xx_HAL_Driver/Src/stm32f1xx_hal_gpio.c ****         }
 418              		.loc 1 305 11 is_stmt 0 view .LVU126
 419 01d2 1368     		ldr	r3, [r2]
 420 01d4 23EA0603 		bic	r3, r3, r6
 421 01d8 1360     		str	r3, [r2]
 422              	.LVL42:
 305:Drivers/STM32F1xx_HAL_Driver/Src/stm32f1xx_hal_gpio.c ****         }
 423              		.loc 1 305 11 view .LVU127
 424 01da A1E7     		b	.L21
 425              	.L22:
 315:Drivers/STM32F1xx_HAL_Driver/Src/stm32f1xx_hal_gpio.c ****         }
 426              		.loc 1 315 11 is_stmt 1 view .LVU128
 427 01dc 0F4A     		ldr	r2, .L40+20
 428 01de 5368     		ldr	r3, [r2, #4]
 429 01e0 23EA0603 		bic	r3, r3, r6
 430 01e4 5360     		str	r3, [r2, #4]
 431 01e6 A3E7     		b	.L23
 432              	.L24:
 325:Drivers/STM32F1xx_HAL_Driver/Src/stm32f1xx_hal_gpio.c ****         }
 433              		.loc 1 325 11 view .LVU129
 434 01e8 0C4A     		ldr	r2, .L40+20
 435 01ea 9368     		ldr	r3, [r2, #8]
 436 01ec 23EA0603 		bic	r3, r3, r6
 437 01f0 9360     		str	r3, [r2, #8]
 438 01f2 A5E7     		b	.L25
 439              	.L26:
 335:Drivers/STM32F1xx_HAL_Driver/Src/stm32f1xx_hal_gpio.c ****         }
 440              		.loc 1 335 11 view .LVU130
 441 01f4 094A     		ldr	r2, .L40+20
 442 01f6 D368     		ldr	r3, [r2, #12]
 443 01f8 23EA0606 		bic	r6, r3, r6
 444              	.LVL43:
 335:Drivers/STM32F1xx_HAL_Driver/Src/stm32f1xx_hal_gpio.c ****         }
 445              		.loc 1 335 11 is_stmt 0 view .LVU131
 446 01fc D660     		str	r6, [r2, #12]
 447 01fe A7E7     		b	.L3
 448              	.LVL44:
 449              	.L39:
 341:Drivers/STM32F1xx_HAL_Driver/Src/stm32f1xx_hal_gpio.c ****   }
 342:Drivers/STM32F1xx_HAL_Driver/Src/stm32f1xx_hal_gpio.c **** }
 450              		.loc 1 342 1 view .LVU132
 451 0200 02B0     		add	sp, sp, #8
 452              	.LCFI2:
 453              		.cfi_def_cfa_offset 16
 454              		@ sp needed
 455 0202 F0BC     		pop	{r4, r5, r6, r7}
 456              	.LCFI3:
 457              		.cfi_restore 7
ARM GAS  C:\Users\LIGUOH~1\AppData\Local\Temp\ccJhcioF.s 			page 16


 458              		.cfi_restore 6
 459              		.cfi_restore 5
 460              		.cfi_restore 4
 461              		.cfi_def_cfa_offset 0
 462              	.LVL45:
 463              		.loc 1 342 1 view .LVU133
 464 0204 7047     		bx	lr
 465              	.L41:
 466 0206 00BF     		.align	2
 467              	.L40:
 468 0208 00002210 		.word	270663680
 469 020c 00003110 		.word	271646720
 470 0210 00100240 		.word	1073876992
 471 0214 00000140 		.word	1073807360
 472 0218 00080140 		.word	1073809408
 473 021c 00040140 		.word	1073808384
 474              		.cfi_endproc
 475              	.LFE65:
 477              		.section	.text.HAL_GPIO_DeInit,"ax",%progbits
 478              		.align	1
 479              		.global	HAL_GPIO_DeInit
 480              		.syntax unified
 481              		.thumb
 482              		.thumb_func
 483              		.fpu softvfp
 485              	HAL_GPIO_DeInit:
 486              	.LVL46:
 487              	.LFB66:
 343:Drivers/STM32F1xx_HAL_Driver/Src/stm32f1xx_hal_gpio.c **** 
 344:Drivers/STM32F1xx_HAL_Driver/Src/stm32f1xx_hal_gpio.c **** /**
 345:Drivers/STM32F1xx_HAL_Driver/Src/stm32f1xx_hal_gpio.c ****   * @brief  De-initializes the GPIOx peripheral registers to their default reset values.
 346:Drivers/STM32F1xx_HAL_Driver/Src/stm32f1xx_hal_gpio.c ****   * @param  GPIOx: where x can be (A..G depending on device used) to select the GPIO peripheral
 347:Drivers/STM32F1xx_HAL_Driver/Src/stm32f1xx_hal_gpio.c ****   * @param  GPIO_Pin: specifies the port bit to be written.
 348:Drivers/STM32F1xx_HAL_Driver/Src/stm32f1xx_hal_gpio.c ****   *         This parameter can be one of GPIO_PIN_x where x can be (0..15).
 349:Drivers/STM32F1xx_HAL_Driver/Src/stm32f1xx_hal_gpio.c ****   * @retval None
 350:Drivers/STM32F1xx_HAL_Driver/Src/stm32f1xx_hal_gpio.c ****   */
 351:Drivers/STM32F1xx_HAL_Driver/Src/stm32f1xx_hal_gpio.c **** void HAL_GPIO_DeInit(GPIO_TypeDef  *GPIOx, uint32_t GPIO_Pin)
 352:Drivers/STM32F1xx_HAL_Driver/Src/stm32f1xx_hal_gpio.c **** {
 488              		.loc 1 352 1 is_stmt 1 view -0
 489              		.cfi_startproc
 490              		@ args = 0, pretend = 0, frame = 0
 491              		@ frame_needed = 0, uses_anonymous_args = 0
 492              		@ link register save eliminated.
 353:Drivers/STM32F1xx_HAL_Driver/Src/stm32f1xx_hal_gpio.c ****   uint32_t position = 0x00u;
 493              		.loc 1 353 3 view .LVU135
 354:Drivers/STM32F1xx_HAL_Driver/Src/stm32f1xx_hal_gpio.c ****   uint32_t iocurrent;
 494              		.loc 1 354 3 view .LVU136
 355:Drivers/STM32F1xx_HAL_Driver/Src/stm32f1xx_hal_gpio.c ****   uint32_t tmp;
 495              		.loc 1 355 3 view .LVU137
 356:Drivers/STM32F1xx_HAL_Driver/Src/stm32f1xx_hal_gpio.c ****   __IO uint32_t *configregister; /* Store the address of CRL or CRH register based on pin number */
 496              		.loc 1 356 3 view .LVU138
 357:Drivers/STM32F1xx_HAL_Driver/Src/stm32f1xx_hal_gpio.c ****   uint32_t registeroffset;
 497              		.loc 1 357 3 view .LVU139
 358:Drivers/STM32F1xx_HAL_Driver/Src/stm32f1xx_hal_gpio.c **** 
 359:Drivers/STM32F1xx_HAL_Driver/Src/stm32f1xx_hal_gpio.c ****   /* Check the parameters */
 360:Drivers/STM32F1xx_HAL_Driver/Src/stm32f1xx_hal_gpio.c ****   assert_param(IS_GPIO_ALL_INSTANCE(GPIOx));
 498              		.loc 1 360 3 view .LVU140
ARM GAS  C:\Users\LIGUOH~1\AppData\Local\Temp\ccJhcioF.s 			page 17


 361:Drivers/STM32F1xx_HAL_Driver/Src/stm32f1xx_hal_gpio.c ****   assert_param(IS_GPIO_PIN(GPIO_Pin));
 499              		.loc 1 361 3 view .LVU141
 362:Drivers/STM32F1xx_HAL_Driver/Src/stm32f1xx_hal_gpio.c **** 
 363:Drivers/STM32F1xx_HAL_Driver/Src/stm32f1xx_hal_gpio.c ****   /* Configure the port pins */
 364:Drivers/STM32F1xx_HAL_Driver/Src/stm32f1xx_hal_gpio.c ****   while ((GPIO_Pin >> position) != 0u)
 500              		.loc 1 364 3 view .LVU142
 353:Drivers/STM32F1xx_HAL_Driver/Src/stm32f1xx_hal_gpio.c ****   uint32_t iocurrent;
 501              		.loc 1 353 12 is_stmt 0 view .LVU143
 502 0000 0022     		movs	r2, #0
 503              		.loc 1 364 9 view .LVU144
 504 0002 6BE0     		b	.L57
 505              	.LVL47:
 506              	.L64:
 507              	.LCFI4:
 508              		.cfi_def_cfa_offset 16
 509              		.cfi_offset 4, -16
 510              		.cfi_offset 5, -12
 511              		.cfi_offset 6, -8
 512              		.cfi_offset 7, -4
 365:Drivers/STM32F1xx_HAL_Driver/Src/stm32f1xx_hal_gpio.c ****   {
 366:Drivers/STM32F1xx_HAL_Driver/Src/stm32f1xx_hal_gpio.c ****     /* Get current io position */
 367:Drivers/STM32F1xx_HAL_Driver/Src/stm32f1xx_hal_gpio.c ****     iocurrent = (GPIO_Pin) & (1uL << position);
 368:Drivers/STM32F1xx_HAL_Driver/Src/stm32f1xx_hal_gpio.c **** 
 369:Drivers/STM32F1xx_HAL_Driver/Src/stm32f1xx_hal_gpio.c ****     if (iocurrent)
 370:Drivers/STM32F1xx_HAL_Driver/Src/stm32f1xx_hal_gpio.c ****     {
 371:Drivers/STM32F1xx_HAL_Driver/Src/stm32f1xx_hal_gpio.c ****       /*------------------------- EXTI Mode Configuration --------------------*/
 372:Drivers/STM32F1xx_HAL_Driver/Src/stm32f1xx_hal_gpio.c ****       /* Clear the External Interrupt or Event for the current IO */
 373:Drivers/STM32F1xx_HAL_Driver/Src/stm32f1xx_hal_gpio.c **** 
 374:Drivers/STM32F1xx_HAL_Driver/Src/stm32f1xx_hal_gpio.c ****       tmp = AFIO->EXTICR[position >> 2u];
 375:Drivers/STM32F1xx_HAL_Driver/Src/stm32f1xx_hal_gpio.c ****       tmp &= 0x0FuL << (4u * (position & 0x03u));
 376:Drivers/STM32F1xx_HAL_Driver/Src/stm32f1xx_hal_gpio.c ****       if (tmp == (GPIO_GET_INDEX(GPIOx) << (4u * (position & 0x03u))))
 513              		.loc 1 376 19 view .LVU145
 514 0004 0326     		movs	r6, #3
 515 0006 00E0     		b	.L45
 516              	.L52:
 517 0008 0026     		movs	r6, #0
 518              	.L45:
 519              		.loc 1 376 41 discriminator 16 view .LVU146
 520 000a 06FA04F4 		lsl	r4, r6, r4
 521              		.loc 1 376 10 discriminator 16 view .LVU147
 522 000e AC42     		cmp	r4, r5
 523 0010 3FD0     		beq	.L62
 524              	.LVL48:
 525              	.L46:
 377:Drivers/STM32F1xx_HAL_Driver/Src/stm32f1xx_hal_gpio.c ****       {
 378:Drivers/STM32F1xx_HAL_Driver/Src/stm32f1xx_hal_gpio.c ****         tmp = 0x0FuL << (4u * (position & 0x03u));
 379:Drivers/STM32F1xx_HAL_Driver/Src/stm32f1xx_hal_gpio.c ****         CLEAR_BIT(AFIO->EXTICR[position >> 2u], tmp);
 380:Drivers/STM32F1xx_HAL_Driver/Src/stm32f1xx_hal_gpio.c **** 
 381:Drivers/STM32F1xx_HAL_Driver/Src/stm32f1xx_hal_gpio.c ****         /* Clear EXTI line configuration */
 382:Drivers/STM32F1xx_HAL_Driver/Src/stm32f1xx_hal_gpio.c ****         CLEAR_BIT(EXTI->IMR, (uint32_t)iocurrent);
 383:Drivers/STM32F1xx_HAL_Driver/Src/stm32f1xx_hal_gpio.c ****         CLEAR_BIT(EXTI->EMR, (uint32_t)iocurrent);
 384:Drivers/STM32F1xx_HAL_Driver/Src/stm32f1xx_hal_gpio.c **** 
 385:Drivers/STM32F1xx_HAL_Driver/Src/stm32f1xx_hal_gpio.c ****         /* Clear Rising Falling edge configuration */
 386:Drivers/STM32F1xx_HAL_Driver/Src/stm32f1xx_hal_gpio.c ****         CLEAR_BIT(EXTI->RTSR, (uint32_t)iocurrent);
 387:Drivers/STM32F1xx_HAL_Driver/Src/stm32f1xx_hal_gpio.c ****         CLEAR_BIT(EXTI->FTSR, (uint32_t)iocurrent);
 388:Drivers/STM32F1xx_HAL_Driver/Src/stm32f1xx_hal_gpio.c ****       }
 389:Drivers/STM32F1xx_HAL_Driver/Src/stm32f1xx_hal_gpio.c ****       /*------------------------- GPIO Mode Configuration --------------------*/
ARM GAS  C:\Users\LIGUOH~1\AppData\Local\Temp\ccJhcioF.s 			page 18


 390:Drivers/STM32F1xx_HAL_Driver/Src/stm32f1xx_hal_gpio.c ****       /* Check if the current bit belongs to first half or last half of the pin count number
 391:Drivers/STM32F1xx_HAL_Driver/Src/stm32f1xx_hal_gpio.c ****        in order to address CRH or CRL register */
 392:Drivers/STM32F1xx_HAL_Driver/Src/stm32f1xx_hal_gpio.c ****       configregister = (iocurrent < GPIO_PIN_8) ? &GPIOx->CRL     : &GPIOx->CRH;
 526              		.loc 1 392 7 is_stmt 1 view .LVU148
 527              		.loc 1 392 67 is_stmt 0 view .LVU149
 528 0012 FF2B     		cmp	r3, #255
 529 0014 58D8     		bhi	.L47
 530              		.loc 1 392 67 discriminator 1 view .LVU150
 531 0016 8446     		mov	ip, r0
 532              	.L48:
 533              	.LVL49:
 393:Drivers/STM32F1xx_HAL_Driver/Src/stm32f1xx_hal_gpio.c ****       registeroffset = (iocurrent < GPIO_PIN_8) ? (position << 2u) : ((position - 8u) << 2u);
 534              		.loc 1 393 7 is_stmt 1 discriminator 4 view .LVU151
 535              		.loc 1 393 68 is_stmt 0 discriminator 4 view .LVU152
 536 0018 FF2B     		cmp	r3, #255
 537 001a 58D8     		bhi	.L49
 538              		.loc 1 393 68 discriminator 1 view .LVU153
 539 001c 9700     		lsls	r7, r2, #2
 540              	.L50:
 541              	.LVL50:
 394:Drivers/STM32F1xx_HAL_Driver/Src/stm32f1xx_hal_gpio.c **** 
 395:Drivers/STM32F1xx_HAL_Driver/Src/stm32f1xx_hal_gpio.c ****       /* CRL/CRH default value is floating input(0x04) shifted to correct position */
 396:Drivers/STM32F1xx_HAL_Driver/Src/stm32f1xx_hal_gpio.c ****       MODIFY_REG(*configregister, ((GPIO_CRL_MODE0 | GPIO_CRL_CNF0) << registeroffset), GPIO_CRL_CN
 542              		.loc 1 396 7 is_stmt 1 discriminator 4 view .LVU154
 543 001e DCF80040 		ldr	r4, [ip]
 544 0022 0F26     		movs	r6, #15
 545 0024 BE40     		lsls	r6, r6, r7
 546 0026 24EA0604 		bic	r4, r4, r6
 547 002a 0425     		movs	r5, #4
 548 002c BD40     		lsls	r5, r5, r7
 549 002e 2C43     		orrs	r4, r4, r5
 550 0030 CCF80040 		str	r4, [ip]
 397:Drivers/STM32F1xx_HAL_Driver/Src/stm32f1xx_hal_gpio.c **** 
 398:Drivers/STM32F1xx_HAL_Driver/Src/stm32f1xx_hal_gpio.c ****       /* ODR default value is 0 */
 399:Drivers/STM32F1xx_HAL_Driver/Src/stm32f1xx_hal_gpio.c ****       CLEAR_BIT(GPIOx->ODR, iocurrent);
 551              		.loc 1 399 7 discriminator 4 view .LVU155
 552 0034 C468     		ldr	r4, [r0, #12]
 553 0036 24EA0303 		bic	r3, r4, r3
 554              	.LVL51:
 555              		.loc 1 399 7 is_stmt 0 discriminator 4 view .LVU156
 556 003a C360     		str	r3, [r0, #12]
 557              	.L44:
 400:Drivers/STM32F1xx_HAL_Driver/Src/stm32f1xx_hal_gpio.c ****     }
 401:Drivers/STM32F1xx_HAL_Driver/Src/stm32f1xx_hal_gpio.c **** 
 402:Drivers/STM32F1xx_HAL_Driver/Src/stm32f1xx_hal_gpio.c ****     position++;
 558              		.loc 1 402 5 is_stmt 1 view .LVU157
 559              		.loc 1 402 13 is_stmt 0 view .LVU158
 560 003c 0132     		adds	r2, r2, #1
 561              	.LVL52:
 364:Drivers/STM32F1xx_HAL_Driver/Src/stm32f1xx_hal_gpio.c ****   {
 562              		.loc 1 364 9 is_stmt 1 view .LVU159
 563 003e 31FA02F3 		lsrs	r3, r1, r2
 564 0042 48D0     		beq	.L63
 367:Drivers/STM32F1xx_HAL_Driver/Src/stm32f1xx_hal_gpio.c **** 
 565              		.loc 1 367 5 view .LVU160
 367:Drivers/STM32F1xx_HAL_Driver/Src/stm32f1xx_hal_gpio.c **** 
 566              		.loc 1 367 35 is_stmt 0 view .LVU161
ARM GAS  C:\Users\LIGUOH~1\AppData\Local\Temp\ccJhcioF.s 			page 19


 567 0044 0123     		movs	r3, #1
 568 0046 9340     		lsls	r3, r3, r2
 569              	.LVL53:
 369:Drivers/STM32F1xx_HAL_Driver/Src/stm32f1xx_hal_gpio.c ****     {
 570              		.loc 1 369 5 is_stmt 1 view .LVU162
 369:Drivers/STM32F1xx_HAL_Driver/Src/stm32f1xx_hal_gpio.c ****     {
 571              		.loc 1 369 8 is_stmt 0 view .LVU163
 572 0048 0B40     		ands	r3, r3, r1
 573              	.LVL54:
 369:Drivers/STM32F1xx_HAL_Driver/Src/stm32f1xx_hal_gpio.c ****     {
 574              		.loc 1 369 8 view .LVU164
 575 004a F7D0     		beq	.L44
 576              	.LVL55:
 577              	.L58:
 374:Drivers/STM32F1xx_HAL_Driver/Src/stm32f1xx_hal_gpio.c ****       tmp &= 0x0FuL << (4u * (position & 0x03u));
 578              		.loc 1 374 7 is_stmt 1 view .LVU165
 374:Drivers/STM32F1xx_HAL_Driver/Src/stm32f1xx_hal_gpio.c ****       tmp &= 0x0FuL << (4u * (position & 0x03u));
 579              		.loc 1 374 35 is_stmt 0 view .LVU166
 580 004c 4FEA920C 		lsr	ip, r2, #2
 374:Drivers/STM32F1xx_HAL_Driver/Src/stm32f1xx_hal_gpio.c ****       tmp &= 0x0FuL << (4u * (position & 0x03u));
 581              		.loc 1 374 11 view .LVU167
 582 0050 0CF10205 		add	r5, ip, #2
 583 0054 264C     		ldr	r4, .L67
 584 0056 54F82550 		ldr	r5, [r4, r5, lsl #2]
 585              	.LVL56:
 375:Drivers/STM32F1xx_HAL_Driver/Src/stm32f1xx_hal_gpio.c ****       if (tmp == (GPIO_GET_INDEX(GPIOx) << (4u * (position & 0x03u))))
 586              		.loc 1 375 7 is_stmt 1 view .LVU168
 375:Drivers/STM32F1xx_HAL_Driver/Src/stm32f1xx_hal_gpio.c ****       if (tmp == (GPIO_GET_INDEX(GPIOx) << (4u * (position & 0x03u))))
 587              		.loc 1 375 40 is_stmt 0 view .LVU169
 588 005a 02F00304 		and	r4, r2, #3
 375:Drivers/STM32F1xx_HAL_Driver/Src/stm32f1xx_hal_gpio.c ****       if (tmp == (GPIO_GET_INDEX(GPIOx) << (4u * (position & 0x03u))))
 589              		.loc 1 375 28 view .LVU170
 590 005e A400     		lsls	r4, r4, #2
 375:Drivers/STM32F1xx_HAL_Driver/Src/stm32f1xx_hal_gpio.c ****       if (tmp == (GPIO_GET_INDEX(GPIOx) << (4u * (position & 0x03u))))
 591              		.loc 1 375 21 view .LVU171
 592 0060 0F26     		movs	r6, #15
 593 0062 06FA04F7 		lsl	r7, r6, r4
 375:Drivers/STM32F1xx_HAL_Driver/Src/stm32f1xx_hal_gpio.c ****       if (tmp == (GPIO_GET_INDEX(GPIOx) << (4u * (position & 0x03u))))
 594              		.loc 1 375 11 view .LVU172
 595 0066 3D40     		ands	r5, r5, r7
 596              	.LVL57:
 376:Drivers/STM32F1xx_HAL_Driver/Src/stm32f1xx_hal_gpio.c ****       {
 597              		.loc 1 376 7 is_stmt 1 view .LVU173
 376:Drivers/STM32F1xx_HAL_Driver/Src/stm32f1xx_hal_gpio.c ****       {
 598              		.loc 1 376 19 is_stmt 0 view .LVU174
 599 0068 224E     		ldr	r6, .L67+4
 600 006a B042     		cmp	r0, r6
 601 006c CCD0     		beq	.L52
 376:Drivers/STM32F1xx_HAL_Driver/Src/stm32f1xx_hal_gpio.c ****       {
 602              		.loc 1 376 19 discriminator 1 view .LVU175
 603 006e 06F58066 		add	r6, r6, #1024
 604 0072 B042     		cmp	r0, r6
 605 0074 09D0     		beq	.L53
 376:Drivers/STM32F1xx_HAL_Driver/Src/stm32f1xx_hal_gpio.c ****       {
 606              		.loc 1 376 19 discriminator 3 view .LVU176
 607 0076 06F58066 		add	r6, r6, #1024
 608 007a B042     		cmp	r0, r6
ARM GAS  C:\Users\LIGUOH~1\AppData\Local\Temp\ccJhcioF.s 			page 20


 609 007c 07D0     		beq	.L54
 376:Drivers/STM32F1xx_HAL_Driver/Src/stm32f1xx_hal_gpio.c ****       {
 610              		.loc 1 376 19 discriminator 5 view .LVU177
 611 007e 06F58066 		add	r6, r6, #1024
 612 0082 B042     		cmp	r0, r6
 613 0084 BED0     		beq	.L64
 376:Drivers/STM32F1xx_HAL_Driver/Src/stm32f1xx_hal_gpio.c ****       {
 614              		.loc 1 376 19 view .LVU178
 615 0086 0426     		movs	r6, #4
 616 0088 BFE7     		b	.L45
 617              	.L53:
 618 008a 0126     		movs	r6, #1
 619 008c BDE7     		b	.L45
 620              	.L54:
 621 008e 0226     		movs	r6, #2
 622 0090 BBE7     		b	.L45
 623              	.L62:
 378:Drivers/STM32F1xx_HAL_Driver/Src/stm32f1xx_hal_gpio.c ****         CLEAR_BIT(AFIO->EXTICR[position >> 2u], tmp);
 624              		.loc 1 378 9 is_stmt 1 view .LVU179
 625              	.LVL58:
 379:Drivers/STM32F1xx_HAL_Driver/Src/stm32f1xx_hal_gpio.c **** 
 626              		.loc 1 379 9 view .LVU180
 627 0092 174D     		ldr	r5, .L67
 628 0094 0CF10204 		add	r4, ip, #2
 629 0098 55F82460 		ldr	r6, [r5, r4, lsl #2]
 630 009c 26EA0706 		bic	r6, r6, r7
 631 00a0 45F82460 		str	r6, [r5, r4, lsl #2]
 382:Drivers/STM32F1xx_HAL_Driver/Src/stm32f1xx_hal_gpio.c ****         CLEAR_BIT(EXTI->EMR, (uint32_t)iocurrent);
 632              		.loc 1 382 9 view .LVU181
 633 00a4 144C     		ldr	r4, .L67+8
 634 00a6 2568     		ldr	r5, [r4]
 635 00a8 25EA0305 		bic	r5, r5, r3
 636 00ac 2560     		str	r5, [r4]
 383:Drivers/STM32F1xx_HAL_Driver/Src/stm32f1xx_hal_gpio.c **** 
 637              		.loc 1 383 9 view .LVU182
 638 00ae 6568     		ldr	r5, [r4, #4]
 639 00b0 25EA0305 		bic	r5, r5, r3
 640 00b4 6560     		str	r5, [r4, #4]
 386:Drivers/STM32F1xx_HAL_Driver/Src/stm32f1xx_hal_gpio.c ****         CLEAR_BIT(EXTI->FTSR, (uint32_t)iocurrent);
 641              		.loc 1 386 9 view .LVU183
 642 00b6 A568     		ldr	r5, [r4, #8]
 643 00b8 25EA0305 		bic	r5, r5, r3
 644 00bc A560     		str	r5, [r4, #8]
 387:Drivers/STM32F1xx_HAL_Driver/Src/stm32f1xx_hal_gpio.c ****       }
 645              		.loc 1 387 9 view .LVU184
 646 00be E568     		ldr	r5, [r4, #12]
 647 00c0 25EA0305 		bic	r5, r5, r3
 648 00c4 E560     		str	r5, [r4, #12]
 649 00c6 A4E7     		b	.L46
 650              	.LVL59:
 651              	.L47:
 392:Drivers/STM32F1xx_HAL_Driver/Src/stm32f1xx_hal_gpio.c ****       registeroffset = (iocurrent < GPIO_PIN_8) ? (position << 2u) : ((position - 8u) << 2u);
 652              		.loc 1 392 67 is_stmt 0 discriminator 2 view .LVU185
 653 00c8 00F1040C 		add	ip, r0, #4
 654 00cc A4E7     		b	.L48
 655              	.LVL60:
 656              	.L49:
ARM GAS  C:\Users\LIGUOH~1\AppData\Local\Temp\ccJhcioF.s 			page 21


 393:Drivers/STM32F1xx_HAL_Driver/Src/stm32f1xx_hal_gpio.c **** 
 657              		.loc 1 393 81 discriminator 2 view .LVU186
 658 00ce A2F10805 		sub	r5, r2, #8
 393:Drivers/STM32F1xx_HAL_Driver/Src/stm32f1xx_hal_gpio.c **** 
 659              		.loc 1 393 68 discriminator 2 view .LVU187
 660 00d2 AF00     		lsls	r7, r5, #2
 661 00d4 A3E7     		b	.L50
 662              	.LVL61:
 663              	.L63:
 403:Drivers/STM32F1xx_HAL_Driver/Src/stm32f1xx_hal_gpio.c ****   }
 404:Drivers/STM32F1xx_HAL_Driver/Src/stm32f1xx_hal_gpio.c **** }
 664              		.loc 1 404 1 view .LVU188
 665 00d6 F0BC     		pop	{r4, r5, r6, r7}
 666              	.LCFI5:
 667              		.cfi_restore 7
 668              		.cfi_restore 6
 669              		.cfi_restore 5
 670              		.cfi_restore 4
 671              		.cfi_def_cfa_offset 0
 672              	.LVL62:
 673              		.loc 1 404 1 view .LVU189
 674 00d8 7047     		bx	lr
 675              	.LVL63:
 676              	.L66:
 402:Drivers/STM32F1xx_HAL_Driver/Src/stm32f1xx_hal_gpio.c ****   }
 677              		.loc 1 402 5 is_stmt 1 view .LVU190
 402:Drivers/STM32F1xx_HAL_Driver/Src/stm32f1xx_hal_gpio.c ****   }
 678              		.loc 1 402 13 is_stmt 0 view .LVU191
 679 00da 0132     		adds	r2, r2, #1
 680              	.LVL64:
 681              	.L57:
 364:Drivers/STM32F1xx_HAL_Driver/Src/stm32f1xx_hal_gpio.c ****   {
 682              		.loc 1 364 9 is_stmt 1 view .LVU192
 683 00dc 31FA02F3 		lsrs	r3, r1, r2
 684 00e0 05D0     		beq	.L65
 367:Drivers/STM32F1xx_HAL_Driver/Src/stm32f1xx_hal_gpio.c **** 
 685              		.loc 1 367 5 view .LVU193
 367:Drivers/STM32F1xx_HAL_Driver/Src/stm32f1xx_hal_gpio.c **** 
 686              		.loc 1 367 35 is_stmt 0 view .LVU194
 687 00e2 0123     		movs	r3, #1
 688 00e4 9340     		lsls	r3, r3, r2
 689              	.LVL65:
 369:Drivers/STM32F1xx_HAL_Driver/Src/stm32f1xx_hal_gpio.c ****     {
 690              		.loc 1 369 5 is_stmt 1 view .LVU195
 369:Drivers/STM32F1xx_HAL_Driver/Src/stm32f1xx_hal_gpio.c ****     {
 691              		.loc 1 369 8 is_stmt 0 view .LVU196
 692 00e6 0B40     		ands	r3, r3, r1
 693              	.LVL66:
 369:Drivers/STM32F1xx_HAL_Driver/Src/stm32f1xx_hal_gpio.c ****     {
 694              		.loc 1 369 8 view .LVU197
 695 00e8 F7D0     		beq	.L66
 352:Drivers/STM32F1xx_HAL_Driver/Src/stm32f1xx_hal_gpio.c ****   uint32_t position = 0x00u;
 696              		.loc 1 352 1 view .LVU198
 697 00ea F0B4     		push	{r4, r5, r6, r7}
 698              	.LCFI6:
 699              		.cfi_def_cfa_offset 16
 700              		.cfi_offset 4, -16
ARM GAS  C:\Users\LIGUOH~1\AppData\Local\Temp\ccJhcioF.s 			page 22


 701              		.cfi_offset 5, -12
 702              		.cfi_offset 6, -8
 703              		.cfi_offset 7, -4
 704 00ec AEE7     		b	.L58
 705              	.LVL67:
 706              	.L65:
 707              	.LCFI7:
 708              		.cfi_def_cfa_offset 0
 709              		.cfi_restore 4
 710              		.cfi_restore 5
 711              		.cfi_restore 6
 712              		.cfi_restore 7
 352:Drivers/STM32F1xx_HAL_Driver/Src/stm32f1xx_hal_gpio.c ****   uint32_t position = 0x00u;
 713              		.loc 1 352 1 view .LVU199
 714 00ee 7047     		bx	lr
 715              	.L68:
 716              		.align	2
 717              	.L67:
 718 00f0 00000140 		.word	1073807360
 719 00f4 00080140 		.word	1073809408
 720 00f8 00040140 		.word	1073808384
 721              		.cfi_endproc
 722              	.LFE66:
 724              		.section	.text.HAL_GPIO_ReadPin,"ax",%progbits
 725              		.align	1
 726              		.global	HAL_GPIO_ReadPin
 727              		.syntax unified
 728              		.thumb
 729              		.thumb_func
 730              		.fpu softvfp
 732              	HAL_GPIO_ReadPin:
 733              	.LVL68:
 734              	.LFB67:
 405:Drivers/STM32F1xx_HAL_Driver/Src/stm32f1xx_hal_gpio.c **** 
 406:Drivers/STM32F1xx_HAL_Driver/Src/stm32f1xx_hal_gpio.c **** /**
 407:Drivers/STM32F1xx_HAL_Driver/Src/stm32f1xx_hal_gpio.c ****   * @}
 408:Drivers/STM32F1xx_HAL_Driver/Src/stm32f1xx_hal_gpio.c ****   */
 409:Drivers/STM32F1xx_HAL_Driver/Src/stm32f1xx_hal_gpio.c **** 
 410:Drivers/STM32F1xx_HAL_Driver/Src/stm32f1xx_hal_gpio.c **** /** @defgroup GPIO_Exported_Functions_Group2 IO operation functions
 411:Drivers/STM32F1xx_HAL_Driver/Src/stm32f1xx_hal_gpio.c ****  *  @brief   GPIO Read and Write
 412:Drivers/STM32F1xx_HAL_Driver/Src/stm32f1xx_hal_gpio.c ****  *
 413:Drivers/STM32F1xx_HAL_Driver/Src/stm32f1xx_hal_gpio.c **** @verbatim
 414:Drivers/STM32F1xx_HAL_Driver/Src/stm32f1xx_hal_gpio.c ****  ===============================================================================
 415:Drivers/STM32F1xx_HAL_Driver/Src/stm32f1xx_hal_gpio.c ****                        ##### IO operation functions #####
 416:Drivers/STM32F1xx_HAL_Driver/Src/stm32f1xx_hal_gpio.c ****  ===============================================================================
 417:Drivers/STM32F1xx_HAL_Driver/Src/stm32f1xx_hal_gpio.c ****   [..]
 418:Drivers/STM32F1xx_HAL_Driver/Src/stm32f1xx_hal_gpio.c ****     This subsection provides a set of functions allowing to manage the GPIOs.
 419:Drivers/STM32F1xx_HAL_Driver/Src/stm32f1xx_hal_gpio.c **** 
 420:Drivers/STM32F1xx_HAL_Driver/Src/stm32f1xx_hal_gpio.c **** @endverbatim
 421:Drivers/STM32F1xx_HAL_Driver/Src/stm32f1xx_hal_gpio.c ****   * @{
 422:Drivers/STM32F1xx_HAL_Driver/Src/stm32f1xx_hal_gpio.c ****   */
 423:Drivers/STM32F1xx_HAL_Driver/Src/stm32f1xx_hal_gpio.c **** 
 424:Drivers/STM32F1xx_HAL_Driver/Src/stm32f1xx_hal_gpio.c **** /**
 425:Drivers/STM32F1xx_HAL_Driver/Src/stm32f1xx_hal_gpio.c ****   * @brief  Reads the specified input port pin.
 426:Drivers/STM32F1xx_HAL_Driver/Src/stm32f1xx_hal_gpio.c ****   * @param  GPIOx: where x can be (A..G depending on device used) to select the GPIO peripheral
 427:Drivers/STM32F1xx_HAL_Driver/Src/stm32f1xx_hal_gpio.c ****   * @param  GPIO_Pin: specifies the port bit to read.
 428:Drivers/STM32F1xx_HAL_Driver/Src/stm32f1xx_hal_gpio.c ****   *         This parameter can be GPIO_PIN_x where x can be (0..15).
ARM GAS  C:\Users\LIGUOH~1\AppData\Local\Temp\ccJhcioF.s 			page 23


 429:Drivers/STM32F1xx_HAL_Driver/Src/stm32f1xx_hal_gpio.c ****   * @retval The input port pin value.
 430:Drivers/STM32F1xx_HAL_Driver/Src/stm32f1xx_hal_gpio.c ****   */
 431:Drivers/STM32F1xx_HAL_Driver/Src/stm32f1xx_hal_gpio.c **** GPIO_PinState HAL_GPIO_ReadPin(GPIO_TypeDef *GPIOx, uint16_t GPIO_Pin)
 432:Drivers/STM32F1xx_HAL_Driver/Src/stm32f1xx_hal_gpio.c **** {
 735              		.loc 1 432 1 is_stmt 1 view -0
 736              		.cfi_startproc
 737              		@ args = 0, pretend = 0, frame = 0
 738              		@ frame_needed = 0, uses_anonymous_args = 0
 739              		@ link register save eliminated.
 433:Drivers/STM32F1xx_HAL_Driver/Src/stm32f1xx_hal_gpio.c ****   GPIO_PinState bitstatus;
 740              		.loc 1 433 3 view .LVU201
 434:Drivers/STM32F1xx_HAL_Driver/Src/stm32f1xx_hal_gpio.c **** 
 435:Drivers/STM32F1xx_HAL_Driver/Src/stm32f1xx_hal_gpio.c ****   /* Check the parameters */
 436:Drivers/STM32F1xx_HAL_Driver/Src/stm32f1xx_hal_gpio.c ****   assert_param(IS_GPIO_PIN(GPIO_Pin));
 741              		.loc 1 436 3 view .LVU202
 437:Drivers/STM32F1xx_HAL_Driver/Src/stm32f1xx_hal_gpio.c **** 
 438:Drivers/STM32F1xx_HAL_Driver/Src/stm32f1xx_hal_gpio.c ****   if ((GPIOx->IDR & GPIO_Pin) != (uint32_t)GPIO_PIN_RESET)
 742              		.loc 1 438 3 view .LVU203
 743              		.loc 1 438 13 is_stmt 0 view .LVU204
 744 0000 8368     		ldr	r3, [r0, #8]
 745              		.loc 1 438 6 view .LVU205
 746 0002 1942     		tst	r1, r3
 747 0004 01D0     		beq	.L71
 439:Drivers/STM32F1xx_HAL_Driver/Src/stm32f1xx_hal_gpio.c ****   {
 440:Drivers/STM32F1xx_HAL_Driver/Src/stm32f1xx_hal_gpio.c ****     bitstatus = GPIO_PIN_SET;
 748              		.loc 1 440 15 view .LVU206
 749 0006 0120     		movs	r0, #1
 750              	.LVL69:
 751              		.loc 1 440 15 view .LVU207
 752 0008 7047     		bx	lr
 753              	.LVL70:
 754              	.L71:
 441:Drivers/STM32F1xx_HAL_Driver/Src/stm32f1xx_hal_gpio.c ****   }
 442:Drivers/STM32F1xx_HAL_Driver/Src/stm32f1xx_hal_gpio.c ****   else
 443:Drivers/STM32F1xx_HAL_Driver/Src/stm32f1xx_hal_gpio.c ****   {
 444:Drivers/STM32F1xx_HAL_Driver/Src/stm32f1xx_hal_gpio.c ****     bitstatus = GPIO_PIN_RESET;
 755              		.loc 1 444 15 view .LVU208
 756 000a 0020     		movs	r0, #0
 757              	.LVL71:
 445:Drivers/STM32F1xx_HAL_Driver/Src/stm32f1xx_hal_gpio.c ****   }
 446:Drivers/STM32F1xx_HAL_Driver/Src/stm32f1xx_hal_gpio.c ****   return bitstatus;
 758              		.loc 1 446 3 is_stmt 1 view .LVU209
 447:Drivers/STM32F1xx_HAL_Driver/Src/stm32f1xx_hal_gpio.c **** }
 759              		.loc 1 447 1 is_stmt 0 view .LVU210
 760 000c 7047     		bx	lr
 761              		.cfi_endproc
 762              	.LFE67:
 764              		.section	.text.HAL_GPIO_WritePin,"ax",%progbits
 765              		.align	1
 766              		.global	HAL_GPIO_WritePin
 767              		.syntax unified
 768              		.thumb
 769              		.thumb_func
 770              		.fpu softvfp
 772              	HAL_GPIO_WritePin:
 773              	.LVL72:
 774              	.LFB68:
ARM GAS  C:\Users\LIGUOH~1\AppData\Local\Temp\ccJhcioF.s 			page 24


 448:Drivers/STM32F1xx_HAL_Driver/Src/stm32f1xx_hal_gpio.c **** 
 449:Drivers/STM32F1xx_HAL_Driver/Src/stm32f1xx_hal_gpio.c **** /**
 450:Drivers/STM32F1xx_HAL_Driver/Src/stm32f1xx_hal_gpio.c ****   * @brief  Sets or clears the selected data port bit.
 451:Drivers/STM32F1xx_HAL_Driver/Src/stm32f1xx_hal_gpio.c ****   *
 452:Drivers/STM32F1xx_HAL_Driver/Src/stm32f1xx_hal_gpio.c ****   * @note   This function uses GPIOx_BSRR register to allow atomic read/modify
 453:Drivers/STM32F1xx_HAL_Driver/Src/stm32f1xx_hal_gpio.c ****   *         accesses. In this way, there is no risk of an IRQ occurring between
 454:Drivers/STM32F1xx_HAL_Driver/Src/stm32f1xx_hal_gpio.c ****   *         the read and the modify access.
 455:Drivers/STM32F1xx_HAL_Driver/Src/stm32f1xx_hal_gpio.c ****   *
 456:Drivers/STM32F1xx_HAL_Driver/Src/stm32f1xx_hal_gpio.c ****   * @param  GPIOx: where x can be (A..G depending on device used) to select the GPIO peripheral
 457:Drivers/STM32F1xx_HAL_Driver/Src/stm32f1xx_hal_gpio.c ****   * @param  GPIO_Pin: specifies the port bit to be written.
 458:Drivers/STM32F1xx_HAL_Driver/Src/stm32f1xx_hal_gpio.c ****   *          This parameter can be one of GPIO_PIN_x where x can be (0..15).
 459:Drivers/STM32F1xx_HAL_Driver/Src/stm32f1xx_hal_gpio.c ****   * @param  PinState: specifies the value to be written to the selected bit.
 460:Drivers/STM32F1xx_HAL_Driver/Src/stm32f1xx_hal_gpio.c ****   *          This parameter can be one of the GPIO_PinState enum values:
 461:Drivers/STM32F1xx_HAL_Driver/Src/stm32f1xx_hal_gpio.c ****   *            @arg GPIO_PIN_RESET: to clear the port pin
 462:Drivers/STM32F1xx_HAL_Driver/Src/stm32f1xx_hal_gpio.c ****   *            @arg GPIO_PIN_SET: to set the port pin
 463:Drivers/STM32F1xx_HAL_Driver/Src/stm32f1xx_hal_gpio.c ****   * @retval None
 464:Drivers/STM32F1xx_HAL_Driver/Src/stm32f1xx_hal_gpio.c ****   */
 465:Drivers/STM32F1xx_HAL_Driver/Src/stm32f1xx_hal_gpio.c **** void HAL_GPIO_WritePin(GPIO_TypeDef *GPIOx, uint16_t GPIO_Pin, GPIO_PinState PinState)
 466:Drivers/STM32F1xx_HAL_Driver/Src/stm32f1xx_hal_gpio.c **** {
 775              		.loc 1 466 1 is_stmt 1 view -0
 776              		.cfi_startproc
 777              		@ args = 0, pretend = 0, frame = 0
 778              		@ frame_needed = 0, uses_anonymous_args = 0
 779              		@ link register save eliminated.
 467:Drivers/STM32F1xx_HAL_Driver/Src/stm32f1xx_hal_gpio.c ****   /* Check the parameters */
 468:Drivers/STM32F1xx_HAL_Driver/Src/stm32f1xx_hal_gpio.c ****   assert_param(IS_GPIO_PIN(GPIO_Pin));
 780              		.loc 1 468 3 view .LVU212
 469:Drivers/STM32F1xx_HAL_Driver/Src/stm32f1xx_hal_gpio.c ****   assert_param(IS_GPIO_PIN_ACTION(PinState));
 781              		.loc 1 469 3 view .LVU213
 470:Drivers/STM32F1xx_HAL_Driver/Src/stm32f1xx_hal_gpio.c **** 
 471:Drivers/STM32F1xx_HAL_Driver/Src/stm32f1xx_hal_gpio.c ****   if (PinState != GPIO_PIN_RESET)
 782              		.loc 1 471 3 view .LVU214
 783              		.loc 1 471 6 is_stmt 0 view .LVU215
 784 0000 0AB1     		cbz	r2, .L73
 472:Drivers/STM32F1xx_HAL_Driver/Src/stm32f1xx_hal_gpio.c ****   {
 473:Drivers/STM32F1xx_HAL_Driver/Src/stm32f1xx_hal_gpio.c ****     GPIOx->BSRR = GPIO_Pin;
 785              		.loc 1 473 5 is_stmt 1 view .LVU216
 786              		.loc 1 473 17 is_stmt 0 view .LVU217
 787 0002 0161     		str	r1, [r0, #16]
 788 0004 7047     		bx	lr
 789              	.L73:
 474:Drivers/STM32F1xx_HAL_Driver/Src/stm32f1xx_hal_gpio.c ****   }
 475:Drivers/STM32F1xx_HAL_Driver/Src/stm32f1xx_hal_gpio.c ****   else
 476:Drivers/STM32F1xx_HAL_Driver/Src/stm32f1xx_hal_gpio.c ****   {
 477:Drivers/STM32F1xx_HAL_Driver/Src/stm32f1xx_hal_gpio.c ****     GPIOx->BSRR = (uint32_t)GPIO_Pin << 16u;
 790              		.loc 1 477 5 is_stmt 1 view .LVU218
 791              		.loc 1 477 38 is_stmt 0 view .LVU219
 792 0006 0904     		lsls	r1, r1, #16
 793              	.LVL73:
 794              		.loc 1 477 17 view .LVU220
 795 0008 0161     		str	r1, [r0, #16]
 478:Drivers/STM32F1xx_HAL_Driver/Src/stm32f1xx_hal_gpio.c ****   }
 479:Drivers/STM32F1xx_HAL_Driver/Src/stm32f1xx_hal_gpio.c **** }
 796              		.loc 1 479 1 view .LVU221
 797 000a 7047     		bx	lr
 798              		.cfi_endproc
 799              	.LFE68:
ARM GAS  C:\Users\LIGUOH~1\AppData\Local\Temp\ccJhcioF.s 			page 25


 801              		.section	.text.HAL_GPIO_TogglePin,"ax",%progbits
 802              		.align	1
 803              		.global	HAL_GPIO_TogglePin
 804              		.syntax unified
 805              		.thumb
 806              		.thumb_func
 807              		.fpu softvfp
 809              	HAL_GPIO_TogglePin:
 810              	.LVL74:
 811              	.LFB69:
 480:Drivers/STM32F1xx_HAL_Driver/Src/stm32f1xx_hal_gpio.c **** 
 481:Drivers/STM32F1xx_HAL_Driver/Src/stm32f1xx_hal_gpio.c **** /**
 482:Drivers/STM32F1xx_HAL_Driver/Src/stm32f1xx_hal_gpio.c ****   * @brief  Toggles the specified GPIO pin
 483:Drivers/STM32F1xx_HAL_Driver/Src/stm32f1xx_hal_gpio.c ****   * @param  GPIOx: where x can be (A..G depending on device used) to select the GPIO peripheral
 484:Drivers/STM32F1xx_HAL_Driver/Src/stm32f1xx_hal_gpio.c ****   * @param  GPIO_Pin: Specifies the pins to be toggled.
 485:Drivers/STM32F1xx_HAL_Driver/Src/stm32f1xx_hal_gpio.c ****   * @retval None
 486:Drivers/STM32F1xx_HAL_Driver/Src/stm32f1xx_hal_gpio.c ****   */
 487:Drivers/STM32F1xx_HAL_Driver/Src/stm32f1xx_hal_gpio.c **** void HAL_GPIO_TogglePin(GPIO_TypeDef *GPIOx, uint16_t GPIO_Pin)
 488:Drivers/STM32F1xx_HAL_Driver/Src/stm32f1xx_hal_gpio.c **** {
 812              		.loc 1 488 1 is_stmt 1 view -0
 813              		.cfi_startproc
 814              		@ args = 0, pretend = 0, frame = 0
 815              		@ frame_needed = 0, uses_anonymous_args = 0
 816              		@ link register save eliminated.
 489:Drivers/STM32F1xx_HAL_Driver/Src/stm32f1xx_hal_gpio.c ****   uint32_t odr;
 817              		.loc 1 489 3 view .LVU223
 490:Drivers/STM32F1xx_HAL_Driver/Src/stm32f1xx_hal_gpio.c **** 
 491:Drivers/STM32F1xx_HAL_Driver/Src/stm32f1xx_hal_gpio.c ****   /* Check the parameters */
 492:Drivers/STM32F1xx_HAL_Driver/Src/stm32f1xx_hal_gpio.c ****   assert_param(IS_GPIO_PIN(GPIO_Pin));
 818              		.loc 1 492 3 view .LVU224
 493:Drivers/STM32F1xx_HAL_Driver/Src/stm32f1xx_hal_gpio.c **** 
 494:Drivers/STM32F1xx_HAL_Driver/Src/stm32f1xx_hal_gpio.c ****   /* get current Ouput Data Register value */
 495:Drivers/STM32F1xx_HAL_Driver/Src/stm32f1xx_hal_gpio.c ****   odr = GPIOx->ODR;
 819              		.loc 1 495 3 view .LVU225
 820              		.loc 1 495 7 is_stmt 0 view .LVU226
 821 0000 C368     		ldr	r3, [r0, #12]
 822              	.LVL75:
 496:Drivers/STM32F1xx_HAL_Driver/Src/stm32f1xx_hal_gpio.c **** 
 497:Drivers/STM32F1xx_HAL_Driver/Src/stm32f1xx_hal_gpio.c ****   /* Set selected pins that were at low level, and reset ones that were high */
 498:Drivers/STM32F1xx_HAL_Driver/Src/stm32f1xx_hal_gpio.c ****   GPIOx->BSRR = ((odr & GPIO_Pin) << GPIO_NUMBER) | (~odr & GPIO_Pin);
 823              		.loc 1 498 3 is_stmt 1 view .LVU227
 824              		.loc 1 498 23 is_stmt 0 view .LVU228
 825 0002 01EA0302 		and	r2, r1, r3
 826              		.loc 1 498 59 view .LVU229
 827 0006 21EA0301 		bic	r1, r1, r3
 828              	.LVL76:
 829              		.loc 1 498 51 view .LVU230
 830 000a 41EA0241 		orr	r1, r1, r2, lsl #16
 831              		.loc 1 498 15 view .LVU231
 832 000e 0161     		str	r1, [r0, #16]
 499:Drivers/STM32F1xx_HAL_Driver/Src/stm32f1xx_hal_gpio.c **** }
 833              		.loc 1 499 1 view .LVU232
 834 0010 7047     		bx	lr
 835              		.cfi_endproc
 836              	.LFE69:
 838              		.section	.text.HAL_GPIO_LockPin,"ax",%progbits
 839              		.align	1
ARM GAS  C:\Users\LIGUOH~1\AppData\Local\Temp\ccJhcioF.s 			page 26


 840              		.global	HAL_GPIO_LockPin
 841              		.syntax unified
 842              		.thumb
 843              		.thumb_func
 844              		.fpu softvfp
 846              	HAL_GPIO_LockPin:
 847              	.LVL77:
 848              	.LFB70:
 500:Drivers/STM32F1xx_HAL_Driver/Src/stm32f1xx_hal_gpio.c **** 
 501:Drivers/STM32F1xx_HAL_Driver/Src/stm32f1xx_hal_gpio.c **** /**
 502:Drivers/STM32F1xx_HAL_Driver/Src/stm32f1xx_hal_gpio.c **** * @brief  Locks GPIO Pins configuration registers.
 503:Drivers/STM32F1xx_HAL_Driver/Src/stm32f1xx_hal_gpio.c **** * @note   The locking mechanism allows the IO configuration to be frozen. When the LOCK sequence
 504:Drivers/STM32F1xx_HAL_Driver/Src/stm32f1xx_hal_gpio.c **** *         has been applied on a port bit, it is no longer possible to modify the value of the port 
 505:Drivers/STM32F1xx_HAL_Driver/Src/stm32f1xx_hal_gpio.c **** *         the next reset.
 506:Drivers/STM32F1xx_HAL_Driver/Src/stm32f1xx_hal_gpio.c **** * @param  GPIOx: where x can be (A..G depending on device used) to select the GPIO peripheral
 507:Drivers/STM32F1xx_HAL_Driver/Src/stm32f1xx_hal_gpio.c **** * @param  GPIO_Pin: specifies the port bit to be locked.
 508:Drivers/STM32F1xx_HAL_Driver/Src/stm32f1xx_hal_gpio.c **** *         This parameter can be any combination of GPIO_Pin_x where x can be (0..15).
 509:Drivers/STM32F1xx_HAL_Driver/Src/stm32f1xx_hal_gpio.c **** * @retval None
 510:Drivers/STM32F1xx_HAL_Driver/Src/stm32f1xx_hal_gpio.c **** */
 511:Drivers/STM32F1xx_HAL_Driver/Src/stm32f1xx_hal_gpio.c **** HAL_StatusTypeDef HAL_GPIO_LockPin(GPIO_TypeDef *GPIOx, uint16_t GPIO_Pin)
 512:Drivers/STM32F1xx_HAL_Driver/Src/stm32f1xx_hal_gpio.c **** {
 849              		.loc 1 512 1 is_stmt 1 view -0
 850              		.cfi_startproc
 851              		@ args = 0, pretend = 0, frame = 8
 852              		@ frame_needed = 0, uses_anonymous_args = 0
 853              		@ link register save eliminated.
 854              		.loc 1 512 1 is_stmt 0 view .LVU234
 855 0000 82B0     		sub	sp, sp, #8
 856              	.LCFI8:
 857              		.cfi_def_cfa_offset 8
 513:Drivers/STM32F1xx_HAL_Driver/Src/stm32f1xx_hal_gpio.c ****   __IO uint32_t tmp = GPIO_LCKR_LCKK;
 858              		.loc 1 513 3 is_stmt 1 view .LVU235
 859              		.loc 1 513 17 is_stmt 0 view .LVU236
 860 0002 4FF48033 		mov	r3, #65536
 861 0006 0193     		str	r3, [sp, #4]
 514:Drivers/STM32F1xx_HAL_Driver/Src/stm32f1xx_hal_gpio.c **** 
 515:Drivers/STM32F1xx_HAL_Driver/Src/stm32f1xx_hal_gpio.c ****   /* Check the parameters */
 516:Drivers/STM32F1xx_HAL_Driver/Src/stm32f1xx_hal_gpio.c ****   assert_param(IS_GPIO_LOCK_INSTANCE(GPIOx));
 862              		.loc 1 516 3 is_stmt 1 view .LVU237
 517:Drivers/STM32F1xx_HAL_Driver/Src/stm32f1xx_hal_gpio.c ****   assert_param(IS_GPIO_PIN(GPIO_Pin));
 863              		.loc 1 517 3 view .LVU238
 518:Drivers/STM32F1xx_HAL_Driver/Src/stm32f1xx_hal_gpio.c **** 
 519:Drivers/STM32F1xx_HAL_Driver/Src/stm32f1xx_hal_gpio.c ****   /* Apply lock key write sequence */
 520:Drivers/STM32F1xx_HAL_Driver/Src/stm32f1xx_hal_gpio.c ****   SET_BIT(tmp, GPIO_Pin);
 864              		.loc 1 520 3 view .LVU239
 865 0008 019B     		ldr	r3, [sp, #4]
 866 000a 0B43     		orrs	r3, r3, r1
 867 000c 0193     		str	r3, [sp, #4]
 521:Drivers/STM32F1xx_HAL_Driver/Src/stm32f1xx_hal_gpio.c ****   /* Set LCKx bit(s): LCKK='1' + LCK[15-0] */
 522:Drivers/STM32F1xx_HAL_Driver/Src/stm32f1xx_hal_gpio.c ****   GPIOx->LCKR = tmp;
 868              		.loc 1 522 3 view .LVU240
 869              		.loc 1 522 15 is_stmt 0 view .LVU241
 870 000e 019B     		ldr	r3, [sp, #4]
 871 0010 8361     		str	r3, [r0, #24]
 523:Drivers/STM32F1xx_HAL_Driver/Src/stm32f1xx_hal_gpio.c ****   /* Reset LCKx bit(s): LCKK='0' + LCK[15-0] */
 524:Drivers/STM32F1xx_HAL_Driver/Src/stm32f1xx_hal_gpio.c ****   GPIOx->LCKR = GPIO_Pin;
 872              		.loc 1 524 3 is_stmt 1 view .LVU242
ARM GAS  C:\Users\LIGUOH~1\AppData\Local\Temp\ccJhcioF.s 			page 27


 873              		.loc 1 524 15 is_stmt 0 view .LVU243
 874 0012 8161     		str	r1, [r0, #24]
 525:Drivers/STM32F1xx_HAL_Driver/Src/stm32f1xx_hal_gpio.c ****   /* Set LCKx bit(s): LCKK='1' + LCK[15-0] */
 526:Drivers/STM32F1xx_HAL_Driver/Src/stm32f1xx_hal_gpio.c ****   GPIOx->LCKR = tmp;
 875              		.loc 1 526 3 is_stmt 1 view .LVU244
 876              		.loc 1 526 15 is_stmt 0 view .LVU245
 877 0014 019B     		ldr	r3, [sp, #4]
 878 0016 8361     		str	r3, [r0, #24]
 527:Drivers/STM32F1xx_HAL_Driver/Src/stm32f1xx_hal_gpio.c ****   /* Read LCKK register. This read is mandatory to complete key lock sequence */
 528:Drivers/STM32F1xx_HAL_Driver/Src/stm32f1xx_hal_gpio.c ****   tmp = GPIOx->LCKR;
 879              		.loc 1 528 3 is_stmt 1 view .LVU246
 880              		.loc 1 528 14 is_stmt 0 view .LVU247
 881 0018 8369     		ldr	r3, [r0, #24]
 882              		.loc 1 528 7 view .LVU248
 883 001a 0193     		str	r3, [sp, #4]
 529:Drivers/STM32F1xx_HAL_Driver/Src/stm32f1xx_hal_gpio.c **** 
 530:Drivers/STM32F1xx_HAL_Driver/Src/stm32f1xx_hal_gpio.c ****   /* read again in order to confirm lock is active */
 531:Drivers/STM32F1xx_HAL_Driver/Src/stm32f1xx_hal_gpio.c ****   if ((uint32_t)(GPIOx->LCKR & GPIO_LCKR_LCKK))
 884              		.loc 1 531 3 is_stmt 1 view .LVU249
 885              		.loc 1 531 23 is_stmt 0 view .LVU250
 886 001c 8369     		ldr	r3, [r0, #24]
 887              		.loc 1 531 6 view .LVU251
 888 001e 13F4803F 		tst	r3, #65536
 889 0022 02D0     		beq	.L78
 532:Drivers/STM32F1xx_HAL_Driver/Src/stm32f1xx_hal_gpio.c ****   {
 533:Drivers/STM32F1xx_HAL_Driver/Src/stm32f1xx_hal_gpio.c ****     return HAL_OK;
 890              		.loc 1 533 12 view .LVU252
 891 0024 0020     		movs	r0, #0
 892              	.LVL78:
 893              	.L77:
 534:Drivers/STM32F1xx_HAL_Driver/Src/stm32f1xx_hal_gpio.c ****   }
 535:Drivers/STM32F1xx_HAL_Driver/Src/stm32f1xx_hal_gpio.c ****   else
 536:Drivers/STM32F1xx_HAL_Driver/Src/stm32f1xx_hal_gpio.c ****   {
 537:Drivers/STM32F1xx_HAL_Driver/Src/stm32f1xx_hal_gpio.c ****     return HAL_ERROR;
 538:Drivers/STM32F1xx_HAL_Driver/Src/stm32f1xx_hal_gpio.c ****   }
 539:Drivers/STM32F1xx_HAL_Driver/Src/stm32f1xx_hal_gpio.c **** }
 894              		.loc 1 539 1 view .LVU253
 895 0026 02B0     		add	sp, sp, #8
 896              	.LCFI9:
 897              		.cfi_remember_state
 898              		.cfi_def_cfa_offset 0
 899              		@ sp needed
 900 0028 7047     		bx	lr
 901              	.LVL79:
 902              	.L78:
 903              	.LCFI10:
 904              		.cfi_restore_state
 537:Drivers/STM32F1xx_HAL_Driver/Src/stm32f1xx_hal_gpio.c ****   }
 905              		.loc 1 537 12 view .LVU254
 906 002a 0120     		movs	r0, #1
 907              	.LVL80:
 537:Drivers/STM32F1xx_HAL_Driver/Src/stm32f1xx_hal_gpio.c ****   }
 908              		.loc 1 537 12 view .LVU255
 909 002c FBE7     		b	.L77
 910              		.cfi_endproc
 911              	.LFE70:
 913              		.section	.text.HAL_GPIO_EXTI_Callback,"ax",%progbits
ARM GAS  C:\Users\LIGUOH~1\AppData\Local\Temp\ccJhcioF.s 			page 28


 914              		.align	1
 915              		.weak	HAL_GPIO_EXTI_Callback
 916              		.syntax unified
 917              		.thumb
 918              		.thumb_func
 919              		.fpu softvfp
 921              	HAL_GPIO_EXTI_Callback:
 922              	.LVL81:
 923              	.LFB72:
 540:Drivers/STM32F1xx_HAL_Driver/Src/stm32f1xx_hal_gpio.c **** 
 541:Drivers/STM32F1xx_HAL_Driver/Src/stm32f1xx_hal_gpio.c **** /**
 542:Drivers/STM32F1xx_HAL_Driver/Src/stm32f1xx_hal_gpio.c ****   * @brief  This function handles EXTI interrupt request.
 543:Drivers/STM32F1xx_HAL_Driver/Src/stm32f1xx_hal_gpio.c ****   * @param  GPIO_Pin: Specifies the pins connected EXTI line
 544:Drivers/STM32F1xx_HAL_Driver/Src/stm32f1xx_hal_gpio.c ****   * @retval None
 545:Drivers/STM32F1xx_HAL_Driver/Src/stm32f1xx_hal_gpio.c ****   */
 546:Drivers/STM32F1xx_HAL_Driver/Src/stm32f1xx_hal_gpio.c **** void HAL_GPIO_EXTI_IRQHandler(uint16_t GPIO_Pin)
 547:Drivers/STM32F1xx_HAL_Driver/Src/stm32f1xx_hal_gpio.c **** {
 548:Drivers/STM32F1xx_HAL_Driver/Src/stm32f1xx_hal_gpio.c ****   /* EXTI line interrupt detected */
 549:Drivers/STM32F1xx_HAL_Driver/Src/stm32f1xx_hal_gpio.c ****   if (__HAL_GPIO_EXTI_GET_IT(GPIO_Pin) != 0x00u)
 550:Drivers/STM32F1xx_HAL_Driver/Src/stm32f1xx_hal_gpio.c ****   {
 551:Drivers/STM32F1xx_HAL_Driver/Src/stm32f1xx_hal_gpio.c ****     __HAL_GPIO_EXTI_CLEAR_IT(GPIO_Pin);
 552:Drivers/STM32F1xx_HAL_Driver/Src/stm32f1xx_hal_gpio.c ****     HAL_GPIO_EXTI_Callback(GPIO_Pin);
 553:Drivers/STM32F1xx_HAL_Driver/Src/stm32f1xx_hal_gpio.c ****   }
 554:Drivers/STM32F1xx_HAL_Driver/Src/stm32f1xx_hal_gpio.c **** }
 555:Drivers/STM32F1xx_HAL_Driver/Src/stm32f1xx_hal_gpio.c **** 
 556:Drivers/STM32F1xx_HAL_Driver/Src/stm32f1xx_hal_gpio.c **** /**
 557:Drivers/STM32F1xx_HAL_Driver/Src/stm32f1xx_hal_gpio.c ****   * @brief  EXTI line detection callbacks.
 558:Drivers/STM32F1xx_HAL_Driver/Src/stm32f1xx_hal_gpio.c ****   * @param  GPIO_Pin: Specifies the pins connected EXTI line
 559:Drivers/STM32F1xx_HAL_Driver/Src/stm32f1xx_hal_gpio.c ****   * @retval None
 560:Drivers/STM32F1xx_HAL_Driver/Src/stm32f1xx_hal_gpio.c ****   */
 561:Drivers/STM32F1xx_HAL_Driver/Src/stm32f1xx_hal_gpio.c **** __weak void HAL_GPIO_EXTI_Callback(uint16_t GPIO_Pin)
 562:Drivers/STM32F1xx_HAL_Driver/Src/stm32f1xx_hal_gpio.c **** {
 924              		.loc 1 562 1 is_stmt 1 view -0
 925              		.cfi_startproc
 926              		@ args = 0, pretend = 0, frame = 0
 927              		@ frame_needed = 0, uses_anonymous_args = 0
 928              		@ link register save eliminated.
 563:Drivers/STM32F1xx_HAL_Driver/Src/stm32f1xx_hal_gpio.c ****   /* Prevent unused argument(s) compilation warning */
 564:Drivers/STM32F1xx_HAL_Driver/Src/stm32f1xx_hal_gpio.c ****   UNUSED(GPIO_Pin);
 929              		.loc 1 564 3 view .LVU257
 565:Drivers/STM32F1xx_HAL_Driver/Src/stm32f1xx_hal_gpio.c ****   /* NOTE: This function Should not be modified, when the callback is needed,
 566:Drivers/STM32F1xx_HAL_Driver/Src/stm32f1xx_hal_gpio.c ****            the HAL_GPIO_EXTI_Callback could be implemented in the user file
 567:Drivers/STM32F1xx_HAL_Driver/Src/stm32f1xx_hal_gpio.c ****    */
 568:Drivers/STM32F1xx_HAL_Driver/Src/stm32f1xx_hal_gpio.c **** }
 930              		.loc 1 568 1 is_stmt 0 view .LVU258
 931 0000 7047     		bx	lr
 932              		.cfi_endproc
 933              	.LFE72:
 935              		.section	.text.HAL_GPIO_EXTI_IRQHandler,"ax",%progbits
 936              		.align	1
 937              		.global	HAL_GPIO_EXTI_IRQHandler
 938              		.syntax unified
 939              		.thumb
 940              		.thumb_func
 941              		.fpu softvfp
 943              	HAL_GPIO_EXTI_IRQHandler:
 944              	.LVL82:
ARM GAS  C:\Users\LIGUOH~1\AppData\Local\Temp\ccJhcioF.s 			page 29


 945              	.LFB71:
 547:Drivers/STM32F1xx_HAL_Driver/Src/stm32f1xx_hal_gpio.c ****   /* EXTI line interrupt detected */
 946              		.loc 1 547 1 is_stmt 1 view -0
 947              		.cfi_startproc
 948              		@ args = 0, pretend = 0, frame = 0
 949              		@ frame_needed = 0, uses_anonymous_args = 0
 547:Drivers/STM32F1xx_HAL_Driver/Src/stm32f1xx_hal_gpio.c ****   /* EXTI line interrupt detected */
 950              		.loc 1 547 1 is_stmt 0 view .LVU260
 951 0000 08B5     		push	{r3, lr}
 952              	.LCFI11:
 953              		.cfi_def_cfa_offset 8
 954              		.cfi_offset 3, -8
 955              		.cfi_offset 14, -4
 549:Drivers/STM32F1xx_HAL_Driver/Src/stm32f1xx_hal_gpio.c ****   {
 956              		.loc 1 549 3 is_stmt 1 view .LVU261
 549:Drivers/STM32F1xx_HAL_Driver/Src/stm32f1xx_hal_gpio.c ****   {
 957              		.loc 1 549 7 is_stmt 0 view .LVU262
 958 0002 054B     		ldr	r3, .L85
 959 0004 5B69     		ldr	r3, [r3, #20]
 549:Drivers/STM32F1xx_HAL_Driver/Src/stm32f1xx_hal_gpio.c ****   {
 960              		.loc 1 549 6 view .LVU263
 961 0006 0342     		tst	r3, r0
 962 0008 00D1     		bne	.L84
 963              	.LVL83:
 964              	.L81:
 554:Drivers/STM32F1xx_HAL_Driver/Src/stm32f1xx_hal_gpio.c **** 
 965              		.loc 1 554 1 view .LVU264
 966 000a 08BD     		pop	{r3, pc}
 967              	.LVL84:
 968              	.L84:
 551:Drivers/STM32F1xx_HAL_Driver/Src/stm32f1xx_hal_gpio.c ****     HAL_GPIO_EXTI_Callback(GPIO_Pin);
 969              		.loc 1 551 5 is_stmt 1 view .LVU265
 970 000c 024B     		ldr	r3, .L85
 971 000e 5861     		str	r0, [r3, #20]
 552:Drivers/STM32F1xx_HAL_Driver/Src/stm32f1xx_hal_gpio.c ****   }
 972              		.loc 1 552 5 view .LVU266
 973 0010 FFF7FEFF 		bl	HAL_GPIO_EXTI_Callback
 974              	.LVL85:
 554:Drivers/STM32F1xx_HAL_Driver/Src/stm32f1xx_hal_gpio.c **** 
 975              		.loc 1 554 1 is_stmt 0 view .LVU267
 976 0014 F9E7     		b	.L81
 977              	.L86:
 978 0016 00BF     		.align	2
 979              	.L85:
 980 0018 00040140 		.word	1073808384
 981              		.cfi_endproc
 982              	.LFE71:
 984              		.text
 985              	.Letext0:
 986              		.file 2 "c:\\gnu_tool_arm_embedded\\arm-none-eabi\\include\\machine\\_default_types.h"
 987              		.file 3 "c:\\gnu_tool_arm_embedded\\arm-none-eabi\\include\\sys\\_stdint.h"
 988              		.file 4 "Drivers/CMSIS/Include/core_cm3.h"
 989              		.file 5 "Drivers/CMSIS/Device/ST/STM32F1xx/Include/system_stm32f1xx.h"
 990              		.file 6 "Drivers/CMSIS/Device/ST/STM32F1xx/Include/stm32f103xb.h"
 991              		.file 7 "Drivers/STM32F1xx_HAL_Driver/Inc/stm32f1xx_hal_def.h"
 992              		.file 8 "Drivers/STM32F1xx_HAL_Driver/Inc/stm32f1xx_hal_gpio.h"
 993              		.file 9 "Drivers/STM32F1xx_HAL_Driver/Inc/stm32f1xx_hal.h"
ARM GAS  C:\Users\LIGUOH~1\AppData\Local\Temp\ccJhcioF.s 			page 30


ARM GAS  C:\Users\LIGUOH~1\AppData\Local\Temp\ccJhcioF.s 			page 31


DEFINED SYMBOLS
                            *ABS*:00000000 stm32f1xx_hal_gpio.c
C:\Users\LIGUOH~1\AppData\Local\Temp\ccJhcioF.s:16     .text.HAL_GPIO_Init:00000000 $t
C:\Users\LIGUOH~1\AppData\Local\Temp\ccJhcioF.s:24     .text.HAL_GPIO_Init:00000000 HAL_GPIO_Init
C:\Users\LIGUOH~1\AppData\Local\Temp\ccJhcioF.s:381    .text.HAL_GPIO_Init:0000017c $d
C:\Users\LIGUOH~1\AppData\Local\Temp\ccJhcioF.s:401    .text.HAL_GPIO_Init:000001c8 $t
C:\Users\LIGUOH~1\AppData\Local\Temp\ccJhcioF.s:468    .text.HAL_GPIO_Init:00000208 $d
C:\Users\LIGUOH~1\AppData\Local\Temp\ccJhcioF.s:478    .text.HAL_GPIO_DeInit:00000000 $t
C:\Users\LIGUOH~1\AppData\Local\Temp\ccJhcioF.s:485    .text.HAL_GPIO_DeInit:00000000 HAL_GPIO_DeInit
C:\Users\LIGUOH~1\AppData\Local\Temp\ccJhcioF.s:718    .text.HAL_GPIO_DeInit:000000f0 $d
C:\Users\LIGUOH~1\AppData\Local\Temp\ccJhcioF.s:725    .text.HAL_GPIO_ReadPin:00000000 $t
C:\Users\LIGUOH~1\AppData\Local\Temp\ccJhcioF.s:732    .text.HAL_GPIO_ReadPin:00000000 HAL_GPIO_ReadPin
C:\Users\LIGUOH~1\AppData\Local\Temp\ccJhcioF.s:765    .text.HAL_GPIO_WritePin:00000000 $t
C:\Users\LIGUOH~1\AppData\Local\Temp\ccJhcioF.s:772    .text.HAL_GPIO_WritePin:00000000 HAL_GPIO_WritePin
C:\Users\LIGUOH~1\AppData\Local\Temp\ccJhcioF.s:802    .text.HAL_GPIO_TogglePin:00000000 $t
C:\Users\LIGUOH~1\AppData\Local\Temp\ccJhcioF.s:809    .text.HAL_GPIO_TogglePin:00000000 HAL_GPIO_TogglePin
C:\Users\LIGUOH~1\AppData\Local\Temp\ccJhcioF.s:839    .text.HAL_GPIO_LockPin:00000000 $t
C:\Users\LIGUOH~1\AppData\Local\Temp\ccJhcioF.s:846    .text.HAL_GPIO_LockPin:00000000 HAL_GPIO_LockPin
C:\Users\LIGUOH~1\AppData\Local\Temp\ccJhcioF.s:914    .text.HAL_GPIO_EXTI_Callback:00000000 $t
C:\Users\LIGUOH~1\AppData\Local\Temp\ccJhcioF.s:921    .text.HAL_GPIO_EXTI_Callback:00000000 HAL_GPIO_EXTI_Callback
C:\Users\LIGUOH~1\AppData\Local\Temp\ccJhcioF.s:936    .text.HAL_GPIO_EXTI_IRQHandler:00000000 $t
C:\Users\LIGUOH~1\AppData\Local\Temp\ccJhcioF.s:943    .text.HAL_GPIO_EXTI_IRQHandler:00000000 HAL_GPIO_EXTI_IRQHandler
C:\Users\LIGUOH~1\AppData\Local\Temp\ccJhcioF.s:980    .text.HAL_GPIO_EXTI_IRQHandler:00000018 $d

NO UNDEFINED SYMBOLS
