:020000040800F2
:10000000A812002035020008F51E0008C31D0008D4
:10001000F11E0008B918000865350008000000004E
:10002000000000000000000000000000DD290008C2
:10003000C1190008000000004D270008F12A00083F
:100040004F0200084F0200084F0200084F0200084C
:100050004F0200084F0200084F0200084F0200083C
:100060004F0200084F0200084F020008BD180008A8
:100070004F0200084F0200084F0200084F0200081C
:100080004F0200084F0200084F0200084F0200080C
:100090004F0200084F0200084F0200084F020008FC
:1000A0004F020008552B00084F0200084F020008BD
:1000B000A92B00084F0200084F0200084F02000859
:1000C0004F0200084F0200084F0200084F020008CC
:1000D0004F020008593100084F0200084F02000883
:1000E0004F0200084F0200084F0200084F020008AC
:1000F0004F0200084F0200084F0200084F0200089C
:100100004F0200084F0200084F0200084F0200088B
:100110004F0200084F0200084F0200084F0200087B
:100120004F0200084F0200084F0200084F0200086B
:1001300000F002F800F06EF80AA090E8000C82448B
:100140008344AAF10107DA4501D100F063F8AFF268
:10015000090EBAE80F0013F0010F18BFFB1A43F0A5
:1001600001031847644F0000844F000010F8013B62
:100170000A4413F0030408BF10F8014B1D1108BF17
:1001800010F8015B641E05D010F8016B641E01F8C5
:10019000016BF9D1002D15D010F8014B03F00C03C1
:1001A0000C2BA1EB04040ABF10F8013BA4EB831451
:1001B000A4EB032405F1010314F8016B5B1E01F8A5
:1001C000016BF9D5914238BF10F8013BD1D370478C
:1001D0000023002400250026103A28BF78C1FBD850
:1001E000520728BF30C148BF0B607047662904F032
:1001F0001283642900F08880002070471FB500F04A
:10020000E1FB04000020002103F0FCFCE0601FBDC6
:1002100010B510BD00F0D6FC1146FFF7EFFF03F05C
:10022000F1FA00F0F4FC03B4FFF7F2FF03BC03F0B3
:100230000CFA00000948804709480047FEE7FEE73E
:10024000FEE7FEE7FEE7FEE7FEE7FEE7FEE7FEE786
:1002500004480549054A064B70470000F52A000886
:1002600031010008A80C0020A8120020A80E0020D0
:10027000A80E0020704700000FB4044910B503AA6F
:10028000029800F08DFB10BC5DF814FB940A00206E
:100290000FB41CB5074B06AA7B446946009005982D
:1002A00000F065FB0020694600F074FB1CBC5DF8A3
:1002B00014FB0000F906000070B50446856900686B
:1002C000C10601D5302600E02026C00707D070BD4A
:1002D000D4E9012130469047206A401C20626D1EFF
:1002E000F6D570BD70B5044685690078C00707D1A2
:1002F00070BDD4E9012120209047206A401C206273
:100300006D1EF6D570BD00002DE9F04106460024B3
:1003100010687529314616A510D0AFF3008000286B
:1003200002DA404213A507E031688A0701D512A519
:1003300002E0490704D511A5012401E0AFF30080D4
:1003400000210A2206F1240709E0B0FBF2FCB0FB11
:10035000F2F302FB1C00303078541846491C002888
:10036000F3D123462A463046BDE8F04100F093B869
:10037000000000002D0000002B0000002000000005
:100380002DE9F0474FF0000A89460446C0F820A046
:100390002046E1688847002876D0252806D0D4E991
:1003A00001219047206A401C2062F1E7E168204665
:1003B00000258847C4F81CA006460027C4F818A0EA
:1003C0002A2E09D0304603F039F938B304EB8708F8
:1003D000303EC8F8186019E059F8041B204604EBB9
:1003E00087029161E1688847012F064618D1E069CC
:1003F000002820DA25F020051DE0D8F8180000EBD1
:10040000800006EB40003038C8F818002046E1684C
:100410008847064603F012F90028EED1012F0AD0D2
:100420002E2E08D12046E16888477F1C0646022F01
:1004300045F02005C4DBA069002803DA404245F0FE
:100440000105A061E80701D025F01005B6B1A6F1BD
:100450004100192802D8203645F400654A46314645
:10046000204625604D46FFF7C1FE58B1012806D051
:10047000ED1D25F0070000F1080989E704E005F10A
:10048000040985E730468AE7206ABDE8F0877047AF
:100490007047704770472DE9F0470D4699469246E0
:1004A000044600F124080168880604D5E06921F0BB
:1004B0001001216000E00120A84201DD471B00E09F
:1004C0000027A1697A1902EB0900081AA0612078B7
:1004D000C00602D42046FFF7EFFE002608E0D4E96C
:1004E00001211AF806009047206A401C761C206201
:1004F0004E45F4DB2078C0060AD52046FFF7DCFE27
:1005000006E0D4E9012130209047206A401C206297
:10051000381EA7F10107F4DC07E0D4E9012118F83F
:1005200005009047206A401C2062281EA5F10105A5
:10053000F3DC2046FFF7D6FE2078000602D5022025
:10054000BDE8F0870120FBE770472DE9FF4F0C461F
:100550001E464FF0FF378BB0D2E90001DDF8608016
:100560000A908A46C1F30A5505B93D46002108465E
:100570004FF00000BAF1000F00F4400005DA00EB84
:1005800080004FF4400101EA50004FEA9059B9F160
:10059000010F00DDB9460A9850EA4A000ED044F631
:1005A0001050A5F2FF3545432F14B8F1000F1ED0AF
:1005B0007542291E1EDDC9F100021CE0B8F1010FD1
:1005C0004FF0000001D0302103E0F24305E0215458
:1005D000401CB042FBDB30460022002121540B9925
:1005E000C1F80880C1E900200FB0BDE8F08FBD1B45
:1005F0006D1CDEE74A4600DA694206A800F06CFA94
:1006000006AB93E8070003AB83E8070050460A995E
:1006100000F046FB8DE80700A0F500501F38009061
:100620000398002D09DD42F21F014A46084403A940
:100630000390684600F0A5FD08E0A0F500504A468A
:100640001F3803A90390684600F0AFFD8DE807004E
:100650000004000C03D04FF0FF30410800E01046CA
:10066000B8F1000F03D00022009215461EE0751E5F
:1006700005D400F0ABF9303262556D1EF9D5B346A2
:100680000122084302D000227F1C04E02078302899
:1006900001D100227F1E002A099786D01DE0112D6E
:1006A00007DA00F093F9303262556D1C50EA01020E
:1006B000F5D1084302D00098C8B10EE00021681EB1
:1006C00005E0235C625C63542254401E491C814255
:1006D000F7DBAB46A81B401E0990002004F80B0076
:1006E0000B98099AC0F80880C0E9002B7CE7112616
:1006F0004FF0000859E72DE9F04F88460446D21D17
:1007000022F0070191B0D1E90001CDE90A0102F020
:1007100081FF02460B98C00F01D02D2007E0206812
:10072000810701D52B2002E0202101EAC000032A25
:10073000099001D0072A05DB03464146204600F018
:100740008BF90BE12078800601D5E06900E00620F6
:10075000B8F1650F814606D0B8F1660F18D0B8F130
:10076000670F70D131E00020B9F1110F009001DB6B
:10077000112301E009F101030AAA01A90CA8FFF75E
:10078000E4FEDDE90C70002609F10105834647E02F
:1007900001204B4600904FF000470AAA01A90CA87F
:1007A000FFF7D3FEDDE90DB00C995D46002610B9C8
:1007B00009F101000D18B9EB050003D4C0F1FF36B3
:1007C00009F10105A5EB09002BE0B9F1010F01DAF0
:1007D0004FF001090020B9F1110F0090484601DDEA
:1007E000112300E003460AAA01A90CA8FFF7ADFEF9
:1007F000DDE90C704D4600268346207800070AD4B8
:10080000AB4500DA5D4601A8012D04DD411911F860
:10081000011C302907D04F4502DA17F1040F04DA22
:10082000012082460FE06D1EEEE7002F02DCED1B7B
:100830003E4403E0781CA84200DD7D1CB81B00F19B
:10084000010A4FF000472078000703D4AA4501DBD6
:100850004FF0FF3A0021B7F1004F0DF143088DF83A
:10086000431024D002202B23002F01DA7F422D23B6
:100870000A21021EA0F1010000DC5FB197FBF1FC30
:1008800097FBF1F201FB1C7C17460CF1300C08F8C9
:1008900001CDEEE7A8F1010003702188090501D51B
:1008A000452100E06521A0F1010800F8011C09982C
:1008B0000FA9A1EB0807FF1D00B10120411901EBB1
:1008C000EA70A1693844081A401EA0612078C00669
:1008D00002D42046FFF7F0FC099828B1D4E90121A1
:1008E0009047206A401C20622078C00622D520460E
:1008F000FFF7E2FC1EE0002E04DBB34502DD01A899
:10090000805D00E03020D4E901219047206A401C3E
:100910002062761CAAF101005FEA000A0AD100F009
:1009200051F8C0680168405CD4E901219047206A11
:10093000401C2062281EA5F10105DCDC07E0D4E99B
:10094000012118F8010B9047206A401C2062381ED4
:10095000A7F10107F3DC2046FFF7C4FC032011B028
:1009600043E6000001694A1C02610878704700B53F
:100970008FB0CDE901310021059105497944CDE9D8
:10098000031011466846FFF7FBFC0FB000BD0000E6
:10099000E5FFFFFF0A6802F8010B0A6070470000DC
:1009A000074B70B50D467B44FFF7E1FF0446284630
:1009B00000F000F910B14FF0FF3070BD204670BD5F
:1009C000372D000000487047680C002030B5B0F1AA
:1009D0000A024FEA900E71F100034EEA817EB0EBFD
:1009E0000E0061EB91014FEA101E4EEA017E10EB02
:1009F0000E0041EB11114FEA102E4EEA016E10EB82
:100A00000E0041EB11214FEA104E4EEA014E10EB61
:100A10000E0041EB1141401841F100014FEAD000B6
:100A200040EA41704FEAD10110EB80054FEA8104A2
:100A300044EA907444EB01046D1944EB0404521B26
:100A4000A3414FF0000348BF0A3200D530BD401C1F
:100A500041F1000130BD00002DE9F0411F46044680
:100A600003260168072A01F4006004DB08B116A51B
:100A700005E016A503E008B115A500E015A521F0D5
:100A800010002060A069C01EA0610FB1401EA061CF
:100A90002046FFF711FC4FB1D4E9012138469047B9
:100AA000206A401C2062C01C206206E0206AFAE72F
:100AB000D4E9012115F8010B9047761EF8D22046A3
:100AC000FFF710FCBDE8F0814E414E006E616E00F4
:100AD000494E4600696E66002DE9F047814616468C
:100AE0008AB0334878440DC88DE80D00304878440A
:100AF000801C03AC0DC884E80D0041F69B3008440F
:100B0000372190FBF1F290FBF1F5A5F1800501FB97
:100B100012041B3C02D56442012000E00020DFF8F3
:100B200090A080460027FA44AAF1BE0A0DE0E00733
:100B300009D03246684607EB47010AEB810100F015
:100B400034FB8DE8070064107F1C002CEFD1184F98
:100B50007F44AC3F18E0E80714D007EB04100DF118
:100B6000180A90E80E008AE80E00C068F04201D131
:100B700098190890324606A903A800F016FB03ABAB
:100B800083E807006D10641C002DE4D132466946ED
:100B9000B8F1000F03A802D000F0F3FA01E000F072
:100BA00004FBC9E90001C9F808200AB0BDE8F087D4
:100BB000C8450000007B00F0800070470048704787
:100BC000480C00207546FFF7F9FFAE460500694660
:100BD000534620F00700854618B020B5FFF738FBD4
:100BE000BDE820404FF000064FF000074FF000082E
:100BF0004FF0000B21F00701AC46ACE8C009ACE8AF
:100C0000C009ACE8C009ACE8C0098D46704710B512
:100C10000446AFF300802046BDE81040FFF703BB59
:100C20004FF0013C50F8042B51F8043B9A4221D17B
:100C3000A2EB0C03934313EACC1317D150F8042B07
:100C400051F8043B9A4215D1A2EB0C03934313EAEB
:100C5000CC130BD150F8042B51F8043B9A4209D124
:100C6000A2EB0C03934313EACC13DBD04FF000004C
:100C7000704700BFD01A01BAB1FA81F101F0180132
:100C800022FA01F0CB40C1F12001DBB2C0B2C01AA0
:100C90002CFA01F3D11A914311EAC311E6D170473E
:100CA0005FEA400C08BF91F0000F4FEA8C234FEA37
:100CB000C12243EA51514FEA1C5018BF00F5F040E1
:100CC0004FEA300018BF41F000415FEA6C5C00F071
:100CD0002980BCF1FF3F08BF40F080407047130CF3
:100CE00006BF12044FF0100C4FF0000C130E04BF9F
:100CF00012020CF1080C130F04BF12010CF1040CCA
:100D0000930F04BF92000CF1020CD30F04BF5200EA
:100D10000CF1010C11464FF00002A0F11F00A0EBF6
:100D20000C00704711F0004F08BF704731F00041D0
:100D30003FF4D5AF0B0C06BF09044FF0100C4FF079
:100D4000000C0B0E04BF09020CF1080C0B0F04BFC2
:100D500009010CF1040C8B0F04BF89000CF1020C8B
:100D6000CB0F04BF49000CF1010CCCF12003A0EB28
:100D70000C0022FA03F302FA0CF241EA030100F13B
:100D80000100704720F07F4C80EA030023F07F478A
:100D9000ACEB070303F57C5300F0004003F1FF03C5
:100DA0002DE980494FEA154B09B44FEA144325EA6F
:100DB0000B4E24EA03480FF2042606EB13274908DA
:100DC0003E785FEA320203FB0667C7F5000707FBC0
:100DD00006F64FEA54374FEAD64606F1020607FBFD
:100DE000066CCCF1005C4FEA1C472CEA074C07FB71
:100DF00006F40CFB06F504EB15464FEA961634BFD5
:100E000000204FF000404FEAD13706FB07FC4FEAC5
:100E10001C4C0CFB0BF7D21B03FB0CF761EB07011F
:100E20000CFB0EF7B0EB074072EB17420CFB08F718
:100E300034BFA2EB0742B2EB074261EB17414FEA26
:100E40000C444FEA910706FB07FC4FEA1C4C0CFBD5
:100E50000BF7B0EBC74072EB573203FB0CF734BF14
:100E6000A2EBC742B2EBC74261EB57310CFB0EF766
:100E7000B0EBC70072EB57720CFB08F734BFA2EB64
:100E8000C702B2EBC70261EB5771039F4FEA816162
:100E900041EA921104EBCC044FEAD1374FEA826267
:100EA00006FB07FC42EA90124FEA80604FEA1C4CB6
:100EB0000CFB0BF7D21B03FB0CF761EB07010CFBE0
:100EC0000EF7B0EB074072EB17420CFB08F734BF8C
:100ED000A2EB0742B2EB074261EB17414FEA8C5598
:100EE0004FEA910704EB9C2406FB07FC4FEA1C4CDD
:100EF0000CFB0BF7B0EBC74072EB573203FB0CF760
:100F000034BFA2EBC742B2EBC74261EB57310CFBD7
:100F10000EF7B0EBC70072EB57720CFB08F734BF4B
:100F2000A2EBC702B2EBC70261EB577115EB4C2580
:100F30004FEA816141EA92114FEA82624FEAD1376A
:100F400042EA901206FB07FC44F100044FEA80607D
:100F50004FEA1C4C0CFB0BF7D21B03FB0CF761EBAD
:100F600007010CFB0EF7B0EB074072EB17420CFBCE
:100F700008F734BFA2EB0742B2EB074261EB17411F
:100F800015EB1C154FEA813141EA92414FEA82325A
:100F900042EA90424FEA80304FEA0C7644F1000476
:100FA00048EA03434EEA0B484FF0000EB2EB080C40
:100FB00071EB030724BF624639464EEB0E0E4FF02D
:100FC000000B0018524149414BEB0B0BB2EB080CE4
:100FD00071EB03077BF1000B24BF624639464EEBF1
:100FE0000E0E4FF0000B0018524149414BEB0B0B1A
:100FF000B2EB080C71EB03077BF1000B24BF6246D8
:1010000039464EEB0E0E51EA020718BF46F00106B4
:1010100016EB0E7655F1000254F1000103D5BDE840
:101020008901BDE80088BDE88901BDE80048B6191E
:10103000524141EB0101A3F10103704780807F7EA3
:101040007D7C7B7A7978777676757473727171703E
:101050006F6E6E6D6C6C6B6A6A69686867666665F0
:101060006464636362616160605F5F5E5E5D5D5C7E
:101070005C5B5B5A5A5959585857575656555555EF
:101080005454535352525251515050504F4F4F4E4F
:101090004E4D4D4D4C4C4C4B4B4B4A4A4A4949499D
:1010A00048484847474747464646454545444444DF
:1010B000444343434342424242414141002B26D4F0
:1010C000770021D01CB54FEA370703B44FF010006A
:1010D0004FF010014FF000000FBCBDE810400BF1C5
:1010E000010BBBF1010F08BF5FEA170722BF12F126
:1010F000010211F101014FF0004143F1000300F042
:10110000004043EA00007047F9D35708DAE746EA9F
:10111000064613F1400F4FEA16461FDD13F1200F6C
:10112000DFBF16430A46002120335B42C8D0C3F11B
:10113000200746EA064602FA07F74FEA164646EA4D
:101140000706C3F1200722FA03F201FA07F721FA92
:1011500003F14FF0000342EA0702B1E746EA020654
:1011600046EA06464FEA164646EA0106BCBF46EA8C
:101170000646360C4FF000034FF000024FF000011E
:101180009EE72DE9C048934630B491E8380007C87F
:1011900031EA400C48BF34EA430C03D5FFF7F2FDB7
:1011A000FFF78CFFF0BCBDE800882DE9C0489346EE
:1011B00030B491E8380007C810F0804F08BF13F032
:1011C000804F03D100F005F8FFF778FFF0BCBDE8D1
:1011D000008820F07F4780EA030023F07F4C07EB74
:1011E0000C03A3F57C5300F00040A3F1FE0392F042
:1011F000000F00F0B38095F0000F00F077802DE92C
:1012000001494FEA11404FEA144621EA004800FB29
:1012100006FC24EA064708FB06F607FB08F800FB75
:1012200007F718EB06484CEB164C4FEA124B18EB3D
:1012300007484FEA15464CEB174022EA0B4E0BFBD2
:1012400006FC25EA06470EFB06F607FB0EFE0BFB27
:1012500007F71EEB064E4CEB164C4FF000061EEB4C
:10126000074E4CEB174B18EB0B0840F1000018EB46
:101270000E0B58EB000840F100008F1A4FF00001F0
:101280003CBFC943661B14BFB5EB040C00213CBF37
:10129000C943F61B4FEA17444EEA8E0E27EA04456F
:1012A0004FEA1C4704FB07622CEA074C05FB07F7D3
:1012B0000CFB05F604FB0CFC16EB074642EB174251
:1012C00016EB0C4642EB1C421BEB060658EB0202E7
:1012D000414146EA9E0601D5BDE80189B619524151
:1012E00041EB0101A3F10103BDE801894FEA144577
:1012F0004FEA114724EA054621EA074C05FB07F4AB
:1013000006FB07F70CFB06F105FB0CFC11EB074194
:1013100044EB17444FEA124711EB0C4144EB1C44D9
:1013200022EA074C05FB07F206FB07F70CFB06F663
:1013300005FB0CFC16EB074642EB174216EB0C467E
:1013400042EB1C456A1854F1000148BF7047B619BA
:10135000524141EB0101A3F10103704795F0000FE9
:1013600037D04FEA11424FEA144721EA024624EAF5
:10137000074C02FB07F106FB07F70CFB06F402FB28
:101380000CFC14EB074441EB17414FEA154714EBF3
:101390000C4441EB1C4125EA074C02FB07F506FB18
:1013A00007F70CFB06F602FB0CFC16EB074645EBB9
:1013B000174516EB0C4645EB1C42121951F1000182
:1013C00048BF7047B619524141EB0101A3F1010337
:1013D00070474FEA14454FEA114724EA054621EACF
:1013E000074C05FB07F106FB07F70CFB06F24FF075
:1013F000000605FB0CFC12EB074241EB174112EB18
:101400000C4251EB1C4148BF7047921841EB01015F
:10141000A3F10103704721B1826842F001028260AA
:1014200003E0826822F001028260704721B1826885
:1014300042F48072826003E0826822F480728260EB
:101440007047000000B593B00121084601F02CFA66
:1014500003200A900020099011904D4808904FF405
:1014600080600E9080200C9020200F9049480790BB
:1014700080150D9000200B904FF48050109007A91C
:10148000454800F060FA01220221434800F052FA78
:101490000B20012181404209920002F1E022C2F8B2
:1014A000001100BF8DF8040001208DF80500002018
:1014B0008DF8060001208DF8070001A800F01CFD42
:1014C0000121354800F014FA01214FF4017001F0B8
:1014D0000BFA0720ADF8480000208DF84B0012A948
:1014E0002E4800F08DFB00208DF80D0005904FF484
:1014F000202004900020029003208DF81800012085
:101500008DF80C0002A923484C3800F047F901215E
:1015100020484C38FFF77FFF01211E484C38FFF769
:1015200085FF4FF4404001F0B3F907230122002169
:1015300018484C3800F05AF90723022201211548B7
:101540004C3800F053F907230322022111484C388C
:1015500000F04CF90F484C3800F0A4F900BF0D48DA
:101560004C3800F028F80028F9D10A484C3800F02F
:101570009EF900BF07484C3800F01DF80028F9D14B
:10158000012104484C3800F00BF813B000BD0000F6
:10159000B00A00204C24014008000240000801402D
:1015A00021B1826842F48012826003E0826822F4F2
:1015B000801282607047014600208A6802F00402AF
:1015C0000AB1012000E00020704700002DE9F04F33
:1015D00087B000200490059006904FF0070A3FE086
:1015E000AAF10100654931F81010644820F81A107A
:1015F000AAF101006149103131F810105F48103034
:1016000020F81A10AAF101005C49203131F81010BD
:101610005A48203020F81A10584931F81A0002F0C0
:101620003FFF0446049902F0B7FD0490534910317E
:1016300031F81A0002F034FF0446059902F0ACFDBF
:1016400005904E49203131F81A0002F029FF044676
:10165000069902F0A1FD0690AAF101001FFA80FA96
:10166000BAF1000FBCDC4548801F00884349891F40
:10167000C88008464088C88208468088C884C888D0
:1016800002F00EFF0446049902F086FD04903B49E7
:10169000891FC88A02F004FF0446059902F07CFD08
:1016A00005903649891FC88C02F0FAFE0446069957
:1016B00002F072FD06904FF08241049802F0DAFDCC
:1016C000834602F03DFD80464FF066322C4B02F01F
:1016D00039FC06462B4A2C4B02F034FC044602F03F
:1016E000A7FA2649891F88634FF08241059802F0C6
:1016F000C1FD834602F024FD4FF06632204BCDE958
:10170000000102F01FFC0022204BCDE9020102F093
:10171000C1FA064600221E4B02F0BCFA80461D4A62
:101720001D4B02F0B7FA044602F082FA1349891FF2
:10173000C8634FF08241069802F09CFD834602F098
:10174000FFFC06464FF066320D4B02F0FBFB804675
:101750000C4A0D4B02F0F6FB044602F069FA074909
:10176000891F0864C86B002102F0AEFE03D200207E
:101770000249891FC86307B0BDE8F08FB60A002090
:1017800066664A3FD8D7D7D7D7D7324000205140D6
:101790000000F43F7B14AE47E17A843F30B5024647
:1017A0000020002350680F4C20400D790C6844EA5B
:1017B00005242043506090680B4C2040D1E902542E
:1017C0002C434D7944EA450420439060D06A20F4CC
:1017D00070000C7C641EE4B2234340EA0350D062E4
:1017E00030BD0000FFFEF0FFFDF7F1FFF0B504464D
:1017F0000D4600200021092D11DDE068A5F10A0643
:1018000006EB4607072606FA07F18843A5F10A0604
:1018100006EB460603FA06F10843E0600CE0206997
:1018200005EB4507072606FA07F1884305EB450651
:1018300003FA06F108432061072A0FDA606B561E8F
:1018400006EB86071F2606FA07F18843561E06EBAD
:10185000860605FA06F10843606322E00D2A0FDAD6
:10186000206BD61F06EB86071F2606FA07F1884372
:10187000D61F06EB860605FA06F10843206310E042
:10188000E06AA2F10D0606EB86071F2606FA07F1AD
:101890008843A2F10D0606EB860605FA06F1084319
:1018A000E062F0BD816841F00801816070478168A5
:1018B00041F004018160704700BFFEE710B50220CF
:1018C00000F022F8012804D1FFF780FE022000F08A
:1018D00001F810BD00F0805111B10349086001E02A
:1018E00002494860704700000404024000000240C2
:1018F00021B1026842F00102026004E002684FF682
:10190000FE731A400260704701460020002201F079
:10191000805313B1054B1A6801E0054B1A6802EABF
:1019200001030BB1012000E00020704700040240D9
:10193000000002401AB103680B43036002E0036831
:101940008B430360704710B50022026847F6F073BE
:101950009A430C6A8B6823430C6923434C692343E5
:101960008C692343CC6923434C6A23438C6A234309
:101970001A430260CB6843600B6883604B68C360A6
:1019800010BD000010B54FF400710C4800F00CFAC7
:1019900090B90A2001F07EFE4FF40071074800F074
:1019A00003FA48B900BF4FF40071044800F0FCF995
:1019B0000028F8D0012010BD0020FCE7000C0140F9
:1019C0007047000010B58348807C002873D082489F
:1019D000006800F0100048B97F48006800F020005F
:1019E00020B901207D490870002010BD7A480068A8
:1019F00000F01000002872D17748006800F0200045
:101A000000286CD075480078002868D008207249FA
:101A10000831086001207249487008468078B0B9E2
:101A20000A465168906802F0B7FB6D498860886883
:101A30006C4902F049FE01D26A4801E068488068BA
:101A400069490860084600686549886047E064485D
:101A50008078012816D1624A5168D06802F09CFB58
:101A60005F49C860C868614902F02EFE01D25F4834
:101A700001E05B48C0685E49086008460068584954
:101A8000C8602CE056488078022815D1544948682F
:101A9000584902F081FB5249486048684FF0804144
:101AA00002F012FE02D24FF0804001E04C48406844
:101AB0004B49486013E08BE04948807803280ED1F9
:101AC0004D480068401C4C490860084600680A28D8
:101AD00001DD0A2001E048480068474908603E48A7
:101AE000006800F0100000286FD03B48006800F04C
:101AF0002000002869D139480078002865D00820E6
:101B00003549083108600120354948700846807819
:101B1000B0B90A465168906802F008FE3049886002
:101B20008868002102F0D0FC01D2002001E02C489E
:101B300080682D490860084600682949886044E0AB
:101B400027488078012816D1254A5168D06802F0CC
:101B5000EDFD2349C860C868002102F0B5FC01D240
:101B6000002001E01E48C06821490860084600685E
:101B70001B49C86029E01A488078022812D1184908
:101B800048681C4902F0D2FD1549486048681B4965
:101B900002F09AFC01D2194801E01148406810494E
:101BA000486012E00E48807803280ED11248006881
:101BB000401E1149086008460068002801DA00202C
:101BC00001E00D4800680C490860002003490870D6
:101BD00000200AE76C0B0020080C014038000020B0
:101BE0001400002000004A42F40A002000000841CE
:101BF000300B0020CDCC4C3E7C0A0020CDCCCC3D1F
:101C00002DE9F04102460025002600200023002493
:101C1000002791F803C00CF00F0591F803C00CF0F9
:101C2000100CBCF1000F03D091F802C04CEA05057E
:101C300091F800C0BCF1000F31D0146800202BE0F7
:101C40004FF0010C0CFA00F3B1F800C00CEA0306E7
:101C50009E4220D183004FF00F0C0CFA03F7BC43D7
:101C600005FA03FC4CEA040491F803C0BCF1280F08
:101C700006D14FF0010C0CFA00FCC2F814C00AE0C7
:101C800091F803C0BCF1480F05D14FF0010C0CFADC
:101C900000FCC2F810C0401C0828D1D31460B1F871
:101CA00000C0BCF1FF0F34DD546800202EE000F1CD
:101CB000080C4FF0010808FA0CF3B1F800C00CEA68
:101CC00003069E4221D183004FF00F0C0CFA03F75C
:101CD000BC4305FA03FC4CEA040491F803C0BCF1D0
:101CE000280F05D100F1080C08FA0CF8C2F814808E
:101CF00091F803C0BCF1480F07D100F1080C4FF078
:101D0000010808FA0CF8C2F81080401C0828CED34D
:101D10005460BDE8F0810000F0B50A4600230024BD
:101D20000021002500F00046B6F1004F02D11D4E03
:101D3000F16901E01B4E7168C0F3034583B200F402
:101D40004016B6F5401F08D121F07061154E766837
:101D500026F07066134F7E6012E000F48016B6F530
:101D6000801F06D1032606FA05F4A14341F07061F5
:101D700006E0460D360103FA06F6B14341F0706104
:101D800022B1460D360103FA06F6314300F0004653
:101D9000B6F1004F02D1034EF16101E0014E7160D6
:101DA000F0BD0000000001400246002093680B4097
:101DB0000BB1012000E000207047416170470161D4
:101DC000704700BFFEE7000010B520210748FFF76D
:101DD000F6FF80210548FFF7F2FF80210348FFF757
:101DE000ECFF20210148FFF7E8FF10BD000801408B
:101DF00010B520210548FFF7E2FF80210348FFF7D7
:101E0000DCFF80210148FFF7DAFF10BD0008014028
:101E100010B520210348FFF7D2FF20210148FFF72A
:101E2000CCFF10BD0008014008B50121082000F0DA
:101E30005BFD0121042000F057FD0121092000F085
:101E400053FD01211948FFF767FF4FF44C70ADF8BF
:101E5000000048208DF8030069461548FFF7D0FEC2
:101E60000820ADF8000048208DF8030069461148AD
:101E7000FFF7C6FE0820ADF8000010208DF8030023
:101E800003208DF8020069460948FFF7B9FE0821D2
:101E90000748FFF792FF4FF480710548FFF78FFF67
:101EA0004FF400710248FFF78AFF08BD00023000BE
:101EB000000C01400008014008B501210C2000F091
:101EC00013FD4FF4C050ADF8000010208DF8030052
:101ED00003208DF8020069460448FFF791FE4FF495
:101EE000C0510248FFF76BFF08BD0000000C014025
:101EF00000BFFEE77047000070B5002100230F22ED
:101F0000C47804B3154C246804F4E064C4F5E064B8
:101F1000210AC1F10403CA40447804FA03F1847829
:101F20001440214309010E4C0678A155047804F0B1
:101F30001F050124AC4005786D11AD0005F1E025C9
:101F4000C5F8004109E0047804F01F050124AC4005
:101F5000044D0678761145F8264070BD0CED00E082
:101F600000E400E080E100E002490143024A116020
:101F7000704700000000FA050CED00E070B5002489
:101F800018E004F1B000002100F059F900210846E2
:101F900000F055F90021102000F051F9002505E06E
:101FA0000121002000F04BF9681CC5B2802DF7DB41
:101FB000601CC4B2082CE4DB70BD000008B5012130
:101FC000042000F091FCA020ADF8000010208DF856
:101FD000030003208DF8020069463C48FFF710FE1D
:101FE000A0213A48FFF7EBFE4FF4487001F052FB96
:101FF0000021AE2000F023F90021084600F01FF96F
:102000000021102000F01BF90021402000F017F9FA
:102010000021B02000F013F90021812000F00FF919
:102020000021FF2000F00BF90021A12000F007F9AA
:102030000021A62000F003F90021A82000F0FFF8FD
:1020400000213F2000F0FBF80021C82000F0F7F845
:102050000021D32000F0F3F80021084600F0EFF84B
:102060000021D52000F0EBF80021802000F0E7F8F7
:102070000021D82000F0E3F80021052000F0DFF86F
:102080000021D92000F0DBF80021F12000F0D7F882
:102090000021DA2000F0D3F80021122000F0CFF860
:1020A0000021DB2000F0CBF80021302000F0C7F841
:1020B00000218D2000F0C3F80021142000F0BFF8AB
:1020C0000021AF2000F0BBF808BD0000000801406F
:1020D00070B504460D4605F1B000002100F0AFF8E0
:1020E000102141EA1410002100F0A9F804F00F00BB
:1020F000002100F0A4F870BD2DE9F04180460E46A5
:102100001546002731464046FFF7E2FF00240AE06B
:10211000124A02EB8511085D012100F090F8781C4D
:10212000C7B2601CC4B2102CF2DB701CC1B24046B6
:10213000FFF7CEFF00240CE06900491C074A02EBC0
:102140004111085D012100F07AF8781CC7B2601CCB
:10215000C4B2102CF0DBBDE8F08100003900002093
:102160002DE9F04707460E46904699460025002483
:10217000A8F12000C5B27F2F02DD0027B01CC6B237
:10218000B9F1100F24D131463846FFF7A1FF0024E2
:1021900008E004EB0511194A505C012100F04FF8EA
:1021A000601CC4B2082CF4DB701CC1B23846FFF7C7
:1021B0008FFF002409E004EB051108310F4A505C41
:1021C000012100F03CF8601CC4B2082CF3DB12E0E3
:1021D00031463846FFF77CFF00240AE005EB450155
:1021E000074A02EB4101085D012100F028F8601C5C
:1021F000C4B2062CF2DBBDE8F0870000424A0008BA
:102200001A4800082DE9F04104460F461546984645
:1022100000260FE0AA5D434639462046FFF7A0FF9F
:1022200004F10800C4B2782C02DD0024B81CC7B247
:10223000701CC6B2A85D0028ECD1BDE8F08170B575
:1022400004460D461DB1E0B201F0CEF902E0E0B265
:1022500001F0B4F970BD000070B59CB0A949086CDC
:1022600001F06EFF044622460B46A7A10DA8FEF71B
:102270000FF808230DAA00210846FFF7C3FFA14A63
:10228000D16B906B02F054F9064601F059FF0446F9
:1022900022460B469FA107A8FDF7FAFF082307AACD
:1022A00001210020FFF7AEFF9D48C2799DA104A83F
:1022B000FDF7EEFF08239DA200215A20FFF7A2FFA1
:1022C000082304AA01215A20FFF79CFF9948807C2B
:1022D00000286FD09848807800286DD1102397A2ED
:1022E0000221FFF78FFF282202213920FFF704FF88
:1022F000142204210020FFF7FFFE152204211220E2
:10230000FFF7FAFE162204212420FFF7F5FE17221C
:1023100004213620FFF7F0FE192206210020FFF7E6
:10232000EBFE1A2206211220FFF7E6FE1B220621F1
:102330002420FFF7E1FE1C2206213620FFF7DCFEF9
:102340008049086801F0FCFE044622460B467EA147
:1023500019A8FDF79DFF6B49886B01F0F1FE04465B
:1023600022460B4678A116A8FDF792FF102319AA62
:1023700004214620FFF746FF102316AA0621462017
:10238000FFF740FF5F49C86B01F0DAFE04462246C2
:102390000B466FA110A8FDF77BFF08236EA2022158
:1023A0004820FFF72FFF082310AA03214820FFF73A
:1023B00029FFA4E098E0FFE75F48807801286CD10E
:1023C000102367A202210020FFF71CFF2822022110
:1023D0003920FFF791FE1E2204210020FFF78CFE1A
:1023E0001F2204211220FFF787FE2022042124202F
:1023F000FFF782FE212204213620FFF77DFE2322F3
:1024000006210020FFF778FE242206211220FFF784
:1024100073FE252206212420FFF76EFE26220621C8
:102420003620FFF769FE5049086801F089FE04462E
:1024300022460B464DA113A8FDF72AFF3149C86B70
:1024400001F07EFE044622460B4648A110A8FDF787
:102450001FFF102313AA04214620FFF7D3FE1023E9
:1024600010AA06214620FFF7CDFE2649886B01F011
:1024700067FE044622460B463EA116A8FDF708FF5C
:1024800008233EA202214820FFF7BCFE082316AA1B
:1024900003214820FFF7B6FE31E027488078022864
:1024A00011D12549486801F04BFE044622460B46EF
:1024B00034A10AA8FDF7ECFE10230AAA04210A2081
:1024C000FFF7A0FE1BE01C488078032817D1314895
:1024D00031A1026801A8FDF7DBFE102301AA042147
:1024E0000A20FFF78FFE0AE010232FA2022100200E
:1024F000FFF788FE282204213C20FFF7FDFD1CB0D9
:1025000070BD0000B00A002056696E203A252E31B9
:1025100066560000706F77203A252E3166770000EE
:10252000800A00203A256425000000004475747973
:10253000000000006C0B00201400002043565F4D8B
:102540004F444500F40A00203A20252E32665600FA
:102550003A252E326641000063757272656E740012
:1025600043435F4D4F444500300B00203A20252E59
:10257000326641003A252E3266560000766C6F7442
:10258000616765005365742073746570203A202577
:102590002E3166007C0A00205365742074696D65D5
:1025A000203A20253264000054686520706F7765FA
:1025B00072206973206E6F74776F726B696E67003B
:1025C00010B5204801F081FA1F481E4988634FF07A
:1025D000824008611D484861002088611C480860ED
:1025E0001C49B1F9020001F043FF1649486319493B
:1025F000B1F9040001F03CFF12490863084601F0FC
:102600002CFA154801F061FA0F4813498863134802
:1026100008610E48486100208861114808600D4932
:10262000B1F9020001F024FF0B4948630949B1F9EF
:10263000040001F01DFF08490863084601F00DFA87
:1026400010BD0000F40A002017B751380AD7233C08
:102650000000A040800A0020300B002000006841EC
:10266000CDCCCC3D0020014988717047800A002004
:1026700010B501200B49887100200B490880C8144F
:102680000A490860400008600020094908600948BC
:1026900001F0DCF9084801F0D9F90020044988600C
:1026A00010BD0000800A00203C040040100C0140D6
:1026B0006C0B0020F40A0020300B00202DE9F041C3
:1026C000054600241D48807910B10120BDE8F08145
:1026D0000021284601F0F8FE01D2002403E028463C
:1026E00001F08AFE04B21548B0F90400A04203DAF2
:1026F0001248B0F9040000E0204604B20F48B0F9D7
:102700000200A04203DD0D48B0F9020000E02046BF
:1027100004B20B490C80204601F0AAFE804609490C
:1027200001F0A8FD0746084901F002FF064601F046
:102730007FFE0249C8710020C8E70000800A00201F
:102740003C040040000034440000C84270470000D0
:10275000F0B589B004460D460121022000F0B4F81E
:102760000121082000F0C0F80320ADF82000182057
:102770008DF8230003208DF8220008A93F48FFF7B9
:102780003FFAADF81840ADF814500020ADF81A002B
:10279000ADF8160005A93A4800F03AFC6020ADF803
:1027A00004000120ADF806000020ADF80A00ADF8E5
:1027B0000C0001A9324800F0CFFA0821304800F09F
:1027C00017FB0120ADF806000020ADF80A0001A9B2
:1027D0002B4800F017FB0821294800F065FB012079
:1027E000ADF806000020ADF80A0001A9244800F069
:1027F00069FB0821224800F0B5FB0120ADF8060076
:102800000020ADF80A0001A91D4800F0B5FB082121
:102810001B4800F0EFFB0121194800F055FA012197
:10282000174800F06FFA0121154800F05FFA002008
:1028300013493C310880091D088012480480014674
:10284000088801F02DFE07460F4901F071FE06468B
:1028500001F0D2FD00B20B498880088801F020FE0B
:1028600007460A4901F064FE064601F0C5FD00B2C4
:10287000044948800120887109B0F0BD000C014076
:1028800000040040800A00203333733F0AD7A33C82
:1028900001460020034A506820F44040084350603D
:1028A000704700000010024029B1064A52690243F5
:1028B000044B5A6104E0034A52698243014B5A6156
:1028C000704700000010024029B1064AD269024355
:1028D000044BDA6104E0034AD2698243014BDA61B6
:1028E000704700000010024029B1064A9269024375
:1028F000044B9A6104E0034A92698243014B9A6156
:10290000704700000010024030B500210022002472
:1029100000232D4D6D6805F00C0121B1042905D06F
:10292000082923D105E0294D056022E0274D0560E7
:102930001FE0254D6D6805F47012234D6D6805F498
:102940008034022505EB92421CB9214D55430560A8
:102950000BE01D4D6D6805F400351DB11C4D554350
:10296000056002E0194D5543056002E0174D056012
:1029700000BF00BF144D6D6805F0F0010909154D49
:102980006B5C0568DD4045600F4D6D6805F4E061E6
:10299000090A104D6B5C4568DD4085600A4D6D6825
:1029A00005F46051C90A0B4D6B5C4568DD40C5609C
:1029B000054D6D6805F44041890B074D6B5CC5689A
:1029C000B5FBF3F5056130BD0010024000127A003E
:1029D00000093D009A0A0020AA0A0020704710B59D
:1029E00000F002F810BD00000CB50020019000902E
:1029F0003348006840F480303149086000BF3048F7
:102A0000006800F4003000900198401C019000988C
:102A100018B90198B0F5A06FF1D12948006800F409
:102A2000003010B10120009001E0002000900098DB
:102A3000012843D12348006840F010002149086074
:102A40000846006820F0030008600846006840F06F
:102A5000020008601A484068194948600846406802
:102A600048600846406840F4806048600846406816
:102A700020F47C1048600846406840F4E810486044
:102A80000846006840F08070086000BF0C4800688D
:102A900000F000700028F9D00948406820F00300D9
:102AA000074948600846406840F00200486000BF9F
:102AB0000348406800F00C000828F9D10CBD000064
:102AC0000010024000200240042808D14FF0E0210D
:102AD000096941F004014FF0E022116107E04FF075
:102AE000E021096921F004014FF0E02211617047F3
:102AF0007047000010B51348006840F0010011490C
:102B0000086008464068104908400E494860084679
:102B100000680E4908400B4908600846006820F428
:102B2000802008600846406820F4FE0048604FF4AA
:102B30001F008860FFF753FF4FF0006004490860F2
:102B400010BD0000001002400000FFF8FFFFF6FE7D
:102B500008ED00E010B50121104800F0E2F8E0B106
:102B60000F480088401C0E49088008460088B0F5D0
:102B7000FA7F0CDD002008800A48006880F40060BD
:102B8000084908600846006880F48050086000F03A
:102B9000C7FE0121014800F0A6F810BD002C01403D
:102BA0008C0A00200C0C014010B50121880700F0B0
:102BB000B8F8E0B1FEF706FF0D48006800F0080025
:102BC00088B10C480088401C0A49088008460088E3
:102BD000642808DD002008800748007818B908201C
:102BE0000349083108600121880700F07CF810BD16
:102BF0000C0C01408A0A0020880A00207FB5054697
:102C00000C4601210846FFF75FFEADF80850ADF80D
:102C100004400020ADF80A00ADF8060001A94FF00D
:102C2000804000F0F5F901221146900700F08AF883
:102C30001C208DF8000002208DF8010000208DF886
:102C4000020001208DF803006846FFF755F90121C5
:102C5000880700F04BF87FBD30B587B04FF47A7528
:102C6000C82401210420FFF72FFE0020ADF8160034
:102C70004720ADF810000020ADF81200ADF8145058
:102C800004A9104800F0C4F96020ADF8000000204D
:102C9000ADF808000120ADF80200ADF80640694625
:102CA000084800F069F90121064800F00DF80821F4
:102CB000044800F09FF90121024800F017F807B01E
:102CC00030BD00000008004021B1028842F08002BF
:102CD000028004E002884FF67F731A40028070473A
:102CE000CA4302827047CA430282704721B10288F8
:102CF00042F00102028004E002884FF6FE731A409F
:102D00000280704731B1B0F8442042F40042A0F88C
:102D1000442005E0B0F84420C2F30E02A0F844209D
:102D2000704730B50246002000230024158A05EACA
:102D30000103958905EA010413B10CB1012000E0FB
:102D4000002030BD1AB183890B43838102E083895F
:102D50008B4383817047000070B50024002200235C
:102D6000058C4FF6FE7635400584028C8388048BF3
:102D70004FF68F752C40B51E2C400D882C43751EC8
:102D80002A400D892A434D882A43144DA8420BD06E
:102D9000134DA84208D0134DA84205D0124DA842A9
:102DA00002D0124DA84213D14FF6F7752A404D8933
:102DB0002A434FF6FB752A408D882A434FF6FF655C
:102DC0002B404FF6FF552B408D892B43CD892B434C
:102DD00083800483CD888586028470BD002C0140E9
:102DE00000340140004001400044014000480140DF
:102DF0000A460021018B4FF6F773194011430183F6
:102E00007047000070B5002400220023058C4FF6A7
:102E1000EF7635400584028C8388048B48F6FF7575
:102E20002C404FF6FF452C400D884FF6FF7606EA02
:102E300005252C434FF6DF752A400D8906EA051556
:102E40002A434D8806EA05152A43154DA84202D0AB
:102E5000144DA8421DD14FF67F752A404D894FF67B
:102E6000FF7606EA05152A434FF6BF752A408D887E
:102E700006EA05152A434FF6FF352B404FF2FF7542
:102E80002B408D8906EA85052B43CD8906EA850509
:102E90002B4383800483CD880587028470BD0000A6
:102EA000002C0140003401400A460021018B4FF202
:102EB000FF7319404FF6FF7303EA0223194301839E
:102EC0007047000070B5002400220023058C4FF6E7
:102ED000FF6635400584028C8388848B4FF68F759E
:102EE0002C404FF6FC752C400D882C434FF6FF55B7
:102EF0002A400D894FF6FF7606EA05252A434D88BC
:102F000006EA05252A43154DA84202D0144DA842D1
:102F10001DD14FF2FF752A404D894FF6FF7606EA24
:102F200005252A434FF6FF352A408D8806EA0525F8
:102F30002A434EF6FF752B404DF6FF752B408D89C9
:102F400006EA05152B43CD8906EA05152B43838038
:102F50008483CD888587028470BD0000002C0140E9
:102F6000003401400A460021818B4FF6F773194067
:102F7000114381837047000070B5002200230024B4
:102F8000058C4EF6FF7635400584038C8488828B51
:102F900048F6FF752A404FF6FF452A400D884FF648
:102FA000FF7606EA05252A434DF6FF752B400D896D
:102FB00006EA05352B434D8806EA05352B430B4DB4
:102FC000A84202D00A4DA84208D14BF6FF752C400A
:102FD0008D894FF6FF7606EA85152C43848082831F
:102FE000CD88A0F84050038470BD0000002C014043
:102FF000003401400A460021818B4FF2FF731940D3
:103000004FF6FF7303EA02231943818370470000E0
:10301000002202881D4B98420ED01D4B98420BD0C7
:10302000B0F1804F08D01B4B984205D01A4B984204
:1030300002D01A4B984204D14FF68F731A404B8836
:103040001A43174B984207D0164B984204D04FF6BC
:10305000FF431A40CB881A4302808B8883850B88F4
:1030600003850A4B98420BD0094B984208D00E4B6F
:10307000984205D00D4B984202D00D4B984201D199
:103080000B7A03860123838270470000002C0140E5
:10309000003401400004004000080040000C0040E3
:1030A0000010004000140040004001400044014076
:1030B000004801407FB505460C460121C802FFF7D4
:1030C00013FCADF80850ADF804400020ADF80A003C
:1030D000ADF806008DF80C0001A90F48FFF798FF26
:1030E00001210D48FFF7FCFD012241210A48FFF7AD
:1030F00029FE19208DF8000000208DF801008DF8C0
:10310000020001208DF803006846FEF7F5FE01215C
:103110000148FFF7EBFD7FBD002C014010B54FF4D7
:1031200080710C48FEF740FE90B90A2000F0B2FA18
:103130004FF480710748FEF737FE48B900BF4FF4DF
:1031400080710448FEF730FE0028F8D0012010BD41
:103150000020FCE7000C014010B540F225511D484D
:1031600000F04AF810B31B4800F002F9C4B21A4844
:10317000008800F40040C8B91748008800F4804077
:1031800060B10A2C03D000201349088020E01248C7
:10319000008840F400401049088019E00D2C06D149
:1031A0000D48008840F480400B49088010E00A4830
:1031B0000088C0F30D0009490C5407480088401CE2
:1031C0000549088008460088C72801DD00200880DE
:1031D00010BD000000380140980A0020800B00203C
:1031E00021B1828942F40052828104E082894DF645
:1031F000FF731A408281704770B502460024002395
:103200000025002040F66A16B14200D100BFC1F38C
:10321000421501F01F03012606FA03F3012D02D126
:103220009689334006E0022D02D1168A334001E030
:10323000968A33400C12012606FA04F416883440AC
:1032400013B10CB1012000E0002070BDF0B50346C1
:10325000002400260025002040F66A17B94200D15C
:1032600000BF1846C1F3421401F01F06012707FAF8
:1032700006F5012C01D10C3004E0022C01D11030F4
:1032800000E014301AB107682F43076002E00768B6
:10329000AF430760F0BD00002DE9F04786B005465A
:1032A0000E460024A24600BFA1460027B08900B107
:1032B00000BF2F462C8A4CF6FF700440F088044370
:1032C0002C82AC894EF6F3100440B0883189084353
:1032D000718908430443AC81AC8A4FF6FF40044037
:1032E000B0890443AC8201A8FFF70EFB1F48874258
:1032F00002D1DDF810A001E0DDF80CA0A88900F4EF
:10330000004040B10AEBCA0000EB0A1031684900E6
:10331000B0FBF1F807E00AEBCA0000EB0A103168D5
:103320008900B0FBF1F86420B8FBF0F0040120093B
:10333000642101FB1089A88900F4004040B13220CB
:1033400000EBC900B0FBF1F000F00700044308E017
:10335000322000EB09106421B0FBF1F000F00F0007
:1033600004432C8106B0BDE8F0870000003801401E
:1033700001468888C0F308007047000070B57148A6
:10338000008800F4004000287ED06F4800784F2865
:103390000CD16D4840784E2808D101206B498874C3
:1033A000FEF7ECFD08206A490860C7E0664800782F
:1033B0004F2810D16448407846280CD16248807864
:1033C000462808D1002061498874FEF7D7FD0820FF
:1033D0005F490860B2E05C480078432803D15A484E
:1033E0004078562807D058480078442852D156488B
:1033F000407856284ED102240CE05348005D302816
:1034000003DB5148005D392802DD30204E49085564
:10341000601CC4B2072CF0DB022406E04A48005DC1
:10342000303849490855601CC4B2072CF6DB4649C0
:10343000897842F210725143434AD27802EB420338
:10344000C3EBC21201EBC2023F49097901EBC10390
:1034500003EB011102EB81013B4A527902EB82023C
:1034600001EB420238498979501801F001F805460C
:10347000384900F0FFFE38490860002033490873DE
:1034800036498870082000E05BE031490860FEF7AB
:1034900075FD53E02C480078432803D12A48407832
:1034A000432807D028480078442847D12648407848
:1034B000432843D102240CE02348005D302803DB7D
:1034C0002148005D392802DD30201F490855601C65
:1034D000C4B2062CF0DB022406E01B48005D303845
:1034E00019490855601CC4B2062CF6DB16498978C8
:1034F0004FF47A725143144AD27802EBC20303EBC1
:10350000021201EB8201104A127902EB820201EBF6
:1035100042020D494979501800F0AAFF05460D49AD
:1035200000F0A8FE0E4908600120084908730B4905
:103530008870082006490860FEF720FD0020014938
:10354000088070BD980A0020800B00206C0B0020C2
:10355000100C014000007A44F40A002014000020FE
:10356000300B002000BFFEE72DE9F04105462C4658
:1035700020211148FEF721FC002619E0274607F01C
:103580008007802F04D180210B48FEF718FC03E050
:1035900080210948FEF711FC6006040E2021064830
:1035A000FEF70DFC20210448FEF707FC701CC6B294
:1035B000082EE3DBBDE8F0810008014010B50446A9
:1035C000FEF702FC7820FFF7CFFFFEF721FC00207A
:1035D000FFF7CAFFFEF71CFC2046FFF7C5FFFEF70A
:1035E00017FCFEF705FC10BD10B50446FEF7ECFB1A
:1035F0007820FFF7B9FFFEF70BFC4020FFF7B4FF80
:10360000FEF706FC2046FFF7AFFFFEF701FCFEF7D2
:10361000EFFB10BD490050EAC12018BF04204A0D3D
:1036200018BF40F0010040F2FF72B2EB515F08BFDB
:1036300040F00200012808BF0520704730380A28F2
:1036400001D20120704700207047014600BF70473B
:1036500010B56FF00400FFF737FA0A4800680A490E
:10366000B0FBF1F0094908700846007800EB400112
:10367000C1EBC0104FF6FF7101EAC0000449088099
:1036800010BD00000000002000127A008E0A002009
:10369000900A00200146114A12884A434FF0E02365
:1036A0005A6100229A611A46126942F001021A61B7
:1036B00000BF4FF0E022106900F001021AB100F4DF
:1036C0008032002AF5D04FF0E022126922F0010288
:1036D0004FF0E0231A6100229A617047900A00209F
:1036E00000BF054A128802F04002002AF9D0C2B297
:1036F000014B1B1D1A8070470038014070B5002433
:10370000FFF70CFDB8B13548007BC0F1010033492B
:1037100008730846007B10B90020314988702F4893
:10372000007B012801D12E49887008202D490860AE
:10373000FEF724FC21E0FEF725F9F0B12748807C54
:10374000C0F1010025498874082026490860FEF769
:1037500015FC0020214908732348244908604FF0D4
:103760007C50234908601E48224D2ECD2EC01B4898
:10377000807C10B900202049C8712048006800F002
:10378000080048BB1E480088C0F101001C490880A1
:10379000082014490860FEF7F1FB19480088012849
:1037A00003D102200E4988700FE01548008860B9E7
:1037B0000A48007B18B900200949887005E00748CD
:1037C000007B012801D10649887000BF0B480068C2
:1037D00000F008000028F9D070BD00006C0B00203C
:1037E00014000020100C01400000A040F40A00204A
:1037F000300B002024000020800A0020080801402F
:10380000360000201FB5FEF70FFB0820374908607F
:103810004FF4A060FEF7A8FBFFF71AFF4FF4E1306A
:1038200000F0A0F9FEF748FBFEF7C8FBFEF7A6FB89
:10383000FFF712FAFDF706FE002140F2CF20FEF757
:1038400087FF40F2CF210920FFF734FC40F2CF215F
:10385000C720FFF7D3F9FEF7B3FE08202349091D5F
:10386000086041E0FFF78AFDFFF748FFFEF7F4FC30
:103870001F4908681F4900F05BFE814600F0D8FD33
:1038800084B21D4908681D4900F052FE814600F0CF
:10389000CFFD85B21A49086C184900F049FE8146EF
:1038A00000F0C6FD86B21649C86B124900F040FE12
:1038B000814600F0BDFD87B21149886B0F4900F0C9
:1038C00037FE814600F0B4FD1FFA80F80D48007BFA
:1038D0000C49897C33463A46CDE90054CDE90210C3
:1038E000414609A0FCF7C8FCBCE70000100C0140F1
:1038F000300B00200000C842F40A002000002041E4
:10390000B00A00206C0B0020253364253364253376
:1039100064253364253364256425640D0A000000A2
:1039200010B54048807C002878D03F49086C3F495A
:1039300000F0CAFE01D2012000E00020394948739E
:103940003949086C3A4900F0BFFD01D2012000E07E
:103950000020344988733449C86B364900F0B4FEFE
:1039600001D2012000E000202E4908742E49886B06
:10397000314900F0A9FE01D2012000E000202949D0
:1039800048740846407B40B90846807B28B9084601
:10399000007C10B90846407C40B1012027490870DE
:1039A000082027490860FEF763FE39E0002023491C
:1039B0000870FEF757FE1B48007B10B1012822D18A
:1039C00010E04FF480501E49091D08604010091F87
:1039D00008601548826B1B48016800F087F81149A0
:1039E000886014E04FF400601549091D086040002C
:1039F000091F08600C48C26B1348016800F076F894
:103A00000849886003E000200649087300BF00BF32
:103A100004498868FEF752FE02E0FFE7FEF728FE41
:103A200010BD00006C0B0020B00A002000006242B4
:103A3000000030410000084100004C42880A00208C
:103A4000100C0140F40A0020300B002000214160DE
:103A50008160C160C162816270472DE9F041044616
:103A6000A16BA06900F006FC07466169A06B00F03D
:103A700001FC80464FF07E5100F08EFB0646394631
:103A800000F08AFB0546216900F052FDE0614FF02D
:103A90008040A16900F04CFD0746A16B00F0EAFBF5
:103AA00006464FF07E5100F077FB0546216900F095
:103AB0003FFD2062A169206900F03AFD0546A16B37
:103AC00000F0D8FB6062BDE8F081002141608160B8
:103AD000C160C16281620160016341638163016110
:103AE0004161816141620162C16170472DE9F05F0E
:103AF00004460D46164600273146284600F016FEBD
:103B00006060E168606A00F013FD8146A168206A88
:103B100000F00EFD82466168E06900F009FD834611
:103B2000514600F003FE8046494600F035FBA06296
:103B3000D4E90A0100F030FB07463846216B00F05B
:103B4000C3FD00D2276B3846616B00F0BDFC00D28C
:103B5000676BA068E0606068A060E7623846BDE817
:103B6000F09F000010B586B00446012144F2040025
:103B7000FEF7BAFE4FF40070ADF8140003208DF884
:103B8000160018208DF8170005A91C48FEF738F814
:103B90004FF48060ADF8140004208DF8170005A9DB
:103BA0001648FEF72DF825208DF8000003208DF82B
:103BB00001008DF8020001208DF803006846FEF731
:103BC0009BF901940020ADF80800ADF80A00ADF8AB
:103BD0000C00ADF810000C20ADF80E0001A908484B
:103BE000FFF75AFB012240F225510548FFF72EFB53
:103BF00001210348FFF7F4FA06B010BD00080140A8
:103C00000038014010B500290AD00878002807D0F4
:103C100005487844FDF704F8002801D0002010BDC5
:103C20000248784410BD0000D6140000CE140000F5
:103C300021F00042A2F16052B2F5801F01F0004372
:103C400028BFD2F17F6C0BD95FEA001C43EAC202A5
:103C500042EB507018BF704728BF20F0010070473A
:103C6000B2F5801FBCBF184670474FEA410C1CF5E7
:103C7000001F02D2084600F022BD70B500F00CFA19
:103C800000000089FFF7F6BF4FF00040A0F580006C
:103C9000704700002DE9C04130B4DFF8A0C23CEA13
:103CA000111418BF3CEA131400F0EC8081EA0305FC
:103CB0001CEA111444EAD57418BF1CEA131500F06D
:103CC000C780A4EB05044FF0004545EAC12145EA51
:103CD000C32341EA505143EA525304F17F7499429D
:103CE00004F500344FEAC0204FEAC22208BF9042D8
:103CF00000F09C804FEA13650FF24016765D4FEAA4
:103D0000134506FB05F7C7F1807706FB07F74FEA77
:103D1000D737A7FB03687642C8F58038A7FB06CEE5
:103D200038BFA8F1010807FB08E64FF0000EA6FB1C
:103D3000028CE6FB03CEDCF1000CCEF1004E38BF66
:103D4000AEF1010EA6FB0C584FF000074FF0000536
:103D5000E6FB0E87A1FB08C6A0FB07CE16EB0E06FE
:103D600045F10005E1FB076515F1E04E7EBFA4F5C6
:103D700080345FEA46066D4116F1800745F1000583
:103D80004FEA17274FEA066647EA0567A6F1DE46BF
:103D9000B6F1805F4FEA15251FD9384624F0010C93
:103DA00005EBC471BCF1FE6F01EB0C1102D8F0BC45
:103DB000BDE8008124425CBF01F5801E9EEAC47FFD
:103DC00002D4F0BCBDE80081244238D4F0BCA1F19B
:103DD000C041BDE8004100F0ADB94FEAD22242EA4D
:103DE00043524FEAD323A7FB02864FEAD02040EA92
:103DF000415007FB03661EEA0E0F4FEAD12105FB77
:103E0000026658BFA6EB0056B6EB00564FEA520EBC
:103E10004EEAC37E18EB0E0E56EB530EBDD518EBD3
:103E200002085E417F1C55F10005B6E74FF480158E
:103E30004FF000074FF000064FF00008ADE7F0BC70
:103E40004FF0000001F1C04101F00041BDE80081E8
:103E500011EA0C1F0CEA131500D00CE013EA0C1F3A
:103E600000F025804FF00000F0BC81EA030101F072
:103E70000041BDE80081F0BCBDE8004181EA0301DA
:103E800000F058B9F0BCBDE8004170B500F004F98D
:103E9000097EFC3E00F007B881EA03014FF0000004
:103EA00001F00041704781EA030100F043B9F0BC22
:103EB000BDE800414FF0000021497047FFFDFBF9CC
:103EC000F7F5F4F2F0EEEDEBE9E8E6E4E3E1E0DE4D
:103ED000DDDBDAD8D7D5D4D3D1D0CFCDCCCBCAC8BF
:103EE000C7C6C5C4C2C1C0BFBEBDBCBBBAB9B8B7E6
:103EF000B6B5B4B3B2B1B0AFAEADACABAAA9A8A8D9
:103F0000A7A6A5A4A3A3A2A1A09F9F9E9D9C9C9BA6
:103F10009A99999897979695959493939291919051
:103F20008F8F8E8E8D8C8C8B8B8A898988888787E2
:103F30008685858484838382828181800000FF0757
:103F40000000F87FDFF848C170B51CEA111E1EBFE3
:103F50001CEA13159EEA0C0F95EA0C0F00F06F8017
:103F600081EA030423EA4C134EEAD47E21EA4C1181
:103F700041F4801143F48013AE44A1FB024CA0FB3A
:103F80000365AEF17F7E361955EB0C05A1FB034CA2
:103F90004CF10003A0FB021C16EB0C06654153F12B
:103FA0000003094218BF46F0010613F4007F0BD14D
:103FB0004FEA03314FEA0530340341EA155140EA34
:103FC00016506FF003020AE04FEAC3214FEAC52002
:103FD000F40241EA555140EA56506FF0020202EBFA
:103FE0002E4201EB025585EACE710AD05FEA440CFD
:103FF00018BF24F0004450F1000041F1000120EA14
:10400000D47040F2FE7C624500D270BDA84214BF5D
:104010004FF080444FF04044002E08BF0024BEF112
:10402000806FA8BFA1F1C041BDE8704080F28280DE
:104030004FF0000001F1C04101F0004170479EEADD
:104040000C0F0CEA131518BF95EA0C0F06D04FF0B1
:10405000000081EA030E0EF0004170BD00F01CF874
:104060008900013E00F007B800F009B84FEA430CA0
:104070005FEA5C5C08D081EA030100F05BB84FEABC
:10408000410C5FEA5C5CF6D14FF0000001497047DB
:104090000000FF070000F87F0EF1020E2EF0030E65
:1040A0005EF8046B364205D4012A43EB030515F58F
:1040B000001F12D8012841EB010C1CF5001F0CD881
:1040C0000ED14FEAD17C15F5001F0CEB4C0C0CF116
:1040D000020C08BF4CEBD37C04E04FF0080C01E06D
:1040E0004FEAD37C0CEB4C0526FA05F606F00706E2
:1040F000B6F1040C06D20EEB860CBDE870404CF015
:10410000010C6047DFE80CF0090B02024FF00041A0
:104110004FF00000A1F5002170BD1946104601289E
:1041200051EB010418BFD4F5001484BF002001F046
:10413000004170BD0808A0F500114FEA3101704739
:1041400043004FEAD30C4FEA3C0C43401FBF4007EB
:104150000CF1605113F0FE4F70471CF0006F03D15B
:1041600000200CF0004170470CF0004343EA50700F
:1041700010B540EACC0000F05CFA00BF00000092ED
:104180004FEA0001FFF7D6BF4FF000414FF00000AB
:10419000A1F500217047000090EA010F48BF81F0AF
:1041A000004100F1CA82421A3CBF801A89184FEAC6
:1041B000D0524FF07F4C1CEA410FA2EBD15318BFF5
:1041C0009CEA026F00F03B804FF0004C4CEA00206C
:1041D0004CEA012121FA03FC10EB0C0C1ED202F177
:1041E000FF325FEA1C2040EBC25038BF70471CF022
:1041F0007F0F4FEA400C18BFBCF17F4F38BF7047AC
:10420000C3F12003994008BF20F00100BCF17F4FAB
:1042100038BF7047A0F1C04000F051BA4FEA3C00EF
:10422000000A40EBC25028BF1CF0FF0F4FEA400CC1
:10423000E6D018BFBCF17F4F38BF7047EAE79CEA71
:10424000026F05D010EA5C0F08BF00F00040704715
:1042500010B500F0EEF900BF64FBBE3E401058BF41
:10426000C0F14040491058BFC1F140418142EFF3D5
:10427000008070474FF47F0C1CEAD0121EBF1CEA6E
:10428000D11392EA0C0F93EA0C0F00F0858090EAAC
:10429000010F48BF42F4807240F4000C41F400006A
:1042A0002CF07F4120F07F4000B58142A2EB030259
:1042B0000FF2081CACEB504EC0F100009EF800E07D
:1042C0004FEA4E0E00FB0EFC38BF49004FEA2C1C93
:1042D00002F5FA020CFB0EF34FEACE1E4FEA112C48
:1042E0004FEAC1210EEB635E42EB22420EFB0CFC57
:1042F0004FEA1C5300FB03114FEA112C4FEA013126
:104300000EFB0CFC4FEADC4C00FB0C11C14228BF39
:1043100009184CEB03335DF804EB10EB410143EB60
:10432000C250B2F57C0F38BF704729D512F0F00F9C
:104330001CBF00F1C04000F0004070470081828344
:104340008485868788898B8C8D8E8F9192939596A4
:1043500097999A9C9D9FA0A2A3A5A7A8AAACAEB02E
:10436000B2B3B5B7B9BCBEC0C2C5C7C9CCCED1D433
:10437000D7D9DCDFE2E6E9ECF0F3F7FAFE00000063
:104380004FEA400C0CF1807CBCF17E4F28BF704797
:10439000B0F1C04000F093B990EA010F0CEAD113DC
:1043A00048BF42F48072624538BF634507D213F4B8
:1043B0007F0F16D080EA010000F00040704710B572
:1043C00000F037F9097EFC3E00F005B880EA0100F4
:1043D00000F00040704780EA010000F0004000F06B
:1043E0006EB912F47F0F04BF0248704780EA0100E3
:1043F00000F065B90000C07F41000B0ED3F19E02B2
:1044000008D950F400034FEA032323FA02F048BF0F
:104410004042704710B500F00CF900BF499224806B
:10442000002070476FF0004282EA200070470000D1
:10443000C10DD1F19E0206DB4FEA002343F0004399
:1044400023FA02F07047004207D54FEA4001B1F16C
:10445000FE4F02D24FF00000704710B500F0E9F8AF
:1044600049922480002070476FEA200070470000C6
:1044700010F0004148BF4042B0FA80F310FA03F256
:10448000C3F19D030BD051EAC35101EB1220530637
:1044900038BF704700F1010008BF20F001007047ED
:1044A000B0FA80F310FA03F2C3F19D030AD0D905E4
:1044B00001EB1220530638BF704700F1010008BF1E
:1044C00020F001007047000050EA010C00F1138059
:1044D0001CF5000F58BFBCF5000F01D4884270478F
:1044E00007D710F5000F58BF11F5000F15D48842FB
:1044F0007047894270471CF5000F04D5BCF5000FCA
:10450000F7D5814270474FF0807C1CEB400F38BFDD
:104510001CEB410F01D28142704710B500F089F8C1
:10452000922449004FF000504FF08051FFF796BEA3
:104530004FF47F0C1CEAD0121EBF1CEAD11392EA82
:104540000C0F93EA0C0F00F0478090EA010F48BF70
:1045500042F480724FF0004C4CEA00204CEA0121FA
:1045600002EB0302A0FB0113A2F50002002918BF11
:1045700043F001035B0028BF4FEA330342EB2242C2
:104580005FEA132C4CEBC2502EBFBCEB436FB2F56D
:104590007C0F70474FEA036CBCF1004F08BF20F05E
:1045A0000100B2F57C0F38BF70470BD582F0FF02D7
:1045B00012F5803FC8BF704700F1C040D8BF00F07F
:1045C0000040704700F5000C5FEA4C0C48BF704794
:1045D000B0F1C04000F073B890EA010F0CEAD113BB
:1045E00048BF42F48072624538BF634504D280EA16
:1045F000010000F00040704710B500F01AF800BF4D
:104600008900013E00F007B800F009B85FEA410CEC
:104610005FEA1C6C08D080EA010000F050B85FEA45
:10462000400C5FEA1C6CF6D14FF00040A0F5800012
:1046300070470EF1020E2EF0030E5EF8044B24427A
:1046400004D44FEA4102B2F17F4F11D84FEA400340
:10465000B3F17F4F0CD80ED14FEAD07CB2F17F4F2F
:104660000CEB4C0C0CF1020C08BF4CEBD17C04E0C1
:104670004FF0080C01E04FEAD17C0CEB4C0324FA1C
:1046800003F404F00704B4F1040C06D20EEB840C1E
:10469000BDE810404CF0010C6047DFE80CF0070863
:1046A00002024FF00040A0F5800010BD0846420015
:1046B00018BFD2F1807288BF00F0004010BDFF210A
:1046C00041EAD050C005704751EA000C00F1138058
:1046D0001CF5000F58BFBCF5000F01D48142704794
:1046E00007D711F5000F58BF10F5000F15D4814200
:1046F0007047894270471CF5000F04D5BCF5000FC8
:10470000F7D5884270474FF0807C1CEB410F38BFD3
:104710001CEB400F01D28842704780EA010081EA19
:10472000000180EA0100FFF7F8BE000090EA010FE7
:1047300048BF81F000413FF536AD421A04D882F0FF
:104740000042A0EB020011444FEAD0524FF07F4CE0
:104750001CEA410FA2EBD15318BF9CEA026F4AD06A
:104760004FF0004C4CEA00204CEA012121FA03FCF6
:10477000B0EB0C0C0FD412F0FE0F36D05FEA4C00F9
:104780001DD5001240EBC25038BF70471CF03F0FE0
:1047900018BF70470BE0A2F101025FEA1C2040EB5A
:1047A000C25038BF70471CF07F0F18BF7047C3F16D
:1047B0002003994014BF401E20F00100704780087C
:1047C0004FEA122308BF7047B0FA80FCA2EB0C023C
:1047D000CCF1280C60FA0CF093EA122F04BF00EB26
:1047E000C25070474FEAC3707047130A5FEADC108B
:1047F00008BF7047F6E79CEA026F04D010EA5C0F2E
:1048000008BF0020704710B5FFF713FF40DFF63EEA
:1048100081F000407047FBF76EBF00000000000011
:104820000000002F000000000700070000147F14A4
:104830007F1400242A7F2A120062640813230036A2
:104840004955225000000503000000001C224100D1
:10485000000041221C000014083E08140008083E15
:104860000808000000A06000000808080808000010
:1048700060600000002010080402003E5149453EDF
:104880000000427F400000426151494600214145FD
:104890004B31001814127F10002745454539003C64
:1048A0004A49493000017109050300364949493632
:1048B00000064949291E0000363600000000563621
:1048C0000000000814224100001414141414000005
:1048D0004122140800020151090600324959513E93
:1048E000007C1211127C007F49494936003E41414B
:1048F0004122007F4141221C007F49494941007FFC
:1049000009090901003E4149497A007F0808087FEA
:104910000000417F4100002040413F01007F08141A
:104920002241007F40404040007F020C027F007F18
:104930000408107F003E4141413E007F09090906FD
:10494000003E4151215E007F091929460046494930
:1049500049310001017F0101003F4040403F001FFD
:104960002040201F003F4038403F0063140814637C
:1049700000070870080700615149454300007F4166
:10498000410000552A552A55000041417F0000048E
:1049900002010204004040404040000001020400C7
:1049A000002054545478007F48444438003844442C
:1049B000442000384444487F0038545454180008B8
:1049C0007E0901020018A4A4A47C007F08040478D6
:1049D0000000447D4000004080847D00007F10285E
:1049E00044000000417F4000007C04180478007CF3
:1049F0000804047800384444443800FC2424241873
:104A00000018242418FC007C0804040800485454AE
:104A1000542000043F444020003C4040207C001CC7
:104A20002040201C003C4030403C004428102844DA
:104A3000001CA0A0A07C004464544C441414141422
:104A4000141400000000000000000000000000003E
:104A50000000000000F800000000000000333000FB
:104A6000000000100C06100C060000000000000002
:104A7000000040C07840C0784000043F04043F0478
:104A80000400007088FC08300000001820FF211E80
:104A90000000F008F000E018000000211C031E21B7
:104AA0001E0000F00888700000001E212324192732
:104AB000211010160E000000000000000000000091
:104AC0000000000000E018040200000000071820A9
:104AD000400000020418E000000000402018070019
:104AE0000000404080F0804040000202010F0102BF
:104AF0000200000000F0000000000101011F0101A0
:104B00000100000000000000000080B07000000004
:104B10000000000000000000000000010101010190
:104B20000101000000000000000000303000000023
:104B300000000000000080601804006018060100FA
:104B4000000000E010080810E000000F1020201006
:104B50000F00001010F8000000000020203F20206F
:104B60000000007008080888700000302824222106
:104B700030000030088888483000001820202011BC
:104B80000E000000C02010F8000000070424243F9D
:104B9000240000F808888808080000192120201146
:104BA0000E0000E0108888180000000F112020116E
:104BB0000E0000380808C83808000000003F000058
:104BC00000000070880808887000001C2221212243
:104BD0001C0000E010080810E00000003122221143
:104BE0000F00000000C0C0000000000000303000D6
:104BF0000000000000800000000000008060000055
:104C0000000000008040201008000001020408108D
:104C1000200040404040404040000404040404049C
:104C2000040000081020408000000020100804024A
:104C30000100007048080808F0000000003036014C
:104C40000000C030C828E810E0000718272423140B
:104C50000B000000C038E0000000203C23020227C7
:104C6000382008F8888888700000203F2020201114
:104C70000E00C0300808080838000718202020104F
:104C8000080008F808080810E000203F2020201045
:104C90000F0008F88888E8081000203F2020232013
:104CA000180008F88888E8081000203F200003005A
:104CB0000000C03008080838000007182020221E15
:104CC000020008F808000008F808203F210101212F
:104CD0003F20000808F8080800000020203F20209E
:104CE000000000000808F8080800C08080807F00ED
:104CF000000008F888C028180800203F2001263846
:104D0000200008F8080000000000203F202020209C
:104D1000300008F8F800F8F80800203F003F003F96
:104D2000200008F830C00008F808203F20000718CD
:104D30003F00E01008080810E0000F1020202010AD
:104D40000F0008F808080808F000203F21010101C1
:104D50000000E01008080810E0000F182424385064
:104D60004F0008F8888888887000203F2000030CD6
:104D700030200070880808083800003820212122DF
:104D80001C00180808F8080818000000203F200040
:104D9000000008F808000008F808001F2020202064
:104DA0001F000878880000C83808000007380E0186
:104DB0000000F80800F80008F800033C0700073C72
:104DC0000300081868808068180820302C03032C22
:104DD00030200838C800C83808000000203F2000F4
:104DE000000010080808C8380800203826212020B4
:104DF0001800000000FE020202000000007F404098
:104E00004000000C30C00000000000000001063827
:104E1000C00000020202FE000000004040407F008F
:104E20000000000004020202040000000000000074
:104E30000000000000000000000080808080808072
:104E4000808000020204000000000000000000005A
:104E500000000000808080800000001924222222AF
:104E60003F2008F8008080000000003F1120201142
:104E70000E000000008080800000000E1120202025
:104E80001100000000808088F800000E1120201022
:104E90003F200000808080800000001F222222220C
:104EA0001300008080F0888888180020203F202090
:104EB00000000000808080808000006B94949493B8
:104EC000600008F8008080800000203F2100002062
:104ED0003F2000809898000000000020203F202004
:104EE0000000000000809898000000C08080807F53
:104EF000000008F8000080808000203F24022D3050
:104F00002000000808F8000000000020203F2020BA
:104F100000008080808080808000203F20003F2033
:104F2000003F8080008080800000203F2100002022
:104F30003F200000808080800000001F2020202073
:104F40001F00808000808000000080FFA1202011D1
:104F50000E000000008080808000000E112020A044
:104F6000FF80808080008080800020203F21200002
:104F700001000000808080808000003324242424ED
:104F80001900008080E0808000000000001F2020C9
:104F900000008080000000808000001F2020201082
:104FA0003F20808080000080808000010E30080655
:104FB000010080800080008080800F300C030C3066
:104FC0000F0000808000808080000020312E0E3194
:104FD0002000808080000080808080818E70180694
:104FE000010000808080808080000021302C222100
:104FF000300000000000807C020200000000003F42
:10500000404000000000FF00000000000000FF0022
:1050100000000002027C800000000040403F0000D1
:10502000000000060101020204040000000000006C
:105030000000000002400000000000A0000000008E
:1050400005400000000000C8000000000C40000007
:105050000000409C00000000194000000020BCBE81
:105060000000000034400000BFC91B8E0000000497
:10507000B5400000504BCFD06607E2CF01000000E2
:105080006C4100003E8251AADFEEA734010000000F
:10509000D9420000DCB5A0E23A301F97FFFFFFFFC6
:1050A000B4450000FD25A0C8E9A3C14FFFFFFFFFE5
:1050B000FF3F00000000008000000000FF3F0000F4
:1050C00000000080000000000451000800000020E3
:1050D000B00A00006C010008E4530008B00A002088
:1050E000F8070000D00100081C0000004300000089
:1050F000F8FFFFFF0C0000000E0000000F00000092
:105100002E000000500600A24A04000120090102FE
:105110000304060708090C1009CDCCCC3D0000A003
:10512000400B02123F10100400008001100590F89F
:105130008888030004124040000180042018072FD3
:105140000113220007164858C02038261E000C11F3
:105150004222120D0305093161614161000E118087
:105160008050F048444050ACD8A8E8207E000F138F
:105170000402013E01310012222A4241240C7F1315
:10518000F80801000415E88884BE000D120611100D
:1051900010111D131012141010DF000A15E020A0CA
:1051A000FCA4A010F070C0000C120305041F222202
:1051B0002221202038DF040C1340400800C038C8EA
:1051C00068D844C440000C121826110C031803635D
:1051D0003E02097F21410009144020A0642CA02038
:1051E00010A0000A13201008061121211C03FD0441
:1051F0000D148040B0ACA00080904040DC4880108E
:10520000093E130A2019060A37C102133042040A64
:1052100013FC5048407E908884C441220401000859
:10522000147F05040402020282080A140000F00040
:1052300004F80080C03F000A132123201F10101F14
:105240001211E02405808084CC4108041408BC4479
:105250007F080C1300301F08002225191E2160A1B1
:1052600018058040C404C408041582FC40C03F18DF
:105270000F1B030A167FA0000C124040FC000078B0
:10528000A0908848603F0C0D150C04223F01003EA1
:105290002A2A22213E00030007137C5454D44E4096
:1052A0003E140A000002020A1A0242FF3E031501E0
:1052B000018200081420A2FC90D0B058C10C0B123F
:1052C000111109053E29444422301F03257C040B9B
:1052D0001200FC00C05048F84848C83F2E21BF03C8
:1052E00011030805147F02040742031B8000010319
:1052F0001B31311F1FC04042032545021440C052DC
:1053000003F80517802F80807E04061548BE4D00E7
:1053100003040714030408103020011200FA0C06DD
:105320001428E828FC0800041006100C1308054097
:10533000080651031C206070800C0B14007020A024
:10534000A09C90505030DF031C0620100E0A08412C
:10535000040215623F0D3E80040D3E0005093E002B
:10536000040B14003090105214F0080818000C0CB4
:105370001304444425120E030A1232624004040B43
:1053800014F888F88C404048C84840E01DB8061022
:1053900005080600100707D102044009BE801C045E
:1053A00040C008D6050C0614A07094D0D0DF060CBF
:1053B0000B16380F00201D013F001E20800609FB40
:1053C0008005804004041B3CFC186000053C0C0D6B
:1053D0000C00012D920A6D960A00070002040608CF
:0453E00000000000C9
:0400000508000131BD
:00000001FF
