Component: ARM Compiler 5.06 update 4 (build 422) Tool: armlink [4d35d2]

==============================================================================

Section Cross References

    main.o(i.main) refers to _printf_pad.o(.text) for _printf_pre_padding
    main.o(i.main) refers to _printf_percent.o(.ARM.Collect$$_printf_percent$$00000000) for _printf_percent
    main.o(i.main) refers to _printf_d.o(.ARM.Collect$$_printf_percent$$00000009) for _printf_d
    main.o(i.main) refers to _printf_dec.o(.text) for _printf_int_dec
    main.o(i.main) refers to key.o(i.Key_Init) for Key_Init
    main.o(i.main) refers to misc.o(i.NVIC_PriorityGroupConfig) for NVIC_PriorityGroupConfig
    main.o(i.main) refers to delay.o(i.delay_init) for delay_init
    main.o(i.main) refers to usart.o(i.uart_init) for uart_init
    main.o(i.main) refers to led.o(i.LED_Init) for LED_Init
    main.o(i.main) refers to oled.o(i.OLED_Init) for OLED_Init
    main.o(i.main) refers to oled.o(i.OLED_Clear) for OLED_Clear
    main.o(i.main) refers to tim_octigr.o(i.TIM4_OCTigrConfig) for TIM4_OCTigrConfig
    main.o(i.main) refers to adc_dma.o(i.ADC_DmaConfig) for ADC_DmaConfig
    main.o(i.main) refers to pwm.o(i.Pwm_Init) for Pwm_Init
    main.o(i.main) refers to time.o(i.Timer1_Init) for Timer1_Init
    main.o(i.main) refers to time.o(i.TIM2_Init) for TIM2_Init
    main.o(i.main) refers to vi_control.o(i.PID_Config) for PID_Config
    main.o(i.main) refers to usart.o(i.Uart_DRS) for Uart_DRS
==============================================================================

Removing Unused input sections from the image.

    Removing system_stm32f10x.o(i.SystemCoreClockUpdate), (164 bytes).
    Removing core_cm3.o(.emb_text), (32 bytes).
    Removing led.o(i.FlashLed), (48 bytes).
    Removing oled.o(i.BasicInformation), (204 bytes).
    Removing oled.o(i.Delay_1ms), (26 bytes).
    Removing oled.o(i.Delay_50ms), (22 bytes).
    Removing oled.o(i.OLED_Display_Off), (28 bytes).
    Removing oled.o(i.OLED_Display_On), (28 bytes).
    Removing oled.o(i.OLED_DrawBMP), (118 bytes).
    Removing oled.o(i.OLED_On), (62 bytes).
    Removing oled.o(i.OLED_ShowNum), (136 bytes).
    Removing oled.o(i.OutputInformation), (260 bytes).
    Removing oled.o(i.fill_picture), (64 bytes).
    Removing oled.o(i.oled_pow), (22 bytes).
    Removing vi_control.o(i.ProtectReset), (36 bytes).
    Removing delay.o(i.delay_us), (76 bytes).
    Removing sys.o(.emb_text), (6 bytes).
    Removing sys.o(i.INTX_DISABLE), (4 bytes).
==============================================================================

Image Symbol Table

    Local Symbols

    Symbol Name                              Value     Ov Type        Size  Object(Section)

    ../clib/angel/boardlib.s                 0x00000000   Number         0  boardinit1.o ABSOLUTE
    ../clib/angel/boardlib.s                 0x00000000   Number         0  boardinit2.o ABSOLUTE
    ../clib/angel/boardlib.s                 0x00000000   Number         0  boardinit3.o ABSOLUTE
    ../clib/angel/boardlib.s                 0x00000000   Number         0  boardshut.o ABSOLUTE
    ../clib/angel/dclz77c.s                  0x00000000   Number         0  __dclz77c.o ABSOLUTE
    ../clib/angel/handlers.s                 0x00000000   Number         0  __scatter_zi.o ABSOLUTE
    ../clib/angel/kernel.s                   0x00000000   Number         0  __rtentry.o ABSOLUTE
    ../clib/angel/kernel.s                   0x00000000   Number         0  __rtentry4.o ABSOLUTE
    ../clib/angel/kernel.s                   0x00000000   Number         0  rtexit.o ABSOLUTE
    ../clib/angel/kernel.s                   0x00000000   Number         0  __rtentry2.o ABSOLUTE
    ../clib/angel/kernel.s                   0x00000000   Number         0  rtexit2.o ABSOLUTE
    ../clib/angel/rt.s                       0x00000000   Number         0  rt_locale.o ABSOLUTE
    ../clib/angel/rt.s                       0x00000000   Number         0  rt_raise.o ABSOLUTE
    ../clib/angel/rt.s                       0x00000000   Number         0  rt_locale_intlibspace.o ABSOLUTE
    ../clib/angel/scatter.s                  0x00000000   Number         0  __scatter.o ABSOLUTE
    ../clib/angel/startup.s                  0x00000000   Number         0  __main.o ABSOLUTE
    ../clib/angel/sys.s                      0x00000000   Number         0  indicate_semi.o ABSOLUTE
    ../clib/angel/sys.s                      0x00000000   Number         0  use_no_semi.o ABSOLUTE
    ../clib/angel/sys.s                      0x00000000   Number         0  sys_stackheap_outer.o ABSOLUTE
    ../clib/angel/sys.s                      0x00000000   Number         0  use_no_semi_2.o ABSOLUTE
    ../clib/angel/sys.s                      0x00000000   Number         0  libspace.o ABSOLUTE
    ../clib/angel/sysapp.c                   0x00000000   Number         0  sys_wrch.o ABSOLUTE
    ../clib/angel/sysapp.c                   0x00000000   Number         0  sys_command.o ABSOLUTE
    ../clib/armsys.c                         0x00000000   Number         0  _get_argv_nomalloc.o ABSOLUTE
    ../clib/armsys.c                         0x00000000   Number         0  no_argv.o ABSOLUTE
    ../clib/armsys.c                         0x00000000   Number         0  argv_veneer.o ABSOLUTE
    ../clib/armsys.c                         0x00000000   Number         0  argv_veneer.o ABSOLUTE
    ../clib/bigflt.c                         0x00000000   Number         0  bigflt0.o ABSOLUTE
    ../clib/btod.s                           0x00000000   Number         0  btod.o ABSOLUTE
    ../clib/heapalloc.c                      0x00000000   Number         0  hrguard.o ABSOLUTE
    ../clib/heapaux.c                        0x00000000   Number         0  heapauxi.o ABSOLUTE
    ../clib/libinit.s                        0x00000000   Number         0  libshutdown.o ABSOLUTE
    ../clib/libinit.s                        0x00000000   Number         0  libshutdown2.o ABSOLUTE
    ../clib/libinit.s                        0x00000000   Number         0  libinit2.o ABSOLUTE
    ../clib/libinit.s                        0x00000000   Number         0  libinit.o ABSOLUTE
    ../clib/locale.s                         0x00000000   Number         0  lc_numeric_c.o ABSOLUTE
    ../clib/longlong.s                       0x00000000   Number         0  lludiv10.o ABSOLUTE
    ../clib/memcpset.s                       0x00000000   Number         0  strcmpv7m.o ABSOLUTE
    ../clib/misc.s                           0x00000000   Number         0  printf_stubs.o ABSOLUTE
    ../clib/printf.c                         0x00000000   Number         0  noretval__2sprintf.o ABSOLUTE
    ../clib/printf.c                         0x00000000   Number         0  _printf_char_file.o ABSOLUTE
    ../clib/printf.c                         0x00000000   Number         0  _sputc.o ABSOLUTE
    ../clib/printf.c                         0x00000000   Number         0  __printf.o ABSOLUTE
    ../clib/printf.c                         0x00000000   Number         0  _printf_pad.o ABSOLUTE
    ../clib/printf.c                         0x00000000   Number         0  _printf_char_common.o ABSOLUTE
    ../clib/printf.c                         0x00000000   Number         0  _printf_fp_dec.o ABSOLUTE
    ../clib/printf.c                         0x00000000   Number         0  _printf_dec.o ABSOLUTE
    ../clib/printf.c                         0x00000000   Number         0  __printf_flags_ss_wp.o ABSOLUTE
    ../clib/printf.c                         0x00000000   Number         0  __printf_flags_wp.o ABSOLUTE
    ../clib/printf.c                         0x00000000   Number         0  __printf_flags.o ABSOLUTE
    ../clib/printf.c                         0x00000000   Number         0  __printf_ss_wp.o ABSOLUTE
    ../clib/printf.c                         0x00000000   Number         0  __printf_ss.o ABSOLUTE
    ../clib/printf.c                         0x00000000   Number         0  _printf_intcommon.o ABSOLUTE
    ../clib/printf.c                         0x00000000   Number         0  __printf_wp.o ABSOLUTE
    ../clib/printf.c                         0x00000000   Number         0  __printf_nopercent.o ABSOLUTE
    ../clib/printf.c                         0x00000000   Number         0  _printf_fp_infnan.o ABSOLUTE
    ../clib/printf.c                         0x00000000   Number         0  __2printf.o ABSOLUTE
    ../clib/printf.c                         0x00000000   Number         0  __2sprintf.o ABSOLUTE
    ../clib/printf.c                         0x00000000   Number         0  noretval__2printf.o ABSOLUTE
    ../clib/printf.c                         0x00000000   Number         0  __printf_flags_ss.o ABSOLUTE
    ../clib/printf_percent.s                 0x00000000   Number         0  _printf_percent.o ABSOLUTE
    ../clib/printf_percent.s                 0x00000000   Number         0  _printf_f.o ABSOLUTE
    ../clib/printf_percent.s                 0x00000000   Number         0  _printf_d.o ABSOLUTE
    ../clib/printf_percent.s                 0x00000000   Number         0  _printf_percent_end.o ABSOLUTE
    ../clib/signal.c                         0x00000000   Number         0  __raise.o ABSOLUTE
    ../clib/signal.c                         0x00000000   Number         0  defsig_rtmem_formal.o ABSOLUTE
    ../clib/signal.c                         0x00000000   Number         0  defsig_other.o ABSOLUTE
    ../clib/signal.c                         0x00000000   Number         0  defsig_segv_inner.o ABSOLUTE
    ../clib/signal.c                         0x00000000   Number         0  defsig_general.o ABSOLUTE
    ../clib/signal.c                         0x00000000   Number         0  defsig_cppl_inner.o ABSOLUTE
    ../clib/signal.c                         0x00000000   Number         0  defsig_pvfn_inner.o ABSOLUTE
    ../clib/signal.c                         0x00000000   Number         0  defsig_stak_inner.o ABSOLUTE
    ../clib/signal.c                         0x00000000   Number         0  defsig_rtred_inner.o ABSOLUTE
    ../clib/signal.c                         0x00000000   Number         0  defsig_fpe_inner.o ABSOLUTE
    ../clib/signal.c                         0x00000000   Number         0  defsig_rtmem_outer.o ABSOLUTE
    ../clib/signal.c                         0x00000000   Number         0  defsig_abrt_inner.o ABSOLUTE
    ../clib/signal.c                         0x00000000   Number         0  defsig_exit.o ABSOLUTE
    ../clib/signal.c                         0x00000000   Number         0  defsig_rtmem_inner.o ABSOLUTE
    ../clib/signal.s                         0x00000000   Number         0  defsig.o ABSOLUTE
    ../clib/stdio.c                          0x00000000   Number         0  ferror_locked.o ABSOLUTE
    ../clib/stdio.c                          0x00000000   Number         0  ferror.o ABSOLUTE
    ../clib/stdlib.c                         0x00000000   Number         0  exit.o ABSOLUTE
    ../fplib/d2f.s                           0x00000000   Number         0  d2f.o ABSOLUTE
    ../fplib/ddiv.s                          0x00000000   Number         0  ddiv.o ABSOLUTE
    ../fplib/dmul.s                          0x00000000   Number         0  dmul.o ABSOLUTE
    ../fplib/dnaninf.s                       0x00000000   Number         0  dnaninf.o ABSOLUTE
    ../fplib/dretinf.s                       0x00000000   Number         0  dretinf.o ABSOLUTE
    ../fplib/f2d.s                           0x00000000   Number         0  f2d.o ABSOLUTE
    ../fplib/faddsub.s                       0x00000000   Number         0  faddsub_clz.o ABSOLUTE
    ../fplib/fcmpi.s                         0x00000000   Number         0  fcmpi.o ABSOLUTE
    ../fplib/fdiv.s                          0x00000000   Number         0  fdiv.o ABSOLUTE
    ../fplib/ffix.s                          0x00000000   Number         0  ffix.o ABSOLUTE
    ../fplib/ffixu.s                         0x00000000   Number         0  ffixu.o ABSOLUTE
    ../fplib/fflt.s                          0x00000000   Number         0  fflt_clz.o ABSOLUTE
    ../fplib/fleqf.s                         0x00000000   Number         0  fleqf.o ABSOLUTE
    ../fplib/fmul.s                          0x00000000   Number         0  fmul.o ABSOLUTE
    ../fplib/fnaninf.s                       0x00000000   Number         0  fnaninf.o ABSOLUTE
    ../fplib/fpinit.s                        0x00000000   Number         0  fpinit.o ABSOLUTE
    ../fplib/fretinf.s                       0x00000000   Number         0  fretinf.o ABSOLUTE
    ../fplib/frleqf.s                        0x00000000   Number         0  frleqf.o ABSOLUTE
    ../fplib/istatus.s                       0x00000000   Number         0  istatus.o ABSOLUTE
    ../fplib/printf1.s                       0x00000000   Number         0  printf1.o ABSOLUTE
    ../fplib/usenofp.s                       0x00000000   Number         0  usenofp.o ABSOLUTE
    ../mathlib/fpclassify.c                  0x00000000   Number         0  fpclassify.o ABSOLUTE
    ..\CORE\core_cm3.c                       0x00000000   Number         0  core_cm3.o ABSOLUTE
    ..\CORE\startup_stm32f10x_hd.s           0x00000000   Number         0  startup_stm32f10x_hd.o ABSOLUTE
    ..\HARDWARE\Interupt_Task.c              0x00000000   Number         0  interupt_task.o ABSOLUTE
    ..\HARDWARE\adc_dma.c                    0x00000000   Number         0  adc_dma.o ABSOLUTE
    ..\HARDWARE\key.c                        0x00000000   Number         0  key.o ABSOLUTE
    ..\HARDWARE\led.c                        0x00000000   Number         0  led.o ABSOLUTE
    ..\HARDWARE\oled.c                       0x00000000   Number         0  oled.o ABSOLUTE
    ..\HARDWARE\pid.c                        0x00000000   Number         0  pid.o ABSOLUTE
    ..\HARDWARE\pwm.c                        0x00000000   Number         0  pwm.o ABSOLUTE
    ..\HARDWARE\tim_octigr.c                 0x00000000   Number         0  tim_octigr.o ABSOLUTE
    ..\HARDWARE\time.c                       0x00000000   Number         0  time.o ABSOLUTE
    ..\HARDWARE\vi_control.c                 0x00000000   Number         0  vi_control.o ABSOLUTE
    ..\STM32F10x_FWLib\src\misc.c            0x00000000   Number         0  misc.o ABSOLUTE
    ..\STM32F10x_FWLib\src\stm32f10x_adc.c   0x00000000   Number         0  stm32f10x_adc.o ABSOLUTE
    ..\STM32F10x_FWLib\src\stm32f10x_bkp.c   0x00000000   Number         0  stm32f10x_bkp.o ABSOLUTE
    ..\STM32F10x_FWLib\src\stm32f10x_can.c   0x00000000   Number         0  stm32f10x_can.o ABSOLUTE
    ..\STM32F10x_FWLib\src\stm32f10x_cec.c   0x00000000   Number         0  stm32f10x_cec.o ABSOLUTE
    ..\STM32F10x_FWLib\src\stm32f10x_crc.c   0x00000000   Number         0  stm32f10x_crc.o ABSOLUTE
    ..\STM32F10x_FWLib\src\stm32f10x_dac.c   0x00000000   Number         0  stm32f10x_dac.o ABSOLUTE
    ..\STM32F10x_FWLib\src\stm32f10x_dbgmcu.c 0x00000000   Number         0  stm32f10x_dbgmcu.o ABSOLUTE
    ..\STM32F10x_FWLib\src\stm32f10x_dma.c   0x00000000   Number         0  stm32f10x_dma.o ABSOLUTE
    ..\STM32F10x_FWLib\src\stm32f10x_exti.c  0x00000000   Number         0  stm32f10x_exti.o ABSOLUTE
    ..\STM32F10x_FWLib\src\stm32f10x_flash.c 0x00000000   Number         0  stm32f10x_flash.o ABSOLUTE
    ..\STM32F10x_FWLib\src\stm32f10x_fsmc.c  0x00000000   Number         0  stm32f10x_fsmc.o ABSOLUTE
    ..\STM32F10x_FWLib\src\stm32f10x_gpio.c  0x00000000   Number         0  stm32f10x_gpio.o ABSOLUTE
    ..\STM32F10x_FWLib\src\stm32f10x_i2c.c   0x00000000   Number         0  stm32f10x_i2c.o ABSOLUTE
    ..\STM32F10x_FWLib\src\stm32f10x_iwdg.c  0x00000000   Number         0  stm32f10x_iwdg.o ABSOLUTE
    ..\STM32F10x_FWLib\src\stm32f10x_pwr.c   0x00000000   Number         0  stm32f10x_pwr.o ABSOLUTE
    ..\STM32F10x_FWLib\src\stm32f10x_rcc.c   0x00000000   Number         0  stm32f10x_rcc.o ABSOLUTE
    ..\STM32F10x_FWLib\src\stm32f10x_rtc.c   0x00000000   Number         0  stm32f10x_rtc.o ABSOLUTE
    ..\STM32F10x_FWLib\src\stm32f10x_sdio.c  0x00000000   Number         0  stm32f10x_sdio.o ABSOLUTE
    ..\STM32F10x_FWLib\src\stm32f10x_spi.c   0x00000000   Number         0  stm32f10x_spi.o ABSOLUTE
    ..\STM32F10x_FWLib\src\stm32f10x_tim.c   0x00000000   Number         0  stm32f10x_tim.o ABSOLUTE
    ..\STM32F10x_FWLib\src\stm32f10x_usart.c 0x00000000   Number         0  stm32f10x_usart.o ABSOLUTE
    ..\STM32F10x_FWLib\src\stm32f10x_wwdg.c  0x00000000   Number         0  stm32f10x_wwdg.o ABSOLUTE
    ..\SYSTEM\delay\delay.c                  0x00000000   Number         0  delay.o ABSOLUTE
    ..\SYSTEM\sys\sys.c                      0x00000000   Number         0  sys.o ABSOLUTE
    ..\SYSTEM\usart\usart.c                  0x00000000   Number         0  usart.o ABSOLUTE
    ..\\CORE\\core_cm3.c                     0x00000000   Number         0  core_cm3.o ABSOLUTE
    ..\\SYSTEM\\sys\\sys.c                   0x00000000   Number         0  sys.o ABSOLUTE
    dc.s                                     0x00000000   Number         0  dc.o ABSOLUTE
    main.c                                   0x00000000   Number         0  main.o ABSOLUTE
    stm32f10x_it.c                           0x00000000   Number         0  stm32f10x_it.o ABSOLUTE
    system_stm32f10x.c                       0x00000000   Number         0  system_stm32f10x.o ABSOLUTE
    RESET                                    0x08000000   Section      304  startup_stm32f10x_hd.o(RESET)
    !!!main                                  0x08000130   Section        8  __main.o(!!!main)
    !!!scatter                               0x08000138   Section       52  __scatter.o(!!!scatter)
    !!dclz77c                                0x0800016c   Section      100  __dclz77c.o(!!dclz77c)
    !!handler_zi                             0x080001d0   Section       28  __scatter_zi.o(!!handler_zi)
    .ARM.Collect$$_printf_percent$$00000000  0x080001ec   Section        0  _printf_percent.o(.ARM.Collect$$_printf_percent$$00000000)
    .ARM.Collect$$_printf_percent$$00000003  0x080001ec   Section        6  _printf_f.o(.ARM.Collect$$_printf_percent$$00000003)
    .ARM.Collect$$_printf_percent$$00000009  0x080001f2   Section        6  _printf_d.o(.ARM.Collect$$_printf_percent$$00000009)
    .ARM.Collect$$_printf_percent$$00000017  0x080001f8   Section        4  _printf_percent_end.o(.ARM.Collect$$_printf_percent$$00000017)
    .ARM.Collect$$libinit$$00000000          0x080001fc   Section        2  libinit.o(.ARM.Collect$$libinit$$00000000)
    .ARM.Collect$$libinit$$00000002          0x080001fe   Section        0  libinit2.o(.ARM.Collect$$libinit$$00000002)
    .ARM.Collect$$libinit$$00000004          0x080001fe   Section        0  libinit2.o(.ARM.Collect$$libinit$$00000004)
    .ARM.Collect$$libinit$$0000000A          0x080001fe   Section        0  libinit2.o(.ARM.Collect$$libinit$$0000000A)
    .ARM.Collect$$libinit$$0000000C          0x080001fe   Section        0  libinit2.o(.ARM.Collect$$libinit$$0000000C)
    .ARM.Collect$$libinit$$0000000E          0x080001fe   Section        0  libinit2.o(.ARM.Collect$$libinit$$0000000E)
    .ARM.Collect$$libinit$$0000000F          0x080001fe   Section        6  libinit2.o(.ARM.Collect$$libinit$$0000000F)
    .ARM.Collect$$libinit$$00000011          0x08000204   Section        0  libinit2.o(.ARM.Collect$$libinit$$00000011)
    .ARM.Collect$$libinit$$00000013          0x08000204   Section        0  libinit2.o(.ARM.Collect$$libinit$$00000013)
    .ARM.Collect$$libinit$$00000015          0x08000204   Section        0  libinit2.o(.ARM.Collect$$libinit$$00000015)
    .ARM.Collect$$libinit$$00000016          0x08000204   Section       10  libinit2.o(.ARM.Collect$$libinit$$00000016)
    .ARM.Collect$$libinit$$00000017          0x0800020e   Section        0  libinit2.o(.ARM.Collect$$libinit$$00000017)
    .ARM.Collect$$libinit$$00000019          0x0800020e   Section        0  libinit2.o(.ARM.Collect$$libinit$$00000019)
    .ARM.Collect$$libinit$$0000001B          0x0800020e   Section        0  libinit2.o(.ARM.Collect$$libinit$$0000001B)
    .ARM.Collect$$libinit$$0000001D          0x0800020e   Section        0  libinit2.o(.ARM.Collect$$libinit$$0000001D)
    .ARM.Collect$$libinit$$0000001F          0x0800020e   Section        0  libinit2.o(.ARM.Collect$$libinit$$0000001F)
    .ARM.Collect$$libinit$$00000021          0x0800020e   Section        0  libinit2.o(.ARM.Collect$$libinit$$00000021)
    .ARM.Collect$$libinit$$00000023          0x0800020e   Section        0  libinit2.o(.ARM.Collect$$libinit$$00000023)
    .ARM.Collect$$libinit$$00000025          0x0800020e   Section        0  libinit2.o(.ARM.Collect$$libinit$$00000025)
    .ARM.Collect$$libinit$$0000002C          0x0800020e   Section        0  libinit2.o(.ARM.Collect$$libinit$$0000002C)
    .ARM.Collect$$libinit$$0000002E          0x0800020e   Section        0  libinit2.o(.ARM.Collect$$libinit$$0000002E)
    .ARM.Collect$$libinit$$00000030          0x0800020e   Section        0  libinit2.o(.ARM.Collect$$libinit$$00000030)
    .ARM.Collect$$libinit$$00000032          0x0800020e   Section        0  libinit2.o(.ARM.Collect$$libinit$$00000032)
    .ARM.Collect$$libinit$$00000033          0x0800020e   Section        2  libinit2.o(.ARM.Collect$$libinit$$00000033)
    .ARM.Collect$$libshutdown$$00000000      0x08000210   Section        2  libshutdown.o(.ARM.Collect$$libshutdown$$00000000)
    .ARM.Collect$$libshutdown$$00000002      0x08000212   Section        0  libshutdown2.o(.ARM.Collect$$libshutdown$$00000002)
    .ARM.Collect$$libshutdown$$00000004      0x08000212   Section        0  libshutdown2.o(.ARM.Collect$$libshutdown$$00000004)
    .ARM.Collect$$libshutdown$$00000007      0x08000212   Section        0  libshutdown2.o(.ARM.Collect$$libshutdown$$00000007)
    .ARM.Collect$$libshutdown$$0000000A      0x08000212   Section        0  libshutdown2.o(.ARM.Collect$$libshutdown$$0000000A)
    .ARM.Collect$$libshutdown$$0000000C      0x08000212   Section        0  libshutdown2.o(.ARM.Collect$$libshutdown$$0000000C)
    .ARM.Collect$$libshutdown$$0000000F      0x08000212   Section        0  libshutdown2.o(.ARM.Collect$$libshutdown$$0000000F)
    .ARM.Collect$$libshutdown$$00000010      0x08000212   Section        2  libshutdown2.o(.ARM.Collect$$libshutdown$$00000010)
    .ARM.Collect$$rtentry$$00000000          0x08000214   Section        0  __rtentry.o(.ARM.Collect$$rtentry$$00000000)
    .ARM.Collect$$rtentry$$00000002          0x08000214   Section        0  __rtentry2.o(.ARM.Collect$$rtentry$$00000002)
    .ARM.Collect$$rtentry$$00000004          0x08000214   Section        6  __rtentry4.o(.ARM.Collect$$rtentry$$00000004)
    .ARM.Collect$$rtentry$$00000009          0x0800021a   Section        0  __rtentry2.o(.ARM.Collect$$rtentry$$00000009)
    .ARM.Collect$$rtentry$$0000000A          0x0800021a   Section        4  __rtentry2.o(.ARM.Collect$$rtentry$$0000000A)
    .ARM.Collect$$rtentry$$0000000C          0x0800021e   Section        0  __rtentry2.o(.ARM.Collect$$rtentry$$0000000C)
    .ARM.Collect$$rtentry$$0000000D          0x0800021e   Section        8  __rtentry2.o(.ARM.Collect$$rtentry$$0000000D)
    .ARM.Collect$$rtexit$$00000000           0x08000226   Section        2  rtexit.o(.ARM.Collect$$rtexit$$00000000)
    .ARM.Collect$$rtexit$$00000002           0x08000228   Section        0  rtexit2.o(.ARM.Collect$$rtexit$$00000002)
    .ARM.Collect$$rtexit$$00000003           0x08000228   Section        4  rtexit2.o(.ARM.Collect$$rtexit$$00000003)
    .ARM.Collect$$rtexit$$00000004           0x0800022c   Section        6  rtexit2.o(.ARM.Collect$$rtexit$$00000004)
    .text                                    0x08000234   Section       64  startup_stm32f10x_hd.o(.text)
    .text                                    0x08000274   Section        2  use_no_semi_2.o(.text)
    .text                                    0x08000278   Section        0  noretval__2printf.o(.text)
    .text                                    0x08000290   Section        0  noretval__2sprintf.o(.text)
    .text                                    0x080002b8   Section        0  _printf_pad.o(.text)
    .text                                    0x08000308   Section        0  _printf_dec.o(.text)
    .text                                    0x08000380   Section        0  __printf_wp.o(.text)
    .text                                    0x0800048e   Section        0  heapauxi.o(.text)
    .text                                    0x08000494   Section        2  use_no_semi.o(.text)
    .text                                    0x08000496   Section        0  _printf_intcommon.o(.text)
    .text                                    0x08000548   Section        0  _printf_fp_dec.o(.text)
    _fp_digits                               0x0800054b   Thumb Code   428  _printf_fp_dec.o(.text)
    .text                                    0x08000964   Section        0  _printf_char_common.o(.text)
    _printf_input_char                       0x08000965   Thumb Code    10  _printf_char_common.o(.text)
    .text                                    0x08000994   Section        0  _sputc.o(.text)
    .text                                    0x080009a0   Section        0  _printf_char_file.o(.text)
    .text                                    0x080009c4   Section        8  rt_locale_intlibspace.o(.text)
    .text                                    0x080009cc   Section      138  lludiv10.o(.text)
    .text                                    0x08000a58   Section        0  _printf_fp_infnan.o(.text)
    .text                                    0x08000ad8   Section        0  bigflt0.o(.text)
    .text                                    0x08000bb4   Section        0  ferror.o(.text)
    .text                                    0x08000bbc   Section        8  libspace.o(.text)
    .text                                    0x08000bc4   Section       74  sys_stackheap_outer.o(.text)
    .text                                    0x08000c0e   Section        0  exit.o(.text)
    .text                                    0x08000c20   Section      128  strcmpv7m.o(.text)
    CL$$btod_d2e                             0x08000ca0   Section       62  btod.o(CL$$btod_d2e)
    CL$$btod_d2e_denorm_low                  0x08000cde   Section       70  btod.o(CL$$btod_d2e_denorm_low)
    CL$$btod_d2e_norm_op1                    0x08000d24   Section       96  btod.o(CL$$btod_d2e_norm_op1)
    CL$$btod_div_common                      0x08000d84   Section      824  btod.o(CL$$btod_div_common)
    CL$$btod_e2e                             0x080010bc   Section      198  btod.o(CL$$btod_e2e)
    CL$$btod_ediv                            0x08001182   Section       40  btod.o(CL$$btod_ediv)
    CL$$btod_emul                            0x080011aa   Section       40  btod.o(CL$$btod_emul)
    CL$$btod_mult_common                     0x080011d2   Section      580  btod.o(CL$$btod_mult_common)
    i.ADC_Cmd                                0x08001416   Section        0  stm32f10x_adc.o(i.ADC_Cmd)
    i.ADC_DMACmd                             0x0800142c   Section        0  stm32f10x_adc.o(i.ADC_DMACmd)
    i.ADC_DmaConfig                          0x08001444   Section        0  adc_dma.o(i.ADC_DmaConfig)
    i.ADC_ExternalTrigConvCmd                0x080015a0   Section        0  stm32f10x_adc.o(i.ADC_ExternalTrigConvCmd)
    i.ADC_GetCalibrationStatus               0x080015b6   Section        0  stm32f10x_adc.o(i.ADC_GetCalibrationStatus)
    i.ADC_GetNewSample                       0x080015cc   Section        0  adc_dma.o(i.ADC_GetNewSample)
    i.ADC_Init                               0x0800179c   Section        0  stm32f10x_adc.o(i.ADC_Init)
    i.ADC_RegularChannelConfig               0x080017ec   Section        0  stm32f10x_adc.o(i.ADC_RegularChannelConfig)
    i.ADC_ResetCalibration                   0x080018a4   Section        0  stm32f10x_adc.o(i.ADC_ResetCalibration)
    i.ADC_StartCalibration                   0x080018ae   Section        0  stm32f10x_adc.o(i.ADC_StartCalibration)
    i.BusFault_Handler                       0x080018b8   Section        0  stm32f10x_it.o(i.BusFault_Handler)
    i.DMA1_Channel1_IRQHandler               0x080018bc   Section        0  adc_dma.o(i.DMA1_Channel1_IRQHandler)
    i.DMA_ClearITPendingBit                  0x080018d4   Section        0  stm32f10x_dma.o(i.DMA_ClearITPendingBit)
    i.DMA_Cmd                                0x080018f0   Section        0  stm32f10x_dma.o(i.DMA_Cmd)
    i.DMA_GetITStatus                        0x08001908   Section        0  stm32f10x_dma.o(i.DMA_GetITStatus)
    i.DMA_ITConfig                           0x08001934   Section        0  stm32f10x_dma.o(i.DMA_ITConfig)
    i.DMA_Init                               0x08001946   Section        0  stm32f10x_dma.o(i.DMA_Init)
    i.DOKeyDown                              0x08001984   Section        0  key.o(i.DOKeyDown)
    i.DebugMon_Handler                       0x080019c0   Section        0  stm32f10x_it.o(i.DebugMon_Handler)
    i.EC11Code_Scan                          0x080019c4   Section        0  key.o(i.EC11Code_Scan)
    i.GPIO_Init                              0x08001c00   Section        0  stm32f10x_gpio.o(i.GPIO_Init)
    i.GPIO_PinRemapConfig                    0x08001d18   Section        0  stm32f10x_gpio.o(i.GPIO_PinRemapConfig)
    i.GPIO_ReadInputDataBit                  0x08001da8   Section        0  stm32f10x_gpio.o(i.GPIO_ReadInputDataBit)
    i.GPIO_ResetBits                         0x08001dba   Section        0  stm32f10x_gpio.o(i.GPIO_ResetBits)
    i.GPIO_SetBits                           0x08001dbe   Section        0  stm32f10x_gpio.o(i.GPIO_SetBits)
    i.HardFault_Handler                      0x08001dc2   Section        0  stm32f10x_it.o(i.HardFault_Handler)
    i.IIC_Start                              0x08001dc8   Section        0  oled.o(i.IIC_Start)
    i.IIC_Stop                               0x08001df0   Section        0  oled.o(i.IIC_Stop)
    i.IIC_Wait_Ack                           0x08001e10   Section        0  oled.o(i.IIC_Wait_Ack)
    i.Key_Init                               0x08001e28   Section        0  key.o(i.Key_Init)
    i.LED_Init                               0x08001eb8   Section        0  led.o(i.LED_Init)
    i.MemManage_Handler                      0x08001ef0   Section        0  stm32f10x_it.o(i.MemManage_Handler)
    i.NMI_Handler                            0x08001ef4   Section        0  stm32f10x_it.o(i.NMI_Handler)
    i.NVIC_Init                              0x08001ef8   Section        0  misc.o(i.NVIC_Init)
    i.NVIC_PriorityGroupConfig               0x08001f68   Section        0  misc.o(i.NVIC_PriorityGroupConfig)
    i.OLED_Clear                             0x08001f7c   Section        0  oled.o(i.OLED_Clear)
    i.OLED_Init                              0x08001fbc   Section        0  oled.o(i.OLED_Init)
    i.OLED_Set_Pos                           0x080020d0   Section        0  oled.o(i.OLED_Set_Pos)
    i.OLED_ShowCHinese                       0x080020f8   Section        0  oled.o(i.OLED_ShowCHinese)
    i.OLED_ShowChar                          0x08002160   Section        0  oled.o(i.OLED_ShowChar)
    i.OLED_ShowString                        0x08002204   Section        0  oled.o(i.OLED_ShowString)
    i.OLED_WR_Byte                           0x0800223e   Section        0  oled.o(i.OLED_WR_Byte)
    i.OutputValue                            0x08002258   Section        0  oled.o(i.OutputValue)
    i.PID_Config                             0x080025c0   Section        0  vi_control.o(i.PID_Config)
    i.PWM_Start                              0x08002664   Section        0  pwm.o(i.PWM_Start)
    i.PWM_Stop                               0x08002670   Section        0  pwm.o(i.PWM_Stop)
    i.PWM_Update                             0x080026bc   Section        0  pwm.o(i.PWM_Update)
    i.PendSV_Handler                         0x0800274c   Section        0  stm32f10x_it.o(i.PendSV_Handler)
    i.Pwm_Init                               0x08002750   Section        0  pwm.o(i.Pwm_Init)
    i.RCC_ADCCLKConfig                       0x08002890   Section        0  stm32f10x_rcc.o(i.RCC_ADCCLKConfig)
    i.RCC_AHBPeriphClockCmd                  0x080028a8   Section        0  stm32f10x_rcc.o(i.RCC_AHBPeriphClockCmd)
    i.RCC_APB1PeriphClockCmd                 0x080028c8   Section        0  stm32f10x_rcc.o(i.RCC_APB1PeriphClockCmd)
    i.RCC_APB2PeriphClockCmd                 0x080028e8   Section        0  stm32f10x_rcc.o(i.RCC_APB2PeriphClockCmd)
    i.RCC_GetClocksFreq                      0x08002908   Section        0  stm32f10x_rcc.o(i.RCC_GetClocksFreq)
    i.SVC_Handler                            0x080029dc   Section        0  stm32f10x_it.o(i.SVC_Handler)
    i.SetSysClock                            0x080029de   Section        0  system_stm32f10x.o(i.SetSysClock)
    SetSysClock                              0x080029df   Thumb Code     8  system_stm32f10x.o(i.SetSysClock)
    i.SetSysClockTo72                        0x080029e8   Section        0  system_stm32f10x.o(i.SetSysClockTo72)
    SetSysClockTo72                          0x080029e9   Thumb Code   214  system_stm32f10x.o(i.SetSysClockTo72)
    i.SysTick_CLKSourceConfig                0x08002ac8   Section        0  misc.o(i.SysTick_CLKSourceConfig)
    i.SysTick_Handler                        0x08002af0   Section        0  stm32f10x_it.o(i.SysTick_Handler)
    i.SystemInit                             0x08002af4   Section        0  system_stm32f10x.o(i.SystemInit)
    i.TIM1_UP_IRQHandler                     0x08002b54   Section        0  interupt_task.o(i.TIM1_UP_IRQHandler)
    i.TIM2_IRQHandler                        0x08002ba8   Section        0  interupt_task.o(i.TIM2_IRQHandler)
    i.TIM2_Init                              0x08002bfc   Section        0  time.o(i.TIM2_Init)
    i.TIM4_OCTigrConfig                      0x08002c58   Section        0  tim_octigr.o(i.TIM4_OCTigrConfig)
    i.TIM_ARRPreloadConfig                   0x08002cc8   Section        0  stm32f10x_tim.o(i.TIM_ARRPreloadConfig)
    i.TIM_ClearFlag                          0x08002ce0   Section        0  stm32f10x_tim.o(i.TIM_ClearFlag)
    i.TIM_ClearITPendingBit                  0x08002ce6   Section        0  stm32f10x_tim.o(i.TIM_ClearITPendingBit)
    i.TIM_Cmd                                0x08002cec   Section        0  stm32f10x_tim.o(i.TIM_Cmd)
    i.TIM_CtrlPWMOutputs                     0x08002d04   Section        0  stm32f10x_tim.o(i.TIM_CtrlPWMOutputs)
    i.TIM_GetITStatus                        0x08002d22   Section        0  stm32f10x_tim.o(i.TIM_GetITStatus)
    i.TIM_ITConfig                           0x08002d44   Section        0  stm32f10x_tim.o(i.TIM_ITConfig)
    i.TIM_OC1Init                            0x08002d58   Section        0  stm32f10x_tim.o(i.TIM_OC1Init)
    i.TIM_OC1PreloadConfig                   0x08002df0   Section        0  stm32f10x_tim.o(i.TIM_OC1PreloadConfig)
    i.TIM_OC2Init                            0x08002e04   Section        0  stm32f10x_tim.o(i.TIM_OC2Init)
    i.TIM_OC2PreloadConfig                   0x08002ea8   Section        0  stm32f10x_tim.o(i.TIM_OC2PreloadConfig)
    i.TIM_OC3Init                            0x08002ec4   Section        0  stm32f10x_tim.o(i.TIM_OC3Init)
    i.TIM_OC3PreloadConfig                   0x08002f64   Section        0  stm32f10x_tim.o(i.TIM_OC3PreloadConfig)
    i.TIM_OC4Init                            0x08002f78   Section        0  stm32f10x_tim.o(i.TIM_OC4Init)
    i.TIM_OC4PreloadConfig                   0x08002ff4   Section        0  stm32f10x_tim.o(i.TIM_OC4PreloadConfig)
    i.TIM_TimeBaseInit                       0x08003010   Section        0  stm32f10x_tim.o(i.TIM_TimeBaseInit)
    i.Timer1_Init                            0x080030b4   Section        0  time.o(i.Timer1_Init)
    i.UPKeyDown                              0x0800311c   Section        0  key.o(i.UPKeyDown)
    i.USART1_IRQHandler                      0x08003158   Section        0  usart.o(i.USART1_IRQHandler)
    i.USART_Cmd                              0x080031e0   Section        0  stm32f10x_usart.o(i.USART_Cmd)
    i.USART_GetITStatus                      0x080031f8   Section        0  stm32f10x_usart.o(i.USART_GetITStatus)
    i.USART_ITConfig                         0x0800324c   Section        0  stm32f10x_usart.o(i.USART_ITConfig)
    i.USART_Init                             0x08003298   Section        0  stm32f10x_usart.o(i.USART_Init)
    i.USART_ReceiveData                      0x08003370   Section        0  stm32f10x_usart.o(i.USART_ReceiveData)
    i.Uart_DRS                               0x0800337c   Section        0  usart.o(i.Uart_DRS)
    i.UsageFault_Handler                     0x08003564   Section        0  stm32f10x_it.o(i.UsageFault_Handler)
    i.Write_IIC_Byte                         0x08003568   Section        0  oled.o(i.Write_IIC_Byte)
    i.Write_IIC_Command                      0x080035bc   Section        0  oled.o(i.Write_IIC_Command)
    i.Write_IIC_Data                         0x080035e8   Section        0  oled.o(i.Write_IIC_Data)
    i.__ARM_fpclassify                       0x08003614   Section        0  fpclassify.o(i.__ARM_fpclassify)
    i._is_digit                              0x0800363c   Section        0  __printf_wp.o(i._is_digit)
    i._sys_exit                              0x0800364a   Section        0  usart.o(i._sys_exit)
    i.delay_init                             0x08003650   Section        0  delay.o(i.delay_init)
    i.delay_ms                               0x08003694   Section        0  delay.o(i.delay_ms)
    i.fputc                                  0x080036e0   Section        0  usart.o(i.fputc)
    i.keyscan                                0x080036fc   Section        0  key.o(i.keyscan)
    i.main                                   0x08003804   Section        0  main.o(i.main)
    i.myControlTask                          0x08003920   Section        0  interupt_task.o(i.myControlTask)
    i.pidClear                               0x08003a4c   Section        0  pid.o(i.pidClear)
    i.pidInit                                0x08003a5a   Section        0  pid.o(i.pidInit)
    i.pidReset                               0x08003aca   Section        0  pid.o(i.pidReset)
    i.pidUpdate                              0x08003aec   Section        0  pid.o(i.pidUpdate)
    i.uart_init                              0x08003b64   Section        0  usart.o(i.uart_init)
    locale$$code                             0x08003c04   Section       44  lc_numeric_c.o(locale$$code)
    x$fpl$d2f                                0x08003c30   Section       98  d2f.o(x$fpl$d2f)
    x$fpl$ddiv                               0x08003c94   Section      688  ddiv.o(x$fpl$ddiv)
    ddiv_entry                               0x08003c9b   Thumb Code     0  ddiv.o(x$fpl$ddiv)
    x$fpl$dmul                               0x08003f44   Section      340  dmul.o(x$fpl$dmul)
    x$fpl$dnaninf                            0x08004098   Section      156  dnaninf.o(x$fpl$dnaninf)
    x$fpl$dretinf                            0x08004134   Section       12  dretinf.o(x$fpl$dretinf)
    x$fpl$f2d                                0x08004140   Section       86  f2d.o(x$fpl$f2d)
    x$fpl$fadd                               0x08004198   Section      196  faddsub_clz.o(x$fpl$fadd)
    _fadd1                                   0x080041a7   Thumb Code     0  faddsub_clz.o(x$fpl$fadd)
    x$fpl$fcmpinf                            0x0800425c   Section       24  fcmpi.o(x$fpl$fcmpinf)
    x$fpl$fdiv                               0x08004274   Section      388  fdiv.o(x$fpl$fdiv)
    _fdiv1                                   0x08004275   Thumb Code     0  fdiv.o(x$fpl$fdiv)
    x$fpl$ffix                               0x080043f8   Section       54  ffix.o(x$fpl$ffix)
    x$fpl$ffixu                              0x08004430   Section       62  ffixu.o(x$fpl$ffixu)
    x$fpl$fflt                               0x08004470   Section       48  fflt_clz.o(x$fpl$fflt)
    x$fpl$ffltu                              0x080044a0   Section       38  fflt_clz.o(x$fpl$ffltu)
    x$fpl$fleqf                              0x080044c8   Section      104  fleqf.o(x$fpl$fleqf)
    x$fpl$fmul                               0x08004530   Section      258  fmul.o(x$fpl$fmul)
    x$fpl$fnaninf                            0x08004632   Section      140  fnaninf.o(x$fpl$fnaninf)
    x$fpl$fretinf                            0x080046be   Section       10  fretinf.o(x$fpl$fretinf)
    x$fpl$frleqf                             0x080046c8   Section       98  frleqf.o(x$fpl$frleqf)
    x$fpl$fsub                               0x0800472c   Section      234  faddsub_clz.o(x$fpl$fsub)
    _fsub1                                   0x0800473b   Thumb Code     0  faddsub_clz.o(x$fpl$fsub)
    x$fpl$printf1                            0x08004816   Section        4  printf1.o(x$fpl$printf1)
    .constdata                               0x0800481a   Section     2072  oled.o(.constdata)
    x$fpl$usenofp                            0x0800481a   Section        0  usenofp.o(x$fpl$usenofp)
    .constdata                               0x08005034   Section      148  bigflt0.o(.constdata)
    tenpwrs_x                                0x08005034   Data          60  bigflt0.o(.constdata)
    tenpwrs_i                                0x08005070   Data          64  bigflt0.o(.constdata)
    locale$$data                             0x080050e8   Section       28  lc_numeric_c.o(locale$$data)
    __lcnum_c_name                           0x080050ec   Data           2  lc_numeric_c.o(locale$$data)
    __lcnum_c_start                          0x080050f4   Data           0  lc_numeric_c.o(locale$$data)
    __lcnum_c_point                          0x08005100   Data           0  lc_numeric_c.o(locale$$data)
    __lcnum_c_thousands                      0x08005102   Data           0  lc_numeric_c.o(locale$$data)
    __lcnum_c_grouping                       0x08005103   Data           0  lc_numeric_c.o(locale$$data)
    __lcnum_c_end                            0x08005104   Data           0  lc_numeric_c.o(locale$$data)
    .data                                    0x20000000   Section       20  system_stm32f10x.o(.data)
    .data                                    0x20000014   Section       37  key.o(.data)
    D_EC11_flag                              0x20000036   Data           2  key.o(.data)
    isEC11StartActive                        0x20000038   Data           1  key.o(.data)
    .data                                    0x20000039   Section     2624  oled.o(.data)
    .data                                    0x20000a7c   Section        4  time.o(.data)
    .data                                    0x20000a80   Section        8  pwm.o(.data)
    .data                                    0x20000a88   Section        6  interupt_task.o(.data)
    buzzer_cnt                               0x20000a8a   Data           2  interupt_task.o(.data)
    time                                     0x20000a8c   Data           2  interupt_task.o(.data)
    .data                                    0x20000a8e   Section        4  delay.o(.data)
    fac_us                                   0x20000a8e   Data           1  delay.o(.data)
    fac_ms                                   0x20000a90   Data           2  delay.o(.data)
    .data                                    0x20000a94   Section        6  usart.o(.data)
    .data                                    0x20000a9a   Section       20  stm32f10x_rcc.o(.data)
    APBAHBPrescTable                         0x20000a9a   Data          16  stm32f10x_rcc.o(.data)
    ADCPrescTable                            0x20000aaa   Data           4  stm32f10x_rcc.o(.data)
    .bss                                     0x20000ab0   Section       68  adc_dma.o(.bss)
    .bss                                     0x20000af4   Section      140  vi_control.o(.bss)
    .bss                                     0x20000b80   Section      200  usart.o(.bss)
    .bss                                     0x20000c48   Section       96  libspace.o(.bss)
    HEAP                                     0x20000ca8   Section      512  startup_stm32f10x_hd.o(HEAP)
    Heap_Mem                                 0x20000ca8   Data         512  startup_stm32f10x_hd.o(HEAP)
    STACK                                    0x20000ea8   Section     1024  startup_stm32f10x_hd.o(STACK)
    Stack_Mem                                0x20000ea8   Data        1024  startup_stm32f10x_hd.o(STACK)
    __initial_sp                             0x200012a8   Data           0  startup_stm32f10x_hd.o(STACK)

    Global Symbols

    Symbol Name                              Value     Ov Type        Size  Object(Section)

    BuildAttributes$$THM_ISAv4$P$D$K$B$S$PE$A:L22UL41UL21$X:L11$S22US41US21$IEEE1$IW$USESV6$~STKCKD$USESV7$~SHL$OTIME$ROPI$IEEEJ$EBA8$UX$STANDARDLIB$REQ8$PRES8$EABIv2 0x00000000   Number         0  anon$$obj.o ABSOLUTE
    __ARM_use_no_argv                        0x00000000   Number         0  main.o ABSOLUTE
    _printf_flags                            0x00000000   Number         0  printf_stubs.o ABSOLUTE
    _printf_return_value                     0x00000000   Number         0  printf_stubs.o ABSOLUTE
    _printf_sizespec                         0x00000000   Number         0  printf_stubs.o ABSOLUTE
    _printf_widthprec                        0x00000000   Number         0  printf_stubs.o ABSOLUTE
    __ARM_exceptions_init                     - Undefined Weak Reference
    __alloca_initialize                       - Undefined Weak Reference
    __arm_preinit_                            - Undefined Weak Reference
    __cpp_initialize__aeabi_                  - Undefined Weak Reference
    __cxa_finalize                            - Undefined Weak Reference
    __sigvec_lookup                           - Undefined Weak Reference
    _atexit_init                              - Undefined Weak Reference
    _call_atexit_fns                          - Undefined Weak Reference
    _clock_init                               - Undefined Weak Reference
    _fp_trap_init                             - Undefined Weak Reference
    _fp_trap_shutdown                         - Undefined Weak Reference
    _get_lc_collate                           - Undefined Weak Reference
    _get_lc_ctype                             - Undefined Weak Reference
    _get_lc_monetary                          - Undefined Weak Reference
    _get_lc_time                              - Undefined Weak Reference
    _getenv_init                              - Undefined Weak Reference
    _handle_redirection                       - Undefined Weak Reference
    _init_alloc                               - Undefined Weak Reference
    _init_user_alloc                          - Undefined Weak Reference
    _initio                                   - Undefined Weak Reference
    _mutex_acquire                            - Undefined Weak Reference
    _mutex_release                            - Undefined Weak Reference
    _printf_truncate_signed                   - Undefined Weak Reference
    _printf_truncate_unsigned                 - Undefined Weak Reference
    _rand_init                                - Undefined Weak Reference
    _signal_finish                            - Undefined Weak Reference
    _signal_init                              - Undefined Weak Reference
    _terminate_alloc                          - Undefined Weak Reference
    _terminate_user_alloc                     - Undefined Weak Reference
    _terminateio                              - Undefined Weak Reference
    __Vectors_Size                           0x00000130   Number         0  startup_stm32f10x_hd.o ABSOLUTE
    __Vectors                                0x08000000   Data           4  startup_stm32f10x_hd.o(RESET)
    __Vectors_End                            0x08000130   Data           0  startup_stm32f10x_hd.o(RESET)
    __main                                   0x08000131   Thumb Code     8  __main.o(!!!main)
    __scatterload                            0x08000139   Thumb Code     0  __scatter.o(!!!scatter)
    __scatterload_rt2                        0x08000139   Thumb Code    44  __scatter.o(!!!scatter)
    __scatterload_rt2_thumb_only             0x08000139   Thumb Code     0  __scatter.o(!!!scatter)
    __scatterload_null                       0x08000147   Thumb Code     0  __scatter.o(!!!scatter)
    __decompress                             0x0800016d   Thumb Code   100  __dclz77c.o(!!dclz77c)
    __decompress2                            0x0800016d   Thumb Code     0  __dclz77c.o(!!dclz77c)
    __scatterload_zeroinit                   0x080001d1   Thumb Code    28  __scatter_zi.o(!!handler_zi)
    _printf_f                                0x080001ed   Thumb Code     0  _printf_f.o(.ARM.Collect$$_printf_percent$$00000003)
    _printf_percent                          0x080001ed   Thumb Code     0  _printf_percent.o(.ARM.Collect$$_printf_percent$$00000000)
    _printf_d                                0x080001f3   Thumb Code     0  _printf_d.o(.ARM.Collect$$_printf_percent$$00000009)
    _printf_percent_end                      0x080001f9   Thumb Code     0  _printf_percent_end.o(.ARM.Collect$$_printf_percent$$00000017)
    __rt_lib_init                            0x080001fd   Thumb Code     0  libinit.o(.ARM.Collect$$libinit$$00000000)
    __rt_lib_init_fp_1                       0x080001ff   Thumb Code     0  libinit2.o(.ARM.Collect$$libinit$$00000002)
    __rt_lib_init_heap_1                     0x080001ff   Thumb Code     0  libinit2.o(.ARM.Collect$$libinit$$0000000A)
    __rt_lib_init_lc_common                  0x080001ff   Thumb Code     0  libinit2.o(.ARM.Collect$$libinit$$0000000F)
    __rt_lib_init_preinit_1                  0x080001ff   Thumb Code     0  libinit2.o(.ARM.Collect$$libinit$$00000004)
    __rt_lib_init_rand_1                     0x080001ff   Thumb Code     0  libinit2.o(.ARM.Collect$$libinit$$0000000E)
    __rt_lib_init_user_alloc_1               0x080001ff   Thumb Code     0  libinit2.o(.ARM.Collect$$libinit$$0000000C)
    __rt_lib_init_lc_collate_1               0x08000205   Thumb Code     0  libinit2.o(.ARM.Collect$$libinit$$00000011)
    __rt_lib_init_lc_ctype_1                 0x08000205   Thumb Code     0  libinit2.o(.ARM.Collect$$libinit$$00000013)
    __rt_lib_init_lc_monetary_1              0x08000205   Thumb Code     0  libinit2.o(.ARM.Collect$$libinit$$00000015)
    __rt_lib_init_lc_numeric_2               0x08000205   Thumb Code     0  libinit2.o(.ARM.Collect$$libinit$$00000016)
    __rt_lib_init_alloca_1                   0x0800020f   Thumb Code     0  libinit2.o(.ARM.Collect$$libinit$$0000002E)
    __rt_lib_init_argv_1                     0x0800020f   Thumb Code     0  libinit2.o(.ARM.Collect$$libinit$$0000002C)
    __rt_lib_init_atexit_1                   0x0800020f   Thumb Code     0  libinit2.o(.ARM.Collect$$libinit$$0000001B)
    __rt_lib_init_clock_1                    0x0800020f   Thumb Code     0  libinit2.o(.ARM.Collect$$libinit$$00000021)
    __rt_lib_init_cpp_1                      0x0800020f   Thumb Code     0  libinit2.o(.ARM.Collect$$libinit$$00000032)
    __rt_lib_init_exceptions_1               0x0800020f   Thumb Code     0  libinit2.o(.ARM.Collect$$libinit$$00000030)
    __rt_lib_init_fp_trap_1                  0x0800020f   Thumb Code     0  libinit2.o(.ARM.Collect$$libinit$$0000001F)
    __rt_lib_init_getenv_1                   0x0800020f   Thumb Code     0  libinit2.o(.ARM.Collect$$libinit$$00000023)
    __rt_lib_init_lc_numeric_1               0x0800020f   Thumb Code     0  libinit2.o(.ARM.Collect$$libinit$$00000017)
    __rt_lib_init_lc_time_1                  0x0800020f   Thumb Code     0  libinit2.o(.ARM.Collect$$libinit$$00000019)
    __rt_lib_init_return                     0x0800020f   Thumb Code     0  libinit2.o(.ARM.Collect$$libinit$$00000033)
    __rt_lib_init_signal_1                   0x0800020f   Thumb Code     0  libinit2.o(.ARM.Collect$$libinit$$0000001D)
    __rt_lib_init_stdio_1                    0x0800020f   Thumb Code     0  libinit2.o(.ARM.Collect$$libinit$$00000025)
    __rt_lib_shutdown                        0x08000211   Thumb Code     0  libshutdown.o(.ARM.Collect$$libshutdown$$00000000)
    __rt_lib_shutdown_cpp_1                  0x08000213   Thumb Code     0  libshutdown2.o(.ARM.Collect$$libshutdown$$00000002)
    __rt_lib_shutdown_fp_trap_1              0x08000213   Thumb Code     0  libshutdown2.o(.ARM.Collect$$libshutdown$$00000007)
    __rt_lib_shutdown_heap_1                 0x08000213   Thumb Code     0  libshutdown2.o(.ARM.Collect$$libshutdown$$0000000F)
    __rt_lib_shutdown_return                 0x08000213   Thumb Code     0  libshutdown2.o(.ARM.Collect$$libshutdown$$00000010)
    __rt_lib_shutdown_signal_1               0x08000213   Thumb Code     0  libshutdown2.o(.ARM.Collect$$libshutdown$$0000000A)
    __rt_lib_shutdown_stdio_1                0x08000213   Thumb Code     0  libshutdown2.o(.ARM.Collect$$libshutdown$$00000004)
    __rt_lib_shutdown_user_alloc_1           0x08000213   Thumb Code     0  libshutdown2.o(.ARM.Collect$$libshutdown$$0000000C)
    __rt_entry                               0x08000215   Thumb Code     0  __rtentry.o(.ARM.Collect$$rtentry$$00000000)
    __rt_entry_presh_1                       0x08000215   Thumb Code     0  __rtentry2.o(.ARM.Collect$$rtentry$$00000002)
    __rt_entry_sh                            0x08000215   Thumb Code     0  __rtentry4.o(.ARM.Collect$$rtentry$$00000004)
    __rt_entry_li                            0x0800021b   Thumb Code     0  __rtentry2.o(.ARM.Collect$$rtentry$$0000000A)
    __rt_entry_postsh_1                      0x0800021b   Thumb Code     0  __rtentry2.o(.ARM.Collect$$rtentry$$00000009)
    __rt_entry_main                          0x0800021f   Thumb Code     0  __rtentry2.o(.ARM.Collect$$rtentry$$0000000D)
    __rt_entry_postli_1                      0x0800021f   Thumb Code     0  __rtentry2.o(.ARM.Collect$$rtentry$$0000000C)
    __rt_exit                                0x08000227   Thumb Code     0  rtexit.o(.ARM.Collect$$rtexit$$00000000)
    __rt_exit_ls                             0x08000229   Thumb Code     0  rtexit2.o(.ARM.Collect$$rtexit$$00000003)
    __rt_exit_prels_1                        0x08000229   Thumb Code     0  rtexit2.o(.ARM.Collect$$rtexit$$00000002)
    __rt_exit_exit                           0x0800022d   Thumb Code     0  rtexit2.o(.ARM.Collect$$rtexit$$00000004)
    Reset_Handler                            0x08000235   Thumb Code     8  startup_stm32f10x_hd.o(.text)
    ADC1_2_IRQHandler                        0x0800024f   Thumb Code     0  startup_stm32f10x_hd.o(.text)
    ADC3_IRQHandler                          0x0800024f   Thumb Code     0  startup_stm32f10x_hd.o(.text)
    CAN1_RX1_IRQHandler                      0x0800024f   Thumb Code     0  startup_stm32f10x_hd.o(.text)
    CAN1_SCE_IRQHandler                      0x0800024f   Thumb Code     0  startup_stm32f10x_hd.o(.text)
    DMA1_Channel2_IRQHandler                 0x0800024f   Thumb Code     0  startup_stm32f10x_hd.o(.text)
    DMA1_Channel3_IRQHandler                 0x0800024f   Thumb Code     0  startup_stm32f10x_hd.o(.text)
    DMA1_Channel4_IRQHandler                 0x0800024f   Thumb Code     0  startup_stm32f10x_hd.o(.text)
    DMA1_Channel5_IRQHandler                 0x0800024f   Thumb Code     0  startup_stm32f10x_hd.o(.text)
    DMA1_Channel6_IRQHandler                 0x0800024f   Thumb Code     0  startup_stm32f10x_hd.o(.text)
    DMA1_Channel7_IRQHandler                 0x0800024f   Thumb Code     0  startup_stm32f10x_hd.o(.text)
    DMA2_Channel1_IRQHandler                 0x0800024f   Thumb Code     0  startup_stm32f10x_hd.o(.text)
    DMA2_Channel2_IRQHandler                 0x0800024f   Thumb Code     0  startup_stm32f10x_hd.o(.text)
    DMA2_Channel3_IRQHandler                 0x0800024f   Thumb Code     0  startup_stm32f10x_hd.o(.text)
    DMA2_Channel4_5_IRQHandler               0x0800024f   Thumb Code     0  startup_stm32f10x_hd.o(.text)
    EXTI0_IRQHandler                         0x0800024f   Thumb Code     0  startup_stm32f10x_hd.o(.text)
    EXTI15_10_IRQHandler                     0x0800024f   Thumb Code     0  startup_stm32f10x_hd.o(.text)
    EXTI1_IRQHandler                         0x0800024f   Thumb Code     0  startup_stm32f10x_hd.o(.text)
    EXTI2_IRQHandler                         0x0800024f   Thumb Code     0  startup_stm32f10x_hd.o(.text)
    EXTI3_IRQHandler                         0x0800024f   Thumb Code     0  startup_stm32f10x_hd.o(.text)
    EXTI4_IRQHandler                         0x0800024f   Thumb Code     0  startup_stm32f10x_hd.o(.text)
    EXTI9_5_IRQHandler                       0x0800024f   Thumb Code     0  startup_stm32f10x_hd.o(.text)
    FLASH_IRQHandler                         0x0800024f   Thumb Code     0  startup_stm32f10x_hd.o(.text)
    FSMC_IRQHandler                          0x0800024f   Thumb Code     0  startup_stm32f10x_hd.o(.text)
    I2C1_ER_IRQHandler                       0x0800024f   Thumb Code     0  startup_stm32f10x_hd.o(.text)
    I2C1_EV_IRQHandler                       0x0800024f   Thumb Code     0  startup_stm32f10x_hd.o(.text)
    I2C2_ER_IRQHandler                       0x0800024f   Thumb Code     0  startup_stm32f10x_hd.o(.text)
    I2C2_EV_IRQHandler                       0x0800024f   Thumb Code     0  startup_stm32f10x_hd.o(.text)
    PVD_IRQHandler                           0x0800024f   Thumb Code     0  startup_stm32f10x_hd.o(.text)
    RCC_IRQHandler                           0x0800024f   Thumb Code     0  startup_stm32f10x_hd.o(.text)
    RTCAlarm_IRQHandler                      0x0800024f   Thumb Code     0  startup_stm32f10x_hd.o(.text)
    RTC_IRQHandler                           0x0800024f   Thumb Code     0  startup_stm32f10x_hd.o(.text)
    SDIO_IRQHandler                          0x0800024f   Thumb Code     0  startup_stm32f10x_hd.o(.text)
    SPI1_IRQHandler                          0x0800024f   Thumb Code     0  startup_stm32f10x_hd.o(.text)
    SPI2_IRQHandler                          0x0800024f   Thumb Code     0  startup_stm32f10x_hd.o(.text)
    SPI3_IRQHandler                          0x0800024f   Thumb Code     0  startup_stm32f10x_hd.o(.text)
    TAMPER_IRQHandler                        0x0800024f   Thumb Code     0  startup_stm32f10x_hd.o(.text)
    TIM1_BRK_IRQHandler                      0x0800024f   Thumb Code     0  startup_stm32f10x_hd.o(.text)
    TIM1_CC_IRQHandler                       0x0800024f   Thumb Code     0  startup_stm32f10x_hd.o(.text)
    TIM1_TRG_COM_IRQHandler                  0x0800024f   Thumb Code     0  startup_stm32f10x_hd.o(.text)
    TIM3_IRQHandler                          0x0800024f   Thumb Code     0  startup_stm32f10x_hd.o(.text)
    TIM4_IRQHandler                          0x0800024f   Thumb Code     0  startup_stm32f10x_hd.o(.text)
    TIM5_IRQHandler                          0x0800024f   Thumb Code     0  startup_stm32f10x_hd.o(.text)
    TIM6_IRQHandler                          0x0800024f   Thumb Code     0  startup_stm32f10x_hd.o(.text)
    TIM7_IRQHandler                          0x0800024f   Thumb Code     0  startup_stm32f10x_hd.o(.text)
    TIM8_BRK_IRQHandler                      0x0800024f   Thumb Code     0  startup_stm32f10x_hd.o(.text)
    TIM8_CC_IRQHandler                       0x0800024f   Thumb Code     0  startup_stm32f10x_hd.o(.text)
    TIM8_TRG_COM_IRQHandler                  0x0800024f   Thumb Code     0  startup_stm32f10x_hd.o(.text)
    TIM8_UP_IRQHandler                       0x0800024f   Thumb Code     0  startup_stm32f10x_hd.o(.text)
    UART4_IRQHandler                         0x0800024f   Thumb Code     0  startup_stm32f10x_hd.o(.text)
    UART5_IRQHandler                         0x0800024f   Thumb Code     0  startup_stm32f10x_hd.o(.text)
    USART2_IRQHandler                        0x0800024f   Thumb Code     0  startup_stm32f10x_hd.o(.text)
    USART3_IRQHandler                        0x0800024f   Thumb Code     0  startup_stm32f10x_hd.o(.text)
    USBWakeUp_IRQHandler                     0x0800024f   Thumb Code     0  startup_stm32f10x_hd.o(.text)
    USB_HP_CAN1_TX_IRQHandler                0x0800024f   Thumb Code     0  startup_stm32f10x_hd.o(.text)
    USB_LP_CAN1_RX0_IRQHandler               0x0800024f   Thumb Code     0  startup_stm32f10x_hd.o(.text)
    WWDG_IRQHandler                          0x0800024f   Thumb Code     0  startup_stm32f10x_hd.o(.text)
    __user_initial_stackheap                 0x08000251   Thumb Code     0  startup_stm32f10x_hd.o(.text)
    __use_no_semihosting                     0x08000275   Thumb Code     2  use_no_semi_2.o(.text)
    __2printf                                0x08000279   Thumb Code    20  noretval__2printf.o(.text)
    __2sprintf                               0x08000291   Thumb Code    34  noretval__2sprintf.o(.text)
    _printf_pre_padding                      0x080002b9   Thumb Code    44  _printf_pad.o(.text)
    _printf_post_padding                     0x080002e5   Thumb Code    34  _printf_pad.o(.text)
    _printf_int_dec                          0x08000309   Thumb Code   104  _printf_dec.o(.text)
    __printf                                 0x08000381   Thumb Code   270  __printf_wp.o(.text)
    __use_two_region_memory                  0x0800048f   Thumb Code     2  heapauxi.o(.text)
    __rt_heap_escrow$2region                 0x08000491   Thumb Code     2  heapauxi.o(.text)
    __rt_heap_expand$2region                 0x08000493   Thumb Code     2  heapauxi.o(.text)
    __I$use$semihosting                      0x08000495   Thumb Code     0  use_no_semi.o(.text)
    __use_no_semihosting_swi                 0x08000495   Thumb Code     2  use_no_semi.o(.text)
    _printf_int_common                       0x08000497   Thumb Code   178  _printf_intcommon.o(.text)
    __lib_sel_fp_printf                      0x08000549   Thumb Code     2  _printf_fp_dec.o(.text)
    _printf_fp_dec_real                      0x080006f7   Thumb Code   620  _printf_fp_dec.o(.text)
    _printf_char_common                      0x0800096f   Thumb Code    32  _printf_char_common.o(.text)
    _sputc                                   0x08000995   Thumb Code    10  _sputc.o(.text)
    _printf_char_file                        0x080009a1   Thumb Code    32  _printf_char_file.o(.text)
    __rt_locale                              0x080009c5   Thumb Code     8  rt_locale_intlibspace.o(.text)
    _ll_udiv10                               0x080009cd   Thumb Code   138  lludiv10.o(.text)
    _printf_fp_infnan                        0x08000a59   Thumb Code   112  _printf_fp_infnan.o(.text)
    _btod_etento                             0x08000ad9   Thumb Code   216  bigflt0.o(.text)
    ferror                                   0x08000bb5   Thumb Code     8  ferror.o(.text)
    __user_libspace                          0x08000bbd   Thumb Code     8  libspace.o(.text)
    __user_perproc_libspace                  0x08000bbd   Thumb Code     0  libspace.o(.text)
    __user_perthread_libspace                0x08000bbd   Thumb Code     0  libspace.o(.text)
    __user_setup_stackheap                   0x08000bc5   Thumb Code    74  sys_stackheap_outer.o(.text)
    exit                                     0x08000c0f   Thumb Code    18  exit.o(.text)
    strcmp                                   0x08000c21   Thumb Code   128  strcmpv7m.o(.text)
    _btod_d2e                                0x08000ca1   Thumb Code    62  btod.o(CL$$btod_d2e)
    _d2e_denorm_low                          0x08000cdf   Thumb Code    70  btod.o(CL$$btod_d2e_denorm_low)
    _d2e_norm_op1                            0x08000d25   Thumb Code    96  btod.o(CL$$btod_d2e_norm_op1)
    __btod_div_common                        0x08000d85   Thumb Code   696  btod.o(CL$$btod_div_common)
    _e2e                                     0x080010bd   Thumb Code   198  btod.o(CL$$btod_e2e)
    _btod_ediv                               0x08001183   Thumb Code    40  btod.o(CL$$btod_ediv)
    _btod_emul                               0x080011ab   Thumb Code    40  btod.o(CL$$btod_emul)
    __btod_mult_common                       0x080011d3   Thumb Code   580  btod.o(CL$$btod_mult_common)
    ADC_Cmd                                  0x08001417   Thumb Code    22  stm32f10x_adc.o(i.ADC_Cmd)
    ADC_DMACmd                               0x0800142d   Thumb Code    22  stm32f10x_adc.o(i.ADC_DMACmd)
    ADC_DmaConfig                            0x08001445   Thumb Code   330  adc_dma.o(i.ADC_DmaConfig)
    ADC_ExternalTrigConvCmd                  0x080015a1   Thumb Code    22  stm32f10x_adc.o(i.ADC_ExternalTrigConvCmd)
    ADC_GetCalibrationStatus                 0x080015b7   Thumb Code    20  stm32f10x_adc.o(i.ADC_GetCalibrationStatus)
    ADC_GetNewSample                         0x080015cd   Thumb Code   432  adc_dma.o(i.ADC_GetNewSample)
    ADC_Init                                 0x0800179d   Thumb Code    70  stm32f10x_adc.o(i.ADC_Init)
    ADC_RegularChannelConfig                 0x080017ed   Thumb Code   184  stm32f10x_adc.o(i.ADC_RegularChannelConfig)
    ADC_ResetCalibration                     0x080018a5   Thumb Code    10  stm32f10x_adc.o(i.ADC_ResetCalibration)
    ADC_StartCalibration                     0x080018af   Thumb Code    10  stm32f10x_adc.o(i.ADC_StartCalibration)
    BusFault_Handler                         0x080018b9   Thumb Code     4  stm32f10x_it.o(i.BusFault_Handler)
    DMA1_Channel1_IRQHandler                 0x080018bd   Thumb Code    24  adc_dma.o(i.DMA1_Channel1_IRQHandler)
    DMA_ClearITPendingBit                    0x080018d5   Thumb Code    18  stm32f10x_dma.o(i.DMA_ClearITPendingBit)
    DMA_Cmd                                  0x080018f1   Thumb Code    24  stm32f10x_dma.o(i.DMA_Cmd)
    DMA_GetITStatus                          0x08001909   Thumb Code    36  stm32f10x_dma.o(i.DMA_GetITStatus)
    DMA_ITConfig                             0x08001935   Thumb Code    18  stm32f10x_dma.o(i.DMA_ITConfig)
    DMA_Init                                 0x08001947   Thumb Code    60  stm32f10x_dma.o(i.DMA_Init)
    DOKeyDown                                0x08001985   Thumb Code    56  key.o(i.DOKeyDown)
    DebugMon_Handler                         0x080019c1   Thumb Code     2  stm32f10x_it.o(i.DebugMon_Handler)
    EC11Code_Scan                            0x080019c5   Thumb Code   528  key.o(i.EC11Code_Scan)
    GPIO_Init                                0x08001c01   Thumb Code   278  stm32f10x_gpio.o(i.GPIO_Init)
    GPIO_PinRemapConfig                      0x08001d19   Thumb Code   138  stm32f10x_gpio.o(i.GPIO_PinRemapConfig)
    GPIO_ReadInputDataBit                    0x08001da9   Thumb Code    18  stm32f10x_gpio.o(i.GPIO_ReadInputDataBit)
    GPIO_ResetBits                           0x08001dbb   Thumb Code     4  stm32f10x_gpio.o(i.GPIO_ResetBits)
    GPIO_SetBits                             0x08001dbf   Thumb Code     4  stm32f10x_gpio.o(i.GPIO_SetBits)
    HardFault_Handler                        0x08001dc3   Thumb Code     4  stm32f10x_it.o(i.HardFault_Handler)
    IIC_Start                                0x08001dc9   Thumb Code    36  oled.o(i.IIC_Start)
    IIC_Stop                                 0x08001df1   Thumb Code    28  oled.o(i.IIC_Stop)
    IIC_Wait_Ack                             0x08001e11   Thumb Code    20  oled.o(i.IIC_Wait_Ack)
    Key_Init                                 0x08001e29   Thumb Code   132  key.o(i.Key_Init)
    LED_Init                                 0x08001eb9   Thumb Code    50  led.o(i.LED_Init)
    MemManage_Handler                        0x08001ef1   Thumb Code     4  stm32f10x_it.o(i.MemManage_Handler)
    NMI_Handler                              0x08001ef5   Thumb Code     2  stm32f10x_it.o(i.NMI_Handler)
    NVIC_Init                                0x08001ef9   Thumb Code   100  misc.o(i.NVIC_Init)
    NVIC_PriorityGroupConfig                 0x08001f69   Thumb Code    10  misc.o(i.NVIC_PriorityGroupConfig)
    OLED_Clear                               0x08001f7d   Thumb Code    62  oled.o(i.OLED_Clear)
    OLED_Init                                0x08001fbd   Thumb Code   270  oled.o(i.OLED_Init)
    OLED_Set_Pos                             0x080020d1   Thumb Code    40  oled.o(i.OLED_Set_Pos)
    OLED_ShowCHinese                         0x080020f9   Thumb Code    98  oled.o(i.OLED_ShowCHinese)
    OLED_ShowChar                            0x08002161   Thumb Code   154  oled.o(i.OLED_ShowChar)
    OLED_ShowString                          0x08002205   Thumb Code    58  oled.o(i.OLED_ShowString)
    OLED_WR_Byte                             0x0800223f   Thumb Code    24  oled.o(i.OLED_WR_Byte)
    OutputValue                              0x08002259   Thumb Code   682  oled.o(i.OutputValue)
    PID_Config                               0x080025c1   Thumb Code   130  vi_control.o(i.PID_Config)
    PWM_Start                                0x08002665   Thumb Code     8  pwm.o(i.PWM_Start)
    PWM_Stop                                 0x08002671   Thumb Code    50  pwm.o(i.PWM_Stop)
    PWM_Update                               0x080026bd   Thumb Code   126  pwm.o(i.PWM_Update)
    PendSV_Handler                           0x0800274d   Thumb Code     2  stm32f10x_it.o(i.PendSV_Handler)
    Pwm_Init                                 0x08002751   Thumb Code   300  pwm.o(i.Pwm_Init)
    RCC_ADCCLKConfig                         0x08002891   Thumb Code    18  stm32f10x_rcc.o(i.RCC_ADCCLKConfig)
    RCC_AHBPeriphClockCmd                    0x080028a9   Thumb Code    26  stm32f10x_rcc.o(i.RCC_AHBPeriphClockCmd)
    RCC_APB1PeriphClockCmd                   0x080028c9   Thumb Code    26  stm32f10x_rcc.o(i.RCC_APB1PeriphClockCmd)
    RCC_APB2PeriphClockCmd                   0x080028e9   Thumb Code    26  stm32f10x_rcc.o(i.RCC_APB2PeriphClockCmd)
    RCC_GetClocksFreq                        0x08002909   Thumb Code   192  stm32f10x_rcc.o(i.RCC_GetClocksFreq)
    SVC_Handler                              0x080029dd   Thumb Code     2  stm32f10x_it.o(i.SVC_Handler)
    SysTick_CLKSourceConfig                  0x08002ac9   Thumb Code    40  misc.o(i.SysTick_CLKSourceConfig)
    SysTick_Handler                          0x08002af1   Thumb Code     2  stm32f10x_it.o(i.SysTick_Handler)
    SystemInit                               0x08002af5   Thumb Code    78  system_stm32f10x.o(i.SystemInit)
    TIM1_UP_IRQHandler                       0x08002b55   Thumb Code    72  interupt_task.o(i.TIM1_UP_IRQHandler)
    TIM2_IRQHandler                          0x08002ba9   Thumb Code    72  interupt_task.o(i.TIM2_IRQHandler)
    TIM2_Init                                0x08002bfd   Thumb Code    92  time.o(i.TIM2_Init)
    TIM4_OCTigrConfig                        0x08002c59   Thumb Code   106  tim_octigr.o(i.TIM4_OCTigrConfig)
    TIM_ARRPreloadConfig                     0x08002cc9   Thumb Code    24  stm32f10x_tim.o(i.TIM_ARRPreloadConfig)
    TIM_ClearFlag                            0x08002ce1   Thumb Code     6  stm32f10x_tim.o(i.TIM_ClearFlag)
    TIM_ClearITPendingBit                    0x08002ce7   Thumb Code     6  stm32f10x_tim.o(i.TIM_ClearITPendingBit)
    TIM_Cmd                                  0x08002ced   Thumb Code    24  stm32f10x_tim.o(i.TIM_Cmd)
    TIM_CtrlPWMOutputs                       0x08002d05   Thumb Code    30  stm32f10x_tim.o(i.TIM_CtrlPWMOutputs)
    TIM_GetITStatus                          0x08002d23   Thumb Code    34  stm32f10x_tim.o(i.TIM_GetITStatus)
    TIM_ITConfig                             0x08002d45   Thumb Code    18  stm32f10x_tim.o(i.TIM_ITConfig)
    TIM_OC1Init                              0x08002d59   Thumb Code   132  stm32f10x_tim.o(i.TIM_OC1Init)
    TIM_OC1PreloadConfig                     0x08002df1   Thumb Code    18  stm32f10x_tim.o(i.TIM_OC1PreloadConfig)
    TIM_OC2Init                              0x08002e05   Thumb Code   154  stm32f10x_tim.o(i.TIM_OC2Init)
    TIM_OC2PreloadConfig                     0x08002ea9   Thumb Code    26  stm32f10x_tim.o(i.TIM_OC2PreloadConfig)
    TIM_OC3Init                              0x08002ec5   Thumb Code   150  stm32f10x_tim.o(i.TIM_OC3Init)
    TIM_OC3PreloadConfig                     0x08002f65   Thumb Code    18  stm32f10x_tim.o(i.TIM_OC3PreloadConfig)
    TIM_OC4Init                              0x08002f79   Thumb Code   114  stm32f10x_tim.o(i.TIM_OC4Init)
    TIM_OC4PreloadConfig                     0x08002ff5   Thumb Code    26  stm32f10x_tim.o(i.TIM_OC4PreloadConfig)
    TIM_TimeBaseInit                         0x08003011   Thumb Code   122  stm32f10x_tim.o(i.TIM_TimeBaseInit)
    Timer1_Init                              0x080030b5   Thumb Code   100  time.o(i.Timer1_Init)
    UPKeyDown                                0x0800311d   Thumb Code    56  key.o(i.UPKeyDown)
    USART1_IRQHandler                        0x08003159   Thumb Code   122  usart.o(i.USART1_IRQHandler)
    USART_Cmd                                0x080031e1   Thumb Code    24  stm32f10x_usart.o(i.USART_Cmd)
    USART_GetITStatus                        0x080031f9   Thumb Code    84  stm32f10x_usart.o(i.USART_GetITStatus)
    USART_ITConfig                           0x0800324d   Thumb Code    74  stm32f10x_usart.o(i.USART_ITConfig)
    USART_Init                               0x08003299   Thumb Code   210  stm32f10x_usart.o(i.USART_Init)
    USART_ReceiveData                        0x08003371   Thumb Code    10  stm32f10x_usart.o(i.USART_ReceiveData)
    Uart_DRS                                 0x0800337d   Thumb Code   456  usart.o(i.Uart_DRS)
    UsageFault_Handler                       0x08003565   Thumb Code     4  stm32f10x_it.o(i.UsageFault_Handler)
    Write_IIC_Byte                           0x08003569   Thumb Code    80  oled.o(i.Write_IIC_Byte)
    Write_IIC_Command                        0x080035bd   Thumb Code    44  oled.o(i.Write_IIC_Command)
    Write_IIC_Data                           0x080035e9   Thumb Code    44  oled.o(i.Write_IIC_Data)
    __ARM_fpclassify                         0x08003615   Thumb Code    40  fpclassify.o(i.__ARM_fpclassify)
    _is_digit                                0x0800363d   Thumb Code    14  __printf_wp.o(i._is_digit)
    _sys_exit                                0x0800364b   Thumb Code     6  usart.o(i._sys_exit)
    delay_init                               0x08003651   Thumb Code    50  delay.o(i.delay_init)
    delay_ms                                 0x08003695   Thumb Code    72  delay.o(i.delay_ms)
    fputc                                    0x080036e1   Thumb Code    24  usart.o(i.fputc)
    keyscan                                  0x080036fd   Thumb Code   222  key.o(i.keyscan)
    main                                     0x08003805   Thumb Code   230  main.o(i.main)
    myControlTask                            0x08003921   Thumb Code   258  interupt_task.o(i.myControlTask)
    pidClear                                 0x08003a4d   Thumb Code    14  pid.o(i.pidClear)
    pidInit                                  0x08003a5b   Thumb Code   112  pid.o(i.pidInit)
    pidReset                                 0x08003acb   Thumb Code    34  pid.o(i.pidReset)
    pidUpdate                                0x08003aed   Thumb Code   118  pid.o(i.pidUpdate)
    uart_init                                0x08003b65   Thumb Code   152  usart.o(i.uart_init)
    _get_lc_numeric                          0x08003c05   Thumb Code    44  lc_numeric_c.o(locale$$code)
    __aeabi_d2f                              0x08003c31   Thumb Code     0  d2f.o(x$fpl$d2f)
    _d2f                                     0x08003c31   Thumb Code    98  d2f.o(x$fpl$d2f)
    __aeabi_ddiv                             0x08003c95   Thumb Code     0  ddiv.o(x$fpl$ddiv)
    _ddiv                                    0x08003c95   Thumb Code   552  ddiv.o(x$fpl$ddiv)
    __aeabi_dmul                             0x08003f45   Thumb Code     0  dmul.o(x$fpl$dmul)
    _dmul                                    0x08003f45   Thumb Code   332  dmul.o(x$fpl$dmul)
    __fpl_dnaninf                            0x08004099   Thumb Code   156  dnaninf.o(x$fpl$dnaninf)
    __fpl_dretinf                            0x08004135   Thumb Code    12  dretinf.o(x$fpl$dretinf)
    __aeabi_f2d                              0x08004141   Thumb Code     0  f2d.o(x$fpl$f2d)
    _f2d                                     0x08004141   Thumb Code    86  f2d.o(x$fpl$f2d)
    __aeabi_fadd                             0x08004199   Thumb Code     0  faddsub_clz.o(x$fpl$fadd)
    _fadd                                    0x08004199   Thumb Code   196  faddsub_clz.o(x$fpl$fadd)
    __fpl_fcmp_Inf                           0x0800425d   Thumb Code    24  fcmpi.o(x$fpl$fcmpinf)
    __aeabi_fdiv                             0x08004275   Thumb Code     0  fdiv.o(x$fpl$fdiv)
    _fdiv                                    0x08004275   Thumb Code   384  fdiv.o(x$fpl$fdiv)
    __aeabi_f2iz                             0x080043f9   Thumb Code     0  ffix.o(x$fpl$ffix)
    _ffix                                    0x080043f9   Thumb Code    54  ffix.o(x$fpl$ffix)
    __aeabi_f2uiz                            0x08004431   Thumb Code     0  ffixu.o(x$fpl$ffixu)
    _ffixu                                   0x08004431   Thumb Code    62  ffixu.o(x$fpl$ffixu)
    __aeabi_i2f                              0x08004471   Thumb Code     0  fflt_clz.o(x$fpl$fflt)
    _fflt                                    0x08004471   Thumb Code    48  fflt_clz.o(x$fpl$fflt)
    __aeabi_ui2f                             0x080044a1   Thumb Code     0  fflt_clz.o(x$fpl$ffltu)
    _ffltu                                   0x080044a1   Thumb Code    38  fflt_clz.o(x$fpl$ffltu)
    __aeabi_cfcmple                          0x080044c9   Thumb Code     0  fleqf.o(x$fpl$fleqf)
    _fcmple                                  0x080044c9   Thumb Code   104  fleqf.o(x$fpl$fleqf)
    __fpl_fcmple_InfNaN                      0x0800451b   Thumb Code     0  fleqf.o(x$fpl$fleqf)
    __aeabi_fmul                             0x08004531   Thumb Code     0  fmul.o(x$fpl$fmul)
    _fmul                                    0x08004531   Thumb Code   258  fmul.o(x$fpl$fmul)
    __fpl_fnaninf                            0x08004633   Thumb Code   140  fnaninf.o(x$fpl$fnaninf)
    __fpl_fretinf                            0x080046bf   Thumb Code    10  fretinf.o(x$fpl$fretinf)
    __aeabi_cfrcmple                         0x080046c9   Thumb Code     0  frleqf.o(x$fpl$frleqf)
    _frcmple                                 0x080046c9   Thumb Code    98  frleqf.o(x$fpl$frleqf)
    __aeabi_fsub                             0x0800472d   Thumb Code     0  faddsub_clz.o(x$fpl$fsub)
    _fsub                                    0x0800472d   Thumb Code   234  faddsub_clz.o(x$fpl$fsub)
    _printf_fp_dec                           0x08004817   Thumb Code     4  printf1.o(x$fpl$printf1)
    F6x8                                     0x0800481a   Data         552  oled.o(.constdata)
    __I$use$fp                               0x0800481a   Number         0  usenofp.o(x$fpl$usenofp)
    F8X16                                    0x08004a42   Data        1520  oled.o(.constdata)
    Region$$Table$$Base                      0x080050c8   Number         0  anon$$obj.o(Region$$Table)
    Region$$Table$$Limit                     0x080050e8   Number         0  anon$$obj.o(Region$$Table)
    SystemCoreClock                          0x20000000   Data           4  system_stm32f10x.o(.data)
    AHBPrescTable                            0x20000004   Data          16  system_stm32f10x.o(.data)
    ec11                                     0x20000014   Data          16  key.o(.data)
    RST_Ec11                                 0x20000024   Data          16  key.o(.data)
    ButtonMask                               0x20000034   Data           1  key.o(.data)
    Hzk                                      0x20000039   Data        2624  oled.o(.data)
    DT                                       0x20000a7c   Data           4  time.o(.data)
    pwm                                      0x20000a80   Data           8  pwm.o(.data)
    buz                                      0x20000a88   Data           1  interupt_task.o(.data)
    __stdout                                 0x20000a94   Data           4  usart.o(.data)
    USART_RX_STA                             0x20000a98   Data           2  usart.o(.data)
    power                                    0x20000ab0   Data          68  adc_dma.o(.bss)
    vPID                                     0x20000af4   Data          60  vi_control.o(.bss)
    iPID                                     0x20000b30   Data          60  vi_control.o(.bss)
    device                                   0x20000b6c   Data          20  vi_control.o(.bss)
    USART_RX_BUF                             0x20000b80   Data         200  usart.o(.bss)
    __libspace_start                         0x20000c48   Data          96  libspace.o(.bss)
    __temporary_stack_top$libspace           0x20000ca8   Data           0  libspace.o(.bss)



==============================================================================

Memory Map of the image

  Image Entry point : 0x08000131

  Load Region LR_IROM1 (Base: 0x08000000, Size: 0x00005bb4, Max: 0x00010000, ABSOLUTE, COMPRESSED[0x000053e4])

    Execution Region ER_IROM1 (Base: 0x08000000, Size: 0x00005104, Max: 0x00010000, ABSOLUTE)

    Base Addr    Size         Type   Attr      Idx    E Section Name        Object

    0x08000000   0x00000130   Data   RO          290    RESET               startup_stm32f10x_hd.o
    0x08000130   0x00000008   Code   RO         3825  * !!!main             c_w.l(__main.o)
    0x08000138   0x00000034   Code   RO         4095    !!!scatter          c_w.l(__scatter.o)
    0x0800016c   0x00000064   Code   RO         4093    !!dclz77c           c_w.l(__dclz77c.o)
    0x080001d0   0x0000001c   Code   RO         4097    !!handler_zi        c_w.l(__scatter_zi.o)
    0x080001ec   0x00000000   Code   RO         3822    .ARM.Collect$$_printf_percent$$00000000  c_w.l(_printf_percent.o)
    0x080001ec   0x00000006   Code   RO         3821    .ARM.Collect$$_printf_percent$$00000003  c_w.l(_printf_f.o)
    0x080001f2   0x00000006   Code   RO         3820    .ARM.Collect$$_printf_percent$$00000009  c_w.l(_printf_d.o)
    0x080001f8   0x00000004   Code   RO         3882    .ARM.Collect$$_printf_percent$$00000017  c_w.l(_printf_percent_end.o)
    0x080001fc   0x00000002   Code   RO         3970    .ARM.Collect$$libinit$$00000000  c_w.l(libinit.o)
    0x080001fe   0x00000000   Code   RO         3972    .ARM.Collect$$libinit$$00000002  c_w.l(libinit2.o)
    0x080001fe   0x00000000   Code   RO         3974    .ARM.Collect$$libinit$$00000004  c_w.l(libinit2.o)
    0x080001fe   0x00000000   Code   RO         3977    .ARM.Collect$$libinit$$0000000A  c_w.l(libinit2.o)
    0x080001fe   0x00000000   Code   RO         3979    .ARM.Collect$$libinit$$0000000C  c_w.l(libinit2.o)
    0x080001fe   0x00000000   Code   RO         3981    .ARM.Collect$$libinit$$0000000E  c_w.l(libinit2.o)
    0x080001fe   0x00000006   Code   RO         3982    .ARM.Collect$$libinit$$0000000F  c_w.l(libinit2.o)
    0x08000204   0x00000000   Code   RO         3984    .ARM.Collect$$libinit$$00000011  c_w.l(libinit2.o)
    0x08000204   0x00000000   Code   RO         3986    .ARM.Collect$$libinit$$00000013  c_w.l(libinit2.o)
    0x08000204   0x00000000   Code   RO         3988    .ARM.Collect$$libinit$$00000015  c_w.l(libinit2.o)
    0x08000204   0x0000000a   Code   RO         3989    .ARM.Collect$$libinit$$00000016  c_w.l(libinit2.o)
    0x0800020e   0x00000000   Code   RO         3990    .ARM.Collect$$libinit$$00000017  c_w.l(libinit2.o)
    0x0800020e   0x00000000   Code   RO         3992    .ARM.Collect$$libinit$$00000019  c_w.l(libinit2.o)
    0x0800020e   0x00000000   Code   RO         3994    .ARM.Collect$$libinit$$0000001B  c_w.l(libinit2.o)
    0x0800020e   0x00000000   Code   RO         3996    .ARM.Collect$$libinit$$0000001D  c_w.l(libinit2.o)
    0x0800020e   0x00000000   Code   RO         3998    .ARM.Collect$$libinit$$0000001F  c_w.l(libinit2.o)
    0x0800020e   0x00000000   Code   RO         4000    .ARM.Collect$$libinit$$00000021  c_w.l(libinit2.o)
    0x0800020e   0x00000000   Code   RO         4002    .ARM.Collect$$libinit$$00000023  c_w.l(libinit2.o)
    0x0800020e   0x00000000   Code   RO         4004    .ARM.Collect$$libinit$$00000025  c_w.l(libinit2.o)
    0x0800020e   0x00000000   Code   RO         4008    .ARM.Collect$$libinit$$0000002C  c_w.l(libinit2.o)
    0x0800020e   0x00000000   Code   RO         4010    .ARM.Collect$$libinit$$0000002E  c_w.l(libinit2.o)
    0x0800020e   0x00000000   Code   RO         4012    .ARM.Collect$$libinit$$00000030  c_w.l(libinit2.o)
    0x0800020e   0x00000000   Code   RO         4014    .ARM.Collect$$libinit$$00000032  c_w.l(libinit2.o)
    0x0800020e   0x00000002   Code   RO         4015    .ARM.Collect$$libinit$$00000033  c_w.l(libinit2.o)
    0x08000210   0x00000002   Code   RO         4043    .ARM.Collect$$libshutdown$$00000000  c_w.l(libshutdown.o)
    0x08000212   0x00000000   Code   RO         4052    .ARM.Collect$$libshutdown$$00000002  c_w.l(libshutdown2.o)
    0x08000212   0x00000000   Code   RO         4054    .ARM.Collect$$libshutdown$$00000004  c_w.l(libshutdown2.o)
    0x08000212   0x00000000   Code   RO         4057    .ARM.Collect$$libshutdown$$00000007  c_w.l(libshutdown2.o)
    0x08000212   0x00000000   Code   RO         4060    .ARM.Collect$$libshutdown$$0000000A  c_w.l(libshutdown2.o)
    0x08000212   0x00000000   Code   RO         4062    .ARM.Collect$$libshutdown$$0000000C  c_w.l(libshutdown2.o)
    0x08000212   0x00000000   Code   RO         4065    .ARM.Collect$$libshutdown$$0000000F  c_w.l(libshutdown2.o)
    0x08000212   0x00000002   Code   RO         4066    .ARM.Collect$$libshutdown$$00000010  c_w.l(libshutdown2.o)
    0x08000214   0x00000000   Code   RO         3871    .ARM.Collect$$rtentry$$00000000  c_w.l(__rtentry.o)
    0x08000214   0x00000000   Code   RO         3895    .ARM.Collect$$rtentry$$00000002  c_w.l(__rtentry2.o)
    0x08000214   0x00000006   Code   RO         3907    .ARM.Collect$$rtentry$$00000004  c_w.l(__rtentry4.o)
    0x0800021a   0x00000000   Code   RO         3897    .ARM.Collect$$rtentry$$00000009  c_w.l(__rtentry2.o)
    0x0800021a   0x00000004   Code   RO         3898    .ARM.Collect$$rtentry$$0000000A  c_w.l(__rtentry2.o)
    0x0800021e   0x00000000   Code   RO         3900    .ARM.Collect$$rtentry$$0000000C  c_w.l(__rtentry2.o)
    0x0800021e   0x00000008   Code   RO         3901    .ARM.Collect$$rtentry$$0000000D  c_w.l(__rtentry2.o)
    0x08000226   0x00000002   Code   RO         4016    .ARM.Collect$$rtexit$$00000000  c_w.l(rtexit.o)
    0x08000228   0x00000000   Code   RO         4023    .ARM.Collect$$rtexit$$00000002  c_w.l(rtexit2.o)
    0x08000228   0x00000004   Code   RO         4024    .ARM.Collect$$rtexit$$00000003  c_w.l(rtexit2.o)
    0x0800022c   0x00000006   Code   RO         4025    .ARM.Collect$$rtexit$$00000004  c_w.l(rtexit2.o)
    0x08000232   0x00000002   PAD
    0x08000234   0x00000040   Code   RO          291    .text               startup_stm32f10x_hd.o
    0x08000274   0x00000002   Code   RO         3784    .text               c_w.l(use_no_semi_2.o)
    0x08000276   0x00000002   PAD
    0x08000278   0x00000018   Code   RO         3790    .text               c_w.l(noretval__2printf.o)
    0x08000290   0x00000028   Code   RO         3792    .text               c_w.l(noretval__2sprintf.o)
    0x080002b8   0x0000004e   Code   RO         3796    .text               c_w.l(_printf_pad.o)
    0x08000306   0x00000002   PAD
    0x08000308   0x00000078   Code   RO         3798    .text               c_w.l(_printf_dec.o)
    0x08000380   0x0000010e   Code   RO         3808    .text               c_w.l(__printf_wp.o)
    0x0800048e   0x00000006   Code   RO         3823    .text               c_w.l(heapauxi.o)
    0x08000494   0x00000002   Code   RO         3869    .text               c_w.l(use_no_semi.o)
    0x08000496   0x000000b2   Code   RO         3872    .text               c_w.l(_printf_intcommon.o)
    0x08000548   0x0000041a   Code   RO         3874    .text               c_w.l(_printf_fp_dec.o)
    0x08000962   0x00000002   PAD
    0x08000964   0x00000030   Code   RO         3876    .text               c_w.l(_printf_char_common.o)
    0x08000994   0x0000000a   Code   RO         3878    .text               c_w.l(_sputc.o)
    0x0800099e   0x00000002   PAD
    0x080009a0   0x00000024   Code   RO         3880    .text               c_w.l(_printf_char_file.o)
    0x080009c4   0x00000008   Code   RO         3912    .text               c_w.l(rt_locale_intlibspace.o)
    0x080009cc   0x0000008a   Code   RO         3914    .text               c_w.l(lludiv10.o)
    0x08000a56   0x00000002   PAD
    0x08000a58   0x00000080   Code   RO         3916    .text               c_w.l(_printf_fp_infnan.o)
    0x08000ad8   0x000000dc   Code   RO         3920    .text               c_w.l(bigflt0.o)
    0x08000bb4   0x00000008   Code   RO         3945    .text               c_w.l(ferror.o)
    0x08000bbc   0x00000008   Code   RO         3956    .text               c_w.l(libspace.o)
    0x08000bc4   0x0000004a   Code   RO         3959    .text               c_w.l(sys_stackheap_outer.o)
    0x08000c0e   0x00000012   Code   RO         3961    .text               c_w.l(exit.o)
    0x08000c20   0x00000080   Code   RO         3963    .text               c_w.l(strcmpv7m.o)
    0x08000ca0   0x0000003e   Code   RO         3923    CL$$btod_d2e        c_w.l(btod.o)
    0x08000cde   0x00000046   Code   RO         3925    CL$$btod_d2e_denorm_low  c_w.l(btod.o)
    0x08000d24   0x00000060   Code   RO         3924    CL$$btod_d2e_norm_op1  c_w.l(btod.o)
    0x08000d84   0x00000338   Code   RO         3933    CL$$btod_div_common  c_w.l(btod.o)
    0x080010bc   0x000000c6   Code   RO         3930    CL$$btod_e2e        c_w.l(btod.o)
    0x08001182   0x00000028   Code   RO         3927    CL$$btod_ediv       c_w.l(btod.o)
    0x080011aa   0x00000028   Code   RO         3926    CL$$btod_emul       c_w.l(btod.o)
    0x080011d2   0x00000244   Code   RO         3932    CL$$btod_mult_common  c_w.l(btod.o)
    0x08001416   0x00000016   Code   RO          857    i.ADC_Cmd           stm32f10x_adc.o
    0x0800142c   0x00000016   Code   RO          858    i.ADC_DMACmd        stm32f10x_adc.o
    0x08001442   0x00000002   PAD
    0x08001444   0x0000015c   Code   RO          355    i.ADC_DmaConfig     adc_dma.o
    0x080015a0   0x00000016   Code   RO          862    i.ADC_ExternalTrigConvCmd  stm32f10x_adc.o
    0x080015b6   0x00000014   Code   RO          865    i.ADC_GetCalibrationStatus  stm32f10x_adc.o
    0x080015ca   0x00000002   PAD
    0x080015cc   0x000001d0   Code   RO          356    i.ADC_GetNewSample  adc_dma.o
    0x0800179c   0x00000050   Code   RO          875    i.ADC_Init          stm32f10x_adc.o
    0x080017ec   0x000000b8   Code   RO          879    i.ADC_RegularChannelConfig  stm32f10x_adc.o
    0x080018a4   0x0000000a   Code   RO          880    i.ADC_ResetCalibration  stm32f10x_adc.o
    0x080018ae   0x0000000a   Code   RO          884    i.ADC_StartCalibration  stm32f10x_adc.o
    0x080018b8   0x00000004   Code   RO          154    i.BusFault_Handler  stm32f10x_it.o
    0x080018bc   0x00000018   Code   RO          357    i.DMA1_Channel1_IRQHandler  adc_dma.o
    0x080018d4   0x0000001c   Code   RO         1541    i.DMA_ClearITPendingBit  stm32f10x_dma.o
    0x080018f0   0x00000018   Code   RO         1542    i.DMA_Cmd           stm32f10x_dma.o
    0x08001908   0x0000002c   Code   RO         1546    i.DMA_GetITStatus   stm32f10x_dma.o
    0x08001934   0x00000012   Code   RO         1547    i.DMA_ITConfig      stm32f10x_dma.o
    0x08001946   0x0000003c   Code   RO         1548    i.DMA_Init          stm32f10x_dma.o
    0x08001982   0x00000002   PAD
    0x08001984   0x0000003c   Code   RO          295    i.DOKeyDown         key.o
    0x080019c0   0x00000002   Code   RO          155    i.DebugMon_Handler  stm32f10x_it.o
    0x080019c2   0x00000002   PAD
    0x080019c4   0x0000023c   Code   RO          296    i.EC11Code_Scan     key.o
    0x08001c00   0x00000116   Code   RO         1966    i.GPIO_Init         stm32f10x_gpio.o
    0x08001d16   0x00000002   PAD
    0x08001d18   0x00000090   Code   RO         1968    i.GPIO_PinRemapConfig  stm32f10x_gpio.o
    0x08001da8   0x00000012   Code   RO         1970    i.GPIO_ReadInputDataBit  stm32f10x_gpio.o
    0x08001dba   0x00000004   Code   RO         1973    i.GPIO_ResetBits    stm32f10x_gpio.o
    0x08001dbe   0x00000004   Code   RO         1974    i.GPIO_SetBits      stm32f10x_gpio.o
    0x08001dc2   0x00000004   Code   RO          156    i.HardFault_Handler  stm32f10x_it.o
    0x08001dc6   0x00000002   PAD
    0x08001dc8   0x00000028   Code   RO          404    i.IIC_Start         oled.o
    0x08001df0   0x00000020   Code   RO          405    i.IIC_Stop          oled.o
    0x08001e10   0x00000018   Code   RO          406    i.IIC_Wait_Ack      oled.o
    0x08001e28   0x00000090   Code   RO          297    i.Key_Init          key.o
    0x08001eb8   0x00000038   Code   RO          338    i.LED_Init          led.o
    0x08001ef0   0x00000004   Code   RO          157    i.MemManage_Handler  stm32f10x_it.o
    0x08001ef4   0x00000002   Code   RO          158    i.NMI_Handler       stm32f10x_it.o
    0x08001ef6   0x00000002   PAD
    0x08001ef8   0x00000070   Code   RO          815    i.NVIC_Init         misc.o
    0x08001f68   0x00000014   Code   RO          816    i.NVIC_PriorityGroupConfig  misc.o
    0x08001f7c   0x0000003e   Code   RO          407    i.OLED_Clear        oled.o
    0x08001fba   0x00000002   PAD
    0x08001fbc   0x00000114   Code   RO          411    i.OLED_Init         oled.o
    0x080020d0   0x00000028   Code   RO          413    i.OLED_Set_Pos      oled.o
    0x080020f8   0x00000068   Code   RO          414    i.OLED_ShowCHinese  oled.o
    0x08002160   0x000000a4   Code   RO          415    i.OLED_ShowChar     oled.o
    0x08002204   0x0000003a   Code   RO          417    i.OLED_ShowString   oled.o
    0x0800223e   0x00000018   Code   RO          418    i.OLED_WR_Byte      oled.o
    0x08002256   0x00000002   PAD
    0x08002258   0x00000368   Code   RO          420    i.OutputValue       oled.o
    0x080025c0   0x000000a4   Code   RO          624    i.PID_Config        vi_control.o
    0x08002664   0x0000000c   Code   RO          588    i.PWM_Start         pwm.o
    0x08002670   0x0000004c   Code   RO          589    i.PWM_Stop          pwm.o
    0x080026bc   0x00000090   Code   RO          590    i.PWM_Update        pwm.o
    0x0800274c   0x00000002   Code   RO          159    i.PendSV_Handler    stm32f10x_it.o
    0x0800274e   0x00000002   PAD
    0x08002750   0x00000140   Code   RO          591    i.Pwm_Init          pwm.o
    0x08002890   0x00000018   Code   RO         2380    i.RCC_ADCCLKConfig  stm32f10x_rcc.o
    0x080028a8   0x00000020   Code   RO         2381    i.RCC_AHBPeriphClockCmd  stm32f10x_rcc.o
    0x080028c8   0x00000020   Code   RO         2382    i.RCC_APB1PeriphClockCmd  stm32f10x_rcc.o
    0x080028e8   0x00000020   Code   RO         2384    i.RCC_APB2PeriphClockCmd  stm32f10x_rcc.o
    0x08002908   0x000000d4   Code   RO         2392    i.RCC_GetClocksFreq  stm32f10x_rcc.o
    0x080029dc   0x00000002   Code   RO          160    i.SVC_Handler       stm32f10x_it.o
    0x080029de   0x00000008   Code   RO          243    i.SetSysClock       system_stm32f10x.o
    0x080029e6   0x00000002   PAD
    0x080029e8   0x000000e0   Code   RO          244    i.SetSysClockTo72   system_stm32f10x.o
    0x08002ac8   0x00000028   Code   RO          819    i.SysTick_CLKSourceConfig  misc.o
    0x08002af0   0x00000002   Code   RO          161    i.SysTick_Handler   stm32f10x_it.o
    0x08002af2   0x00000002   PAD
    0x08002af4   0x00000060   Code   RO          246    i.SystemInit        system_stm32f10x.o
    0x08002b54   0x00000054   Code   RO          681    i.TIM1_UP_IRQHandler  interupt_task.o
    0x08002ba8   0x00000054   Code   RO          682    i.TIM2_IRQHandler   interupt_task.o
    0x08002bfc   0x0000005c   Code   RO          564    i.TIM2_Init         time.o
    0x08002c58   0x00000070   Code   RO          389    i.TIM4_OCTigrConfig  tim_octigr.o
    0x08002cc8   0x00000018   Code   RO         3004    i.TIM_ARRPreloadConfig  stm32f10x_tim.o
    0x08002ce0   0x00000006   Code   RO         3010    i.TIM_ClearFlag     stm32f10x_tim.o
    0x08002ce6   0x00000006   Code   RO         3011    i.TIM_ClearITPendingBit  stm32f10x_tim.o
    0x08002cec   0x00000018   Code   RO         3016    i.TIM_Cmd           stm32f10x_tim.o
    0x08002d04   0x0000001e   Code   RO         3018    i.TIM_CtrlPWMOutputs  stm32f10x_tim.o
    0x08002d22   0x00000022   Code   RO         3037    i.TIM_GetITStatus   stm32f10x_tim.o
    0x08002d44   0x00000012   Code   RO         3041    i.TIM_ITConfig      stm32f10x_tim.o
    0x08002d56   0x00000002   PAD
    0x08002d58   0x00000098   Code   RO         3045    i.TIM_OC1Init       stm32f10x_tim.o
    0x08002df0   0x00000012   Code   RO         3048    i.TIM_OC1PreloadConfig  stm32f10x_tim.o
    0x08002e02   0x00000002   PAD
    0x08002e04   0x000000a4   Code   RO         3050    i.TIM_OC2Init       stm32f10x_tim.o
    0x08002ea8   0x0000001a   Code   RO         3053    i.TIM_OC2PreloadConfig  stm32f10x_tim.o
    0x08002ec2   0x00000002   PAD
    0x08002ec4   0x000000a0   Code   RO         3055    i.TIM_OC3Init       stm32f10x_tim.o
    0x08002f64   0x00000012   Code   RO         3058    i.TIM_OC3PreloadConfig  stm32f10x_tim.o
    0x08002f76   0x00000002   PAD
    0x08002f78   0x0000007c   Code   RO         3060    i.TIM_OC4Init       stm32f10x_tim.o
    0x08002ff4   0x0000001a   Code   RO         3062    i.TIM_OC4PreloadConfig  stm32f10x_tim.o
    0x0800300e   0x00000002   PAD
    0x08003010   0x000000a4   Code   RO         3087    i.TIM_TimeBaseInit  stm32f10x_tim.o
    0x080030b4   0x00000068   Code   RO          565    i.Timer1_Init       time.o
    0x0800311c   0x0000003c   Code   RO          298    i.UPKeyDown         key.o
    0x08003158   0x00000088   Code   RO          765    i.USART1_IRQHandler  usart.o
    0x080031e0   0x00000018   Code   RO         3552    i.USART_Cmd         stm32f10x_usart.o
    0x080031f8   0x00000054   Code   RO         3556    i.USART_GetITStatus  stm32f10x_usart.o
    0x0800324c   0x0000004a   Code   RO         3558    i.USART_ITConfig    stm32f10x_usart.o
    0x08003296   0x00000002   PAD
    0x08003298   0x000000d8   Code   RO         3559    i.USART_Init        stm32f10x_usart.o
    0x08003370   0x0000000a   Code   RO         3566    i.USART_ReceiveData  stm32f10x_usart.o
    0x0800337a   0x00000002   PAD
    0x0800337c   0x000001e8   Code   RO          766    i.Uart_DRS          usart.o
    0x08003564   0x00000004   Code   RO          162    i.UsageFault_Handler  stm32f10x_it.o
    0x08003568   0x00000054   Code   RO          421    i.Write_IIC_Byte    oled.o
    0x080035bc   0x0000002c   Code   RO          422    i.Write_IIC_Command  oled.o
    0x080035e8   0x0000002c   Code   RO          423    i.Write_IIC_Data    oled.o
    0x08003614   0x00000028   Code   RO         3954    i.__ARM_fpclassify  m_ws.l(fpclassify.o)
    0x0800363c   0x0000000e   Code   RO         3810    i._is_digit         c_w.l(__printf_wp.o)
    0x0800364a   0x00000006   Code   RO          767    i._sys_exit         usart.o
    0x08003650   0x00000044   Code   RO          711    i.delay_init        delay.o
    0x08003694   0x0000004c   Code   RO          712    i.delay_ms          delay.o
    0x080036e0   0x0000001c   Code   RO          768    i.fputc             usart.o
    0x080036fc   0x00000108   Code   RO          299    i.keyscan           key.o
    0x08003804   0x0000011c   Code   RO            1    i.main              main.o
    0x08003920   0x0000012c   Code   RO          683    i.myControlTask     interupt_task.o
    0x08003a4c   0x0000000e   Code   RO          651    i.pidClear          pid.o
    0x08003a5a   0x00000070   Code   RO          652    i.pidInit           pid.o
    0x08003aca   0x00000022   Code   RO          653    i.pidReset          pid.o
    0x08003aec   0x00000076   Code   RO          654    i.pidUpdate         pid.o
    0x08003b62   0x00000002   PAD
    0x08003b64   0x000000a0   Code   RO          769    i.uart_init         usart.o
    0x08003c04   0x0000002c   Code   RO         3950    locale$$code        c_w.l(lc_numeric_c.o)
    0x08003c30   0x00000062   Code   RO         3827    x$fpl$d2f           fz_ws.l(d2f.o)
    0x08003c92   0x00000002   PAD
    0x08003c94   0x000002b0   Code   RO         3830    x$fpl$ddiv          fz_ws.l(ddiv.o)
    0x08003f44   0x00000154   Code   RO         3833    x$fpl$dmul          fz_ws.l(dmul.o)
    0x08004098   0x0000009c   Code   RO         3883    x$fpl$dnaninf       fz_ws.l(dnaninf.o)
    0x08004134   0x0000000c   Code   RO         3885    x$fpl$dretinf       fz_ws.l(dretinf.o)
    0x08004140   0x00000056   Code   RO         3835    x$fpl$f2d           fz_ws.l(f2d.o)
    0x08004196   0x00000002   PAD
    0x08004198   0x000000c4   Code   RO         3837    x$fpl$fadd          fz_ws.l(faddsub_clz.o)
    0x0800425c   0x00000018   Code   RO         3887    x$fpl$fcmpinf       fz_ws.l(fcmpi.o)
    0x08004274   0x00000184   Code   RO         3844    x$fpl$fdiv          fz_ws.l(fdiv.o)
    0x080043f8   0x00000036   Code   RO         3847    x$fpl$ffix          fz_ws.l(ffix.o)
    0x0800442e   0x00000002   PAD
    0x08004430   0x0000003e   Code   RO         3851    x$fpl$ffixu         fz_ws.l(ffixu.o)
    0x0800446e   0x00000002   PAD
    0x08004470   0x00000030   Code   RO         3856    x$fpl$fflt          fz_ws.l(fflt_clz.o)
    0x080044a0   0x00000026   Code   RO         3855    x$fpl$ffltu         fz_ws.l(fflt_clz.o)
    0x080044c6   0x00000002   PAD
    0x080044c8   0x00000068   Code   RO         3861    x$fpl$fleqf         fz_ws.l(fleqf.o)
    0x08004530   0x00000102   Code   RO         3863    x$fpl$fmul          fz_ws.l(fmul.o)
    0x08004632   0x0000008c   Code   RO         3889    x$fpl$fnaninf       fz_ws.l(fnaninf.o)
    0x080046be   0x0000000a   Code   RO         3891    x$fpl$fretinf       fz_ws.l(fretinf.o)
    0x080046c8   0x00000062   Code   RO         3865    x$fpl$frleqf        fz_ws.l(frleqf.o)
    0x0800472a   0x00000002   PAD
    0x0800472c   0x000000ea   Code   RO         3839    x$fpl$fsub          fz_ws.l(faddsub_clz.o)
    0x08004816   0x00000004   Code   RO         3867    x$fpl$printf1       fz_ws.l(printf1.o)
    0x0800481a   0x00000000   Code   RO         3893    x$fpl$usenofp       fz_ws.l(usenofp.o)
    0x0800481a   0x00000818   Data   RO          426    .constdata          oled.o
    0x08005032   0x00000002   PAD
    0x08005034   0x00000094   Data   RO         3921    .constdata          c_w.l(bigflt0.o)
    0x080050c8   0x00000020   Data   RO         4091    Region$$Table       anon$$obj.o
    0x080050e8   0x0000001c   Data   RO         3949    locale$$data        c_w.l(lc_numeric_c.o)


    Execution Region RW_IRAM1 (Base: 0x20000000, Size: 0x000012a8, Max: 0x00005000, ABSOLUTE, COMPRESSED[0x000002e0])

    Base Addr    Size         Type   Attr      Idx    E Section Name        Object

    0x20000000   0x00000014   Data   RW          247    .data               system_stm32f10x.o
    0x20000014   0x00000025   Data   RW          300    .data               key.o
    0x20000039   0x00000a40   Data   RW          427    .data               oled.o
    0x20000a79   0x00000003   PAD
    0x20000a7c   0x00000004   Data   RW          566    .data               time.o
    0x20000a80   0x00000008   Data   RW          592    .data               pwm.o
    0x20000a88   0x00000006   Data   RW          684    .data               interupt_task.o
    0x20000a8e   0x00000004   Data   RW          714    .data               delay.o
    0x20000a92   0x00000002   PAD
    0x20000a94   0x00000006   Data   RW          771    .data               usart.o
    0x20000a9a   0x00000014   Data   RW         2412    .data               stm32f10x_rcc.o
    0x20000aae   0x00000002   PAD
    0x20000ab0   0x00000044   Zero   RW          358    .bss                adc_dma.o
    0x20000af4   0x0000008c   Zero   RW          626    .bss                vi_control.o
    0x20000b80   0x000000c8   Zero   RW          770    .bss                usart.o
    0x20000c48   0x00000060   Zero   RW         3957    .bss                c_w.l(libspace.o)
    0x20000ca8   0x00000200   Zero   RW          289    HEAP                startup_stm32f10x_hd.o
    0x20000ea8   0x00000400   Zero   RW          288    STACK               startup_stm32f10x_hd.o


==============================================================================

Image component sizes


      Code (inc. data)   RO Data    RW Data    ZI Data      Debug   Object Name

       836         50          0          0         68      17993   adc_dma.o
         0          0          0          0          0         32   core_cm3.o
       144         22          0          4          0       1256   delay.o
       468         66          0          6          0       1997   interupt_task.o
      1100        106          0         37          0       4348   key.o
        56          6          0          0          0        499   led.o
       284         54          0          0          0     271535   main.o
       172         22          0          0          0       2129   misc.o
      1868        228       2072       2624          0       9991   oled.o
       278          0          0          0          0       2464   pid.o
       552         68          0          8          0       3145   pwm.o
        64         26        304          0       1536        816   startup_stm32f10x_hd.o
       370         10          0          0          0       6968   stm32f10x_adc.o
       174         18          0          0          0       4610   stm32f10x_dma.o
       448          6          0          0          0       4614   stm32f10x_gpio.o
        26          0          0          0          0       3874   stm32f10x_it.o
       332         44          0         20          0       5685   stm32f10x_rcc.o
       994         92          0          0          0      10742   stm32f10x_tim.o
       408          6          0          0          0       5118   stm32f10x_usart.o
       328         28          0         20          0       2177   system_stm32f10x.o
       112          6          0          0          0        672   tim_octigr.o
       196          4          0          4          0       1563   time.o
       818         58          0          6        200       5219   usart.o
       164         34          0          0        140       2112   vi_control.o

    ----------------------------------------------------------------------
     10232        954       2410       2736       1944     369559   Object Totals
         0          0         32          0          0          0   (incl. Generated)
        40          0          2          7          0          0   (incl. Padding)

    ----------------------------------------------------------------------

      Code (inc. data)   RO Data    RW Data    ZI Data      Debug   Library Member Name

       100          0          0          0          0          0   __dclz77c.o
         8          0          0          0          0         68   __main.o
       284          0          0          0          0        156   __printf_wp.o
         0          0          0          0          0          0   __rtentry.o
        12          0          0          0          0          0   __rtentry2.o
         6          0          0          0          0          0   __rtentry4.o
        52          8          0          0          0          0   __scatter.o
        28          0          0          0          0          0   __scatter_zi.o
        48          6          0          0          0         96   _printf_char_common.o
        36          4          0          0          0         80   _printf_char_file.o
         6          0          0          0          0          0   _printf_d.o
       120         16          0          0          0         92   _printf_dec.o
         6          0          0          0          0          0   _printf_f.o
      1050          0          0          0          0        216   _printf_fp_dec.o
       128         16          0          0          0         84   _printf_fp_infnan.o
       178          0          0          0          0         88   _printf_intcommon.o
        78          0          0          0          0        108   _printf_pad.o
         0          0          0          0          0          0   _printf_percent.o
         4          0          0          0          0          0   _printf_percent_end.o
        10          0          0          0          0         68   _sputc.o
       220          4        148          0          0         96   bigflt0.o
      1910        128          0          0          0        672   btod.o
        18          0          0          0          0         80   exit.o
         8          0          0          0          0         68   ferror.o
         6          0          0          0          0        152   heapauxi.o
        44         10         28          0          0         76   lc_numeric_c.o
         2          0          0          0          0          0   libinit.o
        18          0          0          0          0          0   libinit2.o
         2          0          0          0          0          0   libshutdown.o
         2          0          0          0          0          0   libshutdown2.o
         8          4          0          0         96         68   libspace.o
       138          0          0          0          0         80   lludiv10.o
        24          4          0          0          0         84   noretval__2printf.o
        40          6          0          0          0         84   noretval__2sprintf.o
         8          4          0          0          0         68   rt_locale_intlibspace.o
         2          0          0          0          0          0   rtexit.o
        10          0          0          0          0          0   rtexit2.o
       128          0          0          0          0         68   strcmpv7m.o
        74          0          0          0          0         80   sys_stackheap_outer.o
         2          0          0          0          0         68   use_no_semi.o
         2          0          0          0          0         68   use_no_semi_2.o
        98          4          0          0          0         92   d2f.o
       688        140          0          0          0        208   ddiv.o
       340         12          0          0          0        104   dmul.o
       156          4          0          0          0         92   dnaninf.o
        12          0          0          0          0         68   dretinf.o
        86          4          0          0          0         84   f2d.o
       430          8          0          0          0        168   faddsub_clz.o
        24          0          0          0          0         68   fcmpi.o
       388         76          0          0          0         96   fdiv.o
        54          4          0          0          0         84   ffix.o
        62          4          0          0          0         84   ffixu.o
        86          0          0          0          0        136   fflt_clz.o
       104          4          0          0          0         84   fleqf.o
       258          4          0          0          0         84   fmul.o
       140          4          0          0          0         84   fnaninf.o
        10          0          0          0          0         68   fretinf.o
        98          0          0          0          0         68   frleqf.o
         4          0          0          0          0         68   printf1.o
         0          0          0          0          0          0   usenofp.o
        40          0          0          0          0         68   fpclassify.o

    ----------------------------------------------------------------------
      7922        478        176          0         96       4676   Library Totals
        24          0          0          0          0          0   (incl. Padding)

    ----------------------------------------------------------------------

      Code (inc. data)   RO Data    RW Data    ZI Data      Debug   Library Name

      4820        210        176          0         96       2868   c_w.l
      3038        268          0          0          0       1740   fz_ws.l
        40          0          0          0          0         68   m_ws.l

    ----------------------------------------------------------------------
      7922        478        176          0         96       4676   Library Totals

    ----------------------------------------------------------------------

==============================================================================


      Code (inc. data)   RO Data    RW Data    ZI Data      Debug   

     18154       1432       2586       2736       2040     366327   Grand Totals
     18154       1432       2586        736       2040     366327   ELF Image Totals (compressed)
     18154       1432       2586        736          0          0   ROM Totals

==============================================================================

    Total RO  Size (Code + RO Data)                20740 (  20.25kB)
    Total RW  Size (RW Data + ZI Data)              4776 (   4.66kB)
    Total ROM Size (Code + RO Data + RW Data)      21476 (  20.97kB)

==============================================================================

